S03000005A335377697463685F65667233326D673132703433326631303234676C3132355F62726434313631612E73333728
S113000020D40320271D0300199A0100351703008B
S1130010A70A02020002000004180FAC206A0B01B8
S113002000000000000000000000000000000000CC
S113003000000000E0500300000000000000000089
S11300400000000000000000FFFFFFFFFFFFFFFFB4
S1130050FFFFFFFFFFFFFFFFFFFFFFFFFFFFFFFFAC
S113006000700F000000000000000000FFFFFFFF11
S1130070FFFFFFFF1C000000000000000000000064
S1130080000000000000000060FF032060FF032068
S113009020D4032049AC0300AC1D0300C0CA0320D4
S10F00A0100E0020000010000000000002
S113020020D40320271D0300199A01003517030089
S1130210C5350200391703003D1703000000000034
S1130220000000000000000000000000C384000083
S11302304117030027710000578E0000E7D6000025
S1130240ED350200BBD20200116D00004917030016
S113025095CD0200F5D20200C1D20200C3D2020041
S1130260BDD202002FB6020099B802001356020054
S113027009C601004917030049170300B719030011
S11302804917030049170300A7B8020049170300E0
S113029049170300491703004917030049170300CE
S11302A049170300491703004917030049170300BE
S11302B0F7D20200BFD202000BB102002BD302001E
S11302C0491703000D1B03004917030049170300D6
S11302D0491703004917030049170300491703008E
S11302E0491703004917030049170300491703007E
S11302F0491703004917030049170300491703006E
S113030049170300491703000000000000120348C6
S1130310016830BF41F000410160704700BF4C31BB
S11303200E40000080B5002000F061FB012002BDFA
S11303301E482DE9F04100688189007D091A1446A0
S11303409846CE1E0027002506E0B2B2B9B2404658
S113035000F043FDFF1C6D1CE8B2A042F5D3002061
S113036000F045FB0120BDE8F0812DE9F8430F4E74
S113037030688189007D091A90469946CF1E002471
S1130380002509E000F014F8E41C00F011F8A41CA6
S113039000F00EF8E41C6D1CE8B24045F2D330685E
S11303A0002100F065FB0120BDE8F28398E0032002
S11303B0BAB2A1B2484600F010BD704780B501F052
S11303C0B8F8FF2805D0022803D2DFF87818085CB3
S11303D002BD002002BD10B50268DFF86C18138856
S11303E00B8054884C8052790A7103681A794A71D7
S11303F04FF48A53CB80026893799A06DFF84C282D
S113040044BF4FF48B53CB801378816939B9C088CA
S1130410DFF83C18088003F0FD03137010BD43F0AF
S11304200203137016228169DFF82848204601F080
S113043031FA0022227010BD80B5002001F03FFA8D
S1130440FF2001F0D1F801F048FA00F051FD014617
S11304500122DFF8F00701F061FADFF8EC37DFF88A
S1130460F827DFF8F807522101F01DFB01F0CEFB5D
S113047001F066FC01F07AFD01F09BFE01F0DAFE6A
S113048001F0DAFEBDE8014000F00ABE704780B515
S113049001F0CFFF20B903F055FD08B903F03BFE8E
S11304A003F09DFEBDE8014003F0A8BE70B503460D
S11304B000224FF6FF70DFF8A84701E0521C92B209
S11304C034F8325085420CD09D42F7D1B3F57C4FBD
S11304D006DB04EBC2056E888E4201D00D00EDD11F
S11304E0104670BD10B50446FFF7E0FFDFF874173F
S11304F00B884FF6FF72904203D12246DFF868174B
S113050006E0DFF85C1701EBC000DFF86017426813
S1130510BDE81040184603F0BEBEDFF8540700687B
S113052000B1008A7047F8B50446DFF848572168DF
S1130530487900F0FEFF2268FF280BD100F065F82F
S1130540DFF83417022003F0A6FE2068DFF82C172A
S1130550427944E00001DFF82817DFF828670B1818
S11305601F7B237F9F4209D000F04FF82068DFF8FB
S1130570183700F045F8227F4EA130E0891CDFF8DF
S11305800C77085A1188884210D04FF6FF739942AD
S113059002D1B0F5004F09D300F037F82068DFF836
S11305A0F03600F02DF82068028817E02079022840
S11305B018BF032818D11189507903F0BEFD98B9EA
S11305C020684288E37C2946022003F064FE206808
S11305D0DFF8C03600F014F820680289394602209A
S11305E003F053FE0020F2BDA07B0028204602D079
S11305F003F0A2FE01E003F0CFFE00B10120F2BD42
S113060042793146022003F046BEE37C52882946F3
S1130610022003F040BE7CB51446227855074CBF37
S1130620052203229342DFF8705604D200922A4630
S1130630DFF8681632E0089E069A30603171F28065
S1130640B460B381207800F00100B0732178890888
S113065001F00101F17301212078C00800F00100CC
S11306607075F07B30B131751A46204600F0B5FB49
S1130670317D891C30824A1CC9B23275605CB389F1
S1130680B074501CD2B23075A15CF174C4B2A342F0
S113069009D2C0B200902A46DFF80416042003F001
S11306A0F4FD002076BD0798B06104F0CAF93077F4
S11306B0012076BD256400002DE9FE4F81460E46DB
S11306C092460D9DDFF8DC75DFF8DC159B46384655
S11306D0202204F06BFABDF83000DFF89485009016
S11306E0029701955B46524631464846FFF793FF11
S11306F00024002800F0B680C8F80070B97CDFF848
S1130700AC25DFF8AC351170187800283AD004F025
S1130710EDFA0246DFF89C15042003F0BCFD3868AE
S11307204188BA8900914379DFF88C15042003F0DD
S1130730B2FD042003F06AFD20B13868398A40888C
S1130740FFF7D0FEF87B28B13A8ADFF87015042051
S113075003F0A1FDF87CBB7CDFF864150090B86859
S11307600278042003F097FD397DBA89B868521ADB
S11307700144012392B2042004F0D0FA59A10420C8
S113078003F083FD3846FFF726FE384604F074FB79
S1130790002834D1ADBB042E18BF052E03D0022E81
S11307A018BF032E01D1012200E000223868F98825
S11307B001910121438800930388F87C00F05AF9E1
S11307C010B3386881798A061ED44288DFF8F4149D
S11307D0DFF8F444022003F058FD012020700022C9
S11307E00121384600F007F938B10346DFF8DC246C
S11307F0DFF8DC14022003F048FD002020700124FF
S113080030E0287D81072DD538684179FF2925D12D
S11308100026DFF8345400F06BFBF1B2814221D2A0
S1130820F0B200F088FE8146F0B200F065FB98B1AA
S1130830386841883A8A484600F0BEFD60B13846BF
S1130840FFF7C9FD386880F8059085F804903846AC
S1130850FFF769FE00B10124761CDCE73846FFF798
S113086062FE044600F068FA1621DFF8E80304F09B
S113087019FB0020C8F800002046BDE8FE8FDFF811
S113088054140878401C0870FFE700F07F0070479C
S1130890DFF844140870704780B1DFF83C1409781D
S11308A0012904D1018841F04001018070470229E7
S11308B004D102884FF6BF710A400280704778B1B4
S11308C0DFF818140A78012A04D1DFF81424137805
S11308D00B7001E0022A03D1017841F0100101708C
S11308E0704700005D0000002DE9FE43DFF85C4323
S11308F02278D30706D5DFF8EC13022003F0C5FCF9
S1130900002070E0DFF86813DFF83C53096871B128
S113091009688B799E0603D5EB8843F02003EB80AE
S113092089794B0603D5E98841F04001E980DFF875
S11309302C6331784B07DFF8741347BF0F78F770D7
S11309400B7873709107DFF810730CD53988C148A0
S1130950324604F087FC8146207800F0FD004FF019
S1130960490820701AE0BA490C884FF6FC739C427F
S11309700AD2019000962A463B882146002004F0C2
S11309806DFE4FF0550808E0009033463A8829463A
S1130990204604F045FE4FF042088146A8798106BE
S11309A04CBFDFF8444344A404F0A0F90246029487
S11309B0CDF80490CDF800800220DFF83033DFF862
S11309C0301303F062FCDFF82C13022003F063FC05
S11309D03A8801233146022004F0A0F937A102200D
S11309E003F053FC4846BDE8FE8300207CE7014643
S11309F09F480068002270B504460E4620790028FE
S1130A0018BF012815460BD1A0680178CA0601D584
S1130A10300005D0A07B002804BFE07C0B2801D166
S1130A20002070BD8C4A00211180607D00B908212E
S1130A30E07B18B9084600F095F906E041F004009F
S1130A4000F090F9208A00F09CF9A07C00F08AF96B
S1130A500B2000F087F9E07C00F084F9304600F0C8
S1130A6081F92046FFF7B7FC2846BDE870403BE714
S1130A700022C0E770B51D469F4B934E1C78012C95
S1130A8001D0337813B10020307070BD0B0002D157
S1130A900AB1002070BD002C1EBF049C4FF65743C2
S1130AA09C4206D003460A462146284603F037FBFB
S1130AB000B1012070BD0000000000005D000000D6
S1130AC038B5D2885224950648BF4924550548BFF5
S1130AD0083C150548BF083C1204034648BFA41E41
S1130AE00846032B4FF6FD710ED8DFE803F0090228
S1130AF0060BC0B205F002FA02E0C0B205F028FC11
S1130B00014601E0641EE4B2084603F027FB241A00
S1130B10E0B232BD70B50C001646054608BF00268B
S1130B200FD02078FF2808BFFF260AD0204600F007
S1130B3074F9864288BF06463246611C681C00F080
S1130B40A9FE2E7070BDF8B50C000546164603D1FB
S1130B50002068702970F1BD2078FF2804BF6078F8
S1130B60FF2802D128706870F1BD204600F05AF9C0
S1130B700746BE42B8BF37463A46A11CA81C00F03F
S1130B8089FE2F703F126F70F1BD2DE9F041541EA4
S1130B90002B3ED0042A37DC00230026984614E0BC
S1130BA0651B002814BF10F805C04FF0000C571E39
S1130BB0A7EB08074D5DFF000CFA07FC05FA07F7E1
S1130BC04CEA03033E4308F101085FFA88F59542B5
S1130BD0E6D3042A10DAD5000120D2006D1E00FAF3
S1130BE002F2524243FA05F1CC0748BF134346FAD6
S1130BF005F0C00748BF16439E4215DBB34203DA33
S1130C004FF0FF30BDE8F0810020FBE7AE42F7DB98
S1130C105B1CDDB29542F7D2651B00280CBF002691
S1130C20465D4D5DB542F1DA0120EBE70021334A20
S1130C3001E0891CC9B2535C8342FAD3501840784E
S1130C4070470000A8FE0320B4DF0320EEFE03205B
S1130C5082F903209CE00320EAFB0320C0DF032089
S1130C60E83D0300A6FE0320E43B0300FC3B030035
S1130C7098E00320583C0300783C0300943C0300B4
S1130C80ACDE03209C3C0300C43C0300D43C0300C2
S1130C90CC3C0300DC3C0300003D0300E43C0300C7
S1130CA0083D030078E00320283E0300CADB03204C
S1130CB0C6DB0320043C03000C3C03002C3C030073
S1130CC0383C0300243D0300EAFE0320743D030086
S1130CD04C3D0300CBDB0320EBFE0320ECFE0320A2
S1130CE0EDFE03207C3D0300C83D0300C03D03002E
S1130CF0A43D0300D83D0300C9DB0320483E0300A4
S1130D00283808288041C00F704740B11C280BD0F8
S1130D101D280CD01E2818BF1F2805D009E00B3948
S1130D20102906D2002070471B29FBDB01E00929AA
S1130D30F8DB8A207047704780B54049002008706E
S1130D4005F068FD3E4A108052213E4804F0AAF89E
S1130D503D490020088000213C480022002380E80F
S1130D600E0001BD10B538490A88522A07DA354CFD
S1130D70A054521C0A8092B2A018401E10BD00203C
S1130D8010BD38B50546C0B2FFF7ECFF0446280A8B
S1130D90FFF7E8FF002C18BF002801D0204632BD21
S1130DA0002032BD70B500245E18B2421D460DDA33
S1130DB01A46274900F02EF8002070BD51FA85F23A
S1130DC002446D1E12F8013C03EB0424EAB2002A2B
S1130DD0F4D1204670BD0423E4E780B50223FFF775
S1130DE0E1FF80B202BD38B50B469342194C1A4953
S1130DF028BF1A4A08D2C55CFF2D08BF00255D191B
S1130E006D1CAA4204DA164A00F004F8204632BDEA
S1130E10184432BD022003F038BA0078FF2808BF16
S1130E200020704780B502220021FFF7D6FF4FF65D
S1130E30FF72904208BF002002BD0000EEFE0320B6
S1130E4082F90320C0DF0320EAFB0320B4DF032080
S1130E5078330300A4FE032090330300A03303007F
S1130E60B43303007FB5DFF8EC29DFF8EC0913682D
S1130E700088DFF8E829ADF8060003A9DFF8E009E7
S1130E800568DFF8E0090088ADF802000B60002077
S1130E90DFF8D4190988ADF8000002AC0220ADF8DF
S1130EA00410107025600021DFF8C00903AE0DF1B5
S1130EB00604DFF8BC29655C02EB011202AC157074
S1130EC036F81130538034F81130938001AC0DF1B1
S1130ED00203655C95715C5C00EBC40595600125BB
S1130EE01DF801401473491C02295573DFDB7FBDD3
S1130EF0DFF8680900787047DFF8741901EB001017
S1130F00407B00F001007047412818BF422803D0FD
S1130F10432818BF442801D101207047002070479E
S1130F20412818BF422801D1012070470020704792
S1130F30432818BF442801D101207047002070477E
S1130F40F8B515461E46069A079B044600F04DFA6E
S1130F5060B1042100F0D6FB070007D0204600F062
S1130F60B3FC324629462046B84795E0F1BD2DE949
S1130F70FE4314001CBF0A9D002D064688461F46EA
S1130F8020D0FFB128780C9B0107618820794CBFE1
S1130F904022802200F029FAA0B1082100F0B2FB1F
S1130FA0814678B1207900F08FFC9DF82C000190E7
S1130FB000953B46224641463046C847BDE8F743C4
S1130FC000F08BBCBDE8F783F8B51646069C1A46BC
S1130FD00546234600F009FAD0B121000BD10221C5
S1130FE000F090FB040013D0284600F06DFC31465D
S1130FF02846A0470BE0102100F084FB070007D02F
S1131000284600F061FC224631462846B84743E0B2
S1131010F1BD2DE9FC411746089C1A4606462346B5
S113102000F0E3F908B9862016E000259CB92021D8
S113103000F068FB804670B10A9C099D304600F0C0
S113104043FC0B98009023462A4639463046C04755
S1131050054600F042FC2846BDE8F681F8B5044692
S1131060A568207800F030FC002611E02868F1B271
S11310701422514347182078398803F04FF801218E
S1131080384600F03FFB01001CBF20788847761CDF
S11310902979F0B28842E9D3BDE8F14000F01DBCE3
S11310A038B50024DFF8B4570AE0DFF8C407210696
S11310B000EB1150427BD10748BFFFF7CFFF641C00
S11310C02978E0B28842F0D331BD10B5002301E0A5
S11310D0001D5B1C9CB28C4204D204889442F7D15C
S11310E0408810BD002010BDDFF88817401A0C227C
S11310F090FBF2F292B20021DFF87C07E5E7028868
S1131100B2F57C4F28BF00F002B80846ECE7DFF8E0
S11311106C17401A142290FBF2F292B20021DFF80D
S11311206007D2E710B50C460188628891420DD160
S1131130037B2279134209D0B1F57C4F04D3FFF726
S1131140E6FF2189884201D1012010BD002010BD95
S113115010B514460A88E3889A420AD10288B2F587
S11311607C4F04D2FFF7CBFF2189884201D10120B3
S113117010BD002010BD2DE9F74F82B004469A46F9
S11311800025002704E08068C1886D187F1CFFB229
S1131190DFF8C8160A78974280F0D380DFF8D006CB
S11311A0237800EB071002789A42ECD18168009111
S11311B0407BC107EAD54FF0000804E0B9F80A0003
S11311C02D1808F1010800990A795FFA88F0904215
S11311D0DCD20A685FFA88FC142010FB0CFC02EBDA
S11311E00C0921464846FFF79DFF0028E6D04FF042
S11311F0000B07E0307910F0300F04BFF0782D18A1
S11312000BF1010BB9F808101FFA8BF08842D8D201
S1131210D9F804001FFA8BF20C214A43861822469F
S113122031464846FFF794FF0028E3D02746039849
S1131230344600B104602079810611D5DFF8340604
S1131240002105E00279930644BFC27889180C3066
S1131250A042F7D3DFF82C0689B200EB010B04E0BF
S1131260DFF82416ADB201EB050B0E9E049D30464B
S1131270CEB121464846FFF742FF024623887988CB
S1131280387802F045FFA846E8B12079C10625D593
S1131290002E2146484618D0FFF731FF00F055F8DC
S11312A002F04FFF4EE0002D4CD021464846FFF798
S11312B026FF024623887988387802F027FFD8462B
S11312C00028AB46E1D17E203CE0FFF718FFE1782F
S11312D0019100F03AF802F032FF33E0A0785FEABF
S11312E00A0108BFE178412818BF422808D04328E2
S11312F00DD18A1E92B241465846FFF724FC1EE0E7
S11313004A1ED2B241465846FFF704FC17E044286F
S1131310EFD03EB95FEA0A0004D0E078824538BFD6
S113132089200FD3E178B8F1000F03D1584605F0B6
S1131330EBFC04E00A464146584600F0ABFA0020B4
S113134000E0862005B0BDE8F08F0095034679885B
S11313503878224670472DE9F843054689461746F2
S11313609846002603E0217B0A0615D4761C2979C9
S1131370F0B288421DD22868F2B214235A4384186A
S113138020884845F2D1390006D0802FEBD0402F79
S1131390ECD1217B4A06E9D5B0F57C4F07D3204632
S11313A0FFF7B5FE404518BFB8F1000FDED1204667
S11313B000E00020BDE8F28380B5134607E080B565
S11313C01346402204E080B51346802200E0002248
S11313D000F00BF800B1012002BD80B500234022CB
S11313E0F6E780B500238022F2E770B50C46154677
S11313F01E4600F09EF8FF2801D1002070BD214652
S1131400DFF86C4404EB0010334680682A46BDE8DC
S11314107040A0E70023E8E770B50C4615461E4669
S1131420002100F02FF8022800DAE8E7002070BD60
S11314301346402201E00022FAE72DE9F84F8246E4
S11314408B4690469946FFF7D0FF002608B9FF2047
S113145016E00027DFF81844DFF8005408E04B4694
S113146042465946FFF7D8FF00B1761C7F1CFFB2F5
S11314702878874203DA3901605C5045EFD1F0B235
S1131480BDE8F28F70B50022DFF8E43300E0521CAF
S1131490DFF8C8432578AA420BDA14011E5D8642A0
S11314A0F5D10D0003D01C44647BE507EFD5D0B221
S11314B070BDFF2070BD80B50021FFF7E3FFFF285A
S11314C001D1002002BD00F061F8407B00F0010072
S11314D002BD70B50E4604460021FFF7D3FFFF2876
S11314E001D1002070BDDFF8881301EB0015320034
S11314F0687B00F0010114BF40F001000020B142FC
S1131500687314D076B12846FFF7A8FD0FE0006891
S1131510142251430844027B0188D209204600F07A
S113152001FC761CA8680279F1B29142EFD3012044
S113153070BD0121A6E7DFF838130001085C70478D
S1131540F8B50C46FFF7F5FF01460020FF291FBF41
S1131550DFF81C2302EB01118968002915D0002251
S113156014270DE01B0608E00D68D6B27E43AB19C4
S1131570451C1B7B2600F5D05B0648BF2846521C41
S11315800D79D3B2AB42EFD3C0B2F2BDDFF8E012B3
S113159001EB00107047F8B50C461546FFF7C9FF7C
S11315A00021FF281ED0DFF8C832002203EB00130D
S11315B04FF0140C01E0491C521C98680779D6B20C
S11315C0BE420FD200681CFB06F630442F00067B97
S11315D002D0760602D4EFE73706EDD5CEB2A642A6
S11315E0E9D1F2BD0020F2BD002109E010B50446A6
S11315F0012100F005F82046BDE8104003F03BBC93
S11316002DE9F84F86B0804603F01BFA9349DFF8C2
S113161060920A78059004924FF0000A07E009EB03
S11316200010017B059881420FD00AF1010A049948
S11316305FFA8AF0884261DAB8F1FF0FEFD04046D2
S1131640FFF777FFFF28824658D04FEA0A6000244C
S11316504FEA105B00E0641C09F10800E1B250F8A5
S11316600B000279914246D20168E3B2142043434D
S1131670CE1840F22D1132898A42A8BF05F07AFBB8
S113168000270CE00328ACBFAA6805F1080201207A
S113169000900023002101A8FFF76DFD7F1C318914
S11316A0B8B28842D7D27068BAB20C214A438518BE
S11316B02B79D906F2D419F80B208DF8042031883F
S11316C0ADF80610287941064CBF802140218DF8E1
S11316D0081030462988ADF80A102946FFF70FFD97
S11316E0ADF80C002979E8784A07CBD5AA68032815
S11316F0CDDB1268CBE7B8F1FF0F96D007B0BDE899
S1131700F08F704730B5047B012200230C4205D1D1
S1131710002030BD144218BF5B1C5200D5B28D426C
S1131720F8D30069DBB250F8230030BD5749401AA2
S11317308003020C00215648C7E42DE9F84F054602
S11317400024487D4FF6FF79A24635B108B9022539
S113175007E0012804D1012503E008B9082500E0C9
S11317600425002693469846484800EB86073988A6
S1131770594516D1FB782B4213D0B878404510D385
S11317800CB182450DDBD9060BD53846FFF7CEFFE9
S1131790B9781CB1514501DB484502D201248A467F
S11317A08146761C2F2EDFDB4846BDE8F28F2DE9FB
S11317B0FE4F00270028487D4FF0010806D008B9E5
S11317C0022407E0012804D1012403E008B9082415
S11317D000E004240D9EDDF83CB0ADF80020B946CD
S11317E08A460193294901EB8905BDF80010288830
S11317F0884223D1EA78224220D0A9789DF8380083
S113180081421BD39AF80F00D20608D5B0B12846FE
S1131810FFF78CFFBAF81010814201D00EE068B9CE
S1131820BB4513D0BDF8300087420FDA0198A97880
S1131830C1557F1C3288521C3280BFB209F10109A4
S1131840B9F12F0FCEDB4046BDE8FE8F4FF0000804
S1131850F9E70000E42C03001AA80300E5FE0320C6
S1131860E82C03001EA803001CA80300C02F0300DB
S1131870ACDE0320B42D0300D42F0300BC2E0300E0
S1131880D02F0300E8DE0320CCDE0320F42C030079
S1131890B02D030062B181423ABF5318984203F05D
S11318A087B9801813F8011D521E00F8011DF9D1E3
S11318B0704770470C490D4808600020704700B11C
S11318C0702070470020704780B500F013F8FF289F
S11318D001D1A32002BD002002BD00207047704743
S11318E000BF03480078704714E0032020A80300D9
S11318F0ACDE032080B5FFF71CFEFF2818BF0020D4
S113190002BD002101707047007800B101207047CA
S113191005F062BA00F0AAB900F0B6B94018491C43
S11319201CBFB1F1010100F8012DF9D170477047D6
S11319302DE9F34F022981B005DD19000AD0BDF865
S11319400840052C04DA9149022002F09EFCA5E02F
S113195042F00402012700901900027005D000989B
S113196043701B0A0098837003270C9CFEF787FFC3
S11319700099C8557F1C0098BBB27F1CC4544FF01B
S1131980000BDDF8389007E022464146184403F086
S11319900DF9E7190BF1010B0D985FFA8BF1405C1F
S11319A000287DD005460026732D4FF0000AB0466E
S11319B038DC4C2D59F8048B1CBF532D622D14D1E7
S11319C059F8044B4C2DA4B206D1A2464FF6FF7031
S11319D082453DD002263BE0532D39D15FFA84FA8B
S11319E0BAF1FF0F34D0012632E06C2D04D1404609
S11319F0FFF718FA841C13E0732D04D14046FFF757
S1131A000CFA441C0CE0A5F130000A2838BFA5F1FB
S1131A10300405D3A5F14100072822D2A5F13704EB
S1131A20A4B215E00024752D08BF01260ED0762D32
S1131A3008BF02260AD0782D05D1032606E02B46DE
S1131A403219534927E0772D0BD1042659F804ABFA
S1131A50BDF8081014FA87F2B2189142EFDB00982F
S1131A600BE02A464B49022002F00FFC16E000F876
S1131A7003A07F1C4FEA1A2A761EF1B20029BBB2DA
S1131A80F5D1002C009085D0B8F1000F7FF47CAF25
S1131A902B4622464049022002F0F7FB002000E0DA
S1131AA0B8B2BDE8FE8F10B53C4C20603C480180C4
S1131AB03C490A603C4A136010BD3A493A4B0A68F3
S1131AC010804FF48A5219684C80CA8070477FB5E1
S1131AD00C4608A900920291314D304E0193024602
S1131AE0298830680023FFF723FFFFF7E6FF04B0DF
S1131AF070BD38B52B4C25682988034627480268F1
S1131B002948006801B0BDE8304003F0D3BD00208F
S1131B10EFE77CB50192234D204A2E6814680094A7
S1131B20214C3388226803F099FD76BD0022F0E74A
S1131B3038B500F003F803F073FD32BD0091194C81
S1131B4016490B68256818492A88096870470021D6
S1131B50EEE7F8B5114C134E25683768124E84B081
S1131B6003953C88BDF82850029401953468658833
S1131B70009503F0DCFD05B0F0BD0B48006870472C
S1131B80094A13681871106841717047D82F03000F
S1131B901C3003000030030050300300A8DF032092
S1131BA066F90320ACDF0320B0DF032038B5044618
S1131BB00D461046FFF783FE00202070A847BDE8BD
S1131BC03140FFF78ABE002249494A48EEE7002225
S1131BD049494A48EAE7002249494A48E6E770B5D4
S1131BE0044616460D463046FFF76EFE0020207070
S1131BF03046A847BDE87040FFF76FBE0122424956
S1131C004248ECE7022240494148E8E780B5012018
S1131C1005F0E8F93F4805F079F93F49087001BD3E
S1131C2080B505F0F7F9012805D03B480078BDE8F8
S1131C30024005F055B901BDF0B5002400E0641C74
S1131C40364D2E88E3B2B3420ED2E7B20C25344BA4
S1131C506F433B441E78864201BF5D888D421E79E6
S1131C609642ECD11846F0BD0020F0BD80B519B9FC
S1131C7005F0B2F8002002BDB1F1004F02D205F028
S1131C80B6F8F7E7022002BDB1F5000F3CBF090228
S1131C90FFF7ECBF0220704770B505461E46FFF7FC
S1131CA0CBFF04000ED02846FFF705FC50B1A06816
S1131CB03146FFF7DBFF28B905980499A0716171DB
S1131CC0002070BD022070BD1CB500F004F8002295
S1131CD0FFF7E2FF16BD009313469DF810400194F0
S1131CE0704780B500230093FFF7EEFF02BD0000AC
S1131CF0DF5D010044DE0320FD5301004CDE0320C0
S1131D003399010054DE03209713020034DE0320CC
S1131D103CDE0320A8D40320E3FE03209ADB032047
S1131D2048D4032080B5FFF787FF20B180680021E5
S1131D300170002002BD022002BD0022F2E77047BC
S1131D4035E0DFF810010178022901DB012070473A
S1131D500020704738B5DFF8FC5004462878A042CC
S1131D6003D0214602F00AFA2C7031BD10B5DFF819
S1131D70E840207858B900F01AF805F067F9012115
S1131D8020B10288B2F5817F28BF017D21702078BF
S1131D9010BDDFF8C0100978012803D10129D8BF8C
S1131DA0022002DD10B9012900DDD3E7704729487C
S1131DB00178012900DD704738B505F033F9024692
S1131DC02649274C012002F060FA0120FFF7E1FFC9
S1131DD02078FF281AD105F039F9B0B14588214897
S1131DE02D066D0E05F001052570FF22182105F062
S1131DF07DF9012D0AD1FFF7B9FF052806DBBDE8FF
S1131E003440D021184805F091B9207031BD80B517
S1131E10FFF7CDFFBDE8014005F018B970B50446E1
S1131E200D461646FFF7C3FF0420FFF793FF324623
S1131E302946204605F039F904460220FFF78AFFB7
S1131E40204670BD80B5FFF7B2FFBDE8014005F044
S1131E503BB9000020FF032021FF03203466030068
S1131E60D1DB0320E8F303202866030080B5A549ED
S1131E70042002F00AFAFF20FFF7B8FBFF2002F06B
S1131E8049F9FF2002F049F904F002FC00F06EF871
S1131E9002F091F99C490020088001BDF8B500F0DA
S1131EA093F8009800F0010005B000BD18B587B0A4
S1131EB001A9684604F0A0FE944C9DF80F00A070A0
S1131EC00822BDF80C00208001A9201DFFF7E2FCC8
S1131ED09DF814008E4960732046097800290CBFD0
S1131EE000228C4A05F0BFFA87490020088008B018
S1131EF010BD80B5684604F089FE932809D1864850
S1131F0001680A788DF80020012A04BF02218DF8A7
S1131F1000109DF8000002BD78B58FB004460D4650
S1131F2016462C2104A802F0BDFF8DF81240ADF82E
S1131F30106005A802F011F900F046F80098ADF819
S1131F403600FFF7D6FF8DF8380000F040F8294638
S1131F5004A805F028FB010004D16B490A8842F467
S1131F6080720A8010B070BD06F013B8F8B5012075
S1131F7006F012F8694806F025F8694806F025F8D5
S1131F8000F022F80098C1071CD56649042002F02D
S1131F907CF9614801680878012808BF022005F02F
S1131FA06DFC022005F0FCFF00F00EF8009840F0F4
S1131FB080000090684605F0E2FF00F008F8032076
S1131FC002F05CF805B000BD684605F0CDBF78B5F9
S1131FD08FB005A85449282202F0E8FD04F01EFC45
S1131FE008B100201BE001A802F027F804004F4DBF
S1131FF04F4E03D0009032464E4B0BE005A802F042
S1132000D9F805A901A805F000FC040006D0009049
S11320103246494B2946042002F037F9204610B0D5
S113202070BD10B53848018841F40071018001F099
S113203089FF01280CBF0124002406F021F828B1EF
S113204002463E49042002F020F900E024B105F0E4
S113205057FFBDE8104009E710BD38B52A4D0446C6
S11320602888810584B004D5912C40D1FFF7FEFE69
S11320703DE010F08F0F26D0902C02D1FFF716FF11
S113208035E0912C33D0029001942D482D4B284AF1
S11320902D490090042002F0F8F82878010626D48F
S11320A004F0BCFB03280AD128480178042906DA85
S11320B0491C01700120002100F08EFD17E0022070
S11320C006F087FB13E0FFF77FFF902C0FD10098F9
S11320D0C1070CD5420852000092002101910291DF
S11320E0ADF80C10684605F04AFF06F0A8FE05B0EE
S11320F030BD0548017811F08F0018BF01207047EA
S1132100000000004C21030042F9032034DD0320C9
S113211093FE03201CDE032014E003200088100239
S11321200070EF051C2103006821030090210300C7
S1132130A4210300AC210300C4210300DC2103001B
S1132140442203002C2203000C220300DCFE0320A3
S113215080B5FFF709FFBDE8024000F0FE0005F07E
S11321601BBF80B5FFF700FFBDE8024040F001004F
S113217005F012BF80B5A0B040887D22694604F006
S113218064FC01001CBF694602F0ABFE21B000BD37
S113219080B50B4601460022184607F0A3F901005A
S11321A001D1182002BDBDE808400122012107F039
S11321B078BB80B502F07AFEBDE80240012010B57C
S11321C0040014BF0848002007F066FC50B1002C3E
S11321D0BDE8104014BF054A054A034605490420DA
S11321E002F053B810BD0000044D0300EC4C030092
S11321F0F84C0300C04C030038B507F0C3FC07F0EB
S1132200E1FC78B101F0C5FF60B1094C207804F01D
S1132210A1FE0546207804F0DEFE3DB1BDE8314064
S113222001F0B6BFBDE8314007F014BD31BD000078
S1132230E3FE03207047704780B552214E4802F0F8
S113224031FEBDE808408EE0FEB5054601F0D4FD40
S11322500646284601F0E0FD9DF800102A464FF698
S1132260FF741EB3019B1B78284621281ED24220EE
S1132270022B424E09D24343F01830F81230A342E5
S113228014D05B1C20F8123010E00FD1002306EBB1
S1132290420700FB03F637F806E0A6451CBF0EF123
S11322A0010E27F806E05B1C022BF2D3344F324EAA
S11322B037F8123036F812C09C458041C043C00F35
S11322C0A4451CBF0CF1010C26F812C0092D18BF3F
S11322D00B2D0AD1B6F814C0BF8A01EB0C0EBE4513
S11322E0AEBFB7826144B1820CE01D2D0AD1B6F8AD
S11322F03AC07F8F01EB0C0EBE45BDBF491E614441
S11323007187778736F81210994203D310B928469B
S113231001F033FF00201B49C6B28A5DAA4204D0F3
S1132320401CC6B2112EF7DBF7BD112E15DA02F0F0
S11323308AFB0546144801788D4203DBDD211348EE
S113234004F0F4FE222012494543481930F81610CF
S1132350A1421CBF491C20F81610F7BD52210648A3
S113236002F0A0BD00BFFF225221054804F0BEBE0A
S1132370034A22F81010704760F403202CF5032060
S1132380B4F40320C0690300D7DB0320B069030061
S113239008F50320DFF8EC19C873704770B5DFF84F
S11323A0E859DFF8E8692978306838246143014442
S11323B08A78112A04D0B621DFF8D40904F0B6FED5
S11323C02878316814FB00F408194122827070BD2A
S11323D010B5022002F03AFB02F03FFBDFF8AC0933
S11323E0DFF8A43901681C78DFF8982938204443C1
S11323F008194178042903D1107C401D107405E0AC
S11324004FF47A7102F1180004F0F1FCBDE81040B9
S113241002F024BB80B5DFF87C0906F0D6FDDFF8B6
S1132420780906F0D2FD07F019FCBDE8014007F079
S113243024BCDFF85809DFF85029016813783820E4
S11324404343C818807833281CBF4328532801D13C
S113245001207047002070472DE9FF4E08F04CF929
S113246008F09BFB002867D0DFF81849002020768D
S1132470DFF8280901790C3001F06BFA207D18B1DE
S113248007F0F4FB0020207500212173002700F0E1
S113249055F80AF0A9FC08F0A2F9DFF80409DFF8FE
S11324A0E868DFF800B9482500F1E20900F1E40A20
S11324B03DE0012111E002F0D0FA307868434FF694
S11324C0FF7239F800109142F3D1002208215044E0
S11324D001F0A4FD411E8941C90F94F8202002F0A7
S11324E001020A4220D030786843082239F80010EB
S11324F0ADF808100AEB00016846FFF7CBF90A2390
S11325000A2201F076FADFF88408016896F800C020
S1132510382010FB0CFC01EB0C0000F12C01022311
S11325200B2200200AF07BFE02F098FA7F1C9BF835
S11325300010F8B28842BED3BDE8FF8E10B5DFF8B4
S11325404808DFF8482801781368382010FB01F0A8
S113255018444078032818BF04280CD14820DFF819
S11325604028414350184FF6FF72B0F8E2109142F0
S113257008BF032008D001F05FFC044601F065FCAD
S1132580214603F078FE022001F084FC0AF0DAFE12
S113259001F004F80AF054FC01F0CCFA20B1BDE8D3
S11325A0104000200BF073B910BDF8B5DFF8D44724
S11325B0DFF8D477DFF8D467E073382539783068EA
S11325C0694301448878032818BF002823D033289E
S11325D018BF432819D101F0A3FA3978306815FBE4
S11325E001F542195178032918BF042907D1801C29
S11325F003214155E07BBDE8F24002F098BAE07B4C
S113260002F095FABDE8F14098E721208870BDE812
S1132610F14005F0A2BDF1BD38B501F0F8FA38205B
S1132620444315190021A9704FF6FE700BF042FFC8
S11326304FF6FF700BF05AFFDFF8484701F070FACD
S1132640E07BBDE8324002F072BA00002DE9F843A5
S11326500546DFF8480ADFF83067DFF830970BF0FB
S1132660D1FF80462B46182201F05CFA002088F83E
S1132670000038273178D9F80000794308447024E1
S11326804178032918BF042924D00024290007D144
S1132690416B91F82400E8B181F824409D2017E0B3
S11326A0FF2D06D04FF47A7045432946404604F086
S11326B09EFBD9F80010327801F1340017FB02F7C1
S11326C0C15991F8240028B9012281F824209C20C2
S11326D002F02DFA00F062FF2046BDE8F28310B547
S11326E0DFF8B8090BF08EFFDFF8A016DFF8983694
S11326F00A681C7838214C4311194A6B92F824104B
S113270009B9002010BD04F07FFB4FF47A71B0FBCF
S1132710F1F0C0B210BD38B504F067FC0446DFF830
S11327207C190BF070FF0546FF2818BF02F095F9DD
S113273000202070FFF78AFFFF2D01D001F028BB95
S113274031BD000038B50D4688B00446686907906D
S11327501622297C0691E8890590297B0491E87A60
S11327600390032095F90A1002912B890BA1019380
S1132770009523460BF04EFF012007F0C7FA287B93
S113278000280CBF4FF6FE700BF088FE2B46224645
S113279009B0BDE8304001460120AAE04242387049
S11327A057424242574244002DE9F047DFF8D8959A
S11327B0DFF8D86599F800C0884631681D4638248A
S11327C08B1C14FB0CFC824613F80C0000284BD124
S11327D0170049D0042F47DC0BF0ECFF002843D14D
S11327E002F03DF900283FD102F03BF908B1042F73
S11327F03ADB287B032817D14FF6FE71884515D1A3
S1132800012F08BF4FF0000810D0022F2CD10BF07D
S113281045FE4FF6FC71884202D20BF03FFE01E008
S11328200CF0DCF9804601E0012F1DD0BAF1000F55
S11328300CD0287B03280CBF012100213846012F2E
S113284018BF00200CF093FC010030D1294640460B
S113285001F018F801002AD102F0FDF802F0E0F8C6
S113286020B102F0FEF808B1702020E0306899F839
S11328700020811C14FB02F4085D332818BF532880
S113288003D0DFF8001500208873384600F0BEFF3F
S113289000214FF6FF7001F0C3F9DFF8FC17087848
S11328A020B102F0DEF808B90DF042FB0020BDE8CB
S11328B0F08738B50446DFF8CC5408222146281D99
S11328C0FEF7E8FF207BDFF8C0340228C8BF0020F1
S11328D0287094212878E9730028DFF8B0041C7864
S11328E002680CBF01213121382044431019817042
S11328F031BD38B51C46FFF757FF010032D1207BAC
S11329000328204602D1BDE8324090E0FFF7D1FF12
S1132910DFF870040021818101F0DAFB01464009EF
S11329204FF0010305D1DFF8700C027803FA01F1CE
S113293008E001F01F0140F0180003FA01F105223C
S113294041EAC06106200DF06FFD01000AD0DFF8F6
S11329503C14DFF834440B68257838214D43591969
S113296000228A7032BDF8B586B006460C4617467A
S11329701D46082204F10C016846FEF78BFF2189ED
S1132980ADF808108DF80A70002221788DF80B102C
S11329908DF80C206B4632464FF6FE710120FFF78E
S11329A003FF01000AD16846FFF783FF204600F0C9
S11329B007F8010004BFDFF8CC130D7507B0F0BDB4
S11329C010B50446DFF8C403DFF8BC2301681378AC
S11329D038204343C8184078032818BF042806D178
S11329E0E079C10744BF94F905000DF0D8FD2078C3
S11329F001F0C6F801F001F903462289618900203B
S1132A000DF0AAFE040004D09420FFF7CEFD20466A
S1132A1010BD9420FFF7BEFC022002F016F8DFF888
S1132A20644300F0AEFD03202074002010BD10B5F7
S1132A3004460022082101F0F1FA08B1012010BD7A
S1132A400BF02CFD00224FF6FF7100F059FF217CA2
S1132A50204600F07EFF6269E189207C0AF0B8FC20
S1132A60CA48C94A0168137838204343C8184178D2
S1132A70012908BF0DF0AAF9FFF760FD002010BD81
S1132A802DE9FC4100F0A0F80446907810B90BF051
S1132A9091FE08B170208FE007F041F9DFF8E4827D
S1132AA02CB10222214608F12000FEF7F3FE68460D
S1132AB001F080F808B193207EE09DF800301422E4
S1132AC001F030F800F099FF010075D19DF8000085
S1132AD000F09CFE38683278411C6A43885C012807
S1132AE018BF022808D0032818BF042842D10020A8
S1132AF001F0DCF800283DD000F096FF3868327809
S1132B00411C6A43885C032814BF04280DF018FF95
S1132B10FFF714FD01200DF03BFF01004CD130788C
S1132B20396868434A1C125C032A18BF042A0ED170
S1132B3098F820309C0708D50522DFF830170120CB
S1132B4000F05EF8010036D036E0032A01D0042AF2
S1132B5031D1084400F12C0102230B2201200AF098
S1132B605EFB00F02BF891F82C20500723D507F0DA
S1132B7066FF20E000F022F813228A70002088F813
S1132B800D00012401F0A4FA400903D101F0A0FAD8
S1132B9084400BE001F09CFA450901F099FA00F039
S1132BA01F0045F01805844044EAC5640522214607
S1132BB008200DF039FC0020BDE8F6813178386832
S1132BC015FB01F5411970476F4E704F3278396823
S1132BD038256A430A44704710E0000038B50446BB
S1132BE01046032818BF04280D4601D0022032BD28
S1132BF000F00CFE29462046BDE83840FF2200BF05
S1132C002DE9FC418046164660485F4A13780D461C
S1132C10016838204343C818417801293FD0877898
S1132C20022F07D0032F3AD15FEA080102D10079BD
S1132C30810734D4332001F02DF907F05DFD15F040
S1132C40784F12BF0522DFF8500902782946062082
S1132C500DF0EAFB0446A0B94A4F3873012007F08F
S1132C6055F80BF037FC78805FEA080014BF0220A7
S1132C7001203870381D00F0B5FF00207873BE7352
S1132C8002E0384601F006F95FEA080031462846BA
S1132C9002D00DF09DFE03E00DF099FE00E07024DB
S1132CA00194009543462C2203A103200BF0B2FCAF
S1132CB02046BDE8F6810000424244420000000084
S1132CC010B506F005FB00F1100420460DF085FE5A
S1132CD04FF6FF5101402046BDE810400DF083BE81
S1132CE0F0B5040087B00D4617461E4608D12846A5
S1132CF00DF086FE03A90DF015F9932818BF03AC57
S1132D0007210C988DF80810019402A90423C870B7
S1132D104F70012000903F0A8DF80A7002AA012129
S1132D2028460DF0CFFF040028D029460EF0F2F912
S1132D30300004BF2046FFF7C3FF0D9808B92046B2
S1132D401DE0300008D1104B10481F78026838216C
S1132D504F43D119C87820B928460DF060FE20B938
S1132D603EB928460EF0DFFB18B120460EF09CFD5C
S1132D7004E00022002120460EF01DFE002007B0D2
S1132D80F0BD0000D4F7032049FF0320E8D7032057
S1132D90DC3D0000D0FE0320CAFE0320F8F7032028
S1132DA0B8F90320D7DB03202DE9FC4F8DB08A4608
S1132DB010460EF069FA0646BDF8340008A90DF075
S1132DC0BDFF01460E980025002814BF01240024ED
S1132DD04FF6FF79A84600273CB109B10DF1200850
S1132DE047787F0807F0010704E0BDF834000EF0CF
S1132DF0BFF9804600F046F9531C585C03281CBFF9
S1132E000428B8F1000F00F02D811898731C1E5C83
S1132E108DF808A0700800F001008DF8020030065B
S1132E2058BF46F0800650188378022B08D1BAF1B7
S1132E30000F01BF3432515891F82400002801D109
S1132E400225BBE040460BF09BFA8346BDF83400F4
S1132E500EF0A4F9824608B94FF0010A34B10E9875
S1132E60001D0DF0BAFDADF8000001E0ADF800B0B2
S1132E7040460EF0E7FA8346414600200DF0BEFDC1
S1132E8001469DF8020008BBDFF8003CDFF89C0C0B
S1132E901A78006800F13403DFF8940C90F800C04D
S1132EA0382010FB0CFC53F80C30187E824208BF0B
S1132EB0FF2904D0002100200DF0A0FDFF287CD0C4
S1132EC0CB4503D10EF0B4FA002876D0BDF800004B
S1132ED04FF6F871884221DA8B450CDA594688425C
S1132EE009D042460AA80EF0DBF900F0BEF8002132
S1132EF005A80EF080FABDF800B003A958460BF0FF
S1132F005FFA58B90022082103A801F087F828B90C
S1132F10082203A940460EF06BFE30B94FF6F87153
S1132F208B4502DABBF1000F07D10BF057FE834645
S1132F3003A90BF045FA0028F7D0380004D100F0BB
S1132F40A1F85318D878E0B900F094F80121009161
S1132F50CDF804A033465A46414600F001000EF075
S1132F60D6FB00F08BF8814627D0002249460AA8F8
S1132F700EF096F900F079F8002105A80EF03BFA5E
S1132F801CE01CB1101D415C8A0716D44246594608
S1132F900AA80EF085F900F068F800F06BF800F06C
S1132FA001015346324605A80EF069FA28B9BDF866
S1132FB01C904FF6FF71894500D101250E98A0B1F0
S1132FC09DF8080018B9484600F058F803D10E9847
S1132FD0001D0DF002FD01210191009501463B46C3
S1132FE04A464046FFF77CFE08E000F043F82B46D3
S1132FF04A46414600F001000DF09FFB38001EBF19
S113300048464FF6FF71884219D00DF0F9FCFF28AD
S113301015D0DFF8181BDFF8184B0A6894F800C0C5
S1133020382102F1340311FB0CFC4BF6FF7153F809
S11330300C20526832F810300B4022F810300E98F1
S113304080B10BF02BFA0FB1002405E09DF80810B5
S1133050002914BF03240124014643464A4620465E
S11330600EF0D6FD0FB0BDE8F08F05A80AA90A221C
S113307001F09CBDBDF834000EF01AB84FF6FF7194
S113308088427047DFF8A81ADFF8A02A0978126886
S11330903820414370470000EBDB0320D4F60320C3
S11330A02DE9FE4F81460F46144601A938460DF01E
S11330B045FE00218346009138460EF0E5F882462D
S11330C05FEA0900DFF8E06B09D0BBF1000F18BF1D
S11330D00DF1040B50460DF026FE054604E038467B
S11330E00EF046F88346354638460EF0CDF80259C0
S11330F000920DF101000DF070FC80465FEA0900BA
S11331009DF8034018BF002D06D0082231462846FA
S11331100EF06EFD002807D13CB94FF6F8718845D2
S113312003DB9420FFF741FA97E0DFF8F06ADFF859
S1133130FC2931781268382515FB01F15318D87829
S113314018B19AF80100830714D55FEA090011D079
S1133150901C415C022908BF002C0BD140460BF0A7
S1133160A9F909F041FE992300F0DBFC992001F054
S1133170DEFC72E000F064FF002818BF002CDFF8CA
S11331801C7C05D09420FFF710FA0020387664E008
S113319000F056FF002860D058460EF0CCFDFF2802
S11331A018BF5FEA0901DFF8A44B06D13278482042
S11331B042435946A05A0EF0B3FF0FF016F8317887
S11331C0482041435A46615ADFF86049404600F0BE
S11331D097FBDFF8B80B90F9021009027984307874
S11331E0216815FB00F08A1C125C012A16BF312AE3
S11331F011224322891C0A54022001F026FCDFF824
S1133200A00B016807F1180003F0F1FD0DF098FB25
S113321000203874317815FB01F521684A19D078FB
S113322020B907F1180003F0D7FD14E0B9F1000F3D
S113323006D09AF80100820702D5FFF70DF90AE0DB
S1133240481C415D042906D1052107F1180003F04B
S1133250CEFD09203874AD21F97300F06BFC10B178
S113326000200AF014FBBDE8F78F000000F8FF0708
S11332702DE9F04F88468DB040460EF005F805461E
S1133280092200210FF0A4F9064640460DF070FF14
S1133290824602AB052205A940460FF0F1F9022847
S11332A08DF800002AD09DF808008619F6B206F1C0
S11332B01002A95D8DF801100023D2B2414601200D
S11332C00DF081FB002819D09DF80100DFF84C496E
S11332D0DFF85898382701284FF6FF7B0FD00228D3
S11332E019D0042800F0CB80062822D0072800F04B
S11332F09180082838D07C2800F09380E8E040468C
S11333000DF0D6FE009600234246002100F0010095
S1133310FFF74AFDDCE000F0E4F8012B02BFDFF820
S11333207C1A0878002803D132464146FFF7B8FEDC
S1133330CEE050460DF05EFB5845064608D04046A8
S11333400DF0B6FE3246514600F001000DF0E0F9F2
S113335000F0C7F8022B06D101F07CFB50460DF0BB
S113336027FB01F07BFBB3E0A819401C0DF035FBF3
S1133370ADF80200A819C01C0DF02FFBADF8000039
S1133380A819801D0DF029FB58450646EBD00DF019
S1133390D7FA00F0A0F88B5C132B09D100F044FBA2
S11333A040460DF0E5FE0146BDF800000EF0B8FE03
S11333B000F091F8885C022818BF132823D1304606
S11333C00BF078F8BDF802000BF090F80021002013
S11333D000F0BFFABDF80000514600F021FCDFF810
S11333E0AC09DFF8C019C0780F28B4BF401C0F2007
S11333F0087000F0D3F8207817FB00F7D9F8000024
S1133400811CCA5D132A63D1801C2321C1550DF090
S11334107BF85DE09DF8001005AA404606F08CFCA0
S113342056E0A8194078652802BFA91C885D6D285C
S11334304ED1404605F064FF1336F1B2814247D2C3
S11334400822514603A8FEF725FA6A46F1B240461F
S11334500DF0F0FA00283BD1BDF80000C0B3DFF84E
S113346048490120207001F0F5FABDF8001003A8C6
S11334700DF092FA01F0F2FA0020207028E0062202
S1133480002128460FF0A4F828180DF0A6FA0446E7
S11334900DF082FFE0B90FF654100088ADF80A0071
S11334A000210191009102230DF10A02012120461D
S11334B00DF008FC06000BD021460DF02BFE404613
S11334C00DF0F6FD0022314600F0010006F027FA67
S11334D00DB0BDE8F08FD9F800002278811C7A4342
S11334E07047D9F800002278811C17FB02F7CB5DE6
S11334F07047F8B5022001F0A9FA01F0AEFADFF83E
S11335009C48DFF81867DFF82476002020763825F9
S113351007F043FB40B1327839686A430A44D078F3
S113352010B9FEF799FF2BE007F037FB10B900F054
S113353087FD68B1207C58B100F023F8207C411E3F
S1133540217401F088FA014600200AF0FEFA17E01F
S113355038683278811C6A438B5C132B0DD000F0E1
S11335606FFD50B938683278811C15FB02F5485D4F
S113357011281CBF4328412802D1E07BFFF715F82E
S1133580CAE2C82104F1180003F031BCDFF80C18BA
S11335900020087470470000ECDB032080B501F0C4
S11335A085FAFF2807D000F0CCF9416B91F824008C
S11335B010B1012000E000200DF054F8DFF8DC0722
S11335C000214180001DC0E9001101BD2DE9F84F23
S11335D00C46DFF8D867DFF8B4A7012105467173FC
S11335E084B09046504606F04CFB04F005FB0028DE
S11335F014D1012D18BF042D00D085B9CDF8008059
S113360023462622BDA103200BF004F801F022FA80
S11336104146204603F054FB01F020FABBE0DFF8FA
S11336201075DFF808553A7828683824811C6243FD
S1133630885C23280DD100F0FFFB044600F005FC54
S1133640214602F018FE022000F024FC07F0C7F81F
S1133650A1E0B8F1000FFBD121281CBF0428532896
S113366002D104F07AFD96E000F0EAFC002800F0B4
S1133670AC8006F047FB28B9307B00280CBFAB2098
S113368094209FE0504606F0FCFA28B140F21B71EA
S11336900FF2487003F04AFD307818B95046FFF72E
S11336A08FF978E00AF0FAFE834628683A78411CDC
S11336B06243885C032818BF042807D19AF80700DE
S11336C0C10744BF9AF905000CF069FF9AF800009D
S11336D0DFF8788600F054FABAF80A00002100F006
S11336E09FFA00F0ADFC4FF0480980B1BBF1000F28
S11336F003D04FF6F8718B4509DB0BF06FFA39787C
S113370019FB01F1834638F801209042F5D0584660
S11337100AF0D0FEBAF808000AF0E8FE06208DF898
S1133720080000F06AFA8DF80900022300200190D5
S1133730009002AA387819FB00F0012138F8000043
S11337400DF0C0FA824608B918203BE0387819FB1E
S113375000F9504638F809100DF0DCFC30780228E6
S11337601CBF5046FFF7ACFA0022002150460EF071
S113377022F930B39420F073022001F066F928682E
S11337803A7800F079F814D1C82106F1180003F052
S11337902EFB03203074102000210DF03EF910B9E7
S11337A00EF053F910B100200AF0CEF905B0BDE8CF
S11337B0F08F4FF4167106F1180003F018FB002087
S11337C0E8E79420FEF7F1FEE5E728683A78811CE3
S11337D062438B5C132BDED100F007F9BDF80000C7
S11337E00AF084FE00F020F9387814FB00F428680D
S11337F0411C095D032918BF042904D1801C33210D
S113380001559620DEE7FEF799FEC4E7F8B5C84DEA
S1133810DFF89C65316807462878382460434A1CE1
S1133820135CBB4204D0491C0F54384601F078F9AC
S113383004F0C8F860B13FB9002004F0BFF801F00B
S11338400AF90146012212E0012004F0B7F800E071
S113385027B130682A7800F00FF804D101F0FBF8A2
S11338600146002203E001F0F6F80122014600209F
S1133870BDE8F84006F028B8411C14FB02F40B5DC7
S1133880042B704770B592B006460C4601F0D9F887
S11338900546E17A00200FF0D0F908B98A202AE021
S11338A094F90A0000F0EAFB08B18B2023E000F051
S11338B07AF9E17A00F8D41F2946A27A42700020EE
S11338C06A460AF06EF84FF6FE70ADF80460864260
S11338D00CBF4FF6FF702089ADF802006A462946F6
S11338E0002009F084FF08B1022004E02089DFF8F9
S11338F0BC144880002012B070BD00004242420057
S113390038B50C4615460AF0D5FD0BF01FF92946CB
S1133910204600F085F906F0F5F938B1DFF86C04BB
S1133920C0780F28ACBF0F20401C06E000F009F857
S1133930417801290CBF00200120DFF868140870C9
S113394031BD7A48B54A0168137838204343C81812
S113395070477FB504460E4600F047F8744DC4B175
S1133960DFF850240021304609F032FD29786F4AEF
S1133970382041431068435C8DF804300844082221
S113398041788DF8051002A82146FDF783FF10F059
S1133990FAF82A78DFF8201448204243881810F8EF
S11339A0D41F8DF8031041788DF802100AF092FDAF
S11339B0ADF800000AF072FDADF8060000F017F84B
S11339C07FBD1FB5044600F010F81CB100208DF82F
S11339D0050007E00AF062FDADF806000AF07AFD82
S11339E0ADF8000000F003F81FBD684650E0102356
S11339F007226946002009F012BC80B58AB0FFF79F
S1133A00F4FFBDF80000ADF8180004A99DF8030008
S1133A108DF81B009DF802008DF81A00BDF8060011
S1133A20FFF730FF0BB000BD70B586B0012000F089
S1133A303DF90FF2BC310400D1E90023CDE90023A4
S1133A404FF6FF752E460ED03949DFF86C630A78BD
S1133A5048204243B01800F1E401B0F8E2600822C3
S1133A606846FDF717FF10F09FF802A800F010F861
S1133A70002C0EBF00226A463546BDF80E002946CA
S1133A80FFF73EFF10F09DFB06B070BD3CFF032026
S1133A90014610230722012009F0C1BBF8B50446F2
S1133AA0082000F0D3FF00F0D8FFDFF81003204D0A
S1133AB001782B78DFF8002348204343D01880F89E
S1133AC0D41000F037F810B1002009F0E0FE002116
S1133AD00020FFF73EFF154F2978386838267143D8
S1133AE001444878032818BF042802D10CF058FD7B
S1133AF001E00CF01EFA204609F093FF9B2300F02E
S1133B0010F89B2001F013F82978386816FB01F6A9
S1133B103044002202854285BDE8F14000F09EBF9A
S1133B20E37B13229CA103200AF074BDE8D7032091
S1133B3049FF032000200FF02DB810B5044621469C
S1133B4000200FF07AF808B98A2010BDFFF7F9FEBB
S1133B508078022818BF032801D0702010BD974830
S1133B600470082000F071FF0AF024FE08B13D2023
S1133B7010BD934A934909F03EFF00B1A12010BD46
S1133B8010B504460AF016FE08B13D2010BD00F041
S1133B900AF880F8D440FFF7CDFF10B1002009F0F7
S1133BA076FE002010BD1D4A834913784820434304
S1133BB0C818704738B584B004466846FFF768FFF4
S1133BC09DF8050040B1042806DC00F0B7F89DF824
S1133BD00410525D8A4201D0932001E0207000203D
S1133BE005B030BD1FB504466846FFF751FF0822F3
S1133BF002A92046FDF74EFE1FBD10B500F007F8E0
S1133C0071493820444310194278885C10BD384803
S1133C106E4B02681C7870470000000049FF0320C7
S1133C202DE9F843694E644F8146307848250C46A7
S1133C306843391892B007F1E408A1F8E2904044CF
S1133C401CB9082103F060F803E008222146FDF7BF
S1133C5021FE00F0F6FE01466A46002009F0A1FEAE
S1133C603078684308EB0001082204A8FDF712FE2F
S1133C70ADF80E9000F0E5FE01466A46002009F01A
S1133C80B6FD307815FB00F578194FF6FF71B0F8E2
S1133C90E20088421EBF002C08EB05010CF09BFEDD
S1133CA013B0BDE8F08300007CF803203EB5044661
S1133CB03E4890F82010C8074FF6FF7508D500F06D
S1133CC01EF8BDF80800A84202D000F013F828B18D
S1133CD000212846FFF7A4FF00203EBD24B1BDF813
S1133CE008006946FFF79CFF01203EBD000000006C
S1133CF0E8D703200822FF21684600F08FB90A2381
S1133D000A226946012009F08ABA38B504463048C7
S1133D100AF078FC00F012F85119002C4A6B82F872
S1133D2026401EBF2B490988002906D04FF47A7219
S1133D305143BDE8344003F05AB831BD1C49234B0C
S1133D400A681D7838214D43704700009AFA032011
S1133D5038B503F04AF905461F490AF054FC0446F5
S1133D60FF2818BF00F079FE184B11490020287075
S1133D7038201D780A6845435019416B0020FF2CF8
S1133D8081F8260000D003E031BD0000F8F70320DD
S1133D90BDE8314000F062BE42420000D4F7032087
S1133DA070D803205AFF032030F80320D4F70320EF
S1133DB0E8D7032000F8FF07B8F9032047FF0320E2
S1133DC061B100009D3A0000EC8B030049FF032021
S1133DD0ECF60320AEDB032014F703206173736F4A
S1133DE063696174696F6E2E6300000004600000F3
S1133DF0FFFFFFFFFFFFFFFF20B500210FF2F822B6
S1133E00CBB2D35C834205D0491CCDB2082DF7D385
S1133E10002020BD012020BD20B500210FF2E022AA
S1133E20CBB2D35C834205D0491CCDB2082DF7D365
S1133E30002020BD012020BD8B4A8C4913784820E6
S1133E404343C818B0F8E2007047874A874913789B
S1133E5048204343C818E43070478548824A0168C3
S1133E60137838204343C818416B087E7047804854
S1133E707D4A0168137838204343C818C0787047D6
S1133E8010B57B49784B0A681C7838214C431119CA
S1133E90C87010BD2DE9F041734D754E2A78316814
S1133EA0382462430A440746977072480AF0AAFB12
S1133EB08046022F70481ED131682B784A1C634318
S1133EC0D75C042F18BF02F087FF30682A78411CA2
S1133ED06243885C03281EBF0428404602F07CFF2E
S1133EE02978306814FB01F401194A68D00054BFE2
S1133EF09024BC2415E00021017088F8001005F01E
S1133F004FFD31682A78481C14FB02F4005D032835
S1133F1018BF042802D10CF043FB01E00CF009F8AF
S1133F209124204603F0E4FA50B9234613224DA10C
S1133F3003200AF06FFB2046BDE8F04100F0F7BD16
S1133F40BDE8F0814A48484A016813783820434361
S1133F50C818807800F00F0070474548424A01684D
S1133F60137838204343C818817801F00F010229DF
S1133F7001D1012070470020704710B592B004466B
S1133F80FFF7EBFF20B900F03FF818BF932019D1D9
S1133F9000F057FD00F097F8BDF8020020819DF86D
S1133FA00100A07220469DF80010E172FFF71AFE8E
S1133FB00020207304F1140104F1100009F0E0F969
S1133FC0E081002012B010BD38B592B004460D4611
S1133FD0FFF7C3FF20B900F017F818BF932011D1E1
S1133FE000F02FFD01466A46204609F0DAFC9DF8F0
S1133FF001002870002169709DF8000000F01F0086
S1134000A870002013B030BD1948174A016813780E
S113401038204343C81881780329704710B500231A
S113402000E05B1CDCB28C4205D210F8014B9442D8
S1134030F7D0002010BD012010BD082110F0C5B834
S11340400B48094A0168137838204343C81880781C
S113405001281CBF3128332801D1012070470020DA
S1134060704700004242000049FF0320B8F90320D2
S1134070E8D70320E4F60320B0F9032070B5044622
S113408092B0214600200EF0A0FD0546C0B268B9EA
S113409000F0D7FC06466A46314600F016F88DF863
S11340A001406A463146002009F0A1FBE8B212B093
S11340B070BD80B592B000F0C4FC00F004F89DF926
S11340C0010013B000BD01466A46002009F069BC36
S11340D080B592B000F0B5FCFFF7F5FF9DF8000045
S11340E013B000BD0120704780B5FFF7F1FF400910
S11340F018BF012002BD00000001020304051D20B9
S11341000203040508090A0B0120704701207047C7
S1134110012070477047B5207047704770470020F2
S1134120704700207047002070470020704700202F
S1134130704700207047002070470020704701201E
S1134140704701207047B520704700207047002059
S11341507047002070470020704770470020704768
S113416070470020704770477047002070478420D4
S113417070477047002070477047704770470020B1
S113418070477047002070470120704770477047A0
S11341907047012070470020704700207047044892
S11341A001680878012808BF022070470000000059
S11341B014E00320704770477047002070470020C8
S11341C0704700207047002070470020704700208F
S11341D070470020704700207047002070477047E8
S11341E0B5207047002070470020704700207047BA
S11341F0704770477047B5207047704770477047E5
S11342000020704770477047704770474FF6FF7241
S11342109042014608D0000A01D0002070473B4874
S1134220027811EA020000D001207047020A07D187
S1134230364A1378002914BF184323EA000010708B
S1134240704710B5830800EB5374C108E4080122D9
S1134250A0EBC40002FA00F000EB012080B210BD14
S1134260F8B504460D4616461F46FFF7CFFF58B172
S11342703A463146202010F007F91DB120A1202034
S113428010F0FAF822480480F1BD0CB480B50A4657
S113429002AB012104E00CB480B50A4602AB002154
S11342A0FFF7DEFF01BC5DF80CFB2DE9FC410024A7
S11342B0184DDFF8648013A713A6A0B2FFF7C1FF5F
S11342C0FFF7A4FF002814BF30463846009022466A
S11342D058F824302946202010F0B9F8202010F096
S11342E01EF9641C042CE8DBBDE8F381FF220121E4
S11342F00648FDF713BB0548002101707047000014
S11343000D0A00006E6F000059455300C8DB0320FE
S1134310A6FE03206038030040D5032080B5FFF7D4
S113432090FFBDE80440012180E780B5FFF789FFD5
S1134330BDE80440002179E71CB5044621684879AA
S1134340FCF73CF888B92068418803290DD0E27C49
S11343500192009143790A4A0A490120FFF795FF27
S113436001212046FCF784FB07E0204610F0F0F81A
S113437001001CBF2046FCF77BFB012016BD00BFDB
S11343809C380300703803000098002100E0491CA9
S11343908AB28242FBD370472DE9F84F044686B0B7
S11343A02168E07CB1F8028004900026607DA56855
S11343B0B4F80C90277D002807BF40228DF80C200C
S11343C080238DF80C304879FBF7F8FFC8B90498BE
S11343D0002818BF022814D003281CBF0528B8F1F0
S11343E0030F0ED0DFF86C140120FFF74EFF049B7F
S11343F0DFF86424DFF864140220FFF746FF01218C
S11344001EE2E07B18B1218A002900F05181DFF817
S113441050341E80617D00290CBF0821002108B1A1
S113442041F004010846FCF79DFCE07B18B1208AAA
S1134430FCF7A7FC0646A07CDFF828B4FCF792FC46
S11344400499781C162980B2A9EB070A00F230817E
S1134450DFE811F0170036018100340065018100A6
S113446029016A0130016F0174017901E2008D01B3
S11344702E012E012E019E01DB019E01E801E200C6
S11344808D010120FCF76EFC9DF80CA0DFF8D063D1
S1134490B8B2801C8145C0F0BC804A46B9B22846F7
S11344A0FCF79BFC834600F00AFA00F0E9FC18B91B
S11344B000F005FA10F0E2FBBF1CE9E70420FCF76A
S11344C051FC0026ADF80E8002E04744FF1CBFB249
S11344D0A9F10300874231D200F0E6F98246A81C14
S11344E0A9EB070110F807B0CA1EEB1C92B2D91948
S11344F0584610F003FD5FEA000808BF4FF0800B38
S113450012D0E81C3844CDF808B001905246218AF4
S11345109DF80C3000912068BDF80E10407910F021
S113452066FA00288346D0D05846FCF71BFC504658
S1134530FCF727FC761CBBF1800FC6D1F6B2BDF8A0
S11345400E80002E65D1E07B277DC549002814BF6D
S11345500420022008800420FCF704FC4FF0000A29
S1134560D3462646ADF80E80CDF814901EE09DF893
S11345700DA0FCF7F7FB4046FCF703FC13E0E81C36
S11345803844CDF8089001904246318A9DF80C30A9
S113459000913068BDF80E10407910F0E5F9010083
S11345A0E5D10BF1010BE719FF1CBFB20599F81C0B
S11345B088421FD28AB239462846FCF70EFC804650
S11345C0A91C059811F80790C01BC21EE91C92B2E1
S11345D03944484610F092FC04000AF101008DF8B9
S11345E00D00CCD19DF80DA08720FCF7BBFB404605
S11345F0FCF7C7FB0499052930460CD0BAF1000F2B
S113460007D15FFA8BF109B980211AE10020FCF788
S1134610A9FBFCF7EAF916E10C290CBF0D201620C2
S1134620FCF7A0FB00F040F98146A81C0499C55D85
S11346300C2903D11A2D06DB192504E0152902D112
S1134640142DA8BF1325E07B98B1208A4FF6FF7183
S113465088420ED120689DF80C3040794A46414684
S113466010F0E4F94FF6FF71884218BF002E00F0F5
S113467020F97B4801880BEB01070020FCF772FB53
S113468004989DF80C30019515280CBF01200020DA
S113469002904A46208A009041462468607910F0CE
S11346A020FA3870B5E72046FFF73BFD0028B2D169
S11346B08121C5E02046FFF78EFD0028ABD1F7E746
S11346C0B8F10A0F26D1684E307818B3E07B002881
S11346D004BFA9EB070008281CD100F0E5F8002866
S11346E002BFA91CC85D002802BFE819C078E228EF
S11346F010D1391D4A4689B22846FCF76CFB00F0FC
S1134700F3FA00F0F3FA024658490220FFF7BDFD20
S11347100020307000F0C3F800F0BFFB8EE000F022
S1134720BEF8FFF76DFD89E000F0B9F8FFF7FBFC78
S113473084E000F0B4F8FFF750FD7FE000F0AFF83C
S113474000F0ADFB7AE0EF5D2D5C208A9DF80C1043
S1134750019000912B46246860793A464146FCF763
S1134760EFFB2A4639464046FFF7DFFC6BE0E95D84
S113477001B10121049A162A0CBF012200220092E1
S1134780A9EB000293B22A184046FFF7D0FC55E08B
S113479015F80790681C1129C55D04D11220FCF797
S11347A0E1FA002703E01420FCF7DCFA0127E07BA0
S11347B078B1208A4FF6FF7A50450AD14B464246DB
S11347C021463846FCF7B9FF504518BF002E00F0CB
S11347D070F84246224E308803958246CDF8089000
S11347E0C0F15100019680B2009021460BF1010006
S11347F000EB0A033846FCF7DAFF00B101200BF89E
S11348000A003088401C308003E700F031F81CDBDC
S113481000F03CF80020FFF7B7FD00F02FF8FFF799
S11348208AFC0BE000F024F80FDB00F02FF80120E5
S1134830FFF7AAFD00F022F8FFF77BFC18B900216E
S11348402046FCF715F9012000E0002007B0BDE880
S1134850F08F0000A4380300CC380300B038030004
S1134860EAFB0320C0DF0320E8FE0320D438030062
S1134870EE5D06B101260746B94570471FFA89F077
S11348800090EB19218A324640467047A9EB07098C
S11348901FFA89F00090EB193246414670471FFA1F
S11348A08AF2E919404670474A4639462846FCF7D9
S11348B094BA03D020823070000A70707047308838
S11348C0C0F1520080B201905346218A00915A46A9
S11348D0D4F800C09CF80500414670472DE9F04229
S11348E07D4E7E4C002030703821206800F0DAFACA
S11348F07B4933782268087838256B43D0540022EA
S113490030782168684308444270307821686843ED
S11349100844827010F02EFB327821686A430A44FE
S1134920107210F027FB327821686A430A445072EF
S1134930317820686B4A6943014410786A4AC87028
S11349403378216817686B43C818684947610A7847
S113495002763078D4F800C0654A1268074615FB21
S113496007F30CEB0301CA61624AD2F800902C22CF
S1134970574309EB07020CF13407FA5009F0FEFD26
S11349803078216801F1340215FB00F551594A6869
S11349900968BDE8F0420CF046B880B592B06A46AA
S11349A00021002008F0FDFF08B1012018E0524961
S11349B0524A0A910B925249524A0C910D9210910B
S11349C05148524A5249534B09900F9211910E93F8
S11349D06A460021002008F00AFF00B10120C0B29D
S11349E013B000BD80B5002000F01AF828B10020F3
S11349F000F005F808B1002002BDFF2002BD3748D1
S1134A00354A0168137838204343C818807802284F
S1134A101CBF1128432801D1012070470020704792
S1134A202E482D4A0168137838204343C81840782B
S1134A3001281CBF0228032801D10120704700204F
S1134A40704700207047002070477047002070476F
S1134A50012070477047002070477047704700205E
S1134A60704780B500F020F820B10020FFF7D8FF90
S1134A7000B1012002BD80B500F016F808B1002095
S1134A8002BDFF2002BD10B5044600F00DF848B188
S1134A9000F019F84078012818BF022802D10CB997
S1134AA0012010BD002010BD0020A8E780B5FFF74D
S1134AB0FBFF30B100F007F84178032901DA002048
S1134AC002BDFF2002BD0548034A0168137838205F
S1134AD04343C8187047000049FF0320E8D7032068
S1134AE0E1DB0320E2DB0320F0D70320D8DB032043
S1134AF0F4D70320ECD70320DB9A0000A1090100BE
S1134B0099960000D1E20100B3990000B7C50000F6
S1134B10030901008F9800000021002009F015B856
S1134B20002818BF10F048BA704702F0E9B801F045
S1134B307FBF33B585B005468DF80420FFF75CF9D7
S1134B4004462846FFF768F97CB10028BDF8180030
S1134B500FD1FFF7C9FA8DF80000FF2804BF002128
S1134B608DF80010CDF808D016E0A8B106A8029080
S1134B7012E0FFF7B9FA8DF80000FF2804BF002106
S1134B808DF800109DF80000BDF818108DF80C0089
S1134B9003AAADF80E100292DDE901010A460146AE
S1134BA02846FDF751FB07B030BD70474AB10000FD
S1134BB011F8013B521E00F8013B1CBF11F8013BE8
S1134BC0F8E770472DE9F041DFF81081434BB0FB63
S1134BD0F8F803FB18004FF461660A46B0FBF6F3DD
S1134BE0DEB24FF4616101FB16063C27B6FBF7F613
S1134BF056711371A0EB0310012407FB160090718A
S1134C004FF4FA67A4464FF0000E0123324E04E03D
S1134C10002400E001240EF1010EC64538D2200024
S1134C2004D0D8B2022808BF1D2007D09370D8B290
S1134C301780304482F803C010F8010C5FFA8CF13D
S1134C40884206BF5B1C4FF0010C0CF1010CD8B27A
S1134C500D28E0D17F1CBCB2600804EB90750123E1
S1134C60AD08B4EB8501D3D1642094FBF0F064214A
S1134C7001FB10400028CDD14FF4C87094FBF0F034
S1134C804FF4C87101FB1044641EA441E40FC2E751
S1134C909370178082F803C0BDE8F08118B587B01F
S1134CA0044605A9FFF78EFF9DF81A009DF8191018
S1134CB09DF817309DF816200390029104949DF8F6
S1134CC01800BDF8141001900091054805490088AA
S1134CD0FFF7DBFA08B010BD803B030080510100F0
S1134CE0A6FE03205C3B0300FFF784BAFFF72DBA4E
S1134CF02DE9F04104460D4616469846FFF786FA1C
S1134D0050B1002705E02A5C41462046FFF7C3FA6C
S1134D107F1CB8B2B042F6D3BDE8F081002B14BFBB
S1134D203DA33EA3E4E738B504460D462846FCF708
S1134D3074F80246691C07E038B504460D46284657
S1134D40FCF770F80246A91C204601B0BDE83040CB
S1134D5033A3CDE718B587B00178384C0691427873
S1134D60059281780491C278039201790291427983
S1134D7001923E2281790091C37920882E49FFF760
S1134D808AFA08B010BD014600220220FFE72DE98F
S1134D90F84F804689469246002723A423A50FF2A4
S1134DA0840B264E13E05A460DE030880123082276
S1134DB009EBC701FFF7B2FF7F1CBAF1000F01D165
S1134DC04745F0D12A4630882146FFF764FA474523
S1134DD0EBDBBDE8F18F2DE9F041184D044628883E
S1134DE0FFF714FAB0B10120002611A70FF244080E
S1134DF0E1070AD518B928884146FFF74CFA2888F4
S1134E00F2B23946FFF747FA0020761C6408F1B283
S1134E101B29EDDBBDE8F081257820002578000012
S1134E202563000000000000202570000D0A00002A
S1134E30256400002C20000010380300A6FE032087
S1134E4080B5FFF78DF9FBF7F7FABDE8014010F0E4
S1134E50BDB980B5FFF787F9FBF718FB10F0A2FA8C
S1134E60BDE80140FDF7C8B980B5FFF77DF9BDE89D
S1134E70014010F0E5BA7047FFF7A3B9FFF7A7B9EF
S1134E800020704738B504460D46FFF7BBF92946A4
S1134E902046BDE8344010F0F0BAFFF79AB9FFF7A6
S1134EA0A5B97047002202F025B97047DFF8A814AD
S1134EB0012008707047DFF8A0140A7882421CBFF2
S1134EC00870FDF77CB970470170090A4170801CB5
S1134ED0704710B504460822FCF7DCFC04F1080016
S1134EE010BD2DE9F04F07460D468BB0DFF86C146A
S1134EF0DFF86C840220FFF7C8F9162102A8FFF737
S1134F00D1FF69782A7802EB01214FF6DF70014066
S1134F104CF60143994208BF05F10D0004D04CF64C
S1134F200100814260D1E81D841C41780278BDF8FB
S1134F301C0002EB012240F00200ADF81420ADF891
S1134F401C00082221460DF10900FCF7A3FC04F122
S1134F500800411BC9B2791ACAB2062A44DD427854
S1134F60037803EB02230B2B3ED18378C01C23F080
S1134F702C02891E032AC9B203D04246DFF8E41387
S1134F802FE013F00C0218BF082A8DF808201ED059
S1134F900C2A22D1062927DD00F05EF9ADF81A208B
S1134FA000F05AF9ADF818204178027802EB01229A
S1134FB09906ADF816200DD5BDF81C00DFF8A8132E
S1134FC040F00100ADF81C00B523424609E0052974
S1134FD0E6DA09E0801C441B07E013464246DFF88A
S1134FE08C130420FFF751F90024E4B2002C00F0E4
S1134FF08180DFF87C130420FFF74DF99DF8080049
S113500008B991A108E0082808BFDFF8681303D0A5
S11350100C2804D1DFF860130420FFF73CF9DFF813
S11350205C1300F016F9BDF81420DFF8541300F0F7
S1135030C7F99DF81C00810784A60AD5D14904202C
S1135040FFF729F90DF10900FFF784FE00F000F9DC
S113505004E0BDF81220CC4900F0B2F9BDF81620E6
S1135060CA4900F0ADF9BDF81820C9490420FFF77A
S113507012F90420FFF7CAF830B1FBF74EFA0146E3
S1135080BDF81800FBF72EFA00F0E2F89DF80800CE
S11350900C2804D1BDF81A20BE4900F091F93F1B39
S11350A02A19F9B202A8FFF776F8A0B92A19F9B2B9
S11350B002A803F0D5FB70B9BDF816304CF25E00BF
S11350C0834204BFBDF81800B0F5805F05D1B24932
S11350D00220FFF7DAF80120B3E0F9B202294FF019
S11350E0000C09DC03200B4600904246AB49042027
S11350F0FFF7CBF80020A4E0BDF81C20D007F9D4BA
S113510015F804E05FEA8E7004D54246A44900F025
S113511057F9EFE71EF0040018BF4FF0080C5FEAE0
S1135120CE7658BF4CF0040C5FEA0E764CBF4FF0BD
S1135130020E4FF0010E4EEA0C0C38B1052902DACA
S113514042469849E3E72819067901E02819867848
S1135150BDF818E04FF000094FF6FF7103E009F1C4
S113516001005FFA80F94FF0060A8F481AFB09FA2A
S11351705044B0F800A08A4517D09A4501BFB0F852
S113518002A0F24590F804B0B345E8D1407910EAA2
S11351900C0FE4D092070ED401F03CFBBDF81210C2
S11351A088420CBF0121002110E00196CDF800E0F7
S11351B042467E499BE7ADF8121008227C490DF166
S11351C009000CF015FD411E8941C90FBDF81600F8
S11351D0BDF81820ADF82000ADF822200123754851
S11351E002789DF81C008DF825208DF82430C20724
S11351F04CBF20200020ADF826000023BDF81A2063
S11352009DF80800ADF828208DF82A3020B1082830
S113521004D00C2807D06DE7002108E000290CBF5A
S11352200421052103E0002914BF03210221BDF854
S11352301220009202A80190FBB22A1908A8FBF7D9
S11352403BFA0BB0BDE8F08F756E690000000000FA
S113525031460420FFF719B8417810F8022B02EB0D
S113526001227047F8B50746A2B038783A4B0E468B
S11352701446002819780CBF1E22202209B9702078
S113528065E0B1187E2964DA397D8A074CBF4CF693
S113529001454CF6010508B945F02005684601F0C2
S11352A0A7FC294602A8FFF70FFEB989401CFFF7A7
S11352B00BFE397D8A0703D5791CFFF70AFE02E04D
S11352C07989FFF701FE054601F0A6FA0146284652
S11352D0FFF7FAFD6946FFF7FCFD0B21FFF7F4FD2C
S11352E0397841F0030100F8011B3A780C2A04BF15
S11352F0798AFFF7E9FD398AFFF7E6FDF989FFF7B7
S1135300E3FD054632462146FCF7C4FA387DC10761
S113531048BFB7201BD4A81902AA801A02A9C0B298
S1135320FCF736FF010012D1FFF7E0FC02463346DA
S113533021490420FEF7AFFF012332462146042011
S1135340FFF7ECFC00221D4900F03AF8002023B0DE
S1135350F0BD7420FBE70000FFFE03208C4D03002A
S1135360404D0300204D03006C4D0300504D0300DD
S11353706C4E0300844E03008C4E0300944E0300D5
S11353809C4E0300B04E0300C04E0300D84E0300F1
S1135390EC4E0300044F0300B04D0300D84D03004E
S11353A0F84D0300184E03003C4F0300304E030039
S11353B07CF80320ACDE0320184F0300344F0300B5
S11353C00420FEF762BF00E000BF002101707047B7
S11353D010B50020DFF824190022002441F83040E1
S11353E001EBC003401C0A289A80F7DB10BD2DE9AD
S11353F0FC4F8FB080460020ADF812008A46BDF8FD
S11354004000022805DD1A9E31784B0707D5042891
S113541003DC012011B0BDE8F08F307900E0B078F2
S11354208DF808000021DFF8D49809F10403CCB208
S113543033F8340020B1491CCBB20A2BF5DBFF242E
S11354401E9F1FB1FF2C08BFB420E3D000208DF8AD
S1135450110015460AAA28790DF11101FEF77BFE09
S113546058B1BDF8340028809DF81100FCF727FAE4
S113547000288DF810003ED114E02879FCF759F883
S11354808346BBF1FF0F08BFA320C3D02879FCF7E4
S11354901BFA8DF8100070BBDFF86C1801EB0B10D1
S11354A042882A805FEA08000CBF50464FF6FF701E
S11354B0019000216888DDF86CB000905A462B8872
S11354C09DF80800FBF7D6FA18B1E88840F02000F0
S11354D0E880059706950796ADF820A08DF82480FE
S11354E08DF825B004A9BDF84000ADF8220005A848
S11354F0FEF76BFE10B19DF810008BE73046FBF70A
S1135500DEF9A81DFBF7C8F92A4651464046FBF7C9
S1135510D7FABDF84010884221D39DF87400BDF835
S1135520701003900DF112020291019200962A4626
S1135530BDF84030DBB25146404601F009FB8DF81E
S1135540100087B178B9BDF81200D0B10A2C18DA6E
S113555009F1040121F8340049F8347011E0742091
S11355608DF8100010E0BA2808D1A879C1060BD52F
S113557000208DF81000012001F04FFD9DF810006F
S113558010B911200FF037FEFCF7A7F9B3E7B8B54F
S113559085B0088100F056F8002500F04DF803208E
S11355A046E01CB500240094FFF7F1FF16BDF8B5E2
S11355B0040084B00E46154603D0300018BF002DF9
S11355C001D102202AE000276946F8B200F0E0FE8B
S11355D0010023D19DF80010032902BF9DF801109A
S11355E02279914202BFBDF802106288914211D122
S11355F09DF805009DF8061000EB012020812B4644
S11356009DF8041061713246214680B2FFF7C9FF4C
S1135610010003D17F1CF9B20A29D5DB05B0F0BD26
S1135620B8B585B0002500F00DF800F005F80620A7
S1135630FFF7DDFE06B0B0BD0127014603950295D4
S113564001977047009313460A9C04940A467047D6
S11356501CB500240094FFF7E3FF16BDF0B5022843
S113566085B004460D4616461F460BD16946E8B27E
S113567000F08EFE010013D19DF8010030719DF8F9
S11356800400707100210B98049003910291019120
S11356903B460A980090324629462046FFF7A7FE6B
S11356A005B0F0BD3EB5069D009500240194FFF7BA
S11356B0D5FF3EBD2DE9F04389B00546894617461E
S11356C01C46002605A9F0B200F062FE5FEA00085D
S11356D029D19DF81400012821D1FFF7B2F99DF8D2
S11356E02110814202BF9DF815002979884202BF2A
S11356F0BDF816006988884211D19DF818006871B8
S11357000494002103910291019100974B462A468B
S1135710F1B20220FFF76BFE5FEA000803D1761CAA
S1135720F0B20A28CEDB404609B0BDE8F083F8B5F4
S113573086B005460C4616461F4616216846FFF7F6
S1135740B1FBADF80C50ADF80A606CB108222146EB
S11357500DF10100FCF79EF8BDF8141041F00201B0
S1135760ADF81410002104E0380005D0ADF8127033
S11357700C218DF8001007E04FF6FC70864234BF10
S1135780002008208DF800000D980C9B0F9A0E99AC
S1135790ADF80E00ADF810306846FFF763FD07B0B2
S11357A0F0BD0420FEF771BD80B50346DFF85C054B
S11357B000880A0007D1BDE80050DFF85425DFF85F
S11357C05415FEF768BD0091DFF84C25DFF84C1541
S11357D0FEF761FD01BD10B5FF280C4604D1DFF8CA
S11357E0401500F06EF9FE202146BDE810407CB55E
S11357F004460D46FCF72AFF064633462246DFF8E8
S113580024150420FEF741FD85B1DFF81C150A6854
S113581001A801AB0260032000908DF8054000222E
S113582036214FF6FC700FF09FFF0646304676BDDA
S1135830F8B50D460446288817461E4608B10020D0
S1135840F2BD6A88DFF8E414B2F5004F2CBF7B7810
S113585000230820FEF719FD6888DFF8D4141338F4
S11358601ED047F6EE72801A21D0401E29D0801E29
S113587006D0401E21D0401E05D01A380CD02EE090
S1135880DFF8B02428E0DFF8B0240820FEF703FD99
S11358903A79DFF8A8141FE07A78DFF8A4141BE043
S11358A07878B97800EB0122DFF8981414E0DFF877
S11358B098140820FEF7E9FC11E03A79DFF88C141B
S11358C00AE0DFF88C240820FEF7E5FC7878B97844
S11358D000EB0122DFF87C140820FEF7D6FC3346E7
S11358E03A4629462046FFF7C9FA002802BF6888CD
S11358F048F22101884203D179782046FEF739FC29
S11359006888B0F5004F84BF08200FF08FFC012099
S1135910F2BD2DE9F04788B0109C119D81460E46DA
S1135920924698460FF0BCFF07467088DFF82814AB
S11359300090224633880220FEF7A7FC8DF80890D9
S113594003960495ADF81440ADF816708DF818A0C0
S11359508DF8198000F064FF8DF81A0000F062FFE2
S11359608DF81B00FFF76DF88DF81C0002A8FEF7F8
S11359702AFCA8B923462A463146384610F0B2F824
S113598070B923462A4631463846FFF751FF38B9E5
S11359900190009723462A4649463046FAF78CFE82
S11359A008B0BDE8F0872DE9FC4784B01F000E9EC7
S11359B00F9D82468846144631D0DFF8A023DFF8D5
S11359C0A0130420FEF767FC23880BB995A20AE014
S11359D040F20910834208BF93A204D0B3F5827F3A
S11359E00CBF92A292A201966088DFF8781300900F
S11359F00420FEF750FC208870B1022E0CDD2878BC
S1135A00AB78C1074CBFDFF86023DFF86023DFF811
S1135A1060130420FEF73FFC95A100F052F8B7494B
S1135A201098002201F10409D3B239F833C0844537
S1135A302BD0521CD3B20A2BF6DB4FF00009002204
S1135A400B1D33F832C0844522D0521C0A2AF8DBDD
S1135A50002F04BF2088002806D16088B0F5004FCD
S1135A603CBF08200FF0C7FB01200FF0DFFB8DF8CF
S1135A700CA0CDB12878C10716D540070ED5324603
S1135A8001212846FBF7A9F909E051F83390D6E73C
S1135A90002023F8320041F83200D9E700200290B8
S1135AA000F012F8FBF763FA5FEA090002D000F095
S1135AB00BF8C84700F008F8FEF757FB06B0BDE83E
S1135AC0F0870420FEF7E1BB0197009533469DF86B
S1135AD00C002246414670477CB504469038A54DDB
S1135AE0A54E10D0401E26D0C01E24D0801E22D029
S1135AF0801E20D0001F2DD0401E33D00E38042825
S1135B0019D9113832D100F085FE009033462A4667
S1135B109A490420FEF7B9FBBC2C07D19849FFF73A
S1135B20D0FFFEF75CFBFEF75BFB01E007F0F4FB44
S1135B30FEF756FB1FE0912C03D133462A469149C8
S1135B4002E0914B91492A460420FEF79EFBFAF7A6
S1135B509EFC10E001F06CF802468D490420FEF72B
S1135B6094FB15E08B49FFF7ACFF11E022468A490C
S1135B700220FEF78AFB20469C2818BF9D2807D0E8
S1135B8010F0A0F92046FCF768FA204610F015FA48
S1135B90204601F042FC18B1BDE87C407F4900E694
S1135BA073BD10B50020FBF78AFE7D49086878B103
S1135BB04278100005D0501E04280AD9FE3808D0B7
S1135BC00AE00020002408F0A1FC2046FEF758F962
S1135BD030E002200524F6E772490120FEF755FB68
S1135BE0F6E71CB500206E4CFBF769FE216869B12D
S1135BF0684601F00BF848B920689DF80010007859
S1135C00814203D0012808BF022906D166490888C9
S1135C10ADF800006846FCF733FFFBF75EFE13BDEA
S1135C20000000005A444F00534500004841000062
S1135C303F3F0000BDE81040FBF74FBE38B5584960
S1135C4009680446702089B10D7820890090012DDF
S1135C5008BF0225E37A554A55490120FEF715FB92
S1135C6021462846BDE83440FCF76CBD32BD000037
S1135C700000000010B5044600F0C5FD002000221D
S1135C80215CFF2908BF2254401C1028F8DB227431
S1135C9010BD1FB5CDE9010100220024454B0AE0E7
S1135CA013F832009DF80A10884204BF181D50F8FA
S1135CB03240521CD2B2191D51F832000028EFD1E3
S1135CC09DF808009DF807309DF806203A49009099
S1135CD00420FEF7E0FA9DF809201AB108A1042077
S1135CE0FEF7D9FA04B907A4BDF80430224604B07B
S1135CF0BDE8104031490420FEF7C7BA5CDE03203A
S1135D002E2564003F3F3F00ACDE0320A6FE0320A7
S1135D10282803002028030040280300302803001B
S1135D204C2803008828030048280300A028030007
S1135D30C8280300DC280300E4280300EC2803003F
S1135D40FC280300242903003C29030058290300EC
S1135D507C29030084290300982903002C2A0300CA
S1135D60202A0300CC290300102A0300182A030068
S1135D70FC290300442A03004C2A0300342A0300AC
S1135D80582A0300782A0300902A0300842A030077
S1135D90982A0300B82A0300D02A0300E82A030043
S1135DA014E00320182B030018A80300542B03004D
S1135DB0382B0300842B03005C2B0300742B03009B
S1135DC001F039BB10B5DFF8C433DFF8C4431978E8
S1135DD00C2041432068BDE81040FF22FBF79EBD24
S1135DE070B50D46DFF8A4130A789042044601D337
S1135DF06A2070BD11F0C7F808B1762070BD28463E
S1135E0008F0BEFA4FF6FF729042DFF884633268FE
S1135E1008BF4FF6FD700C214C431053284600F088
S1135E2061F900B10120316801F10A021055FEF751
