S044000044796E616D69634D756C746970726F746F636F6C4C696768745365645F65667233326D673132703433326631303234676C3132355F62726434313631612E733337BD
S1130000983C032047C50500B5EB01008D9D050014
S1130010A70A02020002000004180FAC206A0B01B8
S113002000000000000000000000000000000000CC
S1130030000000002403060000000000000000008F
S11300400000000000000000FFFFFFFFFFFFFFFFB4
S1130050FFFFFFFFFFFFFFFFFFFFFFFFFFFFFFFFAC
S113006000700F000000000000000000FFFFFFFF11
S1130070FFFFFFFF1C000000000000000000000064
S11300800000000000000000F0BF0320F0BF0320C8
S1130090983C0320E4EE06001AC80500983A0320B1
S10F00A08C0F0020000010000000000085
S1130200983C032047C50500B5EB01008D9D050012
S1130210CD9F0200919D0500959D05000000000002
S113022000000000000000000000000033B80000DF
S1130230999D05003BB70000C3C80500B3DB00006F
S1130240F59F0200F9F30300C1AC0000A19D050075
S1130250D1EE030031F40300FFF3030001F40300C3
S1130260FBF3030027CF030051080300778E02003D
S113027039FC0100A19D0500A19D050087AA050088
S1130280A19D0500A19D05005F080300A19D050037
S1130290A19D0500A19D0500A19D0500A19D05004E
S11302A0A19D0500A19D0500A19D0500A19D05003E
S11302B033F40300FDF30300D355030067F4030094
S11302C0A19D05009DC30500A19D0500A19D0500FC
S11302D0A19D0500A19D0500A19D0500A19D05000E
S11302E0A19D0500A19D0500A19D0500A19D0500FE
S11302F0A19D0500A19D0500A19D0500A19D0500EE
S1130300A19D0500A19D0500000000000012034806
S1130310016830BF41F000410160704700BF4C31BB
S11303200E4000003EB5009313460A46654D069CF8
S113033001940146286800F011FC3EBD0A460146BE
S11303406048006800F0EBBC2DE9F64F87B01E460C
S11303504FF0850A00F001045A4D31B12A68136840
S1130360587900F067FF002809D0ADF8006046B165
S1130370286802685079314600F05CFF002800F0DC
S11303808480DDF84880DFF840914FF0000B0C23A7
S11303905FFA8BF2252101A801F07CF829680A682C
S11303A09DF804005379984202BFBDF80600BDF8D9
S11303B01C10884261D12CB99DF808009DF82010CA
S11303C088425AD1BDF800A0FF260027F8B2834521
S11303D020D00C23FAB2252104A801F05BF8296887
S11303E00A689DF810005379984204BFBDF81200C2
S11303F0504508D1002C9DF8141014BF9DF8080036
S1130400404681420BD0F0B2FF2802BF9DF8100095
S113041000283E467F1CF9B20229D7DD00E03E46A3
S1130420F0B2FF28ADF800A02DD0ADF806A00CB9AD
S11304308DF808800C2301AAF1B2252001F05DF8A3
S1130440FFB2F6B2B74215D000F040F899F80000B8
S1130450401C89F8000001234A467F21242001F032
S11304604CF800F033F82868026899F800105079C5
S113047000F050F84FF0000A3CB10BF1010BBBF156
S1130480020F84DD01E04FF0890A28680079002812
S113049018BF01280FD19DF82000BDF81C10029050
S11304A00191CDF800A006A342220521092001F004
S11304B052F901F072FC012009B0BDE8F08F000090
S11304C0757675006C7203205BBF032001237F22C5
S11304D02421484600F0DEBFE0B5012110228DF84A
S11304E00410009201AB4FF48042062101F031FE6A
S11304F00EBD70471CB59DF81440049B009401F098
S113050028FE16BD38B5044600F00FF829782046B9
S1130510BDE8344002B582B0202102AA01910092C4
S11305200521DFF8243900223DE0DFF820590123BA
S11305307F222421284600F0ADBF36B583B004469F
S1130540012020218DF80800019103AD00950122BE
S1130550DFF8FC3800F018F8010013D1212004A9B9
S1130560019000910222DFF8EC3800F00DF8010050
S113057008D1102002A9019000910322DFF8D83895
S113058000F002F805B030BD05212046B2E7E0B521
S11305900021102202AB8DF808100192009303226F
S11305A0DFF8B4380521FFF7A5FF0EBD2DE9F043B0
S11305B0DFF8984885B000F0ACFB2278DFF89C188F
S11305C00323012002F077F90027AEA4DFF8905846
S11305D0DFF89098DFF89088ABA600F06CFAFAB2D6
S11305E04146012002F06DF99DF80800C8B1BDF83C
S11305F00E009DF80C1001900091BDF80A309DF892
S113060008204946012002F05CF99DF8102031468B
S1130610012002F056F99DF812202946012002F02B
S113062050F92146012002F046F97F1CF8B2022855
S1130630D3DD23E13EB5009313460A46DFF82C5878
S1130640069C01940146286800F088FA3EBD0A46DB
S11306500146DFF81808006861E32DE9FF41804690
S11306608B275FEA08000C46DFF8006804D000F02E
S113067085F808B9852723E000250C23EAB200F0A9
S113068069FA00F074F801BFBDF8020040459DF816
S11306900400A04204D06D1CEAB2022AEDDD0FE092
S11306A000F052FAE9B200F0E8FBDFF8A07700F0BE
S11306B074F800F069F800F070F800F053F80027BF
S11306C030680079002818BF012809D10294CDF8B8
S11306D0048000979CA3022200F031F901F05DFB35
S11306E03CE02DE9FF41804685255FEA0800DFF8FC
S11306F07C6703D000F042F8002820D000250024B5
S1130700DFF848770C23E2B200F024FA00F02FF867
S113071004BFBDF80200404509D18DF800500C23F8
S11307206A4600F0A9FB00F038F800F02DF8641CCC
S1130730E0B20228E6DD00F030F800F013F830688B
S11307400079002818BF012808D1CDF8048000954D
S1130750B9A3032200F0F3F801F01FFB012004B059
S1130760BDE8F0813068026839785079D2E63168A2
S11307700A689DF8000053799842704732681368FC
S11307805879414600F056BD3878411E397001232E
S11307903A467F21242000F0B0BE01237F22242189
S11307A0384600F077BEFEB5DFF8C06633681F68D0
S11307B004460D4678792A46214600F0C7F8326887
S11307C001461079002818BF012808D1009102952C
S11307D001945DA3042200F0B2F801F0DEFA0120D6
S11307E0FEBD2DE9F843DFF884460546206884B051
S11307F0884601684E7991462A0008D02946304639
S113080000F018FD18B985208DF8000031E00027AC
S11308100C23FAB200F08EF89DF80400B04201BF38
S1130820BDF80600A8429DF80800404507D07F1C8B
S1130830FAB2022AECDD8B218DF8001019E00122B6
S11308408DF8002049466A4601A802F0E3F840B951
S11308502068036858794246294600F0F4F88DF878
S113086000009DF8000020B9216808684079FFF76E
S113087033FE9DF8000001F095FA012005B0BDE8B3
S1130880F0830000000000002E2564002DE9FF41E4
S11308900646002700243000DFF8D08508D0D8F8B9
S11308A0002013685879314600F0C4FC00B985274C
S11308B0FFF73BFE0296A3A328780097C0F103003C
S11308C00190062200F03BF847BB00250C23EAB256
S11308D000F030F8D8F800100A689DF80400537945
S11308E0984204BFBDF80600B04205D19DF8080047
S11308F0E1B2641C0DF801006D1CEAB2022AE5DDC8
S1130900E0B202F0C3F8002604E01DF8000002F093
S1130910BDF8761CF0B2E1B28842F6D3D8F80000F4
S11309200079002818BF012801D0E4B20CB101F00D
S113093034FA13E7252101A800F0ACBD02A3052178
S1130940092000F008BF0000757675002DE9F84312
S113095081468846FF245FEA080084B0154605D026
S1130960484600F067FC08B9852064E000260C23A3
S1130970F2B2FFF7DFFF9DF80400484501BFBDF860
S1130980060040459DF80800A8420BD0E0B2FF28BD
S113099002BF9DF8040000283446761CF1B20229F7
S11309A0E5DD00E03446E0B2FF2808BF892042D0EC
S11309B00C23E2B2FFF7BEFF0621484602F0BCFB5F
S11309C0002750B1012000900DF10E0300220621F2
S11309D0484601F0EDFB00B90127F6B2E0B28642C9
S11309E08DF80D701DD00021ADF80A108DF80C1093
S11309F08DF80490ADF806808DF808500123DFF8D7
S1130A004C6400F01BF83078401C307001233246EF
S1130A1000F07BF9012300F011F831784846FFF724
S1130A2079FD0C2301AA00F027FA424629464846DC
S1130A30FFF783FD002021E7757600007F22242143
S1130A40304600F027BDF0B504460D46280085B0B9
S1130A50164605D0204600F0EDFB08B9852012E0CB
S1130A60002700F028F89DF80800A04201BFBDF857
S1130A700A00A8429DF80C00B04206D07F1CFAB2CE
S1130A80022AEEDD8B2005B0F0BD9DF8110058B1AF
S1130A9010210DF11200019100900022DFF8D033F3
S1130AA006212046FFF726FD2A4631462046FFF759
S1130AB044FD0020E7E70C23FAB2252102A800F048
S1130AC0E9BC7FB5054602F044FE044600260C232B
S1130AD0F2B200F03FF89DF8000060B1854205D005
S1130AE0FF2D08D102F00AFF844204D100F02CF853
S1130AF0F1B200F0C2F9761CF0B20328E7DBD34A66
S1130B0000201070012300F000F92846FF2814D1BA
S1130B100025D84E02F082F8E9B2814210D22806AC
S1130B2006EB1050017BA14205D1E8B202F0AEFB06
S1130B300021FFF7EFFC6D1CECE70021FFF7EAFC56
S1130B407FBD00007575760000208DF800000C2331
S1130B506A4670472521684600F09CBC2DE9F04F99
S1130B60064687B0F07C40281098144699460CBF7E
S1130B704FF001084FF000088B4601F0F9FFB289ED
S1130B80317D521A101A801F80B2009000253168FE
S1130B904E798DF80C40FF275FEA0B0006D05946CA
S1130BA0304600F047FB08B9852194E09DF80CA07D
S1130BB000240C23E2B2252104A800F06BFC9DF86C
S1130BC01000B04201BFBDF8120058459DF8140052
S1130BD050450BD0F8B2FF2802BF9DF81000002842
S1130BE02746641CE1B20229E3DD00E02746F8B29F
S1130BF0FF288DF80CA008BF89216CD00C23FAB211
S1130C00252104A800F046FC5FEA08000CD00A2065
S1130C1099FBF0F0ADF816000A20BDF8161000FBA1
S1130C2011998DF8189003E0ADF816908DF81850CE
S1130C30E0B2DDF84490F9B2884218BF8DF819503B
S1130C40DDF800A00CE0062908D101218DF8191067
S1130C5019F8051001B101218DF81A104519ADB22A
S1130C60554516DAE81C824511DB1FFA8AF229463B
S1130C70484601F05AFF0146AD1CA8B26D1C19F894
S1130C8000000028ADB2EBD042199245DBDA802196
S1130C9021E0E4B2F8B2844217D09DF80C006B4C0A
S1130CA08DF814008DF81060ADF812B000F031F832
S1130CB02078401C20700123224600F026F800F022
S1130CC028F821783046FFF725FC0C2304AAF9B252
S1130CD000F0D3F80021654802681079002818BF95
S1130CE001280ED19DF80C000290B8F1000F00917C
S1130CF014BF40220022CDF804B0FFF71FFE01F01C
S1130D004CF8012007B0BDE8F08F7F21242000F0CB
S1130D10F4BB01237F222421204600F0BBBB2DE934
S1130D20F84386B00C46C17C006890F805808B2699
S1130D3041290CBF012700272100914605D04046D8
S1130D4000F078FA08B9852617E000250C23EAB2EA
S1130D50252103A800F09EFB9DF80C00404501BF2F
S1130D60BDF80E00A0429DF81000484504D06D1C4B
S1130D70EAB2022AEADD00E00026380014BF41226C
S1130D800122CDF8089001940096FFF7D7FDD6B95B
S1130D90BDF8120027B19DF814100A2202FB0010BE
S1130DA080B201F082FE002001F070FE9DF8150073
S1130DB048B1062001F079FE012001F067FE9DF89C
S1130DC0160001F063FE294801680879002814BF61
S1130DD0012800F0E2FF012007B0BDE8F0832DE90F
S1130DE0FF41064688460027204C184D0C23FAB2D2
S1130DF0FFF7B0FE9DF80000B04204BFBDF802004A
S1130E0040451AD10022ADF802208DF800200C23B1
S1130E106A46F9B200F031F8FFF789FB2878411EE1
S1130E20297001232A46FFF770FFFFF780FB206833
S1130E30026829785079FFF76DFB7F1CF8B202280D
S1130E40D4DDBDE8FF810000CCEB05005BBF0320CF
S1130E50D8EB0500E8EB0500F8EB050004EC050011
S1130E6050EC050030EC050028EC05006C72032002
S1130E705CEC050034710320E1B2252000F03DBB99
S1130E801FB500218DF80810044601F0A1FD28B11A
S1130E909DF8080040F080008DF80800182002A991
S1130EA001900091402300220421204601F045F9DD
S1130EB01FBDF8B505460E46300084B0144603D075
S1130EC04FF6F8718E4201D3872020E03146284640
S1130ED000F0D5F9E8B9002700F048F9002804BF6C
S1130EE09DF8000000280ED103218DF800108DF824
S1130EF00560310A8DF806108DF801506946F8B284
S1130F0002F0E8FD28B100F02DF9E5DB892005B0F9
S1130F10F0BD22463146284601F05CFD0020F6E78C
S1130F207CB5C34D2B681E6804460A467079214679
S1130F30FFF7BFFF29680979002918BF012909D1E2
S1130F4000900194B7A300220421092000F003FCBF
S1130F5000F023FF012076BD70B588B0064611214C
S1130F6003A802F04FFFB24D2A6810798B240028A1
S1130F7018BF012821D1300003D04FF6F8718E42FA
S1130F8001D387240DE010684079314600F077F9E9
S1130F9038B128680368587903AA314601F017FD6F
S1130FA0002403A80290019600949FA30122042127
S1130FB0092000F0D0FB00F0F0FE012008B070BD65
S1130FC02DE9F84F8AB0002400250022814600E074
S1130FD0521CD0B24845FBD30DF11100B9F1000FFA
S1130FE000900DF1100BDFF8488226461BD106A9AC
S1130FF000F042F9002804BF9DF8180003280DD121
S113100000F05DF80AD19DF81D000BF80500641C82
S113101000989DF81E104155AD1CEDB2761CF0B23F
S11310200328E4DB34E001910198F3B202220021A9
S113103000EB430001F079FD8246002706A9F8B2CF
S113104002F03CFD002804BF9DF81800032816D1C7
S113105000F035F802BF9DF81D005FFA8AF2904255
S113106002BF9DF81E104FEA0A43B1EB136F06D17D
S11310700BF80500641C00984155AD1CEDB200F05E
S113108071F8DBDB761CF1B24945CDD3E0B278B11F
S113109004A8FF2102900091E4B20395019463A394
S11310A002220421092000F056FB00F076FE02E043
S11310B08B2000F077FE01200BB0BDE8F08FD8F84C
S11310C000100A689DF81900537998427047F0B5EA
S11310D0574D0400286885B001684E7929D04FF631
S11310E0F8718C4225D22146304600F0C8F8F0B1A0
S11310F0002700F03BF828B96A462146304600F044
S1131100D4F818B900F02EF8F3DBFF27F8B202F098
S11311102EFD50B91121684602F074FE6A4621463C
S1131120304601F057FC002604E0012602E08B263D
S113113000E087262A681079002818BF01280ED1FC
S1131140106840792146FFF74AFE0194009635A3C2
S113115003220421092000F0FEFA00F01EFE012003
S113116005B0F0BD7F1CF8B2032870476946F8B299
S113117002F0A4BC2DE9F8412D4C206889B0016827
S113118091F8058001260027FFF7F0FF002801BF32
S11311909DF8000003289DF8011088451BD1F8B282
S11311A002F0E5FC08B1002615E0112104A802F0C4
S11311B029FE9DF806009DF8051001EB002504AA00
S11311C0A9B2404601F006FC300018BF0126A9B2BE
S11311D04046FFF704FEFFF7C5FFD5DB2068026831
S11311E050790021FFF7FBFD86F00106F0B200F014
S11311F0D9FD01200AB0BDE8F08170B50C4E0D4652
S113120031680A680446507900F001FB30B1306857
S1131210036858792A462146FFF74BFE00F0C2FDC9
S1131220012070BD757600007576730075756200D7
S11312306C72032023E07FB5044602F08AFA054667
S1131240002600F018F8002804BF9DF800000328C9
S11312500CD19DF801108C4205D0FF2C04BF9DF8E1
S11312600D00854202D1F0B202F081FC761CF0B28E
S11312700328E6DB7FBD6946F0B202F01FBC7FB5F0
S113128004460D460026FFF7F6FF28B96A462946AC
S1131290204600F00AF828B9761CF0B20328F2DBE5
S11312A0002000E0012004B070BD30B51378032B9A
S11312B002BF5379CCB2A34208D19579B5EB112F73
S11312C004BF5178814201D1012030BD002030BDDE
S11312D02DE9F84F88B002F098FD08B1C620D6E099
S11312E0DFF8B852DFF8B8622868316804F036F9DC
S11312F004002CD0326851681068926913689847CA
S113130031688A69916802A8884732689169CA6815
S113131002209047002406E00968126900FB0410CB
S11313209047641CE4B2316803984B688A69B3FB44
S1131330F0F39C42F0D3D16800208847306881697B
S1131340486880473168286804F008F90446002793
S1131350DFF85062002C71D1DFF84C02DFF84C1238
S113136050F82790C85DD8B1286801AB6A46494651
S113137004F0FAFAB04208D000285FD1009801289E
S11313805CD02868494604F0BAFBDFF8240250F820
S113139027100A682868494604F02AFA04464DE0F2
S11313A0DFF81012DFF81032CA5DDFF8048207920A
S11313B04FF0000AD95D069105E00198079988422B
S11313C017D10AF1010A069882451BDA0AEB090BC8
S11313D0286801AB6A46594604F0C6FAB04208D000
S11313E00028EED100980028E7D02868594604F078
S11313F086FB079B58F827202868594604F072F9A1
S11314000400DED0DFF8B411C85DB8B1DDF818808F
S113141001E008F10108B8F17F0F0FD208EB090AC7
S1131420286801AB6A46514604F09EFAB04205D0E2
S11314302868514604F063FB0400EAD07F1C272F80
S113144088DBDFF87C011CB901210170002415E060
S11314500021002C0170F9D0DFF86801241A08D0AB
S1131460641E08D0A41E08D0241F0CBFC124C524A8
S113147004E0C22402E0C32400E0C4242968087CF8
S113148020B1D321DFF8400104F09CFB204609B0D1
S1131490BDE8F08FF8B50D46272D164620DADFF8A3
S11314A02021117881B1DFF8F420DFF8FC70146892
S11314B0DFF8F820515D41B1024657F82510204667
S11314C004F0DAF900B14AE0F1BD02467F2E57F884
S11314D0250008BF00268119204604F048F9F1E7E9
S11314E0B1F5807F04D301B0BDE8F04004F0C3BC83
S11314F0BDE8F44040F2011135E0F8B50646272E68
S113150015461EDADFF8B820107878B1DFF88C20A1
S1131510DFF894701068DFF89420945D3CB12A6879
S113152057F8261004F064F900B118E0F1BD7F29E2
S113153057F8264008BF00212A46611804F0D2F863
S1131540F2E7B0F5807F05D31A462946BDE8F84096
S113155004F0B2BCBDE8F4404FF49A7103E0BDE876
S1131560F24004F008BDDFF8600004F02BBBDFF8A4
S113157050201178002900D1704710B5DFF82830C9
S1131580064C53F820102068002204F0A7F918B183
S1131590BDE8104004F0EFBC10BD0000383F03204C
S11315A0583F03200BE000F034390600D039060020
S11315B0E03C0600203A0600483A0600F8390600E6
S11315C092BF032001E000F0BC1406002DE9F24FA5
S11315D0022940F39580190005D0BDF800100529B3
S11315E0F7DB42F004028246012618008AF8002044
S11315F005D08AF8013003261B0A8AF802304FF01E
S1131600000B0A9C00F042FB0AF80600761CB0B2FC
S1131610761C0AF80040DDF8309007E0BAB2414683
S1131620504404F0A9FCBE190BF1010B0B985FFAAE
S11316308BF1405C002865D0002500247328A04667
S113164034DC4C2859F8048B1CBF5328622811D170
S113165059F8047B4C2806D1BDB24FF6FF70854281
S113166036D0022434E0532832D1FDB2FF2D2FD0DE
S113167001242DE06C2804D1404601F07EFA871C39
S113168026E0732804D1404601F072FA471C1FE09B
S1131690A0F130010A2938BFA0F1300718D3A0F116
S11316A0410107292CD2A0F1370711E00027752842
S11316B008BF01240AD0762808BF022406D078285F
S11316C008BF032402D077281AD1042459F8045BF4
S11316D0B9B2BDF8000011FA86F10919884205DA99
S11316E00EE00AF80050761C2D0A641EE1B20029AF
S11316F0B0B2F6D1B9B2002996D0B8F1000F8DD1AD
S1131700002000E0B0B2BDE8F28F10B5354C206087
S11317103548018035490A60354A136010BDFEB56D
S11317200C46009309A9029113462F4E2D4F089D94
S11317303188019502463868FFF748FF00F001F848
S1131740FEBD2A492A4B0A6810804FF48A52196850
S11317504C80CA8070477FB50C4608A9009202915C
S1131760214D204E01930246298830680023FFF75B
S11317702DFFFFF7E6FF04B070BD38B51B4C25689C
S113178029880346174802681948006801B0BDE873
S1131790304004F06FBD0020EFE7144B114810B542
S11317A01C680268218812480068BDE8104004F0F3
S11317B0DEBC7CB501920D4D0A4A2E681468009473
S11317C00B4C3388226804F029FD76BD0022F0E733
S11317D0074800687047064A136818711068417119
S11317E0704700007C71032072AC032080710320D9
S11317F08471032080B501F047FDFF2805D002283D
S113180003D2DFF8EC17085C02BD002002BDE0B58E
S11318100221009101AB0022032100F0C9FC20B990
S1131820BDF8040010B1012000E00020C0B20EBDDC
S1131830F8B5069F00240025092F064602D3002090
S11318400021F4BDA4460DE0A7EB000EB6442D0222
S11318501EF8010C45EA1465002110EB04244D41E7
S11318600CF1010C5FFA8CF0B842EDD39D4206D81E
S113187028BF944203D2101B63EB0501F4BDA01AE8
S113188065EB0301F4BD10B50268DFF8681713882F
S11318900B8054884C8052790A7103681A794A7112
S11318A04FF48A53CB80026893799A06DFF848276D
S11318B044BF4FF48B53CB801378816939B9C08806
S11318C0DFF83817088003F0FD03137010BD43F0F0
S11318D00203137016228169DFF82447204604F0BE
S11318E0D9FF0022227010BD80B5002001F0EBFF6B
S11318F0FF2001F024FD01F0F4FF01F08FF901460F
S11319000122DFF8EC0604F0D5FFDFF8E836DFF853
S1131910F426DFF8F4065221FFF7F7FE05F00CF881
S113192005F0ACF805F0CAF905F0F5FA06F008F888
S113193006F043F806F06FF806F006F906F012F91F
S1131940BDE8014001F042BA06F038B880B506F0AF
S113195006FA20B907F0A2FF08B905F0DAFD01F094
S11319606AF8BDE8014001F073B870B5034600227F
S11319704FF6FF70DFF8944601E0521C92B234F83F
S1131980325085420CD09D42F7D1B3F57C4F06DB33
S113199004EBC2056E888E4201D00D00EDD11046D5
S11319A070BD10B50446FFF7E0FFDFF864160B883E
S11319B04FF6FF72904203D12246DFF8581606E034
S11319C0DFF8481601EBC000DFF84C164268BDE8AA
S11319D01040184600F075BFDFF84006006800B1FB
S11319E0008A704710B504462168487901F04CFC20
S11319F0FF281DD0DFF8281601EB0010217F027BA1
S1131A008A4215D1226840881188884206D04FF650
S1131A10FF7399420CD1B0F5004F09D22079022806
S1131A2018BF032806D111895079FFF703FC08B9C0
S1131A30002010BDA07B0028204602D008F040F80A
S1131A4001E008F06DF800B1012010BD7CB514462A
S1131A50227855074CBF052203229342DFF8C45570
S1131A6004D200922A46DFF8C01532E0089E069A96
S1131A7030603171F280B460B381207800F00100ED
S1131A80B0732178890801F00101F17301212078F4
S1131A90C00800F001007075F07B30B131751A4652
S1131AA0204601F042F8317D891C30824A1CC9B2BB
S1131AB03275605CB389B074501CD2B23075A15CCD
S1131AC0F174C4B2A34209D2C0B200902A46DFF82E
S1131AD05C15022000F0EFFE002076BD0798B0618F
S1131AE001F037FE3077012076BD2DE9FE4F8146A7
S1131AF00E4692460D9DDFF83875DFF838159B4683
S1131B003846202204F038FABDF83000DFF80C859E
S1131B100090029701955B46524631464846FFF7CE
S1131B2095FF0024002872D0C8F80070B97CDFF853
S1131B300825DFF808351170187800283AD008F025
S1131B405FFB0246DFF8F814022000F0BAFE3868A2
S1131B504188BA8900914379DFF8E814022000F043
S1131B60B0FE022000F068FE20B13868398A40884F
S1131B70FFF717FFF87B28B13A8ADFF8CC1402206C
S1131B8000F09FFEF87CBB7CDFF8C0140090B868BE
S1131B900278022000F095FE397DBA89B868521A9D
S1131BA00144012392B2022008F042FB7CA10220EE
S1131BB000F081FE3846FFF766FE384608F0E6FB83
S1131BC020BB2DBB042E18BF052E03D0022E18BF38
S1131BD0032E01D1012200E000223868F988019126
S1131BE00121438800930388F87C00F01EF990B12A
S1131BF03868817988060ED4DFF8544401212170B5
S1131C000022384600F0D2F800202070012430E091
S1131C10287D81072DD538684179FF2925D10026F3
S1131C20DFF8D05300F0FAFFF1B2814221D2F0B2D2
S1131C3001F02CFB8146F0B200F0F4FF98B1386853
S1131C4041883A8A484601F066FA60B13846FFF79F
S1131C501AFE386880F8059085F804903846FFF736
S1131C60C1FE00B10124761CDCE73846FFF7BAFE5A
S1131C70044600F0F5FE1621DFF8840302F0C2F8F2
S1131C800020C8F800002046BDE8FE8FDFF8C4132A
S1131C900878401C0870FFE700F07F007047DFF809
S1131CA058130A78002814BF42F0010202F0FE0221
S1131CB00A707047DFF8A0130870704780B1DFF82E
S1131CC098130978012904D1018841F04001018069
S1131CD07047022904D102884FF6BF710A4002807E
S1131CE0704778B1DFF874130A78012A04D1DFF859
S1131CF0702313780B7001E0022A03D1017841F0BC
S1131D00100101707047FEB5DFF8EC522B78D9074B
S1131D1001D50020FEBDDFF80413B64C096871B18B
S1131D2009688A79960603D5E28842F02002E280A7
S1131D3089794A0603D5E18841F04001E180B24A3D
S1131D4011784E07BC4947BF0F78D7700E7856708C
S1131D509B0709D5AB480188A94808F0FFFC2978FE
S1131D6001F0FD012970FEBDA44B1D8829464FF6E4
S1131D70FC76B14208D2019000922246A148038821
S1131D80002004F04BFAFEBD009013469D480288E3
S1131D902146284604F024FAFEBD0020B3E70000E3
S1131DA05D00000001469D480068002270B50446AD
S1131DB00E462079002818BF012815460BD1A068CB
S1131DC00178CA0601D5300005D0A07B002804BFE5
S1131DD0E07C0B2801D1002070BD8A4A00211180CB
S1131DE0607D00B90821E07B18B9084600F04EFE7A
S1131DF006E041F0040000F049FE208A00F055FEA0
S1131E00A07C00F043FE0B2000F040FEE07C00F0DC
S1131E103DFE304600F03AFE2046FFF734FD2846EA
S1131E20BDE870406FE70022C0E770B51D468D4BDA
S1131E30874E1C78012C01D0337813B10020307008
S1131E4070BD0B0002D10AB1002070BD002C1EBF72
S1131E50049C4FF657439C4206D003460A4621464B
S1131E60284600F086FD00B1012070BD38B5D28847
S1131E705224950648BF4924550548BF083C15051A
S1131E8048BF083C1204034648BFA41E0846032B5F
S1131E904FF6FD710ED8DFE803F00902060BC0B25D
S1131EA008F0AAFD02E0C0B201F002FE014601E022
S1131EB0641EE4B2084600F077FD241AE0B232BD95
S1131EC070B50C001646054608BF00260FD02078D2
S1131ED0FF2808BFFF260AD0204600F049FE8642AC
S1131EE088BF06463246611C681C04F0D3FC2E7081
S1131EF070BDF8B50C000546164603D10020687085
S1131F002970F1BD2078FF2804BF6078FF2802D132
S1131F1028706870F1BD204600F02FFE0746BE42CF
S1131F20B8BF37463A46A11CA81C04F0B3FC2F7076
S1131F303F126F70F1BD2DE9F041541E002B3ED0CD
S1131F40042A37DC00230026984614E0651B002889
S1131F5014BF10F805C04FF0000C571EA7EB08077C
S1131F604D5DFF000CFA07FC05FA07F74CEA030382
S1131F703E4308F101085FFA88F59542E6D3042A46
S1131F8010DAD5000120D2006D1E00FA02F252428E
S1131F9043FA05F1CC0748BF134346FA05F0C007DE
S1131FA048BF16439E4215DBB34203DA4FF0FF30BD
S1131FB0BDE8F0810020FBE7AE42F7DB5B1CDDB23D
S1131FC09542F7D2651B00280CBF0026465D4D5D87
S1131FD0B542F1DA0120EBE70021234A01E0891C34
S1131FE0C9B2535C8342FAD350184078704700005A
S1131FF0E8BE03208871032050BF03208EAC032069
S1132000707203206EB0032094710320A0E50500D4
S1132010E6BE0320ECE4050004E505006C72032031
S1132020347103207CE5050060E5050084E50500C6
S11320304C720320E0E50500EE4B0320EA4B03203D
S11320400CE5050014E5050034E5050040E5050050
S11320504CBF0320EF4B03204DBF03204EBF032092
S11320604FBF0320ED4B032000E605002838082865
S11320708041C00F704710B500F009F8FF2801D166
S1132080A32010BD002104F83010002010BD044628
S1132090084601F0F9B838B500F00BF8FF2801D173
S11320A0A32032BD294604EBC000BDE8344004F04F
S11320B073BC04460846154601F0E6B840B11C2836
S11320C00BD01D280CD01E2818BF1F2805D009E0EE
S11320D00B39102906D2002070471B29FBDB01E0D5
S11320E00929F8DB8A2070472DE9F84785B00F9F4E
S11320F0109D0E9C0295019706468A469046994685
S1132100009400F02FFC010003D0022803D002D376
S113211010E001200EE00CBF0120002000210491FA
S113212003900295019700944B464246514630462F
S113213000F04BFA06B0BDE8F08778B585B000240E
S11321400494012503959DF82C600A9C02960025B1
S11321501BE078B585B000F002F8402317E09DF845
S113216028600193002401250494039502960094A9
S1132170704778B585B001240025049403959DF833
S113218030600B9CBDF8285002960194009500F035
S11321901CFA06B070BD7FB5099C0A9D0294002606
S11321A0089C03950194009600F0E6FA04B070BD13
S11321B038B584B000F002F8402308E0089C01938D
S11321C000250395029400957047089C019400F043
S11321D0D3FA05B030BD2DE9F24F0024B1F57C4FA0
S11321E082B04FF6FF79A04605D301260196DFF8A9
S11321F0D8150E8801E00194012600258DF8010010
S113220093468DF8003021E0DAF80410AAB20C20CD
S113221042438F183888584511D30CB180450EDBE2
S11322203946504600F01AFE010008D039881CB126
S1132230414501DB484502D20124884681466D1C94
S1132240BAF80810A8B28842DED36D1CA9B2B14214
S113225014DA019848B1DFF8742502EB8100438851
S113226000F00FF800F06CFF03E000F00AF800F053
S11322707CFF0028E9D000258246E1E74846BDE816
S1132280FE8F9DF80020BDF808109DF801007047EE
S11322902DE9F84F84B09046DDF838901C46054689
S11322A08A464B4622460026ADF8006000F048FFFF
S11322B00700B3468DF80450ADF806A08DF8084029
S11322C0ADF80A80ADF80C904BD001A900F0D9FD0F
S11322D0002846D0ADF80280DDF83C90DDF840A03F
S11322E0BDF80080002415E0B1B249450FD200F0DA
S11322F0DCFBA87800F0CAFB5FEA0A0006D0287964
S1132300C10754BF0520072000F0C0FB761C08F16C
S11323100108641C3989A0B288421AD27868A2B232
S11323200C214A433B888518B3F57C4F09D2288891
S1132330ADF80A0001AA2946384600F0B8FD002885
S1132340E7D02888BDF802108842CDD20BF1010BEA
S1132350DDE71FFA8BF111FA86F01FFA88F1884243
S113236001D1012000E0002005B0BDE8F08F2DE987
S1132370F04F8FB000208DF81000DFF854A4DFF880
S113238054B404E09DF81000401C8DF8100000F0D7
S113239045FC9DF81010814280F0B08009010420B2
S11323A01AF80120DFF8301400F085FADFF82C1455
S11323B000F0CFF9002400E0641C9DF81010DFF851
S11323C020040901E2B2405801798A42DAD29DF828
S11323D01010DFF810344FEA011801680593142037
S11323E042438E18002722E0E87808E0A87800F03D
S11323F035FC0028F8D006A800F0BFFB801C82B290
S1132400012306A9042007F013FF30884946FFF78B
S1132410ACFA4FF6FF71884208D0DFF8CC23DFF81E
S1132420CC1352F83020042000F045FA7F1C318987
S1132430B8B28842C0D27068BAB20C214A43851837
S113244008F070FC287941062888DFF8A4134CBFF3
S11324505B46059B00900420328800F032FA29463E
S1132460304600F0FBFC814628B9DFF888130420CD
S113247000F027FA04E04A464FA1042000F021FAB4
S11324802879810748BFDFF8701305D4C1064CBF13
S1132490DFF86813DFF86813C00754BF47A048A0EB
S11324A001910090EB78AA78DFF85813042000F02B
S11324B008FA2879CDF8009041064CBF80234023C8
S11324C006AA002021210192039002912A883188D2
S11324D01AF8080000F050F9862804D1DFF8281310
S11324E000F037F9A2E7A87800F0B0FB00283FF429
S11324F07DAF06A800F03CFB401C80E70FB0BDE8B0
S1132500F08F2DE9FE498EB0199D052D45D3189CF9
S11325101E46174688468346029401960097434612
S11325205A46DFF8E81200F04DF804A9212005AA64
S1132530039102900192009433463A46414658462C
S113254000F01AF904002BD19DF81000212205A9EE
S113255008F01AFC040020D02D1FA5421DD33846D4
S113256000F0A3FA002000F091FA9DF81000A84DA5
S113257000F08CFA2E88C6F152018C4207DAA54B82
S1132580224605A9981904F085F9A6192E8000940D
S11325903B464246A04900F015F811B0BDE8F08969
S11325A0384600F082FA204600F070FA00943B4668
S11325B042469A49EFE7000025327800524F000066
S11325C052570000042000F076B92DE9F84F88B086
S11325D082460020129D049000900F469046994632
S11325E08DF814A0ADF816708DF81890ADF81A8017
S11325F0ADF81C500023002204A905A800F06AFCD1
S11326000498874A40B9CDF8048000975346854919
S1132610FFF7D8FF862099E01598A0B904999DF892
S113262050008B78984205D07F49042000F043F98C
S11326308D208BE00979C80705D47C49042000F07B
S11326403AF9882082E004980179139E480726D538
S1132650049988684168049802918168886804999B
S113266001908878FFF702FD83460498C1788DF8BD
S1132670001003290A465B4631461ED202A8FFF722
S11326805AFC04469DF800205B46314601A8FFF73A
S113269052FC012C1CBF4FF0FF3188421CD016980D
S11326A000284FD1049880784FF6FF72314608F025
S11326B06BFB040012D1012048E00298FFF73BFCB9
S11326C0012809D09DF8002001985B463146FFF7A8
S11326D032FC10F1010FE2D1872037E00396C0B23B
S11326E000F040F800F09FF901002FD10396E0B20A
S11326F000F038F800F023FB010027D101200090FE
S113270000233246002105A800F0E4FB01001DD19E
S1132710049B3A465146304600F09EFE029600F075
S113272022F804F011FF0396E4B29DF850000190E2
S1132730029400F011F800F075F900F00DF800F0C3
S1132740D9FA02E03A4900F004F8002009B0BDE8E3
S1132750F08F042000F0AFB800954B46424639464E
S113276050467047029000954B469DF850000190EA
S11327704246394650467047F0B585B01C460A9E1D
S11327800B9D0C9B002701978DF80800ADF80A10EB
S11327908DF80C40ADF80E20ADF8106000972A4675
S11327A001A902A800F096FB040005D10D9840B1E0
S11327B001998A78027004E0892802D11D49FFF743
S11327C0C8FF204605B0F0BD8AE60600A8D705007C
S11327D03471032018D80500B8D70500C4D7050004
S11327E03C71032020D80500A4E50500B0D70500FE
S11327F004D8050028D8050048D8050050D805009D
S113280058D8050030D8050060D805006CD80500FC
S11328106EB0032094710320C4D80500A0D805002D
S113282018D90500F0D8050024D9050038D90500C9
S11328304CD905006CD905004FF6FF729042014651
S113284008D0000A01D0002070473B48027811EA02
S1132850020000D001207047020A07D1364A1378DB
S1132860002914BF184323EA00001070704710B504
S1132870830800EB5374C108E4080122A0EBC400F0
S113288002FA00F000EB012080B210BDF8B5044656
S11328900D4616461F46FFF7CFFF58B13A4631465C
S11328A0202008F0EBFB1DB120A1202008F0DEFB66
S11328B022480480F1BD0CB480B50A4602AB012164
S11328C004E00CB480B50A4602AB0021FFF7DEFF3A
S11328D001BC5DF80CFB2DE9FC410024184DDFF828
S11328E0648013A713A6A0B2FFF7C1FFFFF7A4FFEC
S11328F0002814BF304638460090224658F8243049
S11329002946202008F09DFB202008F002FC641CCE
S1132910042CE8DBBDE8F381FF220121064803F023
S1132920C9BF054800210170704700000D0A00006E
S11329306E6F000059455300EC4B0320E6BE0320A4
S113294040E10500DC3D032080B5FFF790FFBDE8C2
S11329500440012180E780B5FFF789FFBDE804400A
S1132960002179E70120704701207047012070475A
S113297070470020704700207047002070470020F7
S113298070470020704700207047012070470120E5
S11329907047B52070470020704700207047002022
S11329A07047002070477047002070477047002030
S11329B07047704770478420704770470020704705
S11329C07047704700207047704700207047704779
S11329D000207047704770470120704700207047FF
S11329E0704700207047002070470348016808784A
S11329F0012808BF02207047E871032000207047B7
S1132A004FF6FE72C28101218181016100220270B0
S1132A100120704700207047704770477047704727
S1132A200020704770470020704700207047002046
S1132A307047002070477047B520704700207047EA
S1132A40002070470020704770477047B5207047DA
S1132A507047704700207047704770477047704751
S1132A6080B53D490020087008F004FC3B4A108002
S1132A7052213B4801F0C6F93A4900200880002160
S1132A8039480022002380E80E0001BD10B5354905
S1132A900A88522A07DA324CA054521C0A8092B295
S1132AA0A018401E10BD002010BD38B50546C0B2A8
S1132AB0FFF7ECFF0446280AFFF7E8FF002C18BFD5
S1132AC0002801D0204632BD002032BD2DE9F0415E
S1132AD0244D2E880C46A04608EB060152290CDA38
S1132AE01F4F01462246B81903F0D4FEA4192C80C6
S1132AF0A4B2A4EB0804381900E00020BDE8F0817A
S1132B0030B504460020CD18AA4208DA30BD51FA87
S1132B1083F222445B1E12F8015C05EB0020DAB25A
S1132B20002AF4D130BD0423EAE780B50223FFF77D
S1132B30E7FF80B202BD034691420C4800D37047C0
S1132B4010B55C5CFF2C08BF00240C19641CA24265
S1132B50A8BF581810BD000050BF03208EAC03203E
S1132B60947103206EB0032088710320E4BE032017
S1132B700078FF2808BF0020704780B5022200219A
S1132B80FFF7D3FF4FF6FF72904208BF002002BD4B
S1132B907FB5DFF8182ADFF8180A13680088DFF811
S1132BA0142AADF8060003A9DFF80C0A0568DFF85B
S1132BB00C0A0088ADF802000B600020DFF8001A50
S1132BC00988ADF8000002AC0220ADF804101070C2
S1132BD025600021DFF8EC0903AE0DF10604DFF8EF
S1132BE0E829655C02EB011202AC157036F811306D
S1132BF0538034F81130938001AC0DF10203655C0D
S1132C0095715C5C00EBC405956001251DF80140DD
S1132C101473491C02295573DFDB7FBDDFF8940967
S1132C2000787047DFF8A01901EB0010407B00F03A
S1132C3001007047412818BF422803D0432818BF19
S1132C40442801D10120704700207047412818BF53
S1132C50422801D10120704700207047432818BF43
S1132C60442801D10120704700207047F8B515466B
S1132C701E46069A079B044600F062FA60B10421DE
S1132C8000F0EBFB070007D0204600F021FE32469F
S1132C9029462046B84795E0F1BD2DE9FE431400CE
S1132CA01CBF0A9D002D064688461F4620D0FFB152
S1132CB028780C9B0107618820794CBF4022802230
S1132CC000F03EFAA0B1082100F0C7FB814678B1BC
S1132CD0207900F0FDFD9DF82C00019000953B4605
S1132CE0224641463046C847BDE8F74300F0F9BDE7
S1132CF0BDE8F783F8B51646069C1A4605462346F2
S1132D0000F01EFAD0B121000BD1022100F0A5FB86
S1132D10040013D0284600F0DBFD31462846A047C6
S1132D200BE0102100F099FB070007D0284600F0C3
S1132D30CFFD224631462846B84743E0F1BD2DE990
S1132D40FC411746089C1A460646234600F0F8F94B
S1132D5008B9862016E000259CB9202100F07DFBEF
S1132D60804670B10A9C099D304600F0B1FD0B9875
S1132D70009023462A4639463046C047054600F0AF
S1132D80B0FD2846BDE8F681F8B50446A56820786C
S1132D9000F09EFD002611E02868F1B21422514390
S1132DA0471820783988FFF7E3FD0121384600F001
S1132DB054FB01001CBF20788847761C2979F0B2A7
S1132DC08842E9D3BDE8F14000F08BBD38B500245A
S1132DD0DFF8E0570AE0DFF8F007210600EB1150B6
S1132DE0427BD10748BFFFF7CFFF641C2978E0B2CC
S1132DF08842F0D331BD5CB585B00A9C8DF80800DB
S1132E00ADF80A108DF80C30ADF80E2000260196AE
S1132E10ADF8104000960023002201A902A800F09A
S1132E2059F8019807B050BD10B5002301E0001D0A
S1132E305B1C9CB28C4204D204889442F7D1408833
S1132E4010BD002010BDDFF88417401A0C2290FB3F
S1132E50F2F292B20021DFF87807E5E70288B2F5D2
S1132E607C4F28BF00F002B80846ECE7DFF864178F
S1132E70401A142290FBF2F292B20021DFF85807B4
S1132E80D2E710B50C460188628891420DD1037BCC
S1132E902279134209D0B1F57C4F04D3FFF7E6FF42
S1132EA02189884201D1012010BD002010BD10B538
S1132EB014460A88E3889A420AD10288B2F57C4F04
S1132EC004D2FFF7CBFF2189884201D1012010BD34
S1132ED0002010BD2DE9F74F82B004469A46002524
S1132EE0002704E08068C1886D187F1CFFB2DFF8FA
S1132EF0C4160A78974280F0D380DFF8CC06237892
S1132F0000EB071002789A42ECD181680091407B73
S1132F10C107EAD54FF0000804E0B9F80A002D18FB
S1132F2008F1010800990A795FFA88F09042DCD22E
S1132F300A685FFA88FC142010FB0CFC02EB0C09F5
S1132F4021464846FFF79DFF0028E6D04FF0000BCE
S1132F5007E0307910F0300F04BFF0782D180BF132
S1132F60010BB9F808101FFA8BF08842D8D2D9F8AF
S1132F7004001FFA8BF20C214A438618224631467C
S1132F804846FFF794FF0028E3D0274603983446C9
S1132F9000B104602079810611D5DFF830060021E4
S1132FA005E00279930644BFC27889180C30A04228
S1132FB0F7D3DFF8280689B200EB010B04E0DFF851
S1132FC02016ADB201EB050B0E9E049D3046CEB12A
S1132FD021464846FFF742FF02462388798838781D
S1132FE0FFF7C4FCA846E8B12079C10625D5002E18
S1132FF02146484618D0FFF731FF00F055F8FFF797
S1133000C6FC4EE0002D4CD021464846FFF726FF73
S11330100246238879883878FFF7A6FCD84600282A
S1133020AB46E1D17E203CE0FFF718FFE178019147
S113303000F03AF8FFF7A9FC33E0A0785FEA0A0150
S113304008BFE178412818BF422808D043280DD191
S11330508A1E92B241465846FEF74BFF1EE04A1EB6
S1133060D2B241465846FEF72BFF17E04428EFD072
S11330703EB95FEA0A0004D0E078824538BF89206F
S11330800FD3E178B8F1000F03D1584608F052FB92
S113309004E00A464146584603F0FCFB002000E0E9
S11330A0862005B0BDE8F08F00950346798838780E
S11330B0224670472DE9F843054689461746984647
S11330C0002603E0217B0A0615D4761C2979F0B288
S11330D088421DD22868F2B214235A4384182088E7
S11330E04845F2D1390006D0802FEBD0402FECD1E7
S11330F0217B4A06E9D5B0F57C4F07D32046FFF77C
S1133100B5FE404518BFB8F1000FDED1204600E0FF
S11331100020BDE8F28380B5134607E080B513466E
S1133120402204E080B51346802200E0002200F033
S113313007F800B1012002BD80B500234022F6E764
S113314070B50C4615461E4600F09EF8FF2801D1C6
S1133150002070BD2146DFF8704404EB00103346B4
S113316080682A46BDE87040A4E70023E8E770B50C
S11331700C4615461E46002100F02FF8022800DAFE
S1133180E8E7002070BD1346402201E00022FAE780
S11331902DE9F84F82468B4690469946FFF7D0FFBB
S11331A0002608B9FF2016E00027DFF81C44DFF8EA
S11331B0045408E04B4642465946FFF7D8FF00B195
S11331C0761C7F1CFFB22878874203DA3901605CE1
S11331D05045EFD1F0B2BDE8F28F70B50022DFF8B0
S11331E0E83300E0521CDFF8CC432578AA420BDA1E
S11331F014011E5D8642F5D10D0003D01C44647B8E
S1133200E507EFD5D0B270BDFF2070BD80B50021B9
S1133210FFF7E3FFFF2801D1002002BD00F061F8B1
S1133220407B00F0010002BD70B50E46044600214B
S1133230FFF7D3FFFF2801D1002070BDDFF888130A
S113324001EB00153200687B00F0010114BF40F06F
S113325001000020B142687314D076B12846FFF70C
S113326093FD0FE00068142251430844027B018857
S1133270D209204603F0F4FB761CA8680279F1B267
S11332809142EFD3012070BD0121A6E7DFF8381386
S11332900001085C7047F8B50C46FFF7F5FF0146DE
S11332A00020FF291FBFDFF8202302EB01118968EA
S11332B0002915D0002214270DE01B0608E00D6834
S11332C0D6B27E43AB19451C1B7B2600F5D05B06AA
S11332D048BF2846521C0D79D3B2AB42EFD3C0B2DB
S11332E0F2BDDFF8E41201EB00107047F8B50C46AC
S11332F01546FFF7C9FF0021FF281ED0DFF8C832AA
S1133300002203EB00134FF0140C01E0491C521C83
S113331098680779D6B2BE420FD200681CFB06F645
S113332030442F00067B02D0760602D4EFE737063E
S1133330EDD5CEB2A642E9D1F2BD0020F2BD002106
S113334009E010B50446012100F005F82046BDE867
S1133350104007F01AB82DE9F84F86B0804600F007
S1133360F8F99449DFF860920A78059004924FF0D6
S1133370000A07E009EB0010017B059881420FD099
S11333800AF1010A04995FFA8AF0884261DAB8F115
S1133390FF0FEFD04046FFF777FFFF28824658D053
S11333A04FEA0A6000244FEA105B00E0641C09F154
S11333B00800E1B250F80B000279914246D201684C
S11333C0E3B214204343CE1840F22D1132898A42CD
S11333D0A8BF07F0A7FC00270CE00328ACBFAA682D
S11333E005F10802012000900023002101A8FFF745
S11333F071FD7F1C3189B8B28842D7D27068BAB2E5
S11334000C214A4385182B79D906F2D419F80B20DC
S11334108DF804203188ADF80610287941064CBF98
S1133420802140218DF8081030462988ADF80A1013
S11334302946FFF713FDADF80C002979E8784A070F
S1133440CBD5AA680328CDDB1268CBE7B8F1FF0F10
S113345096D007B0BDE8F08F704730B5047B0122E9
S113346000230C4205D1002030BD144218BF5B1C60
S11334705200D5B28D42F8D30069DBB250F8230074
S113348030BD5849401A8003020C00215648CBE451
S11334902DE9F84F05460024487D4FF6FF79A246F2
S11334A035B108B9022507E0012804D1012503E05C
S11334B008B9082500E004250026934698464948A3
S11334C000EB86073988594516D1FB782B4213D077
S11334D0B878404510D30CB182450DDBD9060BD525
S11334E03846FFF7CEFFB9781CB1514501DB48459A
S11334F002D201248A468146761C362EDFDB4846FA
S1133500BDE8F28F2DE9FE4F00270028487D4FF0DB
S1133510010806D008B9022407E0012804D10124D7
S113352003E008B9082400E004240D9EDDF83CB053
S1133530ADF80020B9468A4601932A4901EB890572
S1133540BDF800102888884223D1EA78224220D08E
S1133550A9789DF8380081421BD39AF80F00D2064F
S113356008D5B0B12846FFF78CFFBAF81010814295
S113357001D00EE068B9BB4513D0BDF830008742D6
S11335800FDA0198A978C1557F1C3288521C328009
S1133590BFB209F10109B9F1360FCEDB4046BDE8EF
S11335A0FE8F4FF00008F9E70000000034D4050056
S11335B082E6060047BF032038D4050086E60600ED
S11335C084E6060098D7050034710320CCD50500A5
S11335D0ACD70500F8D60500A8D705005471032020
S11335E05C6F0320F0D40500C8D505002DE9F04236
S11335F07D4E7E4C002030703821206800F002FCA3
S11336007B4933782268087838256B43D0540022EC
S113361030782168684308444270307821686843F0
S11336200844827008F0A0F8327821686A430A449A
S1133630107208F099F8327821686A430A4450728B
S1133640317820686B4A6943014410786A4AC8702B
S11336503378216817686B43C818684947610A784A
S113366002763078D4F800C0654A1268074615FB24
S113367007F30CEB0301CA61624AD2F800902C22D2
S1133680574309EB07020CF13407FA5008F07EF8AF
S11336903078216801F1340215FB00F551594A686C
S11336A00968BDE8F04208F0F6BA80B592B06A46FF
S11336B00021002008F0C7FC08B1012018E052499D
S11336C0524A0A910B925249524A0C910D9210910E
S11336D05148524A5249534B09900F9211910E93FB
S11336E06A460021002008F0D4FB00B10120C0B2DA
S11336F013B000BD80B5002000F01AF828B10020F6
S113370000F005F808B1002002BDFF2002BD3748D3
S1133710354A0168137838204343C8188078022852
S11337201CBF1128432801D1012070470020704795
S11337302E482D4A0168137838204343C81840782E
S113374001281CBF0228032801D101207047002052
S11337507047002070470020704770470020704772
S11337600120704770470020704770477047002061
S1133770704780B500F020F820B10020FFF7D8FF93
S113378000B1012002BD80B500F016F808B1002098
S113379002BDFF2002BD10B5044600F00DF848B18B
S11337A000F019F84078012818BF022802D10CB99A
S11337B0012010BD002010BD0020A8E780B5FFF750
S11337C0FBFF30B100F007F84178032901DA00204B
S11337D002BDFF2002BD0548034A01681378382062
S11337E04343C81870470000C3BF0320EC450320BF
S11337F01D4C03201E4C0320F4450320144C0320CD
S1133800F8450320F0450320EB3E010075B10100AB
S11338109D3A010061420200C33D0100337601007C
S1133820D7B00100933C01000021002008F0DFBC68
S11338307047002818BF08F0CFBF704707F076BF65
S113384007F011BE33B585B005468DF8042005F0A8
S11338507FFF0446284605F08BFF7CB10028BDF8A5
S113386018000FD106F01CF98DF80000FF2804BFE2
S113387000218DF80010CDF808D016E0A8B106A8F4
S1133880029012E006F00CF98DF80000FF2804BF46
S113389000218DF800109DF80000BDF818108DF877
S11338A00C0003AAADF80E100292DDE901010A46EC
S11338B00146284604F05EF907B030BD0C490D48B6
S11338C008600020704700B17020704700207047E6
S11338D080B500F013F8FF2801D1A32002BD002019
S11338E002BD00207047704700BF0348007870474E
S11338F0E871032088E606003471032080B5FFF7E1
S1133900C3FCFF2818BF002002BD002101707047CE
S1133910007800B10120704709F07AB803F03CB890
S113392003F048B81FB502460C460D23162168461D
S1133930FDF7B0FD0D226946204602F0ABFF20786A
S113394040096073217801F01F0121701FBD38B553
S113395084B004460D460D22684602F09BFF9DF894
S11339600010687B41EA40118DF800100D236A466F
S113397021461620FDF7C1FD05B030BD2DE9FF41FC
S113398080460027DFF86C44DFF86C541DE02068A3
S1133990FEB230F81620424516D16946F8B200F05E
S11339A08DF89DF8000002280ED06946F8B200F0A8
S11339B085F8FFF7D8FE9DF80D10814204D12268E6
S11339C04FF6FD7022F816007F1CF8B22978884261
S11339D0DDD3BDE8FF812DE9FF4789464FF6FF7A25
S11339E0D145804607D100F0C1F920B909F015FB93
S11339F004B0BDE8F0870026DFF8F873DFF8F84379
S1133A0010E0D1450CD035F81600484508D14FF6E2
S1133A10FD7225F8162003E025F8169009F0F8FB4E
S1133A20761CF6B22078864214DA396831F816002A
S1133A304FF6FE729042F3D269463046FFF772FFAA
S1133A403D6800F02FF80028DBD1D145E4D135F8EA
S1133A501600CDE75046CBE72DE9FF47804689465F
S1133A600027DFF89843DFF88C53DFF88C6313E00A
S1133A7028685FFA87FA30F81A204FF6FE739A42E4
S1133A8009D26946F8B2FFF74DFF00F00BF810B900
S1133A90206800F80A907F1CF8B231788842E7D396
S1133AA0BDE8FF87082241460DF105000AF06CB815
S1133AB0DFF840130A6832F81000704710B5DFF8D9
S1133AC038331C78A04201D3692010BDFFF72AFFC8
S1133AD0002010BD70B504460D4623460022A5A162
S1133AE003200AF061F829780029204602D1BDE8B4
S1133AF070403CE0C0490A78904201D3692070BD0F
S1133B0009F0DFFF08B1752070BDFFF72CFE687364
S1133B10681D07F065F8060018BF01264FF6FF710F
S1133B20681DFFF758FF024629783346204600F007
S1133B3006F829462046FFF70AFF002070BD30B57D
S1133B404FF6FF740D0008BF224608D0032908BFB2
S1133B504FF6FE7203D0A24208BF4FF6FD72A5498C
S1133B600C6824F81020A54A11680B5430BD38B5F0
S1133B7005462C4684B0234601227EA103200AF088
S1133B8013F89D490A782846904228BF692019D223
S1133B9009F097FF08B1752014E069462846FFF73D
S1133BA0C1FE9DF8000030B100218DF800102846B8
S1133BB06946FFF7CCFE8F490A684FF6FF7022F87A
S1133BC01400002005B030BDF8B584B006460F4699
S1133BD0884C894D00E0761C2978F0B288421ED2C8
S1133BE02068F2B230F812304FF6FE708342F2D100
S1133BF06946F0B2FFF796FE9DF80500F9B28842D7
S1133C0004BF9DF80600B0EB172FE4D1FFF7ABFD1E
S1133C109DF80D108142DED1F0B205B0F0BDFF2059
S1133C20FBE72DE9F04F85B00D46DDF838B0714F54
S1133C30DFF8C481ADF8000091469A46002607E0FB
S1133C40386830F81410BDF8000081422CD0761C7E
S1133C5098F80010F0B2884228D23868F4B230F8EC
S1133C6014204FF6FE739A42F1D201A9F0B2FFF785
S1133C7059FEB9F1000F07D19DF80500504504BF66
S1133C809DF808005845E2D1FFF76DFD9DF811102D
S1133C908142DCD1002DD3D008220DF10901284640
S1133CA009F072FF0028D2D1F0B200E0FF2005B085
S1133CB0BDE8F08F10B51446FFF734FE2046BDE88A
S1133CC0104008224E4902F0E5BD2DE9F843804634
S1133CD00846154684B01C4600F048F808B1002098
S1133CE041E00027434EDFF8109100E07F1C99F873
S1133CF00010F8B288421ED23068FAB230F81210BE
S1133D004FF6FF739942F1D06946F8B2FFF70AFE05
S1133D100C220DF1010108F1010009F035FF002822
S1133D20E4D1F8B2FF2808D10026FFF71BFD55B1F6
S1133D302EB100200CE0FF27F6E70126F5E7404608
S1133D4007F0DCFA04E0002EF8B203D007F00BFB16
S1133D50012202E007F007FB00220C990870227090
S1133D60FFF704FD012005B0BDE8F08308222449D3
S1133D7009F00ABF4242000038B584B000241E4D49
S1133D8016E06946FFF7CEFD9DF80000042806DB27
S1133D9000218DF80010E0B26946FFF7D8FD9DF8C8
S1133DA0001000234FF6FF72E0B2FFF7C8FE641C58
S1133DB02978E0B28842E4D305B030BD38B584B088
S1133DC002220BA1032009F0EFFE00218DF8001060
S1133DD00024094D03E06946FFF7B9FD641C297806
S1133DE0E0B28842F7D3FFF7C7FF002005B030BD2B
S1133DF04200000008460320184C03200C46032010
S1133E0068AB0320002209F0D9BE00207047704738
S1133E10416C40691439C21CB2FBF1F200EBC200E0
S1133E20C01CB0FBF1F0801C704738B504460D4649
S1133E30FFF7EEFF616C143901FB0050ED1DB5FB7B
S1133E40F1F1491C00EBC10032BD10B504466169B3
S1133E50FFF7EBFF6169626C0818C91D143AB1FBE6
S1133E60F2F1491C00EBC10010BD10B50446FFF788
S1133E70ECFFA169081810BD80B5FFF7F6FF001D1F
S1133E8002BD10B5436CCA1D143BB2FBF3F4641CB1
S1133E90006B01EBC4018842FFE78041C043C00FBF
S1133EA010BD084470470268406C41435018704785
S1133EB00268406C891AB1FBF0F07047406C401EF8
S1133EC0C04301400240914201D1012070470020CB
S1133ED07047F0B585B005460C46002600E0761C18
S1133EE0E869401E86420ED2002C14BF641E0446AC
S1133EF0214600F0EAFE00F061F800F0C8FD09F088
S1133F0078FF0028EBD056E0426C501E0140501A56
S1133F107047406C401E08407047F0B585B00446B9
S1133F20FFF7C6FF0546002600E0761CE069411E47
S1133F308E4211D2691CB1FBF0F500FB151501F09E
S1133F400DFEE36B5F6905226946B84700F09FFDEB
S1133F5009F04FFF0028E8D001F000FE09F059FFF6
S1133F6005B0F0BDF0B5054685B0EE6AA86A002438
S1133F7086421DD16968EC69142000FB14141AE010
S1133F8031462846FFF794FF014600F09EFE00F0FC
S1133F9015F800F07CFD012806D031462846FFF7CD
S1133FA0B8FF696C09190C1A314600F0ADFF0646DA
S1133FB0A86A8642E4D1204605B0F0BDEB6B5F6988
S1133FC0052269463847F8B50D4604462E460027B3
S1133FD001E03F1D361D3246294600F041F848B144
S1133FE0E36B00F061FA3046E047009810F1010FEE
S1133FF0EFD000273846F2BD10F1020F01D10120A5
S1134000704700207047C0F31301814201D10120A1
S113401070470020704790F84200012801D16420C5
S113402070473220704790F84200012801D10220E5
S113403070470120704770B504460D46561998081C
S113404006EB800613F0030F18BF361D2A4600F056
S113405006F810B901F069FA0646304670BD3146DB
S113406020462BE72DE9FF4F05460FF23840DFF8D5
S1134070F06B016891B02846129A0C911169FFF710
S113408000FF002808BFDFF8DC0B00F03081E86A8D
S113409007900146304609F09BFF12980169129877
S11340A09DF85020DDF81CB003910027C1680D91E4
S11340B00024022AA146A046A2468DF8094011D147
S11340C00398CC2803D0DFF8A01B0091BDE19DF834
S11340D04C0028B11299284600F093FF069001E0A5
S11340E00968069159462846FFF70EFF0190039888
S11340F0792802D21298C17D01B101219DF84C00AA
S113410048B11298EB6B406800F0CEF9E04768467E
S113411009F03FFF0146002919BF08210B91042231
S11341200B92039879282BD2039901988DF80840B3
S1134130091D884202D20398F8B904270420059087
S113414012980168039A9DF85000316032619DF81D
S1134150081009F057FF307559462846FFF7D4FE7A
S1134160014603980028059810D03F188F420FD3BA
S1134170286B411A002729635BE101980828DCD9E0
S1134180012108228DF808100592D9E78142EFD366
S1134190039A0027091A914288BF11460491CDF869
S11341A020B058460599FFF77CFE8346049803998E
S11341B088420CD00120F07503993069814203BF15
S11341C04FF00108089870604FF0020806E0B8F15B
S11341D0000FF07D18BF4FF0030898B1307E06EB56
S11341E0C0010898C86106F12001327E049821F8C4
S11341F03200317E06EBC10282F82280307E401C00
S1134200307601E008987060049904988A44002884
S1134210CDF840A000F0F1809DF85000022875D13F
S11342209DF80900002840F0E880BAF1040FC0F0BE
S1134230E480EB6B9C69012206A95846A047040060
S113424040F0FF8001208DF80900CDF804809DF82E
S11342500800049B327D0090129801680EA809F0B2
S11342601AFEEB6B059A08989C6992080EA9A04760
S1134270040001D008980C90C4E0002C00F01081D8
S1134280FB6BF86A9D69A2085946A8470546F86A77
S11342902146FFF706FEF862386B041B3C6307F106
S11342A0080009F0F6FE00F0D3FB0146F86B09F0B4
S11342B01EFD384600F0D0FB3846FFF753FE386346
S11342C03DB1D9F810103846FFF7DBFD002840F067
S11342D0C180CDF84890CDF830803D4612990969E7
S11342E02846FFF7CEFD00287FF4D1AE009815B024
S11342F0BDE8F08FB068E862129801689DF850300C
S1134300726805F1080009F009FFEFE79DF84C0019
S113431088BB0D99049A0A919008DA46019200909C
S113432012D0EB6B0A999C6902465046A04704469A
S11343300A98009900EB8102019900980A92A1EB76
S113434080010AEB800A019184B9019870B14FF0A1
S1134350FF3100916846019A0A9901F00DFEEB6B5A
S11343609C69012269465046A04704460D98049969
S113437001440D9141E08A4603E0AAF1040A0BF1DD
S1134380040B129842680146C87D28B90B99494428
S11343901046FFF786FD1AE00B460B9948460024A9
S11343A003E0641CA0EB0C00E4B293F818C064456D
S11343B00ADA03F1200E3EF834C06045F1D203EB73
S11343C0C4024018D469221812930B911046EB6B67
S11343D05C6901226946A047009901910991012273
S11343E0EB6B9C6909A95846A047BAF1040F09F17F
S11343F00409044601D9002CBFD0002C3FF425AF9A
S1134400CDF830B0049B059A08992846FFF713FEAF
S1134410B060049A296B0598D21C091A9208A1EB82
S1134420820129636CB903990498DDF840A0091A44
S11344300391594600F068FD8346039800287FF4F1
S11344408BAE002C00943FF455AFDDF84890DDF8B6
S113445030802F4607993846FFF72AFD054629463E
S113446000F0F7FA09F0D5FC8346F96A3846FFF7FD
S113447054FDB96A88423FF42CAFF8623846B168FB
S1134480FFF742FD396B081A414638633846079CEA
S1134490FFF70EFD8246AA45A4EB0B043FF4EDAEF4
S11344A0002500E700000000D3F814C0012269468B
S11344B070472DE9F84305469846686940450E461D
S11344C0914638BFDFF82C0A37D300248DF800401A
S11344D000E0641C2846FFF7B8FC296B81423CBF0E
S11344E0286AB4EB400F03D200F029F80028F0D07A
S11344F09DF80000012801D100F021F8089C032C4C
S113450006D041462846FFF790FC296B814212D31E
S1134510DFF8E4794FF0FF31384609F059FD3E6089
S1134520C7F81080C7F80C90234600223946284665
S1134530FFF798FD01E0DFF82C07BDE8F2830022C5
S11345406946284600F036BC2DE9F94F85B08B4604
S113455010981099D0F8048002931546086998427F
S113456041D2DFF8980994E001A809F013FD04464C
S1134570042C4CD101A809F015FD064621464046FD
S1134580FFF78FFC82469DF84400002853D1AE42C9
S113459046D20027AD1B3C46A6080ED0059BD3F897
S11345A03CC0DCF814303246594650469847A4EBD8
S11345B086040AEB860A0BEB860B64B1059BDE6B63
S11345C0736901226946504698472246694658460F
S11345D001F0D2FCA3440298C71B059802974146F8
S11345E0FFF79BFC80460298002852D0059BDC6BA9
S11345F06369012201A94046984701A809F0C5FC56
S113460010990A689042AFD0DFF8F40841E0059BA6
S1134610DF6B7B69022203A94046984703A8AAE7F7
S1134620AA440698751B854288BF05462F46C11BC0
S113463000250691AFE73746B946059E4FEA99042F
S113464011E0F36BFFF730FF5046E0470422694660
S1134650584609F099FAD0B9641EA9F104090AF17F
S1134660040A0BF1040B002CEBD1B9F1000F0596F1
S11346705046B0D0F46B63690122694698474A46B4
S11346806946584609F080FA08B9CB44A3E7DFF835
S1134690740807B0BDE8F08F2DE9F04F9A4607463D
S11346A085B0FB6B884616465D697068012202A9D5
S11346B0A847FB6B5D69012201A94046A84702A8EF
S11346C009F050FC00244FF0FF3520B10020B075F4
S11346D07075B560F6E001A809F057FC0121B175C9
S11346E006F12003327E06EBC201C1F81C80317E44
S11346F023F831407168884506D1306001A809F07B
S113470063FC3075B5601EE03168884218BFB4752B
S113471001A809F059FC317D884218BFB47501A87D
S113472009F037FC054602A809F033FC854218BF9E
S1134730B47501A809F02EFC054602A809F02AFC6C
S1134740854218BFB475307D04281CBF052806288F
S113475002D10020B075B5E001A809F01AFC38B107
S1134760FB6B5D69022203A94046A84703A800E049
S113477001A809F017FC317D022902D003290CD0CD
S113478006E006F12000317ECC2220F8312004E03E
S113479006F12001327E21F83200307D09F03EFC22
S11347A00E99087001A809F0E5FB06F12201327E9A
S11347B001F8320006F12000317E00EBC100B0F8B0
S11347C00090857801A809F0E4FB834601A809F06C
S11347D0E1FBBBF1000F00900AD0FB6BD3F814C0CF
S11347E0022203A94046E04703A809F0A5FB02E022
S11347F001A809F087FB7075707D00B9B475B07DB0
S113480000283DD0B9F1000F12D000994046FFF7BF
S113481048FB8346424659463846FFF74FFB00B9EA
S1134820B07559463846FFF76FFB484538BFB47535
S1134830B07D28B315B9F07D50B90EE00121F175B2
S1134840707E18B9012D03D1717606E0012D01D1D6
S1134850012402E0032D08BFB176B07D80B11CB104
S1134860012D18BF002D06D0009A4B46414638460C
S1134870FFF7E1FBB060B07D10B1306948443061AE
S1134880DFF88C1C307E0A78904239BF401C3076A9
S11348900020B075BAF1000F1CBFB07D002810D005
S11348A0F07D70B16CB9032D1CBFB16811F1010F1B
S11348B007D00E980090012332463846FFF7ECFEED
S11348C0B075B07D05B0BDE8F08F38B50C46002555
S11348D025760093134661682246FFF7DDFE28B172
S11348E0E07D08B1A07E00B10120A075A07D32BD9D
S11348F02DE9F84F88B007468946904600261D46A4
S1134900ADF800604FF0FF31404609F061FB4846C6
S1134910FFF779FBC0B10DF10202494607F1080027
S113492009F0DCFB10F1010F0ED00146404609F0FE
S11349304FFB6B46012241463846FFF7C6FF18B1CC
S11349409DF80000287001264846FFF755FB20B962
S1134950002E77D1387C002876D0F96A11F1010F46
S113496004D1796A3846FFF7B4FA02E03846FFF713
S11349709FFA82464846FFF73FFB401E8041C00F26
S11349800190786A824504BF01218DF8011000F07E
S11349905FF8FB6BD3F814B00446052203A9D8478B
S11349A003A809F0FEF909F024FA204609F031FAC7
S11349B0CDF808908146019CDFF8A4B201901EE076
S11349C04946584609F004FB6B46E2B2594638465C
S11349D0FFF77BFF88B1002C1EBF0298DBF80010A4
S11349E088420AD19DF80000DFF8281B2870404651
S11349F00A68594601F0C0FA0126DBF8089019F15B
S1134A00010F06D0019A49463846FFF757FA0028A5
S1134A10D6D1DDF80890019451463846FFF759FA8B
S1134A2082469DF801003043ABD06EB14846FFF793
S1134A30EAFA38B12B78D8F80420494607F108007F
S1134A4009F06CFB002001E0DFF8940C01F08AB857
S1134A5051463846FFF727BA78B5044685B000209A
S1134A60206200250DE001F079F8E36B00F028F9ED
S1134A7000F00DF809F0BDF910B1206A401C206265
S1134A806D1CE0698542EED3206A06B070BD6846AD
S1134A9009F087B9F0B585B00446002500261BE06F
S1134AA0314601F05CF8E36BD3F814C007460522E5
S1134AB06946E047FFF7EBFF09F09BF958B1384628
S1134AC009F0A7F901462046FFF77DFA616C143915
S1134AD0884208BF6D1C761CE0698642E0D32846F4
S1134AE005B0F0BD2DE9F84304460D46A66ADFF88B
S1134AF0747C90469946E06A864218BF16F1010F0D
S1134B0020D03146384609F063FA6B460122394613
S1134B102046FFF7DAFE30B19DF800204B463946B7
S1134B202046C04770B1BE6816F1010F03D1796801
S1134B3000F0FCFC0646012DDDD17A68FFF78FFA00
S1134B400028D8D1BDE8F1832DE9FC41089D2868EF
S1134B50032A1446064618D0DFF89C736B463A467F
S1134B60FFF7C6FE686080B928687968826AFFF733
S1134B70A5F950B1287A01280DD13A69E86871691C
S1134B808218914207D200212974287A01280CBF87
S1134B90287C012028E02868816AFFF789F980468B
S1134BA02868C16AFFF784F980450ED1F16A30465E
S1134BB0FFF7AFF9326B716C521A801830632868B2
S1134BC0816AFFF7AAF92968C86223463969E86847
S1134BD008310818E860012228683946FFF742FACC
S1134BE000286860D1D00020BDE8F6812DE9FC41A1
S1134BF01746032F05460E461C461BD0DFF8F882E5
S1134C0031686B464246FFF773FE606090B900F06E
S1134C1097FE0FD0D8F80400716888420AD1227A2E
S1134C20E0683169012A0BD16A6943189A4207D2B4
S1134C3000202074207A01280CBF207C01200CE085
S1134C4008310818E0603B46012231462846FFF748
S1134C5009FA00286060EDD00020BDE8F68100006C
S1134C607086032006E000F023E000F078B585B0FC
S1134C7005460C46FFF717F9EB6B00F021F8FFF738
S1134C8006FF09F0B6F818B1684609F062F815E0B5
S1134C9021462846FFF71DF90646314600F015F86F
S1134CA0EB6B5D6905226946A847684609F051F82F
S1134CB010F1010F02D0B44238BF401C06B070BDE1
S1134CC05E69052269463047696A2846FFF7EBB8F2
S1134CD038B504461546FFF7E6F80146E06B04F1E3
S1134CE040032A4609F097F8054600F01BFC2846C5
S1134CF032BD38B50D46032A0446194608D1049836
S1134D00826AFFF7DBF818B12946204609F0D0F98A
S1134D10012032BD7CB50D460446164629686A4614
S1134D2004F1080009F0DAF9032E04BF6968884227
S1134D3004D1296804F1080009F0BAF9012076BD0C
S1134D402DE9F841054685B06F6A4FF6FF7087423A
S1134D5006BF0124002700248846002626E03946A1
S1134D602846FFF783FF024612F1010F08BF4246AF
S1134D70521C10E03946FFF7A8FFEB6BD3F814C0C0
S1134D8005226946E047FFF782FE022807D0002C7F
S1134D90E5D008F1010239462846FFF799FFE96991
S1134DA0781CB0FBF1F701FB1707761CE869864213
S1134DB0E0D3D8E1F0B505468FB01446286BAA6B52
S1134DC0904288BF10460E46A8632846696AFFF7DA
S1134DD06AF8EB6BD3F814C00746052205A9E0472F
S1134DE005A808F0DEFF0128307042D0FFF76CFF01
S1134DF0EB6BD3F814C005220AA9E0470AA808F00F
S1134E00D0FF012808BF002461D000210191039143
S1134E10012200958DF808408DF81020A96AE86AEF
S1134E20814208D100F070F8E862296B686C091AB5
S1134E301431296310E0287C38B96A46DFF81C1B5A
S1134E4005F1080009F012FA06E06B46DFF8102BB2
S1134E5001212846FFF746FE019840B99DF810004D
S1134E6028B1FFF731FF0146E86B08F04FFF019CC2
S1134E702DE0287C38B92A46DFF8E81A05F1080045
S1134E8009F0F4F906E00023DFF8502B012128464D
S1134E90FFF728FE696A2846FFF7E8FE421C696AA4
S1134EA02846FFF715FF040004D1696C286B1439F8
S1134EB0081828632846A96AFFF72FF8A862014654
S1134EC02846FEF7F5FF68622846FFF74BF8EB6BC0
S1134ED038465F69052205A9B84705A808F061FFAF
S1134EE03070A96B286B884288BF0846A8630FB04E
S1134EF02046F0BD0FE000F04486032011E000F0EE
S1134F0022E000F012E000F02846FFF706B838B5BA
S1134F1090F8420001280CBF022004200C46002512
S1134F2011461D704143E07D091D20B900F01AF8B7
S1134F300831606811E000F015F80023002002E059
S1134F405B1C891ADBB2227E93420ADA04EBC305A6
S1134F502A8C9142F4D2E8690831BDE83440FEF766
S1134F60A0BF32BD11F0030F03D0890801208900CE
S1134F70187070473EB51C4605466B46FFF7C7FFE1
S1134F8005F13C010B68897901290DD15B69012286
S1134F9001A998479DF8000010B10198000C0190F8
S1134FA0019880B2206037BD5B6901222146984791
S1134FB037BD3EB505466B46FFF7A9FF55F83C3FA4
S1134FC00446A879012816D15B69012201A920466B
S1134FD098479DF8000001990028029814BF60F3D7
S1134FE01F4160F30F01019120462B689C69012247
S1134FF001A9A0473EBD9B69012202A9204698470A
S11350003EBD2DE9F84185B080460020019008F1AD
S11350103C040E4608217068FEF743FF23685F696D
S1135020012201A9B847002734E010F1010F30D064
S1135030102202A900F03CF902999DF8000009022F
S1135040B0EB116F25D1029880B2019940180190FC
S11350501FE0FEF7E0FF401E874216D200F086F8FC
S113506002AB2A4600F084F810208DF800002022BC
S113507002A900F01DF90398010402BF000C9DF879
S11350800010884201D1029801904046FEF7CBFF00
S1135090C7197F1C4046FEF7BEFF874262D2A07943
S11350A00128404627D1FEF7B6FF801E874205D26D
S11350B06B4600F05CF80098010627D000208DF8BC
S11350C0000002AB00F053F8A07901280298ACD19B
S11350D04FF6FF718842DCD0082202A900F0E8F8FC
S11350E002999DF800000904B0EB116FD1D1029828
S11350F000F0FF00A9E7FEF78EFF401E8742DDD2D5
S11351006B4600F034F800980104D7D1A0797D1CD7
S1135110012840469DD1FEF77EFF801E8742B4D20F
S113512000F024F802AB2A4600F022F804ABBA1CC3
S113513000F01EF808208DF80000102202A900F0EB
S1135140B7F8102204A900F0B3F80398010602BFCF
S1135150000A9DF80010884297D10298049900EB48
S1135160014091E7019806B0BDE8F08103AB3A46EF
S113517031464046FEE62DE9F647814682B099F86D
S11351804200D71A01264FF6FF7A01280CBFFF20F0
S11351905046B842884604D24846FEF744FF461CAF
S11351A0F6B24846FEF737FF0546002403E0010443
S11351B008BF641C641C4846FEF72DFF844214D2C9
S11351C06B46224641464846FFF7D4FE99F8420012
S11351D00128009805D1504506D00006EAD1A41C48
S11351E0E8E710F1010FE2D125464846FEF713FF28
S11351F0ECB2001BB04248D3012E1AD10021019712
S11352008DF8001099F84220012A08D1082200F0F4
S11352104EF89DF80000019B43EA002307E01022AA
S113522000F045F89DF80000019B43EA0043224644
S113523028E00398019099F84210012906D108202A
S113524000F032F89DF800301B0205E0102000F059
S11352502BF89DF800301B04224600F022F899F840
S113526042106D1C0129EAB20AD168B9019B9BB2B4
S113527000F017F86D1C38B9019B1B0CEAB201E071
S113528010B9019B00F00DF840B102200090CC232E
S1135290D8F8001003AA4846FFF70BF904B0BDE89C
S11352A0F0874146484684E68DF80000202201A993
S11352B0684608F0FFBF80B513464A68096808309D
S11352C008F02CFF012002BD2DE9F04F04468BB0FD
S11352D04FF6FF7060624FF0FF35002020622063BC
S11352E08846A562E56204F1080008F0D2FE00F0E9
S11352F019F910B300271AE0394600F030FC00F029
S11353000BF906A808F04DFD0128064602D008F066
S113531078FD58B139462046FFF7A8FC012E08BF96
S1135320401C024639462046FFF7D2FC7F1CE06948
S11353308742E1D300F0F6F828B941462046FFF74A
S1135340FFFC00F0EFF8002800F0D8804FF6FF7063
S1135350A8460026606247462662B14620E04946D8
S113536000F0FDFB00F0D8F806A808F01AFD83460B
S113537006A808F0EEFC8246584608F03AFD68B1EB
S1135380206A401C2062C24538BFC4F82490BA4544
S113539098BF5746B24528BF5646D04609F1010981
S11353A0E0698145DBD3F71B012F15D94FF6FF7058
S11353B060624FF000080CE0414600F0D0FBE36B64
S11353C05F69052206A9B84706A808F0C2FC08F1DF
S11353D00108E0698045EFD3616A4FF6FF708142AE
S11353E000F0898000F0BBFBE36BD3F81480052246
S11353F001A9C04701A808F0ACFC616A00F0AFFB4A
S113540008F007FDE562A0626B46DFF860572A46A4
S11354106FF0010100F02DFA00280CBFAD68A56AF9
S1135420E56229462046FEF7CEFD206318B9E16AFD
S113543000F07CF8E06200F078F88046254610E041
S113544041462846FEF7BFFD0446286B2018286312
S11354504146FFF759FD80461CB900202863C5F872
S11354602C80A86A8045EBD12C462046E16AFEF7E1
S11354701FFD014600F073FB2046FEF7C9FC0546FC
S11354802046FFF707FB8046A84527D2616A2046DD
S1135490FEF71FFD074600261BE0464513D3394699
S11354A000F05DFBE36BD3F814C08146052201A92B
S11354B0E04701A808F04DFC0246E06B04F140030C
S11354C0494608F0A8FC39462046FEF702FD074687
S11354D0761CAE42E1D3DFF8980615E004F108002B
S11354E008F0D7FD0023DFF88C2600212046FFF7C3
S11354F0F9FA002504E0DFF8805601E0DFF87C5675
S11355002046FFF7C7FA28460BB0BDE8F08F00002D
S11355101EE70600D4EC0500E36BD3F814C00522A3
S113552006A960472046FFF797BA29462046FEF7AA
S1135530F4BC38B504460D4608F0DCFEE16BCA68DD
S11355402846BDE83240104780B501460020C96BAB
S1135550CA689047BDE8014008F0D4BE2DE9F04187
S11355600546DFF81C0606680C460021002D016084
S11355704AD005F134073878F0B1216828688142AF
S113558002BF61686868814213D1A168A86881423A
S113559002BFE168E86881420BD1216968698142F0
S11355A002BFA169B868814203D16169A961002081
S11355B08DE0DFF8D0058AE0D7F804805021284632
S11355C0FEF720FCC7F804802068286061686960E1
S11355D02069686105F108006169A961E268A16850
S11355E008F055FDA069B86005F14000A1698A681A
S11355F0904728B9386918B16968B1FBF0F000E048
S11356000020E861F87B10B9DFF87C055FE03869B9
S113561000281CBFE969002928D02968B1FBF0F2F1
S113562000FB1211002901BF6968B1FBF0F200FB15
S11356301210002818BFDFF8540548D12846FEF799
S11356401BFC6968DFF84885814238BF40463ED379
S1135650686941F20101884201D2CC2802D2DFF804
S1135660340534E03869B0F5007F02D2DFF828054C
S11356702DE003212846FFF75CFFBA6869682868B3
S113568013689847B968CA680446022090476CB901
S113569031462846FFF718FE0446DFF8D404844256
S11356A004D131462846FFF70FFE04463E69143EF6
S11356B03CB92846FEF7E0FB296A4E43864208D2ED
S11356C04446002038702846FFF73EFF2046BDE8D8
S11356D0F081012038706968286808F019FEF2E743
S11356E00BE000F02DE9FF4104000E4617469846F2
S11356F008BFDFF8940430D094F8340010B9DFF810
S11357009C042AE0C6F31300B04227D100F02CF821
S1135710DFF88C5402AB2A4600F0AAF8002801BF37
S11357209DF808000128286940450AD1012101910A
S113573000954346002239462046FEF705FF050042
S113574008D00120009043463A4631462046FEF7F1
S1135750B0FE054600F0C8F9284646E0DFF84404E8
S1135760FBE700009C86032002212046E1E62DE9A8
S1135770FF4104000D461646984608BFDFF80804AA
S113578033D094F8340010B9DFF810042DE000F0A1
S11357909DF81BD10121FFF7E8FFDFF8047402AB89
S11357A000F0D7F905001DD19DF80800012813D198
S11357B0386940450DD100210191009743460022EC
S11357C031462046FEF7C0FE05460BE0DFF8D40361
S11357D00BE0DFF8D45305E002280CBFDFF8CC530C
S11357E0DFF8CC5300F080F9284604B0BDE8F0811E
S11357F0F7B504000E4602D1DFF88C03FEBD94F821
S1135800340010B9DFF89403FEBDC6F31300B042B0
S113581015D1FFF7A9FFDFF8887301AB00F027F873
S1135820050003D19DF8040003280BD10221009147
S1135830CC2302AA31462046FEF73BFE0FE0DFF8F8
S11358406403FEBD02280CD100F044F8034602981C
S1135850984208D0024639462046FFF78CFC05469C
S113586001E0DFF8505300F03FF92846FEBD3A4608
S113587031462046FFF73CB8F8B504000D461646FD
S113588000D161E094F8340000B960E000F01EF843
S113589012D10121FFF769FFDFF804736B4600F0B2
S11358A058F905000CD100F04BF809D0022804D1B6
S11358B000F010F8306005E04CE0DFF8F85201E049
S11358C0DFF8EC5200F010F92846F2BDC5F31300DE
S11358D0A842704739462046FFF793BBF8B5040049
S11358E00E46154600D12FE094F8340000B92EE09E
S11358F0C6F31300B04219D1FFF736FFDFF8A072E8
S11359006B46FFF7B4FFA8B900F01AF812D00228CA
S11359100DD1FFF7DFFF03465E1C324639462046B1
S1135920FFF729FC07463DB12E6005E012E0DFF8E1
S1135930847201E0DFF8787200F0D6F83846F2BDE0
S11359409DF8000003287047DFF83C02F2BDDFF841
S11359504C02F2BDDFF84C02F2BD0000494B0000DE
S1135960ED4B0000F34C00002DE9FC4104461E46BB
S113597000200D461746306014B9DFF80C021FE012
S113598094F8340010B9DFF8140219E0FFF79EFF11
S113599018D10121FFF7E9FEDFF804826B46424685
S11359A000F0D8F8050015D1FFF7CAFF12D002287D
S11359B00BD1012139600420306000F095F82846AD
S11359C0BDE8F681DFF8DC01FAE700203860D8F89A
S11359D01000F1E7DFF8D851EFE70000154D0000A3
S11359E010B50298037E032A0CBF012200229A42BA
S11359F012D10268914224BF43688B420CD342699E
S1135A00C368521C426102699A4205D2846844F810
S1135A1022100169491C0161012010BD7CB51D469D
S1135A200C46032A2A7E0CBF01210021914222D177
S1135A3021682B68994224BF6E688E421BD3DFF81D
S1135A402C616B463246FEF753FFA0B9FFF778FF8F
S1135A5011D07068616888420DD16869E968401C9A
S1135A6068612869884206D2A968226841F8202022
S1135A702869401C2861012076BD2DE9F04387B0D8
S1135A8004001ABF94F83400002800208946154603
S1135A90984626D00F9E0E9F0121FFF766FECDF893
S1135AA0008001970021CDF8089003950491059199
S1135AB08DF81860207C38B96A46DFF8FC1004F1D0
S1135AC0080008F0D3FB05E06B46DFF8F020204621
S1135AD0FFF708F8002D0CBF059D049D00F004F8A5
S1135AE0284607B0BDE8F08320462DE53EB5069D67
S1135AF000950024FFE70194FFF7BFFF3EBD3EB5CC
S1135B0004000D4601D120483EBD94F8340008B984
S1135B1022483EBDFFF7DAFE14D1FFF725FE01ABA4
S1135B201F4A00F017F878B99DF8040003280BD039
S1135B30032100910023002229462046FEF7B9FCE8
S1135B40054602E017483EBD194DFFF7CDFF284634
S1135B503EBD3A4629462046FEF7CABE294620469F
S1135B60FEF7A1B909B0BDE8F08F00004486032018
S1135B7013E000F0B752000016E000F003E000F07C
S1135B8060AC032008E000F009E000F001E000F060
S1135B9002E000F005E000F004E000F007E000F0AF
S1135BA0188603200AE000F011E000F00CE000F099
S1135BB00BE000F00DE000F0E15900001D5A000078
S1135BC042DE704738B504460D4608F0DAFE05F0AB
S1135BD0A9F809F0B7FD2946204609F0B9FD2B467E
S1135BE022466C49012005F099FA29462046BDE871
S1135BF03440E5E768482DE9F843684E0168B1652B
S1135C004FF42068026A6649F2650B683366496896
S1135C107166426AB266816AF166C26A3267016B72
S1135C207167806B96F83810B06748074CBF346CC6
S1135C30F46B09F0AFFE002232658442594B0146F1
S1135C4024BFA3F12007A742A146716506F1900283
S1135C50DFF854C1DFF854E118D3A0697064E46933
S1135C60B464B56DC5F30805062D13D1704511D381
S1135C7060450FD200884DF64264A0420AD1706894
S1135C80B4685060946040F2017803E000247464C6
S1135C90B46481464648814202D2014600E0091DAF
S1135CA00846984203D20C68B4F1CD3FF7D041497D
S1135CB0081AF0640021002006F17C04C5B2401CDF
S1135CC0C7B244F82510062FF8D3002099452CD2EA
S1135CD053F8041D7145F9D36145F7D2CC07F5D5C6
S1135CE0002406F17C0555F824708F4202D0641C10
S1135CF0062CF8D3062CE9D1C4B2002C0CBF052025
S1135D00401E06F17C04C5B244F82510DEE7F16FAD
S1135D10002306F17C0506EB8304D4F8804045F8A3
S1135D2023405B1C042BF6D911600146481EC9B2FE
S1135D300029ECD1B06DC0F30800032810D004286A
S1135D4011D0052812D0062813D00C2817D01228F9
S1135D5018D119480268910719D540F2025816E083
S1135D6040F6012813E040F6022810E040F603282C
S1135D700DE0B8F5206F0AD140F6042807E040F69C
S1135D80052804E018B1432838BF40F607284046E8
S1135D90BDE8F283BC06060004ED00E0000000202C
S1135DA000E300E0983C03201AC805002403000027
S1135DB09C000020983C03201C200540BCB50446F0
S1135DC04BF2346710467F2808BF0020B9421A46B8
S1135DD041F2F01517D108237F2241F202016846EF
S1135DE000F049F808225D49684607F0CDFE28B95D
S1135DF008237F222946684600F03DF80099216077
S1135E0001996160B3BDA94217D155490868496831
S1135E1000237AB3DDB25B1C6055521E000ADDB26A
