S02C00006E63702D7370695F65667233326D67317032333266323536676D34385F62726434313531612E733337FB
S1134000B86100200D320300C5A60000452D030051
S1134010A70A0A010041000004180FAC206A0B0132
S1134020000000000000000000000000000000008C
S113403000000000903803000000000000000000B1
S11340400000000000000000FFFFFFFFFFFFFFFF74
S1134050FFFFFFFF007003000000000000000000ED
S1134060FFFFFFFFFFFFFFFF100000000000000044
S1134070000000000000000000000000000000003C
S113408000000000000000008C7F00208C7F0020D6
S1134090B8610020D7520300923203005858002020
S10F40A0642D002000000400000000005B
S1134100B86100200D320300C5A60000452D030050
S11341105DB50000492D03004D2D03000000000093
S11341200000000000000000000000000F44000038
S1134130512D0300EF42000057570000DF6E0000CE
S113414051B70000254B0200DD6200003146020039
S1134150634B02002B4B02002D4B0200274B020045
S1134160D95F0100456201002DAA000017840000F8
S1134170592D0300592D0300332F0300592D03003B
S1134180592D030053620100592D0300592D0300DA
S1134190592D0300592D0300592D0300592D0300F7
S11341A0592D0300592D0300592D0300654B0200BE
S11341B0294B0200EB3D0100994B0200592D0300ED
S11341C039310300592D030000420F48816B89B235
S11341D001B1012141F67132826346F21A32036859
S11341E043F001030360C2644FF480734360426987
S11341F0D307FCD40022C264C9B203685B085B0025
S1134200036001B182630020704708000E40000083
S11342102DE9F84F8046DFF87C90FF2224214846A0
S113422000F048F8DFF870B0FF224FF4957158465B
S113423000F040F819481A4F1A4C00904FF0240A25
S11342400026A25D1849BD5D885D521C02EBD27246
S1134250521000B11932154830F816100098D21CCB
S11342606A4300F06EF8012D1CBF2BF816A0AA4477
S1134270761C242EE5DB24234FF480524FF4B061E6
S11342800B4800F05EF849464046BDE8F44F00F0A4
S1134290CCBA00BFE4680020FC690020943203001B
S11342A084350300603503003C350300F434030017
S11342B0B032030062F30F2262F31F4200B500BF65
S11342C0130096469446103928BFA0E80C50FAD83B
S11342D05FEA417C28BF0CC048BF40F8042BC907E3
S11342E028BF20F8022B48BF00F8012B00BD7047FF
S11342F03D49087070472DE9F041160088463A4C54
S11343001CD0A078677865683F1AFFB2F1B2B94251
S1134310B8BF0F463A464146281801F00DFAA37873
S1134320FB18F61BA370B844F0B238B1A11C2846A0
S113433001F0AFFA0028E4D0012000E00020BDE83D
S1134340F0810EB430B5284D04462878A0B0B0B141
S113435001F08DFA98B18021684669706860022185
S113436001F08BFAA87023AB224600211F4801F00C
S113437083FB6868A91C01F08CFA00B9A87020B00E
S113438030BC5DF810FB1A4800210022002380E8AD
S11343900E007047164931F81020521C21F81020E5
S11343A070470CB480B502AA01F09CFC01BC5DF816
S11343B00CFB0D4A1178A1B9010018BF012810D0D7
S11343C0042818BF05280CD0312818BF332808D07A
S11343D037281EBF3B284FF6FF71884201D00120C9
S11343E07047002070470000A4750020F7420000C9
S11343F0AC750020302818BF322806D034281CBFE2
S11344003628382801D00020704701207047FEE785
S113441030B5DFF8205ADFF8204A2B882468C01A08
S113442004EB4004002004E034F8103021F810308C
S1134430401C9042F8DB002030BDDFF8F839DFF88B
S1134440F8191A880968801A01EB4001022001F06A
S113445067BDF8B504460F461646DFF8DC59F0B2DE
S113446018B34FF6FF70ADF80000002017F8011BD9
S1134470C3B2401C0DF80310761EC1B2022902DA41
S1134480F1B20029F2D1DFF8ACE92868BEF80030B7
S11344901FFA84FCACEB03030122694600F0F2FD31
S11344A0641C0100DBD000F0C9BC0120F2BDF8B5EA
S11344B004460D461646F0B288B1012200F010F809
S11344C0641C0020C2B2401C1DF80230761EC7B224
S11344D0022F05F8013BEEDAF1B20029F2D1F1BD69
S11344E06946A0B294E70146DFF8780BDFF8782B31
S11344F0405C525CDFF8743B595C09B102F5997277
S113450040EAC21080B2704710B5DFF8583BDFF8BC
S1134510602B1C5C012C1CBF32F81000081802EB45
S1134520400010BD70B590B005460C464FF6FF76BE
S113453004E0A8B2FFF781FF203D2035A9B28C42E8
S11345400DD3202200F0EDFF002082B23DF812309E
S1134550B342EED1401C81B22029F6DBEDE710B066
S113456070BD10B5044661882088FFF7DBFF012188
S1134570DFF8002BDFF86C3CA1712088117841181A
S1134580188801EB4001891DA18010BD2DE9F0437D
S11345900446DFF8E00A0778B946B9F1060F85B09A
S11345A003DD40F2DE2100F0FBFB0021A1717A1C47
S11345B0208892B201A9FFF72BFFBDF804104FF633
S11345C0FF76B14218BF00290CD00DF10408711A0E
S11345D038F81900884205D101251EE0BDF8041001
S11345E0884219D02046FFF7BCFF05B0BDE8F08330
S11345F038F815000028F1D1DFF8901C0A882088CB
S113460012FB052141186A437118101889B280B24F
S1134610FFF788FF0221A1716D1C4D45E8DBA079ED
S11346200228E2D02088381800F073FBBDF802009D
S1134630000B4845D6D120883818401D00F06AFB8D
S1134640BDF80210BDF80200711A000A01F0FF0162
S11346508842C7D10320A071012220883F187F1C03
S11346606946B8B2FFF7D4FEBDF80000FF2802D1B6
S11346700421A171B9E7B042B7D00028B2D1B4E7A0
S11346802DE9FE4F0646DFF8EC09DFF85C8BDFF816
S113469000AC8B460178ADF80810012234880C195F
S11346A0641DFFF71DFFDFF83C1BBDF80000B1F8E7
S11346B00090641C000AADF8000048451CBF0121AD
S11346C08BF80010002519E0401CC1B2494513D2F3
S11346D0C7B23AF81710BDF806209142F4D1C0B21F
S11346E0FFF701FFBDF804304FF68072104013400D
S11346F0984208BF08F807506D1CADB2BDF8000021
S1134700854206DA022201A9FFF7EBFEA41C002071
S1134710DBE7002001E0401C80B2484516DA18F8B7
S113472000108142F7D001208BF800000EE021F840
S113473017A00BE00128DFF83819F8D07F2D31F8E5
S1134740170008BF0025281821F810A0A1B270880E
S1134750C01E88424FF6FF7551DB00F061F8BDF8CA
S11347600200FF27A8424AD0601C00F095FEBDF865
S11347700200BDF806102A1A91424CD104F1030A32
S1134780040A00F07F05BDF80000844243DA0020EB
S113479000E0401C484504DA18F80010A142F8D1A2
S11347A0C7B23088BDF80830181800EB4400801DEB
S11347B0012201A980B2FFF72BFEBDF80400C0F36B
S11347C0C710401C00EBD0700AEB60047088A1B2E3
S11347D0884220D3FF2FB9D0DFF88808C05D7F2D31
S11347E014BF2946002181429DDABDF80210DFF88A
S11347F07C28D35D0906C90F99429BD093E7B48006
S11348007088A1B2884209D300F00AF8BDF802000A
S1134810641CA842F4D001218BF80010BDE8F78F86
S113482001220DF10201A0B2F2E52DE9F84F84B0A6
S1134830DFF80016DFF85C7A0A88DFF8A819DFF8D9
S1134840405C8DF80000ADF806203A80DFF8480A95
S113485002887A8008880C88BDF80610DFF83C2AA4
S1134860ADF80A00DFF80C0890F80080464671188D
S113487001EB4401891DB9800020B871DFF8201ACA
S113488008883881301800EB44001188DFF8142AB6
S11348907981801DB8810020B873DFF80C1A08886C
S11348A03882301800EB4400801D1188B882798268
S11348B00020B87501F0A9FB002840F00A81287097
S11348C00021B971B973B87507F1080107F1100037
S11348D0E860A9606F603846FFF758FE07F10800EA
S11348E0FFF754FE07F11000FFF750FEB979B87BCB
S11348F0DFF8449504293DD100220428ADF80220B4
S11349007AD13846FFF72DFE00F000FA00F0FBF9EB
S1134910384607F1080110370122A9606860EF608A
S11349209DF800100A4318BF01228DF800200122CF
S113493000883018801CA91C80B2FFF769FD9DF81F
S11349400000002840F0C8806868DFF824876946C2
S1134950FFF796FEDFF82C0B0788A86881790329F6
S113496040F0AC806946FFF78BFE6A68DFF8F40616
S1134970002199E0B97D04282BD100200429ADF849
S11349800200BED03846FFF7ECFD00F0BCF9B7F8E2
S113499008C000F0C5F9002880463DD10320B87353
S11349A0B879032849D1B87B032802D1B87D0128FE
S11349B062D0B879012849D1B87B032853D1B87D96
S11349C0012818BF03289CD107F1080007F1100142
S11349D056E004292AD10020ADF802003846FFF73A
S11349E0C0FD00F093F9B7F810C000F099F98046C3
S11349F090B90320B87519E0B87D0428C1D000F03F
S1134A0085F900F080F9B7F800C000F089F9804614
S1134A1010B90320B8710CE0404601F00CFBB8F16A
S1134A20000F03D040F2D23100F0BAF9B87903286C
S1134A30B6D1B87B0128B6D1B8E70228B9D1B87B82
S1134A40032804BFB87D0128BDD1BDE7032804BFF6
S1134A50B87B0128B7D1B87D03280BD107F110002A
S1134A60394608370CE0022812BF0128B87D032814
S1134A70A9D1F3E70228A6D1384607F10801103777
S1134A8000224AE7BDF80A30994202DA435C012B5E
S1134A9009D138F81130B2F800C0634524BFB2F828
S1134AA002E09E450AD2491CB942EBDB0220907118
S1134AB0A9686868EA686960AA60E86000204FF63F
S1134AC0FF7200E0401CB84206DA38F81010914238
S1134AD0F8D101208DF80000687828B10121002068
S1134AE08DF80010687015E09DF8000068B96868DA
S1134AF00088301800F00DF9BDF80200C0F303106F
S1134B00012808BF8DF8000004D09DF8000000289B
S1134B1000F0EF804D2001F08EFA6888401C688018
S1134B20E868FFF71EFD9DF8000000F04EF900282C
S1134B3052D0DFF8B0060188E868ADF80A100188A1
S1134B40761806EB4404A41DA4B2002600E0761CEB
S1134B50BDF80A00864280F2C380DFF81015885D34
S1134B608DF8010000273FE0BDF80410F8B20143BE
S1134B70ADF804104FF6FF72DFF8BCB2BDF80400C4
S1134B80BDF80680121ADBF80000ADF80820A4EB8B
S1134B90080100EB4100BDF802104FF6FF72641CDF
S1134BA09142A4B240D1012201A901F0E4F901002B
S1134BB047D100F061FA010043D1A41CA4B2DFF88C
S1134BC0A804DFF8201BAAF80040825D51F82610E3
S1134BD02046FFF73EFC002800F08980DFF8080B30
S1134BE0815D6418A4B27F1CDFF8780410F8068095
S1134BF0F9B24145ABD2F0B2FFF786FC8246BAF86F
S1134C000000ADF802009DF80100C00140EA062052
S1134C10B8F1010FADF80400A6D1BDF8040040F0CE
S1134C207F00ADF80400A5E7DFF83C14895D491C5A
S1134C3001EBD1714FEAC159012201A901F09BF99D
S1134C4001004AD100F018FA010046D1A41CA4B214
S1134C50AAF800409DF80100E0B1002128780391F2
S1134C6030B103AA0DF10201B0B201F0D2F905E0AE
S1134C70BDF80210F0B200F058FC0390A4EB080356
S1134C80DBF800004FEA196203A900F0FBF9010008
S1134C9023D1A3E74FF0000A01E00AF1010A5FFA09
S1134CA08AFBBBEB196F99DA28780028BDF802005B
S1134CB004D000F022F801F0AAF903E000F01DF896
S1134CC0FFF7A6FB5C480068A344ABEB0803012292
S1134CD003A900F0D7F90100DFD001F0ACF906E038
S1134CE0E86884809DF8000000F0D0F908B901203C
S1134CF000E0002005B0BDE8F08F411CADF80210C3
S1134D00012203A9704707F110002AE407F1080003
S1134D1027E4C01C01220DF1020180B2FFF778BB29
S1134D20BDF80630D9F80000C4440CF1010CACEB1A
S1134D30030301220DF1020100EB430001F01BB952
S1134D40F8B50D46DFF89C1417467F2F0A8808BF74
S1134D5000271E4695423EBFC24B595D8F42044612
S1134D6004D2C14A535D9E4200D11CB940F266612F
S1134D7000F016F839462846FFF7C6FBDFF870192D
S1134D800388485D28B11946284600F0CEFB206010
S1134D90F1BD324621461846BDE8F840FFF787BB0F
S1134DA00FF67C1001F09EB938B50446084611464A
S1134DB0FFF7AAFB1F4D0388DFF8381928880A6813
S1134DC01B1A02EB4302226031BDF8B5DFF8B016BE
S1134DD0194CDFF8BC54002814BFC8688868A5497A
S1134DE000880A788618B61DB6B2002701E0B61C02
S1134DF07F1CDFF8F00301888F4217DAF8B2FFF75F
S1134E0072FBADF80000B3B235F81700DFF8E8C85C
S1134E10BCF800E0ADF80200A3EB0E032068022208
S1134E20694600F02FF90100E1D007E00120F2BD4E
S1134E3000000000DC4F0300FC61002001F0FBF8DF
S1134E400020F2BD2DE9F24F84B000218DF803104B
S1134E504FF00C09DFF8A458BDF81010DFF8A06873
S1134E60DFF884385B5C298835684C0891FBF9F9D4
S1134E70A1444D45039302D3DB18039309E018269C
S1134E8091FBF6F1641AA54203D303EB530189B2F3
S1134E9003910025DFF85448ADF806008DF804208E
S1134EA000E06D1CCF4801888D4280F2CC80002642
S1134EB082E0012202A91FFA88F0FFF7A9FAA36889
S1134EC0DFF834E8DFF82C08B3F804C0BEF800308B
S1134ED00068DC44ACEB030300F0D2F8010008F1F5
S1134EE001083CD10AF1010A5FFA8AFBBBEB176F98
S1134EF0DFDB35E01A468DF80220BDF806309A183B
S1134F00ADF806200123594A8DF80330505DC301E2
S1134F1043EA0523BAF1010FADF8003040F0858073
S1134F20BDF8002042F07F02ADF800208A88D21C30
S1134F3000288A8000F084804146E8B200F0F5FA47
S1134F40A36802903A0E9F88DFF8ACE7DFF8A40765
S1134F50BEF800300068FB1A00F093F801006BD132
S1134F60BDF80000A3684FF6FF71091AADF80810E8
S1134F70DFF88007DFF880179B880F8800689B1E86
S1134F80DB1B00F07DF8010056D1A368DFF864074D
S1134F909B880068DB1EDB1B0122694600F072F867
S1134FA0010049D1A0688188A9F8001082889DF881
S1134FB0021051188180761CF1B22A4810F805A01D
S1134FC05145BFF46EAFE8B2FFF79EFA814626481A
S1134FD0475DBDF81000B9F800807F1C07EBD77758
S1134FE0FF05854202BF9DF80410F0B28842E2D06A
S1134FF060680188884524BF40884045DBD3BDF8FC
S11350000610039881422ADADFF8DC26A168535D92
S1135010B1F804C048889C440CF103029042BFF6E6
S113502069AF01206070452006E0BDF80030F2B29F
S11350301343ADF8003079E700F0FDFF002059E696
S11350404FF0000A50E79DF8030040B96068022160
S113505081716068A168E2686160A260E06001201B
S1135060EDE7000084350300603503003C350300A0
S1135070FC69002012500300DBF80000A4EB0803D5
S1135080012202A900EB430000F075BF2DE9FE4F99
S11350905FEA0009DFF8E853DFF8587614BFE868E0
S11350A0A868012201884F4800880291C0F1FF01DD
S11350B001F0FF0141EA0021ADF80210DFF84406D7
S11350C0029990F800A0DFF830060688386801EBF2
S11350D00A04631D9B1B0DF10201FFF7D3FF0100BE
S11350E05BD140F6227040EA0A30ADF80200E31CBE
S11350F038689B1B01220DF10201FFF7C3FF010079
S11351004BD13868A31C9B1B0122A91C00EB430054
S113511000F031FF010040D1601CA0EB06085FEAFB
S113512009004FF6FE7B07D0FF21ADF8021000F016
S11351305DF8010031D109E0686800880122694600
S1135140FFF766F9BDF80000012802D1ADF800B000
S113515002E0411EADF800104FF6FF72BDF80000EA
S1135160121AADF80420A41B3868012201A900EB2F
S1135170440000F000FF01000FD1029C5046A0F152
S1135180010A80B270B1386814FA8AF39B1B0122B9
S11351906946FFF777FF0100F0D000F04CFF0020D4
S11351A0BDE8FE8FB9F1000F16D0E96803208871BD
S11351B06868FFF7D6F9A868FFF7D3F9A9686868A3
S11351C0EA68A8606A600020ADF80200E96000F0B7
S11351D00DF80100E1D102E0A968032088710120E3
S11351E0DEE70000E84F0300E4680020012238688D
S11351F00DF1020100EB480000F0BDBEFEB504460F
S1135200DFF8E404455CA088134662882E18F61C77
S1135210B24205DADFF8D42401215170452031E08F
S1135220C01CDFF8E424A08080B2525C1946FFF76A
S113523010F950B3DFF8C004DFF8B8740688A38807
S11352403868DB1E9B1BFFF71BFF01001AD1BDF85A
S113525008004FF6FF71091AADF800100122A38867
S113526038689B1E9E1B694600EB460000F083FED7
S1135270010007D10898A1880180A0884019A08066
S11352800120FEBD00F0D7FE0020FEBDDA4F030072
S1135290F434030010650020DE4F0300E24F0300E6
S11352A0E04F0300E64F0300E44F03002DE9F84FFD
S11352B084B00546884691461C4601F041F88DF8B5
S11352C0045003950126DFF844249DF80410138844
S11352D0ADF80830B9F17F0FBDF808008DF805402E
S11352E008BF4FF0000981423FBFDFF82414039A3E
S11352F08B5C994507D2DFF810148B5C9C4202D179
S1135300B8F1000F03D140F6DB01FFF749FD9DF82A
S113531004004946FFF7F8F801240546DFF8F403D2
S11353208179B5F800A002291FBF817B0229807D05
S1135330022802D1432000F07EFE039ADFF8B01366
S1135340885C002832D09DF80400514600F0EDF846
S1135350D8F80010814254D0AAF1030000F09CF860
S1135360474FDDF80CC07C68DFF87C33628813F8A3
S11353700C10A088D21E521A824207DB30B1B868E2
S113538001888A45A4BF4088504571DBF86881795B
S1135390BC68022936D1442000F04DFEF8688179BA
S11353A001292FD0452000F046FE51E09DF80570FC
S11353B04FF0000B21E00BEBDB700AEB600000F018
S11353C04EF908EB0B0018F80B1040787A1E934541
S11353D001EB002007D1BDF8001001F0FF0100F03F
S11353E0FF00ADF8001080B2BDF8001088420BF148
S11353F0020018BF00245FFA80FBBB45DBDB002CF6
S1135400AAD03CE0B96888799DF80470012814D1C9
S11354100020FFF7DAFC002831D00020FFF736FE29
S113542000282CD0B74803783946BDF8087003EB40
S11354304700C01D4A4680B204E003280CD14A4606
S113544039460020FFF7FEFC10B100F01DF8B0B99A
S113545000F032F911D112E089790FF2C420022947
S11354600CBF40F6CA1140F6CC1100F03BFE06E03A
S113547000F00AF818B900F01FF97FF448AF39E4D6
S1135480B8750020EA4F03000095BDF806309DF87A
S1135490041042462046B1E601220DF1060180B215
S11354A0FEF7B6BFF8B505469048964F43681C888A
S11354B03B78E018FFF72DFCBDF802000026C0F38E
S11354C00310012819D1192400F02AF8BDF80000AE
S11354D06D1C30B14FF47F41401A06D0FF381BD009
S11354E005E0B61C641EEFD116E0761C14E0BDF88E
S11354F00000C0B290B9761C10E0192400F010F836
S1135500BDF800006D1C20B14FF6FF71884203D036
S113551004E0761C641EF1D170B2F2BDF643FBE7E1
S113552001226946A8B2FEF773BF38B50C460021C4
S1135530754B009169461D5C2A4620466D1CFEF79A
S1135540B6FF05EBD57504EB6504A0B2FFF7AAFF1F
S11355500028009948BFC04341FA80F032BDF8B535
S11355606A4A138804466C48254630F815609C4204
S113557002D25F49485D18B940F68521FFF710FC57
S113558061494D5D681C00EBD07006EB6007B8B252
S1135590FFF788FF0346192B14D20020DFF858C107
S11355A0DFF850E1ADF8000013FA87F7BCF80030DB
S11355B0DEF80000FF1A0122694600EB470000F004
S11355C0DAFC60B131462046FFF7AFFF00902B466E
S11355D0401C00907F2269462046FFF767FEF1BD1C
S11355E07CB5054647480678344621464C1EC9B268
S11355F02888022925DB50FA84F000F030F8BDF841
S113560000000028F1D0454829880288E6B2724398
S1135610521890B2FEF711FF0020ADF800000122ED
S11356202D88344800687519334E3388ED1A69465D
S113563000EB450000F09FFC01000ED000F0FBFCE5
S11356400BE0FEF7FAFE0120A871304A2988108881
S1135650891901EB4001891DA980E0B276BD0122C0
S1135660694680B2FEF7D4BE2A488179022908D05F
S1135670817B022908BF083003D0817D022901D132
S11356801030ADE7002070477CB504461D4806780D
S113569000250CE0208850FA86F0FFF7E0FFBDF803
S11356A0000000281EBF4FF6FF7188426D1C00F0F9
S11356B003F8EFD1E8B276BD3046461EC0B20028EA
S11356C0704714488179022908D0817B022908BFD8
S11356D0083003D0817D022901D11030D4E70020A5
S11356E070470000F8370300E4320300B875002067
S11356F03C350300FC610020DC4F0300D84F03005D
S1135700E03203001250030060350300E84F030049
S11357108435030010650020FC690020DA4F030083
S113572073696D2D656570726F6D322D696E746568
S1135730726E616C2E63000062B181423ABF5318ED
S1135740984200F01FBE801813F8011D521E00F885
S1135750011DF9D17047FEE780B50121914800F0A1
S1135760D1FE914801210160002001F05EFA01237D
S113577004220221052001F09CFA0120FEF7B8FD65
S113578000F011F8FEF7FFFD88490120087001F0D0
S113579091FB012340228649864801F056FB864945
S11357A00860C00F02BD70B501220121042001F080
S11357B0F1F88248824C0168824D834E41F0010128
S11357C001600021C26842F08072C26002227F48F8
S11357D02060296031607E487E490A6000F0C2FE84
S11357E07D497E4A7E4B0818B0FBF2F0401E1860DB
S11357F0002129644FF480727A487B492065316026
S11358007A4802602B6843F480732B6070BD38B50E
S113581001F05CFB654D29780024022912BF0124A4
S11358200321297001F058FB04BB67480168CA07CB
S11358300ED56F490B6823F440630B600168490877
S11358404900016002681102FCD4642001F049FBA4
S113585000220021042001F09DF85E49634B0020E2
S1135860086018600122554908602A7031BD534808
S1135870006800B10120C0B27047D12202704170AB
S1135880090A81705B490A78C2700420521C0A70AC
S113589070472DE9F24F84B00746087800240528A4
S11358A068DB401D8DF80000002601F093FB029098
S11358B04FF6FF789DF80000DFF83C91DFF804A173
S11358C03E4D019003971DE003988019414610F85E
S11358D0027C384601F006FC80465E463A48016880
S11358E0CA070FD5E86840F08070E860DAF8001065
S11358F041F48071CAF80010D9F800000028F1D0F2
S113590089F80070296879B39DF80010F0B28842D4
S11359102AD201F05FFB0299401A80B240F2F512DC
S1135920904226DAF0B210B95B270126D6E70128A7
S113593004D19DF80000471F0226CFE7019806F125
S1135940010BF6B2C01E864208BF4746C5D0019877
S1135950801E864208BF4FEA1827BED00198401E19
S11359608642B1D15D27B8E79DF80000F6B28642C1
S113597000D0012404990420087005B02046BDE835
S1135980F08F80B50C4B186890B04022694601F046
S113599043FA20B1C2B26946122000F065FA11B090
S11359A000BD000000250A0010881442527F002028
S11359B0A8740020B839030088630020F0ED00E0EB
S11359C0B00F00E0000E00E0800E00E055CEACC544
S11359D006000E00F00004E0FCAC0600F8590D00CF
S11359E0100004E0FF0300400D000100040304E084
S11359F0001000E0517F0020200000E070B5134645
S1135A0010440BE001F00F060909451E0A2EACBF35
S1135A1037243024A41928462C705B1EDCB2002CD9
S1135A20F0D1104470BDF0B5002341B1002806D573
S1135A302D2313700123B0F1004F18BF4042002101
S1135A400024894D55F82470002601E0C01B761C03
S1135A50B842FBD2F7B20FB90F0004D0D9B2303636
S1135A6056545B1C0121641C092CEBDBD9B2303089
S1135A7050545B1CD8B2F0BD2DE9F84F804696B067
S1135A8014A8894615469B4604AF4FF0000A00242B
S1135A9001901EE0012405460DE03429FAD15BF89B
S1135AA0046B0422310C3846FFF7A8FF0422B1B27C
S1135AB0FFF7A4FF074601998F4209D39DF8000020
S1135AC03F1A00F0C5F8002853D15AFA87FA04AFF8
S1135AD06D1C04A88DF800009DF800002978381A80
S1135AE000290BD0252903D014B907F8011BE2E7DC
S1135AF0002C14BF00246D1C29780A0000F09B8040
S1135B00B1F1250216D00B3A092A40F28380283AD3
S1135B107AD00A3A12D0521E42D0521E5CD0083AB1
S1135B205AD0121F3FD0D21E3DD0921E54D0D21E46
S1135B306AD0C0E7252007F8010BBCE704A8DBF80E
S1135B400010DBF804208DF800000BF1080B384638
S1135B50039102920027029A9742ABD20399C95D3E
S1135B600222FFF74BFF0199884206D300F074F834
S1135B70002869D15AFA86FA04A80299491E8F426C
S1135B803CBF202200F8012B0199884206D300F083
S1135B9063F8002858D15AFA86FA04A87F1CDAE779
S1135BA05BF8040BC7E75BF8046B074600F050F89A
S1135BB0002849D15AFA87FA04AF0022314600E09E
S1135BC0521CD6B2885D0028FAD1D2B24846C047EA
S1135BD0002839D1B2446EE76C290AD16A785BF89F
S1135BE0040B752A0EBF00210121642A07D16D1C04
S1135BF005E075295BF8040B0CBF002101213A462E
S1135C00FFF711FF074456E75BF8041B0222C9B2F1
S1135C1038464DE768780124782818BF5828F2D10F
S1135C206D1C0024681E32297FF437AF5BF8040B27
S1135C3081B20422ECE70546EAB200F00AF818B98A
S1135C40AA445FFA8AF000E0002017B0BDE8F08FA4
S1135C50FAB204A9484640479DF80020861AF2B2D9
S1135C6004A948464047000094390300FFF789BE61
S1135C7003460A469BA10420FFE70CB480B502AAA0
S1135C8000F030F801BC5DF80CFB0A00034602D0BA
S1135C9095A11120F1E7704780B586B001F05CFC56
S1135CA0202204920021914A00926A2305910393D1
S1135CB002910191024600238FA10120FFF7DDFF2D
S1135CC08B48817902884379039102920193017987
S1135CD0C3788278009142208AA1FFF7CEFF07B0F3
S1135CE000BD00002DE9F04786B007460C469146FA
S1135CF0FEF75FFB002600287CD1FFF7B8FD0028E3
S1135D0078D00021002001F069FF0028ADF80400DC
S1135D1070D0002101A802F08BF8394602A8FFF7E1
S1135D20ACFD0746D4B900F098F8002862D1BDF85C
S1135D30040001F0B0FE8DF80000BDF8040001F08D
S1135D4092FE6946FFF7A5FD002853D00420FEF714
S1135D5021FB4FE08DF808100127641C20780028EF
S1135D60E1D0A0F130010A2904D20A2101FB060680
S1135D70303EF2E700F071F800283BD1217800278B
S1135D80422902A80ED044291AD0462925D05729E1
S1135D900DD0622940D0662932D06C292DD07029CB
S1135DA02ED0D7E759F8040B8DF80800D4E759F83A
S1135DB0041B8DF8081002270904090E4170CCE772
S1135DC059F8041B8DF808100B0A0A0C090E4370CD
S1135DD082708DF80B100427BFE759F8048B4046F6
S1135DE002F0B0F9C2B20123414601A801F07BFFE1
S1135DF00028B2D006B0BDE8F08759F8046BACE7D0
S1135E0059F8041B0123F2B201A801F06CFF002829
S1135E1008BF0026A1D0EDE7BDF8040001F03BFE69
S1135E2059F8045B8046A8B2002896D001F033FEEE
S1135E3082460AEB0801C9B201A801F0F9FF002863
S1135E40D8D15FFA8AF000900023BDF80400AAB20A
S1135E505FFA88F102F078F87FE701233A4602A955
S1135E6001A801F040BF00002DE9F841122885B0D7
S1135E7004460D46904606D03A2808D04FF6FE71E7
S1135E80884220D026E0002002F03DFB22E002F010
S1135E9017FD0646002003F0A6F80746002003F08D
S1135EA0ADF8034604961148DFF84810B1F8E22033
S1135EB016A10390029200200190009700223B203B
S1135EC0FFF7DBFE06E000224146284601F0D5FE3E
S1135ED000F0A6F842462946204606B0BDE8F04147
S1135EE0FEF788BA574600006C700000147A002050
S1135EF0203C0300247A002042423870424242424D
S1135F005700000042424242574200005742425763
S1135F105738704200000000DFF800F0B96100203B
S1135F2038B504460D4603F027FF012C02D1FFF7D4
S1135F30F3FF02E0284603F0B3FF18B103F025FF96
S1135F40012032BD03F021FF002032BD80B583085B
S1135F50800705D54FF6FF7242EA0142009204E041
S1135F6041F07F4141F47F01009104226946980089
S1135F7003F0D5FF02BDF8B506460D4605F0010154
S1135F8006F001000143144601D00120F2BD002CAB
S1135F9039D032462B46611C4FF6FF7C01E0921C3F
S1135FA09B1C491E06D0178867451CBF188800280B
S1135FB0F5D024E003F0E0FE012C01D0B00707D5B2
S1135FC035F8021B3046FFF7C1FFB0B9B61C641E9A
S1135FD0022C0CD367087F007A002946304603F070
S1135FE09EFF50B906EB470605EB4705E41B44B199
S1135FF029883046FFF7AAFF18B103F0C6FE4B20EC
S1136000F2BD03F0C2FE0020F2BD00207047012063
S113601070477047704700207047002070477047F2
S113602070470198704770477047704770477047D2
S1136030702003F097BF70B5044643381F4D08D055
S1136040401E012809D9801E01280ED9C01F32D054
S11360502AE0BDE87040FFF707BBFFF732FB20B131
S1136060FFF702FB0028FBD170BD154E307810BB42
S113607001213170FEF7CCF8442C12D00CD3462CFD
S113608005D00ED3472C07D140F6010001E040F6BD
S1136090020004F06DFA04E04FF49B71284600F00E
S11360A021F80020307070BD2846BDE870404FF4E0
S11360B0A47100F017B870BD00000000483A030056
S11360C0567F002070470020704700207047012051
S11360D070470120704700207047704703F013B8E1
S11360E042DE704738B504460D4603F01AF800F056
S11360F027F904F091FA29462046FFF7B9FD2B460B
S113610022466C49012004F0CCFA29462046BDE819
S11361103440E5E768482DE9F843684E0168B16505
S11361204FF42068026A6649F2650B683366496871
S11361307166426AB266816AF166C26A3267016B4D
S11361407167806B96F83810B06748074CBF346CA1
S1136150F46B04F047FA002232658442594B01463D
S113616024BFA3F12007A742A146716506F190025E
S1136170DFF854C1DFF854E118D3A0697064E4690E
S1136180B464B56DC5F30805062D13D1704511D35C
S113619060450FD200884DF64264A0420AD170686F
S11361A0B4685060946040F2017803E000247464A1
S11361B0B46481464648814202D2014600E0091D8A
S11361C00846984203D20C68B4F1CD3FF7D0414958
S11361D0081AF0640021002006F17C04C5B2401CBA
S11361E0C7B244F82510062FF8D3002099452CD2C5
S11361F053F8041D7145F9D36145F7D2CC07F5D5A1
S1136200002406F17C0555F824708F4202D0641CEA
S1136210062CF8D3062CE9D1C4B2002C0CBF0520FF
S1136220401E06F17C04C5B244F82510DEE7F16F88
S1136230002306F17C0506EB8304D4F8804045F87E
S113624023405B1C042BF6D911600146481EC9B2D9
S11362500029ECD1B06DC0F30800032810D0042845
S113626011D0052812D0062813D00C2817D01228D4
S113627018D119480268910719D540F2025816E05E
S113628040F6012813E040F6022810E040F6032807
S11362900DE0B8F5206F0AD140F6042807E040F677
S11362A0052804E018B1322838BF40F607284046D4
S11362B0BDE8F2833C34030004ED00E0000000205C
S11362C000E300E0B86100209232030010420000B5
S11362D09C000020B86100201C20054004F0F2B9A5
S11362E07FB50121204800F00DF901220121012090
S11362F000F050FB0421072004F0E6F91B4A92E861
S113630038006946032281E838000D218DF8081011
S113631001268DF809208DF800608DF80760694624
S1136320134C204604F04CFA12490420086002225F
S1136330114962620860A26A42F00202A2627FBD51
S11363400B4804F031BAA52803D10021084804F011
S113635012BA70470648006800F001007047074908
S113636008680028FCD1704730053E00D034030093
S11363700020054080E200E000E100E00820054044
S11363804AB1000011F8013B521E00F8013B1CBF4A
S113639011F8013BF8E77047012101FA00F070475A
S11363A0890001EB401101F184410A6070478900C2
S11363B001EB401101F184410868704710B50122D6
S11363C0DFF8B815884202D20022002407E0DFF883
S11363D0B015884234BF4FF080744FF00074102120
S11363E0DFF8A005FFF7DCFFDFF8C406016821F041
S11363F080710C43046010BDDFF88C15DFF88C3518
S11364000A6802F04072984238BF002204D3DFF8D1
S1136410A436984238BF0122086820F0407040EA50
S113642002600860704738B500F013F841F6713027
S1136430286004F00AFA002105E038B500F009F8F4
S113644041F671322A60FFF7D7FF0CB100202860B3
S113645031BDDFF864562C6804B101247047C01CB8
S11364600F2801D2000770474FF0704070470000BA
S113647038B50446002500F053F9DFF82426DFF888
S11364801015944208D0DFF83426944206D0DFF881
S11364901426944204D006E0086802E0486800E04C
S11364A0886800F00700401E03281AD8DFE800F0CF
S11364B002050C0804F00FFA04E004F012FA01E0FB
S11364C004F00CFA05460CE004F0C1F90446DFF8C8
S11364D0E0050168C1F30060401CFFF75DFFB4FBF9
S11364E0F0F5284632BDDFF864164A68D30702D4B3
S11364F00A680242FCD1704780B500F0D1F8401C14
S113650002BD000070B50C460246110A01F00F01ED
S11365100020491E0929DFF8845613D8DFE801F06A
S113652005131212071518121B1FDFF85854C2F373
S1136530043608B1FFF7D7FF224631462846BDE8A6
S113654070402DE770BD1035F1E730350120EEE7DE
S113655038351020EBE740354FF48030E7E7DFF8BB
S11365604056E4E7F8B50646DFF8E405DFF83025E1
S11365700768DFF84815DFF82C05DFF834450125F6
S113658016F4781365D0B3F5003F2BD0B3F5802F04
S113659024D0B3F5202F5CD0B3F5402F28D0B3F529
S11365A0602F4ED0B3F5801F77D0B3F5A01F2AD04B
S11365B0B3F5B01F2FD0B3F5D01F35D0B3F5F01F0E
S11365C01FD0B3F5001F2DD0B3F5101F36D0B3F58F
S11365D0481F41D0B3F5781F55D05DE004F037F97A
S11365E0E16802E004F033F9A168C1F3082104E092
S11365F004F02DF96169C1F30421491CB0FBF1F7E2
S11366004BE010461AE0FFF733FF0746206B00F01B
S11366100F00C74041E01046FFF72AFF216A01F04E
S11366200F0107E0084609E00846FFF721FFA16AC9
S113663001F003018D40B0FBF5F72EE0FFF718FFE2
S11366401FE0DFF8600500F06BF8072825D0092863
S113665022D104F0FCF814E0DFF84C0500F060F8F7
S113666004280CD0072818D0082815D104F0EFF816
S113667007462068C0F30420401C47430DE004F0A3
S113668002F9074609E004F0E2F804463046FFF751
S113669033FFB4FBF0F700E000273846F2BD0000FA
S11366A001460B0903F00F0301205B1E092BDFF8E1
S11366B0002432D8DFE803F005070B11313113173A
S11366C01F29106800E05069C0F304207047116866
S11366D0090E01F00101491C14E0D06800E0906843
S11366E0C0F308207047DFF8C434994215D1116A09
S11366F001F00F0106E0DFF8B83499420DD1916A38
S113670001F003018840401E7047DFF8A80481426D
S113671003D1106B00F00F00704700207047000099
S1136720014601F00F010120491E0729DFF88824E2
S113673049D8DFE801F0040F1348202E4836506A88
S113674000F0070002283AD002D3042804D01CD356
S11367500520704711690FE002207047516901F06C
S11367600701491E03292FD8DFE801F00F020311A6
S1136770F2E706207047916901F00701012904D06E
S11367800229E9D0042902D07047032070470A2067
S11367907047116811F001010FD0012914D10920AB
S11367A07047DFF818140A6802F03002102A04D087
S11367B0202A04D0302A04D07047072070470420D0
S11367C070470820704700207047000070B500F043
S11367D00F0003250326401E0728DFF8DC430FD8EB
S11367E0DFE800F0042D31752F5975640229DFF8B4
S11367F08C0106D0032919D0042919D005291CD0ED
S113680070BD0425002601220121304600F0C2F8A3
S1136810FFF709FE656004F00BF8044604F017F86E
S1136820FFF7CCFD2046BDE870405EE00126EAE7B4
S113683002250226FFF7C2FDE5E70125FAE7103439
S113684002E0183400E01434012929D0022906D0CA
S113685003290BD0062910D00A291AD070BD0122B1
S11368600121002000F096F802201AE00122012103
S1136870012000F08FF8012013E003F0E8FFFFF798
S11368809DFD01220021DFF81403FFF789FD032099
S113689007E0042005E0072902D0092903D070BDD0
S11368A00020206070BD0121216070BD012906D047
S11368B0042914D007290BD0082914D070BD002056
S11368C0DFF8F8120A6822F030021043086070BD45
S11368D001220121042000F05DF81020F0E700F00F
S11368E006F82020ECE73020EAE70021A5E50122A4
S11368F0012102204EE070B5044600F03DF801226B
S11369000021022000F046F8217CDFF8B852002074
S11369100229296808BF0120490840EA410028608B
S1136920082122782846FFF73BFD6968E07AC90808
S113693040EAC1016960607AA18840EAC120A86088
S1136940EE68207AFFF78BFDE288A17A06F07F6675
S113695046EAC226227A0E4346EAC2160643EE608F
S1136960A17B607B227B090141EA0031E07B01438A
S113697041EA0241296170BD1120D1E60148E801D4
S11369800190D00300400E4004000E4041787D0188
S113699080400E402DE9F84F0428834692466DD876
S11369A0DFE800F0504B4103460001270220012597
S11369B000260029DFF8E081824C61D0BBF1020F90
S11369C002BF2068C0F3011000284FF000090AD16B
S11369D02068C1074FF0010905D5206820F0300078
S11369E040F010002060E763314600F05EF80028B4
S11369F0FAD0BAF1000F41D000F056F80028FBD0CD
S1136A00BBF1020F3AD1B9F1000F37D02068C107AA
S1136A101FD54FF48060C8F818002021216402209B
S1136A2000F098F819E00427082003250226C0E79F
S1136A301027202005250426BBE7402780200725B2
S1136A400626B6E74FF480774FF400700925082630
S1136A50AFE70021022000F07DF8D8F80C60012295
S1136A6000210220FFF796FFC6F30A01022000F07E
S1136A7027F8E76300F018F80028FBD0BDE8F18F91
S1136A80E063D8F80000F040C107FAD4BAF1000F6F
S1136A90F4D0D8F80000E840C107FAD4EEE70000CB
S1136AA002001E000500240029464046FFF77FBC73
S1136AB000410E40015A620240000E4003002000D3
S1136AC0F8B5401E0D46032805F07F063C4C1F4FC9
S1136AD03BD8DFE800F00228101CC5F308051A2192
S1136AE03846FFF764FC0028F9D12069400A45EADA
S1136AF040252561F1BD18213846FFF758FC0028D0
S1136B00F9D12068C00946EAC0162660F1BD1921F2
S1136B103846FFF74CFC0028F9D1A068C00946EAC2
S1136B20C016A660F1BD1C480168626922F03002FB
S1136B3042F010026261C5F3C310FFF790FC226AB1
S1136B4021490A40154305432562F1BD40410E40E9
S1136B50746300201B4A1068C0F30110002818BF9A
S1136B60002911D0202902D030290DD00FE04FF494
S1136B700000D16E01408142FBD1400209D5D06FA3
S1136B80800A00F0010070474FF44000F1E70F481D
S1136B90EFE701207047000090400E40B0400E40E7
S1136BA050410E4006000E00B80032008006160068
S1136BB090071A00A009140070400E405C410E407A
S1136BC010400E4024400E4000F8FF0FFF03E10781
S1136BD0890001EB401101F184410A60704770B5EE
S1136BE004460D46164603F095FE2168A943354038
S1136BF00D432560BDE8704003F090BE10B500F071
S1136C000DF804F1806404E010B500F007F804F115
S1136C10C064012303FA01F1216010BD3022404B0E
S1136C205043184400F10C0470473E490A68920826
S1136C3040EA8200086070472DE9F04101F0030545
S1136C40164603240F21082E98460CD2B70000FAEA
S1136C5007F2B9403448FFF7C2FF05FA07F204FA15
S1136C6007F132480DE0A6F10802970000FA07F296
S1136C70B9402F48FFF7B3FF05FA07F204FA07F10A
S1136C802C482D4FFFF7ABFF079C069D2B4842462F
S1136C903146FFF79DFF2A4631463846FFF798FFF5
S1136CA0224631460120B0403861BDE8F041244815
S1136CB08EE7F8B50546174638000E461C4607D041
S1136CC0002C284602D0FFF79FFF01E0FFF796FF54
S1136CD02A4630201249424388180F22082E05D232
S1136CE0B300416800F015F8416006E0A6F108031E
S1136CF09B00816800F00DF881604FB9002C31468B
S1136D00284602D0BDE8F4407EE7BDE8F44075E7CC
S1136D10F1BD9A4021EA020207FA03F111437047D8
S1136D2000A0004044A4004000A4004008A4004087
S1136D3004A400400CA4004014A4004010A400408B
S1136D4028A4004010B5DFF87041DFF87011E1614C
S1136D500320206160611022DFF86401A0612262D7
S1136D600021A162E16220660022DFF8580162621C
S1136D7010216066A1662267E26630A16267E31DA6
S1136D800868DFF84411186007222046FFF7F8FA74
S1136D902023A37110BDC11922464046FFF7F0BA63
S1136DA02DE9F84300F031F808B9FFF7CBFF1820BC
S1136DB04443281900F1600600243769F568BD4290
S1136DC00BD2B4687068E41B4C4588BF4C46FFF78F
S1136DD0E2FF00F013F808BF0027ED1B4D4588BF04
S1136DE04D4635B17068C1192A46FFF7D6FF2C19F4
S1136DF0EF1904B137612046BDE8F283B168E719A1
S1136E008F42A044A9EB04097047DFF8AC50044654
S1136E102878884691467047F8B500F00AF800F0E3
S1136E200FF8FFF7BDFF0446384600F055F820463A
S1136E30F2BD04460D46164600F048B852545400BC
S1136E40074632462946204670472DE9F84300F0AC
S1136E502AF808B9FFF776FF00F038F8726901469E
S1136E600027182306F1640C03FB07FE5CF80E00F0
S1136E7010B17F1C9742F7DB97420BDA7B43F01883
S1136E80002204664566C0F868800267C266C0F8DE
S1136E90749001E04FF0FF37FFE7084600F01CF85C
S1136EA03846BDE8F283044E044630780D469046D9
S1136EB09946704746E7000000680020E874002007
S1136EC0C8390300F8740020D4390300EFF31180AB
S1136ED0602181F31188704780F311887047FEE7C1
S1136EE0704703F07ABD10B5044605211120FFF761
S1136EF06DFC002200210220FFF74CFD1E480168B2
S1136F006FF3D321016002681C4901EAC4210A43DA
S1136F100260012101220220FFF73CFDBDE8104080
S1136F2004211120FFF752BC134800680003C00D70
S1136F30704713490A68130305D44968C1F308016B
S1136F40018001207047002070477CB50D4E0C462F
S1136F504FF6FF753188ADF8005002237F22684652
S1136F6003F0C4FDBDF80000A84202D02080012037
S1136F7076BD002076BD000030400E4000F80F00C2
S1136F80B481E00FFE4F03007FB500F011F818B98B
S1136F9000F015F803F077FE04B070BD7FB500F083
S1136FA007F818B900F00BF803F085FE04B070BDC3
S1136FB00446084615461E4602A903F079BF9DF80B
S1136FC02010BDF8240000910190334602992A460E
S1136FD02046704780B500F00DF880B202BD80B540
S1136FE000F008F8FA21B0FBF1F080B202BD000015
S1136FF000BF0000E0B503F040FF6A4603F08FFFD6
S113700018B14C2133A0FFF76DF8DDE9000103B09E
S113701000BD000080B503F087FC01211D48FFF787
S113702071FA03F0FFFD20B15FF0570129A0FFF7CB
S113703059F8002002BD1849012008707047FEB5B8
S113704004460025216801B92AE000F019F808B1C6
S113705000F00FF8012027E0FEB50C46002521685A
S113706001B91DE000F00CF808B100F002F80220AC
S11370701AE001950095002321683A46301D83E704
S1137080054E064F35700023009301953A46301D96
S113709084E7000030053E00E875002037700000EA
S11370A004F0B7F80020FEBD04F093F9307840B93D
S11370B02146301D03F072FE206803F010FF852581
S11370C001E00020307020602846FEBD0146002209
S11370D00020C1E773797374656D2D74696D6572F1
S11370E02E6300000A0A42EA01225040C0F3031151
S11370F0484080EA003041010206C9B2D20E41EA9A
S11371000221484080B270474901020003D4DFF8ED
S11371108C0481547047DFF8883402F00F021A445B
S113712002F8041C704730B500F007000123C0F1D9
S11371300704042C2EBF072403FA04F4641EC51CA0
S1137140072D34BF0020001F2140814003FA00F0C6
S1137150401E1040084330BD890001EB401101F18D
S113716084410A60704700207047002070477047D0
S11371703EB572B603F050FADFF82804DFF828446D
S11371804169216000F0C8F901466FF00B00FFF778
S1137190BBFF00F0C1F901466FF00A00FFF7B4FF2E
S11371A000F0BAF901466FF00900FFF7ADFF00F0F7
S11371B0ABF901466FF00800FFF7A6FF00F0A4F951
S11371C001466FF00700FFF79FFF00F09DF90146AD
S11371D06FF00600FFF798FF00F096F901466FF094
S11371E00500FFF791FF0022022100F08FF901460C
S11371F06FF00400FFF788FF00F092F901466FF08A
S11372000300FFF781FF00F07FF901466FF00200F1
S1137210FFF77AFF0022072100F078F901466FF0AA
S11372200100FFF771FF00F07BF901464FF0FF30DA
S1137230FFF76AFF00F074F901460020FFF764FFCE
S11372400022032100F062F901460120FFF75CFFF0
S113725000F05EF901460220FFF756FF00F060F9E6
S113726001460320FFF750FF00F05AF901460420BD
S1137270FFF74AFF00F054F901460520FFF744FFE9
S113728000F04EF901460620FFF73EFF00F048F9F2
S113729001460720FFF738FF00F042F901460820B5
S11372A0FFF732FF00F03CF901460920FFF72CFFFD
S11372B000F036F901460A20FFF726FF00F030F906
S11372C001460B20FFF720FF00F02AF901460C20AD
S11372D0FFF71AFF00F024F901460D20FFF714FF11
S11372E000F01EF901460E20FFF70EFF00F018F91A
S11372F001460F20FFF708FF00F012F901461020A5
S1137300FFF702FF00F00CF901461120FFF7FCFE25
S113731000F006F901461220FFF7F6FE00F000F92E
S113732001461320FFF7F0FE00F0FAF8014614209E
S1137330FFF7EAFE00F0F4F801461520FFF7E4FE3B
S113734000F0EEF801461620FFF7DEFE00F0E8F844
S113735001461720FFF7D8FE00F0E2F80146182096
S1137360FFF7D2FE00F0DCF801461920FFF7CCFE4F
S113737000F0D6F801461A20FFF7C6FE00F0D0F858
S113738001461B20FFF7C0FE00F0CAF801461C208E
S1137390FFF7BAFE00F0C4F801461D20FFF7B4FE63
S11373A000F0BEF801461E20FFF7AEFE00F0B8F86C
S11373B001461F20FFF7A8FE00F0B2F80146202086
S11373C0FFF7A2FE00F0A4F801462120FFF79CFE7F
S11373D000F09AF801462220FFF796FE00F094F898
S11373E001462320FFF790FE00F08EF8014624208A
S11373F0FFF78AFE00F088F801462520FFF784FE97
S113740000F082F801462620FFF77EFE00F07CF8AB
S113741001462720FFF778FE61684FF6FF00014020
S113742041F0BF6141F4013161604FF4E021E06853
S113743040F40070E060E06840F01000E060E1615A
S113744003F0F7FF04F08CF8EFF30880001F5749AE
S11374504FF0CD3201E040F804298842FBD2544970
S1137460544889B204F0CEF862B65349534A012015
S113747008606846146804F0C9F8240E8F2C10DAEA
S11374804F48504C016841F0040202604FF0501321
S1137490002230255543521C6351052AF9D9016055
S11374A000E006DC48480168C909C90141F020012F
S11374B001609DF80100012804D14448016841F0AD
S11374C00401016000220D214148FFF745FE4149B6
S11374D00120086004F0B4F804F005FA05216846B8
S11374E004F0ACFA01208DF80300684604F0B3FB05
S11374F003F094FEFFF78EFD03F0ACFE04F0F2FF00
S1137500354805F031F837BDFF22FF2104200AE693
S113751000220121042006E600220021042002E6C4
S1137520002204210420FEE505F0F4B805F0F3B8C8
S113753005F006B980B500210B2005F0F9F8BDE887
S1137540014005F0FEB8002818BFFEF76CBDFEF739
S11375506BBD032003F01BBB10B504F042F80446D6
S113756004F043F8C0B220B9012C0BD144F08000E0
S113757010BD072CFAD8DFE804F005040709090B4D
S11375800D0FF3E7002010BD092010BD022010BD2F
S1137590032010BD0B2010BD062010BD00E400E048
S11375A018ED00E00040000008ED00E0585800200D
S11375B0C42C0000A000002044000E40FC81E00F19
S11375C0B0400E4000A000402C400E4064310E40FC
S11375D054300E4010300E401C34030010B5DFF858
S11375E01408DFF80C180068DFF80C28C86013686A
S11375F048615B0800EB43040C6118B100F016F815
S1137600652806D2BDE81040B0210FF61000FEF741
S113761069BD10BD10B5DFF8D8476069E2689042D3
S113762002D2C02100F09BFA60690CE010B5DFF8CB
S1137630C04720696269904202D2C62100F08FFAE5
S11376402069626900E0E268801A4FF6FE71084022
S113765010BDDFF89C17CA68904203D34969884279
S113766000F03EBB0020704780B510B1FFF7F1FF7A
S113767000B1012002BD30B1DFF87427D168401A8F
S11376804010401C80B27047010001D100207047B7
S1137690DFF85C17CA6802EB4000801E7047408820
S11376A0C0F30C00C01C80084000001D80B270476D
S11376B010B50446FFF7F3FFDFF834174A6904EB0B
S11376C040004FF6FF7400E0801C904202D2038811
S11376D0A342F9D010BD2DE9F843DFF814478046E2
S11376E0E08898B3B8F8020001042FD4DFF80C77CF
S11376F00FF21C7138680FF2247905F045F820B9AF
S113770040F28D114846FEF7EDFC002504E005F03B
S11377103BF888B16D1CADB2E088854204DB40F2D1
S11377208F114846FEF7DEFCA069396800EBC506F8
S113773030680028EBD13160B088401CB0804046EE
S1137740FFF7ADFFF18801EB4000F080BDE8F18365
S113775070B50446DFF89806007801281AD120880D
S1137760FFF792FF050027D002262C462046FFF79C
S1137770B2FF608840F40040608034F81600FFF7E0
S113778083FF040002D060880104EFD5761C042E28
S113779012D2EAE702280FD1FFF798FB05462088AA
S11377A0FFF772FF18B10088C0F30E00208028464E
S11377B0BDE87040FFF790BB70BDDFF834160A785F
S11377C0022A08BFFFF7C4BF704738B504460D4608
S11377D0FFF765FF6188C1F30D0161804004020C6D
S11377E021462846BDE83840FDF7A6BF10B50C4633
S11377F001E0FFF75DFFA04202D241880A04F8D5F8
S113780010BD2DE9F14FDFF8E8550020A88092B0B3
S1137810FFF75CFB6A88ADF8002001212970002184
S11378206A6969800192FFF757FBE988A869C90072
S113783004F004F96846FFF78BFF129848B100245E
S113784001E08047641C1298E1B250F8210000283E
S1137850F7D1EF6800244FF001080DF1080906E0A4
S11378600BF1010B5FFA8BF004281CD33446019E04
S1137870B74200D38CB324B1641EE4B259F824A0F7
S113788003E000F0BFFABA460746BAF8020000F473
S11378904041B1F5004FEAD140F48040AAF802001B
S11378A04FF0020B26465FFA8BF03AF81000FFF710
S11378B0EBFE0400D4D060880104D1D440F400402D
S11378C060802046FFF707FF102EBDBF49F8264011
S11378D0761CF6B24FF00008C2E7B8F1000FB8D03A
S11378E0EF68BB46B84615E03846FFF7D8FE0446B5
S11378F0788801040BD55846FFF7BDFE398801F49A
S11379000041084338800BEB440B07EB440800F0BC
S113791079FA0746B742E7D3022028706846FFF792
S113792017FF129848B10026044601E08047761CF0
S1137930F0B254F820000028F8D1EC68274613E090
S11379404FF0020937F81900FFF79EFE20B10088B6
S1137950C0F30E0027F8190009F10109B9F1040F69
S1137960F0D300F04FFA07464745E9D30AE004464E
S1137970FFF79EFE4146FFF739FFB842F7D3B742FF
S11379802ED1544644454AD22046FFF791FE002C9E
S11379908246F6D060880104F3D500F05AF8A0427C
S11379A004D16088C0F30D006080EAE704D2014688
S11379B02046FFF70AFFE4E7264607E05046FFF7B4
S11379C077FE4146FFF712FF54468246C24507D26E
S11379D0BAF80000C0F30E00FFF756FE8245EDD35F
S11379E034B100F036F801001CBF2046FFF7EDFE6D
S11379F027463046C1E72046FFF751FE0646584663
S1137A00FFF739FE0746720021465846FDF794FEFB
S1137A1000223946684604F0DFFE0BEB460BFFF705
S1137A2055FA06460021A81C04F02CFFFFF72CFE93
S1137A30040006D1BDF8000068800021C5F814B028
S1137A4029703046FFF748FA002CD4D113B0BDE8B2
S1137A50F08F2088C0F30E0016E680B5FFF714FE01
S1137A60BDE8024000E610B5040012D0FFF7F5FFB0
S1137A7018B940F27A4100F072F82046FFF704FE8C
S1137A8038B101880A0402D5D0F80A0010BD0830C4
S1137A9010BD002010BD10B5010013D0FFF7F4FD98
S1137AA00446FFF7E1FD18B940F2944100F057F89D
S1137AB044B12088010401D5208910BD6088C0F339
S1137AC00C0010BD002010BD2DE9F04100F044F879
S1137AD004003FD0FFF7C8FD0FF2403718B940F259
S1137AE0A74100F078F82846FFF7D5FF80462046E6
S1137AF0FFF7DEFD464505462CD003DB40F2AF41DF
S1137B0000F069F82088010448BF268122D46680E9
S1137B102046FFF7C4FD04EB4004FFF7D7F9DFF874
S1137B20D0124A692E1BB6B2954204BF4C6100269E
S1137B30FFF7D2F9082E06D231462046BDE8F041BF
S1137B40FF2204F0F5BE0821204603F05BFDA6F1F8
S1137B5008006080BDE8F08105460E4694E50FF20A
S1137B60BC20FEF7BFBA38B50D46FFF78DFD040003
S1137B700AD0FFF779FD18B940F2EC41FFF7EFFFA7
S1137B8004EB4500808832BD002032BDF8B50D46B7
S1137B901646FFF779FD04000FF2802714D0FFF793
S1137BA063FD18B940F2F74100F015F83046FFF7CD
S1137BB06BFDFFF759FD18B94FF49F6100F00BF806
S1137BC004EB45008680F1BD3846BDE8F44040F240
S1137BD0FB41FEF787BA3846FEF784BA2DE9F84F21
S1137BE08846C11C8908DFF8085249000027091D8E
S1137BF02E690FF2282AB0F5005F04461FFA81F9B6
S1137C0004D340F227515046FEF76CFAFFF75EF9B1
S1137C1083466969E86908B9711A03E05FEA0802F2
S1137C2002D0411A4E1009E0301A4010064680B2C4
S1137C3020B940F24D515046FEF754FAB6B24E45C3
S1137C4014DB6F6907EB49006861E86928B1B8F192
S1137C50000F04BF00EB4900E86100207C80B8807D
S1137C60F88038800834298964182C815846FFF735
S1137C7033F93846BDE8F24FFDE470B504460D46CD
S1137C8011462846FFF7AAFF06463CB1300005D04E
S1137C90FFF7E9FE2A462146FDF74EFD304670BD4A
S1137CA038B50446FFF712F9054600222146544828
S1137CB004F092FD2846BDE83240FFF70DB938B50F
S1137CC0FFF704F9044600214D4804F0DBFD0546A6
S1137CD02046FFF701F9284632BD45484188481E31
S1137CE08041C00F70472DE9FE4F04468846208826
S1137CF016469B46FFF7C8FC0746FFF7B5FC18B9C4
S1137D0040F29161FFF72BFF38880104354603D513
S1137D1038892D183D8167E000F078F8019000F073
S1137D2071F88146FFF7D2F800968246304E7069AA
S1137D3081451DD1FFF77AFCA84203D25046FFF7D4
S1137D40CBF821E001982D18BBF1000F7D8008D0FD
S1137D502088FFF788FE019B009A41461844FEF7ED
S1137D600FFB00F04FF870615046FFF7B5F83BE0A9
S1137D705046FFF7B1F800F049F82D180021A8B2D9
S1137D80FFF72CFF070001D11A202EE000F03EF887
S1137D9005462088FFF767FE06463846FFF763FE70
S1137DA02A463146FEF7ECFABBF1000F384609D0FB
S1137DB0FFF759FE00F029F8009A41462844FEF7DF
S1137DC0DFFA07E0FFF74FFE00F01FF800992844A0
S1137DD003F018FC20880121FFF7C5FE02460121AB
S1137DE03846FFF7D3FE27800020BDE8FE8F000051
S1137DF0C875002004630020086300202865002063
S1137E00CA7500203846FFF753BC0546208842E671
S1137E10756E636C61696D65640000006275666609
S1137E2065722D6D616E6167656D656E742E63009C
S1137E3038B504460D462088FFF72DFE29468842B2
S1137E40208803D3FFF740FE002032BDFFF723FE56
S1137E502D1AEAB2204601B0BDE8304000230021CB
S1137E60FFF741BF2DE9F0410546884617461E46F7
S1137E704046FFF7F8FDC419300018BF002C1CD091
S1137E804046FFF708FEB919884202DA1D2100F0C6
S1137E9039F80698010003D132462146284604E009
S1137EA0012832462946204603D1BDE8F041FDF7BA
S1137EB043BCBDE8F041FEF763BABDE8F08138B5D4
S1137EC004460D46FFF7E7FD854202D32A2100F060
S1137ED019F82046FFF7C7FD284432BD70B50546A2
S1137EE00E46FFF7C0FD040009D02846FFF7D3FD76
S1137EF0864202D3322100F005F8A05D70BD002057
S1137F0070BD000089A0FEF7EDB870B504460D46BB
S1137F101646FFF7C0FD854202D33C21FFF7F2FF6E
S1137F202046FFF7A0FD00B1465570BD38B50446A4
S1137F30FFF7B1FD05462046FFF795FD2946BDE84C
S1137F4038400022FFF799BEF8B50546069C0E4658
S1137F501F461046FFF787FD07442846FFF783FDB9
S1137F60224639463044BDE8F840FDF7E5BB70B51C
S1137F7000F02BF800F003F8301880B270BD060250
S1137F8029462046AAE7E0B58DF804200123120A09
S1137F908DF8052000930A460146022301A8FFF745
S1137FA061FF07BDF8B500F010F8FFF7E8FF861988
S1137FB0E91CC9B2FFF7E5FF0702AD1CE9B2FFF700
S1137FC0E0FFC01906EB0040F2BD0D46691C0446F3
S1137FD0C9B283E70EB430B50446002180B2FFF77E
S1137FE0FDFD0546FFF73FFD290008BF00200BD02B
S1137FF003A9002204E051F8043B00F8013B521CA1
S1138000D3B2A342F7D3284630BC5DF810FBF8B5D1
S113801005460E46174600212020FFF7DFFDADF888
S11380200000FFF720FD0446BDF8000060B13B46A8
S113803032462021601900F020F82D18E9B2684674
S1138040FFF7F6FEBDF80000F2BD1CB504AC0094C9
S113805000F001F816BD10B514461A46029B2044E0
S1138060091BBDE81040C9B207E00CB480B502AAF0
S1138070FFF7CDFF02BC5DF80CFB2DE9F047044689
S1138080884691469A46254600260AE03A462846FE
S1138090ED19FDF751FB7F1EBE19761CF6B209F1EE
S11380A0010946453CDA99F80000002838D0312807
S11380B018BF32280ED15AF8041B05F8011B3228C8
S11380C0EBD1761CF6B2B045A4BF091205F8011B2A
S11380D0E3DA25E034280ED1311D5AF8040B884523
S11380E01EDB2870020A6A70010CA970000EE87089
S11380F02D1DF61CD1E7A0F133025AF8041B072A00
S113810038BFA0F1300707D3A0F14102072A34BFDA
S1138110A0F137075AF8047BFFB2B8194045B5DB24
S11381202C1BE0B2BDE8F087000000006C656761BD
S113813063792D7061636B65742D62756666657213
S11381402E63000000F1010310F8011B11B110F8B7
S1138150011BFBE7C01A7047010008D4012200F09C
S11381601F01DFF890358A40400943F8202070470A
S113817001000CD4012200F01F01DFF87C358A4095
S1138180400943F82020BFF34F8FBFF36F8F704730
S1138190010008D4012200F01F01DFF860358A4095
S11381A0400943F820207047C26C1143C1647047F2
S11381B010B5DFF84C4530B1012807D0102802D0A3
S11381C0202803D004E00020204410BD1C20FBE73D
S11381D040F28311DFF87405FDF784FF204610BDDB
S11381E070B504460E461546FEF770FEE288B242AC
S11381F00CD221888B1A991991FBF5FC05FB1C15EF
S11382002580A388F3189A1AA280E68000F0D3BAD6
S113821070B506460D46FFF7CBFF012E18BF202E82
S1138220044643D1A069016890F83200E0B9042201
S11382308A6400F057F9A06900683DB10421FFF792
S1138240B3FF0B20FFF788FF052107E0C16C21F085
S11382500401C1640B20FFF78BFF0021A0690068B3
S1138260BDE8704004F0EBBB0420486300F03AF929
S1138270002DA0690BD001688A6B42F004028A6366
S11382804FF40061DFF86C241160052109E00068F7
S1138290816B21F0040181630B20FFF769FFA06962
S11382A000210068BDE8704004F0A2BC70BDF8B5C0
S11382B00446DFF89C0481421D462AD00026F2B20F
S11382C01C20DFF83C1442438F18BB69A3421CD125
S11382D03A893868A9B2FFF783FF38680021C18062
S11382E002E0384600F016F8204605F0E9FC0228C2
S11382F00BDC3889F9893A68A0EB410091888842FF
S1138300EFDA0121204605F011FD761CF0B20228B7
S1138310D5DBF1BD70B50446DFF83834E089668AF0
S11383202568024670432E18A06906F1080105F07D
S1138330A5FDA06905F0C4FC012803DDA0690021A6
S113834005F0F4FC608AA18A401C90FBF1F201FB69
S11383501200608270BDFEB50446207B68BB606875
S11383600FF259064188084400F10807A0696B46DA
S113837001AA02A905F0A9FC61688A880098019DF8
S1138380121A551B4A88088890420ED26189A06946
S11383908A1A3346394605F0B5FD70B962686189B9
S11383A050886D1A451902F10807A0693346EAB2EC
S11383B0394605F0A7FD00B96073F7BD2DE9F0411A
S11383C0054698460027F9B21C22DFF834035143CE
S11383D04418A369AB4218D160688188414534BF11
S11383E086884646FEF772FD61684A8812FA86F16D
S11383F0628991FBF2F302FB131162685180616898
S11384008A88961B8E80FEF767FD7F1CF8B20228CF
S1138410D9DBBDE8F08138B52020FFF7C9FE054659
S1138420DFF83403A96991F83120012A3FD10169A9
S11384300A0640D504F0A4FB112809D1A86900213B
S113844005F081FC002028732846BDE8324082E70D
S1138450132806D1A869012105F075FC01202873B1
S113846031BD29682A898C88141BA4B25CB101F13E
S11384700802098850542868018800F029F901800D
S11384808188491C8180A86905F077FC20B9E889B6
S1138490A04210DB012105E001280CD1288A844286
S11384A009DB0021A869BDE8344005F03FBCC16C7C
S11384B021F00401C16431BD10B5DFF89C4228B934
S11384C02046BDE81040002104F0B9BA00F00AF8D3
S11384D0DFF820124FF400600860E26C42F00402FE
S11384E0E26410BD0B2053E680B530B9BDE804400A
S11384F00521DFF8640204F0A2BAFFF7F3FFBDE838
S113850002400B2034E6F8B50C461546FFF750FE42
S11385100646306881883289E8B2121A914201DB3A
S11385200120F2BD00270EE0FEF7D0FC316814F8FC
S1138530012B01F1080309885A547F1C31680A8809
S1138540338900F0CCF8AF42EED30020F2BDF8B589
S1138550012804460D4603D9103801D0103850D1F3
S1138560204600F02FF910B9204600F085F800F0FD
S113857081F8064600F07EF821000FD0012C03D0CC
S1138580102C0BD0202C3CD1DFF8D011DFF8D021F7
S11385900160802342600381438109E0DFF8C42144
S11385A0DFF8C411026041604023802103814181CE
S11385B0200018BF102C03D1BDE8F140FDF7CCB862
S11385C0012C18BF202C53D1012C16BF202CDFF80E
S11385D09C010020012C18BF202CB06111D1DFF8C0
S11385E09011DFF89001E961A861A98CF181EB8C0D
S11385F033828B4207D21C21304603F01FFA02203B
S1138600F2BD0120F2BDB26992F8310001280CD00C
S1138610308990FBF1F701FB1700002802BF93FBA0
S1138620F1F001FB10310029E5D12946104604F090
S1138630E5FEF0B9B069017F007E01230222FEF756
S113864038FB287C012808D101212046FFF7E0FDF2
S1138650B069002105F06AFB0AE0002070823189CC
S1138660F08991FBF0F0B08200F0A9F800F0A7F8CF
S11386700020F2BD20469BE558B50128044603D9E5
S1138680103801D0103812D1204600F09BF8E8B918
S1138690204600F071F8FFF7EDFF012C18BF202CE5
S11386A006460FD1B06905F0E4F910B152BD0120BE
S11386B052BDB06990F83110012903D10021204640
S11386C0FFF7A6FD1C21304603F0B8F9002052BD87
S11386D02A89491C91FBF2F302FB13117047521CC7
S11386E092FBF3FC03FB1C220A808A88521C8A80BA
S11386F0FEF7F2BB00E100E080E100E080E200E090
S1138700086D0020F8B50124012807460E461546D9
S113871003D9103801D0103815D1380018BF102FE4
S113872004D129463046FDF7B0FA00243846FFF755
S11387303FFD012F18BF202F05D180692A463146FD
S113874005F01DFB04462046F2BD00003033030053
S1138750097000F0AF82000000000140F86B0020B7
S1138760806C0020286B0020706B00202C69002096
S1138770806200200062002070B50546FFF718FDF6
S11387800646012D346818BF202D0DD1B06990F82C
S11387903110012908D0022105F0DAF90020708295
S11387A000F00DF800F00BF8FEF790FB0021A1801B
S11387B021806180E180BDE87040FEF78DBB3046CA
S11387C0FFF7A8BD80B5012804D9B0F1100101D08C
S11387D0103906D1FFF7ECFC00281CBF0068002804
S11387E001D1012002BD002002BD704720B5002147
S11387F0AAA2CBB2D35C834205D0491CCDB2082DCA
S1138800F7D3002020BD012020BD000020B50021A9
S1138810A4A2CBB2D35C834205D0491CCDB2082DAF
S1138820F7D3002020BD012020BD7248B0F8E2003B
S113883070477148704771480078704770480078F5
S113884070476F490870704738B56E496E4C0870B0
S113885002286E496E4D13D12878042809D00846A1
S113886005F0B0FB287803281EBF0428204605F035
S1138870A9FB68480168CA0054BF9024BC240FE0D7
S113888000200870207005F002FD2878032818BF26
S1138890042802D105F0BDFE01E006F0E1F99124BF
S11388A0204606F039FA50B92346132250A103207A
S11388B0FBF777FD2046BDE8324007F000B831BD34
S11388C05048007800F00F0070474E48017801F0DE
S11388D00F01022901D1012070470020704710B513
S11388E005F08CFC00B305F0D9FCE8B14A4803F06C
S11388F055FFC8B1494803F051FFA8B107F04CF83F
S113890090B106F019FA78B94FF0FF31444805F0F8
S1138910BFFB04464FF0FF31424805F0B9FB8442E7
S113892088BF0446204610BD002010BD10B5044683
S11389303448007800F00F0102291CBF032893205B
S113894092B017D100F098F8BDF8020020819DF88C
S11389500100A07220469DF80010E17208F0ACFA04
S11389600020207304F1140104F1100008F088FBC6
S1138970E081002012B010BD10B50C4621490978E1
S113898001F00F02022A1CBF0329932092B00ED1DA
S11389906A46002108F0B4FD9DF801002070002112
S11389A061709DF8000000F01F00A070002012B05C
S11389B010BD10B5002300E05B1CDCB28C4205D274
S11389C010F8014B9442F7D0002010BD012010BDD7
S11389D0082109F0C3B80B48007801281CBF3128CE
S11389E0332801D1012070470020704700000000A7
S11389F042420000247A0020087B00206D7F002082
S1138A001F7E00206A7F0020EC7000202077002069
S1138A10697F0020F07900201C7F0020FA7E00206E
S1138A20B06500207C70002038B5044692B0214621
S1138A30002000F0CCFA0546C0B250B96A460021C5
S1138A4008F05EFD8DF801406A460021002008F020
S1138A50DDFCE8B213B030BD80B592B000F00CF884
S1138A609DF9010013B000BD80B592B000F004F888
S1138A709DF8000013B000BD6A460021002008F0F4
S1138A803FBD0120704780B592B0FFF7F5FF9DF818
S1138A900000400918BF012013B000BD000102030B
S1138AA004051D200203040508090A0B38B5044611
S1138AB003F03EFE0546DFF8E40783780178994227
S1138AC012D0DFF8DC07006B641E07D0641E08D0E8
S1138AD0A41E06D0A41E032C03D905E000221946C7
S1138AE000E0002209F065F8284632BD2DE9DC4F8C
S1138AF0DFF8AC4703EA010BD4E90A6727EA010966
S1138B0026EA000802EA000A49EA0B0948EA0A08C8
S1138B10B94508BFB0450ED0CDE90023C4E90A89A0
S1138B200246206B0B4609F071FB20B1BDE8DC4F17
S1138B3040F2751119E2BDE8D38F000070B58AB018
S1138B400DF108004DA1DFF858472022FDF718FC6D
S1138B50208CC10700F190800121012000F042FF28
S1138B600A204FF428716073ADF80E10DFF8340753
S1138B700FF21971DFF8305708F0FDFF206318B9C0
S1138B8040F2B91100F08AF8206B052109F060F970
S1138B9018B140F2C11100F081F8206B02F0A1FD80
S1138BA0DFF808070168206B09F0A6FB00F061FA02
S1138BB00C2610FB06F0ADF81A0000F05AFA10FB70
S1138BC006F0ADF8160002A9206B09F0BBFB18B142
S1138BD04FF4EB7100F062F8206BDFF8D41600223A
S1138BE009F03AFC18B14FF4ED7100F057F8032086
S1138BF0052120706170A170002601F007F8E07073
S1138C0000F037FA142110FB01F0A08000F031FAD3
S1138C10C000E080A6604FF0FF30DFF8982640F2F5
S1138C2042330146FFF762FF206BDFF8001B09F0B7
S1138C3061FC206B01A909F0DFFC18B140F20521A9
S1138C4000F02CF8206B0422694608F0C0FF0428C9
S1138C5003D040F2092100F021F86946012009F00F
S1138C60ECFC09F04FFE012000F078FF03F05EFDFC
S1138C7001F047F800F097FD0AB070BD0000000055
S1138C80010000000202020264000000640000000F
S1138C900000000000000B00000000002846FDF763
S1138CA021BA38B5DFF8F845208C820703D54FF494
S1138CB0097100F0C2FA00212176FEF707F9054692
S1138CC0208C410709D509F045FEA16B401A40F2FA
S1138CD0C532904201D300F06DFA00F094FF607B3E
S1138CE0042820D1FEF7F2F80546208C41072BD446
S1138CF000F089FFFEF7EAF80546606B401C09F0B6
S1138D0096FE00F020000128ACBF06200520607309
S1138D10012100F054FA00F09BFF00F074FF606B37
S1138D20C178617431BD062830D1DFF87005C1798E
S1138D30FF2937D109F090FE207C20B3FEF7C6F856
S1138D400546208C410706D504F1180005F03AF9D0
S1138D50284600F055BE00F056FF207C411E2174C9
S1138D60FEF7B4F80446012100F029FA00F070FF80
S1138D702046FEF7B1F8BDE8384000224FF6FF71F7
S1138D80042009F0DDBE6073402007E0012809D10A
S1138D9000206073206B08F014FF3F20BDE83240D0
S1138DA000F000BE31BD70B5DFF8F444607B0E46C0
S1138DB0154618B140F29A2100F03FFA2900666383
S1138DC003D0A17811B1012100E00021202000F09E
S1138DD009FEDFF87C0A01782174002D14BFE07BC2
S1138DE00020A0730420607304F1180005F0EAF871
S1138DF0BDE87040DFF85C0A007805F0E2B92DE9BF
S1138E00F041FEF763F8DFF898548046288CC105DA
S1138E1006D5687B10B900F0C6FC01E000F08AF8C2
S1138E2000210020FFF742FEDFF87064B079FF27CD
S1138E30FF2818D0B07928B9B7710024687B0528B9
S1138E4011D105E0B079B77101280CBF4C2433244B
S1138E50002068734046FEF73FF8204600F0A2FD6C
S1138E60FEF734F88046687B062833D1F079FF2872
S1138E7030D0F079022804D105F1180005F0A2F8E9
S1138E8028E0F07900281CBFF079012826D100F0F1
S1138E90C5FD0446F079012818BF00200021002CEC
S1138EA0297618BF0028F77109D00120687364215E
S1138EB005F1180005F091F800F04DFC0BE0697322
S1138EC04046FEF709F8002C14BF3F20002000F0B4
S1138ED069FD03E0F7714046FDF7FEFF288C0006AC
S1138EE0C00F05D00021802000F07CFDFDF7F6F8CE
S1138EF0FEF7E5FE00246884D0B1687B012806D122
S1138F000021002029766873012408F035FC687B71
S1138F1008B900F048FC698C002008F065FC0020CA
S1138F2068842CB1687B18B9BDE8F04108F058BCDE
S1138F30BDE8F08100214FF4807000F053BD80B58E
S1138F40FEF7CBFE80E080B5FEF7B9FE0028FBD12A
S1138F5001BD80B500F019F809F06FFA20B1BDE841
S1138F6004404FF4697100E001BDDFF83C03FDF7F4
S1138F70B9B880B500F009F809F050FA20B1BDE89D
S1138F80044040F2AB31F0E701BD10460A46DFF879
S1138F90C8380146186B7047C148417B481E804160
S1138FA0C00F7047DFF8B008417B012901D10120CF
S1138FB070470020704780B5B949487B18B140F22A
S1138FC0CB3100F03AF900F0EEFB002002BD80B591
S1138FD0DFF88438186B0A2211FB02F109F052F908
S1138FE000B1212002BD80B5DFF86C18086B09F0D0
S1138FF06CF90A2190FBF1F040B202BDA748007958
S1139000704738B5A64D687B002818BF01280C4668
S113901003D04FF47B7100F010F92146002000F0DA
S11390200EF808B9212032BD9C490C71687B10B937
S113903000F0B9FB01E000F08EFB002032BD80B5EA
S11390409748006B08F06EFF401E8041C00F02BDC0
S1139050DFF80418C870704780B5DFF8FC27106B80
S1139060012108F06EFE411000EB9170800500169E
S113907002BD80B58A49086B08F007FF00281FBFAE
S1139080DFF82C1CB1FBF0F080B2002808BF0120EF
S113909002BD80B58249086B08F0FBFE00281FBFA3
S11390A0DFF80C1CB1FBF0F080B2002808BF0120EF
S11390B002BD10B50C46012100F020F8FFF7D9FFDE
S11390C04443DFF894070FF20523006B0122214685
S11390D008F0E2FD002010BD10B5DFF87C47208CBD
S11390E0C20603D440F2594100F0A7F800F005F895
S11390F0206BBDE8104008F0DCBD0021102000F01A
S113910071BC09F027BC10B5DFF84C47206B09F09F
S113911062FAC00704D5206BBDE8104009F060BABC
S113912010BD80B5DFF83007006B0122012108F083
S113913044FD00212C20FFF7B9FC00F0FBFAFEF7F8
S1139140F7F9BDE80240002000F039BC38B5544CB2
S113915048B100F02FF8607B01282AD1206BBDE8CC
S1139160324008F02EBD00F0E3FA10B30020A073E3
S11391704A4DA879FF2803D040F2EB4100F05DF896
S113918000F01CF80020A871617B062906D101219A
S113919000F079F800212820FFF788FC607B05287F
S11391A006D100212B20FFF781FC206B08F009FD7C
S11391B064E031BD0021042000F014BC0021022031
S11391C000F010BC38B50C4610B1FFF7F3FF29E0EE
S11391D000F0AEFA30B3012C314D14D1A87B90B11C
S11391E0401EA873C0B218B90021202000F0FAFB79
S11391F0FFF7E4FF0420687305F1180004F0E2FEB1
S113920000F090FA10E00020A873FFF7D7FF234D79
S1139210A879FF2803D040F2225100F00EF8AC7177
S1139220FCF75BFF012C07D1BDE8384000224FF664
S1139230FF71202009F084BC31BD1B48FCF752BFEC
S113924038B5174D184C6A7B062A03D040F25F618B
S113925000F004FB082000F0D7FB18B94FF4CC61F0
S113926000F0FCFA297C2A20FFF720FC00F00AF821
S11392700A490220C871286B08F0A3FCBDE83140FC
S1139280FCF72BBF00210820ACE30000DFF8A41A90
S11392900020487301214FF48070A3E38C63002005
S11392A0A8680020A06300205C9D00006863002083
S11392B0147A00200A0020FF01A0FCF713BF00006D
S11392C06C69627261696C2E6100000080B51020C7
S11392D000F09AFB18B940F28161FFF7AEFFFFF787
S11392E00CFF002008F038FBBDE80140FCF7F5BE98
S11392F02DE9F84F144614F0C00F8CB0054698467B
S113930005D000F0D7FC01460120FFF7CFFBA002F7
S1139310029525D5284609F0A0FC08BB00F012FAF6
S1139320029803A909F0BCF8D0B99DF814000228EA
S113933009D1BDF80C0009F07BFDFF2809D009F024
S1139340DBFD30B90CE003280AD103A809F03FFF84
S113935030B1029809F0A2F810B9012100F0F3F934
S1139360A00305D500F0A6FC01460320FFF79EFBF1
S1139370E001DFF8E45403D50020FFF7E7FE38E00E
S1139380687B18F0020308D006280CBF01210021D5
S11393902620FFF78BFB012112E0E10005D506280A
S11393A00CBF01210021262007E014F0884F0BD0C8
S11393B006280CBF012100212720FFF777FB02219B
S11393C00020FFF7FFFE14E018F0080103D000218D
S11393D02320FFF76BFB18F0040103D000212420A5
S11393E0FFF764FB18F0010103D000212520FFF7EB
S11393F05DFB21070FF664196DD5286B07AA0321BD
S113940009F074F806004FF0000A03D140F242510B
S113941000F09BF99DF81C00072867D1286B03AA6C
S1139420314609F06BF818B140F24C5100F08DF957
S1139430BDF81E10286B891C03AA89B209F062F8D2
S113944018B140F2565100F080F9CDF800A0042381
S1139450286B01AA314609F06FF8042803D040F2C2
S11394605D5100F072F90DF1050009F0E0FA00F029
S113947007000228DFF8C0B82ED100F01BFC01461B
S11394800920FFF713FB687B062802BF9DF807003D
S1139490697C88421FD19DF8150018B940F26E51BD
S11394A000F053F90DF1050009F0C1FA00F01000C5
S11394B00028C8BF4FF0010A51462920FFF7F6FAE9
S11394C0FFF7E0FE8BF807A000F0A8FA002802D10D
S11394D0286B08F076FB90E0BDF81E0008300121EF
S11394E080B2FEF77BFBADF8000030B900F0E2FB80
S11394F001460420FFF7DAFA7FE0FEF7B4FABDF87C
S1139500202009990646FCF73BFF0A9941B1BDF8B2
S11395102000BDF81E20121A92B23018FCF730FF5A
S1139520701C09F084FA00F0200000282EDD00F001
S1139530C1FB0746286B09F090FB002814BF0620E6
S113954005203946FFF7B2FA701C09F070FA00F0F2
S11395500700032809D10922012130460AF0C6F880
S1139560305C042808BF012700D000270121FFF741
S113957022FE09F0EFF9A863A7B1402000F044FAF5
S113958080B100F0DFF84FF0010A0BE000F092FB2D
S113959001460920FFF78AFA687B012804BF286B7B
S11395A008F00FFBBDF81E009BF805103718397042
S11395B0FF219DF81600B8709DF81700F8703971F6
S11395C00398000C78710398000AB871BAF1000F7F
S11395D00398F871707814BF40F0200000F0DF00A9
S11395E07070002008F07BFA7870BDF80000FEF778
S11395F057FB00F097F8FCF770FDE00505D500F087
S113960059FB01460420FFF751FA14F4863F05D0B4
S113961000F050FB01460220FFF748FAA00108D5EC
S113962000F048FB01460820FFF740FA0120FFF74D
S11396308DFD14F0084F05D000F03CFB00F07EF8DF
S113964000F086F8A00007D500F034FB01460620A0
S1139650FFF72CFA00F07CF8A00705D5082000F0ED
S1139660D3F908B1FFF7ECFD18F040010DD000F07C
S113967061F8082000F0C8F908B1FFF7E1FD042003
S113968000F0C2F908B100F063F818F080011CBFC3
S113969001200AF083F818F4807139D0029808F098
S11396A086FA022802D0032814D02DE0042000F00A
S11396B0ABF928B100F0FEFA00F040F800F048F8E9
S11396C000F036F820B3687B06280CBF0121002186
S11396D0272012E0042000F097F928B100F0EAFAFC
S11396E000F02CF800F034F800F022F880B1687B28
S11396F006280CBF012100212620FFF7D7F90121FC
S11397000020FFF75FFD03E040F2177100F01DF841
S113971018F4007103D00121802000F063F90DB02A
S1139720BDE8F08F4B48007804F04BBD639A00000D
S1139730022069E100210A20FFF7B8B90146072099
S1139740FFF7B4B9002140204CE14846FCF7CABCFD
S1139750FF21012036E57FB5684600210022002361
S113976080E80E00DFF8D045DFF8C86525788DF86D
S11397700050FDF7ABFB054660792179884204D19E
S1139780306B08F018FA01280AD1217961716A4610
S1139790306B08F0C9FA18B140F2FA71FFF74DFDC9
S11397A000F031FA7FBD70B50020FFF7F5FB0FF232
S11397B0AC5418B940F65B0100F050F8FDF786FB95
S11397C00546062000F020F918B10121FFF7B3FB8C
S11397D03BE0FFF7AFFB002008F06CF902281E4EB7
S11397E002D1306B802208E0002008F063F910B148
S11397F001280DD025E0306B0022802109F0D2FF32
S1139800012000F0DCF8FDF795FEFFF7A4FF1CE053
S1139810306B08F0D6F9306B08F0CDF901280AD086
S1139820306B0122012108F0C8F900212C20FFF738
S11398303DF9FFF77FFFFDF77BFE002000F0BFF846
S113984003E040F68A0100F009F82846A5E100008B
S1139850D8670020627F0020A86800202046FCF71B
S113986041BC2DE9F84F012009F0F2FFFFF760FF3A
S113987000260FF2E84818B940F6980100F08FF876
S1139880DFF8B054687B062818BF052803D040F6DB
S11398909B0100F084F8686B18B940F69D0100F054
S11398A07EF8202000F0B0F800281ABF4FF47A7632
S11398B0012100212220FFF7F9F8FFF7EAFB696B89
S11398C00A780932504306EBC006687B06280AD1A1
S11398D0FFF7CFFB8346FFF7DCFB60210C244843F2
S11398E004FB0B0B5E446C6B2078A0F1010BE87C4D
S11398F04FF0000948B9601C09F099F800F0200005
S11399000028C8BF4FF0010A00DCCA46DFF82874FB
S113991078783872B6B2BAF1000F3E6118BF4FF0D2
S1139920010909F091F838B109F08CF801280CBF4D
S11399300820102040EA0909286B80235FFA8BF283
S1139940214608F0B9FD3E797E7120202C6B00F091
S11399505BF8B0B107F1080000902B464A46314647
S1139960204608F0BCF938B15146262002F0E0FE4A
S113997040F6540100F013F8BDE8F24F002009F05E
S113998067BF07F108034A463146204608F097F9B5
S11399900028E8D100212520FFF788F8ECE74046AD
S11399A0FCF7A0BB10B50446FFF7FDFE21460020DE
S11399B007F0E2FEBDE81040002007F011BF10B52B
S11399C00446002008F076F801280AD1DFF86C0379
S11399D00278944205D004702046BDE81040FDF79B
S11399E0B2BD10BD38B504460D46FDF76FFADFF879
S11399F044130A8C002D14BF144322EA04040C847B
S1139A00BDE83240FDF768BA0146DFF82803028C4E
S1139A1011EA020018BF0120C0B2704710B5DFF888
S1139A201443606B18B940F60211FFF706FC606B33
S1139A30401C08F0FCFF00F0070003280AD1606B0B
S1139A400922012109F052FE616B085C042801D14E
S1139A50012010BD002010BDDFF8E4124008085CAE
S1139A60704710B50C464FF0FF3009F0FAFEDFF8EE
S1139A70C412241A086B09F0F4FE241A14F1630FBB
S1139A8001DA002010BD14F1240F01DBFF2010BD0A
S1139A9064342402601104EB9064A404200E10BD0D
S1139AA080B5FFF772FA08F0D7FC28B1BDE804408E
S1139AB040F64A11FFF759BA01BD704780B500F06E
S1139AC004F9012801D0012002BD002002BD10B517
S1139AD0DFF860324C000146186B224608F077F834
S1139AE0A04201D0002010BD012010BD042801DBDC
S1139AF002207047DFF83C12C87300207047DFF87B
S1139B003802DFF830320179186B012208F0FDB811
S1139B100BE0DFF82402DFF81C320179186B002215
S1139B2008F0F3B80000000000BFDFF80802006B83
S1139B3008F0F5B810B50446DFF8F801018CCA073F
S1139B400BD5611E8941006BC90F08F094FC2000FD
S1139B50DFF8F01118BF0120087010BD70B5DFF8F0
S1139B60E8510646FDF7B2F92E700446DFF8C461E9
S1139B70308CC10710D5307B022804DA28B102F0FA
S1139B80CBFDC00501D5012103E02878411E8941A0
S1139B90C90F306B09F058F82046BDE87040FDF756
S1139BA09BB90020704738B57F28044611D14FF681
S1139BB0FF70664D2988ADF8000002237F226846B5
S1139BC009F0B7FEBDF800006FF04A04C10558BFA4
S1139BD00446FDF77BF905465B4844700120FFF716
S1139BE013FF68B1534A107B08B16FF07F04106B08
S1139BF061B208F01DFB18B140F6BD21FFF71DFB53
S1139C0000F001F831BD2846FDF766B910B54E4C99
S1139C1094F901107F2904BF7F20FFF7C4FF94F952
S1139C20010010BDF2E7434A117D002900D07047BE
S1139C3080B501231028137503D040F6E121FFF706
S1139C40FCFA00212020FFF7CDFEBDE8014008E624
S1139C5038B50220FFF7D8FE0FF2001418B940F609
S1139C60EA21FFF7FBFD334D687B062818BF052862
S1139C7003D040F6EC21FFF7F1FD686B18B940F60C
S1139C80ED21FFF7EBFD002028752120304902F07B
S1139C904FFD10B9BDE83140E3E5012807D00228A3
S1139CA005D1BDE8344002210020FFF78BBA31BD55
S1139CB040420F0080B500F008F800F003000328CC
S1139CC001D1012002BD002002BD1A48006B07F03B
S1139CD072BF38B502F02AFD0024002510B11D4CD6
S1139CE00D2505E0144801788078814218BF1A4C8C
S1139CF022462B4601B0BDE8304016480D21FEF740
S1139D00F5BE38B50B4D0446288CC10710D5FFF7B6
S1139D10E0FF002C14BF00220822286B082109F060
S1139D2041FD28B1BDE8344040F67C31FFF71DB950
