:1000000000000120630200001902000089050000C1
:1000100000000000000000000000000000000000E0
:100020000000000000000000000000001D020000B1
:1000300000000000180F00001F0200002102000055
:100040002302000025020000270200002902000010
:100050002B0200002D0200002F02000031020000E0
:1000600033020000350200003702000039020000B0
:100070003B0200003D0200003F0200004102000080
:100080004302000045020000470200004902000050
:100090004B0200004D0200004F0200005102000020
:1000A00053020000550200005702000059020000F0
:1000B0005B0200005D0200005F02000061020000C0
:1000C000354936480A1A02D0072291438D463449F1
:1000D00034480A1A06D00722914381F30988022284
:1000E00082F3148830483149314A00F043F83148EE
:1000F0003149324A00F03EF831483249324A00F084
:1001000039F832483249334A00F034F8324833493A
:10011000334A00F02FF833483349344A00F02AF8C4
:1001200033483449344A00F025F834483449002231
:1001300000F02BF833483449002200F026F8334809
:100140003349091A082903DB0022026004300160E8
:100150001F482049884205D00268043003B4904704
:1001600003BCF7E700208646EC4600200021294A20
:100170009047FEE7884207D0521A05D00378013035
:100180000B700131013AF9D17047884202D00270F8
:100190000130FAE7704700000000012000FC002059
:1001A000000001200000012060B30000E8010020F1
:1001B000EC0100207402000074020000180F00001F
:1001C00078B1000000000020E8010020180F0000B6
:1001D000180F0000180F0000180F0000180F000083
:1001E000180F0000180F0000180F000078B1000071
:1001F00064B30000EC010020EC010020EC010020C1
:10020000BC060020BC060020BC060020BC06002066
:10021000BC0A002075020000FEE7FEE7FEE7FEE7ED
:10022000FEE7FEE7FEE7FEE7FEE7FEE7FEE7FEE7A6
:10023000FEE7FEE7FEE7FEE7FEE7FEE7FEE7FEE796
:10024000FEE7FEE7FEE7FEE7FEE7FEE7FEE7FEE786
:10025000FEE7FEE7FEE7FEE7FEE7FEE7FEE7FEE776
:10026000FEE70348854600F027FBFFF729BF7047EC
:040270000000012069
:1002740010B58CB04FF0FF34039400F0E3F902940E
:10028400019404A800F035FA01AA02A904A800F018
:100294006DFA019A0299394800F05CF9384B1B68F1
:1002A4001B68A34209D0374800F054F9364A136951
:1002B40023F00403136130BFF9E704A800F019FA2E
:1002C40003A904A800F080FA039921F07F412F4884
:1002D40000F040F9039B23F07F4323F0FF034BB965
:1002E4002B4800F037F9284A136923F004031361FB
:1002F40030BFF9E7274BDC682146274800F02AF98C
:10030400039B23F07F4324F07F44A34209D3234873
:1003140000F020F91C4A136923F00403136130BF71
:10032400F9E704A800F0E5F91A4C214604A800F006
:10033400F1F901461A4800F00DF904A800F0D9F9C2
:1003440000F062FA042217490D4B186800F0DAFD38
:1003540000F066FA214604A800F0F2F901461248BA
:1003640000F0F8F804A800F0CEF900F06DF9064AA0
:10037400136923F00403136130BFF9E75C0F000035
:10038400E8010020780F000000ED00E0BC0F000041
:10039400D40F00009810000018100000381000005E
:1003A40064100000580F00007C1000000369C1684D
:1003B4008B4204D882681A44013A501A7047013BB0
:1003C400581A70472DE9F843054688461646C4680E
:1003D400D0F80890A9EB0407974207D94068204455
:1003E40000F098FA3444EC60BDE8F88340683A467B
:1003F400204400F08FFA3444A4EB0904224608EBAD
:100404000701686800F086FAEC60EDE72DE9F8432F
:10041400064688461746C5684FF000093469A54268
:1004240024BFB268A418013C621BB3685C1BBC42C5
:1004340028BF3C46944228BF144670682246414671
:10044400284400F067FAA144A0442544B368AB42B1
:1004540008BF0025F5603F1BE0D14846BDE8F8839E
:1004640010B5114C022323616361104AA261104B41
:10047400E3614FF4806323620023A3626362E36257
:10048400A2640C4AE26410222265A3656365E365F5
:100494000949E01D00F09AFA0849204600F096FA4E
:1004A4002023A37110BD00BFEC01002040B1000067
:1004B40074020020640200204CB1000050B100001E
:1004C400F8B50F461646194A431C03EB430302EBE7
:1004D400C30400EB400002EBC000C56A012D11D03B
:1004E40025B1022D1BD000252846F8BD2046FFF774
:1004F4005DFFB042F8D3324639462046FFF762FF2B
:100504003546F1E72046FFF751FF3546864228BFBE
:1005140005462A4639462046FFF754FFE4E73246AB
:100524002046FFF773FF0546DEE700BFEC0100201D
:1005340070B504460D461646054B1B782BB1324662
:1005440029462046FFF7BCFF70BDFFF789FFF6E799
:10055400EC0100200FB410B5A2B024AB53F8042B67
:100564000193802102A800F0C7F90446024602A9BB
:100574000020FFF7DDFF204622B0BDE8104004B0A4
:10058400704700001EF0040F0CBFEFF30880EFF378
:10059400098000F001B800BF20490B88204B1A687D
:1005A400204B1A62204A1278D2B283F824201F4AC0
:1005B4001278D2B29A621E4A1268DA621D4A12880E
:1005C40092B21A860A8892B25A631B4A128892B26D
:1005D4009A631A4A128892B2DA63194B00221A609B
:1005E4001A461368002BFCD002680E4B1A6042684E
:1005F4005A6082689A60C268DA6002691A61426964
:100604005A6182699A61C269DA610D4B00221A60EB
:100614001A461368002BFCD0704700BF2CED00E095
:1006240024ED00E07406002028ED00E029ED00E050
:1006340038ED00E02AED00E030ED00E03CED00E0B4
:10064400B40600200020704700207047B0F5A02FAA
:100654002AD00CD9B0F5202F2ED01CD8B0F5C02F3D
:100664002CD0B0F5E02F0CBF212001207047B0F54D
:10067400003F1BD006D8D8B1B0F5803F0CBF48204E
:1006840001207047B0F5403F14D0B0F5802F0CBF67
:100694004B2001207047B0F5302F11D0B0F57F0FFB
:1006A4000CBF062001207047012070472A207047A4
:1006B400002070472C20704710207047012070479D
:1006C4001120704788B108B500F0CEF84FF0984279
:1006D400536C13F4801FFBD04FF09843586D10F403
:1006E400702004D0FFF7B2FF02E021207047002001
:1006F40008BD30B108B52022002100F034F90020F3
:1007040008BD2120704718B108B5FFF7F2FF08BDF6
:100714002120704770B110B5044669B1074B0360DE
:10072400002343608360C36100F095F82046FFF71F
:10073400C9FF10BD212070472120FAE700000243C1
:1007440070B110B5044669B1074B036000234360E0
:100754008360C36100F07FF82046FFF7B3FF10BD4C
:10076400212070472120FAE70000034308B370B545
:1007740086B0044601B30AB316460D46104B036017
:10078400002343608360C36104AB0193012302939C
:100794000C4B039301A900F051F82046FFF792FF98
:1007A400034618B9049A2A60059A3260184606B0BE
:1007B40070BD2123184670472123F7E72123F5E76D
:1007C4000000044308000020B0B110B584B0044612
:1007D400A1B10B4B0360002343608360C3610191AB
:1007E40001230293074B039301A900F027F8204645
:1007F400FFF768FF04B010BD212070472120F9E7FE
:100804000000084304000020044B41F67132DA630F
:1008140042F20C0201219950704700BF00000340CE
:10082400054B41F67132DA6342F20C020121995010
:100834000022DA63704700BF00000340836843B1BD
:100844005A68012A03D05B685A68012AFBD15960AF
:10085400704781607047C369032B04D800EB83029F
:10086400D1600133C3617047C169042921D84FF0B5
:100874009842136C13F4801FFBD0043189004FF0AD
:100884009843196502681A6042681A6082681A609F
:10089400C36973B110B400F10C0200234FF0984403
:1008A40052F8041B21600133C1699942F8D810BC85
:1008B40070477047014A024B9A607047000000007D
:1008C40000ED00E038B504460846A26842B123684A
:1008D40061685D1C8D4208BF00208B4208D2D05451
:1008E400E3682BB121686268914201D2214698479E
:1008F40023680133236038BD10B584B014460290D8
:100904000022039201911A462146684600F080F8BD
:1009140004B010BD844640EA010313F0030F18D15C
:100924008446202A0BD32DE9F007B1E8F807A0E8A4
:10093400F807A2F12002202AF7D2BDE8F007042A22
:1009440007D351F8043B40F8043BA2F10402042A03
:10095400F7D2002A05D011F8013B00F8013B013A17
:10096400F9D1604670478446002A2DD010F0030F59
:1009740004D000F8011B013A26D0F7E7C9B241EAD6
:10098400012141EA0141202A12D3A2F120022DE9DA
:10099400F0030B460C460D460E460F468846894624
:1009A400A0E8FA03203AFBD2BDE8F00320320BD0D2
:1009B400042A05D340F8041B043A05D0042AF9D2CA
:1009C40000F8011B013AFBD160467047024610F063
:1009D400030F16D111F0030F13D12DE9F0004FF0DE
:1009E40001374FF0803351F8044BA4EB070525EA97
:1009F40004051D4002D142F8044BF4E7A1F10401BF
:100A0400F0BC11F8013B02F8013B002BF9D170470F
:100A14002DE9F04F89B007460D4603920023036089
:100A2400DFF8D893DFF8D8B3DFF8D8A348E2002280
:100A340009E0202804D0232818D142F0800201E0E4
:100A440042F040022E46354615F8010B272807D000
:100A5400EFD92B2807D05E2808D142F48052F1E761
:100A640042F40042EEE742F02002EBE774280BD098
:100A74007A2809D0682809D12878682800F083806A
:100A8400B51C42F0040201E02878B51C78287FD810
:100A9400DFE810F02E027E007E007E007E007E00E5
:100AA4007E007E007E007E007E007E007E007E0052
:100AB4007E007E007E007E007E007E007E007E0042
:100AC4007E007E007E007E007E007E007E007E0032
:100AD4007E007E007E007E007E007E007E008B0015
:100AE4007E007E007E007E007E007E007E007E0012
:100AF4007E007E007E007E007E007E007E007E0002
:100B04007E007E007E007E007E007E007E007E00F1
:100B14007E007E007E007E007E007E007E007E00E1
:100B24007E007E007E007E007E007E007E007E00D1
:100B34007E007E007E007E007E007E007E007E00C1
:100B44007E007E00CD007E007E007E007E007E0062
:100B54007E007E007E007E007E009000E1007E002C
:100B64007E007E007E00E1007E007E007E007E002E
:100B74009800DA00B9007E007E00A9007E001D0105
:100B84007E007E00CF0042F00802687802357DE7DF
:100B9400994B1E68002E00F0938103AB01934FF034
:100BA400FF3300933946B0478AE125213846FFF7E1
:100BB40089FE85E1039B1A1D039219783846FFF7D5
:100BC40081FE7DE112F0080F06D03A68039B191DDF
:100BD40003911B681A7073E1039B1A1D03921B682F
:100BE4003A681A606CE1039B1A1D03921C68217811
:100BF400002900F065813846FFF764FE14F8011FF0
:100C04000029F8D15CE1039B191D03911B6802F0D4
:100C1400800100290CBF0026232642F48071002B9A
:100C240040F0CD8030238DF814300124F9E042F4F3
:100C3400005212F0800F57D043F2780643F2580363
:100C4400782818BF1E4643E002F08003002B0CBF37
:100C5400002630263CE042F48041039B1C1D039493
:100C64001B6812F0040F41D112F0080F3FD0DBB221
:100C740012F0200F40F03F8112F0400440F03D811B
:100C84005838202800F20F81DFE810F097000D019A
:100C94000D010D010D010D010D010D010D010D01E0
:100CA4000D010D01DC000D010D010D010D01DC0034
:100CB4000D010D010D010D010D01AE0097000D0197
:100CC4000D010D010D01DC000D010D019700002641
:100CD400039B191D03911B6812F0040F54D112F0E9
:100CE400080F18BFDBB250E00026F1E71BB2002B5F
:100CF400BEDA5B422D265838202800F2D68001A2A5
:100D040052F820F0230C0000AF0E0000AF0E0000DC
:100D1400AF0E0000AF0E0000AF0E0000AF0E0000DB
:100D2400AF0E0000AF0E0000AF0E0000AF0E0000CB
:100D3400AF0E00003D0E0000AF0E0000AF0E00002D
:100D4400AF0E0000AF0E00003D0E0000AF0E00001D
:100D5400AF0E0000AF0E0000AF0E0000AF0E00009B
:100D6400EF0D0000230C0000AF0E0000AF0E0000DA
:100D7400AF0E0000AF0E00003D0E0000AF0E0000ED
:100D8400AF0E0000230C00009BB2583820287ED8F8
:100D9400DFE800F0117D7D7D7D7D7D7D7D7D7D7D28
:100DA400517D7D7D7D517D7D7D7D7D2B117D7D7D85
:100DB4007D517D7D1100114631E700262FE705AAFC
:100DC400002401F4005008E003F00F011BF801C0F7
:100DD40002F801CB01341B0923D00028F4D003F01E
:100DE4000F011AF801C0F3E700266BB930238DF820
:100DF4001430012415E000BFB8060020CDCCCCCCC3
:100E040058B1000068B100001A4605A9002403F097
:100E14000703303301F8013B0134D2081346002A9A
:100E2400F5D1FF2E35D8C6BB002C49DD0DF11408D1
:100E3400013C44443CE0114633B930238DF814306E
:100E44000124EEE70026F7E7002401F400404FF008
:100E54002C0E10E008AA02EB040CA9FB0321C9081C
:100E640001EB8102A3EB420230320CF80C2C01346A
:100E7400092BD6D90B460028ECD004F00302032A30
:100E8400E8D108AA224402F80CEC0134E2E7002479
:100E9400C7E7310A3846FFF715FD06F07F013846EB
:100EA400FFF710FDC0E70026BDE70024F5E7344650
:100EB400264616F801193846FFF704FD4445F6D1D5
:100EC4002E4616F8011B39B125293FF4B0AD38463A
:100ED400FFF7F8FC3546F3E7BB682BB13A6879684D
:100EE4008A4201D200219954386809B0BDE8F08FD4
:100EF4004FF0FF30F9E72B26FDE62026FBE600BF86
:100F04000000000001B40248844601BC604700BFF1
:040F1400790100203F
:100F180013B779FAC925DDB7ADF3CFE0F1B614B848
:100F280001010000000000000000000010000000A7
:100F3800000000000000000053455F555047524133
:100F480044455F41505000000000000000000000D0
:100F58000000000050726576696F757320757067C0
:100F680072616465202564202564210A0000000060
:100F7800557067726164652077617320616C726572
:100F880061647920617474656D70746564206F6E36
:100F980063652E2052657175697265206D616E7585
:100FA800616C20696E74657276656E74696F6E2EF9
:100FB8000A00000063757272656E7420766572733C
:100FC800696F6E202564210A00000000496E2070B8
:100FD8006C6163652075706772616465206F662057
:100FE8006669726D77617265206561726C69657298
:100FF800207468616E2076302E312E30206973207F
:101008006E6F7420737570706F727465640A000077
:1010180076657273696F6E20696E2075706772618C
:1010280064652066696C652030782578210A00009F
:10103800446F776E67726164696E67206E6F7420A3
:10104800616C6C6F7765642C20736B697070696E66
:101058006720757067726164650A00005665726979
:10106800667920726573706F6E7365202564210A36
:1010780000000000757067726164652072657370A6
:101088006F6E7365202564210A000000FFFFFFFFD3
:10109800EB17A65E9DA0000000A000000902010059
:1010A800010100008E9F9549C2BF8B0BB89FD0F3FA
:1010B800F44A8EC0FC494FE4028E1550AF838EF47B
:1010C80041C05170147C431B16048D4CF4E596897D
:1010D8007D740BA2835EFF9CC5AC5192D201D0FDFA
:1010E800232DDAD501A1E42332D11C1A4AE117A233
:1010F800A339ADA200F0A8794AD4D51CE97E945A48
:10110800DCAC4B8083EEDB05EE0DC428D66E94C1B3
:10111800F3B9EFF0855B69F2F30A84A2B62A98D294
:101128008EE9FE9339B41CC5CDC881DBA0D0879366
:10113800EBB8BB1807DDB6F93068D007C8B0AD41C9
:101148002FF879193DF05CC10E6FEB7B24E9EAFCBE
:101158009936A123155563CCA3A1C0BE8ADC186DAE
:10116800ED0AB60D3736EE5D5B7045CD748F59A12B
:101178004F29FCFBE123109BE101EDE5A12C70EC6C
:1011880000A294F46A0E44DDF6241620481FB20229
:101198001F8FAC324879A9EFDE5B9E18FDD57CEA3B
:1011A800A31B4B69FF812616F06332A1DCB92C38EA
:1011B80089DA90BCC8F83B0809E962AF129277EF68
:1011C80097BE98698556532295D971841368A6618C
:1011D8007E0AA553244E32E7646D8DDFE3EEF69C5C
:1011E8001A19DEEA183C632CE1E23277A1D0F3C881
:1011F80004DCE4B1A0C0F4303AD660A679B1EC457D
:1012080044315DFB7D598A8268C1EE03D6284BD9EB
:10121800B3B3271796DF433A9D6BCA571593BF039D
:101228006E5AC53DB91A88CB09B1A9CA04886FA3FB
:10123800CCC63AC59DB5CBE0B9C1A446C1F0C9B288
:10124800F9C42B30FB25BF8514828B4888E07EE7E4
:10125800EBF08C9B5FD1184E03EE7DAA198A63537D
:10126800DCE3CDC3FB4D1F3B82C8E136C223E85106
:1012780050F527943576E242CDCB2BD7635F55C71F
:101288009E6F92AD9F50A4837537984B7506C679AB
:10129800CC9FFBF31BE87BA67D9C9100BDEFFE3045
:1012A800F590AC6368A3D0F27FF1D99AF42D2D5D47
:1012B800AB191F3EB944BB82EED2970C913B606AD2
:1012C8006A9E2072DDB2C7E67337621AD23898E197
:1012D8008914D3E1F03E06C4A63A66D346F92A0A31
:1012E8000B1A2608EE3086B4EC77D8AE677F0D0D62
:1012F8003DA33845695D554FA3DFE5C2C731019964
:1013080092D16B94899634186BA997E711B94C3927
:10131800A4D08E8C44E17A951622F26149F89CB3E8
:1013280013CE664C0E550ECA7B08F78D45B2A9BC84
:101338003872D97E2AE60F2D5543D09A4839FD6276
:10134800C46F9EAC425A3A41D19EE16E4706A27ED6
:101358008AD82ED88913C546CFA89B9AAC94C2FBCD
:10136800B3D34ED68B1559B1C0AA498ED51036586D
:10137800063179B2F504CFE96319AD4B7612697F6E
:10138800686B9F1E180C509B989A8B0730253EDB84
:1013980054173C32629BECF64B8C0C9DEACB418B8C
:1013A8006227B0A18A28A798B8F49FD6CA5733DB1A
:1013B8007BE0C160E7CDBFC139318937072D18B748
:1013C800B4B008BA53DCD5AC84E26BF1124385485B
:1013D800C5A39C6EE4FF59E2A15C98090DE64A1189
:1013E80072B9A81128E07A71D57F24AB46FE938B99
:1013F8004D5206C03CD4880898F9E983DDFF35F6DC
:10140800EBCB0807FDD17EE720B2855FDACE122547
:10141800EA6DB772808D214E49500C17ED8EB3D707
:1014280061D81DC47EAB6AA9C49D89B13900C3BE09
:1014380035DD54AD5BED0422382BC4D4A66B1C9C5F
:101448005CF5DA238BCC3038C8F5454FAD08CB0FA7
:10145800F66DDF42F7B55F5CAEC29CDF1541D6A9D9
:10146800A983E8AF46120E6BB6EB67C6FF014C685E
:101478002F207C12428C4044C7FA2A52002F8782C0
:10148800F309100795B558D12DF9F8CF20D8A251F6
:10149800CDE4F69BC52F9DDA76D8E28F35FC82F134
:1014A800759B99A40F502E73E3125797C6445C613D
:1014B80059E678277B6B4F4DF293C6BC49D1D9B713
:1014C800BDF05A72DC5C839E3E4DD90E173AD7F5B3
:1014D800A205C7BDA243FBABAD48ECF8B0C55F742D
:1014E800A6956CF9D581333D9DA4E103927A59FF05
:1014F8008E2DED7262858B629691A63621A28C455F
:101508008394AFDE29328EA5ED15B73CD8E69FABA4
:101518002E8F3A2200B924988E21BE3EDE77B70C72
:10152800C091EFA20F476FDC47740DA62AF5F1189A
:1015380003C7B7B3DB1D164030681ED1DA655AC938
:10154800568C7ACF498237558558D4D12AA3D8B238
:101558008195330169C93FBB90D00C4D8F6A0969E9
:101568005B00988B6258DF193574A3614AD897B02D
:101578007C8D46BE07E8F495DBC9B45BD0A393F92C
:10158800B3DA2E8965DE6F404B820B0EDF45D83704
:1015980032FF7B082B2979298CD2A7E554C57BCA51
:1015A800B1BA05C145C63EB554576222D801CD2C03
:1015B800B583D08BFA529CE7770A194BD4A3ABA614
:1015C8002991B16693A6FE9934EDAE8B307F6721E1
:1015D800997077BAE40F0D34C270AA4FB760DC3047
:1015E800D2C4DD666E872128247BD38D970075BD14
:1015F80046A9BE838C1123A2F7371263C9D91006F6
:10160800D63658899B4938773A616F7171CD89947C
:10161800691DA667D8E4FC4E2C0E6D15DBA6E5C047
:101628003576A1B463F91685848D67FF229E1CE187
:1016380042340977607C1E75DD14D73F68CDEF070B
:10164800C4F0494F7CAC5CA544F5A1D396D2E04ADE
:10165800F52D945BA5F69FA97622010D6C31A47235
:10166800A40918F198A08CF3D9A0DF07C901CE9D71
:10167800C7E9C93220F21378EE26B9B80C261FF153
:10168800A5E4CF0DFF3762274D573F8C25DEDF17C6
:1016980026BE479BADE16EE7C29F2173679D33006D
:1016A800D58C68147FCE78CC2E28436458923C871A
:1016B800179A7600AEFBBA243948CC5AD2D17B03AC
:1016C80070EF2A75649AF6D809CB8969A82D555FF9
:1016D8006733FFDCBC6D08AA5BB84951E3AFD2950C
:1016E800F3A290807319A1D749C8C7FD58BC3C7DA7
:1016F800550AFEF43313754194B9F4B3FE7B9FD7B2
:101708001A3102C16084BBFB94EB82712DBBA07AB5
:10171800849992A65E3D5F8A8F4392A21F3CE4940F
:101728005DD5CB532AD71EF37D51990E267FBD4632
:101738009F970B6E3EFD622CC3C68CEC9938992E90
:10174800D9DF707DAC922CE8C266ACB99C6E9A3D2C
:10175800FA34035D0B451FC8A05E85C9BB46BB07AD
:10176800D7D8C91AB5FD8613BCCDEC09E2094AAB36
:10177800935EDF5BE627A6D8236DF928A3AC6D2C12
:1017880024ADB70ECCA8C6296C7CD2D9EF037F1C38
:10179800FC75DC1BA0309909BBDF27E14767D284C1
:1017A8000E92172A4ADAFB679E3D8FCA5868AF9790
:1017B8004DC5C3D8E84D70BBA1B7450134FF6EE6EF
:1017C8009475558F3D4317F511B7F1FB324C064719
:1017D8004AACB7BECD167E98D8BEB755E8A47A965F
:1017E800E94DA11639124BB415A05EB2E1A94F53C9
:1017F800BA241E87D8FA1E2F993C30F4CD1F1EC478
:101808009F4FDB5BF15785152DB44CC4E2262B485E
:10181800C93634CA233B1B6AA58C55656956C0A2D4
:10182800F439E927E2FA0FC2632E1F10FC3DC29C6F
:101838007961A6DAADFFAEBC5907074AF690229A3D
:10184800C1D022290A4CEDAD45B5E7B04675857E75
:1018580012B8E61FD84FE65BCF80F2A6642CD159A8
:1018680020299E7698008DD27E1337ECEA1E884296
:10187800007060395569EE5CE2C18BE4362BA10635
:10188800C1DC2CB977B8BB227627CA534C0C6E52F0
:1018980014E243316DE2795DB609BBB20B20A25266
:1018A8001BC02B1439D2EF2C072D22E7802DA3CD96
:1018B800FE6E8659A5CF82DFC77B0694FC007F7D2C
:1018C80089C56C1EB0762BFFEA15AEAA8A15AB4700
:1018D800708BAC5C2E523D83F916B9BB194B94C37F
:1018E8002E1FF69000A68CCF9B0A84565E2881F3A3
:1018F8003B9B76BA3BCB3708530BEBF2684FE72B91
:1019080089FE7B5879FF508A54AD621DE8FD8852E4
:1019180058DD4B491BEB10285DCC0DEB3E7C49662E
:10192800E58A51F21DE38CE6DE504EAD8AFB679ADC
:101938008413AB5D65BAD894716A1A3084412C4619
:1019480092355FF57DC828171276424AF6E0CB1229
:10195800F033897E254C9238540FB069B7B80BB86C
:101968009849A8DC3A050AC337F4A771D894ECC59E
:10197800F75992532169560943BD9406F07088E1DE
:10198800AC048F659476130F370A46BF1BBEE7B9C0
:1019980002D9A61B141815C35082A28CA373E13573
:1019A8001B8F17E285AE7638E47CED206D603840F9
:1019B800EAB27EB3B2A0846BCA32C68D5A8F2BDED0
:1019C800401FC4D2F974FB3546A7FDDA0AF61B0896
:1019D800EFC048129C29A219E6040891236BD8FC91
:1019E800D60250F426CE14C6F17D1A30085C880B56
:1019F800D6E05A66604D9251C9EB6F61629FFC89CF
:101A0800D908AF7A43D231196D5BD4C035231CE2B3
:101A18008B41AAC8078D1E8D54815DC0578F4058D1
:101A2800B85C7D6FB165F2C6349F8A5207792B97EF
:101A3800944B152DAA6A902F2FED1A91111F433B35
:101A4800743A1BD6C6A538E229E5C6FC8EDC841795
:101A580038C754B01E2FAE96D07BEB2C92F07C1773
:101A6800E939075BBED41A709F20C8626E9EC1BE5A
:101A78001A9489C41349A329E9E46499BD6322EC43
:101A8800A279D8D895AD9A93921CE8B1D970AA5B7F
:101A98000E6F7EA28E3FD002911833BA9379726589
:101AA80082CF1A8F64417946E76DA59B166346700D
:101AB800EDF71755803FD069684AC6960FB6832A56
:101AC8005A3F913C532D75E6B027982A3DC7AD176C
:101AD800288B6F36FA19C59BDDA5830040BE52BB23
:101AE80013439E274287997D373C154378C3B785B2
:101AF800B3C89D70AEDD96D1B5B92B2FF373FE3503
:101B080075AE32837E74FE5DE9E7D6FEB935F88896
:101B18004A767C87AE5A68ADC491FF454FF47AC6C1
:101B2800B3A7F9F4AF6974269E9B797379FD9C8AF3
:101B380086E5C06F4E6CCC4D49AD1B70654058A40E
:101B4800B453CB9FD1610311CAC73EDD1C368A440A
:101B580089ED19DEC63B1FB89C7896653F11A8FF32
:101B68003F2A38AB28C2A2E1696F9F524C54962194
:101B780031B85DF5E595BA173E4B587DF00ED41592
:101B8800F965DE2BD9EE36726CB006A9D529BBF9FA
:101B9800AB8A07BA478BF00963E2D6C68217F21CF4
:101BA800BE740EC8D3907FB73597DA667D233B465F
:101BB800630AA574C07DF1E906F2D5CFADDA29F341
:101BC80013FC61190CB01B478ED236560F63FDAB60
:101BD80088AE35CC4FE62C0798976A5F500142AC27
:101BE800061FBB82E8325B56005B9B92DC7160513A
:101BF800F15C88A6149E88C1E477C7457B72070FFD
:101C0800F8DEEBA571E8AA7F66A48B3DCF13F19FA0
:101C1800B9FC16886AF8D39D9818E30D706C14897E
:101C2800DDBF25628F63D8A76C7DF756F908177951
:101C3800219284B23CB4350FBC4943C66D76D8B501
:101C4800C29EC31658084FF106C2585A4A9D5D6F86
:101C5800C53A80DE0C028F7A902DF3EFC5C26AE098
:101C68007974734E58BE4EF5B6FD393D2FF5DEAE8C
:101C7800E03BAA8EC15B64AA9ADBA03040DF3ABE83
:101C88009B1B2F1CE0E2D81822C2149D8B4D001715
:101C98008327A0C035474F387069BCAA648C785038
:101CA8004803E198B8A8475214D386E43FA9E7ACA3
:101CB80083B1375EA7ECE6AD40D37030875942CC8C
:101CC8008CEC0FAA9B0016B3CFC368973637E7583A
:101CD800F07C72EE78DCF02F1DD63A19FD32AC6933
:101CE800F26F0BFB0E05299D3C4036263FB8237347
:101CF800F0CDB80BE87E98C6EACEA14A3BD00CB727
:101D0800001E97F49D3EC2A297B7859928FED77604
:101D1800B0C57E0556B3760A294DB9D82E131E8B49
:101D2800AE986656C6CBA32B0182E1746A4885A398
:101D38006E431FAC86A82D50AA3A6A2FC323295F89
:101D4800A299B5528B367C3D4616C6C8B982AF6299
:101D58003BA6A5C6FF59629C1B678C767E348552CC
:101D68005469E9BBB390C17D33D840C8D7327813E2
:101D78009E43B3D318164CC536E64B0DCDF54D61D1
:101D880040DB48BBFD68CDF13C92FB4A879AE216DE
:101D98002C1A8FB309CE6AF379517A9539B88CF930
:101DA8007BC974C6E637F7DB71B2AD3F63B429B0BF
:101DB80049E23EC3ED02B74E1E413EB9D1B1577359
:101DC8002989EA9B5A68762BE583909D42DB0504B6
:101DD8002FDEC649B3BD31741976B1733A7C84A03D
:101DE80014B3EABC9A586831767268C749AB56C7CB
:101DF800B1201E42C07524EAA37C32853371FB36BC
:101E0800611CEE7FCAB1789D5CF79E25E094443949
:101E180050112BFC67B6F56F20E8643BFD27C33EE5
:101E28008711268296B48245096C3F74E9146D12B5
:101E38002C14CA5249241BACD79B95739A81659E72
:101E48002FD890E7589561889CA2723C6DF1A9340F
:101E5800783ED6DC481A2A410023AC4D2251F90DB0
:101E6800BFFBA7943BE474477B3B232F1FD34C73E2
:101E7800C11ECBC9D3233325E42CE5D55C4890E0BB
:101E8800A9B31457A2B5B41AC112921D8A908EFA3A
:101E98009DC651B124C236A88AAEF429116BB96B1C
:101EA800DAEFC162B20928C339B73B50C577F6DA11
:101EB8006EA83B47A0C7F9A4F0C9B1BA3C371D6367
:101EC800CCF5EA0615B241B2B8F9E9BC543F98B26C
:101ED800AB279F7A8E104DF968E60D3D21A05A8EEA
:101EE8006AF2D3B569A01924C2BE704921B7D9C511
:101EF8001BD4AA86852143AE71EB9E0303E08512AD
:101F0800C4AA676D2391AFC2790D8D872F12E55F43
:101F18005B97EC6974E692B31AA65A0D017E6B477B
:101F2800170B012552463DA5BD20C5476EB44F8706
:101F3800141D412C5E59FE11D54D9DAE3870D9281F
:101F480080F20B2067A27D6503B28941D0B3C4E358
:101F58003AF9350002F55CE7BBF391F61F6EC97BD1
:101F68004DDCDE30AEA8F0B80D0E9679E5460F7E52
:101F7800FF19E4FBE2118A8C65F8F896377AF9DBE9
:101F8800F855DE03BE5DC9D9CB0AE751D8D69E6D98
:101F980048F047F66CDC6003A16213B1D7456D5772
:101FA800A9578467105C51B8726D1CA374118F72A5
:101FB8008741AF9D148838536AD2D6D261E02D4745
:101FC800E6FA22C24129A4131A66A0F54B8E54D50D
:101FD800FFB75502F43D342D815E45A7C8BEFFF614
:101FE800D1C827BE74AE06542424B1C8DD50EA1304
:101FF8006BEAA54ECCD5F1EDC65AAD7C9F13D2ED58
:10200800AF07F6FC5713E1B41992D7D6D5C60534F5
:10201800B56B37329E9649D1F4167F236EAD0BE02F
:1020280005930B6A4705F752DE87431497C186204C
:102038004E13D430AD4D534F8BA94B5389F5398E80
:102048001EA5308A8F19AE9129239229EBA4E24D5F
:10205800068AF55EE081A6CA55DDD93079BE648B63
:10206800C3F47433E7FF1CA95EE7AA0315A593D64A
:102078005744463DD3A1A55CC8ECAC55411CF4D5EA
:102088005EF448423A839B85B76809CB817A990701
:102098004F52BEA1AE0AB8B36C2F7B13DEC7630DD7
:1020A8004F595ED491F3A9EB73814B06884467704E
:1020B800F26B12F4D9E56721D6777559A366BD0C82
:1020C8008FF8BF8DFCD372C761D15F70137285E53D
:1020D800626BCA83EA61D3646FD8BCA7EC67CEA6EB
:1020E80036E61E4019EAE9F6F75158E6EA5C39EC9B
:1020F800129B71383114475CD5F82C6ECE0280776C
:1021080055DBE9F18AEE8373F3A129BCE99A7A5B7E
:10211800C08419E9D259FC040782747D26C08D1148
:102128003A3082A20EA41EEB77B8373862315F6668
:1021380023A7F0A2EFA7BC38AF948F9B8AF2D801EF
:102148002F1474E2B7991B0260723B6D0C7BDD6142
:10215800A0A8FC1B74DED916F4131E7B9026E4DAC3
:1021680070EB87F5528DBC048111AC1BAD55555AE7
:102178000C1BC49DD47C30C55B241111F543F3C4FA
:1021880049056ABCCA462A7CA6468FB4C10EE9092D
:1021980019AEC7F6E61577F185717848D35A4F55C9
:1021A800001D3D3BFC945C540B0889E464C559D878
:1021B800BFFEF0BFAEB131F580BD266A97B4ADCF92
:1021C800A8392F7CB16118C67A0BC2D43D8665A8A0
:1021D800FC283F863B791F39B60981E55565ACFF78
:1021E8002199821A0F6D22DAC6CB873C9E62C436CB
:1021F800BA97F1EDE970E7D76E404B92022A795A07
:102208005DCF08C48F3A009D1A4475D153358C129E
:10221800535605102E48FBE9A77A72844B5F6E1A55
:102228007F8BE076EA83186A038C070C4407880BD7
:10223800B3EF2C3DB1E3CDFD6B8C6AC1B38A18CDE9
:10224800CE73F3282BD0E5E4899475696F1410EEEA
:102258006CCB9BBE8FE71DF953888CDD4C48951AD3
:1022680078191BED6DA67154C003E3B18429F7DE1C
:10227800FA0F08FE7D2241C3B6F5A60074483173F3
:102288003228AF95168DD7B9294D06A738E5C5EB85
:102298006556399E3B6AEE4C556FD206862106C1BB
:1022A8007A42928524BD95DED4B1BE92BFEDE88313
:1022B800CD1E31586A98282CE7F97D61E836EA394D
:1022C80076B91AC28DD751645FF16D440DED476838
:1022D800E5B1B90DFFE92D53EE8D64128AB82A35A0
:1022E8005E084E003B21B1A91C5731F6A495321562
:1022F800C776AFAC590C66B182B29AB90135624063
:10230800324C0FB7ED31FB258418E9731D76EF5A6F
:102318008D753F98902135D62BBEDF60065BBFA632
:10232800FC50A9B9329E88599212B52AB8E95609C3
:10233800E6C600E74B56EEC37C6E2CD07E79CE13F2
:102348001ECD661C44EE50748148C87468845F339F
:10235800F4ABE37FEB5144DBD2D03313C0A67B7BD5
:1023680053084E5E4CFC1D4CC45CA8B9B9B72EBCD2
:10237800470D7AF3BF86913D640F51C66D86725C36
:1023880024EB246B4F6DA9447832D34A414ABE20CE
:10239800C8E4D0614578E732805D6CC5F9DC6E230E
:1023A800176CF9645DAA116984DA602AC254813E07
:1023B800D8943739DC64050871A2FADF9E8A6C5814
:1023C800AB22F803BA5B1FE55F4C1228D991B666B9
:1023D8001315480A998C0043F7D81D91C5295F4EFB
:1023E80045571CB58B1532CEFC31D2FB902B37C12B
:1023F800F8F00249E15A3731ADF80DD615AE05FBB4
:102408009F3A6B3CBDD978662CC9335DE1AA0F644D
:10241800BF982E7647F9B5309F639770544D828CDC
:10242800B6A8CCCEB956AC793D3B7665E0C3493603
:10243800B322ED80D4736F56E8DCE004D2E5A48AB9
:10244800EF5859F76D1B692AFA4DB113665DE10B18
:102458007717E5F6E32651F5CF273881A0DDFF5140
:102468003993EDBA733CCFE00A389FCD04463E70ED
:1024780090DC1EF4D15E596659B1E0E888C31FB4F8
:10248800036A29BF098F103ABC0F1FC115916262F8
:10249800361A2C3E3052B4213C10E7B6328342FD46
:1024A80031A7CFD515BE2ED5291FF5CFD9C44DD00C
:1024B800C018FE752F74D3F18146F59BB34A2C9250
:1024C8007745D7652CCDC0F7A0F60CD94FB6E5D126
:1024D80078DDE05308A850EE36CB003247359BB57F
:1024E800A8AB416F5235F5AB9F5C0041C19AC4233C
:1024F8001C1F72F07DF1E9570FC755AB5B93253967
:10250800D9FCF77ECDB634C7474647129F2C7DEEDF
:1025180055AB4D2F5022A7DE5FDA846B2608E4F115
:102528000F8C0459A090702BB26C83FC1555B8869B
:10253800177DEE2B2D6E71C3CF373E878BFE4A92E7
:10254800D34BBB305F2DAA86FA6C0932E63D0ACB25
:102558008D2DB26D1D59DC64F9B1F8A58749348811
:10256800D30875DAE2D0A731F067CFF6A34F7F3DE5
:10257800EB4F78FA74442F7DA1D1689E218015B164
:1025880091E1291437CAAFD0FD9DAD6AAFFD572937
:10259800809F98A5FBA042D1794AF6C03572FEFB10
:1025A800EA85DD90F43543324190703F67EBE3E212
:1025B8008701066845C77BE708A961361E1CEBE75B
:1025C8008549BEB1EE8575A5C83EDF9C3EC81B5C3B
:1025D800314C218D152F5D1BC8C5C3656F4CFE2678
:1025E800A25144C9D9F11FA315EF5B31ABE2B74142
:1025F8000B139ACC74031C43B8852391F3110D3047
:102608004B5F86C514028D03E39072AA8B3D92C579
:1026180034DCD199115FD66450F5B9DEDB6F2187C0
:10262800C25D54FCF5A402BE5CB6D4C89A40FA94C4
:1026380023510331550DD385468EBE95A41A92F2C7
:10264800331DA2A31BD9215A34771FE7E8D0592795
:10265800C38FA9AA5167BB24CBD531DBF1F84ABB9C
:102668007E9FA0EA47E25793C8E9BCA287C76DDC02
:102678002671047AC3F8B4BF8265C1D3F25E6AD604
:102688009EA515D3C991034ACA88BDCECD51EC5534
:102698005EBA0CB198C9DA59628F4D8F2BB3237388
:1026A800AC0CC13C2C13AA673F7ACEC6A4683FB8CD
:1026B800CF881FA5CAA8E74EF8123680F5F86EDA5B
:1026C80053066821360400D41B391FE84AE0048AFF
:1026D800ED20726F87262A56BBDF3199958795774B
:1026E800A69B2DF575370A7259B9FE6ECBB1423AE1
:1026F80078C06B2824509913D8D3DD0880B6ED52E2
:10270800A37B289B61A3DA1AB83468EB4B800F755A
:10271800B550C384FE39E466EFD4EB5F0041D99E1F
:10272800FE45D9B58AF96B67501B0AB899AC4E1E9D
:10273800372D0DB1346BC30FECF5E093E7D5B91C19
:10274800D5B50347808B0C4B6ECC5C72CD9F7DB8A2
:10275800291E40EF2F1D23E275C0720633E5D7E628
:102768003D6E51FE79C296CC7FCEB3389CBBE8381B
:1027780009243568E108894934032327CA083AA49B
:102788005EB8426561CF57DE3AA39EEDCA99EA5911
:10279800A5D8ECD92D9B419BF3BA8EE6DE3F924D2E
:1027A800B79323DBA06A91A44803E1CE5D3733BF1A
:1027B8003A68B13344DC18A9AD6302AC785599E4A2
:1027C8003AFADDA4DF23ADE0E6BE5B8DB81A6BBA3A
:1027D800F8EAA55A58B5B61AD341FE1EF4B3AF1C91
:1027E80006E3F7F093FDAFDBCF2E5C1D7B7DC13A8E
:1027F800926B3E53B0572403FCC0202EE27A45A8C2
:102808008A3C57BE9E09DDC4E02AD543DD8A24FCF4
:10281800187674D21C92E51F2CB576FDA6C726D86B
:102828001744AC66C223CE9D27A2DA5B005889976D
:102838004F559F1AB4E1EF430A1C4D99F4750A32BB
:10284800162F4D5AEC586CE4CEF629D237F8A73734
:1028580076C519C1E264BC10212AD1F888D0C749CD
:10286800DFA5DC7EFDBCE067059FF6B044651FAEC2
:1028780060C58899BABF8962898FA5922CC03E56D7
:1028880048FD732A51489F1666F8E0160D7A40B63F
:10289800FC41C3EBD457D14D03EC5FAD17F1375969
:1028A800053246EE5130081D0BE0BCEAAA3F9E6D8A
:1028B800CBBFA56863E04C2F264F69DC5FCDACB871
:1028C800273E2973E3D185911DBB6A1D3694065CAA
:1028D8008D24533A81D111B23574D928D7560B3A81
:1028E8001C84234934DBDAB2227E709C0BB097D566
:1028F80068530DAC2454C7F033B0FA9F9BC17DDDFB
:10290800E2820C247253556DC08DB5430A6A534652
:102918008303B4A2A88A187F9056C9E6DC7E9BF888
:10292800370BB2C98BD168A076C2BD32F8811B546F
:10293800250A898434DA4A824C781E1B419F1E2C52
:10294800B27BC0CF43147071DF0450C2AFF6A6D17A
:10295800436CB271526F4CDB90917E5980BA161F4E
:102968002B19A6EBFD80E6F72098D1CA4826B64475
:102978008806FE0320C7E75AC9B289D25D6D32AA1C
:10298800B933903E7F94F6232DC83E6299FDB6294F
:102998006928ACDAEC4209A6A7A1881E3C9D8EF3F3
:1029A800A8EE6EF519541501B9A92177766FDBEEFB
:1029B8003B79E2360455C752A5D0D653AFAAFC4C92
:1029C8002BA44EEE4BB1E4219A26FBB2AE40F9EEB1
:1029D8007BE537D97792FF47C7A302A60FF6921473
:1029E800F26A88926BFD475AE938DDA50F55C4583D
:1029F8005BB4A0416CEC35A1E16287FA01206EEE70
:102A080066DF2CA9964C49F3FC72D54503DF2125D6
:102A1800370B47070FA0D886F8CF3B8DF9D04CEA83
:102A28000DA9ED9685FDDC17D8788438586D154CBE
:102A3800A0D5EF94AAA2C14CC0B9FCDA99B941FD5E
:102A4800676F6B0F2DCB5437B1AD7406AC035E6E58
:102A58001AA417D5261012B1AB026EDDD6A917211C
:102A68008B277B4A07846631EDB38763D7C85D54EB
:102A78007663727FCA0EAC9697444C0DF78A9432EF
:102A880020247706FEB97D22D38BF68F515A92D92E
:102A9800F5F3835725E64B72BAEB42635EC157BC28
:102AA800EDDA14738FD61510682BC290F58F0D5878
:102AB80081E943E991E855CBFEE0AA650D61D6B7F7
:102AC8001E813CE95C08F201F4EF5697EC3D812C3D
:102AD800C7869A92C84136A99B1AC980732E1328B3
:102AE800D9EDBEED5FA666142DF8F112C6E5CB82CE
:102AF8005BADB68B28DD146D8EE9B018529E2B9A0B
:102B08004D2957AF89E9DC24F10002630EB4CE44A5
:102B1800AFF236E91B5493CDD4A2D0E330BF1407EB
:102B2800F4669C8D49F635FD2C763A189125C82215
:102B3800C289F7D5C90AF625EB6B9F057AE9A90B77
:102B48000C78C2FF5C7F216D6F7FECB7D70285CC14
:102B5800CF1C3C75F6284320C164093DC371A4A26B
:102B680057E294782A119C7769121B6053EDF31D84
:102B7800F1AD8623044D8D12796A107D25A6DF9864
:102B880000A77D2B752AD2322E053F0F23A29B4822
:102B9800E4AA95A379A91CC95509F88F90DC0F738D
:102BA800E34DBCFA398571388D2D8A1E51CCF60853
:102BB800D2E83A9F42B211228A66D0A1323C521022
:102BC800E917E95C5DFBD80F252D8BF62FD54FEF64
:102BD800E9BC4934926D56CAAE4093B5CD27A54796
:102BE8001E5588C3E5DC933AC1F7DC81AC8518AC87
:102BF80080336CC49364D0305124FA3ADBDB3193D0
:102C0800B71B7AF7DA06968AD9AC2E47C7B816CF1B
:102C18007AF94D8D8992E4E0165D55A3C052578626
:102C2800D6B32B226F24505CEBE796DA607E1687CA
:102C380063C5B8847746DE80FD0FF20D9661F79B79
:102C48002DE069B1E253E53A967F0ACC11A3E0A9D9
:102C58007AF8839165972047A838DD6363D53F1FCD
:102C68000294067B4F3ADC3187D63F0306BC06B494
:102C780036FF92618B9BAE6108B2E7CBE9C56F4521
:102C88009F1CAF16D4837532EEA9319FA8A97EA6E2
:102C9800A84AF76678FC53E3DD167DB2988796C29A
:102CA8009C36062902F7FC341FC5635903CC9726C6
:102CB8009B5EC0D9986FF6E4060157CAF15B1350C2
:102CC8005D6790196EF1C932DF3D456571E77D6A30
:102CD80006E5E2668F82BD173218BEF09CA650DF6B
:102CE8002A80D2319B87C432B665335557CF21C16C
:102CF800249925C08FF1754F1F1BEC5F44E0FB083A
:102D08006FB1F4820D4455E61BDE9B12AD70D40CF6
:102D1800DAD2F4077945922936992E13D3C628CBEF
:102D280080483016C4E6EB9A948323EFE89ED809CE
:102D3800C199C6B73E4DE1BDE15F44710C88FD8D78
:102D480051E34B04CF981D27A4AA2D566CEFC43D20
:102D5800CCCB55F877778B3F46D06990A0732E126D
:102D68003DF2F0DC12D6D5C114434EC2AF2A553716
:102D7800BD51569B7074EC5820ABD2B79BA72A91D3
:102D88005D6D311A401B093562D62DC3DFBF95C86A
:102D9800D6F77613D21AA6431B19DEB542CE8A6C33
:102DA80045A56B371F167B82BC33266F7899341282
:102DB80065250A48FAE503C076976FB2BF4845ED26
:102DC8001B76FA984818CD96B79B1ECDCD01156E87
:102DD800A0C98BFCBF4FB9EBF4675FA1C3FBFE38FA
:102DE80003EC5BBAED8C5C134C49BA85380FF49B45
:102DF8001565FF2B0A3FE6A2F9696689E1F6604A84
:102E08000E68AF6079697724467F265E6B20269B23
:102E1800784A32829B54A387B052C2178FD9BB0F0E
:102E2800F0C39DD5F014BB61B123F0E7BC07EA07F6
:102E38003CC60D7CA38612133B96D12B43EC193C60
:102E480041256B970D534AEA4C914604B1A9736525
:102E5800AE545F1C6069ECDC52AB3877B34F068325
:102E6800F190B5B6BE5ACDDBD31B0075AF5C4E38BA
:102E7800B2F207A08B949FAED23A8D1F45485454A6
:102E8800471B43E6A61A76187E6D55B6C61B7EF319
:102E9800EB27790DD23F36F9F74703B65D93AF3A82
:102EA8004360B29D7B253FF6F48D960877C6D2D64F
:102EB80002767D6D42B61B56ECA28DC60086758FD4
:102EC80004A16D6DAB08821A9C140F974D67C667F5
:102ED80023376200BE81FFDFE2B721ED6E00523B6F
:102EE800297509E93AF5F266CAF4A7EC5ADCEACF83
:102EF80066270E0CBB23448B09F4038C61E9F5A902
:102F080007F1558ADB9AA3BB9961DF342E40A12AC9
:102F180072C4571D97BE514C735FA0BF2D80B281FC
:102F28009969B1A64C949019A4B3950AFD62D1EFA2
:102F380075B02AB33CC3E2673BFE023B075466B157
:102F4800642CAE131EAA9E0DD652014BB25F73506D
:102F58009485E1091ED2E419792D90D57B3E3D690F
:102F680071E7BBD331F2D43576C1B2797BED92FEED
:102F78008BA519093DD854E1A1034C06B17C027513
:102F8800FB8EF78629AB44B385879701854EE2C54A
:102F98009F177134C664C919EBB8BA1E32A11E4B0B
:102FA8009CBFF3596831D3B95E62238AFB874D8E83
:102FB80018BAF6BE37F6C9953058F8D1D15A31F358
:102FC8002F459F47FD20FC635334CD29E7B487F490
:102FD800E4377BCD6E0CB5A4A165594837B713A764
:102FE800AC2E9B0CA4F1FA66275B64DA60385A02AF
:102FF8008216F51641D6F41EA46DDCAB045DB870DC
:103008009EB3945A94797663AE83C14E55727065B7
:10301800589F96BF7F9D3F9CB0A8BA3260D23F9818
:10302800540089AEADEB25DD03A77D597B591FDC24
:103038005404B1F3BBACE5D7BD6EF9A963788DA58F
:10304800D073748E233D02D420FF8495F36D14E071
:1030580036E3EC3572E0D00536418A7919306CB622
:10306800F9AEF5DFC2C7BED6BEEB1893D236F17300
:10307800445B0B16DB6AB2DF7A3497D7009C8A4E22
:10308800A8BB4AF64715B9DD13D5695EC373E75F78
:103098000F4F73C35DD175520893B837BA20A83A59
:1030A80093FFDD8283DF4C4347E0727D44ED362B8E
:1030B800BDEF3F5BC8815FAE37E85894440D4F3190
:1030C8002FA64A6EEF148A42B35FE0DBD288650808
:1030D800F7F62E0DE2C56D2ECF3C8D2E13473E8A96
:1030E8000C77E058EB6F99B1CF497ACA4F0319AA08
:1030F8003C95FF26BE81175240F533A8284B5C90BB
:10310800E3387C0F983B5ECF56C1ACDF287D56A2D2
:1031180040B06C7EB34C498983B866E07EEB56902C
:1031280048FF502FA0C7FE20F537EBF86C083FBAD0
:1031380086086C21E6976A40D388706C9B069110CC
:103148007A55ED47BE8D655D22A1E215C9E878C6BE
:103158004D2228B55E3918A5B60F40CAA3E72574D5
:1031680085A11B943D1904B0D48E46AE238A8B27C3
:103178005ABF9B028560A36D38AAF729747933205A
:103188002A1B1E90A08DA1D218370A3D1AA67CEEE4
:10319800FB8C0C646779CFA3004C7E545B1F1536FB
:1031A8005617CE164B8597C88D92A4B6F9C5041C40
:1031B8007A13D4B8A6E89550A23E244B0EB212C496
:1031C800B1557A55658B20560F6B638F78D7533876
:1031D800DCC25B01B3AA1CA4F57E0ECB42420D7B78
:1031E8006C3948596FE8DE0DE3B712080B4654F402
:1031F8009C8286B052F186581E39DE5156E7FCF59E
:103208003B515AC8315845C5167328975977271422
:1032180001B4474C4930921BF49605EC1B12670920
:10322800CD4C536E862C6E17CF62D23D0257A74203
:10323800DE44DF2CE126B6DC5C53995CE38AEFEFD1
:103248009BB3182488129C932AF824F205F313EBF5
:10325800B378142B23FB1B5EF2B89B131B26C94EB5
:1032680036CCE2CBC176CB78C3DC7CCC3F914A4AE2
:10327800ECF3BCB13CD4A3AA8B80A9203239083E18
:10328800E45FB25FE8DD253DE7C512B28EB2268065
:103298005AA3E239442C6483785924CFE66E4BBD97
:1032A8001CFDE1D4CB9FE7FCAA4BAD9DDAA20940F7
:1032B800786005BB464CD7DC489A6E95A3F49C35DC
:1032C8000FA69D94FDC1A442042427184B8818A773
:1032D8004DF6BB1ACC628F9FE2B8F20237613A31E1
:1032E80020ACAE7105CC8E2A7654D7A486A03F02B6
:1032F800BA18C478CA114F83EDB0B0A8B5C7242E48
:10330800341D664EFE51E2685268418548B3391C47
:1033180006A75F27B7716D6708C4A785A0B1FE34FB
:10332800695680DF695A539A75EE6362EF1B6E53D4
:1033380056CA64D81819500B4550E647C48E8A9E61
:103348004BF59F8F532F48506A1EEF9ABD3234D6E3
:103358003222F9BB907224D8FF3C3C9AC3583A7584
:10336800B1874FFA9C146B82CA3FB49BC2FAD2A2AF
:103378004E33664906D433417A2C3E545DCB6C807B
:10338800999DBC1BA962A7451AC87C8E4373491B2B
:103398006EE42F990EE32896729C997EBE5EE73DF7
:1033A800356106B7B71D5564792AA7B5FBC00A026F
:1033B8002B727670015DEEDCD795D8ADD9EF283346
:1033C800E3E147C63F733FCE4AF3FFBB0ABAFCF6B8
:1033D8008B0CCFF7560F8753884DF966A74C890495
:1033E8004C5B5EC4ECC4540222DF8B381ED39409B4
:1033F800BFE75ADDF5BE6199B33A9825C3C93021B4
:1034080054E3F1D4295865299E0EE47C399DBC47C4
:1034180040AE3B38D4D4BDEC1009DC14BF8E42E278
:10342800C531E68A81F29D66B6D95F91636DB3DCDA
:103438008A078386D16F3F0A9DB5E0A6617D6E46F7
:10344800BE4EE4DE012693E35224D3409C82AF5360
:10345800AD1253F17E3AEA899B3460FC47C06F7A1B
:10346800E6A151E341574604DA679A132440370E20
:103478003992CE16E95ED62BE107E82169C83AB33E
:103488007DE600DDC94139AF7EF393FE49C7FAE610
:10349800EA47DEBD691617294F2CD4B47E5475BD92
:1034A800D423B1A8E6ED2A33FF0670CBE1C39F41D0
:1034B800E34E47B3A9D566FE6C55CD97D0F189FC8C
:1034C8001BFE1D8B3315985062CC07838CE626783B
:1034D800FB231C43CD5AA4211D77264C71E63A0FD5
:1034E8002E12FC587C97BFE64EBD79EA6DC0D345D5
:1034F800D73D35931B5875F0CA783464EEF4FFB89D
:10350800A4B60A328C843812DAD71353D353BBE0EB
:1035180000E30A40BF6D7BBC4BE016ADBC72053BB7
:103528007C6F296E1EF742EDD78846BB4E7E2C4B2A
:1035380036294A15E2141A48FC83B1CB21BB92C63E
:103548001A4F3178A104A029000CC8A56EBFD5A6D2
:103558001618712DF36766D7AD6A8D1CA307CEB315
:10356800BD7F185B045A548175525631024EDEF8FD
:103578006C51534D364CB95794041CD7763EA789E5
:10358800A54EF0DB136C2634C6B4E6F436F365F4C6
:10359800F0E2E2878C553F669B49067578F4127114
:1035A800FC4DD4AA66A10E730B5D9ADFF9E8EA2CEC
:1035B800A6C12EEEA049FD5160649651B0808222CA
:1035C800D1ABDFC6C6CF40BCE6FB8524D489CD325B
:1035D80053216FF07FF4F9534607AA3628E0D5BB8C
:1035E800F5FBD46546E584C55A382B259576A2792E
:1035F8001B3DC37A05CC2EB2733D8484E8A21DEA34
:10360800FC9ADECBB72995AA20EE01E92F8F8953C2
:1036180037FA52F4C208DFB0713FDAD42FA2AF09EB
:10362800C2C73DF399F0158E52C54A5AB8650B3892
:103638003AFD17BAE0DA426321D749D305FAF79180
:103648002F28DB77C292F8787D1900AFDF04B98D97
:103658002A378BD14A2E4EF6DE50381A2E49E0EE24
:103668001B99F40B7BA9BF23417CC4B26885A26770
:103678006FE2873E3513B258690C19AC7590544700
:10368800EDD87FCAAA84F967418B3FFCCF8F91217F
:10369800BACAAE4D83DFDE83CA0C23E0F4D52B4AC9
:1036A8003ADFDDE0B45A4E862D8DDB4641E37707DD
:1036B800585647CF06670DC73EE4CDFC838AACD683
:1036C80013ECDC48FD11EB08C61B8A15886A330821
:1036D8003491CBB04C2A1127BA47B705E4FBF5481B
:1036E8009DF72EDBEAB1CF22FEB2DCCB751ED232BB
:1036F8004C83AD4CF52C2A00D35581235F8EED6C9D
:103708009B30C553EDB420AF5308078C9C9A3BA857
:10371800B5B1DA42349FE19260F8C40957FF8427B3
:103728000308AF7988100E73852A2224583A7792B5
:103738002311D43957CBA043AB40CFE5F64FA57042
:10374800132183D0B55FCB9435BAE489EAF6288A89
:10375800A27D05008C41197E9E62ACC82543308647
:10376800B50ED0CE8FC94C242A7D2DCF365C5B5246
:103778006AA250EE29C5B8C8DF1C81CCA7B9B532FA
:103788003B73E48F1D431767F726C7BBE3C0E11CF3
:10379800BF769126CB153333D64C3F3D74AF71239A
:1037A80085440FB20A8B2E5ABE6D6B7D980ED92DAB
:1037B8000D6EE3A8D827970A764A25BEA8BA6B806B
:1037C8006F92DFEB51DDD84C3CD712CF26F9CDD024
:1037D800031857BA0F20B61D99F8D002670AC9E036
:1037E80079D1DB643F603446DCED75B031C598E7CC
:1037F800E7D160E09B394C95393D21142DB026CE98
:103808009B383AEDD5E5E67A14CB7B83325F0F928D
:103818005C6BBDB94BE6301833B6C5822B7CC62F1E
:103828003186E2EA721455B41C4A5C0D8B15568E2B
:10383800595332096429920E4122F50ED6FF31D729
:10384800B75ACC99412C80C87704D18B02A1882B18
:10385800BAABF520C4A20F6437E00469C2127F989E
:10386800D6D7615D0915563E139D65E0CFFF479396
:1038780075B279576AC2BBE924C00CC3A3D78D526D
:103888002540F9666A0B8A14EA15C91EBC6F6C30AC
:1038980009798C0672DD554F940A319749A4DD11D8
:1038A80065BCFA9F1F7F861D517056D1D4B35A63E9
:1038B8005AFA00D5429EF7AB8BBD60B2ED7D1CDD98
:1038C800B7F04751E5C5A2A10C3C375B08B6DDAEA1
:1038D80083DB5D22AC5A48E7258B12A97B5675001D
:1038E8004889980F8B9C117E6B7E505A52C9CE28FE
:1038F8000489AB2DD5C4924D15B352C242E0FD4C9C
:103908008473A39DA7BF31DB8723D7E4D850E7BFD3
:10391800F951621B5C56A39D03B230C41AAB9C4B91
:103928007634AE58CEE655E487C531B9C16FDEDAD4
:10393800C8ACB1C4F9D10BF0489D07A868D3A89CBE
:10394800D59DABD169292257C01F5C975401BB0B89
:1039580033519ACA2A4F511B2E8DA01ACCE333DF5C
:10396800C2094218A5E53494D41003F07D5247AD3E
:1039780066A912B38CCB6F7539A5FB7F1D32EDF3A9
:10398800DF99501CADABEE82DB48F6E9A02B1EE4B4
:103998004AE05EFCEDCD65A0EAD82B0D4318F6A2EF
:1039A800B57B4DBF5F6EE4DF7693BDB46B07A3298B
:1039B800911A65EADB38335FBCBC66F67903E8D751
:1039C800101CEA458C54429299EA2D774C19CDCFB8
:1039D80066DC93A4DC5905A8256F88AC742E731A8D
:1039E8003035B3DD167B21D9B9288C4E27A105ECDB
:1039F8007352575D543B5C5F8C8E42A2E5F36C0CAE
:103A0800F357949FA3D05EF51ED6D3BE36FDB2FC05
:103A180008C99E156059A14D2EF7FF1A9C9D26D600
:103A2800E7A984F12FCE0DF38040CE80032601074D
:103A380020F78A3D00086D79EB6684AEDB898B76CA
:103A480057644BFB2E78540EA7D76DAC1D379214D4
:103A5800C7002A11EFBEF0A55D784A802EDB7811E9
:103A68007A264806C6870AC3B5088AC6F9D741D652
:103A7800A87FADCEE523B9F679F3E1BB82E1EA741C
:103A880085B5C523A5550B5429F0ADB826337D7AE5
:103A9800C82EE1199E729E33D29F3CC28DADEF8431
:103AA8004952FA43DA19CA11E2756483C4B0842012
:103AB80037545F424D006CE48400F9983671B019B0
:103AC80086A519D77A38765D855EEEC6F3D0920E54
:103AD800DDF2ACE0CF5D70EE4A441B639344104ABC
:103AE8004AB2151CC76FE6D7DDDE273D7871E95C61
:103AF8000A785B8BFFBB7E7C9E37C0DBE80EC1D0AB
:103B080046716A8E7C3F620ABC849BAAD6840D3CAF
:103B1800B088B582855B58292E641C14DBEF505C95
:103B2800AD17562E7E4D1611DA4793CE78B7A9D722
:103B380004258338C07214C78584B94BA60BCA2ADA
:103B4800EF2425B84DC9E6F2CD3A648785C92F928E
:103B580061C28CF0C67620BF3C30A9DEC78473AB47
:103B680004BC8EAE159F8EB786A2BD2FBB2FC7CFC4
:103B780026F0BFB41CB477E7E502C65ED19A016AA5
:103B88004F9727EDAC803B208575BD539DC69FD6CA
:103B98008B8870DFE0AA2F4770F353EAEDACC2DFE1
:103BA8009D8FE8518F03DEBCB5E2C7A1C065CFFF8A
:103BB80007FECED0507B4664C787BBEB6632035600
:103BC80050C649123CEBC20BE2E028438A1BC48B67
:103BD80057E7C187815A003D8F9A66C99F6E93EF58
:103BE8002975556EA860ECE95CD8138DF2EF8D6CE1
:103BF800D2318B2A1468875C76738980273701C392
:103C08009225AB3D7ACDB6C92BF4E17CE298C8F396
:103C18009B59296C6DEB4DC6D14ED032F353698C4C
:103C2800B7F2036406AAFE943CA08D1ED3086A2B43
:103C38008E7A33B7ABC4F679A86813A660680FCC40
:103C48003B132276F092C08C1B84EBE563500DFF8A
:103C580083583294C45D2442F187299FEF9671738B
:103C680088B62C2BB143ED0453833ED05605128DF4
:103C7800119DEB115A7707F468AB5BB1CEB0D86EE3
:103C88001953540AE95E5EEB7C283498317B1CF2A8
:103C9800F0840F859E766FA3F76D0B0F6F77AE11CB
:103CA80022FE5E1BAA0C94CB1ECFC7050FA5552874
:103CB80010A9A0450B98ABAF5766E27A22E2DC78F0
:103CC800CEB9C6D0279A8D7EC2F23B4D53BBAECC3F
:103CD80041A4A160D8257A4AB452A9E1C5B52D3BC3
:103CE800507C7FE1F75271F42B63CD95B2B93194D2
:103CF80021D513F54546AED50EE43E28F3ECF68300
:103D08004F5825C5370CE2902DC592905340093E77
:103D18005D291293DD978D47E66DD6F69BCC54BF8F
:103D2800EEE2F8D0B11D16887501A65E3D9FA87514
:103D3800FE983B6BA3148F16C5265FCF9342513074
:103D4800478A489DF75FDA2B33595B01694404922F
:103D58008226BD3C605DAD807F34E2A01CCE52E778
:103D6800FA3B27C4BB843F0F5CBBB03CB4B334CF31
:103D78005CD17CCB165D303CB734C6ECC16D64DDDC
:103D8800CA472B579BC7A722C921B97EBDA146C5E3
:103D9800FA55AE492CD8D919AC669D6A6B98D57876
:103DA800849531DD42E053F41FCEBC5E513F3A3674
:103DB800DE0CCDA91CAAF1E3C3769CE2D9E0F84059
:103DC8004DC7BC9F516FA556EC497245573FE678E1
:103DD800B223196D5AFEC6201F41FB1E90810C8626
:103DE800BF4E59799CA0170E9F6732B25D1FD2C291
:103DF800393D9DDE74481068C133A04C2E50BDC2B9
:103E08008D0DE0ADAECB41483E9627989FBAC45E73
:103E18005281AD66EAE972985DE1945A76899D20EF
:103E2800CCA842E74967CBDF347C5655A52177A754
:103E38001C8B19A3DD23762752CD332FC36F2E3267
:103E4800A41B7CAEFEDB80DDAB4191649F71D68400
:103E5800012E693FE2C64303D9DA349DF96C2EE49A
:103E6800BC468017778047229EF4022F2596396D2D
:103E78003338202A893EB2751934FFF92CF6D65CFE
:103E88003F5E03702F31BAFED6A17503F11BF7927E
:103E9800F41568B0A3E19D9DC573FBB5C621882BB9
:103EA8000DD2D7A6712DBE0C98DED9F6065DFE5749
:103EB800F5885CF80C612C9DEB759D13530F79A266
:103EC8007453438DE200F2514F9A3EC266AE2A2DDA
:103ED800B292683594EA614E87CCCEA2022AA741F5
:103EE800D65F051070F0DD381EB7DDC7D822AC1DCF
:103EF8007FCFE997921EA35A1714F2A236726A026C
:103F08006CE8743E38A70945D3F5E914C827ABCE49
:103F1800A11062F355DF5071DC9977B2BA6755AFDB
:103F28002E2B8A4C4DEE87CEDCCE29E555B6613076
:103F3800FAF1FC5129461B5C2330AB67E7276B7508
:103F4800AE2B1D7331735CDAED97782B615B108BA8
:103F58002FF523F67CDAD26C86DA2527AEE565E103
:103F68004056463055C799B0174DAA88211D8F4A2B
:103F7800E8A98641B03C9100889B3B63E2CFAE54F0
:103F8800B4C95A89D0CE30E9C77F0DDF791919AF86
:103F980016E733F715B28FCBA4EE0CF1ECBD08FE93
:103FA800283F63862A00E2BD475F9D69EE3F0F17F1
:103FB800C5FE79A12F82122A1C46188662018B86BB
:103FC800FFE8C19AE2711789C375FD114EE3ED1B35
:103FD8007F6692DFFFA963E7BDD1177718787A0B60
:103FE800DB2FF1DF5E4AE178D6561C595DE4921C5E
:103FF800AC2590384D558400DC6E94F3F8FE090822
:10400800DD352ED20C810BE84093A08E91DB436303
:10401800D8329C7A182B4F4707D251C6F97E5CFFDD
:1040280072E101A4450F90F8BF7F2B1CEF5A886CF2
:10403800E8B83E97757771F50765FAA8895D7DB090
:10404800D220C6D31F35D89212AD51BD6682D5296C
:1040580043A175EA0BC43098E5D5A15B40B65F99DA
:10406800C6731D48D71FAC0F1B2A6F8D8E0785BCE2
:10407800E338BAE92B92AE66BF34777E7CAD1CD8A4
:10408800A7E51BA3BDFAE8C1A3F84C045507398975
:10409800518465EEC6D598F8F8F70A06185F26C465
:1040A800B6900544C2A4E28825104321DA06742F8D
:1040B80096CB01D0868E27A421409188662B334267
:1040C8004018C2ADF5FE2E982F954E45E022E7AA7E
:1040D8002C51F80AE4895CFC1ED7D14BE2F3B88571
:1040E8009CE3B318FB74AFE1F30688FC464FB26754
:1040F80072D9BE2E54FBDF33EA7A7DD238F0F14F05
:10410800211EE7E4CCBB6521CB2F54996B8FF29924
:10411800F4A5DA83941D716CA142798007462FFBC0
:1041280056089CC9AA1B597D8F811FEBA6CE16D1B4
:10413800029BDE2975C6315BE94B58E18356FFA126
:104148009466C0A7A07BA62736E9896FB1F8E1EA93
:10415800806AD4CEE7FEEB87A73329560419B8C482
:104168004FBE0E6A22210692032E754BC92E579216
:104178007775BEC7DAFD22BFD555604EB17EDCCB60
:10418800A166738380E6808400D0393895C7DB64E4
:1041980007626A78C336D3AB06C368953613D4A4CE
:1041A800652448B102A5175DFDE8F4609C8AA82A39
:1041B800737AAC579430730D770E12BAC347F37005
:1041C80023DA2805339D91B7FBD045518D4228F855
:1041D8005A360DCB677733631D57D028069C8280EB
:1041E8009961DA6528C330C1107396E801AE3E6A5A
:1041F800537D5234F50672C69EB9F19B8107BEB055
:1042080094D634CE73123ADFADC85E12E15471030E
:104218007C13D98B55ADB182A82871B61533C17AF4
:104228002F89B0F8CA90387FC76835524E97B0C208
:1042380048C3814B3E131A8B56A5AF30487BAFD38A
:10424800656C65D18E769B002783A68CD2A9415ACE
:10425800CE544BF7FFCAD4D9222DB3C75BE47353AE
:104268009268F65F2AAF5F4D625853867E0A5C9665
:104278001908799C24A038E6DC1172250FD238EE93
:10428800AED304D61DB1A79B854CDB16BD32968CE8
:10429800737576235730F156491F0BA49AE7949A01
:1042A80025443BF0C6460F1B899E565E01E67920E1
:1042B800C163DB2B5C2B44AA20DAD70ED05FA8B1F0
:1042C800A3C132FB139D633812F61A54CFF30718B3
:1042D800083255406B477F7D9F658C5111C856F851
:1042E800004C73386DC1D3481E9935011D3E538C5F
:1042F80080F568B305B8E5A4CAF05C547CA9C7E0AA
:1043080017394B757C36DA000B1EC17FA0DDE461DE
:104318003F9D95668A277F8402016501C109B07FA8
:1043280039A3600C4B7DB165609EC2952DDC3219B6
:1043380020A951A5C77B6A9CF82FD2C1A48873AA6B
:1043480046325237FD86CB63DEB4AEB0CB25940A35
:104358009BE28608385851A3E42360ECF32B150E32
:10436800B76E7799972B457E4D3EA275EDBB06D962
:1043780094F2702182B6A31895CF9C78C9A4309A7C
:10438800C79E4323413935743AA95158F8C6C2AB80
:104398002FF010172A5428BAC0B950B4A221F364D8
:1043A80046E8D92C315EA38BED79219CDB485A3D38
:1043B800617D22F21924213FBA494206F4C3821CC6
:1043C80055E3275F9EB1DAC9FE0AD1ED912AC3F9F8
:1043D800C29FC7ED3E5482C921CDDC0D0E507F8CA3
:1043E8002C99345D31EB17D8A34EDB21A4A7A17E0D
:1043F800C9F431202BAA8A58E7455174DF78F5A60D
:104408003948626C0F784378AD758F0C748CBBB7E4
:1044180071872704449AC60FCA16A3E7B30A8735DB
:1044280024ABAD2C8EEE58B95901D01268FE88B174
:10443800728CDD64134AB4F983A737DF34706F05D3
:1044480077B38BABCDBDF177CD092954DAACCA551A
:10445800326BF442FC880265053181C8E23D5FEAAF
:104468006519DB4ACF1C2C85252175B361A20CABDD
:104478001322C3807697741EB86EBD416E58DBB5A3
:10448800F81BD8A84BE5ECBC94892AB3AD8028BEAC
:1044980038B57458E8A472904D00237692839A5CDC
:1044A80097F6EB5943982611BA0E080F5BF190FA6C
:1044B8004E87CCCDCA7B6C07668BB6F03CC7FCA494
:1044C800855C7EB32A32BC883E10CC3069C367A1B4
:1044D8008640751A0C8BF9E4669479869512BD09A5
:1044E80003053E85BDE27390BDF01D0D292EB6076C
:1044F8009D9F098B04C76DA419CF93BD01977C8438
:10450800F2C5CAC4084578CC745DEDE37A6A5F41A8
:10451800A6D9C75B09866071D6F32E6103CB7647AF
:104528004A5B0D2C234EB62E8182936952942CC778
:104538005C6E1C8783FC72066FA97BC1CCE21EEF00
:104548009156222C77D9B95507216EEC2EB0579089
:10455800455B510D4E8C0F257C5F032F03B0B99638
:104568005A40E86665CAFDB0A9A232EE00CC478B76
:10457800B1ED0737F33C6F133038B466E0E07A6B7F
:10458800FB5BB8EDC8A5ED79DC49D0E6B87A1F8E9B
:1045980050AD2604E21DC7B561EABC3D7E2C50A48F
:1045A800E6576DA83F10C23C7CDC77A90DED0229C7
:1045B8002D4D368E0E175CC80A317EB3629FF89E69
:1045C80038C9D6D5AAE0844FCBF8D8EDE77EBA56DD
:1045D800F6483DA5837A970B5C0C16B770BBAE7A8C
:1045E800969CC3A2970B7FD2D9B242921B46FFD5A5
:1045F8008EC854FB4C83DB2ABEE33A328F2C5DDB3A
:104608003E6E71E8A2FED47C6623D7217A1697B74E
:10461800013BEF710078F3C403B50A564783E89568
:1046280063706E19787ED521B434C06CF81E2C5591
:1046380019EBD484CCC2E788B1DAE0B13904ECCA0A
:10464800D6E6744A0AC30FFC4CBD4F491E9CB03FC6
:104658002F2B90F77CDBE70C76CD16FA2690B191DC
:10466800F2D53554EFC3B30BA0FB811F0AD158799B
:1046780070946DB4D471C32235A2761BF11AE13956
:10468800C58336A8CB77F4D55E9621B03A9A171F22
:104698004998BBBFF445CFA41F7B89F0388C38AB51
:1046A800AC6AA0E0DA9600502691F52F84F3B2CDDB
:1046B80058ED77DBD1796C0C9DBED39A0628B71CD0
:1046C8009B4CE4F1DA4DEDBBB33DA152A378E20473
:1046D800511825A5E0055CC8D2B2EBD9AE56EA87D9
:1046E800E8B5591543BA812AB0B55F8B2DFA6E1B10
:1046F8005DF70E8DAA58F76C9EA2026A5F1FDFA7AE
:10470800A6A9547D9F646E37DD8E351EBF11E1EE7C
:10471800C288199E59460E860C37EC4ADC816C8992
:104728006EBC4D4F5772326351CDF4DFEBD3AE53AD
:10473800D73778F4A03D87E9A15892F640425FF94F
:1047480018A4EA16F4B2CE9821CABD6817EC75F819
:10475800EB08E09CE9A107214B2615AD89A701CA02
:104768004199D294F8A351A3D3339720B0969A5184
:10477800C840A08179E69DE31EC24259E1716E39B5
:1047880083FC4D140C2FF70436B91513A981F4D204
:1047980024915853AAB9A49AD073C6A4FD31456F81
:1047A8009A8215B277A729D5C5DF5D3749AE696A00
:1047B8002A0C9750D1BC9C526DEE055F26EC6F28F1
:1047C800DE8124FEA301397001CEBC9CE72C95390B
:1047D80067923C5FC62CF6106A9F236087F12ADD3A
:1047E800AF17333E17BD9813D567CB05525B896A5F
:1047F80025971251D94E2E6C9BD21DD1881EEB9352
:10480800876805E44334529517085ACE2A569341CF
:104818009AFA5C9B330318FE57A7F62EC892E9FE56
:10482800CD72652E8CA309F851406BD5D06BE2ACE4
:1048380008FF3DC2F07DB11338358FC82EF153A45F
:1048480032607B4D7F65C270025A5D838E811ACBC0
:10485800B7BF26E1F93D850506C7CB671B7A95F9F1
:10486800A201AC9E416D06EEBDCBBE76CF931DA1D5
:104878004E918CCEF700135A1CA4524EC53E1AA076
:10488800C5521584F0DB3C53037A8A90BFF37B3E14
:104898002C888FF51255104601B645F5AD90AFD46A
:1048A80096285A6D27FF68530E21A6B4003FAE4BD9
:1048B8001011ECAD892A0D1F139AD63084F4E96FD4
:1048C800B72E9843E8E3C92D9CF36E85AF622BC0E1
:1048D800793FDD92703FE75A0AF4928E0EE6E16165
:1048E8006A64060372C2A83503F6BD3A5D0C466BCE
:1048F800E2F063AE6279509082611F4ED3DBB4F26E
:104908002B79EA59CDA5F9B95035F4C35FE0751292
:10491800CEB989B457989E04CEB9A0D48B44C3703D
:10492800BDE867FB01B0804C10ADA9C4BE970A1161
:104938005BF2F7ADFB1C8EF599726795B468D30FDF
:10494800B7C98677ED8E366DA1FA4DDD0E6FF4EF9F
:1049580003EF3BE85E73719D8AC76FA692150C182A
:104968008AD74EEE393952C9F8D305F3FD9AE49146
:10497800DFC497CE46B6C52FDC6F33FAAE0CC4BB86
:10498800D61E6DA469C0181A032096B008B49F7289
:10499800E722B36A87BB9DE09C8D69767EF3C4B538
:1049A800271E07A7680A77E9430ABDB2642D73DC9E
:1049B80003837C900EE0417F80E3A7D0AEB57A1DDB
:1049C8004EB94601E26597C3381596AF4B60583C1F
:1049D800DACA1D496BFC97E598B7FEAC00C5310BE8
:1049E800D52BA6C429C6435B6EEA8374DBAAE0BA5A
:1049F800853BB97320BE88EBE56A9C2631C18F6779
:104A080082318B327AD4BF7833812441F6DD969C8B
:104A1800690340AB0AF0BF7BCF507ECD99B00858F0
:104A2800665C168A68063DFF30990EF48C592F6D26
:104A3800BC5A02186A96423D7401F2758A1A1BBC68
:104A48001EC95266E69D2D7F56C2CAF6D461252737
:104A58005BB7E16E83443D692F15E2139043C83874
:104A680036040BD04EB43E62492D48ED55C2EDCC0C
:104A7800AD65397E960E1CD50AC228A79DC3BFC056
:104A8800EAEF89E97A3109265F39A654112305BE70
:104A98009A6E9FB5DC0A7618B18B68EC762EEA78A8
:104AA8003C839B80D5877E4867FBFA8F0EF4BC77E2
:104AB800E8F5828EBBF235CEE5EA79F9076EF5FCAA
:104AC800AAE1E95D47F4859B3917CE1BCC54E55B19
:104AD800D5962E3C085CB2EBFF9A57FBC76A29DAD9
:104AE800B79C1C752E6FE8B07E3EF3E7479194C0E3
:104AF8007F4CEE2AD4F99DB0A530CA7A03D1961A14
:104B0800E48FFA10B3DA1B36A13C85614B5E7A1B41
:104B1800C422D687B6519A3B6EB4C49D365710EF5F
:104B280047E10C71C42946191A7FBBB31898609ADB
:104B3800366F6329D2BD92FD02B151C2FF0C1D8BA5
:104B48001D354A930426EF35B4DFB667EE62208C34
:104B58000E6B8EBF87E64B50439A052234B283FD15
:104B68006B7150494D546F2ED9E76B56A4F86022EB
:104B7800F112D6080CD632972C3C5108861EA25743
:104B8800CD7CB31507921D63E783BE9A675FC37F29
:104B9800D490510919197A64D86AF976B4A2DF5504
:104BA800A4DA1F212FB096EC76600EC27613E9DCEA
:104BB800004D0CF0DDD8D26B52F32206893C98E701
:104BC800F4006A5ADF1379646FB8CA514795A0DEBA
:104BD8008780002A76E2F131180387F88DDB36905A
:104BE800FB1B6DE4D685AD3D8906A4A19B4B1C60DB
:104BF8000624F42FD5A7B84A9C5017D2BCC4A66285
:104C0800A614A1CA977316D6FFED8C84C812D2B227
:104C180092E1C9890430A03B684B3D2C1A162DBB84
:104C2800884D15300A96E5026E4566E9B24FB3889D
:104C38006461EA714179390C39687EA3EAE324F1A9
:104C480083D38B4F8365D4EB30534515F720C2CC03
:104C5800E5759F46E24288B197F0BE31D65980ACDF
:104C6800D4A975777E2C30B0630B81E7CF8329EA0E
:104C7800044BBAB8C12CE3D8C8BED009108D843310
:104C88001193289FD29DFBEDC8301D8F9D1796B6B6
:104C9800111D787F5B1FF7694EF7CDC1E4ED401316
:104CA800531B4B498462C3F737421143CE5EE81960
:104CB800D09395A8BFE9977B268BC5D7BE6DF3D156
:104CC800CC356ACD79CD48CF7FA2BBB3BEEFFCAE61
:104CD8002CFC0CF725127C424AEE6DDFFD0C852D6D
:104CE8006DA20568EFBAB9E8A665F1A01E101835DF
:104CF800BDBD32C178F3729705915E6874E7B4ACB4
:104D08009463FBA8EF98B915BB2C61EAD26108C07F
:104D180015D88B7560066819EC977A4D49076A13A0
:104D280036F13F27809359FA4D2B82B771C5DFAC16
:104D380014BCEE638900FAA62C56C36C31E1037CDF
:104D48000D23E4DA2508CB36063AFB5C32B6D0717F
:104D5800BE33D2EFF33C004A1012FB44BBFF64D9C8
:104D6800D25480CBE0D9C120B62BB20FE60A6DB47D
:104D78001C27006DCF7EDCBC0A507C145C08D80A66
:104D8800AEDC7C126FC6170CD7D6B040216BED5E37
:104D98001174AAA77C5295E3D2D6D9D04B11F161F0
:104DA8006A875CA6E75C3FF60C32A46D656F791FD5
:104DB800E28763FFA94B40AEFB068486026E7661EC
:104DC80023F2A84186EA51F0AF56A424CC89C7182B
:104DD80064119479B2B861691F3C6BF4328E8E23EA
:104DE8008D806D14DD15565A63597A8D0134E74D5F
:104DF8007FFE6C9E5F6C3F636C4DC73CD0E11A6EC2
:104E080057C3A66CBFFCEFBABC6B8D8D584CA5D0B0
:104E1800E3CD45B15FCED33EFB764454B6062B6C4A
:104E2800F3EFABA8C9818C881D11D34A343A925943
:104E38003EEBC2A55010517CDE638EAAC267123BBE
:104E480048522860960025CB7968EED772976E8B0A
:104E5800731DC23BC4F5216ED67B941E96C23DAD30
:104E68005CA175069499F52C533AE2B5AD2BFF2356
:104E7800930A5EDCABE2FBBD6B724D3A2C9CBAAB7D
:104E8800F0E83AA4ACEA8CCBED27110D875D9130A0
:104E98006904EFAC2F455BFDE2D14F7BC1BEE975DC
:104EA800F3950F0C0BD77FF3F13154117CC2875E59
:104EB80006833E57AEF77BADE07A311FF82C50855C
:104EC8005AF7CF4C4A319961EEB4D6CF8223ED3EE2
:104ED8006E39F858A0705D15F4ADFA5BC07B778821
:104EE800F1C159E0A159A82115CCFB7F506FB2DB65
:104EF80033FED45ADE01FE70F61D2592301B76ABC8
:104F080069273427B5B599AF4428F9E04EAC42601B
:104F1800EDD03BA99C24B018FFD6121FB9D77167F2
:104F2800D1F45ABF4684FFD65DB3086C92718DC028
:104F38003B7561F64F841691EE3E809E8E16B15EEB
:104F4800ECDBC326E90CD2D81424C9446151D8FB40
:104F580062F0FE2D810EBAAEDC315D59814B143CF6
:104F6800C3D579E82EF5901779CC3CD127FF398045
:104F7800BE74372E9A40C4B59FC80C8CCB17990ABB
:104F88007C0AE35B8F6985AEC28720F4B699D59316
:104F9800677F53CD8A296C490C6C961D7E8C0A2834
:104FA800A46CB9DF5155E438CE72D16DE2FF60FAD6
:104FB800E85B8CDA3BE5EAEC4EEA233D02658D3886
:104FC800D6DB8BABD855F25713622315759D5C2041
:104FD800FA8D3FE3EE96809C8CB6096567F6F1A1E1
:104FE80065E4A25FC783EB0333E0E45A8F30EC90AB
:104FF8007E1344F67F5412D6BCEDD2E14FE7590B2D
:1050080002C3A25FEB8BF584D5206F13C57083CDE7
:10501800DAE2CD602AC7CB3997D17F2F6B474E7A1A
:10502800B2814F6B930F27488C1763641256342F45
:10503800FD65F8C9C84759981ACAC1C9BE87121769
:10504800DA240E5539858EFDD37CD9F47FE3D00A56
:10505800CBFADF8E785356924852F07159F28F1F6F
:10506800C4AC79D3255AF9263346948CDE972BEFB6
:1050780020EE14F7241727069C2DF9A666057C9EBA
:1050880048426712C01A77A5C8ADABCDA527924C88
:105098004F2D2B5D8961AB30A2EFFBF2728E8BFE38
:1050A800E81174CCFF3C7B3FFD8F4271E1BD96E374
:1050B800A2174F82D1EF1A64B9B2A1FF12D6E07FCE
:1050C8008736DDB7911C2DA23B3854AD743B9D4CFF
:1050D800BF7A3521A431D562BAFBFB5710B4FF075C
:1050E800F8D54344502125425322F338A2A3C3BF25
:1050F800A97D6A889BE44305B5ADAD2EF1779A5C2E
:1051080022ED482F77864C1F58CC4E70392FB45358
:105118008A085DBFF6C243602D7737B96DCCFC14A1
:105128000CD258D611341D59F7B8A85DA52B910893
:1051380005367620871BAA6DE11095D436A0979284
:1051480021DB2711C0E97CF448ACACF380F373E3AE
:1051580065B1E79F97DFE48DB2E0277F35FD4C62AC
:10516800AC347E1C1021912FF394A42339EDB2D4D2
:1051780024D88CC7D4ABBE5E951A22AB95D9D593EB
:10518800D43FD4BDDF03CAE09FF13D4E0D9CA02063
:10519800B7EFA81B4EAC2EB9A2B83F1F0FE7CBB88C
:1051A8009401C690064EBF79EEFD3A7034678FEDD4
:1051B80085D71AAE5BCB1FC2BDA003E0461006F828
:1051C8007A789A6563161E1E8C198968836722AAE5
:1051D80034A72FD696450C2CE1624334BC8FDFF4FC
:1051E8005FDB43446A162E324C7E2C6E1981545D67
:1051F800F060B0BA6E349D6D2C4A9312DD6A518D01
:105208006982C329B2CAFCA0378EE10AD0A1149DD5
:10521800917D1DEAB9CA452C3E0D64045B8C460D90
:1052280015D362EDAB24CB18EDE92F0686F225F9EC
:105238003784E67B39519F0A736754492FCBD6715F
:10524800B3ED1E060F75F85FDE99E4B4CB43E3892E
:10525800072DA621E16DD42EC07838F0B14D76E344
:10526800DB41E3AD257290B6395021D9767BCCC1AC
:105278007EBE6CBEF3CAD5482708419E2F0CB311D9
:1052880025E72E7F88F7392CF260688A0D342C4583
:10529800269135E3BE19260678A80A9AA0542AE072
:1052A800D36D3AA52280B4AE28CF230F9A041B23CE
:1052B80095CBC6B48FD93E6C759551AF8C45FADF46
:1052C800E3D3D7E91432C1EB438BFDBC0BFFB9F92B
:1052D800B6B3B2B1D6036790E27FA1E3C6C0098333
:1052E8009F1F4F6E036658A68BDB2A5C8077A864E5
:1052F8000E995607A75DE5CE5E3C33D02F28F9D925
:10530800EEEE8F39CA672DA748BF4B2259C9057ED3
:10531800FB22D5CC4BD6669427B26B34E834E6270B
:1053280027A4C9C2E5FB543508D4FAF41AA90B51CD
:105338000332C199D9D4C8C0D6E4DD6E8329531984
:10534800F86A77576ECD31F93AA783C8038FDA52D6
:1053580098EC05C3BCF9F8E0005C3E8FFD4591F57B
:1053680003BDDBEA05C62DE0FB87C80DBDB2295396
:1053780051A31492A9616C117EDDF707B5DB45FBDB
:105388009FC67E4106A76D99760587A6EA3D06FD6C
:10539800B5AE0A5318798A92BD8CE4A0F409F213C9
:1053A800C1F3333957C6DA6DF29FFF90BE1AD0DBCE
:1053B800B34B7E0B2031782A14B5BDBA0C2F03FBF2
:1053C800E790A78667517F867F38DB33D37BFB0363
:1053D80089ACA70B0C67F2F6A54DAC2C2EC7C436CA
:1053E8005B94ABB478D9CC7CA47B251052439F281E
:1053F8004E05309DF201F69E22B921D6B9F2F9FD8B
:105408005674FB6B3D28C606C0D0295BA41058987B
:105418002AD10B89FFEB869A1533660DF5ABDB179E
:10542800A12EA3287775B4420C3ABD84C07F4F8B58
:1054380045EBE5C419D324755F20B2295D2DBC81E5
:10544800670FD6DF0E5C6C069A0A10B27939A57917
:10545800F7D7945BE0F0125AF7601D5902FDC86057
:10546800A23183472EBA6C574AC8267A6E264ADD7F
:10547800E7E844FAE5E4C9505A91414124DC0B3588
:105488009B6C8D12A85BF966DA731FE459BCED4377
:1054980085AFB4B707570D3B64B2434EB14FD5B48F
:1054A8006ED3B3942022F3F4C4285EC8D9F23C79B1
:1054B800B79F82067721E6A054134EE089F865CE9F
:1054C800F6491DF97218D89D2DAC60097F31500539
:1054D8001560B9C20F2403BEB6B2B4CED1B57703F6
:1054E800F83CD722942A059299C16A436E62A9C5ED
:1054F80004658DB4B970A67E444842449245E14E95
:105508003CD5A1E38E15B875C41C6A2C09FC63024E
:10551800D26E3A748A6F5F06638136CDED4DFDA772
:10552800974CF3B77196C4DF9BBF8FFCE570612B76
:105538006163CB0601538C843D9E96DDD67731009E
:1055480078FF328184BB87BDC3FC1DE10471F79CE1
:1055580016316F50E83F42A90E89FE75EAF3872C91
:1055680054C9C19A4AFEC8FCEEECFDB5F8F78B01A8
:10557800D9786D84B17DFA64CEB16EC696AD75BD2D
:105588001C5C26E69454560BD7D5BFF3DD180D18CE
:10559800239C66DE476B17E50B0B461900CA21EC06
:1055A8006F527C3793A639A568261A0227E0D335AF
:1055B80072C1278FC360C4EE720266FCB28ABB91C7
:1055C80061541DA3A28B4D26199C02E2DF0CE35FF8
:1055D80065559E304FC3E7C8E4E1CD77F3BCE3FCE3
:1055E800B9C44A0653D1BA97105850D313CC6DC0DA
:1055F8006F7C17608C14E82F361FA27E7CE909C8DF
:1056080020D107FC164E9FAB89DE710EF9CCC2067D
:10561800A3D3F1D68F9B504DE7DB0C5151783B0952
:1056280004F9564C0E3432FB7D6E4ACCCE31FF4025
:10563800BC2F6AAFE3BA2965927FD5F51620EC1A1C
:105648005A2D42CC9AF597878942687FF322D0DB9E
:105658009B9B2ECA43B84D294D3BADA5D11485A6B9
:10566800A607DED83AD696BB3BB11AB64514299898
:10567800EB44EB5735B0F1B56AD9B6B30D02D37127
:10568800E74CA7C11E881A10463BCD2913C6C38F05
:10569800750E79C24E415070EC82A1EF8353EBB581
:1056A800E57C9C8485B66D9BE53D9404734D17D7C6
:1056B8005D8F8D5F7A9E916F10A640E1837342845F
:1056C800AE5DE5FCF239CE317950EE5670EE9F12A0
:1056D8004F3D1D71A1F8B6640A1CEFF3650ED8F8AA
:1056E800842B7EE135FA651BB0F0C88F4B60993A80
:1056F80070B49DFD5DCD29DBB1895282B843246F1A
:105708000DA0CC013885861E3EE77B896A7CEE5F5A
:10571800B77CEA0457AFF1C65A8A928AA9734288BD
:105728007DCA2BCC44043C4B7ED0F8DBB2231B76DD
:10573800F6D6FBC3FB787721D6A3F29B9137D89591
:105748009D3B50A76A72F305B672D70AE76173C624
:10575800B728D83F50476C5F85ADA33BF2A34A40BA
:10576800814FEEB2E58520852423D56E890F26F476
:1057780091B65E2D786C3DC11F181A7676754A076A
:1057880040F940E2AA489995E42739E070AD718262
:1057980097D9209A34105C8239E20D5981F8B92FD3
:1057A8006845F1116ED5E93818B61A6061A100F69E
:1057B800C10882FD23C01BDECDE26AE58A6B049333
:1057C8005A7E6C6B7DCCE5E90037BDAD8808568202
:1057D80096CBD3F926678A870C224189CA0A65F7CE
:1057E800E31999EBE0FBD7D373F254480A2E7A38C1
:1057F8005BAB5D323915FE19D9A3B564181947B8E2
:10580800C8D20FF22491FFC3F52CE7092E3727855C
:105818004DC90C182EAB4DCDE1D2113FBA3F094D01
:105828002F7C8CBFEB0399F54AFF93196B768A9608
:10583800A158BF4D670DACE3745F4667BFAA6813F4
:1058480088F15D88F9AAB9076659202981CE1EE139
:10585800A2F2B25B9EF4C5D4D45CDE7EB6C488697D
:1058680036D62CAC8A5FE6E597EDCF2F4DA741BD24
:10587800ECCD2F3A3B0680B4BF1BE7C7B15A44B4FE
:1058880047BE7CE5E232552978D6E5D114C12161BD
:10589800C0FDDCED6CF9DBF48C0F0046A21904E7BF
:1058A8004FCFBEB2A49DD183D67AB14748FECA373E
:1058B80042A0D588B6C399EC655AEFC12381CC8440
:1058C8003791CD893B898AAFCD3CE5139FEFF0DA5C
:1058D8009BC91B340184E2BB2589D2ADA5888FCD35
:1058E80048AD17FA558DDFAA5F13AC4F1C107D62C7
:1058F800C950458B5BE8C3C9B66ABBB387EA6B413D
:10590800D2739DF906D494CC8E78A60B7286A5B670
:10591800B7C5CC5AB7A03ABD49D2E535AEE39D82AA
:10592800DE09AB424B36BA0A23530DC19AAC9844F0
:10593800709E4754E27DDF3DA04F9F3DCC087FA677
:10594800E2AAE98B68C579AB7F6905BCC5F3E0D9E4
:10595800D484AB901E5FE4A4F82823C9E2C642FCB5
:1059680061A19B7CCA1B34AD2FB6FCAF57A5A1A87B
:10597800F60C7AF142ECA007C2840058EE8C88BD80
:1059880087B7380DB9F41B1E59274937BEF9709DE2
:10599800A35E3A7E67268469D961B71594F2E5F566
:1059A8000831A138B92E60283B1833CB794C67CC25
:1059B800010FB34369E7D0FA64835D0A0F8EE56887
:1059C80011EFCFD9667FB382EBFB8B9195B2B97E8D
:1059D80051469949ABD7B2D2665291D7E2E4050055
:1059E8004B2A795984C8FB5D5164F899665BF2BC0F
:1059F800F63CEDD7499108F76A5BCBF8BF26F4DC93
:105A08005B9F0A97963A75044771656996303975B0
:105A1800502F2A49B5554E5B0973D85F7EAB756325
:105A28003BADE59609D3D6B2CFEA39B7239959B732
:105A38004858CEA927B87F33919C6AC16E7AA5CD04
:105A480010497896F4C35A2E6248134570DE223402
:105A5800B7CC78C81373E103AFDFD83430FC5653A2
:105A6800A116F7C72D630A5827F2AEAFA754652AC7
:105A780095165E1631BE4358C6814585DB68ED0B29
:105A88009E5472CD6D35CC0D518293F071E6E8ECE1
:105A9800C91059BEFEA07B3A1AA9FDD4AA5912DD35
:105AA800A5E1BD65679793EF641F0E11AD2D228D9B
:105AB8002A3F91E46BF3A944DD836AC00FB3F1A2D6
:105AC800B56D6896CFAA4A9765FBAF92A8905DAF6F
