:020000040800F2
:1000000000100020510200084D0200084D020008B7
:100010004D0200084D0200084D0200084D02000884
:100020004D0200084D0200084D0200084D02000874
:100030004D0200084D0200084D0200084D02000864
:100040004D0200084D0200084D0200084D02000854
:100050004D0200084D0200084D0200084D02000844
:100060004D0200084D0200084D0200084D02000834
:100070004D0200084D0200084D0200084D02000824
:100080004D0200084D0200084D0200084D02000814
:100090004D0200084D0200084D0200084D02000804
:1000A0004D0200084D0200084D0200084D020008F4
:1000B0004D0200084D0200084D0200084D020008E4
:1000C0004D0200084D0200084D0200084D020008D4
:1000D0004D0200084D0200084D0200084D020008C4
:1000E0004D0200084D0200084D0200084D020008B4
:1000F0004D0200084D0200084D0200084D020008A4
:100100004D0200084D0200084D0200084D02000893
:100110004D0200084D0200084D0200084D02000883
:100120004D0200084D0200084D0200084D02000873
:100130004D0200084D0200084D0200084D02000863
:100140004D0200084D0200084D0200084D02000853
:100150004D0200084D0200084D0200084D02000843
:100160004D0200084D0200084D0200084D02000833
:1001700010B5054C237833B9044B13B1044800E0A3
:1001800000BF0123237010BD2C12002000000000CE
:10019000BC73010808B5034B1BB10349034800E0D9
:1001A00000BF08BD0000000030120020BC73010831
:1001B000A3F5803A704700BF174B002B08BF134BC5
:1001C0009D46FFF7F5FF00218B460F461348144A62
:1001D000121A00F044FC0E4B002B00D098470D4B38
:1001E000002B00D098470020002104000D000D488E
:1001F000002802D00C4800E000BF00F0FFFB200008
:10020000290000F067FB00F0E5FB00BF00000800DC
:100210000000000000000000001000202C12002050
:10022000B81C0020000000000000000005490A681A
:100230001318054883428CBF4FF0FF320B60104605
:10024000704700BF0010002000000120FEE7000002
:1002500008B500F013F8064B064A07498B4201D354
:10026000FFF7AAFF52F8040B43F8040BF6E700BFB0
:1002700000100020C47301082C120020044B054A12
:100280009A60D3F8882042F47002C3F8882070473F
:1002900000ED00E000000008EFF3108072B6704738
:1002A00000B962B6704700004FF48032054B9A6681
:1002B00041F6713203F51C33DA63012203F5005372
:1002C000DA6070470090004041F671320121064B20
:1002D000DA6303F50052D1600022DA634FF4803212
:1002E000A3F518339A66704700000340836813B97A
:1002F000816070475B685A68012AFBD1596070477A
:10030000C369032B9FBF00EB83020133D160C3613C
:100310007047C369042B15D84FF09842116CC9027D
:10032000FCD504339B0013650168103B11604168E4
:100330000C30116050F8041C034411604FF09842D7
:10034000984200D1704750F8041B1160F8E7000094
:1003500010B50446FFF7A0FF024B1C60FFF7A0FF9B
:10036000002010BD4812002010B5FFF795FF034B89
:100370001C68FFF795FF204610BD00BF4812002003
:1003800007B530B9CDE90012FFF7EEFFDDE9001245
:1003900030B1436823B1006803B05DF804EB18473F
:1003A000232003B05DF804FB30B51C4685B058B976
:1003B000CDE90012FFF7D8FFDDE9001204B903AC64
:1003C00020B9232005B030BD03B903AC8568002DEA
:1003D000F7D023460068A847F4E700207047FEE7FF
:1003E0004FF4005300204B607047012070470020FD
:1003F000704707B5002001AB0190FFF7D5FF0198CA
:10040000002808BF4FF0FF3003B05DF804FB10B5C3
:1004100014460020FFF7B4FF204610BD10B50020A1
:100420001C4600F0B9F9002820600CBF1B200020FA
:1004300010BD08B5002000F0EDF900280CBF2F20FA
:10044000002008BD07B500F031FA02230093002315
:100450001A461946184600F0F7F90348FFF778FFE7
:10046000002003B05DF804FB04100020002070475A
:1004700000207047B0F5802F24D010D8B0F5003F91
:1004800022D006D828B3B0F5803F14BF0120482001
:100490007047B0F5403F14BF01202C207047B0F5E5
:1004A000302F13D008D8B0F5E02F11D0B0F5202FA1
:1004B00014BF012010207047B0F57F0F14BF01203A
:1004C000062070474B2070472A2070471120704744
:1004D0002120704708B5B0B14FF480620B4B9A668B
:1004E000FFF717FF4FF098435A6CD202FCD54FF438
:1004F0008062586D064B10F470209A6604D0BDE8F7
:100500000840FFF7B7BF212008BD00BF00900040A2
:1005100000A0004008B528B12022002100F09FFA79
:10052000002008BD2120FCE708B1FFF7F3BF212020
:100530007047000010B5044668B161B10023074A56
:100540008360C0E90023C361FFF7DAFE2046BDE8FF
:100550001040FFF7BFBF212010BD00BF00000243C5
:1005600010B5044668B161B10023074A8360C0E951
:100570000023C361FFF7C4FE2046BDE81040FFF72B
:10058000A9BF212010BD00BF0000034370B50E4677
:100590001546044686B0D0B1C9B1C2B100230D4A98
:1005A0008360C0E90023C36101AB0393012304937B
:1005B000094B03A90593FFF799FE2046FFF78AFF31
:1005C00018B9019B3360029B2B6006B070BD2120DF
:1005D000FBE700BF00000443080000201FB50446ED
:1005E00098B191B100230A4A8360C0E90023C36136
:1005F000012301910293074B01A90393FFF776FEB4
:100600002046FFF767FF04B010BD2120FBE700BFC5
:1006100000000843040000200369C26893429CBFA5
:1006200080681B18013B981A70472DE9F843D0E900
:1006300002940546A9EB04084068904520440F4603
:10064000144404D900F0FEF9EC60BDE8F88342469A
:10065000A4EB090400F0F6F92246686807EB0801EC
:10066000F0E72DE9F8430646894617464FF00008A3
:10067000C5683469B368A54228BFE418013C621B11
:100680005C1BBC4228BF3C46944228BF144670689D
:1006900049462844224600F0D5F9B3682544AB42C8
:1006A00008BF00253F1BA044A144F560E1D14046AE
:1006B000BDE8F883032310B50F4C4FF48062C4E902
:1006C00004330E4B0E49E3610023A16121660D49FD
:1006D000E01DC4E919120C49A3626362E362236757
:1006E000E3666367226200F0DBF92046074900F009
:1006F000D7F92023A37110BD00140020A8180020F2
:1007000070190008A8140020791900087D19000844
:100710002DE9F84FDFF87C80824698F80030894652
:1007200016460BB9FFF7C6FF182707FB0A873D6F70
:10073000D7F86CB05D452BD9BC6E796E641BB442A2
:1007400028BF344648462944224600F07BF9BB6E58
:100750002544AB4208BF0025A144361BABEB050284
:10076000964228BF164656B1182303FB0A83596EDA
:1007700032462944484600F065F93444354424B1F2
:10078000182000FB0A88C8F870502046BDE8F88F92
:100790000024E3E70014002010B50B46EFF31184AA
:1007A0004FF0200181F311881946FFF7B1FF84F360
:1007B000118810BD70B5182400FB0445144B164673
:1007C0001D4404FB0033DC6A012C0ED0022C18D02F
:1007D000E4B92846FFF720FF864204D8324628466F
:1007E000FFF723FF3446204670BD2846FFF714FF6D
:1007F0008642344628BF044628462246FFF715FFA6
:10080000F1E72846BDE87040FFF72BBF0024EAE778
:100810000014002037B50B4B0C461B782BB9CDE9E3
:100820000002FFF747FFDDE90002EFF311854FF00B
:10083000200181F311882146FFF7BCFF85F3118861
:1008400003B030BD001400202DE9F041164C1E46C7
:1008500023780546884617460BB9FFF72BFF236917
:10086000AB421DD9EFF3118C4FF0200181F31188B9
:1008700065B1182005FB0003E21844F8038000234B
:10088000576000FB0542166293625362182000FB1A
:100890000544069BE3628CF311880020BDE8F081DB
:1008A0004FF0FF30FAE700BF00140020FFF702BF4F
:1008B0004FF4005382B00193019B5A1E0192002B0A
:1008C000FAD1034A136923F00403136130BFF9E737
:1008D00000ED00E070B58CB00021202204A800F0EB
:1008E000BEF84FF0FF344FF480322F4B01945A661C
:1008F0009A664FF480629A66FFF7A4FDFFF7B6FD93
:1009000004A8FFF707FE03AA02A904A8CDE9024440
:10091000FFF73CFEDDE90212244800F0A9F8244D5F
:1009200001A904A8FFF75AFE0199224800F0A0F897
:10093000EC682148214600F09BF8019B24F07F449D
:1009400023F07F43A34204D31C4800F091F8FFF743
:10095000AFFF1B4E33681B68013301D01948F4E721
:1009600004A8FFF7D7FD294604A8FFF7E3FD0446D6
:100970000146154800F07CF884B9FFF795FC042285
:100980001249306800F0ECFFFFF79EFC294604A8EE
:10099000FFF7E6FD01460E4800F06AF804A8FFF7ED
:1009A000C3FDFFF765FDD2E700900040217201080A
:1009B00084190008607201087872010898720108B1
:1009C00010100020C3720108E87201081C730108AE
:1009D0000073010808B5074B044613B1002100E07D
:1009E00000BF054B1868836A03B198472046FFF79C
:1009F000F6FC00BF000000002473010870B50D4D27
:100A000000260D4C641BA410A64209D10B4D0026F4
:100A10000B4C00F097FF641BA410A64205D170BDDB
:100A200055F8043B01369847EEE755F8043B01368C
:100A30009847F2E7241200202412002024120020FC
:100A4000281200200A44431E914200D1704710B57D
:100A500011F8014B914203F8014FF9D110BD024446
:100A60000346934200D1704703F8011BF9E70000E9
:100A70000FB40A4B13B51C6824B1A36913B92046FF
:100A800000F06EF805AB049AA1682046019300F0CF
:100A90008BF902B0BDE8104004B07047141000207C
:100AA000034611F8012B03F8012B002AF9D17047F6
:100AB000002310B504468360818119464366C281D4
:100AC00008228361C0E90033C0E904335C30FFF7DA
:100AD000C6FF054B24626362044BA362044BE362CE
:100AE000044B236310BD00BF5513000877130008A3
:100AF000AF130008D3130008014900F0AFB800BFDE
:100B0000A916000870B568224D1E0E46554305F122
:100B1000740100F0C5F8044640B1002105F16802F7
:100B2000C0E900160C30A060FFF799FF204670BDA9
:100B3000014800F0B3B800BFA91C0020014800F034
:100B4000AEB800BFA91C0020014800F0A7B800BF44
:100B5000AA1C0020014800F0A2B800BFAA1C002077
:100B600010B50446FFF7F0FFA3691BB1BDE81040C4
:100B7000FFF7F0BFC4E9123323652046124B134A36
:100B80001B68A262A34204BF0123A36100F020F806
:100B90006060204600F01CF8A060204600F018F8C5
:100BA00000220421E0606068FFF782FF0122092132
:100BB000A068FFF77DFF02221221E068FFF778FFAF
:100BC0000123A361D2E700BF24730108F90A0008DA
:100BD000F8B50746FFF7ACFF1E4B1E68B36913B9A3
:100BE0003046FFF7BDFF4836D6E90134013B03D557
:100BF00033680BB33668F7E7B4F90C50D5B9164B28
:100C000004F158006566E36000F047F8FFF796FFCF
:100C10000822294604F15C002560A561C4E901555C
:100C2000C4E90455FFF71BFFC4E90D55C4E912558B
:100C30002046F8BD6834D9E704213846FFF762FF43
:100C4000044630600028D5D1FFF778FF0C233B60C5
:100C5000EEE700BF247301080100FFFF2DE9F84310
:100C60000646884600F148040027D4E90195B9F109
:100C7000010905D52468002CF7D13846BDE8F88372
:100C8000AB89012B07D9B5F90E30013303D02946C2
:100C90003046C04707436835E9E7704770477047FB
:100CA000F8B5CD1C064625F0030508350C2D38BFD8
:100CB0000C25002D01DBA94203D90C233360002051
:100CC000F8BD00F0B3FD21490A6814469CB9204FD5
:100CD0003B6823B92146304600F02CFB386029469A
:100CE000304600F027FB431C23D10C2330463360F1
:100CF00000F0A2FDE3E723685B1B17D40B2B03D99D
:100D000023601C44256004E06368A2420CBF0B60B2
:100D10005360304600F090FD04F10B00231D20F0DD
:100D20000700C21ACCD01B1AA350C9E72246646838
:100D3000CCE7C41C24F00304A042E3D0211A3046BF
:100D400000F0F8FA0130DDD1CFE700BFAC1C002085
:100D5000B01C00209368013B002B936010B408DAAC
:100D60009469A34201DB0A2903D15DF8044B00F02A
:100D700035BB1368581C1060084619705DF8044BA9
:100D80007047F8B506460F461446D518AC4201D157
:100D9000002007E03A4614F8011B3046FFF7DAFF5F
:100DA000431CF3D1F8BD00002DE9F04F0D469DB076
:100DB00014469846064618B183690BB9FFF7D0FE72
:100DC000894B9D421BD175686B6ED90705D4AB89E1
:100DD0009A0502D4A86DFFF761FFAB891B0701D507
:100DE0002B69EBB92946304600F05CFBC0B16B6E55
:100DF000DC070ED54FF0FF301DB0BDE8F08F7B4B08
:100E00009D4201D1B568DFE7794B9D4208BFF56887
:100E1000DAE7AB899805EDD4A86DFFF740FFE9E765
:100E20000023CDF80C804FF00109DFF8C881099349
:100E300020238DF8293030238DF82A3023469A4616
:100E400013F8012B0AB1252AF9D1BAEB040B0BD008
:100E50005B46224629463046FFF793FF013000F0FB
:100E6000AA80099A5A4409929AF80030002B00F09F
:100E7000A28000234FF0FF320AF1010A0493079386
:100E80008DF853301A93CDE905235446052259486D
:100E900014F8011B00F0BCFC049AD8B9D10644BF79
:100EA00020238DF85330130744BF2B238DF8533084
:100EB0009AF800302A2B15D0079A544600204FF09C
:100EC0000A0C214611F8013B303B092B4ED9B0B139
:100ED000079214E0A0EB0803A24609FA03F31343B8
:100EE0000493D2E7039B191D1B68002B0391BBBF22
:100EF0005B4242F0020207930793B8BF0492237843
:100F00002E2B0CD163782A2B35D1039B02341A1D6A
:100F10001B68002B0392B8BF4FF0FF330593DFF837
:100F2000E4A003222178504600F072FC40B1402337
:100F3000A0EB0A00013403FA00F0049B034304937E
:100F400014F8011B06222C488DF8281000F060FCD4
:100F500000283FD0294B1BBB039B073323F007031B
:100F600008330393099B3B44099367E70CFB023268
:100F70000C460120A5E7002301344FF00A0C194666
:100F80000593204610F8012B303A092A03D9002B8B
:100F9000C5D00591C3E70CFB012104460123F0E70E
:100FA00003AB2A4604A930460093154B00E000BF6E
:100FB0000746781CD6D16B6ED90705D4AB899A0544
:100FC00002D4A86DFFF76BFEAB895B063FF512AF4D
:100FD000099811E703AB2A4604A930460093084B51
:100FE00000F082F8E4E700BF487301086873010865
:100FF000287301088873010892730108000000003B
:10100000830D00088E7301082DE9F04716469946B6
:101010008A6807460B690C46DDF820809342B8BF0A
:101020001346336091F843200AB1013333602368DB
:10103000990642BF336802333360256815F0060510
:1010400006D104F1190AE36832689B1AAB4229DC25
:1010500094F84320131E226818BF012392062ED451
:1010600004F1430249463846C047013021D0236885
:101070001A3454F80E5C03F0060332680026042B81
:1010800054F8123C08BFAD1A54F80A2C14BF0025BE
:1010900025EAE5759342C4BF9B1AED18B5421AD1F3
:1010A000002008E00123524649463846C047013037
:1010B00003D14FF0FF30BDE8F0870135C3E7E118F9
:1010C0005A1C30200233224481F8430094F8451022
:1010D00082F84310C4E70123224649463846C047F8
:1010E0000130E6D00136D9E72DE9FF470F7E914662
:1010F00080460C46782F9A460C9D01F1430207D892
:10110000622F0AD8002F00F0D880582F00F0A3805B
:1011100004F1420584F842703AE0A7F16303152B0D
:10112000F6D801A151F823F08111000895110008AB
:101130001111000811110008111100081111000807
:101140009511000811110008111100081111000873
:1011500011110008A1120008C5110008831200082F
:101160001111000811110008C31200081111000824
:10117000C511000811110008111100088B12000898
:101180002B681A1D1B682A6004F1420584F842305E
:101190000123A3E020682968060601F104030AD5AB
:1011A0000E682B60002E03DA2D23764284F843303C
:1011B0005E480A2319E00E6810F0400F2B6018BF3C
:1011C00036B2EFE72B682068191D2960010601D5AA
:1011D0001E6802E04606FBD51E886F2F53480CBFE1
:1011E00008230A23002184F843106568002DA560B8
:1011F000A2BF216821F0040121600EB9002D4DD05D
:101200001546B6FBF3F103FB1167C75D05F8017DD9
:1012100037460E46BB42F4D9082B0BD12368DE07B4
:1012200008D5236961689942DEBF302305F8013C87
:1012300005F1FF35521B22614B4603AA2146404669
:10124000CDF800A0FFF7E0FE01304CD14FF0FF30A9
:1012500004B0BDE8F087354881F8457029682368F7
:1012600051F8046B29601D0614D5DF0744BF43F015
:10127000200323601EB9236823F02003236010237A
:10128000B0E7236843F0200323607823284884F8DC
:101290004530E3E7590648BFB6B2E6E71546BBE777
:1012A0002B682668181D6169286035061B6801D502
:1012B000196002E07006FBD51980002315462361F2
:1012C000BAE72B6800211A1D2A601D68626828464B
:1012D00000F09EFA08B1401B606063682361002340
:1012E00084F84330A8E723692A4649464046D04758
:1012F0000130ABD023689B0713D4E068039B98426E
:10130000B8BF1846A4E70123324649464046D047B5
:1013100001309BD00135E36803995B1AAB42F2DCE4
:10132000EBE7002504F11906F5E700BF9973010802
:10133000AA73010838B50023054D044608462B6002
:10134000FEF774FF431C02D12B6803B1236038BD44
:10135000B41C002010B50C46B1F90E1000F0BEFA16
:101360000028ABBF636DA3891B1823F48053ACBF67
:101370006365A38110BD2DE9F0411F468B890546A9
:101380000C46DB05164605D502230022B1F90E10E6
:1013900000F0C6F9A3893246B4F90E10284623F4AA
:1013A0008053A3813B46BDE8F04100F069B810B519
:1013B0000C46B1F90E1000F0B3F9431CA38915BF18
:1013C000606523F4805343F48053A38118BFA38145
:1013D00010BDB1F90E1000F0D3B80000F8B50E46FC
:1013E0001446054618B183690BB9FFF7B9FB214BC9
:1013F0009C422BD16C68A369A360A3891A072FD5DF
:1014000023696BB32369F6B220683746C01A636953
:10141000834204DC2146284600F046F930BBA3682D
:101420000130013BA36023685A1C22601E7063696F
:10143000834204D0A389DB0706D50A2E04D12146B6
:10144000284600F031F988B93846F8BD0A4B9C426D
:1014500001D1AC68CFE7094B9C4208BFEC68CAE7F2
:101460002146284600F01EF80028CBD04FF0FF3769
:10147000EAE700BF48730108687301082873010890
:1014800038B50446064D0846114600222A601A4621
:10149000FEF7BDFF431C02D12B6803B1236038BDAA
:1014A000B41C0020324B70B51D6806460C4625B1B1
:1014B000AB6913B92846FFF753FB2E4B9C420FD163
:1014C0006C68A389B4F90C2019072CD4DD0611D45B
:1014D0000923336042F040034FF0FF30A3813EE028
:1014E000254B9C4201D1AC68EBE7244B9C4208BFE2
:1014F000EC68E6E7580712D5616B41B104F144038B
:10150000994202D0304600F09DF900236363A3891D
:1015100023F02403A3810023636023692360A3894C
:1015200043F00803A38123694BB9A38903F4207313
:10153000B3F5007F03D02146304600F029F9A08999
:10154000B4F90C2010F001030AD00023A3606369F2
:101550005B42A361236943B910F08000BAD170BD2A
:10156000810758BF6369A360F4E70020F7E700BF75
:1015700014100020487301086873010828730108DB
:1015800038B50023054D044608462B60FEF725FFBD
:10159000431C02D12B6803B1236038BDB41C00206A
:1015A0008A892DE9F041054610070C4658D44B684E
:1015B000002B05DC0B6C002B02DC0020BDE8F08169
:1015C000E66A002EF9D0002312F480522F682B60B7
:1015D00032D0606DA3895A0705D56368C01A636B62
:1015E0000BB1236CC01A00230246E66A2846216A22
:1015F000B047431CA38906D129681D292CD8294A44
:10160000CA40D60728D50022D90462602269226028
:1016100004D5421C01D12B6803B96065616B2F6052
:101620000029CAD004F14403994202D0284600F0B0
:1016300009F900206063C1E7216A01232846B04709
:10164000411CC7D12B68002BC4D01D2B01D0162BF9
:1016500001D12F60B1E7A38943F04003A381ADE737
:101660000F69002FA9D093070E680F600CBF4B695C
:101670000023A6EB07088B60B8F1000F9DDD434601
:101680003A46216A2846A66AB047002806DCA389A4
:101690004FF0FF3043F04003A3818FE70744A8EBEE
:1016A0000008E9E70100402038B50B6905460C4603
:1016B00013B90025284638BD18B183690BB9FFF767
:1016C0004FFA144B9C421BD16C68B4F90C30002BC0
:1016D000EFD0626ED00704D4990502D4A06DFFF755
:1016E000DDFA28462146FFF75BFF636E0546DA0701
:1016F000E0D4A3899B05DDD4A06DFFF7D0FAD9E72C
:10170000054B9C4201D1AC68DFE7044B9C4208BF0B
:10171000EC68DAE748730108687301082873010868
:1017200038B50446064D0846114600222A601A467E
:10173000FEF75DFE431C02D12B6803B1236038BD68
:10174000B41C002070B50E46B1F90E1096B01446C8
:1017500000291D4608DAB6F90C3000222A601A0664
:1017600010D44FF480630EE06A4600F0C9F80028F8
:10177000F1DB019A02F47042A2F500535A425A4139
:101780002A60EEE740230020236016B070BD000001
:101790008B8973B59D0706460C4607D504F14703B0
:1017A000236023610123636102B070BD01AB6A460F
:1017B000FFF7C8FF009905463046FFF771FA48B9B0
:1017C000B4F90C309A05EFD423F0030343F002037D
:1017D000A381E3E70D4BB362A389206043F080034C
:1017E0002061A381009B6361019B5BB1B4F90E1082
:1017F000304600F097F828B1A38923F0030343F0A3
:101800000103A381A0890543A581CDE7F90A00085A
:10181000C9B2024410B59042034601D1002303E04F
:101820001C7801308C42F6D1184610BD0148FFF7F4
:1018300035BA00BFA81C00200148FFF730BA00BF2E
:10184000A81C002037B5002943D051F8043C0C1FD8
:101850000190002BB8BFE418FFF7E8FF1E4A01987B
:10186000136833B96360146003B0BDE83040FFF71C
:10187000E3BFA34208D9256861198B4201BF1968EB
:101880005B6849192160EDE71A465B680BB1A3421A
:10189000FAD911685518A5420BD12468214454186F
:1018A0001160A342E0D11C685B6821445360116061
:1018B000DAE702D90C230360D6E7256861198B4269
:1018C00002BF19685B684919636008BF21605460F2
:1018D000CAE703B030BD00BFAC1C002038B50446D9
:1018E000064D0846114600222A601A46FEF781FD81
:1018F000431C02D12B6803B1236038BDB41C002007
:1019000038B50023064D0446084611462B60FEF705
:1019100067FD431C02D12B6803B1236038BD00BFB3
:10192000B41C002038B50023054D044608462B6042
:10193000FEF75BFD431C02D12B6803B1236038BD69
:10194000B41C0020F8B500BFF8BC08BC9E46704728
:10195000F8B500BFF8BC08BC9E4670470000000008
:1019600001B40248844601BC604700BFAD110020AD
:101970005465726D696E616C005254540053454752
:1019800047455200EB17A65E95580100F857010035
:101990000401020201010000144364C63329EA81F4
:1019A000FB2FBE9A86537969D6764C7073DF7D30F3
:1019B000D3B62CECFDF77FB3276D943E52D1D5A35F
:1019C000D1A88E983F5A7801BF4F204C00C5158989
:1019D000E34EB80690A59DE0E45A952AF8D956063C
:1019E0002974AB4B8E6BCE4E00779A76B88B3BF852
:1019F000215BDD061A5247B4B95AB5256200028D43
:101A0000C1E5F9B43AB224F3C3F7656760EDE600C7
:101A100053364B41D1DCD3E8AF8B7899202C082F7B
:101A2000E373C331771FCF8B03470008BFB503852E
:101A3000C47B08CCC002750D125276211CFFFF1228
:101A40004D749A5F886BD30CDF2751410FDE50E154
:101A50007DFB0B21A5FEC412902684EDF45DFB0CEA
:101A6000B91DF40206B3653A89A417C52479E0BF0D
:101A7000DA74D16131BD8644D92B24AAECE61E6FFD
:101A8000EC965CF065C6125627A8BC5EF387A910D9
:101A9000B29B8380EBEE066075435A50E2375FF8E5
:101AA00074A634EC5E62BEFF99216802013E3A677B
:101AB00096688649A4FA0F88800A4C190AC967E516
:101AC00010D5D7012E10BE99A8953C694B126EB95E
:101AD000B4184C91C8001520F635F0E1A4846FFECF
:101AE000376F304A733A2F381C642AEED99C69A3A9
:101AF000302053297D6C02D5AED6C07F86E96F2792
:101B00008A9ED0D76007276DB0802ACDBA5366155C
:101B1000CD2CE158073302B3F858F19EE53696DB39
:101B2000E547292EF141772407CA392477740DB986
:101B300091FCA057F308D23813F29A318EE6B3BB6A
:101B400059DC61D838E89CF616F1245B9887AF41E0
:101B50007C87C7A95F61EEE861AB84F2874D38AE40
:101B600018A4AAA5FE5179E6A26468C5D448AA378C
:101B700094BC06B304E2545A8E328A4A9052F09BC7
:101B8000921133A63E4A34F2840550F8DF3EE394C6
:101B9000FF2E95D9BC539B0A779372AB8242213CAE
:101BA0004D643142D52A02EF25A57D02436EC78DD3
:101BB000FA29DCC8906AB6D503E3A1BC60B4C6FDBF
:101BC000E3CF8326582CB275892C54574DB5DBE4EE
:101BD0004F7871FCE9468F76340B79255B60FA44C7
:101BE0003634FB1C2B46B1C7461AD3B85C41A6213C
:101BF000669B04EE566AE209E1231BD8381DB63411
:101C00009FF1DCBC3895EBD75BE2DC48124C1A3410
:101C10003F29D7B5B8309AEC239393526F93ED4692
:101C20002DAF8211E1AEA88A281E88C06CB6385C40
:101C30003A17A1FACE01EC0A04E98EE0205EA47204
:101C40008D9DE0E24A6C6053430BDB368970D750C0
:101C5000F557936E611A012AA27CA1DDA59821B1E6
:101C6000B3F6282460432F47D76BBF7CF39C7B38A7
:101C7000CD957958E2689FD29E176B650EE56A8B09
:101C80001B9C30C73E4317B2BAAFDB488504B7B9D7
:101C90008959B2C3C650C5779EDBBDC6FA5174C917
:101CA000168C93C47BB8AE0DB5AC13BE8076376B83
:101CB000BCC61DE34D3013AC8BF458F033B7FB12A8
:101CC000AC60D3DF51BE9B912B79BC2A0B732B8464
:101CD000277187E9289D19335DD57A91441DCE84FB
:101CE0002526E1284D66D5E5179AE3F51720FBE296
:101CF000872474A89AA3EBB688DC47CF602BFBBE81
:101D0000E9BC1C81D9A056064C1FF754374F5BD74E
:101D1000449F690FD7497546DAF683284FF1E9E504
:101D2000AC2F47B21092E7C61F62C4D6469CA434BB
:101D3000048A7B3D5A1CE252928BCB998B0B8EDD31
:101D4000462D1B9302A7311B28023044A0A6C509CB
:101D5000EEA185FECAF8EF3902517E9B1918C5AB7A
:101D600035994A51958DDAAA30D624503E6734B25F
:101D7000B2FBC569761F04168FCC0503299B02B4FC
:101D80006E95608E8C6F174F9AE5331F32251C328B
:101D90002C4D1971C94B49724FC694DD44F9CE07D9
:101DA0007EBEE07E7CFD54C357DAB7E8263694A3A6
:101DB000CE364E6762A25F67AB74C843DEB8ACE84C
:101DC000274BE55B01554A1FE40FF1B84A65AA9617
:101DD000B4089BF969345A0DBE9D098C80695CB1C9
:101DE0008416463728D2D1A8A18FFB93402C873B7D
:101DF00078E1A83F5A517D29EF4E12A40330D56DEA
:101E0000D8DBCB46F46C82DB0B852FD7F3F5513949
:101E1000C74D7A732438A52FAE7D5BAD89FF2E5256
:101E2000A181499AA8CF4FBA394FFAA768EA2A9AEE
:101E30007BC41EEE789B54DC1C366A6221C4D2AB94
:101E4000C083BD3637BFE0E33CC48C078F5EBB5414
:101E5000E49C73A14B30E6B54BE76A1336DE5219AA
:101E6000C9E26DDFA94A4A56E2F17AA81D90012322
:101E70000D1A7092B11033C481B62C2C70177AF3FE
:101E800007F59EA863E8F0322A7CC2073E7FE28A0B
:101E9000FE3E3B34214D86BBA236F705DAAFA2A841
:101EA00017A0085B247E10ABBA9E01898C5A9D4313
:101EB00088155587FA0DE820CF0F5115DC3541EB19
:101EC000EBF1BD2D63891C937C9CE9924CDC716F16
:101ED00078E0736674DED7D2C4268355C969B933F6
:101EE000937B97729F5CAFBAF5B8578704A9D19CD2
:101EF0006DE36714868C14CD7BC7587B372A6F4AF5
:101F0000F7EA5F62FDCE0A58E6E77513CF9C2E789C
:101F10001DF10E3F3611E04D4973AF27E91689FADE
:101F2000CA0A5E9E7F5C2A33F6EBA0C04F48E3A648
:101F30009036183700F34F822FE6E7A4998AED0D0B
:101F40007329CAFCAA6E5B377B5DB1B21C6B1CBBEC
:101F5000F5FD43254A61CB8FC85CB03F42882FE135
:101F6000EB8B5154848AEF0E7C686262253629031C
:101F70005730D6627DDEF983C3A7A876C3CD072B81
:101F8000CD076D92D5A9CB6AFEC8A9BA1BED8C848A
:101F9000ADA71A45EF7B1F2C9FED6F54DC55217FB9
:101FA000DB2215F7A0E7E345532158CD74F27AA25E
:101FB00009E89C159F5B2B2146DDE9D00D468D601D
:101FC000B7BABED0C8F780A1050E675540CC80B324
:101FD00024F4545BF3A75C9168B79444FF8C150418
:101FE000F6AE553C8D4DE50EF39B84B4913A0D64ED
:101FF000EFA027BD16FD8F225E303E0A0C6E79538E
:1020000036030CFFDF320E7F9F83F1FC496EFD4AE1
:10201000B85648A3298BE2908F25282DAB4F5A55EF
:102020003ACFD7A8A149B5AF98942E040E84B787AC
:1020300097D6DF72CA651262C582DAE287B7276176
:102040002B16738A5411FE9CEEBCCA582D2A3109F6
:102050002FC251AFF705687C56FB5C383CB26D204F
:1020600059BB913B53D51B65C81A56238BCC37B24D
:1020700072632B3CFD196694EE3F74D0E57BC3116F
:10208000DF6CFA1B42E932203F517A1DC8D73D1F51
:10209000B9B3D4190F125089A0285BAA0C93AE557E
:1020A000B2F48B28B9FFFE0F3939C18E0B9FF19620
:1020B0001202F03D63CB10097F35BB193EC5D16ECE
:1020C000753C341B50E8F375A665C6A37961B3D19E
:1020D00097C765EFA8F0F9C3E1DC12A02110E40076
:1020E000FF3D9F166E31B6BC90F6710D94F32346FA
:1020F000CD6EFD45BB72FED1B138DF7F9C5DCB88D4
:1021000059F2BA87232266C357D781D692C482B4C4
:1021100012EC67166604EDE2CE094C6DEC10F0AFE0
:10212000ADB1070D349C86BD7A447E88CDB96B096C
:10213000254C26C1F807456691F7D6E9266B77321C
:10214000457D2C04973C8E74FF7C6130D56BC38534
:10215000BCF4BC0E4FE90DA8555B7816E6A97536A0
:102160001F3B8355C1B1F151B424321FF0CCCCCA0E
:10217000DA5FF023D4C73DFCE634BD382055702625
:102180000896067A85FD16151CA62FD6FA47BC0CB4
:10219000073D2DF88F8012238FE09D996A9EF1B93B
:1021A000F24D28239036764D065EF13ED27DE9BE93
:1021B000DA8B0C439BC43DE7E2DCBA1B73833D3BE7
:1021C000ED6AD674EA0535C130FDAD601DE0BAE8B0
:1021D00060E22B51522CCC29764AD1C92F809152E2
:1021E00016539516D478E835C5D8301D5A5067CFA8
:1021F0003054ECD9B45869B9020A98ED27A8D7E74A
:102200000A15E5C5BBA4B1DA8974143A2EDADD806B
:1022100061B89F3595CF446CDEC93B2D405ECDF94A
:102220005AFAEA6A7E82DD0A1D83A22897C2CF1875
:102230004D09E8FD19700E59A22A575BF3D9FAFC33
:102240000E5919121E0FFD244248C346C06A6F374B
:10225000469315C9114BB51367ADA3F23DBA473983
:10226000D505676A1F86FB1C0BD292830F81849170
:10227000BC37DA3757D83F587196EF3D45DB40D829
:1022800005E663DEB6741CB870D4830F3F793D99C0
:102290000F7D806DD858FCC18D40DDB7EBCE8D9998
:1022A000EBD0CCCB4D220CBEAB7D3B4707012AAF18
:1022B0009EB6DD4846811F66CAD53AF38AAD9408BA
:1022C00054CE294D3606C9470A2CF438A1B5925888
:1022D000CD263662EA4BB1018DB2FB4DD2D253FA14
:1022E0006742BFC4FF191319AD77F635695B04ABBC
:1022F000AE786BCAF500F3DC5E43E04B935E8EEC88
:102300005E92411205E418BDB09B97656F0EB47ADA
:1023100009F88EC07BAA6B67D5F3CDE75645ECE193
:10232000698BA466BCE1EFB7BC1C2AEC973A3F105E
:10233000C69D9E32E92225A4172769980B61F88E65
:1023400000EC512DB9A30788E1960B91CBE880747E
:10235000137CCB38F444FE5E0487399C4F855F873D
:102360004AF3DE4DBA128B151229638AD8AC125C7F
:102370000B7FB7AECCC6D43FCD892996A8F6CD96B3
:10238000D98FCCB4FF2A7AD737100C7F510EC9539E
:1023900066E15F8790E7BE111C2AC818510C3EA168
:1023A000A7DA8C56EC407F0CBAA6A7A5510948A223
:1023B000DB6CE91828C5F9A9D58889F072D4F50233
:1023C0009ADA331B644CF609DB575CD24C0900D710
:1023D0001D0DDCBB3CD06052DE54975870AB5C09DD
:1023E000298BA2EEF79698CED1D7469C8F5662974E
:1023F000CBFCBE66F9BD148EEBA97F9CF9B2E589D2
:1024000045FA1F1184FC7D78009792E566A193A799
:10241000DC23B074D5F2075C0218B73C3114D0B994
:102420004CB2EC39C56042B4E2DA97CCD829203CF2
:102430007C800CA665A6A2B7697258798E66729EDA
:10244000DAEB821ECF4C22F15BF43D12A9D6F77273
:10245000B977FA9984090EDB45C91708A5C79B27E8
:102460002026394B7903E0AE250A392F3590499261
:102470006C662698BEE6293A41CC7BBF4135D00B2D
:10248000DADD1024C3D00C58A15B0FE54BABF9C1CA
:102490004884BC96A6F199FDD3836DFC16D72BA07A
:1024A0004EB8B5784B63112C3B7EAB2F97E46F543D
:1024B0001B943757F065B180F11FCB60DE27A72F43
:1024C000490898C050D5999C8C263BDCECF37A2FB8
:1024D000228D751869D4C341D4E8B8C88121504908
:1024E000C378B4F926E30B1123CC808A137B36140E
:1024F000399D449582E1F45E230571183F014167DF
:1025000090D626B0A8558F847E8B911147517BE3DE
:1025100085BC2129C753B5497D8B3185579A3D73B9
:10252000A81140C9CB23DBCF079E5A45E79ACAD7EB
:10253000484DB1AC684D830346849B7FA69448A167
:102540005B3C7048FE179C6B6D594FEB8E004B2F18
:10255000EA3117DEE613FF0DCC9D3402C0FD45D4F1
:10256000EA504D353DB0BDFB9143C7CE794599B298
:10257000390BBF0412358072474B6CB990AE3B17D4
:10258000CA1454B2771C877CB25189159F39564AB8
:102590007D9BB3F0B9AD70A3F832B54171075870A7
:1025A000EB87A804684D2837CC30E1E1F5156011C0
:1025B000A0CCC4418942BB7DD62BBE64B8FAB26CB4
:1025C000E03964854F12DA26C4A3EA964DC1640748
:1025D000CA24C2A4A521069FF3961229AC99234CC4
:1025E0003E29DA76AB777022956506B0B8C6408191
:1025F00061472CFE83BBACF3172A5C71AC420667C3
:102600002F0E7C9CC0978DB45FFBFD93C30E2CA94D
:10261000DBD26F749FFF267D0A4A3C2760E37D7CF6
:1026200004398B8A8ABB3022E267E3E2ACAA8CFDD4
:10263000277E8B034F0FED4C7F9DA5AC496A8E7DA5
:10264000DA9EDF50C44BB0533A22CB415554478BEE
:10265000DDDA329D3678FBB73F855A98D576362835
:102660000E42C927A8B003B553F29FF5331525359F
:102670001BDD823639E2FEA0CB09949F0FCD34D901
:1026800058064EEF52C3486C5AB59572C9B246EE21
:102690005BE0F0E016C9BF2889D5803765C6F4A68F
:1026A0008115E82708E4A90E3AC3A8B597AFC1E49D
:1026B0003434AD9C3FD732E5AEE5559D5ED1844FB5
:1026C000C3A631AA44FBDB5A13DB5C1C99EAFBD29C
:1026D000B76A9B5C9CB6DC41FC0D8B643FD029EF54
:1026E0004C3A2BF5D2D126A265510DE2344715CCD8
:1026F000AD53E6BC196228DF765A64956F32702AB2
:10270000B9C390BDC4E4C732D0664A92295DD07780
:102710002A7E7F8EADB1599B4ADBB38CC39F4E9509
:10272000A56C6D6270D55FCC77CB264AB50BCAB865
:10273000C5C9F7834A9C3A90444A70007F7A0BE0FF
:102740007F3FD07C5C652422CD7DC62DF8C005EE90
:1027500043F93AE1F88C9206B5284CE5B096BE4FA5
:10276000E572C388D52BA3BD72B55CFDD7D4FB9BA6
:10277000BC8F0B975C9354FF03B0D19FAE938E7EBA
:10278000FE10402AB04F5593554E02759CFDBE8EEB
:102790001874923D84743AF709E95268D33FFA14E9
:1027A000BCC496622C1E6F3E5B881612F06E58CA2F
:1027B00001BA84C248DF4A4EB3383B651B8CE370D4
:1027C00090CDC82B68D075D5A95CE5C4DD0658C787
:1027D0007C910BF98DD96189113B052630F6793949
:1027E000A24D90D03440768EF11C8ADF1C5125B169
:1027F000E694BFF7E7A9B75CA30CFC9AF2A0367584
:10280000E98084751B1B8A7121991D2B2BE689D2C7
:10281000D0BB67624A2CE65E6991365DF37D62B299
:10282000B9B5F91887A4863123CAE3F06FF11845CA
:1028300028FF321992D32FEF619AD1E3366895BA07
:1028400072AEC0AFAB6C0B98E671C24B85C5A25699
:102850006711EEADAA36746101C10C968D022C3160
:10286000E31CEEC8EE6C870B2F9B7D0E7CB5FA0146
:1028700063CC91C2CDFCF1A1045BD93FEF05D02719
:102880000A75FFE5C367E503D07B1E43A7C734F590
:10289000851EE1898CEDE55857E60FED918E896C28
:1028A0001D709FB3367293E23D32FC8CE718E39DB6
:1028B000E3AC64D9BE4F49696CDA5A6CE5D57F63E5
:1028C0002DC594F5E4E315238EEE8FC03AEC587DC8
:1028D0007EC0D7E62369510D434D74D411F665CB04
:1028E0000274F8167A933179240393CD00F44EFBE9
:1028F0002451E02F35F9CF92116541BAAF28E7A2F4
:10290000009393A6F929CD53F02DFF36185DF3C33C
:102910000B0E62E5F07F6850AD17A44F59B652F028
:102920006FDFD6C8DDE94608CFF9E996A233245611
:102930004244556ED37BE1B156F3B040E3B7E1A515
:10294000BA0A965A240766408890AE76AFF75D3390
:10295000AEB6E277DF19B0A021C2EEE3F47E99BFF4
:10296000EA1815BEB69B37FA06BFFE5FFB4920503A
:10297000810828484B4636E12E07A378013A755B5B
:1029800066C13DBF4CAA63695E537F0E58FC8F57EA
:102990009185EABD3808CF91A6E38C7FC5C82CC4C9
:1029A00032CCA66CB5FE1FC2FE510EA68B9E2C0526
:1029B0009E3F99CC08BCD31FA3F4571F74DB7990BA
:1029C000539F8CC2FAAE08855204508B887E032038
:1029D000D0FD54DFF203536C750D6B7D14E1B88F9D
:1029E00053A9D408CDB65670A37FE21FF4DDA3F738
:1029F000B72D2987572DD129ACBFD14577A32EDC20
:102A0000AB73764CD5DEE5D1BF9953DC095AE108AA
:102A100007DEDAF8F4D4B410C3B4FA62F7F2304344
:102A200095B4EFB77D23E4F04848C2BD9DE23795E9
:102A3000DB59BC7E6E047044B0D5B52B31DA50172B
:102A4000F5E9372089CF8B386B8061D6F8BA0DB79E
:102A50004523CE369996A255A13019C0E99EE4428D
:102A6000D94719B3A4D73419051AEEA415071BC901
:102A70009C5717E4B8FF8A8541D05EDDE041606372
:102A8000752C96EFECF37BBE13D5D498A8D3E73C16
:102A90003622DEF1046C3984592872B4B500088AF4
:102AA000F632B80F258A9663050658DC86175C0D4A
:102AB0007AF59CDA31DC3AC9EAECF5D71A55BF5EF3
:102AC0002C476951C386218CC3E1EE89D0B671C40D
:102AD0008F62262E613CCEBEFD723DE2AAF8B23670
:102AE0009250B2E543423C34E743A295CE9BC31FCC
:102AF000F76E8AD96B84B94DEBA32A460A258F2637
:102B000097EB0F65094416B1DF0DB7B127FC4B2CCD
:102B1000E3A870702A84C4456A6CC8B94CF3269B3C
:102B20009D5EB4710AFB006DD497725F9CC5D1BCE9
:102B3000B2D606A2A88C90DE9FF0091213050AD91E
:102B40000041BF002944A6E0E2171F45E6E4E09FEC
:102B5000913E0AA3EB15724B7DE4F341766765471E
:102B60005151185386A3E4F864B84E0F8322ADC7C1
:102B7000B853B370B1D682BB53582F614F0B305747
:102B80003912BD6DEF4AF2777E100D10AD8883F8D3
:102B900017F994A2A87A0C1BA41C30118EB1AB318A
:102BA000FD0904B8B19DDA2DA35791D965A43A590E
:102BB000252E236C3B93A41F835AFF74316D3DEC8B
:102BC0008EAECFC2071FD90108CB4456F60768075F
:102BD0001CAECDF429AF4E9CF702D3A7E043145DA1
:102BE0005E29825F721673669CB9A57A1CD28A012F
:102BF000376F79212CCDFD9352ABB56C22F653364D
:102C0000BC4FAA9AFBF08FBA5CB2AFC23D0DA17E59
:102C1000D739FA2BB660B0C9F24510BDA5E294EEE3
:102C2000D65E4DE5A1602892391C09A091DADE57E5
:102C3000DCC6E5DAE30027FE809E2F68DCF4BFEBFC
:102C4000935F0CA2EE82EAFD5D70992DBD6D6DA3C0
:102C5000A81F1E761B78BFD8082D4B1E2C0D02878F
:102C6000126FF1EE7F387ED2394C4822DC0A47FAE7
:102C7000CDBD40D2D4C1419DDB85BE6C1D560B55E8
:102C800044F59CD94094546AB3AE37AAFA69223EFF
:102C900026670EECA0EAFB445EF6B78539F8F7A785
:102CA000CB4FBF274DC7A8A2E9F62AB0532A10FB85
:102CB000BBAF277CBBFAF3A07FFC7639AEA7FDF053
:102CC00066C9A3BD6E08C0DEE82107CC2D9535F896
:102CD0003857326182C63B5F407BC792EC7552FF2A
:102CE00001F898854AE48F9CED49418CD02F61769C
:102CF000D164B565921BAA963BA038515C6C73F900
:102D00008531D1D87CDD702EF6E543058EFE97B572
:102D10008786CFF206198A391868E5228AA7A18A20
:102D2000E74DBD866915BB8E5854FB17CDAA8B7431
:102D30001409CAF18432FFC8EC9F1B08D5E59A93A9
:102D4000AAA5BD6768FE705D2B8145827553F82F7B
:102D5000820AB26C6448DAA9F10791F4E43A2B587C
:102D6000D08577A111FB2B0A39C09C609A83A5D22C
:102D7000E8B6AF9DC5AFB0521E2C3F286CA6C9D196
:102D8000FEE600AF784DAFB32F4E86342A1D347760
:102D90004E241AFC5CEF2122E87DF20EC9A14BD52E
:102DA000AAC571B1AEC49371BF565DF01A0309D0C4
:102DB0006682869094175D855B120201499A6A616A
:102DC00063A77E7362931E44B74451A479A617D6B5
:102DD000408C4E65504379AF061C1CA391A7BCBD27
:102DE0002ED4F9329F68E51CB4648CB2256F497902
:102DF000DDA266D313115AD3D83E611275950787A9
:102E00004D700845C40A19D9BD3EE661A4BACCA4E8
:102E1000ADC592C0FC5EEB3DB65BB4A2C6FF67AE2B
:102E20001B548B1010CE5542017910A8CF2B81EF87
:102E300025C0C7EE87C163FEB01F376AE41C72313C
:102E4000DD1F2811CC787C4D4A034EE1641B0A4CEF
:102E500022E21B210D23DDD4893BFF6618E278C1F5
:102E6000BA3EB474AFA8B11E0B77B95E7331055387
:102E70001407E7EDA036DF0D41E166EC00BA89D713
:102E80007A2A7EF8A9D28414C078CC4A23750BF82C
:102E9000C5800E20870E0BB90E4261C0523E1B4EFC
:102EA000DC4001A30DF63AC868A9C531258B9DD237
:102EB000FA077B1F34E961A44A410072A76FD5C6A7
:102EC0009B988A6F1FEDFD722938892A2D7D06CBCC
:102ED0005E797C7317728E98E1EE8205A172AB6603
:102EE000A9BD595B2FC989B2AA131FB27F889170FF
:102EF00036B2D4B5889284EE9B1A0874A436625C0C
:102F0000E42665A9518B37252949E08A6F53A056DD
:102F1000E79E857CB876012BDF7413BE40BE6DB58D
:102F200052B57EA15FB304891C00BA112970AEBDF1
:102F30001F615D42288C600F5157789B9407A7BF93
:102F4000F3581D0D9E81ADE7F37A2FB235725AC149
:102F5000D3598D8445A781456EAF27293120F40FC1
:102F6000D8BC35A8B3FF0BBDCC69392305E1D5E248
:102F70002087F5BA00667C44010F2EBAE4F148259B
:102F80006D7E55E1D4F74A748D875239B88C86929C
:102F90000982461773D7F5AD5C1AEDA996C1BCEF4F
:102FA000722B21DE079035812C1F9242A23087655B
:102FB000E5402DA9801984F7DF430A30CDA5D90D4E
:102FC0003CA2D8DD36CEC42EFA44A16B21D7ABF398
:102FD00033A480C070D70AEE6A4064FF15760D6A8C
:102FE0004F329B887A669F14FC876E6877E1D868B9
:102FF0006EB7266F88C5CA9E814174344E382ADC6C
:103000005C7B662235B853D4484F84DDF699DBEEFD
:10301000DD2A796518A71F564A836D6FE4E88E98FC
:10302000E3437B077EAD7C071251C63C268E6D9430
:1030300024EEF30A9F6E2537E78683C20113617D74
:10304000CB83887052175402E56EF96F28E63D7AFB
:10305000011898EC9FD76C9D759555B33997F65D1F
:103060000FB58381330270ACF24404E82E34DC34B3
:103070007C900EC038F6E3E6E38F2259231076C524
:10308000BE76D926F7FDC4077CF8067AC2FE88B75B
:103090005F01E4DA5F5E0ACD0D26D6DCBC928DF1CD
:1030A000A55EFAF03E7A962C3972F4B67E65C95266
:1030B00004C566E82191A7A861A7FCD83E9B5E8C59
:1030C000DB48E144E00FCB90400016ECB19F0402D6
:1030D000ABB9D3BC1BB581DEB03DA5C83324CFD37B
:1030E0004D5E9BF58AD01644EC18E0B3A73980F802
:1030F000D8732A35D42A438DE1A52953216DADBB60
:10310000A090CBD8C8FE0930CCFFCFD9BB5D56FB11
:103110009FBFFD82BF1BE1B925FC9B54636E53B773
:10312000FB1EBD2B57D2118487B28955DA500DA6EC
:10313000DA8F280EFF4A5C51EEC02A94656581063D
:103140001C29A08CB9EF9DB001076CC2F07F18A1BB
:103150007E344A08D106E614AF6CDE55A9951EF2FE
:10316000FD758EB890F361430D45ECB081306C1A5B
:103170005F022B9FD7E12F9549403C6BD233FD3244
:10318000AEB5E59152C48D4CDE555D8FDF6AA3D597
:1031900044416325CB090BF83FD91923B546EF0EFF
:1031A000D209D3809F891C91948FB00899AC170ED7
:1031B000CEDDF951BCECC25D2A93977E6B9B6D58B6
:1031C000C16F59ABCBA8262EA6CCE9CC3FB51E6269
:1031D0003B38F10E75DF6271A67A624C8BED1CF202
:1031E000BF6448CB0DC82F8A947990356D51CF9725
:1031F000ECE6F7E2303BDEE7FC1AFBE820D990D49E
:1032000014B1622310477C063FC7732EB68717E1BF
:1032100082934EA42D9DCED8ABF5430C73E4B68AB1
:10322000D86F5AC2006AFBBE1E2E9E9CE4D1C920F4
:103230006601B046A0FF7267C0B128FE554A7B8A7E
:1032400033A6BF282ECAF1D3D79FFE190FE2E8712B
:103250004E616BCB665AC472EAA1BBFF4D7AD4F8BB
:10326000B0C8D57B6F94B84CE9C5E985DCC155067B
:103270008B743542D34CD3C76485D24C0A80F53B5E
:1032800079231B76C8EF794B3B938D6CFF09737FD5
:103290006B70A46A51351C4404DFD4407E21FF0CBE
:1032A0002C6982ED5556A26765F68D0C8374C1EBCF
:1032B0000D21289393585BBFC7A3F6137EDAD3E69C
:1032C0007D90EBE294F8131E7DCCC1AE66748F79CD
:1032D0007E0CD05F62AD9B5E4AA83F7C67F528BF3D
:1032E000035CEE7FE9A654E3B0E3CBA71A35AB61EC
:1032F0000CC959D9DAB2378A216671A1C1C367CD29
:1033000017F4BA68D73BDDACC5BA9C0E62DCD65F59
:10331000013B0B9BD3353C6D6E2232F40B69B441FB
:103320000CB6FB22BB2A1D45C823D6BC92997D84CE
:10333000538E29F1BC0617DA4704C77DA726EFE9AB
:103340001C55F5AC8C69E198B3AB0FC58F34F39481
:10335000C79516C632E85C8B189731DF08F02B63EF
:10336000E0513D3A9F29F5112B77FCBF13A44D176F
:1033700074C497BCAF3427B4DC3B862431EFA6D6A7
:10338000F1EA24F88E0F71CC7694D52EB711FDE8B2
:10339000FB73688AB6214D9978AEB2EC0F96E30BB9
:1033A0008518498C0A731B634C23632C1392300AD3
:1033B0004AE2CABEA4E5B30995DDACD383F01C3A5A
:1033C000B5ABDB78E007ABB1A6AD6509A2D9A4FC2B
:1033D0006676C2AA1D5EEC7DCF2488F5A6D0401586
:1033E0001A2584A4E506D1D1974D53A1A69FD505F2
:1033F0003AFEF0B54E317CCDFA1DA821A636D5BBDC
:103400000A1DF0A636CB00443B090AB8F8E3A62C07
:1034100069F02D8D65675D74D40723DD9DE23A3731
:10342000F92FFB9048B4A67D990D75823EA3910AB1
:103430001F1385D47920CA17F08B68E128AA48DBCE
:103440004F4989BC56FF4A2F9FB1CE60F2D9DDFBB0
:1034500047A42D6F33BD689D02A005D7855C21F57B
:1034600094D418A456C6A6AF79E7C848A0B457A903
:1034700055F0BFA0990660A6D662C84D308ABE64DA
:1034800004FA101E6475D84093ABFA8865DA243CC0
:1034900001352873A21B036961D4F8CEE550C30639
:1034A000FB366C7C45489AF517A74D9484CB256272
:1034B0004AF0E72B578A951524EFC4382092659778
:1034C000550ABDCA6710CD53019B0DED867381CFA0
:1034D00035B0F56A1A66D5EAFC01B325CA6728EF4C
:1034E000508A3D3B64B775D39B2F5BFA121D22AD0A
:1034F000AD193A28BF71DE26E650436DB37EEA432C
:10350000E5E0A7D9815CF0BFA094AB2914898B8139
:10351000B6268038BB0A5EA5E9DB9238F72F087320
:1035200015DE4D6D21F533FE94F9DE2B223C111989
:103530009F9DD9A21A740D3EA73463187911C48ACD
:10354000A34341AE73B7A8F83B39782718DF79DF7A
:10355000BA2C8DAE8F94CAC9BE5BB2BE7454C36020
:10356000695E5E915404A044E6CC1E874D1E28215E
:1035700082FE24F56B14E41F16CCFB0F39F25FE6D4
:103580006839BF3951D57298F98A6AE1F8FAA7E625
:10359000AC465598734F574D40F426F433BCD78E44
:1035A00006A3909E1EF29EC55B5120833CB3576ECE
:1035B000825425759F25D4DF3427FCCC332449F76A
:1035C000ED440DB4B9E9A56810D97DD072193CBBA2
:1035D0000BBEAA11FADF75F96F5513A53F470052CC
:1035E0005AFE975F8EC62974CC9EAD7865F6B31DE2
:1035F00030485919A283495E9A137E019FC558BC71
:1036000057E4CD3D2C314081199607609DA5C7C771
:103610005B5D4CCC9F1A7A99D00AD08ABA5DED8254
:103620007DA6E4C34CF882134B1B648B5A5B075C8A
:1036300015AEB87A94F32F310075DEC7E7E1B228F2
:103640001EEC46329F848382D0E8B051AE32A0FC9B
:10365000A5E05EE24982D6167D889FF9D4939B0E41
:10366000314B7F97599CC7E2B0FE8B53B20484550F
:1036700029C91DED20316D31C281BCD9E895F00713
:103680001210993E858A650E48D0C51878DA9AD20C
:1036900003B78C4C8CD873C538A7E8B4EF2337B286
:1036A000FB44ACFFA9B0099D7A2CB16ACA47FBEF75
:1036B0009021311224E67951C6CB5181D4F0108487
:1036C00000A9FAB2F5A8DD7BD83EBFDD972D05270E
:1036D0005193383FE79E02549CC947B5B0764916CE
:1036E0002E1D3213ED6B907B2DF40542F7F0533B0A
:1036F000B733FF69946CF0E97C86FC662F054B1AA2
:10370000213A14FD304E96D03D3F2365BD02540B47
:103710009AA9C152DF0DFDEE484D44C58105C05840
:10372000D1D7B5773EE2A8E1A0EC35E89583B87D26
:1037300070AFDD1426C0068D1AAC4EB167ECD3DA3B
:103740004B5A5445F1E1D370C778F7BA21CB4B3CC3
:103750006131362FC72F8A832957CEA5A2ACCCFB67
:1037600036FD53997880B47B218569E21146A331F7
:1037700004DF513BF3D00D0A47FCBC1EBD5DF44F86
:1037800038F459443093859F723CE9451ACB09338C
:103790002F25D9D78BE49A4944E27DBD1442824556
:1037A000702292527088DBD0EF4583F128627A1440
:1037B000F332C4F110989D0522A6686BEFA6224251
:1037C00068FECAD6DC67F76FFCB8698CDCC4644459
:1037D000AC8D72E1A80AE9149688E6C0EB7D6BC453
:1037E0002E18C83417661D2E3A73B28EAAAD965A9B
:1037F0008177CDF133C9CC5A0FDB06D405564FA5DE
:103800003CFE406DA1C5480250EB53217668B06A7A
:103810009AB77933650E8C0345E11397B26AE91FB5
:103820009B2DDEC43018E2FD7DE56756D88DA019CA
:10383000A0983CDAF1B06C899583124698BDC68693
:10384000C7BC53E9AAEA22AE45F15A537BE0FF44D4
:1038500044AC6A3EEE1CCD501D565D9A4910E2659F
:103860002430AB5BF02E3DD1949819E0399CC4060E
:1038700079ABAB9D5C644B8B00838AA3596E855AF0
:103880003283470136A2E4E471335A05C4FA0AE8E8
:10389000C08D2F09DE5E9DFB42D43098A73DA9E183
:1038A0003D5F8BCCE73373BBB52828CDC263A9EA53
:1038B000454DFE0F5A4563290A02F0849739484A5C
:1038C0009E3F553E82E4C71E4920F22BAA1CE660AB
:1038D00015604BAA5C6F8707BDAFB0F0E43B6E2C60
:1038E000704679F8119E47E4DB8DAB3D41611CAA1F
:1038F0004C791D2B21339A43B73FF3B7BEB566A36E
:10390000AF4D9EA42C657C7A3B5B31523B5CF5D27B
:10391000532D8F3E60E99DD4B2420BB127AB213DC0
:10392000898D59C1BBDDFAACCE9CBE29D2E1784B62
:10393000B7A8077F575F8406DDDEE5B79C56BD2E2E
:10394000523D75FF9882DC4EF809DEE5CB4548B361
:1039500052ABC3DFA3B8BC15A8ED916F04B4236CC0
:1039600027AA88EF941BCDDD1DD06685D93BF64C88
:103970009028C6724A2E97F24CAF1C7005BB73EBB1
:103980008EC3F1286F1DAE207F8E8554078670CCC4
:10399000AC9F970A27CAD418927EC007644FF2AE34
:1039A00097C64DC068A7E591DBF4DBBC6772CB8995
:1039B0009CA0A4C52C86C4CAB3D9039A2475B15C53
:1039C000C2C47DC30D86F97E067DE90A56640808E7
:1039D000C21ABA3BFCD3609A4525DF24831A5C7671
:1039E00046EDB56BC8D94829A581A5B5732F8117B8
:1039F0005D2F4A58CB418E1E9723F391E758F96308
:103A00007B93B61029069E20BECF7373DC460D143F
:103A1000C0198020C77FE31782E1B273380A9C91F6
:103A2000E14B5B16FA1158EDAD76753F589D79BDA7
:103A3000DC201BA8EAD3474658D3ED376767A5CAF1
:103A4000961BC5F307A30324EA49251EEDD7D17EB3
:103A5000C319F95275D6612483765CAE45882E94DD
:103A60002FEB6FEF55ADC603537254A8F2039BEED4
:103A7000DF2E30D25A09FD0F9CD2C4AE76E76273B6
:103A8000E7C3DB0CF8AE1E99C4EFB5588327DB38CB
:103A900051A3BC2F3FAC61CD3A7A85C1F7E9E86408
:103AA000C35FF5F192D86054B4F2A2E00EF0F3884F
:103AB000AAE934FF0D2558621FA4DC6ADD756EDEAD
:103AC000DF4E666E2D5DDD5B3DE305F2572F570D32
:103AD000932E4E642E10A2321237089896DC679E01
:103AE000AA4C69FCC65BC34318B3C3880D9FE00EA4
:103AF000C20F4103299B8A54C2CE9E45DD222BB1C1
:103B0000AB8BAF98A6267BF67F59B179E2C1C6CAC6
:103B1000A89E9857469BA066AF984E747743EFE1F6
:103B200061C61A0E1B5B6D6DE728CD054D43D3AB07
:103B3000B21D789240A3F594A00D561E196208227A
:103B4000D84D270AF0A7BFB280CAAF5CCD3B5C203E
:103B5000AFE5978C16A15FCD7ADD35C5FF7DCE84AC
:103B60009B4A9820FB6C280222C386CB0A58E78325
:103B7000203EF18FA0AC235430F83C227EF8D6CE04
:103B80007A1B2A5E498EEA19FA1C686859B6BEE3A8
:103B900088BDAE452482EB37B5E177B9295E70D791
:103BA0009AA2DF2A7FB5607E6807F7470BF60C60A4
:103BB0005C3E63EB7E6E312D6C700B38976038A9DC
:103BC0007F82E407886EB8EEDA4BE37EEAB37B517E
:103BD00065704C84F4C5FD6740C76F535FAEAEFDA2
:103BE000449DA8C44D67CBE5126537907A67B70549
:103BF000FFDD431F7E2D1D49DA56D478B5FE73795B
:103C0000C8DD11E504A6B2A4F1AAB19DD5503BA52B
:103C100049041BF24498E841326BCEA28C9E3B6370
:103C2000830A181C4CDED1993DC712544E9A0BCB17
:103C300091F42F11E1383DB4F9E51D40F18B4C1999
:103C400030A368561522A78B1F0C388AE110C0409C
:103C5000272D4AECD272C2A98B1F177E79BA8249EE
:103C60008F36904371D8320A52E89F9DE369C0BDF8
:103C700074210C5DC12D79703A3316E8B9C7775AB3
:103C8000F1EEAC630398D44EE148E1D2304D3A27CF
:103C9000349CC5E1017834816A5CB8BD43F11AAF48
:103CA0001CECA54DCBBC31B7378A89BFAC4212386A
:103CB000A73F1135CEA2C1E0C23A9286313D307A9B
:103CC000A243CD3E4D929F6C103F7E508982BED262
:103CD00033E364C2106B38E5B541AF6751CC3BFDAF
:103CE000970BE6B278AD5CCC5180D26DAF563DD328
:103CF00051F29DE85EB452A58BD91F144027C7D35B
:103D000024092C54A29752FEE033D166B6A380B7A3
:103D100020F2437E7D28E03F97A467A769EBAFEED2
:103D2000FFD70E639BD081AAEDB22F26E042496BEC
:103D30007A2509EFB99C37B7777D9F07EA1152DEE4
:103D400059E79B357B74DFE4C23B39ACE9495F3C02
:103D5000D0A016D5BCD47F4939FAA4C5C2C4A7C522
:103D6000A5F45C413ECEBECB6B39F5AC02F985AC17
:103D7000AAF4058909589BBB60143E9BFA1B0C6290
:103D800084BC190D69FACCC36267A97E924B440BBF
:103D900026F80977ECA5518999AA65573076FE3641
:103DA0005E9DB749AD92DD6EDB06CCC93CE63D04B5
:103DB0002EDB05AB1ABB091D5C022599DA11C92758
:103DC000FD33304E31946C3C3ED606D0BC8D73240E
:103DD0007741919A5A4972EA65089A8CA9B175029D
:103DE000E94BA72D9BEE8DFE878825A289CA72C854
:103DF000E70F07D9E7E087D7E5FD866A31E24BDBBD
:103E000090557DD69DE4497C7818D6165976527F18
:103E1000D064EFC554B2BDC0F86552026EB9B3822A
:103E2000795C1C28723D0A467552631867FDC6D03E
:103E3000C3C81BE68EB56B8E1AFED36FDD5B8C7E1E
:103E400075732099B42AF9B2D1CB104492E671E38C
:103E5000B83F609257DAEC9C3B79444A48CBDBB0E0
:103E60004281081C376D5B363BC44F31469F027D53
:103E7000E1F5E6143AEC4A55ADF2A6C2F0195890B5
:103E800083EA138EAF19795721BF0818445B1B8D45
:103E90009CD294729EF8FAEF4C1D1A23C08CF088C5
:103EA00049F9E87DA5BC22EC61355671B9E935FECA
:103EB00028B8670628A6D11BA4DE4C036A513C6EC5
:103EC00077065622BC4A7212C4DA478D2E6849D34F
:103ED000B5D6FA22958D1E7DE7D1FEB32A8EC2EBB0
:103EE00038BCA3581AB32676DE71F3DACFA1E960A5
:103EF0002CBDAED40C509554C941745A50B5C20B68
:103F000029A6A63FD5C5700B7A2A2D8C25F1F50977
:103F100061027091E8ECA2B4FAB91FF9F96427BC08
:103F2000D9EDA8ED96B92D7FFA49184EC3EBBF988D
:103F300022E004EDB546B2B69F726DF5B25D65C381
:103F4000BAE0510817406AF9774FCC653C7B6A0AA2
:103F500055AA5FCE3B9ACA5AB7E604D44932E15615
:103F600027409A64F4E3B0C3D5D099D42C6F12984B
:103F70005D8793693AE7F8C319C334EC56B5C2506C
:103F8000045E6FF984107F20B4C2848E13AB42D5D7
:103F900098ABF0A7528FF3187450701440870B271A
:103FA000DA5C3CB51EDEB784A99AF4A121BCCDA190
:103FB0000A3DA25A9407ECC8768B8F600D9D198B31
:103FC00001512E13FB780E3BCCBA433220C8217628
:103FD000DE34B51425F524ADDFDEB67ABFBA4BFD6D
:103FE0000C4C9222FD5337DCDCDE6E99BC21275449
:103FF000A904DF63CD509225901E3CF99DBDB2709F
:10400000F4AD380C20177E9D3528DAB5DDEAB04BCB
:10401000E5D1D6218E50CC64800DEEF6C14CB2F5C0
:10402000E30C6B9E34646B10C723B6102F2BED731B
:10403000CC88C3074AE48E64603F1D5A01CB316FC0
:10404000EB4783888858705D086C241B2F2FF45F22
:1040500003999AEFB31C3792157648C86AFB7F50D4
:1040600092F689481D3BCE36800059FE621E4035CF
:104070005DB85BCEC48B1E520DD3BCC191C9E26347
:104080009907A2644F172AA180F4FE0D410C7DEC24
:104090006CFF1874AAEBD63FA7CC602E6C421A05B1
:1040A0002890EE5CB2CB57B63F43BBFF66745FEB24
:1040B000D277039B2469B52F5EAB77F319579BB07A
:1040C0007C07CB55C86E0AD8C23A88596199E86610
:1040D000889B2FD788D7D9DCB444A5C5C826580DEE
:1040E000D36789704968140873E63B454645ED542B
:1040F00020FCE149B12433D94CF91D5EC5DFC34A28
:1041000047B6D94A3C37DC261129D8F1DAFDD66406
:10411000C09D4495D64C0DCC6DA7B17F48068A95BD
:104120004271EE487F2EF0A93729AB33A4C8FC5664
:104130008FC9485278E26915CC529D188F151877AF
:104140001523BF6F4320EA94373613A4D546E2CE39
:10415000F026163326E0AA980EC4FB8FF126A3A7FB
:10416000DD52E9000F4E29C7981CE6210CA3CCA014
:104170003A07968DA197DE3C6CDEB40D945DE2A902
:1041800068B36103301F7AF8C68AA2F52CBCFD40E3
:104190006DE3E2C3C5520E057E1F750B425E42956C
:1041A0008294222B9EDEB14B6060E8FA5C23F147DB
:1041B000818C58D1199AFAFDB3B6E6E682C9E11AA4
:1041C0005E0F80B85668E996E30F36CCFC7C62AD92
:1041D0002460B802C56CD3356E72CBA77FEC43A7C1
:1041E00011CA4CCEFF6F74A428F1BAE01BD09F50C7
:1041F000C215A395319169B651A47F6374728C2E58
:10420000BE8750BE65751E74455C50A5A039CFCCE5
:10421000936171CEB48C0B9A17F9036E09149975DA
:1042200032F0F518A6748BB925F3872BF1AA9221E9
:10423000EAD163329AEFF6DCC9703C5DCF767FEE4F
:1042400035D7D1157618E52336A9797FA409421B05
:104250008C0F6E981AEF4F239811965A5B01F62730
:104260004B536D6CEA4B55FE7501E6168109F7BF9D
:10427000420A67E2135BA5C6C6DC377B4290A2BD4B
:104280007576AD9DC77FA1A8368C0706F2CBEEE30D
:10429000AD01B82139F48E98BCFF33DA71FC538537
:1042A000DC487873E301B1A71B4BAFD2A5D5318DA4
:1042B0008A075BEC34A9EA3D32B994028D9D0793DD
:1042C0001997A5EDB1135FB90A4F1CFE21FAE58AD3
:1042D0006B06CA9D345BA38D041F7A8163AD37F9E9
:1042E000D5F2587095CC77516FC9A81C9A57D4FD58
:1042F000CE128020BD1569CF4FA4A8FBD0F0640D6D
:10430000619877EE6BA144068C67EECE8C905CDDF5
:10431000E4E69CEC25E9FB5F7B78C1E09EB3E0C856
:104320002AD2C9B1D43EAF582DBD995DAEE497D61F
:10433000C7991797C3DAABB4BD21D5F683AD18344E
:10434000F3A4E0D78A50777BF4EC0241B3F2769481
:10435000B032638C3B06DB73EE1D54099234145368
:10436000023B8960759F8D36486FCFF2FA9BE4025D
:104370005128B49B97A2AC209264366163BD96FC31
:10438000698E6D5A47BEC2F788AB904D0A12B06F66
:104390008A36B0591D771DF36DF2F297FDA31F0207
:1043A000AE6A6A057FC728974B6C3EB4403C596B98
:1043B0007F5D50CCA0A386C11B93604F826C32847A
:1043C000673DEDFF46E7C40A544B919C0ED5A560AE
:1043D000E898113020AEC3F3EB0E63F7F1AE9515FC
:1043E000CC1F8609F83FA39EEA45E340DD66905165
:1043F0004A5DB163F45105306AAC222E8B94E8F328
:10440000D32F395C23F1E2020D6A188A2D4186BD53
:1044100094E629B8266CE0B1A6AA94461E70F80E60
:104420006EDEFFD4604FB7D3D191AF4ACDAF827566
:10443000A74CDE74D520DE2766F0BAF502CCA7695A
:1044400057DA303C0ED79CB061C87EEEB3FF8A8647
:104450006DAD980C624A65E44E139359A1ADD6C474
:1044600052C7E0B7EE7B4F628381B2854A2EE845A2
:104470006EC3936199F3E59591883FE788B7F99A00
:104480003A19993D506CFFE1CE62933B173A06D63C
:1044900012A60C311E44C99D538AC2DAC6250521D5
:1044A000295B4C6738080E6B4F0419278D657D2FEB
:1044B000397E43A82B268C9A19B4FDC8A47334B94D
:1044C00054A2D09D9D586325CEB9197E3392A03E4B
:1044D000B16C416C54C0A0CDB90D69998D0469C30C
:1044E00004384890988B05CF64B83C4BC25B79F296
:1044F00002D2E892B1B304B88BB7E33881AD611151
:104500007793F4EBC6C575AE81E0130628AB0C3F7C
:10451000686F8F661A5BAB8C340259D8BB27B4B76F
:1045200085B5D2DAA95F9A55DF918864F6F47B7C71
:10453000A6A02A965110F3ECCDD75C9D0248E35B10
:104540009C96C27904DA9FDA60CC5893FC3B1E0437
:10455000008955014E22B7B49B0D5D0A1D497E624C
:10456000B913D29F782D2162E1D60A63C970E7FCA6
:10457000F7C191022DC99D2CB3785B97EAFF93CDCB
:10458000032BF8A1C028C3ED948D80C22EF4CED8A1
:1045900035D5269659EA8D27A3FC11BFA6C98F8071
:1045A000AA053891A4DAAB4D8A15C46B52C92DD433
:1045B000CD39A305726BB99884074E709DD721A1A0
:1045C0004AD05CA17FBE6975617E4CADE62D2BB8EB
:1045D0000ED2676B1BBF38DC9EBE57BF6E57AC0850
:1045E000C3A1956F9403BFA9C6C4CAA4F4BE16F6AE
:1045F00018C530DD58510327348DB35F54FAD3CF3B
:10460000EBE67236ABB794411FE33D2FEF46E03A3D
:10461000762137B7BE02C7494678A897266D8564CC
:104620001225B16577A57F99A1A643E69FB2549064
:1046300002FCDD0D6DA5062279FB9934D98E13920B
:10464000201BD546152F6DE96603303B59B48A907F
:1046500043323EFDDF8FC6E4B4E34C88AAC74E4F19
:1046600014F6A4D4DF576CA839DC8237D7059EB284
:1046700010F6F04F21B0D391533C7CA52BBBEB0D32
:10468000D32E2127BAB01CB8BD346A327D500D7CC0
:10469000572C428BB0182048D7ECBA87D74C582CEF
:1046A000ED758492ACC77F9A5FBF2105F825E6F4CB
:1046B0006C2DED7B84BB05C128C5835B1CA03E1718
:1046C000EAB3BC05F533248A09DCC23F9CB39E5390
:1046D000CA469D1C0367E1B5E3BFFA4C6FBB5CEEB5
:1046E00034522784A4CA384B88C865496A0C86535B
:1046F00043550C5F026B2DA67AFDA95717590E0A78
:104700009B315F6485F3E55672B262FA6584CEDF51
:1047100027416951EAA4D2D7999ABFF9A5EABBDF2C
:10472000E61B2574D334C69768F8F8EFB8D8BDB443
:10473000821D359D0FB706975C0F917CE3D16EED1E
:1047400036FB86F13868C48FB3265C459492D2E478
:10475000A2361CE8E47E594293F0053A5166178D63
:10476000820B612869F2E5D7A8D8BC4BD495AD2857
:1047700044A985D83A3E6C713F814EA16C4AFF2610
:1047800072ABC5365E299C77018C55D99B68D30DD9
:104790005C132C2D139C38CF3E4D37F4E95AA91BDE
:1047A0002948B09C97128D4346196EBE689B13AB87
:1047B000EB88A21A19DE4539CBD40E032545A98012
:1047C000BF2F57818C8E72005AE2CDBD76E6883DB0
:1047D00069C0303550757AA550B6C1622BA316A6B4
:1047E0000EEB33EB99385E702D0F15EEE1D695ABDD
:1047F000B4DD71C0D4B46ABF46C1C6921C245BDE6E
:1048000017BEB3037FBC0D69326F0903DFA95F9A3E
:104810008C88294B8837BA2878B35C16F613546213
:1048200006F1951BC1E57ACDF7FA2522CB41AD57AC
:104830003183C436C4EFD550E7060324D207FFFF07
:104840003AA8CA8F5E9FFB82FD011D453AA19005E3
:104850001E9EFB72BA9A622A5B2292C5FEF1E8861E
:10486000A12EA6F6D0FCE25C21BC12C03606522472
:10487000D7AB8ADE4380C186E789BF0631A6B1AFD8
:104880008329D113217C8CD9379A873F458CA97D08
:1048900066744AF08CE5368395FAE18B60FBCD0AAD
:1048A000B01DC73B30EB8493A547CD74A13038E2EF
:1048B00097696CA8C758B47B70245813BF521C4822
:1048C00091E1E06B561DA9D41348375B722873FA47
:1048D000B1693D1B2CD04DCECF5204D50796E5EEE5
:1048E00021B45B86EC2074CD6468981B652F5FB2A1
:1048F00062F7EBCF6553826789B837CB7C3EE0D255
:10490000B097503ECFF58BEC9CC0165E9063073895
:10491000AB14D5D60AD16C17645AD0E37E32611C31
:10492000806CEBED9606D5B4A9F271D2B0F31EC43B
:10493000F68E4874E68670C2C1F7B31D78DB43BDBE
:104940005A87563E2872172710114AD183AD058E1B
:10495000F81BED01B079202664D32E1D0700665A9E
:1049600002B74E0975F5287D082E6EA52D1CE7FCB3
:10497000591017D362371EDE92AD3842F00BD029A2
:1049800054D3CD0E38012AD5BF481B259C5C2992F3
:10499000D05E4CD7F88F250C40BBFB8318B5D9618E
:1049A00031B0E72D180F1347978FABEB72E807F480
:1049B00022E11BB5EE443305F936905C1D0166D843
:1049C000A7A13E3A4AF910E97A8291E10DCC095645
:1049D000C8E99105B0998274DC27EACE733009DB0F
:1049E0006496920B67DD925B1B13652F6A4BAAD00E
:1049F000162D563BE622C083536BCD52A9ED771698
:104A00003A268C0AA72711DF250588B8A0E818FFE9
:104A10003D414B8A9E37A20FA1981456C9144AA152
:104A2000757F267886F31FB1B4749005A57CCBC53D
:104A3000AE870B686307F62A6F9CA83DE23DBC5425
:104A40009618EAD81B96934557025050F916C7029C
:104A500034FD5A4EA348331A4D588B49A8B66014FA
:104A600000B034D430FF3CC6F943F5DC442C3C2480
:104A7000F4F5A3EE93BBC2AF9DE53C6BC950AA759C
:104A8000242C0D94D81D8E962A812C55E15943C1B2
:104A9000F8D30671B9A7CEB23591286D4FF4CEC8C0
:104AA00082100497D58379843838D37CB029027278
:104AB000C5A20E5E6BFE47629B476EBC8D2C7735A0
:104AC00025BCBC1533016FC25D1A58D6BC028E05D9
:104AD000BDF8E1A6882E17BFC9F7D1568B865EAE0A
:104AE000813371C642874A38FF9FC290E0F56DBBA3
:104AF000A3B951E67AEF1C1D0F86234E58E05D2EB8
:104B0000911CC7CD5D6FDEBE8BC6CF9A0458ACFD3D
:104B1000B328566963DC56A14EF0199A0143C9F7D0
:104B2000AFCC58598E42D58A87507055130EB52395
:104B3000186B04F6F8004245E98FF0E148348565CA
:104B40002B46F32BB6262BB3D224E61F067E642811
:104B500038C943F52658C41D43B4951382EE6783C4
:104B60003D8F9BCB06DB1C0FAFDB7CB945BBD496DE
:104B700060A0B431DE5F0D52F2A310FF386D038BDD
:104B80006CDD2DD8411C0546DB74F7BD203B89FA4E
:104B9000954F54B75EA2280DBD349913352A4B9F0B
:104BA00086F51466CF0D293584407B9F911E195BD5
:104BB00002CB1CB33B3DAD587F8794C67A00B9A7A2
:104BC0004D03D222D153FACD53F2E26C14F4BF9CC0
:104BD0006374D30FB3582607D6DF8AD8F71497BC6F
:104BE000343278848D35DC39F5884F9CEB68FBB422
:104BF000D454243356829996025F2D3735850BB2F3
:104C0000B4C1DBC5DC9AFB7E61A1E728E6504BAD61
:104C10005CAA399FCEE41541DF6B53AAA7ACA7F974
:104C200034416A2A6C71DBC7047D8B7B1467306E5C
:104C3000ED9974B3417BA679B62BDB847814852774
:104C400057F46522CE585CD649BC24CF2ED58A3C79
:104C50009F35C633B6B40A00BF4301474DD6B28272
:104C600079C93F4C2640E5C9B787AEB139C0506A13
:104C7000650BFCF417907B9CC66EA9E288844BAD53
:104C8000BDB32A2BD4883BAF8E736B6F247DE4BBFE
:104C9000CE4FDA1E3E053FC872EE1D43B2232C9064
:104CA000731F1572F552284EA532E3C0D77CD1EBA5
:104CB000870135CE30640D9A3C00AA60FE3D6AED56
:104CC0004CF4E18DA27B1EE2067B885415F29FC74F
:104CD000A819DCB2D64715E45B0A5EA118BA2E0DFE
:104CE000B98946D7040CF9EE98A87076888C30E81C
:104CF0007344583C0AF9941B14BE42005A39FD7D96
:104D00008B7D77020CBF88CBFFAEAA5B6E78280F35
:104D10000790A5E7A1925D383C12B3EA58E7675BBC
:104D2000871ECBF446EB0B98225A1D381A4015FE0D
:104D300077786A355BCDE00545C2B7AEC365A4A9F7
:104D4000823511380C82DF24062182050B57E1845D
:104D50009AE85C02263078CA19ABF686A4B9EB7AD9
:104D60004BAD995D0130C7ABFEF6091E82DCD14424
:104D7000FAC2D45C81012363E6D7037562A3EF0214
:104D8000719731012964B4D7E81109E2C2FBAE4939
:104D9000826F6E3659146A555D449CD56423711830
:104DA000B75D02818B788F5485654118EDF42186BB
:104DB0007F66C60F2248F03F7EC5E3850C3DBAF200
:104DC000A967D127638D2B5CA0ED4B67DF888E0828
:104DD00003FAFD1574FE28192DB2D4A11F0B8762AA
:104DE000898DA196B3116DB3E8BDDDCE9A9E36DCF8
:104DF000CB5D0FED5E00585F6FACEEC8C5D4AF550C
:104E000040E58048CD5E7C7BB9804497346DB9C95C
:104E10007B4FBC4E5FCC663011DA0427CF0D5FA606
:104E2000C05FBB0A2E4567057420E1CCC33199CA27
:104E30005A7F06BF16E1CF0C03AE69091C7CDE4A1F
:104E4000E5F50758B50A8593F596BF83EB3199D8F8
:104E50006364DE895E43E2C16203B82543B854C38C
:104E6000E7FEEAD85A1157030A28BDCE554727A5B1
:104E700079189A95E20AC5350A03587F892D973A21
:104E8000C0F267A8092679F72CD38C4CB669F87A5A
:104E9000EC0458BF2AB144B086B2A042AF969453F6
:104EA000CC13BEAFCE0032481530C0D539E0727297
:104EB000C9745147AC1855993A22C41CCBDBEDCCD0
:104EC0004F8B4107238E13072848B3B0F8B9EA2E59
:104ED0009DB4F6BDA088DDF5EC66ACBA110B2821B7
:104EE000E35BDF197A3B42CE67AAB8F0BEB8AB9E4F
:104EF000D2E3E690169F31BC8A7D96864D70FE7097
:104F00006EB5C9650E64696696017E9616B2031F7A
:104F1000D7A2C0DBD669B19CF5F487962EE1DDC43B
:104F20004FFCD94479A1126E3BBAF1DA12B9A195BE
:104F3000AC5148681D3F4FEE2EFD41A676826DC8EC
:104F4000CCE56978982E4625832C99B7265A777A2E
:104F50004EE17479313FED7D3DD4D9F43527A780FA
:104F6000C2A02CB42E873F99C8863CE9F634753030
:104F700065BB54A0F612650868AB15097E33C8DB23
:104F8000238F2E0EEED813065A8D2B931B411099AA
:104F9000784DB5CABD7466C2EA83EB98E954E586DC
:104FA00033B0540410782BE3581A39FA4247377358
:104FB000FE773FF352065320ED2581138DF71BDD5D
:104FC0001C70D619765F93DDE0195F3AF467E9D17A
:104FD000B2298EE0AE4B46705312EB627A972D28C1
:104FE000AB2852F032DD1B0E619BB6BFB0A02CABDC
:104FF00021B670126118B725ACC1761054A0E47ABE
:10500000A7322A816CBB1F257D90785974A4B12BDF
:10501000AB80DB3C54D571730F9C431BACC2D046B4
:10502000376A587FD3F69B146A90B6B82A597FF82E
:105030005B5661949DE9FC2C1DC398F243393E6197
:105040002ED8E0488B429584A411250E6ECA57DAFB
:10505000B89B74E73ED97A2406DDF768D3934DDA1E
:10506000F4F26321E20288C5C8240A37F204B907C2
:1050700007B99C0609F18EF43814013D80D84D38EB
:10508000718873A78ED2CE174070665AE871165B8E
:105090000B7DCC1B334FD89B684803EE928A270CBC
:1050A000F59C46178AF63974DEC9D98BD7F7F7FA1B
:1050B000BDAD5D3FAD73EE93D931E57FD0C7C31A67
:1050C0003829DB8DB1FD362CC7CC4D3E4BF53DB9B3
:1050D000BE42A1BD684F33ABBCB041488ECFA39751
:1050E000CD9021D662A81F4781C727A526CEB7C677
:1050F000A0D02DBFB1D8B3649F794CD011EC553CF2
:1051000024FF4AD02D747CC9631941AC2D64FF0C77
:1051100057EF4C33BA803B5983A2F547E61258E962
:1051200059E084BAF03FD0AD22DF4C4382FBF79EBA
:105130004F261643E85FE1135938FCEE65412052D3
:10514000D606B5622458D150DAC69BA0EC1896F06A
:105150003AB35594A8F9436D7737933B881366E2C9
:1051600044AC5324EA5E8D2D51B31B30CE9BCB69EA
:105170000CD3A701226FB11535F514E27FEB9EC267
:10518000249E35034EDBAA2C42D6BA2A9DE4C2EAFD
:10519000FEA775A5263F88C0A4E0F1B42EB5FABAE3
:1051A0005703EDC2FD3EB325FDDD95C144C4B830C3
:1051B000E5FD254B1A681EA008B4B9ED118776FBF2
:1051C00096BDABBD0717055E77E52DE147EB2514CE
:1051D000F2E50A5756201BEAD863E6ADAE7703A680
:1051E000B7A7E44073E9CD1EC31688202AA300E1C7
:1051F0003C19A8A251AD40C1C6065801ABF884E8DD
:10520000854EA4D119B5E901BA8EE97078FFF4E3AF
:10521000C8585568956E838EA79EC3D544C5562041
:105220008D91A7B69CE1E6746EDDA702B1945D0492
:10523000AC703A0E7C1626CD471B91782C149F1D1E
:1052400052AE4BBDAF45DCD9C61EFE7E189BB015D5
:105250004DEF6367AFBB1C3D9AC517C4F93748844F
:105260003F7916DC74BC2F97E1EEE96FAB210D2975
:10527000344EF8AB37EB4B80BEE436420502D42502
:10528000E214364D812EB943331FD33A9BB041AD62
:105290008344AEDF8DC40C45638C459A2A71FEB9F8
:1052A000CE52529B31BA67387C49A8DDCCD9B22B9B
:1052B00098D8042CD16A1D6BA4784455DDBC12C467
:1052C0005814A49D0AB9F3464715D133FAD402D92C
:1052D00046284E3337D2DE778C242D1AD2FB1EA0FF
:1052E00094263A6319811A4BB4F3F3FF0CBD456061
:1052F000DBFBCC280287F37C9B2DB7AA7ED40F6200
:10530000614E7F8E72034116BCFEBC9E86B062F673
:105310002BE7036DF6642F85709AB29B03853FA43B
:10532000C1916B3F99EE69534743FA787A4A5861C5
:10533000B69BB9C3CE1F480EFA6C28135F3A95C1CD
:105340002CAEEEC266E8787B541B6A95A36D0E8F77
:1053500046454C1C0BF957D2E3897E12CE2C6CC506
:105360008C5EF827B3CD55D9813640A17C217FF8DA
:105370007E755EF4E1A27CC4659D5AE8BF5431009D
:1053800018468BDCF9603AE2129A5A5821A1FD4B7B
:1053900046AE526C179DC0F5501C6499FAA35F4C41
:1053A000DCD5EA89AA837C96CED271839067B18AD4
:1053B000E3E5790A2BA7DB06520AD4F3AD7DC9FADF
:1053C000148BFA7F072B1F404FE9C8CF0830774373
:1053D000D4805623EB7165653C7A632B4595669ABC
:1053E0008A360A994E80F17B76F1AEF3FB407F4717
:1053F000F98A10858DC340F48D7F8BD98CECC99DC3
:10540000F6A744A252B02858481BBDE3AE022ACFEB
:105410005DE7F2E0228F7FB2D097A1654C79161F2D
:10542000075CB4B7E1018314C0F6FBB97B41675F49
:10543000114FA61365F8C85B63086B410E51E9FF75
:10544000E562C6F01A38B271AA9F9F14DE540605B1
:10545000046AE3D245EB4B81702353E0D553E45CFF
:105460001FFEA55EE8F5156C0B4E8DBB01A4E65D35
:10547000AEC59B3B912D0AB259047777D7F2682EBF
:105480006167F59AF299135697FB4238D1C84EF6E8
:105490006643B355A85A50E6C1D38E5030AC458010
:1054A000F341CD58C92C670B6CE8A044590A5E9AA9
:1054B0003DE862BF3002885CFD19D5DB7FA199E829
:1054C0005E65BFB56B939B0931CD42B39BD8F34E5C
:1054D000785AFF4A103317D028BB5F31913F7AA525
:1054E00094B47E13C184AD6F14DC739B2E86DADB1B
:1054F0004C462326703CCFD8F2BC2E25E40D921AE0
:10550000973173F34149BB2B8F9C5AA173036D6D87
:1055100078AFA85B77CCE4FBC6C6543A9024E14A46
:10552000048ADC7682B4CD37165F4A6A926DAE3C4F
:105530002976B7CE7187E517179331313BD79E7720
:10554000036B095AB33901E468CBBE1CC7BBF60B29
:10555000AD06FEA2644AD6A62D35F176255D81936F
:105560001C4B315778FF856A3575E2274D75F36B13
:1055700059548E775A2ADA8121A12B0DFFABE143D2
:105580002BDA7617EE085CF03898B85C78A9EDFD58
:10559000091CA0B5C4DC5F91E218020FB90298099A
:1055A000408B01C823596B3C46FD4706BC91DD9EEC
:1055B000EAE389E95438092EFE85E126501806B041
:1055C000DA2448204ABC672104F6F5038506D6E2B2
:1055D000A8431F8BBCD943EF9A0BD3E9A59CB98C88
:1055E000537CEA418BB15B65E135071AA3F3FBCB32
:1055F0006DCD672BA21FAA38372B6E95D9CE3CA054
:105600004DDA5493855BC36AD9894703DB1FA858D9
:105610004AE42229F08C401178E4ACCF792378C396
:1056200011197D482A2F67C6B0222F44BBB83A878C
:105630006EDF0E52C808104CC65A4AA40AEFBBD1FE
:105640002368CB28E847CAFAC86803B7579FEDFE1E
:10565000A5411464DF0B00513CC09270462DA56B30
:105660009DA97A6FF100710B717E5421B00C82AA52
:1056700006127D01C67C6FF24F6A2ABA0B129ED5C4
:10568000B64410C4600C9AA2A651586FB610B3610C
:10569000616092BD2AC19F73A7295F196DA12C6B10
:1056A000A7D29D897A84AC170B6A7DCB54EB15F297
:1056B000919B5DA34709E9B2B22922C5C849CFAB86
:1056C000771A5AB97F6AD8C751FA71CA39D1D8E95D
:1056D000DCF94F9F56ABA7F8C4C221EC02385F5CDF
:1056E000A3D96DE1D20078F64EC5572E22F05C604A
:1056F000C9D341A4DE6EE0B0CB2D163DE6DF564E99
:1057000041AB1B127BA7A4DF06721CF3F35348487E
:10571000FD35D475CC8AD6BF5139339034EA7FC970
:105720000421EB48D6D5EE17274F2A9BF77173E279
:10573000D5FE301B6969239E00FCDC5C921C49BCD1
:10574000B7012932C14E0FE886358C76CB3088F40C
:10575000FBE171CED17E5311352CB9671568ECC8C9
:10576000842F512BF20060507026419855C1756C02
:1057700002F35C0A4C0230FD7097FD6DFF404D0551
:10578000A1B596A2D91E7FDD5C133ED0DA415BB98C
:105790001EA34BF84AB77F0D1BE3AA47A0EBA58DCC
:1057A000DF7C900407BC25B5649BBBBF9DC82C6300
:1057B000898F5BF016B939B5CC0279A4BD8EAEDC09
:1057C000D1D8D7C919EC9272E4D614C97342653D99
:1057D0004C23366BEDA15099A7FA2C3C1D1D383D8A
:1057E000D59B968780923C5498999AFBDB8A523DD0
:1057F000983038E3CB0A86756418F7BE5D147C4098
:1058000035D12F6671122A93322D9569C5BC1CD4EF
:10581000FC030214513602E062B133526040FE4490
:10582000D845A449D9BB2AC393E202FE5BCF9D149D
:10583000CA2C6CC6AAF000629667563E20DC16564B
:10584000A5EFEC87EFC7E50D533122EC1605C943F0
:105850008DEBA94FE2B55B1EE78513F84234BF8B91
:10586000AF96755999A27F77B167ED786AEE50A42B
:1058700056C7845ADC97802BB72DFE957925642571
:10588000B37C03BC86B59C374AE97C4D376B2FD27D
:1058900060806E1E557BE1316F09C5B922F463AAA1
:1058A000CE8F5DCA26E7C23A8B7060673B6F390ABC
:1058B0006D6CFB3657994DBEA49C91BC499CD07031
:1058C000A1F517C5813DA8E372B8316918D712D286
:1058D00098AA865FBE63296A37C0B08835E5761D11
:1058E000D27700DEECF7955D85A628C18B4AB52EF0
:1058F00062CC258093D37E7D02D2AD53D94FF88000
:10590000C13A6E7CA85B83A686457F47360A92C75C
:1059100084A97AB2DBCE8DEAC6767AB67B92A709E5
:10592000DF4FD9331191C2520CCC66556D5590C0E2
:1059300010D4FE515596E4444347D57B9807A164A3
:10594000AD2764B5019D1D2BBE5C7D77CCA422964E
:10595000CE30487F7A020469A1AFAF46ABE7446F0F
:10596000459E7E854A17C9BD38F92999AF8AB78403
:10597000FEF3690F2BD2264BD5CEEBE46B698DFB82
:105980006D8F00318A0084E52F9107BE26DC4AFD29
:105990006A2E3B930928C6A1C0A2F2E1C35EAC52B5
:1059A000B28B32B484B72FB8DF3AFB64E85862D3C5
:1059B000C62AD32383EC2FE4A492CFA036B81A3D95
:1059C000399703C302947A86B54C7B5CE1A4DB3B38
:1059D0001FCE88ED56DD4C73D60A542577C61ECAF5
:1059E0004A4A8386550EE4841F12C6FF49E2460FD9
:1059F0003BFC64E00665E633DD40B6A7EFA4D10BBF
:105A00006730B5C331F1835F9FEDF2F3BC99F86D58
:105A1000672DF8A92507369C0071503DE4E5D609AD
:105A2000B9A08EE9A43D9E37AB8381D495C4686943
:105A30008739B69952A09EFF5528B12E959B0250EA
:105A400029B76F5C91FE9CC13963845702DEAAD9E5
:105A5000ABFF30043380BADF38CD2343A80F46B8FC
:105A6000CD85449AE2EA68BD8A036272AB71B60DD5
:105A7000CEF1BABE8010B16331AEAD94D42ABEBCB3
:105A8000B12C02EB214FB9C592F7E6796B1FADB18E
:105A90008306D0E560697E49A8F6571EC6DF4E50E2
:105AA000E7E5CAE3A5DFB56E3B4473D2DF6047C6C6
:105AB0001B4EFB6F04A06FC831D85DEE76B18A40F3
:105AC00003AFF5986B2976CB376BEE82503BA83944
:105AD00001CF491C063A58DBA5B4DF0CFE58312C27
