S041000044796E616D69634D756C746970726F746F636F6C4C696768745F65667233326D673132703433326631303234676C3132355F62726434313631612E733337DC
S1130000503803208FFA050051110200DDD005009D
S1130010A70A02020002000004180FAC206A0B01B8
S113002000000000000000000000000000000000CC
S1130030000000008C3306000000000000000000F7
S11300400000000000000000FFFFFFFFFFFFFFFFB4
S1130050FFFFFFFFFFFFFFFFFFFFFFFFFFFFFFFFAC
S113006000700F000000000000000000FFFFFFFF11
S1130070FFFFFFFF1C000000000000000000000064
S1130080000000000000000014BD032014BD032084
S1130090503803203E25070062FD0500503603203A
S10F00A0D411002000001000000000003B
S1130200503803208FFA050051110200DDD005009B
S1130210ED000300E1D00500E5D00500000000007A
S11302200000000000000000000000006F950000C6
S1130230E9D005004F7700000BFE0500779500001C
S1130240150103000D2B040079950000F1D0050081
S1130250E5250400452B0400132B0400152B040092
S11302600F2B0400FF14050045460400939302007D
S113027079D50200F1D00500F1D005002BDF05008F
S1130280F1D00500F1D0050053460400F1D005007B
S1130290F1D00500F1D00500F1D00500F1D0050042
S11302A0F1D00500F1D00500F1D00500F1D0050032
S11302B0472B0400112B0400D34D03007B2B0400B7
S11302C0F1D00500F5F80500F1D00500F1D00500E6
S11302D0F1D00500F1D00500F1D00500F1D0050002
S11302E0F1D00500F1D00500F1D00500F1D00500F2
S11302F0F1D00500F1D00500F1D00500F1D00500E2
S1130300F1D00500F1D00500000000000012034800
S1130310016830BF41F000410160704700BF4C31BB
S11303200E40000080B54549454A0988002000F088
S1130330CFFB5328A8BF522002BD2DE9FE4300F095
S113034071F800F081FD0646019400963AA341221B
S113035000F05DF800F060F8FFF7E4FF814611E07B
S11303606A46E1B2404600F06DFD50B1BDF80000B0
S113037000F0BBFD9DF8020000F0A8FD2878401CA9
S11303802870641CE0B2B04203DA3888C01C81458E
S1130390E6DA37E02DE9FE4300F044F800F050FDC2
S11303A006460194009624A3422200F030F800F09F
S11303B033F8FFF7B7FF81461DE06A46E1B24046D5
S11303C000F03CFDB0B1BDF8000000F08EFD9DF8DA
S11303D0020000F07BFDBDF8040000F086FDBDF8CE
S11303E0060000F082FD9DF8080000F06FFD2878FB
S11303F0401C2870641CE0B2B04203DA388808302C
S11304008145DADA00F0FBFA0120BDE8FE834FF4FF
S11304108051092000F0C1BE39880A4845180020DF
S113042000F054BD04460848084F01680A6892F871
S11304300580404670470000757500006EAD0320CE
S1130440E06D0320EC6D0320C46E032082AD032015
S113045080B501F089FAFF2805D0022803D2DFF81D
S11304601018085C02BD002002BDE0B50221009115
S113047001AB0022032101F093FC20B9BDF8040074
S113048010B1012000E00020C0B20EBDF8B5069FF7
S113049000240025092F064602D300200021F4BDC4
S11304A0A4460DE0A7EB000EB6442D021EF8010C85
S11304B045EA1465002110EB04244D410CF1010CB4
S11304C05FFA8CF0B842EDD39D4206D828BF94421F
S11304D003D2101B63EB0501F4BDA01A65EB030105
S11304E0F4BD10B50268DFF88C1713880B805488AC
S11304F04C8052790A7103681A794A714FF4825315
S1130500CB80026893799A06DFF86C2744BF4FF4D6
S11305108353CB801378816939B9C088DFF85C17BD
S1130520088003F0FD03137010BD43F00203137041
S113053016228169DFF84847204601F075FF002242
S1130540227010BD80B5002001F083FFFF2001F070
S113055066FA01F08CFF00F0D1FE01460122DFF8BB
S1130560100701F09FFFDFF80C37DFF81827DFF8DA
S11305701807522100F0EBFD01F0D2FF02F06EF8F3
S113058002F07EF902F06EFA03F011FA03F002FFB2
S113059003F05CFF03F097FF03F0C3FF04F016F8C9
S11305A004F022F8BDE8014000F080BF03F08CBFE6
S11305B080B504F016F920B905F0FEFE08B903F081
S11305C0F4FC00F055FCBDE8014000F060BC70B5DF
S11305D0034600224FF6FF70DFF8B04601E0521CDC
S11305E092B234F8325085420CD09D42F7D1B3F523
S11305F07C4F06DB04EBC2056E888E4201D00D00F1
S1130600EDD1104670BD10B50446FFF7E0FFDFF8EA
S113061080160B884FF6FF72904203D12246DFF812
S1130620741606E0DFF8641601EBC000DFF8681604
S11306304268BDE81040184606F015B8DFF85C06BD
S1130640006800B1008A704710B5044621684879F3
S113065001F08AF9FF281DD0DFF8441601EB0010E1
S1130660217F027B8A4215D1226840881188884202
S113067006D04FF6FF7399420CD1B0F5004F09D262
S11306802079022818BF032806D11189507906F071
S113069015FA08B9002010BDA07B0028204602D01E
S11306A006F05AFA01E006F087FA00B1012010BD05
S11306B07CB51446227855074CBF05220322934289
S11306C0DFF8E05504D200922A46DFF8DC1532E068
S11306D0089E069A30603171F280B460B38120784C
S11306E000F00100B0732178890801F00101F17371
S11306F001212078C00800F001007075F07B30B152
S113070031751A46204600F051FC317D891C308237
S11307104A1CC9B23275605CB389B074501CD2B241
S11307203075A15CF174C4B2A34209D2C0B2009086
S11307302A46DFF87815022005F08FFF002076BDE9
S11307400798B06106F0C7FD3077012076BD2DE92A
S1130750FE4F81460E4692460D9DDFF85475DFF834
S113076054159B463846202206F06CFEBDF8300036
S1130770DFF828850090029701955B465246314682
S11307804846FFF795FF0024002872D0C8F800708F
S1130790B97CDFF82425DFF8243511701878002897
S11307A03AD006F0EFFE0246DFF81415022005F0F9
S11307B05AFF38684188BA8900914379DFF80415F3
S11307C0022005F050FF022005F008FF20B1386830
S11307D0398A4088FFF717FFF87B28B13A8ADFF897
S11307E0E814022005F03FFFF87CBB7CDFF8DC1442
S11307F00090B8680278022005F035FF397DBA8987
S1130800B868521A0144012392B2022006F0D2FEC3
S11308107CA1022005F021FF3846FFF762FE38462E
S113082006F074FF20BB2DBB042E18BF052E03D089
S1130830022E18BF032E01D1012200E000223868E5
S1130840F98801910121438800930388F87C00F022
S11308501EF990B13868817988060ED4DFF87044A7
S1130860012121700022384600F0D2F800202070C7
S1130870012430E0287D81072DD538684179FF298E
S113088025D10026DFF8EC5300F038FDF1B28142A7
S113089021D2F0B201F06AF88146F0B200F032FDE4
S11308A098B1386841883A8A484600F0A4FF60B19C
S11308B03846FFF716FE386880F8059085F80490EE
S11308C03846FFF7C1FE00B10124761CDCE7384648
S11308D0FFF7BAFE044600F0E3FA1621DFF8A0039E
S11308E006F032FF0020C8F800002046BDE8FE8F65
S11308F0DFF8E0130878401C0870FFE700F07F0081
S11309007047DFF874130A78002814BF42F001021C
S113091002F0FE020A707047DFF8BC1308707047DB
S113092080B1DFF8B4130978012904D1018841F0BA
S1130930400101807047022904D102884FF6BF713B
S11309400A400280704778B1DFF890130A78012AD0
S113095004D1DFF88C2313780B7001E0022A03D151
S1130960017841F0100101707047FEB5DFF80853BB
S11309702B78D90701D50020FEBDDFF82013BD4C2C
S1130980096871B109688A79960603D5E28842F04C
S11309902002E28089794A0603D5E18841F04001CA
S11309A0E180B94A11784E07C34947BF0F78D77021
S11309B00E7856709B0709D5B2480188B04807F0F5
S11309C099F8297801F0FD012970FEBDAB4B1D8813
S11309D029464FF6FC76B14208D201900092224695
S11309E0A8480388002007F0A5FAFEBD009013462E
S11309F0A44802882146284607F069FAFEBD002073
S1130A00B3E700005D0000000146A448006800222E
S1130A1070B504460E462079002818BF01281546F3
S1130A200BD1A0680178CA0601D5300005D0A07B9F
S1130A30002804BFE07C0B2801D1002070BD914A3E
S1130A4000211180607D00B90821E07B18B90846B7
S1130A5000F03CFA06E041F0040000F037FA208A86
S1130A6000F043FAA07C00F031FA0B2000F02EFADB
S1130A70E07C00F02BFA304600F028FA2046FFF71D
S1130A8030FD2846BDE870406FE70022C0E770B52E
S1130A901D46944B8E4E1C78012C01D0337813B133
S1130AA00020307070BD0B0002D10AB1002070BD6F
S1130AB0002C1EBF049C4FF657439C4206D00346AD
S1130AC00A462146284600F071F900B1012070BDA4
S1130AD038B5D2885224950648BF4924550548BFE5
S1130AE0083C150548BF083C1204034648BFA41E31
S1130AF00846032B4FF6FD710ED8DFE803F0090218
S1130B00060BC0B207F01CFE02E0C0B208F042F8C7
S1130B10014601E0641EE4B2084603F044FC241AD2
S1130B20E0B232BD42540844120A4270704708448D
S1130B30110A0270130C120E41708370C270704758
S1130B4070B50C001646054608BF00260FD0207865
S1130B50FF2808BFFF260AD0204600F049FA864243
S1130B6088BF06463246611C681C01F05DFC2E708D
S1130B7070BDF8B50C000546164603D10020687018
S1130B802970F1BD2078FF2804BF6078FF2802D1C6
S1130B9028706870F1BD204600F02FFA0746BE4267
S1130BA0B8BF37463A46A11CA81C01F03DFC2F7083
S1130BB03F126F70F1BD2DE9F041541E002B3ED061
S1130BC0042A37DC00230026984614E0651B00281D
S1130BD014BF10F805C04FF0000C571EA7EB080710
S1130BE04D5DFF000CFA07FC05FA07F74CEA030316
S1130BF03E4308F101085FFA88F59542E6D3042ADA
S1130C0010DAD5000120D2006D1E00FA02F2524221
S1130C1043FA05F1CC0748BF134346FA05F0C00771
S1130C2048BF16439E4215DBB34203DA4FF0FF3050
S1130C30BDE8F0810020FBE7AE42F7DB5B1CDDB2D0
S1130C409542F7D2651B00280CBF0026465D4D5D1A
S1130C50B542F1DA0120EBE70021234A01E0891CC7
S1130C60C9B2535C8342FAD35018407870470000ED
S1130C7004BC0320E06D032076BC03206EAD03208A
S1130C80C86E032082AD0320EC6D0320201B0600F8
S1130C9002BC03206C1A0600841A0600C46E0320EA
S1130CA08C6D0320FC1A0600E01A0600041B0600E3
S1130CB0A46E0320601B0600A04703209C4703206A
S1130CC08C1A0600941A0600B41A0600C01A06000C
S1130CD072BC0320A147032073BC032074BC03200F
S1130CE075BC03209F470320801B06002838082872
S1130CF08041C00F704710B500F009F8FF2801D1FA
S1130D00A32010BD002104F83010002010BD0446BB
S1130D10084600F029BE38B500F00BF8FF2801D1D1
S1130D20A32032BD294604EBC000BDE8344001F0E5
S1130D3027BC04460846154600F016BE40B11C28E0
S1130D400BD01D280CD01E2818BF1F2805D009E081
S1130D500B39102906D2002070471B29FBDB01E068
S1130D600929F8DB8A20704710F0E00011D08028B0
S1130D7006D0A02806D0C02806D0E02806D007E078
S1130D801C2070471D2070471E2070471F2070478D
S1130D90FF20704700F01F00704770477047012024
S1130DA0704701207047012070477047002070474A
S1130DB000207047002070470020704700207047D3
S1130DC0002070470120704701207047B52070470C
S1130DD000207047002070470020704700207047B3
S1130DE07047704700207047704770470020704775
S1130DF084207047704770477047704770470020E1
S1130E007047704770470120704700207047704753
S1130E1008F080B8032070477047002070474FF6F1
S1130E20FE72C281012181810161002202700120D0
S1130E307047002070477047704770470020704724
S1130E400020704700207047002070477047002042
S1130E50704770470020704700207047002070479B
S1130E600020704700207047002070470020704722
S1130E707047B520704700207047002070477047C6
S1130E8000207047704770477047B520704770471F
S1130E90704700207047704770477047704770472D
S1130EA080B54D490020087008F0DEF84B4A1080E8
S1130EB052214B4806F048FC4A4900200880002192
S1130EC049480022002380E80E0001BD10B54549C1
S1130ED00A88522A07DA424CA054521C0A8092B261
S1130EE0A018401E10BD002010BD38B50546C0B284
S1130EF0FFF7ECFF0446280AFFF7E8FF002C18BFB1
S1130F00002801D0204632BD002032BDF8B5074686
S1130F10C0B2FFF7DBFF06463804000EFFF7D6FF2A
S1130F2005463802000EFFF7D1FF0446380EFFF7DE
S1130F30CDFF002E18BF002D05D0002C18BF0028AF
S1130F4001D03046F2BD0020F2BD2DE9F041254D1F
S1130F502E880C46A04608EB060152290CDA204FD5
S1130F6001462246B81901F05FFAA4192C80A4B2F4
S1130F70A4EB0804381900E00020BDE8F08130B586
S1130F8004460020CD18AA4208DA30BD51FA83F293
S1130F9022445B1E12F8015C05EB0020DAB2002A41
S1130FA0F4D130BD0423EAE70323E8E780B5022344
S1130FB0FFF7E5FF80B202BD034691420B4800D320
S1130FC0704710B55C5CFF2C08BF00240C19641C2E
S1130FD0A242A8BF581810BD76BC03206EAD0320F2
S1130FE0EC6D032082AD0320E06D032000BC0320E0
S1130FF00078FF2808BF0020704780B50222002136
S1131000FFF7D4FF4FF6FF72904208BF002002BDE5
S11310102DE9F24F022940F39580190005D0BDF85F
S113102000100529F7DB42F004028246012618006D
S11310308AF8002005D08AF8013003261B0A8AF8B2
S113104002304FF0000B0A9CFFF752FC0AF806002E
S1131050761CB0B2761C0AF80040DDF8309007E048
S1131060BAB24146504406F0EDF9BE190BF1010B3A
S11310700B985FFA8BF1405C002865D000250024B2
S11310807328A04634DC4C2859F8048B1CBF532821
S1131090622811D159F8047B4C2806D1BDB24FF611
S11310A0FF70854236D0022434E0532832D1FDB299
S11310B0FF2D2FD001242DE06C2804D14046FFF7EA
S11310C09CFF871C26E0732804D14046FFF790FF5D
S11310D0471C1FE0A0F130010A2938BFA0F13007F6
S11310E018D3A0F1410107292CD2A0F1370711E050
S11310F00027752808BF01240AD0762808BF0224D7
S113110006D0782808BF032402D077281AD10424F3
S113111059F8045BB9B2BDF8000011FA86F1091957
S1131120884205DA0EE00AF80050761C2D0A641E87
S1131130E1B20029B0B2F6D1B9B2002996D0B8F123
S1131140000F8DD1002000E0B0B2BDE8F28F10B5E1
S1131150434C20604348018043490A60434A13607A
S113116010BDFEB50C46009309A9029113463D4EED
S11311703B4F089D3188019502463868FFF748FFC8
S113118000F001F8FEBD3849384B0A6810804FF46E
S1131190825219684C80CA8070477FB50C4608A9F2
S11311A0009202912F4D2E4E0193024629883068F9
S11311B00023FFF72DFFFFF7E6FF04B070BD38B53D
S11311C0294C256829880346254802682748006871
S11311D001B0BDE8304006F0D9BE0020EFE77FB58E
S11311E000F028F806F017FE04B070BD0023F6E7FF
S11311F01D4B1B4810B51C68026821881B480068F9
S1131200BDE8104006F02ABE7CB50192164D144A82
S11312102E6814680094154C3388226806F08AFE00
S113122076BD0022F0E77FB500F004F806F067FE13
S113123004B070BD0091029301920B4C08492568DB
S11312400B680A4E2A88316870470023EBE7074889
S113125000687047054A1368187110684171704737
S1131260D46D032066AB0320D86D0320DC6D03200E
S11312707FB5DFF8182ADFF8180A13680088DFF84A
S1131280142AADF8060003A9DFF80C0A0568DFF894
S11312900C0A0088ADF802000B600020DFF8001A89
S11312A00988ADF8000002AC0220ADF804101070FB
S11312B025600021DFF8EC0903AE0DF10604DFF828
S11312C0E829655C02EB011202AC157036F81130A6
S11312D0538034F81130938001AC0DF10203655C46
S11312E095715C5C00EBC405956001251DF8014017
S11312F01473491C02295573DFDB7FBDDFF89409A1
S113130000787047DFF8A01901EB0010407B00F073
S113131001007047412818BF422803D0432818BF52
S1131320442801D10120704700207047412818BF8C
S1131330422801D10120704700207047432818BF7C
S1131340442801D10120704700207047F8B51546A4
S11313501E46069A079B044600F062FA60B1042117
S113136000F0EBFB070007D0204601F077F8324687
S113137029462046B84795E0F1BD2DE9FE43140007
S11313801CBF0A9D002D064688461F4620D0FFB18B
S113139028780C9B0107618820794CBF4022802269
S11313A000F03EFAA0B1082100F0C7FB814678B1F5
S11313B0207901F053F89DF82C00019000953B46EC
S11313C0224641463046C847BDE8F74301F04FB8CE
S11313D0BDE8F783F8B51646069C1A46054623462B
S11313E000F01EFAD0B121000BD1022100F0A5FBC0
S11313F0040013D0284601F031F831462846A047AE
S11314000BE0102100F099FB070007D0284601F0FB
S113141025F8224631462846B84743E0F1BD2DE978
S1131420FC411746089C1A460646234600F0F8F984
S113143008B9862016E000259CB9202100F07DFB28
S1131440804670B10A9C099D304601F007F80B985C
S1131450009023462A4639463046C047054601F0E7
S113146006F82846BDE8F681F8B50446A568207854
S113147000F0F4FF002611E02868F1B21422514371
S1131480471820783988FFF790FC0121384600F08E
S113149054FB01001CBF20788847761C2979F0B2E0
S11314A08842E9D3BDE8F14000F0E1BF38B500243B
S11314B0DFF8E0570AE0DFF8F007210600EB1150EF
S11314C0427BD10748BFFFF7CFFF641C2978E0B205
S11314D08842F0D331BD5CB585B00A9C8DF8080014
S11314E0ADF80A108DF80C30ADF80E2000260196E8
S11314F0ADF8104000960023002201A902A800F0D4
S113150059F8019807B050BD10B5002301E0001D43
S11315105B1C9CB28C4204D204889442F7D140886C
S113152010BD002010BDDFF88417401A0C2290FB78
S1131530F2F292B20021DFF87807E5E70288B2F50B
S11315407C4F28BF00F002B80846ECE7DFF86417C8
S1131550401A142290FBF2F292B20021DFF85807ED
S1131560D2E710B50C460188628891420DD1037B05
S11315702279134209D0B1F57C4F04D3FFF7E6FF7B
S11315802189884201D1012010BD002010BD10B571
S113159014460A88E3889A420AD10288B2F57C4F3D
S11315A004D2FFF7CBFF2189884201D1012010BD6D
S11315B0002010BD2DE9F74F82B004469A4600255D
S11315C0002704E08068C1886D187F1CFFB2DFF833
S11315D0C4160A78974280F0D380DFF8CC062378CB
S11315E000EB071002789A42ECD181680091407BAD
S11315F0C107EAD54FF0000804E0B9F80A002D1835
S113160008F1010800990A795FFA88F09042DCD267
S11316100A685FFA88FC142010FB0CFC02EB0C092E
S113162021464846FFF79DFF0028E6D04FF0000B07
S113163007E0307910F0300F04BFF0782D180BF16B
S1131640010BB9F808101FFA8BF08842D8D2D9F8E8
S113165004001FFA8BF20C214A43861822463146B5
S11316604846FFF794FF0028E3D027460398344602
S113167000B104602079810611D5DFF8300600211D
S113168005E00279930644BFC27889180C30A04261
S1131690F7D3DFF8280689B200EB010B04E0DFF88A
S11316A02016ADB201EB050B0E9E049D3046CEB163
S11316B021464846FFF742FF024623887988387856
S11316C0FFF771FBA846E8B12079C10625D5002EA5
S11316D02146484618D0FFF731FF00F055F8FFF7D0
S11316E073FB4EE0002D4CD021464846FFF726FF01
S11316F00246238879883878FFF753FBD8460028B8
S1131700AB46E1D17E203CE0FFF718FFE178019180
S113171000F03AF8FFF756FB33E0A0785FEA0A01DD
S113172008BFE178412818BF422808D043280DD1CA
S11317308A1E92B241465846FFF71BFA1EE04A1E23
S1131740D2B241465846FFF7FBF917E04428EFD0E0
S11317503EB95FEA0A0004D0E078824538BF8920A8
S11317600FD3E178B8F1000F03D1584607F000FF1A
S113177004E00A464146584600F056FE002000E0C8
S1131780862005B0BDE8F08F009503467988387847
S1131790224670472DE9F843054689461746984680
S11317A0002603E0217B0A0615D4761C2979F0B2C1
S11317B088421DD22868F2B214235A438418208820
S11317C04845F2D1390006D0802FEBD0402FECD120
S11317D0217B4A06E9D5B0F57C4F07D32046FFF7B5
S11317E0B5FE404518BFB8F1000FDED1204600E039
S11317F00020BDE8F28380B5134607E080B51346A8
S1131800402204E080B51346802200E0002200F06C
S113181007F800B1012002BD80B500234022F6E79D
S113182070B50C4615461E4600F09EF8FF2801D1FF
S1131830002070BD2146DFF8704404EB00103346ED
S113184080682A46BDE87040A4E70023E8E770B545
S11318500C4615461E46002100F02FF8022800DA37
S1131860E8E7002070BD1346402201E00022FAE7B9
S11318702DE9F84F82468B4690469946FFF7D0FFF4
S1131880002608B9FF2016E00027DFF81C44DFF823
S1131890045408E04B4642465946FFF7D8FF00B1CE
S11318A0761C7F1CFFB22878874203DA3901605C1A
S11318B05045EFD1F0B2BDE8F28F70B50022DFF8E9
S11318C0E83300E0521CDFF8CC432578AA420BDA57
S11318D014011E5D8642F5D10D0003D01C44647BC7
S11318E0E507EFD5D0B270BDFF2070BD80B50021F3
S11318F0FFF7E3FFFF2801D1002002BD00F061F8EB
S1131900407B00F0010002BD70B50E460446002184
S1131910FFF7D3FFFF2801D1002070BDDFF8881343
S113192001EB00153200687B00F0010114BF40F0A8
S113193001000020B142687314D076B12846FFF745
S113194093FD0FE00068142251430844027B018890
S1131950D209204600F074FE761CA8680279F1B220
S11319609142EFD3012070BD0121A6E7DFF83813BF
S11319700001085C7047F8B50C46FFF7F5FF014617
S11319800020FF291FBFDFF8202302EB0111896823
S1131990002915D0002214270DE01B0608E00D686D
S11319A0D6B27E43AB19451C1B7B2600F5D05B06E3
S11319B048BF2846521C0D79D3B2AB42EFD3C0B214
S11319C0F2BDDFF8E41201EB00107047F8B50C46E5
S11319D01546FFF7C9FF0021FF281ED0DFF8C832E3
S11319E0002203EB00134FF0140C01E0491C521CBD
S11319F098680779D6B2BE420FD200681CFB06F67F
S1131A0030442F00067B02D0760602D4EFE7370677
S1131A10EDD5CEB2A642E9D1F2BD0020F2BD00213F
S1131A2009E010B50446012100F005F82046BDE8A0
S1131A30104005F06ABE2DE9F84F86B0804605F0E7
S1131A404AFC9449DFF860920A78059004924FF0BA
S1131A50000A07E009EB0010017B059881420FD0D2
S1131A600AF1010A04995FFA8AF0884261DAB8F14E
S1131A70FF0FEFD04046FFF777FFFF28824658D08C
S1131A804FEA0A6000244FEA105B00E0641C09F18D
S1131A900800E1B250F80B000279914246D2016885
S1131AA0E3B214204343CE1840F22D1132898A4206
S1131AB0A8BF07F093FD00270CE00328ACBFAA6879
S1131AC005F10802012000900023002101A8FFF77E
S1131AD071FD7F1C3189B8B28842D7D27068BAB21E
S1131AE00C214A4385182B79D906F2D419F80B2016
S1131AF08DF804203188ADF80610287941064CBFD2
S1131B00802140218DF8081030462988ADF80A104C
S1131B102946FFF713FDADF80C002979E8784A0748
S1131B20CBD5AA680328CDDB1268CBE7B8F1FF0F49
S1131B3096D007B0BDE8F08F704730B5047B012222
S1131B4000230C4205D1002030BD144218BF5B1C99
S1131B505200D5B28D42F8D30069DBB250F82300AD
S1131B6030BD5849401A8003020C00215648CBE48A
S1131B702DE9F84F05460024487D4FF6FF79A2462B
S1131B8035B108B9022507E0012804D1012503E095
S1131B9008B9082500E004250026934698464948DC
S1131BA000EB86073988594516D1FB782B4213D0B0
S1131BB0B878404510D30CB182450DDBD9060BD55E
S1131BC03846FFF7CEFFB9781CB1514501DB4845D3
S1131BD002D201248A468146761C3C2EDFDB48462D
S1131BE0BDE8F28F2DE9FE4F00270028487D4FF015
S1131BF0010806D008B9022407E0012804D1012411
S1131C0003E008B9082400E004240D9EDDF83CB08C
S1131C10ADF80020B9468A4601932A4901EB8905AB
S1131C20BDF800102888884223D1EA78224220D0C7
S1131C30A9789DF8380081421BD39AF80F00D20688
S1131C4008D5B0B12846FFF78CFFBAF810108142CE
S1131C5001D00EE068B9BB4513D0BDF8300087420F
S1131C600FDA0198A978C1557F1C3288521C328042
S1131C70BFB209F10109B9F13C0FCEDB4046BDE822
S1131C80FE8F4FF00008F9E700000000B0090600DD
S1131C90D21C07006DBC0320B4090600D61C070043
S1131CA0D41C07002C0D06008C6D0320600B06006D
S1131CB0400D06008C0C06003C0D0600AC6D0320A4
S1131CC0BC6B03206C0A06005C0B06002DE9F84788
S1131CD085B00F9F109D0E9C0295019706468A467B
S1131CE0904699460094FFF75AF8010003D0022861
S1131CF003D002D310E001200EE00CBF012000202D
S1131D000021049103900295019700944B464246AA
S1131D105146304600F051FA06B0BDE8F08778B578
S1131D2085B000240494012503959DF82C600A9C39
S1131D300296002521E078B585B000F008F88023EC
S1131D401DE078B585B000F002F8402317E09DF857
S1131D5028600193002401250494039502960094BD
S1131D60704778B585B001240025049403959DF847
S1131D7030600B9CBDF8285002960194009500F049
S1131D801CFA06B070BD7FB5099C0A9D029400261A
S1131D90089C03950194009600F0E6FA04B070BD27
S1131DA038B584B000F002F8402308E0089C0193A1
S1131DB000250395029400957047089C019400F057
S1131DC0D3FA05B030BD2DE9F24F0024B1F57C4FB4
S1131DD082B04FF6FF79A04605D301260196DFF8BD
S1131DE0D8150E8801E00194012600258DF8010024
S1131DF093468DF8003021E0DAF80410AAB20C20E2
S1131E0042438F183888584511D30CB180450EDBF6
S1131E1039465046FFF792FB010008D039881CB1BF
S1131E20414501DB484502D20124884681466D1CA8
S1131E30BAF80810A8B28842DED36D1CA9B2B14228
S1131E4014DA019848B1DFF8742502EB8100438865
S1131E5000F00FF8FFF7E4FC03E000F00AF8FFF7E6
S1131E60F4FC0028E9D000258246E1E74846BDE8B5
S1131E70FE8F9DF80020BDF808109DF80100704702
S1131E802DE9F84F84B09046DDF838901C4605469D
S1131E908A464B4622460026ADF80060FFF7C0FC98
S1131EA00700B3468DF80450ADF806A08DF808403D
S1131EB0ADF80A80ADF80C904BD001A9FFF751FBA7
S1131EC0002846D0ADF80280DDF83C90DDF840A053
S1131ED0BDF80080002415E0B1B249450FD2FFF7E8
S1131EE004F8A878FEF7F2FF5FEA0A0006D0287922
S1131EF0C10754BF05200720FEF7E8FF761C08F150
S1131F000108641C3989A0B288421AD27868A2B246
S1131F100C214A433B888518B3F57C4F09D22888A5
S1131F20ADF80A0001AA29463846FFF730FB00281D
S1131F30E7D02888BDF802108842CDD20BF1010BFE
S1131F40DDE71FFA8BF111FA86F01FFA88F1884257
S1131F5001D1012000E0002005B0BDE8F08F2DE99B
S1131F60F04F8FB000208DF81000DFF854A4DFF894
S1131F7054B404E09DF81000401C8DF81000FFF7E5
S1131F80BDF99DF81010814280F0B0800901042051
S1131F901AF80120DFF8301404F05FFBDFF82C148A
S1131FA000F0CFF9002400E0641C9DF81010DFF865
S1131FB020040901E2B2405801798A42DAD29DF83C
S1131FC01010DFF810344FEA01180168059314204B
S1131FD042438E18002722E0E87808E0A878FFF74B
S1131FE0ADF90028F8D006A8FFF707F8801C82B2E4
S1131FF0012306A9042005F0DDFA30884946FEF7DE
S1132000E6FA4FF6FF71884208D0DFF8CC23DFF8F8
S1132010CC1352F83020042004F01FFB7F1C3189BC
S1132020B8B28842C0D27068BAB20C214A4385184B
S113203007F0D4FA287941062888DFF8A4134CBFA6
S11320405B46059B00900420328804F00CFB294673
S11320503046FFF773FA814628B9DFF88813042065
S113206004F001FB04E04A464FA1042004F0FBFA0B
S11320702879810748BFDFF8701305D4C1064CBF27
S1132080DFF86813DFF86813C00754BF47A048A0FF
S113209001910090EB78AA78DFF85813042004F03B
S11320A0E2FA2879CDF8009041064CBF8023402302
S11320B006AA002021210192039002912A883188E6
S11320C01AF8080000F050F9862804D1DFF8281324
S11320D000F037F9A2E7A878FFF728F900283FF4C1
S11320E07DAF06A8FEF784FF401C80E70FB0BDE873
S11320F0F08F2DE9FE498EB0199D052D45D3189C0E
S11321001E46174688468346029401960097434626
S11321105A46DFF8E81200F04DF804A9212005AA78
S1132120039102900192009433463A464146584640
S113213000F01AF904002BD19DF81000212205A902
S113214007F07EFA040020D02D1FA5421DD3384687
S1132150FEF7CBFE0020FEF7B9FE9DF81000A84D57
S1132160FEF7B4FE2E88C6F152018C4207DAA54B65
S1132170224605A9981900F057F9A6192E80009453
S11321803B464246A04900F015F811B0BDE8F0897D
S11321903846FEF7AAFE2046FEF798FE00943B461A
S11321A042469A49EFE7000025327800524F00007A
S11321B052570000042004F050BA2DE9F84F88B0BB
S11321C082460020129D049000900F469046994646
S11321D08DF814A0ADF816708DF81890ADF81A802B
S11321E0ADF81C500023002204A905A8FFF7E2F96A
S11321F00498874A40B9CDF804800097534685492E
S1132200FFF7D8FF862099E01598A0B904999DF8A6
S113221050008B78984205D07F49042004F01DFAC1
S11322208D208BE00979C80705D47C49042004F08B
S113223014FA882082E004980179139E480726D571
S113224004998868416804980291816888680499AF
S113225001908878FEF74AFD83460498C1788DF88A
S1132260001003290A465B4631461ED202A8FEF737
S1132270A2FC04469DF800205B46314601A8FEF707
S11322809AFC012C1CBF4FF0FF3188421CD01698D9
S113229000284FD1049880784FF6FF72314607F03A
S11322A0CFF9040012D1012048E00298FEF783FC24
S11322B0012809D09DF8002001985B463146FEF7BD
S11322C07AFC10F1010FE2D1872037E00396C0B207
S11322D000F040F8FEF7BEFD01002FD10396E0B2F6
S11322E000F038F8FFF79BF8010027D10120009097
S11322F000233246002105A8FFF75CF901001DD137
S1132300049B3A4651463046FFF716FC029600F00D
S113231022F801F065FE0396E4B29DF850000190A6
S1132320029400F011F8FEF794FD00F00DF8FFF7A9
S113233051F802E03A4900F004F8002009B0BDE881
S1132340F08F042004F089B900954B464246394683
S113235050467047029000954B469DF850000190FE
S11323604246394650467047F0B585B01C460A9E31
S11323700B9D0C9B002701978DF80800ADF80A10FF
S11323808DF80C40ADF80E20ADF8106000972A4689
S113239001A902A8FFF70EF9040005D10D9840B178
S11323A001998A78027004E0892802D11D49FFF757
S11323B0C8FF204605B0F0BDDA1C07003C0D06003E
S11323C08C6D0320AC0D06004C0D0600580D060064
S11323D0946D0320B40D0600241B0600440D060072
S11323E0980D0600BC0D0600DC0D0600E40D060089
S11323F0EC0D0600C40D0600F40D0600000E0600E8
S113240082AD0320EC6D0320580E0600340E060046
S1132410AC0E0600840E0600B80E0600CC0E0600B4
S1132420E00E0600000F060062B181423ABF531865
S1132430984205F009B8801813F8011D521E00F8DF
S1132440011DF9D1704770470C490D480860002000
S1132450704700B1702070470020704780B500F0CD
S113246013F8FF2801D1A32002BD002002BD0020E3
S11324707047704700BF034800787047406E0320E0
S1132480D81C07008C6D032080B5FFF76DFAFF2878
S113249018BF002002BD00210170704707F008B981
S11324A000F07CB84018491C1CBFB1F1010100F8D0
S11324B0012DF9D17047704738B504460D461046D2
S11324C0FFF7C7FF00202070A847BDE83140FFF7A1
S11324D0CEBF00224B494C48EEE700224B494C4802
S11324E0EAE770B5044616460D463046FFF7B6FFD8
S11324F0002020703046A847BDE87040FFF7B7BF02
S1132500012244494448ECE7012244494448E8E7AD
S1132510012244494448E4E7F22242494348E0E7BF
S113252080B5012007F0CAF9414807F05BF9414939
S1132530087001BD80B507F0D9F9012805D03D48E0
S11325400078BDE8024007F037B901BDF0B50024BA
S113255000E0641C384D2E88E3B2B3420ED2E7B2D9
S11325600C25364B6F433B441E78864201BF5D8881
S11325708D421E799642ECD11846F0BD0020F0BD84
S113258080B519B907F094F8002002BDB1F1004FED
S113259002D207F098F8F7E7022002BDB1F5000F68
S11325A03CBF0902FFF7ECBF0220704770B5054637
S11325B01E46FFF7CBFF04000ED02846FFF796F91E
S11325C050B1A0683146FFF7DBFF28B9059804999C
S11325D0A0716171002070BD022070BD1CB500F0B7
S11325E004F80022FFF7E2FF16BD009313469DF89E
S11325F010400194704780B500230093FFF7EEFF6D
S113260002BD0000BFD701001C6D03206B10020047
S1132610246D03206FF602000C6D03201FFA0200E4
S1132620146D0320B1F702002C6D0320346D0320D8
S1132630E8380320BBB5032044470320783803203F
S113264080B5FFF783FF20B180680021017000206E
S113265002BD022002BD0022F2E7704735E0DFF838
S113266010010178022901DB012070470020704726
S113267038B5DFF8FC5004462878A04203D0214640
S1132680FEF7BAFB2C7031BD10B5DFF8E8402078B6
S113269058B900F01AF807F045F9012120B1028871
S11326A0B2F5817F28BF017D2170207810BDDFF84D
S11326B0C0100978012803D10129D8BF022002DD06
S11326C010B9012900DDD3E77047294801780129B1
S11326D000DD704738B507F011F902462649274C4A
S11326E0012003F0BAFF0120FFF7E1FF2078FF2863
S11326F01AD107F017F9B0B1458821482D066D0E9F
S113270005F001052570FF22182107F05BF9012D62
S11327100AD1FFF7B9FF052806DBBDE83440D02114
S1132720184807F07BB9207031BD80B5FFF7CDFFA5
S1132730BDE8014007F0F6B870B504460D461646EC
S1132740FFF7C3FF0420FFF793FF324629462046D4
S113275007F017F904460220FFF78AFF204670BDF0
S113276080B5FFF7B2FFBDE8014007F019B90000DA
S1132770B6BC0320B7BC0320CC440600B6470320F4
S1132780889E0320C044060080B59749022003F0C8
S113279064FFFF20FFF745F9FF2004F090F9FF20C4
S11327A007F01FFD06F07CFB00F06AF8FEF744FB1F
S11327B08E490020088001BDF8B500F097F8009814
S11327C000F0010005B000BD18B587B001A9684646
S11327D006F02AFE864C9DF80F00A0700822BDF872
S11327E00C00208001A9201DFFF71EFE9DF8140097
S11327F06073002200212046FEF71FFB7B49002066
S1132800088008B010BD80B5684606F017FE93280E
S113281009D1784801680A788DF80020012A04BF9C
S113282002218DF800109DF8000002BD78B58FB02C
S113283004460D4616462C2104A804F085FF8DF8A5
S11328401240ADF8106005A8FEF7CAFA00F04EF881
S11328500098ADF83600FFF7D6FF8DF8380000F089
S113286048F8294604A807F0FFFE010004D15F4997
S11328700A8842F480720A8010B070BD08F0A7BACA
S11328801FB508F0E3FA032400B1072408F0E0FAC6
S113289008B144F00804204608F09CFA564808F0B1
S11328A0A3FA564808F0A3FA00F020F80098C107EC
S11328B01BD55349022003F0D0FE4E480168087826
S11328C0012808BF022007F062FF08F0C3FA00F0F5
S11328D00DF8009840F080000090684608F06DFA0A
S11328E000F007F8032003F033FE1FBD684608F02C
S11328F059BA78B58FB005A84249282204F0A2FD40
S113290006F0B6FB08B100201BE001A803F0F6FDB9
S113291004003D4D3D4E03D0009032463C4B0BE04D
S113292005A8FEF788FA05A901A807F0F7FE040038
S113293006D000903246374B2946022003F08DFE24
S1132940204610B070BD10B52848018841F40071CC
S1132950018003F031FD01280CBF0124002408F09C
S113296035FB28B102462C49022003F076FE00E034
S113297024B108F0E2F9BDE8104005E710BD1FB529
S113298004461A480088810504D5912C2BD1FFF701
S1132990FBFE1FBD10F08F0F11D0902C02D1FFF75A
S11329A013FF1FBD912C1ED0029001941B481C4B99
S11329B0164A1C490090022003F04FFE1FBDFFF78A
S11329C095FF902C0FD10098C1070CD542085200F6
S11329D00092002101910291ADF80C10684608F0B4
S11329E0ECF908F09CFD1FBD140206003AA903206F
S11329F05C6B0320406E0320008810020070EF051A
S1132A00E401060030020600580206006C020600CB
S1132A10740206008C020600A40206000C030600E1
S1132A20F4020600D402060080B5FFF727FFBDE8D4
S1132A30024000F0FE0008F0CDB910B5FFF71EFF0C
S1132A4040F0010408F002FA08B144F0040408F06C
S1132A50FFF908B144F008042046BDE8104008F02E
S1132A60B9B970471CB5DFF8A84A0A21204604F01A
S1132A706BFE6021DFF8C80C04F066FEA0206080C5
S1132A80052120208DF80410009001AB1022212193
S1132A90F220FFF750F913BDDFF8741A002000B5D7
S1132AA008704FF0FF3187B0002304918DF81800AF
S1132AB00021039002900191009304AA09F094F973
S1132AC007B000BD18B5DFF8484A207AC10787B0BF
S1132AD012D54FF0FF32002104928DF8181009F03E
S1132AE0F7FE002000210023207203910290019040
S1132AF0009304AA09F078F9DFF8481C0020087054
S1132B0008B010BD80B5FFF7C7FFDFF83C1C0020FC
S1132B10087001BD2DE9F04700F00108C0F342043C
S1132B20894692460609450900F0C3F806F00106F5
S1132B3005F0010526D1DFF8D879387820B109F0FD
S1132B4067FFF98888421DD1B8F1000F18D009F049
S1132B505FFFF880A0210120387079807C70E20743
S1132B607D7146BF4FF47A7101FB09F1DFF8DC1B7C
S1132B70DFF8D40B06F0A7FD26B187F804A001E026
S1132B80FFF78AFF0120BDE8F087002070472DE998
S1132B90F34F8FB00746DDF884801546994611211E
S1132BA00AA804F0D1FD780A00F0030AC7F3411023
S1132BB08DF818000024F80A00F0070BDFF8900BDA
S1132BC038400828DFF88C0B01680A7908BFA04652
S1132BD0042A08BF01242B001A9D08BF0AAB05B9BB
S1132BE00AAD1F9E06B90AAE109ACDF8009007F000
S1132BF0070107A809F0C4FF002856D0DFF8581BC6
S1132C00012003F030FD00F054F84ED1BAF1010F69
S1132C104BD09DF82400C0B1022846D100220821DF
S1132C2007A803F05CFC00283FD107F0180018281F
S1132C303BD0ABF10500022837D39DF8180068B9E2
S1132C40F8060BD48CBB85202DE0079868B310F1EF
S1132C50070FEAD310F1010F27D1E6E71E98BDF85C
S1132C6080101B9B9DF8182004900191CDF81480CE
S1132C700396029507A9BDF87000009038460AF043
S1132C8000FB38B1DFF88808417888070DD5FFF7D5
S1132C9003FF0AE0380708D50AF01AF8FF2808BF2E
S1132CA0002C02D18920FDF7AFFE012011B0BDE850
S1132CB0F08FDFF8A00A01680A685079F22870479B
S1132CC02DE9F8418FB006468846169C17461D46E6
S1132CD011210AA804F038FD04B90AACFFF7E9FF92
S1132CE04ED1189B179A2946199DF02B49D0F32BE6
S1132CF067D1002200298DF8242007923CD10AF0E4
S1132D0033FD80453AD1DFF83C5ADFF8044828788F
S1132D1010B1207A81076ED506F0ACF90B3840F07B
S1132D20100004AA01238DF81000002101920093E1
S1132D3003910291F32307AA012009F055F8012019
S1132D40207206F097F907F10B0188420BD001209D
S1132D500B3700FA07F10022032009F049FD207A1D
S1132D6000F0FD0002E0207A40F00200207241F2FF
S1132D708831284606F0A7FC01203DE0FFF7A2FEBB
S1132D8039E016F007008DF8180008BF049101D04F
S1132D9000F035F80AF0E8FC804509D10020002154
S1132DA06A1C0390029101922B780093F0231EE099
S1132DB0002000210023039002910190009304AAB3
S1132DC017E0F72B03DAA3F1B000102813D216F0A2
S1132DD003008DF8180008BF049101D000F00FF82B
S1132DE00021681C0391029101902C78009404AA9C
S1132DF0012008F0F9FF002010B0BDE8F0810221A5
S1132E008DF818108DF8192004A8216801606168F4
S1132E1041607047002070472DE9F047044688461A
S1132E20626892B200214046FDF77CFE207C08F1E6
S1132E30020520B9A26800F0A2F82D1D07E00228BF
S1132E4005D1082204F1080100F09FF80835207C20
S1132E50022804BF607C05F8010B6168880403D56F
S1132E60A28A00F097F8AD1C606841040ED5A07DDD
S1132E7005F8010B0021A26900F082F82D1D102233
S1132E8004F11C0100F081F8103505E0800603D53B
S1132E90A26900F074F82D1D207941064FF00C0A48
S1132EA00ED500F05EF800F061F805D100F06BF883
S1132EB000F06EF800F04EF87F1CF9B20229F2DB44
S1132EC06068C10517D500F04CF8FAB204F12C0182
S1132ED01AFB02F28E183378022B08D1728800F0A4
S1132EE059F8AD1CB28800F055F800F033F87F1C97
S1132EF0F9B20229E9DB04F14400017805F8011B69
S1132F00227902F01802182A1CBF407805F8010B38
S1132F106268100403D5120C00F03CF8AD1C606824
S1132F20C10312D500F01DF800F020F809D100F01B
S1132F302AF800F02DF899F800000A30AD1C89F841
S1132F4000007F1CF9B20229EEDBA5EB080188B270
S1132F50BDE8F08799F80000401CAD1C89F800001A
S1132F6070470027A94605F8017B7047FAB204F1BF
S1132F702C011AFB02F28E183378032B70470021C0
S1132F802846FDF7D4BD0822B11C2846FFF74CBAE9
S1132F900835728900212846FDF7C4BD2DE9F84F94
S1132FA0B6B00E4600F00701C0F3C1008DF804105E
S1132FB0009090469B46112107A804F0C5FBDFF85A
S1132FC09417096800250024B8F1000F087908BF98
S1132FD00DF11C0800284DD109684879F2283CD12C
S1132FE00FA9E0B209F0F9FD002836D19DF83C00A4
S1132FF0FF2818BF6D1C641CE0B20428F0DD9DF8A6
S11330000001DFF81849DFF81899DFF818A90690CD
S1133010EFB2009860BB9DF80410CDF800B03246C2
S113302043460CA809F0ACFD002800F081800CA8F0
S113303009F02AFEFF28054622D000200122FF23A2
S113304005900490039202930197009000F076F8A3
S11330500FA9284609F0C1FD00286DD1208809EB8D
S113306000010FA8FFF7D8FE2188401820805DE0FA
S1133070009801285CD19DF80001EDB2A84209D363
S113308000210591049103918B22069902910197E5
S1133090009249E000200590002106980491FF2247
S11330A0039202900197009100F048F8002600274F
S11330B0B3460FA95FFA8BF009F08FFD00283BD1CE
S11330C09DF83C00FF2819D0761C9DF80001F1B250
S11330D0884213D221A90FA8FFF79EFE25888046B7
S11330E008EB050152290FD2424621A909EB05003C
S11330F0FFF79AF9A844A4F800807F1C0BF1010B98
S11331005FFA8BF00428D4DD89F80670FDF777FCAC
S113311074280DD100200590039000210698049195
S1133120F6B202900196009100F008F8FDF767FCF2
S1133130012037B0BDE8F08F0020FAE753460B2298
S113314021210120FEF729B82DE9F04F0024F228AF
S113315008BF2129A7B04FF0000B4DD1112A02BF9F
S1133160802B3098002847D1DDF8C4A0BAF1050FB0
S113317042DD1120FDF7B9FEDFF8A077DFF8A09754
S11331803D882D1DADB2A84600266946F0B209F06F
S113319024FDC0B99DF80000FF280FD012A968468D
S11331A0FFF73AFE0446281982450EDB224612A98F
S11331B009EB0500FFF738F96519ADB2761CF0B2DA
S11331C00528E2DB03E0002017E04FF0890B5FEAFB
S11331D00B00A5EB080509D10020FDF777FE43207D
S11331E0FDF774FEA8B2FDF780FE01E0FDF76EFE68
S11331F038882D183D800124204627B0BDE8F08F83
S11332002DE9F04FC24D287889B070B11C46207A60
S1133210002804BF2368002B07D0179EE02E18BF98
S1133220E22E02D0159BDB0703D5012009B0BDE8CF
S1133230F08FDDF84C80129F91468A4683460AF04F
S113324093FA0690CDF81CA018991B980891059044
S113325003969DF868101698049102900197CDF892
S113326000904BEA0710637A216840EA88162246E8
S113327046F4006009F02BFCFDF7E9FF0646F22056
S11332803071707105200AF06AFB687920B1E98811
S11332900020FDF7C6FF0BE0F08840F00200F0804C
S11332A0A9F10C05B57220460CF046F900F08AF835
S11332B000F034F9B9E72DE9F84F1C468AB0054609
S11332C0207A002804BF2368002B7AD030B9236801
S11332D013F1070F02D313F1010F72D102280AD19F
S11332E00023D8B2205C18B95B1CDEB2082EF8DBD0
S11332F0DBB2082B65D01698002862D1179E237A7A
S1133300F00748BF43F008037E2D159818BF7F2DA2
S113331005D143F4007320B143F4807301E043EA20
S11333208013149DDFF8E891DDF868A0DDF8708063
S1133330DDF874B099F805008DF824202F0147F4C6
S113334000673B43ADF826300F4698B10AF00CFAFB
S113335000F03EF8F0074CBF202005200AF0FFFAE9
S1133360FDF775FF00F0D6F80020B9F80610FDF758
S113337058FF24E00AF0F8F900F02AF8FDF767FF97
S113338000F0C8F89DF82410A1F10C05C1888572DD
S113339041F00201C180F00709D57F0907F0060753
S11333A0C7F103077F073F0E2037B8B200E00520BE
S11333B00AF0D5FA20460CF0BFF800F003F800F04C
S11333C0ADF8A1E00146EAB24FF6FD70FDF73DBF4E
S11333D00690CDF820A00797CDF814B0CDF8108052
S11333E0019522469DF864001899039002919DF876
S11333F024000090637A2168BDF8260009F067BBB9
S113340038B500E038B58AB0179C9DF85850099437
S113341008959DF85440149D079406959DF84C40DA
S1133420129D059404959DF844409DF840500394E2
S113343002959DF83C409DF8385001940095FFF7A3
S11334403AFF0BB030BD2DE9F84F314E8AB03478D5
S1133450002C1EBF347A04F00304012C54D0082538
S11334607E281598149CDDF860B0DDF86480DDF8E2
S113347068A0DDF874908DF8242008BF4FF402751D
S1133480800140EA041040F400602843ADF82600AF
S11334900F461C9D707978B10AF066F900F041F886
S11334A0FDF7D5FE00F036F820200AF058FAF1882E
S11334B00020FDF7B6FE25E01E460AF055F900F09F
S11334C030F8FDF7C4FE00F025F87F0907F0060781
S11334D09DF82410C7F103077F07A1F10C04C188EC
S11334E041F002013F0E8472C1802037B8B20AF065
S11334F036FA30460CF020F80146E2B24FF6FD7081
S1133500FDF7A3FE00F00AF801200BB0BDE8F08F30
S1133510949A0320F22101714171704700200AF04E
S11335201EBA0690CDF820A00797CDF81490049504
S1133530CDF80C80CDF808B0019400239DF8240048
S113354000900022BDF82600002109F0C0BA2DE940
S1133550F84F98B0914629980246FF2A0C469A469D
S113356000F0E9804821DFF8C0334A4319680E1D92
S11335700D1DB35843F40073AB5006A943F48063A4
S1133580B35009F02AFB002840F0D5809AF808606F
S113359000214FF00C0806A808FB01F2104490F833
S11335A02C00002814BF032846F0080603D0022884
S11335B008BF46F02006491C0129ECDD9DF81C00DB
S11335C0279D259F01062299239848BF46F010069F
S11335D046EA811646EA0026E02D46F4A04618BFC6
S11335E0E12DB6B203D1DFF84423107818B1F807FF
S11335F048BF46F40066DDF898B001B9CB460AF03E
S1133600B3F80594049064092B989DF8A8100390CE
S113361002910195CDF800B004F006049AF809303F
S1133620DAF80010C4F1030452463046640709F086
S113363011FA240E2034ADF800404FF6FC75002436
S113364006A808FB04F100EB010B0BF12C06307803
S1133650002818BF032818D1FDF7F9FDFFF75AFF1A
S1133660F8074CBF202005200AF079F97089A84298
S113367006D30BF12E0009F0E9FFA84238BF708190
S113368071890020FDF7CDFD25E0022825D1FDF745
S1133690DEFDFFF73FFFA9F10901C288817242F004
S11336A00202C2809DF85C10C172F8074CBFBDF8DD
S11336B0000005200AF053F9B0884FF6FF718842E4
S11336C004BF50460BF038FF0146A9F10902708887
S11336D0D2B2FDF78BFDFFF721FF641C012CAFDD97
S11336E09DF81C00010626D5FDF7B1FDFFF712FF7A
S11336F080F80A90C18841F00201C1809DF85C10F5
S1133700C172F8074CBFBDF8000005200AF027F984
S11337100798810448BFBDF82C8003D450460BF0B1
S11337200BFF804650460BF007FF4A464146FDF723
S11337305DFDFFF7F3FE012019B0BDE8F08F000036
S1133740A09A0320089B0320009B03200071020021
S113375008000200C46E0320C42C06000120704738
S11337602DE9F84F064671480C46017AC8079EB009
S1133770154603D59DF8B410E3296CD19DF8A0003B
S11337800B93002802BF69490878002810D1184615
S113379009F07AFAFF280BD00CA909F01EFA0028C8
S11337A059D10D98410456D49DF84600002852D1B1
S11337B0002E18BF7C2E8DF8286005D07F2E4AD1AC
S11337C05A49087800287BD058498DF82A408DF84A
S11337D029500878299C2A9D2B9EDDF8B090DDF8AD
S11337E0B8A02F9FDDF8C080DDF8C4B000285FD0FA
S11337F0280003D000F070F8FFF702FD9DF82800C0
S11338007F2804BF9DF8A000032807D19DF8B400C9
S113381000F059F800F074F803213FE09DF8B4007B
S1133820E0282ED022D3E22816D002D3E32818D0E1
S11338301CE09DF8A0100B9B9DF829200091E1202D
S11338400590CDF824B09DF82A109DF8280000F0CA
S113385052F8FFF7D5FD33E000F040F8FFF7D2FD52
S11338602EE000F03BF8FFF7EEFD29E09DF828106C
S11338707C2909D1A0F1E4020C2A24BFB038102815
S11338801AD200F029F810E07F2915D19DF8B40070
S11338909DF8A01000F017F800F032F800910B9B8F
S11338A09DF829209DF82A107E20FFF704FD07E0EB
S11338B09DF8B400E22803D000F00EF8FFF747FEAD
S11338C01FB0BDE8F08FCDF824B0CDF82080079765
S11338D0CDF818A0059070479DF8B4009DF8A0108D
S11338E0059000910B9B9DF829209DF82A109DF8C6
S11338F02800CDF824B0CDF820800797CDF818A083
S1133900CDF81090039602950194704728B90748A2
S1133910017AC80748BFFFF7D5B8704782AD0320C6
S1133920EC6D0320D02C0600AC410320949A0320B4
S1133930912800D0704780B500F053FF18B9BDE856
S113394001400BF023BF01BD1CB5059C1CB1049CB8
S1133950009404F013FB13BD30B50246DFF8180AD7
S1133960DFF8185A002303E0D45C604068435B1C12
S11339708B42F9DB30BD0246062A084604DA1423DA
S1133980D2B226210CF00AB8704706280A4604DA97
S1133990C1B2142326200CF034B87047902800D00C
S11339A0704780B50CF0D0F8BDE80140B8E330B5FD
S11339B085B00025DFF8C84900228DF8012069464A
S11339C0A8B2FFF7D8FF9DF8010060B19DF8000090
S11339D028B9AAB218204243A018012101746D1C11
S11339E0A9B20629E8DBDFF89C09058000F098FB02
S11339F005B030BDDFF88C09008870472DE9F04F21
S1133A00002497B0A046A246A146A34668E0D0B2DF
S1133A10092861D257E07FA100910A23BDF81C2038
S1133A20BDF81610FDF79DFB9DF8150020714FF4AD
S1133A308251E1804FF0FF09BDF81C8000260AA9DD
S1133A40F0B205F0ADF8002802BF9DF829009DF8FA
S1133A501510884202BFBDF82A00BDF8161088422E
S1133A6009D19DF835109DF828002246FDF730F85D
S1133A70484598BF8146761CF0B20228DFDDBDF8C8
S1133A801800FDF732FA9DF81000FDF71FFA2946D9
S1133A900EA8FDF75AFA002038740CF0E7F83860E5
S1133AA00EAB002000902A469DF81000412818BF54
S1133AB04228ACD1691EC9B20DF13900FFF74CFFA1
S1133AC000906B4604220020C7E90200D2B21946D6
S1133AD007F10800FEF7A8FC0BF101001FFA80FBB8
S1133AE0DFF8A00801888B4576DA05A95846FFF768
S1133AF042FF0CF0BBF81822DFF8841802FB0BF22B
S1133B008F183D68451B9DF814000028E4D19DF8EA
S1133B1015000028E0D0FDF7E9FE0028DCD0BDF850
S1133B2020004FF47A7148438542D5D3387C30B9AC
S1133B30BDF822000028CFD048438542CCD304A846
S1133B4003902122BDF81C009DF81A3002920EA9A0
S1133B5001910090BDF81820BDF816109DF81500CD
S1133B60FEF702FC0028B7D19DF81000FDF7E6FB34
S1133B700028B1D19DF8100021220EA905F060FDA6
S1133B800500A9D0EA1CE4B120799DF815306188BC
S1133B90834204BFBDF816308B4210D19DF81A3011
S1133BA0DB09534504BFBDF81C30434507D1DFF89A
S1133BB0D8371E88D2B292199145BFF660AF00F093
S1133BC015F8FDF744FB04469DF81A005FEAD01A85
S1133BD014BF002008201EE71CB16188207900F082
S1133BE005F800F09DFA17B0BDE8F08F10B50C464B
S1133BF0FCF72EFC08B9032C0BD1DFF89007FDF776
S1133C00DEFAB42808BFFDF7E8FABDE81040FDF776
S1133C10EFBA10BD000000002DE9F04F064687B052
S1133C20377D00218DF8061086A4707D009400284D
S1133C3007BF08204021002080218DF804100723AD
S1133C403468328A6188FDF78CFAB289B9B2C81C2B
S1133C50904280F2F080B068415C8DF8051000F06D
S1133C60A0F982469DF80500BF1C10B1012857D069
S1133C70CFE0B068B289B9B27F1C445C00F092F91D
S1133C808146BF1CB289B06800F08CF9804620469A
S1133C90FCF7E2FF0025BF1C58B9204605F0BEFC26
S1133CA08346B289B0685B46B9B2FDF768F9054648
S1133CB05F443068318A9DF804300091524641884F
S1133CC04079FDF708FC00281EBF8078A0428D24AF
S1133CD008D1482C18BF4C2C03D0502C18BF512CA1
S1133CE001D18C2496E0306841798DF80910306850
S1133CF041889DF80400ADF80A10ADF80CA08DF8C9
S1133D000E0002A8318AADF81010ADF81490ADF889
S1133D101680069500F089FA0446200095D079E0D3
S1133D20B289B068DFF85C5600F03CF9B5F8009051
S1133D309DF804408046BF1C4FF0000B01E00BF1DE
S1133D40010B29881FFA8BF088422CD202A9FFF7B5
S1133D5012FE9DF80800012801BF30689DF8091083
S1133D6042799142EBD1BDF80A104288914204BFD6
S1133D70BDF80C105145E2D19DF80E10A14202BFCE
S1133D80BDF81010328A9142D9D1BDF81410F288CE
S1133D90914202BF9DF8161002799142CFD1D946C3
S1133DA08DF8044021E08DF80440B9F1060FA8BF56
S1133DB089242FDA01208DF80800316848798DF8BC
S1133DC0090031689DF804004A888DF80E00ADF8AA
S1133DD00A20ADF80CA0308AADF81000F088ADF8D8
S1133DE0140031680A798DF81620ADF8188002A8FD
S1133DF0FDF713F8040090D128881FFA89F2824253
S1133E0004BF401C288002A91FFA89F0FFF7BDFDFA
S1133E1083E785242046FDF759F89DF80500FDF752
S1133E2055F85046FDF761F80120852C8DF8060001
S1133E307FF40BAF04E09DF8060008B9FDF746F8DF
S1133E40A9E00000000000002DE9F84F044686B008
S1133E50277D607DDFF82CA5B0A10028009107BF65
S1133E6008204FF0400900204FF080092668228A7C
S1133E7071880923FDF775F908E08520FDF726F818
S1133E802846FDF723F84046FDF72FF8A289B9B27A
S1133E90CB1C9A42C0F27F80A068455C00F081F898
S1133EA0BF1C012D8046E8D82068218A00914B462A
S1133EB0418840794246FDF70EFB060008BF862084
S1133EC0DCD04FF0000B01E00BF1010BBAF800203D
S1133ED05FFA8BF0904259D201A9FFF74CFD9DF88F
S1133EE00400A84201BF21689DF805004A79904268
S1133EF0EAD1BDF806004A88904204BFBDF8080024
S1133F004045E1D19DF80A00484502BFBDF80C00C8
S1133F10228A9042D8D19DF8040048B1BDF810001F
S1133F20E288904202BF9DF8120009798842CBD101
S1133F300020FCF7CBFF2846FCF7C8FF4046FCF7FF
S1133F40D4FF15B1012D23D0A0E7B078FCF7BEFF54
S1133F50BDF81000FCF7C9FFBDF81200FCF7C5FF5F
S1133F60B078FCF779FE002890D1B07805F056FBC4
S1133F70DDF814800646F0B2002887D05FFA88F096
S1133F80FCF7A4FF4FEA1828761EF4E78B2075E7A8
S1133F90BDF8140078E7FCF732FD012007B0BDE856
S1133FA0F08F7F1CB9B2FDF701B880B503E0401E65
S1133FB080B200F0FCF8DFF8CC1308880028F6D1B2
S1133FC0DFF8CC13087002BD10B5DFF8B8331C88D5
S1133FD0B121A04202D200F022F90021084610BD0E
S1133FE02DE9F84787B00746109DDFF898638846A7
S1133FF091469A46002400E0641C3288A0B29042A4
S113400052D202A9FFF7B7FC9DF80800002804BFAC
S11340109DF80900B842EFD1BDF80A00404504BF3D
S1134020BDF80C004845E7D19DF80E00504504BF8B
S1134030BDF81000A842DFD10020119E129D01900E
S1134040304605F0EBFA412E014618BF422E2846B1
S113405008D1FCF7CDFF0146681CFFF77DFC0190F9
S1134060042101A8A4B21825DFF8147300916C434D
S11340702744D7E90223FCF709FA04460D463046E3
S1134080FCF7EAFD012804D1002D08BF002C07D15C
S11340900AE048B9002106988D4201D8844203D32E
S11340A001223A7400F03CF808B0BDE8F08710B57E
S11340B042784B789A4202BF42884B889A421AD17E
S11340C082888B889A4202BF82798B799A4212D174
S11340D002890B899A4202BF02780C78A2420AD163
S11340E03AB182898B899A4202BF807B897B88425C
S11340F001D1012010BD002010BD38B5A14D0146ED
S1134100288806284FF6FF7405DA0446FFF73DFCBD
S11341102888401C2880204632BD00000000000092
S11341202DE9F04F4FF0FF3985B0CA460026DFF87D
S113413050B2DFF850824FF47A7709E0A11A03E015
S113414014B19442FAD20021514598BF8A46761C94
S1134150B8F80020B0B290421CD200F05DF89DF88F
S113416000000028F3D1BDF80C50BDF80E400BF050
S11341707DFDB3B218214B437D435BF803205B44C0
S1134180821A187C7C4300284946D9D09542DAD358
S1134190A91AD9E71AF1010F7D4803D05146FEF759
S11341A0EFF901E00021017005B0BDE8F08FF8B52A
S11341B0744D2B8804469C4290B02BD200F02CF80E
S11341C028880022401E81B2A1428DF80120288057
S11341D002D16946204618E005A980B2FFF7CBFB5F
S11341E02988674F182671430AA83944182203F016
S11341F029F905A92046FFF7C8FB744338190AA911
S1134200182203F01FF928886946FFF7BEFB6846A9
S1134210FCF703FE11B0F0BD6946FFF7ACBB80B5F7
S1134220FFF7C5FFBDE801407AE72DE9F8430746EB
S113423086B03889534EB6F800800090BB79BA88AE
S113424079887878FDF747F9012508B9862090E048
S1134250F88920B1B989884238BF8720F7D3002470
S113426000E0641C3188A0B2884221D201A9FFF782
S113427082FB9DF80400002802BF9DF805007978B0
S11342808842EED1BDF806007988884202BFBDF8A5
S11342900800B9888842E4D19DF80A00B9798842B7
S11342A002BFBDF80C0039898842DAD10025A04646
S11342B0F8894FF6FF71884206D11DB91FFA88F0BC
S11342C0FFF7ADFF002054E00024002804BFB889A4
S11342D088421FFA88F90AD11422394601A8FEF748
S11342E0A3F801A80BF05FFC08B1012400E0BDB104
S11342F0B9F1060FA8BF89203BDA00208DF804002D
S113430079788DF805107888ADF80600B888ADF88E
S11343100800B8798DF80A003889ADF80C003CB96A
S1134320B889ADF81000F889ADF812003869059025
S113433001A8FCF772FD05001AD130881FFA88F134
S1134340814204BF401C3080182000FB09F40C4E4D
S11343500BF08CFC305106F1080222440020C2E923
S1134360000001A91FFA88F0FFF70FFBFFF7D8FE42
S1134370284607B0BDE8F083C59D1C819301000168
S1134380885E03200ABC032082AD03204939000063
S11343901C7C03201A48017819B101221948FEF740
S11343A081B8704770470CF01BB870471FB50446BE
S11343B002F095FF02F091FF912C02D100F011FA66
S11343C01FBD902C1AD102F086FF0E49085C01280B
S11343D008D003A805F032F8002804BF9DF80C00AB
S11343E001280BD1002103220291012000920190A7
S11343F03C230A224FF6F8710CF02DF91FBD000082
S1134400C7470320C0BC0320026900211172FF21A9
S113441002695172BF21026911708F2301694B70C7
S1134420AF2201698A707F220169CA70372201694B
S11344308A710F220169CA71872201690A710022F7
S113444001694A7101200F4902F007B980B5FF20C4
S11344508DF800004B218DF802108DF8011068468C
S11344600DF02BFB00280CBF07490849012002F07E
S1134470F4F801BD002814BF054806480168491C2A
S113448001607047CC4D0600F44D06001C4E06003A
S1134490C09E0320C49E032010B50446FFF7B4FF5A
S11344A005202071042100206171A07110BD014814
S11344B0704700009440032080B50DF030FC401E8E
S11344C08041C00F02BD704780B500200DF048FC4C
S11344D038B90DF0ACFC0DF029FFBDE801400DF03A
S11344E066BC01BD80B5A0B040887D22694604F059
S11344F0C3FE01001CBF694603F045F921B000BDAD
S113450080B50B460146002218460EF09DFF0100BF
S113451001D1182002BDBDE80840012201210FF09D
S113452072B980B503F014F9BDE80240012010B55A
S1134530040014BF084800200FF062FA50B1002CA8
S1134540BDE8104014BF054A054A03460549022048
S113455002F083B810BD0000E4280600CC28060051
S1134560D8280600A028060038B50FF0BFFA0FF0CF
S1134570DDFA70B1FCF747FC08B3124C207805F063
S113458055F90546207805F092F9D5B1FCF73AFCC7
S113459031BD0FF0B2FA90B109F01FF800280CBF3A
S11345A04FF0FF3001F023FF00900099064805F01A
S11345B0E5F8009018B1002168460FF01FFB0FF0DA
S11345C03EFB31BDBBB50320E838032010B50FF026
S11345D03AFB0446012102200FF0EDFB2046BDE822
S11345E010400FF04DBD704780B552214E4803F086
S11345F0ABF8BDE808408EE0FEB5054601F036FE96
S11346000646284601F042FE9DF800102A464FF661
S1134610FF741EB3019B1B78284621281ED242201A
S1134620022B424E09D24343F01830F81230A34211
S113463014D05B1C20F8123010E00FD1002306EBDD
S1134640420700FB03F637F806E0A6451CBF0EF14F
S1134650010E27F806E05B1C022BF2D3344F324ED6
S113466037F8123036F812C09C458041C043C00F61
S1134670A4451CBF0CF1010C26F812C0092D18BF6B
S11346800B2D0AD1B6F814C0BF8A01EB0C0EBE453F
S1134690AEBFB7826144B1820CE01D2D0AD1B6F8D9
S11346A03AC07F8F01EB0C0EBE45BDBF491E61446D
S11346B07187778736F81210994203D310B92846C8
S11346C0FCF799FB00201B49C6B28A5DAA4204D0BC
S11346D0401CC6B2112EF7DBF7BD112E15DA02F01D
S11346E0FEFD0546144801788D4203DBDD211348A5
S11346F005F094F9222012494543481930F8161060
S1134700A1421CBF491C20F81610F7BD52210648CF
S113471003F01AB800BFFF225221054805F052B930
S1134720034A22F810107047289F0320F49F0320A7
S11347307C9F0320CC510600C7470320BC510600D0
S1134740D09F0320DFF8941AC873704770B5DFF860
S1134750905ADFF8906A297830683824614301441C
S11347608A78112A04D0B621DFF87C0A05F056F9BC
S11347702878316814FB00F408194122827070BD56
S113478010B5022002F0AEFD02F0B3FDDFF8540ACA
S1134790DFF84C3A01681C78DFF8402A382044439B
S11347A008194178042903D1107C401D107405E0D8
S11347B04FF47A7102F1180004F085FFBDE810404F
S11347C002F098BD80B5DFF8240A0EF0B0FBDFF8E4
S11347D0200A0EF0ACFB0FF057FCBDE801400FF0CF
S11347E074BCDFF8000ADFF8F82901681378382070
S11347F04343C818807833281CBF4328532801D169
S113480001207047002070472DE9FF4E10F07AF91F
S113481009F07FF8002867D0DFF8C049002020762F
S1134820DFF8D00901790C3001F0C3FA207D18B10A
S11348300FF044FC0020207500212173002700F0B4
S113484055F810F059FE10F0D0F9DFF8AC09DFF894
S11348509069DFF8A8B9482500F1E20900F1E40AFB
S11348603DE0012111E002F044FD307868434FF649
S1134870FF7239F800109142F3D10022082150440C
S113488001F02DFE411E8941C90F94F8202002F049
S113489001020A4220D030786843082239F8001017
S11348A0ADF808100AEB00016846FDF7BDFD0A23C8
S11348B00A2201F0CEFADFF82C09016896F800C04C
S11348C0382010FB0CFC01EB0C0000F12C0102233E
S11348D00B22002011F02BF802F00CFD7F1C9BF83A
S11348E00010F8B28842BED3BDE8FF8E10B5DFF8E1
S11348F0F008DFF8F02801781368382010FB01F085
S113490018444078032818BF04280CD14820DFF845
S1134910E828414350184FF6FF72B0F8E210914274
S113492008BF032008D001F0C1FC044601F0C7FC15
S1134930214604F0C2F8022001F0E6FC11F08AF8E6
S113494001F05CF810F004FE01F024FB20B1BDE896
S11349501040002011F023BB10BDF8B5DFF87C48EF
S1134960DFF87C78DFF87C68E073382539783068C4
S1134970694301448878032818BF002823D03328CA
S113498018BF432819D101F0FBFA3978306815FBB8
S113499001F542195178032918BF042907D1801C55
S11349A003214155E07BBDE8F24002F00DBDE07B00
S11349B002F00AFDBDE8F14098E721208870BDE8C7
S11349C0F14006F070BBF1BD38B501F050FB382062
S11349D0444315190021A9704FF6FE7008F0D0FE6B
S11349E04FF6FF7008F0E8FEDFF8F04701F0C8FA70
S11349F0E07BBDE8324002F0E7BC0000FEB50446AF
S1134A001522E07A0290032094F90A100191238977
S1134A1033A10093234611F008FF208911F05FFFB2
S1134A2008B10220FEBD00F0FCFA907888B9208914
S1134A3000F050FD0DD012F001F850B902F05BFC0B
S1134A4038B902F05AFC30B1DFF8A40A017802291F
S1134A5001DA7020FEBD31783868694301440A796F
S1134A60900708D508F080FE4FF6FE72904203D1FD
S1134A7012F0F8F900E00020214601F033F90100BA
S1134A80D0D100F0C8FA0A7990074CBF0220012067
S1134A9001F0ECF80021012012F0ADFC0100C1D1BD
S1134AA0DFF8501A087808B113F0FFFE002208213D
S1134AB0204601F014FD30B10421204613F08CFF90
S1134AC008B1A520FEBDDFF8300ADFF8002C01781C
S1134AD021740020E08162612046BDE8FE40D3E1FC
S1134AE042387057424200002DE9F8430546DFF88A
S1134AF00C0ADFF8EC66DFF8EC9611F0EBFE80466A
S1134B002B46182201F03EFA002088F800003827CE
S1134B103178D9F800007943084470244178032996
S1134B2018BF042924D00024290007D1416B91F82F
S1134B302400E8B181F824409D2017E0FF2D06D021
S1134B404FF47A7045432946404604F0BCFDD9F839
S1134B500010327801F1340017FB02F7C15991F8C3
S1134B60240028B9012281F824209C2002F02CFC86
S1134B7000F044FF2046BDE8F283DFF86806DFF862
S1134B8060260168137838204343C818416B91F8B4
S1134B902400704710B5DFF8640911F09BFEDFF8BC
S1134BA04416DFF83C360A681C7838214C43111946
S1134BB04A6B92F8241009B9002010BD04F090FD4E
S1134BC04FF47A71B0FBF1F0C0B210BD38B504F007
S1134BD078FE0446DFF8241911F07DFE0546FF280F
S1134BE018BF02F086FB00202070FFF77DFFFF2D29
S1134BF001D001F007BB31BD38B50D4688B004467D
S1134C00686907901622297C0691E8890590297B1A
S1134C100491E87A0390032095F90A1002912B89F4
S1134C200BA101930095234611F0FFFD01200FF025
S1134C3073FA287B00280CBF4FF6FE7008F094FD31
S1134C402B46224609B0BDE8304001460120AAE0C7
S1134C504242387057424242574244002DE9F047DD
S1134C60DFF87C95DFF87C6599F800C088463168E8
S1134C701D4638248B1C14FB0CFC824613F80C00D4
S1134C8000284BD1170049D0042F47DC11F0D6FE81
S1134C90002843D102F02FFB00283FD102F02DFB66
S1134CA008B1042F3ADB287B032817D14FF6FE7195
S1134CB0884515D1012F08BF4FF0000810D0022FEE
S1134CC02CD108F051FD4FF6FC71884202D208F055
S1134CD04BFD01E012F0C6F8804601E0012F1DD023
S1134CE0BAF1000F0CD0287B03280CBF012100214E
S1134CF03846012F18BF002012F07DFB010030D18F
S1134D002946404600F0EEFF01002AD102F0EFFAF6
S1134D1002F0D0FA20B102F0F0FA08B1702020E0DD
S1134D20306899F80020811C14FB02F4085D3328D4
S1134D3018BF532803D0DFF8A41400208873384622
S1134D4000F094FF00214FF6FF7001F099F9DFF8AD
S1134D50A417087820B102F0D0FA08B913F0A5FD21
S1134D600020BDE8F08738B50446DFF87054082207
S1134D702146281DFDF758FB207BDFF86434022808
S1134D80C8BF0020287094212878E9730028DFF830
S1134D9054041C7802680CBF01213121382044439B
S1134DA01019817031BD38B51C46FFF757FF01005B
S1134DB032D1207B0328204602D1BDE8324063E093
S1134DC0FFF7D1FFDFF814040021818101F0EAFB31
S1134DD0014640094FF0010305D1DFF81C0C0278AD
S1134DE003FA01F108E001F01F0140F0180003FA92
S1134DF001F1052241EAC061062007F0F9FC010037
S1134E000AD0DFF8E013DFF8D8430B68257838219F
S1134E104D43591900228A7032BD10B50446DFF89B
S1134E20C403DFF8BC230168137838204343C8184F
S1134E304078032818BF042806D1E079C10744BF8D
S1134E4094F9050013F019FE207801F0C9F801F077
S1134E5004F9034622896189002013F0EBFE040063
S1134E6004D09420FFF779FD204610BD9420FFF76D
S1134E7069FC022002F035FADFF8604300F0B1FD6E
S1134E8003202074002010BD10B504460022082120
S1134E9001F025FB08B1012010BD08F065FC0022DB
S1134EA04FF6FF7100F05CFF217C204600F081FF8B
S1134EB06269E189207C10F013FECA48C84A01687F
S1134EC0137838204343C8184178012908BF13F0E8
S1134ED0C1F8FFF70BFD002010BD2DE9FC4100F0E7
S1134EE0A0F80446907810B911F0A8FD08B170201C
S1134EF08FE00FF01AF9DFF8E4822CB10222214688
S1134F0008F12000FDF790FA684601F083F808B133
S1134F1093207EE09DF80030142201F033F800F075
S1134F209CFF010075D19DF8000000F09FFE3868D9
S1134F303278411C6A43885C012818BF022808D0D3
S1134F40032818BF042842D1002001F0DFF800280C
S1134F503DD000F099FF38683278411C6A43885C80
S1134F60032814BF042813F059FFFFF7BFFC0120E6
S1134F7013F07CFF01004CD13078396868434A1C37
S1134F80125C032A18BF042A0ED198F820309C071B
S1134F9008D50522DFF83417012000F05DF8010080
S1134FA036D036E0032A01D0042A31D1084400F176
S1134FB02C0102230B22012010F0B9FC00F02BF885
S1134FC091F82C20500723D50FF03FFF20E000F08C
S1134FD022F813228A70002088F80D00012401F0C1
S1134FE0E1FA400903D101F0DDFA84400BE001F05D
S1134FF0D9FA450901F0D6FA00F01F0045F018056A
S1135000844044EAC56405222146082007F0F0FBE9
S11350100020BDE8F6813178386815FB01F54119A7
S113502070476F4E6F4F3278396838256A430A44A7
S113503070470FE038B504461046032818BF04280B
S11350400D4601D0022032BD00F010FE2946204654
S1135050BDE83840FF2200BF2DE9FC4180461646DA
S113506060485F4A13780D46016838204343C818E6
S1135070417801293FD08778022F07D0032F3AD1F6
S11350805FEA080102D10079810734D4332001F0AA
S11350903BF90FF037FD15F0784F12BF0522DFF80A
S11350A0580902782946062007F0A2FB0446A0B955
S11350B04A4F387301200FF02FF808F071FB788005
S11350C05FEA080014BF022001203870381D00F088
S11350D0B9FF00207873BE7302E0384601F014F97A
S11350E05FEA08003146284602D013F0DEFE03E0F2
S11350F013F0DAFE00E070240194009543462C225C
S113510003A1032011F091FB2046BDE8F6810000C5
S1135110424244420000000010B50EF08BF800F14A
S11351201004204613F0C7FE4FF6FF5101402046FD
S1135130BDE8104013F0C5BEF0B5040087B00D46BD
S113514017461E4608D1284613F0A3FF03A913F0FF
S1135150CAFA932818BF03AC07210C988DF80810DD
S1135160019402A90423C8704F70012000903F0AE3
S11351708DF80A7002AA0121284614F09BFA040053
S113518028D0294614F0D0FC300004BF2046FFF795
S1135190C3FF0D9808B920461DE0300008D1104B1C
S11351A010481F78026838214F43D119C87820B9B4
S11351B0284614F09DF820B93EB9284614F0CBFED9
S11351C018B1204615F09FF804E000220021204683
S11351D015F067FC002007B0F0BD000078A703209D
S11351E0EABC032094410320506200004ABC03201F
S11351F044BC03209CA703208CAB0320C747032097
S11352002DE9FC4F8DB08A46104614F055FD064634
S1135210BDF8340008A914F089FA01460E98002557
S1135220002814BF012400244FF6FF79A846002764
S11352303CB109B10DF1200847787F0807F0010758
S113524004E0BDF8340014F0ABFC804600F046F9ED
S1135250531C585C03281CBF0428B8F1000F00F04D
S11352602D811898731C1E5C8DF808A0700800F03E
S113527001008DF80200300658BF46F08006501831
S11352808378022B08D1BAF1000F01BF3432515890
S113529091F82400002801D10225BBE0404608F023
S11352A0D5F98346BDF8340014F090FC824608B961
S11352B04FF0010A34B10E98001D13F0FCFDADF857
S11352C0000001E0ADF800B0404614F0D3FD834681
S11352D04146002013F0AFFE01469DF8020008BBD2
S11352E0DFF8083CDFF8A40C1A78006800F13403F6
S11352F0DFF89C0C90F800C0382010FB0CFC53F82D
S11353000C30187E824208BFFF2904D000210020FF
S113531013F091FEFF287CD0CB4503D114F0A0FDFF
S1135320002876D0BDF800004FF6F871884221DAE3
S11353308B450CDA5946884209D042460AA814F033
S1135340C7FC00F0BEF8002105A814F06CFDBDF800
S113535000B003A9584608F099F958B90022082169
S113536003A801F0BCF828B9082203A9404615F0A7
S1135370B5FC30B94FF6F8718B4502DABBF1000F7A
S113538007D111F06FFD834603A908F07FF90028C7
S1135390F7D0380004D100F0A1F85318D878E0B958
S11353A000F094F801210091CDF804A033465A4648
S11353B0414600F0010014F0C2FE00F08BF8814673
S11353C027D0002249460AA814F082FC00F079F89C
S11353D0002105A814F027FD1CE01CB1101D415C40
S11353E08A0716D4424659460AA814F071FC00F004
S11353F068F800F06BF800F001015346324605A846
S113540014F055FD28B9BDF81C904FF6FF7189457D
S113541000D101250E98A0B19DF8080018B948469E
S113542000F058F803D10E98001D13F044FD01213B
S11354300191009501463B464A464046FFF77CFEF3
S113544008E000F043F82B464A46414600F00100CC
S113545013F0E1FB38001EBF48464FF6FF71884247
S113546019D013F016FEFF2815D0DFF8201BDFF843
S1135470204B0A6894F800C0382102F1340311FB70
S11354800CFC4BF6FF7153F80C20526832F81030C4
S11354900B4022F810300E9880B108F065F90FB176
S11354A0002405E09DF80810002914BF03240124FA
S11354B0014643464A46204615F024FC0FB0BDE899
S11354C0F08F05A80AA90A2201F0BCBFBDF8340078
S11354D014F0F8BA4FF6FF7188427047DFF8B01A3B
S11354E0DFF8A82A09781268382041437047000081
S11354F0DC470320E1470320E8BC0320E4A60320A3
S11355002DE9FE4F81460F46144601A9384614F092
S11355100DF9002183460091384614F0CDFB8246F4
S11355205FEA0900DFF8E06B09D0BBF1000F18BF98
S11355300DF1040B504614F0EEF8054604E038462D
S113554014F02EFB83463546384614F0B5FB025959
S113555000920DF1010013F0AEFC80465FEA0900F1
S11355609DF8034018BF002D06D008223146284676
S113557015F0B4FB002807D13CB94FF6F871884503
S113558003DB9420FFF7E9F997E0DFF8F06ADFF82E
S1135590FC2931781268382515FB01F15318D878A5
S11355A018B19AF80100830714D55FEA090011D0F5
S11355B0901C415C022908BF002C0BD1404608F026
S11355C0DFF80FF099FF992300F0DBFC992001F03C
S11355D0FBFE72E000F095FF002818BF002CDFF8F6
S11355E0307C05D09420FFF7B8F90020387664E0C9
S11355F000F087FF002860D0584615F044FFFF28CC
S113560018BF5FEA0901DFF8B84B06D132784820A9
S113561042435946A05A16F02BF916F08EF9317808
S1135620482041435A46615ADFF86049404600F039
S113563097FBDFF8CC0B90F90210090279843078DB
S1135640216815FB00F08A1C125C012A16BF312A5E
S113565011224322891C0A54022001F042FEDFF881
S1135660B40B016807F1180004F02DF813F0D6FB11
S113567000203874317815FB01F521684A19D07877
S113568020B907F1180004F013F814E0B9F1000F81
S113569006D09AF80100820702D5FFF7B5F80AE0B0
S11356A0481C415D042906D1052107F1180004F0C6
S11356B00AF809203874AD21F97300F06BFC10B1BD
S11356C0002010F06CFCBDE8F78F000000F8FF0725
S11356D02DE9F04F88468DB0404614F0EDFA0546AA
S11356E00922002116F038FB0646404614F058FA09
S11356F0824602AB052205A9404616F085FB022826
S11357008DF800002AD09DF808008619F6B206F13B
S11357101002A95D8DF801100023D2B24146012088
S113572013F0BEFB002819D09DF80100DFF84C49A6
S1135730DFF85898382701284FF6FF7B0FD002284E
S113574019D0042800F0CB80062822D0072800F0C6
S11357509180082838D07C2800F09380E8E0404607
S113576014F0B0F9009600234246002100F0010035
S1135770FFF746FDDCE000F0E4F8012B02BFDFF8A0
S1135780901A0878002803D132464146FFF7B8FE44
S1135790CEE0504613F02FFC5845064608D040464C
S11357A014F090F93246514600F0010013F01EFA4D
S11357B000F0C7F8022B06D101F098FD504613F013
S11357C066FB01F097FDB3E0A819401C13F073FBCE
S11357D0ADF80200A819C01C13F06DFBADF8000071
S11357E0A819801D13F067FB58450646EBD013F04B
S11357F015FB00F0A0F88B5C132B09D100F044FBDF
S1135800404614F0CDF90146BDF8000016F030F81A
S113581000F091F8885C022818BF132823D1304681
S113582007F0AEFFBDF8020007F0C6FF002100201C
S113583000F0BFFABDF80000514600F021FCDFF88B
S1135840C009DFF8D419C0780F28B4BF401C0F205A
S1135850087000F0D3F8207817FB00F7D9F800009F
S1135860811CCA5D132A63D1801C2321C15507F012
S11358702FF85DE09DF8001005AA40460EF062FC8A
S113588056E0A8194078652802BFA91C885D6D28D8
S11358904ED140460DF0E6FC1336F1B2814247D2B8
S11358A00822514603A8FCF7BFFD6A46F1B2404600
S11358B013F0B8FD00283BD1BDF80000C0B3DFF8F9
S11358C05C490120207001F011FDBDF8001003A80F
S11358D013F0D2FA01F00EFD0020207028E0062219
S11358E00021284616F038FA281813F0E4FA044682
S11358F014F06AFAE0B90FF668100088ADF80A00EF
S113590000210191009102230DF10A020121204698
S113591013F0D0FE06000BD0214614F005F94046E2
S113592014F0D0F80022314600F001000DF0A9FF78
S11359300DB0BDE8F08FD9F800002278811C7A43BD
S11359407047D9F800002278811C17FB02F7CB5D61
S11359507047F8B5022001F0C5FC01F0CAFCDFF87D
S1135960B048DFF81867DFF8247600202076382561
S113597007F0CFFF40B1327839686A430A44D078DF
S113598010B9FEF741FF2BE007F0C3FF10B900F098
S1135990B8FD68B1207C58B100F023F8207C411E8A
S11359A0217401F0A4FC0146002010F056FC17E01D
S11359B038683278811C6A438B5C132B0DD000F05D
S11359C0A0FD50B938683278811C15FB02F5485D9A
S11359D011281CBF4328412802D1E07BFEF7BDFFFC
S11359E0CAE2C82104F1180003F06DBEDFF82018E4
S11359F00020087470470000E247032080B501F0DE
S1135A00A1FCFF2807D000F0CCF9416B91F82400E9
S1135A1010B1012000E0002013F092F8DFF8F00745
S1135A2000214180001DC0E9001101BD2DE9F84F9E
S1135A300C46DFF8EC67DFF8C8A70121054671734F
S1135A4084B0904650460EF044FB04F0F2FF002868
S1135A5014D1012D18BF042D00D085B9CDF80080D4
S1135A6023462622BDA1032010F0DFFE01F03EFCF8
S1135A704146204603F048FD01F03CFCBBE0DFF862
S1135A801075DFF808553A7828683824811C624379
S1135A90885C23280DD100F009FC044600F00FFCBB
S1135AA0214603F00AF8022000F02EFC0FF09DF8C6
S1135AB0A1E0B8F1000FFBD121281CBF0428532812
S1135AC002D105F0F0FA96E000F01BFD002800F08A
S1135AD0AC800EF01DFB28B9307B00280CBFAB2036
S1135AE094209FE050460EF0F4FA28B140F21B7166
S1135AF00FF25C7003F092FF307818B95046FFF74C
S1135B008CF978E007F030FE834628683A78411C27
S1135B106243885C032818BF042807D19AF8070059
S1135B20C10744BF9AF9050012F0A7FF9AF80000D4
S1135B30DFF88C8600F054FABAF80A00002100F06D
S1135B409FFA00F0DEFC4FF0480980B1BBF1000F72
S1135B5003D04FF6F8718B4509DB11F083F93978DE
S1135B6019FB01F1834638F801209042F5D05846DC
S1135B7007F006FEBAF8080007F01EFE06208DF8AE
S1135B80080000F06AFA8DF8090002230020019051
S1135B90009002AA387819FB00F0012138F80000BF
S1135BA013F088FD824608B918203BE0387819FBC9
S1135BB000F9504638F8091013F0B6FF307802287F
S1135BC01CBF5046FFF7A8FA00220021504614F0EB
S1135BD068FF30B39420F073022001F082FB286840
S1135BE03A7800F079F814D1C82106F1180003F0CE
S1135BF06AFD032030741020002113F05CFB10B9FF
S1135C0014F099FF10B1002010F026FB05B0BDE898
S1135C10F08F4FF4167106F1180003F054FD0020C4
S1135C20E8E79420FEF799FEE5E728683A78811CB6
S1135C3062438B5C132BDED100F007F9BDF8000042
S1135C4007F0BAFD00F020F9387814FB00F4286856
S1135C50411C095D032918BF042904D1801C332188
S1135C6001559620DEE7FEF741FEC4E7F8B5C84DBE
S1135C70DFF8B065316807462878382460434A1C49
S1135C80135CBB4204D0491C0F54384601F095FB09
S1135C9004F0B8FD60B13FB9002004F0AFFD01F09D
S1135CA026FB0146012212E0012004F0A7FD00E0DA
S1135CB027B130682A7800F00FF804D101F017FBFF
S1135CC00146002203E001F012FB012201460020FC
S1135CD0BDE8F8400DF0AABD411C14FB02F40B5DB5
S1135CE0042B704770B592B006460C4601F0F3FAE7
S1135CF00546E17A00200AF0F8FF08B98A202AE074
S1135D0094F90A0000F024FC08B18B2023E000F091
S1135D107AF9E17A00F8D41F2946A27A4270002069
S1135D206A4610F0C6F94FF6FE70ADF8046086427C
S1135D300CBF4FF6FF702089ADF802006A46294671
S1135D40002010F0DCF808B1022004E02089DFF81C
S1135D50D0144880002012B070BD000042424200BE
S1135D6038B50C46154607F00BFD11F033F82946FB
S1135D70204600F085F90EF0CBF938B1DFF8800445
S1135D80C0780F28ACBF0F20401C06E000F009F8D3
S1135D90417801290CBF00200120DFF87C14087031
S1135DA031BD7A48B54A0168137838204343C8188E
S1135DB070477FB504460E4600F047F8744DC4B1F1
S1135DC0DFF86424002130460FF08AFE29786F4AF8
S1135DD0382041431068435C8DF80430084408229D
S1135DE041788DF8051002A82146FCF71DFB16F03A
S1135DF0D4F82A78DFF8341448204243881810F87D
S1135E00D41F8DF8031041788DF8021007F0C8FCF8
S1135E10ADF8000007F0A8FCADF8060000F017F894
