S02A00006E63702D756172742D68775F6D676D31337030326635313267615F62726434333036632E73333731
S1130000D0E100207D1D0300856E00006919030006
S1130010A70A0A010001000004180FAC206A0B01B2
S113002000000000000000000000000000000000CC
S1130030000000006823030000000000000000002E
S11300400000000000000000FFFFFFFFFFFFFFFFB4
S1130050FFFFFFFF00700700000000000000000029
S1130060FFFFFFFFFFFFFFFF010000000000000093
S1130070000000000000000000000000000000007C
S11300800000000000000000B0FD0020B0FD0020D2
S1130090D0E10020154B0300021E030070D800209D
S10F00A0281500200000080000000000EB
S1130100D0E100207D1D0300856E00006919030005
S1130110B98400006D190300711903000000000088
S11301200000000000000000000000005704000070
S113013075190300370300009F1700005F4B000090
S1130140B9860000AD550200E12200007D190300CC
S113015061500200E5550200B3550200B555020096
S1130160AF55020063430100CD4501001F8100002B
S1130170B74500007D1903007D190300431B0300EC
S11301805F6200007D190300DB4501007D19030057
S11301907D1903007D1903007D1903007D190300F7
S11301A07D1903007D1903007D1903007D190300E7
S11301B0E7550200B1550200056F0200771D0100EA
S11301C01B5602007D190300A91C03007D190300BE
S11301D07D1903007D1903007D1903007D190300B7
S11301E07D1903007B7A00006B8000007D190300F9
S11301F07D1903007D190300000000000056034828
S1130200016830BF41F000410160704700BF4C31CC
S11302100E400F48816B89B201B1012141F6713260
S1130220826346F21A32036843F001030360C26436
S11302304FF4807343604269D307FCD40022C26444
S1130240C9B203685B085B00036001B182630020EC
S1130250704708000E4000002DE9F84F8046DFF893
S11302607C90FF222421484600F048F8DFF870B063
S1130270FF224FF49571584600F040F819481A4F80
S11302801A4C00904FF0240A0026A25D1849BD5D67
S1130290885D521C02EBD272521000B1193215481B
S11302A030F816100098D21C6A4300F06EF8012D45
S11302B01CBF2BF816A0AA44761C242EE5DB2423AD
S11302C04FF480524FF4B0610B4800F05EF8494699
S11302D04046BDE8F44F00F0CCBA00BFE4E800208B
S11302E04CEA0020041E03005C20030038200300B5
S11302F014200300CC1F0300201E030062F30F220E
S113030062F31F4200B500BF1300964694461039AD
S113031028BFA0E80C50FAD85FEA417C28BF0CC083
S113032048BF40F8042BC90728BF20F8022B48BF58
S113033000F8012B00BD70473D49087070472DE956
S1130340F041160088463A4C1CD0A078677865685E
S11303503F1AFFB2F1B2B942B8BF0F463A4641461E
S1130360281801F00DFAA378FB18F61BA370B84403
S1130370F0B238B1A11C284601F07FFA0028E4D07D
S1130380012000E00020BDE8F0810EB430B5284D16
S113039004462878A0B0B0B101F05DFA98B180218C
S11303A0684669706860022101F05BFAA87023ABAB
S11303B0224600211F4801F051FB6868A91C01F086
S11303C05CFA00B9A87020B030BC5DF810FB1A4884
S11303D000210022002380E80E007047164931F8FE
S11303E01020521C21F8102070470CB480B502AACA
S11303F001F06AFC01BC5DF80CFB0D4A1178A1B94F
S1130400010018BF012810D0042818BF05280CD0FB
S1130410312818BF332808D037281EBF3B284FF691
S1130420FF71884201D0012070470020704700000E
S11304305CF200203F03000064F20020302818BF63
S1130440322806D034281CBF3628382801D0002092
S1130450704701207047FEE730B5DFF8205ADFF817
S1130460204A2B882468C01A04EB4004002004E0CE
S113047034F8103021F81030401C9042F8DB002092
S113048030BDDFF8F839DFF8F8191A880968801ADE
S113049001EB4001022001F045BDF8B504460F46CA
S11304A01646DFF8DC59F0B218B34FF6FF70ADF81A
S11304B00000002017F8011BC3B2401C0DF8031004
S11304C0761EC1B2022902DAF1B20029F2D1DFF8B4
S11304D0ACE92868BEF800301FFA84FCACEB0303D7
S11304E00122694600F0F2FD641C0100DBD000F03B
S11304F0C9BC0120F2BDF8B504460D461646F0B25B
S113050088B1012200F010F8641C0020C2B2401C23
S11305101DF80230761EC7B2022F05F8013BEEDA51
S1130520F1B20029F2D1F1BD6946A0B294E70146C7
S1130530DFF8780BDFF8782B405C525CDFF8743B13
S1130540595C09B102F5997240EAC21080B2704751
S113055010B5DFF8583BDFF8602B1C5C012C1CBF86
S113056032F81000081802EB400010BD70B590B0CE
S113057005460C464FF6FF7604E0A8B2FFF781FF6C
S1130580203D2035A9B28C420DD3202200F0EDFF8E
S1130590002082B23DF81230B342EED1401C81B249
S11305A02029F6DBEDE710B070BD10B50446618874
S11305B02088FFF7DBFF0121DFF8002BDFF86C3C1C
S11305C0A171208811784118188801EB4001891D18
S11305D0A18010BD2DE9F0430446DFF8E00A077856
S11305E0B946B9F1060F85B003DD40F2DE2100F013
S11305F0FBFB0021A1717A1C208892B201A9FFF7AC
S11306002BFFBDF804104FF6FF76B14218BF002946
S11306100CD00DF10408711A38F81900884205D17C
S113062001251EE0BDF80410884219D02046FFF7CA
S1130630BCFF05B0BDE8F08338F815000028F1D1FF
S1130640DFF8901C0A88208812FB052141186A43B0
S11306507118101889B280B2FFF788FF0221A171C6
S11306606D1C4D45E8DBA0790228E2D020883818BB
S113067000F073FBBDF80200000B4845D6D120887A
S11306803818401D00F06AFBBDF80210BDF80200E6
S1130690711A000A01F0FF018842C7D10320A0713A
S11306A0012220883F187F1C6946B8B2FFF7D4FEA8
S11306B0BDF80000FF2802D10421A171B9E7B042BE
S11306C0B7D00028B2D1B4E72DE9FE4F0646DFF8D3
S11306D0EC09DFF85C8BDFF800AC8B460178ADF8F1
S11306E00810012234880C19641DFFF71DFFDFF880
S11306F03C1BBDF80000B1F80090641C000AADF882
S1130700000048451CBF01218BF80010002519E0AA
S1130710401CC1B2494513D2C7B23AF81710BDF80C
S113072006209142F4D1C0B2FFF701FFBDF80430B6
S11307304FF6807210401340984208BF08F80750E3
S11307406D1CADB2BDF80000854206DA022201A993
S1130750FFF7EBFEA41C0020DBE7002001E0401CB7
S113076080B2484516DA18F800108142F7D001200B
S11307708BF800000EE021F817A00BE00128DFF849
S11307803819F8D07F2D31F8170008BF0025281834
S113079021F810A0A1B27088C01E88424FF6FF75E0
S11307A051DB00F061F8BDF80200FF27A8424AD0EF
S11307B0601C00F095FEBDF80200BDF806102A1A70
S11307C091424CD104F1030A040A00F07F05BDF8FC
S11307D00000844243DA002000E0401C484504DA6B
S11307E018F80010A142F8D1C7B23088BDF808301B
S11307F0181800EB4400801D012201A980B2FFF704
S11308002BFEBDF80400C0F3C710401C00EBD070F1
S11308100AEB60047088A1B2884220D3FF2FB9D0BC
S1130820DFF88808C05D7F2D14BF2946002181426E
S11308309DDABDF80210DFF87C28D35D0906C90FE4
S113084099429BD093E7B4807088A1B2884209D3BF
S113085000F00AF8BDF80200641CA842F4D001219B
S11308608BF80010BDE8F78F01220DF10201A0B250
S1130870F2E52DE9F84F84B0DFF80016DFF85C7A72
S11308800A88DFF8A819DFF8405C8DF80000ADF89D
S113089006203A80DFF8480A02887A8008880C88A3
S11308A0BDF80610DFF83C2AADF80A00DFF80C08A2
S11308B090F800804646711801EB4401891DB98007
S11308C00020B871DFF8201A08883881301800EB4E
S11308D044001188DFF8142A7981801DB881002032
S11308E0B873DFF80C1A08883882301800EB44001B
S11308F0801D1188B88279820020B87501F087FBC9
S1130900002840F00A8128700021B971B973B875C4
S113091007F1080107F11000E860A9606F6038462C
S1130920FFF758FE07F10800FFF754FE07F1100027
S1130930FFF750FEB979B87BDFF8449504293DD11F
S113094000220428ADF802207AD13846FFF72DFEA4
S113095000F000FA00F0FBF9384607F108011037FF
S11309600122A9606860EF609DF800100A4318BF77
S113097001228DF80020012200883018801CA91C57
S113098080B2FFF769FD9DF80000002840F0C880A0
S11309906868DFF824876946FFF796FEDFF82C0BBA
S11309A00788A8688179032940F0AC806946FFF77D
S11309B08BFE6A68DFF8F406002199E0B97D04280B
S11309C02BD100200429ADF80200BED03846FFF731
S11309D0ECFD00F0BCF9B7F808C000F0C5F9002838
S11309E080463DD10320B873B879032849D1B87B38
S11309F0032802D1B87D012862D0B879012849D1F1
S1130A00B87B032853D1B87D012818BF03289CD193
S1130A1007F1080007F1100156E004292AD100204B
S1130A20ADF802003846FFF7C0FD00F093F9B7F8BF
S1130A3010C000F099F9804690B90320B87519E008
S1130A40B87D0428C1D000F085F900F080F9B7F82A
S1130A5000C000F089F9804610B90320B8710CE099
S1130A60404601F0EAFAB8F1000F03D040F2D23167
S1130A7000F0BAF9B8790328B6D1B87B0128B6D109
S1130A80B8E70228B9D1B87B032804BFB87D012890
S1130A90BDD1BDE7032804BFB87B0128B7D1B87D19
S1130AA003280BD107F11000394608370CE002285F
S1130AB012BF0128B87D0328A9D1F3E70228A6D1E3
S1130AC0384607F10801103700224AE7BDF80A301A
S1130AD0994202DA435C012B09D138F81130B2F89B
S1130AE000C0634524BFB2F802E09E450AD2491C07
S1130AF0B942EBDB02209071A9686868EA68696012
S1130B00AA60E86000204FF6FF7200E0401CB84283
S1130B1006DA38F810109142F8D101208DF800005F
S1130B20687828B1012100208DF80010687015E064
S1130B309DF8000068B968680088301800F00DF965
S1130B40BDF80200C0F30310012808BF8DF80000AF
S1130B5004D09DF80000002800F0EF804D2001F043
S1130B606CFA6888401C6880E868FFF71EFD9DF8F1
S1130B70000000F04EF9002852D0DFF8B0060188DA
S1130B80E868ADF80A100188761806EB4404A41D41
S1130B90A4B2002600E0761CBDF80A00864280F26A
S1130BA0C380DFF81015885D8DF8010000273FE051
S1130BB0BDF80410F8B20143ADF804104FF6FF720B
S1130BC0DFF8BCB2BDF80400BDF80680121ADBF8E9
S1130BD00000ADF80820A4EB080100EB4100BDF8CB
S1130BE002104FF6FF72641C9142A4B240D101225C
S1130BF001A901F0C2F9010047D100F061FA010036
S1130C0043D1A41CA4B2DFF8A804DFF8201BAAF87F
S1130C100040825D51F826102046FFF73EFC002874
S1130C2000F08980DFF8080B815D6418A4B27F1C92
S1130C30DFF8780410F80680F9B24145ABD2F0B27F
S1130C40FFF786FC8246BAF80000ADF802009DF872
S1130C500100C00140EA0620B8F1010FADF804001C
S1130C60A6D1BDF8040040F07F00ADF80400A5E76C
S1130C70DFF83C14895D491C01EBD1714FEAC1597D
S1130C80012201A901F079F901004AD100F018FA12
S1130C90010046D1A41CA4B2AAF800409DF80100AA
S1130CA0E0B100212878039130B103AA0DF10201CB
S1130CB0B0B201F0B0F905E0BDF80210F0B200F0F6
S1130CC058FC0390A4EB0803DBF800004FEA196218
S1130CD003A900F0FBF9010023D1A3E74FF0000AB8
S1130CE001E00AF1010A5FFA8AFBBBEB196F99DA9A
S1130CF028780028BDF8020004D000F022F801F0A2
S1130D0088F903E000F01DF8FFF7A6FB5C480068D3
S1130D10A344ABEB0803012203A900F0D7F90100B7
S1130D20DFD001F08AF906E0E86884809DF80000CD
S1130D3000F0D0F908B9012000E0002005B0BDE8BA
S1130D40F08F411CADF80210012203A9704707F18E
S1130D5010002AE407F1080027E4C01C01220DF169
S1130D60020180B2FFF778BBBDF80630D9F8000065
S1130D70C4440CF1010CACEB030301220DF102019C
S1130D8000EB430001F0F9B8F8B50D46DFF89C1408
S1130D9017467F2F0A8808BF00271E4695423EBF8C
S1130DA0C24B595D8F42044604D2C14A535D9E42F0
S1130DB000D11CB940F2666100F016F839462846A5
S1130DC0FFF7C6FBDFF870190388485D28B11946A0
S1130DD0284600F0CEFB2060F1BD3246214618467D
S1130DE0BDE8F840FFF787BB0FF67C1001F07CB933
S1130DF038B5044608461146FFF7AAFB1F4D038881
S1130E00DFF8381928880A681B1A02EB43022260AB
S1130E1031BDF8B5DFF8B016194CDFF8BC54002822
S1130E2014BFC8688868A54900880A788618B61D62
S1130E30B6B2002701E0B61C7F1CDFF8F00301887E
S1130E408F4217DAF8B2FFF772FBADF80000B3B2C5
S1130E5035F81700DFF8E8C8BCF800E0ADF8020088
S1130E60A3EB0E0320680222694600F02FF901006B
S1130E70E1D007E00120F2BD00000000604803005B
S1130E8028E2002001F0D9F80020F2BD2DE9F24F4C
S1130E9084B000218DF803104FF00C09DFF8A4583A
S1130EA0BDF81010DFF8A068DFF884385B5C29888F
S1130EB035684C0891FBF9F9A1444D45039302D3DD
S1130EC0DB18039309E0182691FBF6F1641AA54296
S1130ED003D303EB530189B203910025DFF854488F
S1130EE0ADF806008DF8042000E06D1CCF480188A1
S1130EF08D4280F2CC80002682E0012202A91FFAF2
S1130F0088F0FFF7A9FAA368DFF834E8DFF82C08C3
S1130F10B3F804C0BEF800300068DC44ACEB030353
S1130F2000F0D2F8010008F101083CD10AF1010AED
S1130F305FFA8AFBBBEB176FDFDB35E01A468DF8EF
S1130F400220BDF806309A18ADF806200123594A4C
S1130F508DF80330505DC30143EA0523BAF1010F54
S1130F60ADF8003040F08580BDF8002042F07F02EB
S1130F70ADF800208A88D21C00288A8000F0848082
S1130F804146E8B200F0F5FAA36802903A0E9F8851
S1130F90DFF8ACE7DFF8A407BEF800300068FB1AFE
S1130FA000F093F801006BD1BDF80000A3684FF680
S1130FB0FF71091AADF80810DFF88007DFF8801711
S1130FC09B880F8800689B1EDB1B00F07DF80100E6
S1130FD056D1A368DFF864079B880068DB1EDB1B1F
S1130FE00122694600F072F8010049D1A0688188A5
S1130FF0A9F8001082889DF8021051188180761C8F
S1131000F1B22A4810F805A05145BFF46EAFE8B21A
S1131010FFF79EFA81462648475DBDF81000B9F8EF
S113102000807F1C07EBD777FF05854202BF9DF840
S11310300410F0B28842E2D060680188884524BF79
S113104040884045DBD3BDF80610039881422ADA74
S1131050DFF8DC26A168535DB1F804C048889C44DD
S11310600CF103029042BFF669AF01206070452085
S113107006E0BDF80030F2B21343ADF8003079E772
S113108000F0DBFF002059E64FF0000A50E79DF81E
S1131090030040B96068022181716068A168E26858
S11310A06160A260E0600120EDE700005C200300C5
S11310B038200300142003004CEA00209648030063
S11310C0DBF80000A4EB0803012202A900EB4300B3
S11310D000F053BF2DE9FE4F5FEA0009DFF8E85343
S11310E0DFF8587614BFE868A868012201884F48E1
S11310F000880291C0F1FF0101F0FF0141EA0021E3
S1131100ADF80210DFF84406029990F800A0DFF869
S113111030060688386801EB0A04631D9B1B0DF139
S11311200201FFF7D3FF01005BD140F6227040EAD1
S11311300A30ADF80200E31C38689B1B01220DF154
S11311400201FFF7C3FF01004BD13868A31C9B1BAE
S11311500122A91C00EB430000F00FFF010040D165
S1131160601CA0EB06085FEA09004FF6FE7B07D07F
S1131170FF21ADF8021000F05DF8010031D109E063
S11311806868008801226946FFF766F9BDF8000027
S1131190012802D1ADF800B002E0411EADF8001004
S11311A04FF6FF72BDF80000121AADF80420A41B1C
S11311B03868012201A900EB440000F0DEFE0100C2
S11311C00FD1029C5046A0F1010A80B270B1386878
S11311D014FA8AF39B1B01226946FFF777FF01008B
S11311E0F0D000F02AFF0020BDE8FE8FB9F1000F17
S11311F016D0E968032088716868FFF7D6F9A868F3
S1131200FFF7D3F9A9686868EA68A8606A600020F3
S1131210ADF80200E96000F00DF80100E1D102E050
S1131220A968032088710120DEE700006C480300F0
S1131230E4E80020012238680DF1020100EB4800C7
S113124000F09BBEFEB50446DFF8E404455CA088CC
S1131250134662882E18F61CB24205DADFF8D4244D
S113126001215170452031E0C01CDFF8E424A08046
S113127080B2525C1946FFF710F950B3DFF8C0048E
S1131280DFF8B8740688A3883868DB1E9B1BFFF759
S11312901BFF01001AD1BDF808004FF6FF71091AAF
S11312A0ADF800100122A38838689B1E9E1B694676
S11312B000EB460000F061FE010007D10898A18808
S11312C00180A0884019A0800120FEBD00F0B5FE79
S11312D00020FEBD5E480300CC1F030058E500203B
S11312E06248030066480300644803006A48030038
S11312F0684803002DE9F84F84B0054688469146B6
S11313001C4601F01FF88DF8045003950126DFF800
S113131044249DF804101388ADF80830B9F17F0F08
S1131320BDF808008DF8054008BF4FF00009814260
S11313303FBFDFF82414039A8B5C994507D2DFF88A
S113134010148B5C9C4202D1B8F1000F03D140F61B
S1131350DB01FFF749FD9DF804004946FFF7F8F863
S113136001240546DFF8F4038179B5F800A00229C9
S11313701FBF817B0229807D022802D1432000F017
S11313805CFE039ADFF8B013885C002832D09DF825
S11313900400514600F0EDF8D8F80010814254D012
S11313A0AAF1030000F09CF8474FDDF80CC07C68FC
S11313B0DFF87C33628813F80C10A088D21E521A0E
S11313C0824207DB30B1B86801888A45A4BF4088EF
S11313D0504571DBF8688179BC68022936D1442014
S11313E000F02BFEF868817901292FD0452000F008
S11313F024FE51E09DF805704FF0000B21E00BEB4B
S1131400DB700AEB600000F04EF908EB0B0018F8F3
S11314100B1040787A1E934501EB002007D1BDF8EC
S1131420001001F0FF0100F0FF00ADF8001080B2E1
S1131430BDF8001088420BF1020018BF00245FFAC7
S113144080FBBB45DBDB002CAAD03CE0B968887983
S11314509DF80470012814D10020FFF7DAFC00285D
S113146031D00020FFF736FE00282CD0B74803788F
S11314703946BDF8087003EB4700C01D4A4680B2E8
S113148004E003280CD14A4639460020FFF7FEFC4D
S113149010B100F01DF8B0B900F032F911D112E02A
S11314A089790FF2C42002290CBF40F6CA1140F614
S11314B0CC1100F019FE06E000F00AF818B900F0AB
S11314C01FF97FF448AF39E470F200206E4803003E
S11314D00095BDF806309DF8041042462046B1E65A
S11314E001220DF1060180B2FEF7B6BFF8B505463C
S11314F09048964F43681C883B78E018FFF72DFC12
S1131500BDF802000026C0F30310012819D11924E4
S113151000F02AF8BDF800006D1C30B14FF47F4193
S1131520401A06D0FF381BD005E0B61C641EEFD16C
S113153016E0761C14E0BDF80000C0B290B9761C29
S113154010E0192400F010F8BDF800006D1C20B163
S11315504FF6FF71884203D004E0761C641EF1D17B
S113156070B2F2BDF643FBE701226946A8B2FEF76A
S113157073BF38B50C460021754B009169461D5C5C
S11315802A4620466D1CFEF7B6FF05EBD57504EB25
S11315906504A0B2FFF7AAFF0028009948BFC04322
S11315A041FA80F032BDF8B56A4A138804466C48A3
S11315B0254630F815609C4202D25F49485D18B94F
S11315C040F68521FFF710FC61494D5D681C00EB76
S11315D0D07006EB6007B8B2FFF788FF0346192BFB
S11315E014D20020DFF858C1DFF850E1ADF8000054
S11315F013FA87F7BCF80030DEF80000FF1A012266
S1131600694600EB470000F0B8FC60B13146204663
S1131610FFF7AFFF00902B46401C00907F226946E5
S11316202046FFF767FEF1BD7CB5054647480678BE
S1131630344621464C1EC9B22888022925DB50FABB
S113164084F000F030F8BDF800000028F1D04548DF
S113165029880288E6B27243521890B2FEF711FF4D
S11316600020ADF8000001222D8834480068751967
S1131670334E3388ED1A694600EB450000F07DFCDB
S113168001000ED000F0D9FC0BE0FEF7FAFE0120B9
S1131690A871304A29881088891901EB4001891DF5
S11316A0A980E0B276BD0122694680B2FEF7D4BEBD
S11316B02A488179022908D0817B022908BF083091
S11316C003D0817D022901D11030ADE7002070479D
S11316D07CB504461D48067800250CE0208850FAA5
S11316E086F0FFF7E0FFBDF8000000281EBF4FF6AC
S11316F0FF7188426D1C00F003F8EFD1E8B276BDAB
S11317003046461EC0B20028704714488179022929
S113171008D0817B022908BF083003D0817D0229CB
S113172001D11030D4E7002070470000D02203001C
S1131730541E030070F200201420030028E200204D
S1131740604803005C480300501E030096480300F1
S1131750382003006C4803005C20030058E5002097
S11317604CEA00205E48030073696D2D6565707254
S11317706F6D322D696E7465726E616C2E6300003C
S113178062B181423ABF5318984200F0FDBD8018FF
S113179013F8011D521E00F8011DF9D17047FEE730
S11317A080B50121794800F0D1FE7948012101601A
S11317B0002001F0CEFA012304220221052001F0C9
S11317C00CFB0120FEF7B8FD00F011F8FEF7FFFD59
S11317D070490120087001F001FC012340226E4988
S11317E06E4801F0C6FB6E490860C00F02BD70B5BB
S11317F001220121042001F063F96A486A4C01685E
S11318006A4D6B4E41F0010101600021C26842F053
S11318108072C26002226748206029603160664895
S113182066490A6000F0C2FE6549664A664B0818BC
S1131830B0FBF2F0401E1860002129644FF480725E
S11318406248634920653160624802602B6843F452
S113185080732B6070BD5348006800B10120C0B292
S11318607047D12202704170090A81705A490A787E
S1131870C2700420521C0A7070472DE9F24F84B0E4
S1131880074608780024052868DB401D8DF8000011
S1131890002601F0D5FB02904FF6FF789DF800007A
S11318A0DFF83891DFF804A13E4D019003971DE065
S11318B003988019414610F8027C384601F038FC40
S11318C080465E463A480168CA070FD5E86840F08A
S11318D08070E860DAF8001041F48071CAF80010F2
S11318E0D9F800000028F1D089F80070296879B38C
S11318F09DF80010F0B288422AD201F0A1FB0299AF
S1131900401A80B240F2F512904226DAF0B210B9D1
S11319105B270126D6E7012804D19DF80000471F64
S11319200226CFE7019806F1010BF6B2C01E8642EB
S113193008BF4746C5D00198801E864208BF4FEABB
S11319401827BED00198401E8642B1D15D27B8E762
S11319509DF80000F6B2864200D0012404990420C8
S1131960087005B02046BDE8F08F80B50C4B1868B0
S113197090B04022694601F0E3FA20B1C2B2694650
S1131980122000F063FA11B000BD000000350A0017
S11319901088144288FD002060F10020A024030078
S11319A0B8E30020F0ED00E0B00F00E0000E00E02E
S11319B0800E00E055CEACC506000E00F00004E039
S11319C0FCAC0600F8590D00100004E0FF030040D1
S11319D00D000100040304E087FD0020200000E066
S11319E070B5134610440BE001F00F060909451EBB
S11319F00A2EACBF37243024A41928462C705B1E51
S1131A00DCB2002CF0D1104470BDF0B5002341B11C
S1131A10002806D52D2313700123B0F1004F18BF01
S1131A20404200210024894D55F82470002601E02D
S1131A30C01B761CB842FBD2F7B20FB90F0004D01A
S1131A40D9B2303656545B1C0121641C092CEBDBE3
S1131A50D9B2303050545B1CD8B2F0BD2DE9F84FE8
S1131A60804696B014A8894615469B4604AF4FF0AD
S1131A70000A002401901EE0012405460DE03429EB
S1131A80FAD15BF8046B0422310C3846FFF7A8FF47
S1131A900422B1B2FFF7A4FF074601998F4209D38C
S1131AA09DF800003F1A00F0C5F8002853D15AFAF7
S1131AB087FA04AF6D1C04A88DF800009DF800009F
S1131AC02978381A00290BD0252903D014B907F82E
S1131AD0011BE2E7002C14BF00246D1C29780A00C6
S1131AE000F09B80B1F1250216D00B3A092A40F28E
S1131AF08380283A7AD00A3A12D0521E42D0521E1B
S1131B005CD0083A5AD0121F3FD0D21E3DD0921E4C
S1131B1054D0D21E6AD0C0E7252007F8010BBCE7D9
S1131B2004A8DBF80010DBF804208DF800000BF1AA
S1131B30080B3846039102920027029A9742ABD2CF
S1131B400399C95D0222FFF74BFF0199884206D32E
S1131B5000F074F8002869D15AFA86FA04A80299A8
S1131B60491E8F423CBF202200F8012B0199884274
S1131B7006D300F063F8002858D15AFA86FA04A86C
S1131B807F1CDAE75BF8040BC7E75BF8046B0746D6
S1131B9000F050F8002849D15AFA87FA04AF00221D
S1131BA0314600E0521CD6B2885D0028FAD1D2B288
S1131BB04846C047002839D1B2446EE76C290AD19F
S1131BC06A785BF8040B752A0EBF00210121642A90
S1131BD007D16D1C05E075295BF8040B0CBF0021CF
S1131BE001213A46FFF711FF074456E75BF8041B4F
S1131BF00222C9B238464DE768780124782818BF14
S1131C005828F2D16D1C0024681E32297FF437AFA6
S1131C105BF8040B81B20422ECE70546EAB200F05B
S1131C200AF818B9AA445FFA8AF000E0002017B055
S1131C30BDE8F08FFAB204A9484640479DF8002059
S1131C40861AF2B204A94846404700007C240300E7
S1131C50FFF78BBE03460A46A2A10420FFE70CB49B
S1131C6080B502AA00F030F801BC5DF80CFB0A0054
S1131C70034602D09CA11120F1E7704780B586B0DD
S1131C8001F0A2FC202204920021984A00926A23C7
S1131C9005910393029101910246002397A101202B
S1131CA0FFF7DDFF9248817902884379039102921C
S1131CB001930179C37882780091422092A1FFF7C1
S1131CC0CEFF07B000BD00002DE9F04786B00746FF
S1131CD00C469146FEF791FB002600287CD1FFF7C5
S1131CE0BAFD002878D00021002001F0ADFF0028C3
S1131CF0ADF8040070D0002101A802F0E5F83946DF
S1131D0002A8FFF7AEFD0746D4B900F098F8002802
S1131D1062D1BDF8040001F0F4FE8DF80000BDF8B6
S1131D20040001F0D6FE6946FFF7A7FD002853D052
S1131D300420FEF753FB4FE08DF808100127641CC4
S1131D4020780028E1D0A0F130010A2904D20A2128
S1131D5001FB0606303EF2E700F071F800283BD1A3
S1131D6021780027422902A80ED044291AD04629F6
S1131D7025D057290DD0622940D0662932D06C294C
S1131D802DD070292ED0D7E759F8040B8DF8080010
S1131D90D4E759F8041B8DF8081002270904090E2A
S1131DA04170CCE759F8041B8DF808100B0A0A0C93
S1131DB0090E437082708DF80B100427BFE759F8A1
S1131DC0048B404602F00AFAC2B20123414601A83C
S1131DD001F0D6FF0028B2D006B0BDE8F08759F86C
S1131DE0046BACE759F8041B0123F2B201A801F01B
S1131DF0C7FF002808BF0026A1D0EDE7BDF8040006
S1131E0001F07FFE59F8045B8046A8B2002896D002
S1131E1001F077FE82460AEB0801C9B201A802F07C
S1131E2053F80028D8D15FFA8AF000900023BDF857
S1131E300400AAB25FFA88F102F0D2F87FE7012326
S1131E403A4602A901A801F09BBF00002DE9F84120
S1131E50122885B004460D46904606D03A2808D08C
S1131E604FF6FE71884227D033E0002002F01BFCBD
S1131E702FE002F01BFF0646002003F090FA07460D
S1131E80002003F097FA034604961848194A1A49A1
S1131E9092F800C003900022482010FB0CFC01EBD8
S1131EA00C00B0F8E2100291019200975FF03B0041
S1131EB017A1FFF7D4FE0CE000224146284601F0AA
S1131EC029FF074604F08AFA384600F0ABF804F01C
S1131ED089FA42462946204606B0BDE8F041FEF79D
S1131EE0ADBA0000574600006C700000E8F700200F
S1131EF0EC2703009FFD002018F8002042423870B0
S1131F0042424242570000004242424257420000CD
S1131F10574242575738704200000000DFF800F083
S1131F20E5E1002038B504460D4604F029FB012CF8
S1131F3002D1FFF7F3FF02E0284604F0ADFB18B12D
S1131F4004F02AFB012032BD04F026FB002032BD40
S1131F5080B58308800705D54FF6FF7242EA014237
S1131F60009204E041F07F4141F47F01009104229A
S1131F706946980004F0D3FB02BDF8B506460D4649
S1131F8005F0010106F001000143144601D00120CF
S1131F90F2BD002C39D032462B46611C4FF6FF7C33
S1131FA001E0921C9B1C491E06D0178867451CBF84
S1131FB018880028F5D024E004F0E2FA012C01D0BE
S1131FC0B00707D535F8021B3046FFF7C1FFB0B99B
S1131FD0B61C641E022C0CD367087F007A002946C5
S1131FE0304604F09CFB50B906EB470605EB470569
S1131FF0E41B44B129883046FFF7AAFF18B104F066
S1132000CBFA4B20F2BD04F0C7FA0020F2BD002049
S113201070470120704770477047002070470020C8
S11320207047704770470198704770477047704712
S113203070477047702004F097BB70B5044643386E
S11320401F4D08D0401E012809D9801E01280ED931
S1132050C01F32D02AE0BDE87040FFF729BBFFF76C
S113206054FB20B1FFF724FB0028FBD170BD154EB3
S1132070307810BB01213170FEF7EEF8442C12D0F9
S11320800CD3462C05D00ED3472C07D140F60100C3
S113209001E040F6020004F065FE04E04FF49B7199
S11320A0284600F021F80020307070BD2846BDE8B5
S11320B070404FF4A47100F017B870BD0000000028
S11320C0302503008CFD002070470020704700205D
S11320D07047012070470120704700207047704707
S11320E003F0EDB942DE704738B504460D4603F0FF
S11320F0F4F900F027F904F063FE29462046FFF7BF
S1132100A9FD2B4622466C49012004F0AAFE29466B
S11321102046BDE83440E5E768482DE9F843684EB9
S11321200168B1654FF42068026A6649F2650B687C
S1132130336649687166426AB266816AF166C26A48
S11321403267016B7167806B96F83810B067480787
S11321504CBF346CF46B04F021FE002232658442DF
S1132160594B014624BFA3F12007A742A14671653C
S113217006F19002DFF854C1DFF854E118D3A069E6
S11321807064E469B464B56DC5F30805062D13D114
S1132190704511D360450FD200884DF64264A042C9
S11321A00AD17068B4685060946040F2017803E02A
S11321B000247464B46481464648814202D20146D4
S11321C000E0091D0846984203D20C68B4F1CD3FE3
S11321D0F7D04149081AF0640021002006F17C047C
S11321E0C5B2401CC7B244F82510062FF8D300200E
S11321F099452CD253F8041D7145F9D36145F7D2A2
S1132200CC07F5D5002406F17C0555F824708F42DF
S113221002D0641C062CF8D3062CE9D1C4B2002CDD
S11322200CBF0520401E06F17C04C5B244F82510FD
S1132230DEE7F16F002306F17C0506EB8304D4F896
S1132240804045F823405B1C042BF6D911600146FD
S1132250481EC9B20029ECD1B06DC0F308000328B0
S113226010D0042811D0052812D0062813D00C2829
S113227017D0122818D119480268910719D540F2CD
S1132280025816E040F6012813E040F6022810E058
S113229040F603280DE0B8F5206F0AD140F6042873
S11322A007E040F6052804E018B13F2838BF40F69F
S11322B007284046BDE8F283141F030004ED00E044
S11322C00000002000E300E0D0E10020021E030033
S11322D0580200009C000020D0E100201C20054092
S11322E004F0D0BD7FB50121204800F02FF9012270
S11322F00121012000F0E4FB0421072004F0C4FDC7
S11323001B4A92E838006946032281E838000D210F
S11323108DF8081001268DF809208DF800608DF8DD
S113232007606946134C204604F01CFE1249042041
S113233008600222114962620860A26A42F0020245
S1132340A2627FBD0B4804F001BEA52803D1002181
S1132350084804F0E2BD70470648006800F0010038
S11323607047074908680028FCD1704730253E00B3
S1132370A81F03000020054080E200E000E100E027
S1132380082005404AB1000011F8013B521E00F834
S1132390013B1CBF11F8013BF8E77047012101FA2A
S11323A000F07047890001EB401101F184410A609B
S11323B07047890001EB401101F1844108687047BE
S11323C010B5DFF84C46A06B420605D41221204616
S11323D0FFF7EFFF0028F9D110BD80B5FFF7F0FF3C
S11323E0DFF82C060068000C00F0030002BD10B5F5
S11323F00122DFF80C16884202D20022002407E0F2
S1132400DFF80016884234BF4FF080744FF0007438
S11324101021DFF8F405FFF7C5FFDFF808060168AF
S113242021F080710C43046010BDF0B5DFF8DC25A9
S1132430DFF8F4451368002304EBC305CFB22E790B
S1132440BE4203D154F83350854202D25B1C052BA3
S1132450F2D3052B0FBF4FF0407004EBC30040795B
S11324600006116821F0407108431060F0BD38B5D2
S113247000F013F841F67130286004F0B8FD002133
S113248005E038B500F009F841F671322A60FFF72B
S1132490CCFF0CB10020286031BDDFF890552C68CA
S11324A004B101247047C01C0F2801D200077047F3
S11324B04FF070407047000038B50446002500F026
S11324C079F9DFF85025DFF85015944208D0DFF889
S11324D04C25944206D0DFF84825944204D006E007
S11324E0086802E0486800E0886800F00700401EC1
S11324F003281AD8DFE800F002050C0804F0AEFD4A
S113250004E004F0B1FD01E004F0ABFD05460CE08D
S113251004F070FD0446DFF80C050168C1F30060A7
S1132520401CFFF73BFFB4FBF0F5284632BDDFF853
S113253000154A68D30702D40A680242FCD17047E6
S113254080B500F0E5F8401C02BD000070B50C46F3
S11325500246110A01F00F010020491E0929DFF883
S11325605C5513D8DFE801F0051312120715181291
S11325701B1FDFF89454C2F3043608B1FFF7D7FFEA
S1132580224631462846BDE870400BE770BD103541
S1132590F1E730350120EEE738351020EBE7403520
S11325A04FF48030E7E7DFF8C056E4E7F8B50646B5
S11325B0DFF88004DFF85C140768DFF86004DFF8F4
S11325C06024DFF86044012516F478137AD0B3F55B
S11325D0003F31D0B3F5802F2AD0B3F5202F71D02E
S11325E0B3F5402F2ED0B3F5602F63D0B3F5801F21
S11325F030D0B3F5A01F30D0B3F5B01F35D0B3F54C
S1132600D01F42D0B3F5F01F25D0B3F5001F4ED034
S1132610B3F5101F4AD0B3F5381F2DD0B3F5401FC2
S113262039D0B3F5481F50D0B3F5781F64D06CE0AF
S113263004F0E0FCE16802E004F0DCFCA168C1F312
S1132640082104E004F0D6FC6169C1F30421491CAB
S1132650B0FBF1F75AE0084629E01046FFF72CFFDB
S11326600746206B00F003000DE00846FFF724FF47
S1132670216A01F00F0115E00846FFF71DFF074628
S1132680206AC0F30110C74040E0FFF715FFA16ABC
S1132690C1F3011106E0FFF70FFFA16A090A01F077
S11326A00301091D8D40B0FBF5F72FE01046FFF73D
S11326B003FF1FE0DFF8F80500F07CF8072825D0B9
S11326C0092822D104F096FC14E0DFF8E80500F0B4
S11326D071F804280CD0072818D0082815D104F064
S11326E089FC07462068C0F30420401C47430DE0E2
S11326F004F09DFC074609E004F07CFC04463046E7
S1132700FFF71EFFB4FBF0F700E000273846F2BDE8
S113271001460B0903F00F0301205B1E092BDFF8B0
S1132720042344D8DFE803F005070B1143431317D0
S1132730263B106800E05069C0F30420704711681C
S1132740090E01F00101491C26E0D06800E0906800
S1132750C0F308207047DFF86035994204D0DFF8F1
S11327605C35994204D022E0116A01F00F0113E0B4
S1132770116A09E0DFF84835994204D0DFF844359E
S1132780994204D013E0916AC1F3011104E0916A03
S1132790090A01F00301091D8840401E7047DFF853
S11327A02805814203D1106B00F00300704700201C
S11327B070470000014601F00F010120491E07295E
S11327C0DFF808254FD8DFE801F00415194E263448
S11327D04E3C506A00F00700801E052808D8DFE848
S11327E000F03E240B0307050B2070470C207047B4
S11327F00520704711690FE002207047516901F00C
S11328000701491E03292FD8DFE801F00F02031145
S1132810F2E706207047916901F00701012904D00D
S11328200229E9D0042902D07047032070470A2006
S11328307047116811F001010FD0012914D109204A
S11328407047DFF88C140A6802F03002102A04D0B2
S1132850202A04D0302A04D070470720704704206F
S11328607047082070470020704700002DE9F843A6
S1132870074600240326112F0D46B04612D1042D1D
S113288002D104F0D4FB08E0052D0BD1DFF8440499
S1132890DFF844140068884204D304001CBF0021FC
S11328A004F06EFD07F00F077F1E072FDFF81C945E
S11328B014D8DFE807F004464C9549789584022D36
S11328C04F480CD0032D2ED0042D2FD0052D32D0FF
S11328D00A2D03D00B2D30D00C2D30D080E00426EF
S11328E04FF0000801220121404600F0E9F8FFF70B
S11328F0BEFD0CB1FFF764FDC9F8046004F06AFB87
S1132900054604F077FBFFF772FDFFF766FD01460D
S11329102846FFF7B6FD002C62D1BDE8F44301213F
S1132920002004F02DBD4FF00108DBE70226B0467D
S1132930FFF75DFDD6E70126FAE70526D2E707266D
S1132940D5E709F1100404E009F1180401E009F1E4
S11329501404012D08D0022D09D0032D0ED0062D0C
S113296013D00A2D1DD03BE00020206038E0012266
S11329700121002000F0A4F80220F6E70122012141
S1132980012000F09DF80120EFE704F033FBFFF78E
S11329902EFD01220221DFF82401FFF703FD0320AD
S11329A0E3E70420E1E7072D05D0092D04BF012149
S11329B0C9F8001014E00020C9F8000010E0012D4F
S11329C006D0042D15D0072D0CD0082D15D007E006
S11329D00020DFF8FC120A6822F03002104308607D
S11329E0BDE8F18301220121042000F069F81020E0
S11329F0EFE700F021F82020EBE73020E9E70000C2
S1132A000148E8010190D00300400E4004000E404C
S1132A1004300E4002001E0080400E4003002000DF
S1132A200500240000410E40A823030040000E408E
S1132A3040410E40A4E300200122012102203FE096
S1132A4070B5044600F037F801220021022000F09E
S1132A5037F8217CDFF8905200200229296808BF4A
S1132A600120490840EA41002860082122782846CC
S1132A70FFF798FCA088617A41EAC021A960EE685A
S1132A80207AFFF710FDE288A17A06F07F6646EA15
S1132A90C226227A0E4346EAC2160643EE60A17BA2
S1132AA0607B227B090141EA0031E07B014341EA7A
S1132AB00241296170BD11207CE60000B0400E4047
S1132AC02DE9F84F0428834692466FD8DFE800F0DA
S1132AD0524D430348000127022001250026002906
S1132AE0DFF8F480804C63D0BBF1020F02BF206892
S1132AF0C0F3011000284FF000090CD17B48016895
S1132B002268D0074FF0010905D5216821F0300172
S1132B1041F010012160E763314600F059F80028C4
S1132B20FAD0BAF1000F41D000F051F80028FBD0E0
S1132B30BBF1020F3AD1B9F1000F37D02068C107B9
S1132B401FD54FF48060C8F81800202121640220AA
S1132B5000F08CF819E00427082003250226BEE7BC
S1132B601027202005250426B9E7402780200725C3
S1132B700626B4E74FF480774FF400700925082641
S1132B80ADE70021022000F071F8D8F80C600122B2
S1132B9000210220FFF794FFC6F30A01022000F08F
S1132BA01DF8E76300F013F80028FBD0BDE8F18FAF
S1132BB0E063D8F80000F040C107FAD4BAF1000F7E
S1132BC0F4D0D8F80000E840C107FAD4EEE729466B
S1132BD04046FFF7EEBB000090400E40F8B5401EA3
S1132BE00D46032805F07F063C4C3E4F3BD8DFE8FA
S1132BF000F00228101CC5F308051A213846FFF717
S1132C00D8FB0028F9D12069400A45EA402525610E
S1132C10F1BD18213846FFF7CCFB0028F9D1206814
S1132C20C00946EAC0162660F1BD19213846FFF7EF
S1132C30C0FB0028F9D1A068C00946EAC016A66006
S1132C40F1BD27480168626922F0300242F01002A7
S1132C506261C5F3C310FFF726FC226A24490A40C7
S1132C60154305432562F1BD50410E401E4A1068CC
S1132C70C0F30110002818BF002911D0202902D068
S1132C8030290DD00FE04FF40000D16E0140814295
S1132C90FBD1400209D5D06F800A00F001007047D3
S1132CA04FF44000F1E71348EFE7012070470000BC
S1132CB006000E00B80032008006160080162E00B2
S1132CC090171A0090273000A009140070400E409D
S1132CD05C410E40B4E30020012D310110400E4050
S1132CE090400E4040410E4024400E403C300E4087
S1132CF000F8FF0FFF33E13F890001EB401101F1C0
S1132D0084410A60704770B504460D46164604F0C7
S1132D10A4FE2168A94335400D432560BDE87040F9
S1132D2004F09FBE10B500F00DF804F1806404E0D7
S1132D3010B500F007F804F1C064012303FA01F1AF
S1132D40216010BD3022404B5043184400F10C0464
S1132D5070473E490A68920840EA8200086070475A
S1132D602DE9F04101F00305164603240F21082E36
S1132D7098460CD2B70000FA07F2B9403448FFF77E
S1132D80C2FF05FA07F204FA07F132480DE0A6F192
S1132D900802970000FA07F2B9402F48FFF7B3FF83
S1132DA005FA07F204FA07F12C482D4FFFF7ABFFA1
S1132DB0079C069D2B4842463146FFF79DFF2A4655
S1132DC031463846FFF798FF224631460120B0408D
S1132DD03861BDE8F04124488EE7F8B5054617464A
S1132DE038000E461C4607D0002C284602D0FFF7B8
S1132DF09FFF01E0FFF796FF2A4630201249424325
S1132E0088180F22082E05D2B300416800F015F887
S1132E10416006E0A6F108039B00816800F00DF80C
S1132E2081604FB9002C3146284602D0BDE8F440F9
S1132E307EE7BDE8F44075E7F1BD9A4021EA02025D
S1132E4007FA03F11143704700A0004044A4004076
S1132E5000A4004008A4004004A400400CA40040C6
S1132E6014A4004010A4004028A4004010B5DFF8CA
S1132E707041DFF87011E16103202061606110226C
S1132E80DFF86401A06122620021A162E162206690
S1132E900022DFF85801626210216066A166226791
S1132EA0E26630A16267E31D0868DFF84411186028
S1132EB007222046FFF766FA2023A37110BDC1192B
S1132EC022464046FFF75EBA2DE9F84300F031F898
S1132ED008B9FFF7CBFF18204443281900F1600616
S1132EE000243769F568BD420BD2B4687068E41BEE
S1132EF04C4588BF4C46FFF7E2FF00F013F808BFCB
S1132F000027ED1B4D4588BF4D4635B17068C1198A
S1132F102A46FFF7D6FF2C19EF1904B13761204672
S1132F20BDE8F283B168E7198F42A044A9EB040914
S1132F307047DFF8AC5004462878884691467047BD
S1132F40F8B500F00AF800F00FF8FFF7BDFF0446EB
S1132F50384604F089FD2046F2BD04460D46164667
S1132F6004F085BD52545400074632462946204693
S1132F7070472DE9F84300F02AF808B9FFF776FF07
S1132F8004F075FD726901460027182306F1640CEC
S1132F9003FB07FE5CF80E0010B17F1C9742F7DBC1
S1132FA097420BDA7B43F018002204664566C0F8AA
S1132FB068800267C266C0F8749001E04FF0FF3782
S1132FC0FFE7084604F050FD3846BDE8F283044E9E
S1132FD0044630780D4690469946704746E700000F
S1132FE000E80020A0F10020B0240300B0F100208C
S1132FF0BC2403007FB500F011F818B900F015F8EF
S113300004F06DFD04B070BD7FB500F007F818B989
S113301000F00BF804F07BFD04B070BD04460846D4
S113302015461E4602A904F06FBE9DF82010BDF897
S1133030240000910190334602992A4620467047A5
S113304080B500F00DF880B202BD80B500F008F83C
S1133050FA21B0FBF1F080B202BD000000BF000015
S1133060E0B504F036FE6A4604F085FE18B14C2142
S11330702BA0FFF739F8DDE9000103B000BD000023
S113308080B504F0F3FF01211748FFF75FFA04F05D
S1133090F5FC20B15FF0570121A0FFF725F80020CF
S11330A002BD1249012008707047FEB50446002590
S11330B0216801B91EE000F00CF808B100F002F834
S11330C001201BE001950095002321683A46301D3C
S11330D090E7064E064F35700023009301953A465B
S11330E0301D91E70000000030253E00A0F20020D2
S11330F0A330000005F03CF80020FEBD05F017F9F0
S1133100307840B92146301D04F074FD206804F085
S113311012FE852501E00020307020602846FEBDA7
S113312073797374656D2D74696D65722E63000017
S11331300A0A42EA01225040C0F30311484080EADF
S1133140003041010206C9B2D20E41EA02214840D0
S113315080B270474901020003D4DFF8B0048154FF
S11331607047DFF8AC3402F00F021A4402F8041C72
S1133170704730B500F007000123C0F10704042CA8
S11331802EBF072403FA04F4641EC51C072D34BFA4
S11331900020001F2140814003FA00F0401E10402F
S11331A0084330BD002070470020704770471CB5AD
S11331B072B603F005FEDFF85C04DFF85C44416995
S11331C0216000F0E1F901466FF00B00FFF7C2FF48
S11331D000F0DAF901466FF00A00FFF7BBFF00F0D8
S11331E0D3F901466FF00900FFF7B4FF00F0C4F90A
S11331F001466FF00800FFF7ADFF00F0BDF901468E
S11332006FF00700FFF7A6FF00F0B6F901466FF074
S11332100600FFF79FFF00F0AFF901466FF00500CD
S1133220FFF798FF0022022100F0A8F901466FF091
S11332300400FFF78FFF00F0ABF901466FF00300C5
S1133240FFF788FF00F098F901466FF00200FFF7DE
S113325081FF0022072100F091F901466FF001007F
S1133260FFF778FF00F094F901464FF0FF30FFF7C5
S113327071FF00F08DF901460020FFF76BFF00227B
S1133280032100F07BF901460120FFF763FF00F002
S113329077F901460220FFF75DFF00F071F901465E
S11332A00320FFF757FF00F073F901460420FFF7EE
S11332B051FF00F06DF901460520FFF74BFF00F0C8
S11332C067F901460620FFF745FF00F061F9014662
S11332D00720FFF73FFF00F05BF901460820FFF7E6
S11332E039FF00F055F901460920FFF733FF00F0DC
S11332F04FF901460A20FFF72DFF00F049F9014676
S11333000B20FFF727FF00F043F901460C20FFF7DD
S113331021FF00F03DF901460D20FFF71BFF00F0EF
S113332037F901460E20FFF715FF00F031F9014689
S11333300F20FFF70FFF00F02BF901461020FFF7D5
S113334009FF00F025F901461120FFF703FF00F003
S11333501FF901461220FFF7FDFE00F019F901469E
S11333601320FFF7F7FE00F013F901461420FFF7CE
S1133370F1FE00F00DF901461520FFF7EBFE00F019
S113338007F901461620FFF7E5FE00F001F90146B2
S11333901720FFF7DFFE00F0FBF801461820FFF7C7
S11333A0D9FE00F0F5F801461920FFF7D3FE00F02E
S11333B0EFF801461A20FFF7CDFE00F0E9F80146C8
S11333C01B20FFF7C7FE00F0E3F801461C20FFF7BF
S11333D0C1FE00F0DDF801461D20FFF7BBFE00F042
S11333E0D7F801461E20FFF7B5FE00F0D1F80146DC
S11333F01F20FFF7AFFE00F0CBF801462020FFF7B7
S1133400A9FE00F0C5F801462120FFF7A3FE00F055
S1133410BFF801462220FFF79DFE00F0B1F80146F7
S11334202320FFF797FE00F0B3F801462420FFF7AE
S113343091FE00F0ADF801462520FFF78BFE00F069
S1133440A7F801462620FFF785FE00F0A1F8014603
S11334502720FFF77FFE00F09BF801462820FFF7A6
S113346079FE00F095F801462920FFF773FE00F07D
S11334708FF801462A20FFF76DFE00F089F8014617
S11334802B20FFF767FE00F083F801462C20FFF79E
S113349061FE00F07DF801462D20FFF75BFE00F091
S11334A06BF801462E20FFF755FE61684FF6FF00CA
S11334B0014041F0BF6141F4013161604FF4E0210A
S11334C0E06840F40070E060E06840F01000E06004
S11334D0E16104F05CFF04F0F1FFEFF30880001FEA
S11334E04E494FF0CD3201E040F804298842FBD226
S11334F04B494C4889B205F033F862B64A48012179
S11335004164026842F480720260684605F02CF857
S11335109DF80100012803DC9DF80000032809DB65
S11335204248434A434B4FF418710160426043667A
S11335304149C1664148424A016841F4F841016089
S11335400120106005F02AF805F03BF906216846D1
S113355005F0B8F901208DF80300684603F074FF04
S113356004F00AFEFFF78CFD04F022FE05F0EAFAEF
S1133570344805F029FB13BDFF22FF210420F8E5A0
S1133580002201210420F4E5002200210420F0E5BA
S1133590002204210420ECE540F2016003F0E2BBC8
S11335A005F034BB80B500210B2005F027FBBDE8F6
S11335B0014005F02CBB002818BFFEF736BDFEF70E
S11335C035BD032005F09DBB10B504F0B8FF0446DB
S11335D004F0B9FFC0B220B9012C0BD144F0800033
S11335E010BD072CFAD8DFE804F005040709090B1D
S11335F00D0FF3E7002010BD092010BD022010BDFF
S1133600032010BD0B2010BD062010BD00E400E017
S113361018ED00E00000000008ED00E070D8002084
S113362088140000A000002000000E408C420E40D0
S11336309A6F05001801000400843208A4310E407A
S113364010300E406826030010B5DFF84008DFF89C
S113365038180068DFF83828C860136848615B08C8
S113366000EB43040C6118B100F016F8652806D28B
S1133670BDE81040B0210FF63C00FEF735BD10BD8B
S113368010B5DFF804486069E268904202D2C021B4
S113369000F09BFA60690CE010B5DFF8EC47206994
S11336A06269904202D2C62100F08FFA20696269F1
S11336B000E0E268801A4FF6FE71084010BDDFF8A2
S11336C0C817CA68904203D34969884200F055BBC1
S11336D00020704780B510B1FFF7F1FF00B1012061
S11336E002BD30B1DFF8A027D168401A4010401C59
S11336F080B27047010001D100207047DFF88817BD
S1133700CA6802EB4000801E70474088C0F30C007A
S1133710C01C80084000001D80B2704710B50446EC
S1133720FFF7F3FFDFF860174A6904EB40004FF638
S1133730FF7400E0801C904202D20388A342F9D0B7
S113374010BD2DE9F843DFF840478046E08898B380
S1133750B8F8020001042FD4DFF838770FF248716B
S113376038680FF2507905F017FB20B940F28D113B
S11337704846FEF7B9FC002504E005F00DFB88B1CE
S11337806D1CADB2E088854204DB40F28F114846DF
S1133790FEF7AAFCA069396800EBC506306800286A
S11337A0EBD13160B088401CB0804046FFF7ADFFDC
S11337B0F18801EB4000F080BDE8F18370B5044668
S11337C0DFF8C406007801281AD12088FFF792FF99
S11337D0050027D002262C462046FFF7B2FF60885A
S11337E040F40040608034F81600FFF783FF0400C3
S11337F002D060880104EFD5761C042E12D2EAE7C9
S113380002280FD104F033F905462088FFF772FF30
S113381018B10088C0F30E0020802846BDE870402F
S113382004F022B970BDDFF860160A78022A08BFD6
S1133830FFF7C4BF704738B504460D46FFF765FF70
S11338406188C1F30D0161804004020C21462846C1
S1133850BDE83840FDF794BF10B50C4601E0FFF712
S11338605DFFA04202D241880A04F8D510BD2DE9BB
S1133870F14FDFF814560020A88092B004F0F7F856
S11338806A88ADF800200121297000216A696980E5
S1133890019204F0E9F8E988A869C90005F012F872
S11338A06846FFF78BFF129848B1002401E0804777
S11338B0641C1298E1B250F821000028F7D1EF6897
S11338C000244FF001080DF1080906E00BF1010B8B
S11338D05FFA8BF004281CD33446019EB74200D310
S11338E08CB324B1641EE4B259F824A003E000F0C0
S11338F0D5FABA460746BAF8020000F44041B1F5D9
S1133900004FEAD140F48040AAF802004FF0020BC5
S113391026465FFA8BF03AF81000FFF7EBFE04003E
S1133920D4D060880104D1D440F4004060802046A3
S1133930FFF707FF102EBDBF49F82640761CF6B2EC
S11339404FF00008C2E7B8F1000FB8D0EF68BB46EB
S1133950B84615E03846FFF7D8FE044678880104D7
S11339600BD55846FFF7BDFE398801F400410843E2
S113397038800BEB440B07EB440800F08FFA074642
S1133980B742E7D3022028706846FFF717FF129862
S113399048B10026044601E08047761CF0B254F892
S11339A020000028F8D1EC68274613E04FF0020904
S11339B037F81900FFF79EFE20B10088C0F30E000F
S11339C027F8190009F10109B9F1040FF0D300F047
S11339D065FA07464745E9D30AE00446FFF79EFE29
S11339E04146FFF739FFB842F7D3B7422ED15446C8
S11339F044454AD22046FFF791FE002C8246F6D079
S1133A0060880104F3D500F05AF8A04204D160881C
S1133A10C0F30D006080EAE704D201462046FFF7B8
S1133A200AFFE4E7264607E05046FFF777FE4146E3
S1133A30FFF712FF54468246C24507D2BAF8000087
S1133A40C0F30E00FFF756FE8245EDD334B100F00B
S1133A5036F801001CBF2046FFF7EDFE274630462E
S1133A60C1E72046FFF751FE06465846FFF739FEE8
S1133A700746720021465846FDF782FE0022394669
S1133A80684605F0B1F90BEB460B03F0F0FF064670
S1133A900021A81C05F0FEF9FFF72CFE040006D156
S1133AA0BDF8000068800021C5F814B029703046C4
S1133AB003F0DAFF002CD4D113B0BDE8F08F2088D6
S1133AC0C0F30E0016E680B5FFF714FEBDE8024011
S1133AD000E610B5040012D0FFF7F5FF18B940F264
S1133AE07A4100F072F82046FFF704FE38B10188ED
S1133AF00A0402D5D0F80A0010BD083010BD002019
S1133B0010BD10B5010013D0FFF7F4FD0446FFF714
S1133B10E1FD18B940F2944100F057F844B120880F
S1133B20010401D5208910BD6088C0F30C0010BDCC
S1133B30002010BD2DE9F04100F044F804003FD00E
S1133B40FFF7C8FD0FF26C3718B940F2A74100F037
S1133B5078F82846FFF7D5FF80462046FFF7DEFDBC
S1133B60464505462CD003DB40F2AF4100F069F82E
S1133B702088010448BF268122D466802046FFF7AE
S1133B80C4FD04EB400403F072FFDFF8FC124A6941
S1133B902E1BB6B2954204BF4C61002603F064FFAD
S1133BA0082E06D231462046BDE8F041FF2205F03A
S1133BB0C7B90821204604F0D3FCA6F108006080B0
S1133BC0BDE8F08105460E4694E50FF2E820FEF7C5
S1133BD08BBA38B50D46FFF78DFD04000AD0FFF708
S1133BE079FD18B940F2EC41FFF7EFFF04EB450013
S1133BF0808832BD002032BDF8B50D461646FFF769
S1133C0079FD04000FF2AC2714D0FFF763FD18B957
S1133C1040F2F74100F015F83046FFF76BFDFFF76F
S1133C2059FD18B94FF49F6100F00BF804EB4500FF
S1133C308680F1BD3846BDE8F44040F2FB41FEF712
S1133C4053BA3846FEF750BA2DE9F84F8846C11CDE
S1133C508908DFF8345249000027091D2E690FF244
S1133C60542AB0F5005F04461FFA81F904D340F2E8
S1133C7027515046FEF738FA03F0F9FE8346696986
S1133C80E86908B9711A03E05FEA080202D0411A30
S1133C904E1009E0301A4010064680B220B940F2B6
S1133CA04D515046FEF720FAB6B24E4514DB6F690B
S1133CB007EB49006861E86928B1B8F1000F04BF57
S1133CC000EB4900E86100207C80B880F8803880EF
S1133CD00834298964182C81584603F0C5FE3846F7
S1133CE0BDE8F24FFDE4F8B504460D461646002142
S1133CF00A20FFF7A9FF0746FFF7FCFC48B106813D
S1133D00C0F80A40018841F400410180C0F80E5017
S1133D103846F2BD70B504460D4611462846FFF7F5
S1133D2093FF06463CB1300005D0FFF7D2FE2A4689
S1133D302146FDF725FD304670BD38B5044603F035
S1133D4096FE054600222146534805F04DF82846C4
S1133D50BDE8324003F088BE38B503F088FE04465F
S1133D6000214D4805F096F80546204603F07CFEF8
S1133D70284632BD44484188481E8041C00F7047E0
S1133D802DE9FE4F04468846208816469B46FFF7D9
S1133D90B1FC0746FFF79EFC18B940F29161FFF7AA
S1133DA014FF38880104354603D538892D183D8120
S1133DB067E000F077F8019000F070F8814603F0B6
S1133DC056FE00968246304E706981451DD1FFF73C
S1133DD063FCA84203D2504603F046FE21E001985A
S1133DE02D18BBF1000F7D8008D02088FFF771FEED
S1133DF0019B009A41461844FEF7C4FA00F04EF8BD
S1133E007061504603F030FE3BE0504603F02CFE58
S1133E1000F048F82D180021A8B2FFF715FF07009D
S1133E2001D11A202EE000F03DF805462088FFF766
S1133E3050FE06463846FFF74CFE2A463146FEF74A
S1133E40A1FABBF1000F384609D0FFF742FE00F09B
S1133E5028F8009A41462844FEF794FA07E0FFF751
S1133E6038FE00F01EF80099284404F079FB2088FD
S1133E700121FFF7AEFE024601213846FFF7BCFEE2
S1133E8027800020BDE8FE8F80F200202CE3002074
S1133E9030E3002070E5002082F200203846FFF76E
S1133EA03DBC054620882CE6756E636C61696D65C2
S1133EB0640000006275666665722D6D616E6167EF
S1133EC0656D656E742E630038B504460D46208812
S1133ED0FFF717FE29468842208803D3FFF72AFEFE
S1133EE0002032BDFFF70DFE2D1AEAB2204601B0C4
S1133EF0BDE8304000230021FFF742BF2DE9F04127
S1133F000546884617461E464046FFF7E2FDC4199B
S1133F10300018BF002C1CD04046FFF7F2FDB91941
S1133F20884202DA1D2100F039F80698010003D115
S1133F3032462146284604E00128324629462046D6
S1133F4003D1BDE8F041FDF71BBCBDE8F041FEF72D
S1133F5019BABDE8F08138B504460D46FFF7D1FD26
S1133F60854202D32A2100F019F82046FFF7B1FD5B
S1133F70284432BD70B505460E46FFF7AAFD04007D
S1133F8009D02846FFF7BDFD864202D3322100F056
S1133F9005F8A05D70BD002070BD000089A0FEF78B
S1133FA0A3B870B504460D461646FFF7AAFD854230
S1133FB002D33C21FFF7F2FF2046FFF78AFD00B150
S1133FC0465570BD38B50446FFF79BFD05462046AF
S1133FD0FFF77FFD2946BDE838400022FFF79ABE6F
S1133FE0F8B50546069C0E461F461046FFF771FDC0
S1133FF007442846FFF76DFD224639463044BDE8A4
S1134000F840FDF7BDBB70B500F02BF800F003F8E5
S1134010301880B270BD060229462046AAE7E0B5F2
S11340208DF804200123120A8DF8052000930A4616
S11340300146022301A8FFF761FF07BDF8B500F0B0
S113404010F8FFF7E8FF8619E91CC9B2FFF7E5FF8E
S11340500702AD1CE9B2FFF7E0FFC01906EB004010
S1134060F2BD0D46691C0446C9B283E70EB430B5EF
S11340700446002180B2FFF7E7FD0546FFF729FD5E
S1134080290008BF00200BD003A9002204E051F846
S1134090043B00F8013B521CD3B2A342F7D3284699
S11340A030BC5DF810FBF8B505460E4617460021F6
S11340B02020FFF7C9FDADF80000FFF70AFD044614
S11340C0BDF8000060B13B4632462021601900F083
S11340D020F82D18E9B26846FFF7F6FEBDF8000097
S11340E0F2BD1CB504AC009400F001F816BD10B587
S11340F014461A46029B2044091BBDE81040C9B26D
S113410007E00CB480B502AAFFF7CDFF02BC5DF84E
S11341100CFB2DE9F0470446884691469A4625460D
S113412000260AE03A462846ED19FDF729FB7F1ED2
S1134130BE19761CF6B209F1010946453CDA99F834
S11341400000002838D0312818BF32280ED15AF880
S1134150041B05F8011B3228EBD1761CF6B2B045DE
S1134160A4BF091205F8011BE3DA25E034280ED1B7
S1134170311D5AF8040B88451EDB2870020A6A7048
S1134180010CA970000EE8702D1DF61CD1E7A0F1FA
S113419033025AF8041B072A38BFA0F1300707D3AB
S11341A0A0F14102072A34BFA0F137075AF8047B73
S11341B0FFB2B8194045B5DB2C1BE0B2BDE8F0876F
S11341C0000000006C65676163792D7061636B6545
S11341D0742D6275666665722E63000000F101033A
S11341E010F8011B11B110F8011BFBE7C01A70474E
S11341F0010008D4012200F01F01DFF8A4378A402F
S1134200400943F82020704701000CD4012200F03B
S11342101F01DFF890378A40400943F82020BFF39C
S11342204F8FBFF36F8F7047010008D4012200F055
S11342301F01DFF874378A40400943F82020704793
S1134240C26C1143C1647047012803D9103801D0EE
S1134250103801D1012070470020704710B5DFF8F5
S11342604C4730B1012807D0102802D0202803D0B1
S113427004E00020204410BD1C20FBE740F2831121
S1134280DFF83C08FDF730FF204610BD42689388F4
S11342904089411A8B4201DA01207047002070479F
S11342A07FB50446FFF7D0FF00283BD0204600F03E
S11342B077F890B300F0D2FA054603F0D8FB06462F
S11342C0A86901AB6A4602A905F0CEFF00992A89C4
S11342D0286889B200F027F8304603F0C5FBA869C6
S11342E006F039F8012818D12A68298990882A8A81
S11342F0091A914211DBA86990F83110022903D1FF
S113430005F0B0FF022804DAA86990F831100129F9
S113431003D1A869002105F0F7FF200014BF102C79
S1134320FDF723FB7FBD70B504460E46154603F02A
S11343309EFBE288B2420CD221888B1A991991FB18
S1134340F5FC05FB1C152580A388F3189A1AA28096
S1134350E68000F0EABBF8B504460D46164600F0C8
S11343601FF8B0B100F07AFA0446207B10B10121A5
S11343706173F1BD607B18B12046BDE8F240BAE03C
S11343800FF2D91700F006F818B100F003F800286E
S1134390FBD1F1BDA0693B463246294606F0A0B8E0
S11343A0012818BF202801D1012070470020704740
S11343B070B506460D46FFF751FF012E18BF202E9B
S11343C0044643D1A069016890F83200E0B90422A0
S11343D08A6400F057F9A06900683DB10421FFF731
S11343E02FFF0C20FFF704FF052107E0C16C21F02B
S11343F00401C1640C20FFF707FF0021A0690068D5
S1134400BDE8704006F028B90420486300F03AF98A
S1134410002DA0690BD001688A6B42F004028A6304
S11344204FF48051DFF878251160052109E0006818
S1134430816B21F0040181630C20FFF7E5FEA06984
S113444000210068BDE8704006F0B4B970BDF8B54D
S11344500446DFF8700681421D462AD00026F2B2D7
S11344601C20DFF8481542438F18BB69A3421CD1B6
S11344703A893868A9B2FFF756FF38680021C1802D
S113448002E0384600F016F8204605F0EBFE02285C
S11344900BDC3889F9893A68A0EB4100918888429D
S11344A0EFDA0121204605F02FFF761CF0B2022836
S11344B0D5DBF1BD70B50446DFF80C36E089668AB9
S11344C02568024670432E18A06906F1080105F01C
S11344D0C3FFA06905F0C6FE012803DDA069002121
S11344E005F012FF608AA18A401C90FBF1F201FBE7
S11344F01200608270BDFEB50446207B68BB606814
S11345000FF259064188084400F10807A0696B4678
S113451001AA02A905F0C7FE61688A880098019D76
S1134520121A551B4A88088890420ED26189A069E4
S11345308A1A3346394605F0D3FF70B96268618937
S113454050886D1A451902F10807A0693346EAB28A
S1134550394605F0C5FF00B96073F7BD2DE9F04198
S1134560054698460027F9B21C22DFF8400451435F
S11345704418A369AB4218D160688188414534BFAF
S11345808688464603F073FA61684A8812FA86F10F
S1134590628991FBF2F302FB131162685180616836
S11345A08A88961B8E8003F05FFA7F1CF8B202287B
S11345B0D9DBBDE8F08138B52020FFF74FFE054672
S11345C0DFF80805A96991F83120012A3FD1016972
S11345D00A0640D506F0B6F8112809D1A8690021C9
S11345E005F09FFE002028732846BDE8324082E78C
S11345F0132806D1A869012105F093FE0120287330
S113460031BD29682A898C88141BA4B25CB101F1DC
S11346100802098850542868018800F095F901803F
S11346208188491C8180A86905F095FE20B9E88934
S1134630A04210DB012105E001280CD1288A844224
S113464009DB0021A869BDE8344005F05DBEC16CFA
S113465021F00401C16431BD10B5DFF8704428B9FC
S11346602046BDE81040002105F0F6BF00F00AF82E
S1134670DFF82C134FF480500860E26C42F004021F
S1134680E26410BD0C20CFE580B530B9BDE804402C
S11346900521DFF8380405F0DFBFFFF7F3FFBDE8BD
S11346A002400C20B0E5F8B50C461546FFF7D6FDE0
S11346B00646306881883289E8B2121A914201DBD9
S11346C00120F2BD00270EE003F0D1F9316814F89F
S11346D0012B01F1080309885A547F1C31680A88A8
S11346E0338900F051F9AF42EED30020F2BD10B58A
S11346F0012818BF20281CD1FFF7B0FD0446A0698B
S113470005F088FD800414D56168888888B9A0699B
S113471005F0C5FD002802BFA06990F832100029F9
S113472007D105F077FD00F44030401E8041C00FF2
S113473010BD002010BDF8B5012804460D4603D96C
S1134740103801D0103850D1204600F0F5F910B9D6
S1134750204600F085F800F081F8064600F07EF867
S113476021000FD0012C03D0102C0BD0202C3CD1D5
S1134770DFF85C13DFF85C2301608023426003816F
S1134780438109E0DFF85023DFF8501302604160F1
S11347904023802103814181200018BF102C03D1C4
S11347A0BDE8F140FCF7FCBF012C18BF202C53D10D
S11347B0012C16BF202CDFF828030020012C18BF81
S11347C0202CB06111D1DFF81C13DFF81C03E96160
S11347D0A861A98CF181EB8C33828B4207D21C2116
S11347E0304604F06FF80220F2BD0120F2BDB26938
S11347F092F8310001280CD0308990FBF1F701FBCD
S11348001700002802BF93FBF1F001FB10310029CF
S1134810E5D12946104604F073FFF0B9B069017F71
S1134820007E01230222FEF7D8FA287C012808D151
S113483001212046FFF7BCFDB069002105F064FDAD
S11348400AE0002070823189F08991FBF0F0B08297
S113485000F06FF900F06DF90020F2BD2046FDE490
S113486058B50128044603D9103801D0103812D1A4
S1134870204600F061F9E8B9204600F037F9FFF767
S1134880EDFF012C18BF202C06460FD1B06905F0AE
S1134890C2FB10B152BD012052BDB06990F8311075
S11348A0012903D100212046FFF782FD1C21304657
S11348B004F008F8002052BDF8B5074601280E465A
S11348C03C4603D9103801D010380BD13846FFF7D5
S11348D0C5FC05463846FFF7E3FC2968888818B903
S11348E02620F2BD0120F2BD03F0C1F80746286876
S11348F000F1080140880A5C32702868418800F0A1
S113490023F8418081884A1E012C18BF202C828004
S113491015D1A86990F83110012903D10FE0284678
S1134920FFF7C8FDA86905F09DFC022807DA28896D
S1134930E9892A68A0EB410091888842EFDA384679
S113494003F092F80020F2BD2A89491C91FBF2F38E
S113495002FB1311704780B5FFF780FC01464A68DB
S113496048899188401A80B202BD02B5012804D951
S1134970B0F1100101D0103904D10122694600F0D0
S113498017F802BD012002BD521C92FBF3FC03FB8D
S11349901C220A808A88521C8A8003F065B80000B1
S11349A000E100E080E100E080E200E058ED00205A
S11349B02DE9F84F0128804604D9B0F1100301D045
S11349C0103B10D1002818BF1028894692460CD0FD
S11349D0FFF744FC0646002470680188084400F18F
S11349E0080B00252FE0012045E051464846FDF71D
S11349F03EF93FE003F03BF871680B8819F8012B8E
S1134A0019440A7271680A887389521C92FBF3FC78
S1134A1003FB1C220A808A88521C8A8009884F1E44
S1134A20BF4103F021F8FF0F67B1EFB27F1C3F1BBA
S1134A30FAB259464046FFF78EFC70683C19E4B25E
S1134A4000F1080B6D1CE8B250450AD20021304633
S1134A50FFF71CFC0028CDD1307B0028F6D02220A3
S1134A6009E0544506DAAAEB040082B259464046EE
S1134A70FFF771FC0020BDE8F28FF8B5012401288E
S1134A8007460E46154603D9103801D0103815D103
S1134A90380018BF102F04D129463046FDF7E7F837
S1134AA000243846FFF7DAFB012F18BF202F05D169
S1134AB080692A46314605F050FC04462046F2BD82
S1134AC0A01E0300097000F04F44000000000140E4
S1134AD048EC0020D0EC002078EB0020C0EB002054
S1134AE03CE90020ACE200202CE2002070B5054631
S1134AF0FFF7B4FB0646012D346818BF202D0DD1F5
S1134B00B06990F83110012908D0022105F0F2FAB9
S1134B100020708200F00DF800F00BF802F0A7FFFF
S1134B200021A18021806180E180BDE8704002F015
S1134B309BBF3046FFF7BEBC80B5012804D9B0F155
S1134B40100101D0103906D1FFF788FB00281CBFE3
S1134B500068002801D1012002BD002002BDFEE74B
S1134B6020B500210FF2F822CBB2D35C834205D0EA
S1134B70491CCDB2082DF7D3002020BD012020BD53
S1134B8020B500210FF2E022CBB2D35C834205D0E2
S1134B90491CCDB2082DF7D3002020BD012020BD33
S1134BA08B4A8C49137848204343C818B0F8E20074
S1134BB07047874A8749137848204343C818E4302C
S1134BC070478548824A0168137838204343C818DF
S1134BD0416B087E704780487D4A0168137838200D
S1134BE04343C818C078704710B57B49784B0A68AE
S1134BF01C7838214C431119C87010BD2DE9F041BF
S1134C00734D754E2A783168382462430A44074646
S1134C109770724805F06CFE8046022F70481ED1D2
S1134C2031682B784A1C6343D75C042F18BF05F006
S1134C3079FE30682A78411C6243885C03281EBFD1
S1134C400428404605F06EFE2978306814FB01F410
S1134C5001194A68D00054BF9024BC2415E00021F7
S1134C60017088F8001005F0C9FF31682A78481CE3
S1134C7014FB02F4005D032818BF042802D106F0D7
S1134C80B7F801E006F06FFC9124204606F0D8FC4A
S1134C9050B9234613224DA10320FBF7A6FB20465F
S1134CA0BDE8F04101F02EBCBDE8F0814A48484A15
S1134CB00168137838204343C818807800F00F0047
S1134CC070474548424A0168137838204343C8185E
S1134CD0817801F00F01022901D1012070470020E1
S1134CE0704710B592B00446FFF7EBFF20B900F00F
S1134CF03FF818BF932019D101F065FB00F097F835
S1134D00BDF8020020819DF80100A07220469DF8A4
S1134D100010E17208F0E0FE0020207304F1140199
S1134D2004F1100009F01EF8E081002012B010BD5B
S1134D3038B592B004460D46FFF7C3FF20B900F022
S1134D4017F818BF932011D101F03DFB01466A46C4
S1134D50204609F018FB9DF80100287000216970B5
S1134D609DF8000000F01F00A870002013B030BDB3
S1134D701948174A0168137838204343C8188178C2
S1134D800329704710B5002300E05B1CDCB28C42A1
S1134D9005D210F8014B9442F7D0002010BD012039
S1134DA010BD082109F0A8BE0B48094A0168137810
S1134DB038204343C818807801281CBF3128332881
S1134DC001D10120704700207047000042420000DA
S1134DD09FFD002018F800205CE3002000EE002076
S1134DE004F5002070B5044692B02146002000F07E
S1134DF0CAFA0546C0B268B901F0E5FA06466A4641
S1134E00314600F016F88DF801406A46314600201C
S1134E1009F0DFF9E8B212B070BD80B592B001F0CC
S1134E20D2FA00F004F89DF9010013B000BD014668
S1134E306A46002009F0A7BA80B592B001F0C3FA1F
S1134E40FFF7F5FF9DF8000013B000BD0120704787
S1134E5080B5FFF7F1FF400918BF012002BD000033
S1134E600001020304051D200203040508090A0BBE
S1134E7038B50D46AA88A9680446FDF783FAE9689F
S1134E8041B1A8886A88121A2044BDE8384092B219
S1134E90FDF778BA31BD38B5044603F0AFFE0546D8
S1134EA0DFF8C00783780178994212D0DFF8B80799
S1134EB0006B641E07D0641E08D0A41E06D0A41E76
S1134EC0032C03D905E00022194600E0002209F072
S1134ED03EFE284632BD2DE9DC4FDFF88C4703EA5D
S1134EE0010BD4E90A6727EA010926EA000802EA65
S1134EF0000A49EA0B0948EA0A08B94508BFB0455F
S1134F000ED0CDE90023C4E90A890246206B0B4682
S1134F100AF048F920B1BDE8DC4F40F2751100E217
S1134F20BDE8D38F78B58DB002A8DFF84017DFF85D
S1134F3038472C22FDF726FA208CC10700F18C801B
S1134F400121012000F0BFFF0A204FF42871607393
S1134F50ADF80E10DFF818070FF2F561DFF81457FB
S1134F6009F0D7FD206318B940F2B91100F076F8C2
S1134F70206B052109F03AFF18B140F2C11100F08D
S1134F806DF8206B03F061FBDFF8EC060168206B21
S1134F900AF07FF900F049FA0C267043089000F0FB
S1134FA044FA4643206B069602A90AF099F918B10F
S1134FB04FF4EB7100F052F8206BDFF8C0160022BA
S1134FC00AF01CFA18B14FF4ED7100F047F8032011
S1134FD0052120706170A170002601F088F8E0704E
S1134FE000F023FA142110FB01F0A08000F01DFA58
S1134FF0C000E080A6604FF0FF30DFF8842640F266
S113500042330146FFF767FF206BDFF878160AF09A
S113501046FA206B01A90AF0C5FA18B140F205213D
S113502000F01CF8206B0422694609F09EFD042858
S113503003D040F2092100F011F8694601200AF07A
S1135040D2FA0AF09FFC012000F0F6FF03F0D4FD31
S113505001F0C6F800F01EFE0EB070BD2846FDF744
S113506043B838B5DFF80046208C820703D54FF4E7
S1135070097100F0C3FA0021217602F0F8FC05461C
S1135080208C410709D50AF0A5FCA16B401A40F217
S1135090C532904201D300F069FA01F025F8607B33
S11350A0042820D102F0E3FC0546208C41072BD4D0
S11350B001F01AF802F0DBFC0546606B401C0AF0B4
S11350C0F6FC00F020000128ACBF06200520607328
S11350D0012100F050FA01F02CF801F005F8606BA2
S11350E0C178617431BD062830D1DFF87805C17903
S11350F0FF2937D10AF0F0FC207C20B302F0B7FC82
S11351000546208C410706D504F1180005F00AFC79
S1135110284600F0E6BE00F0E7FF207C411E217423
S113512002F0A5FC0446012100F025FA01F001F883
S1135130204602F099FCBDE8384000224FF6FF718A
S1135140042001F0E1B96073402007E0012809D18F
S113515000206073206B09F002FD3F20BDE832405F
S113516000F091BE31BD70B5DFF8FC44607B0E46A3
S1135170154618B140F29A2100F040FA29006663FE
S113518003D0A17811B1012100E00021202000F01A
S11351909AFEDFF87C0A01782174002D14BFE07BAD
S11351A00020A0730420607304F1180005F0BAFB1A
S11351B000F01FFABDE87040DFF8D40A007805F06B
S11351C0B0BC2DE9F04102F052FCDFF89C5480465B
S11351D0288CC10506D5687B10B900F05BFD01E0A1
S11351E000F08AF800210020FFF755FEDFF8746410
S11351F0B079FF27FF2818D0B07928B9B7710024F7
S1135200687B052811D105E0B079B77101280CBF7E
S11352104C24332400206873404602F025FC2046C9
S113522000F031FE02F023FC8046687B062833D16F
S1135230F079FF2830D0F079022804D105F1180064
S113524005F070FB28E0F07900281CBFF0790128F4
S113525026D100F054FE0446F079012818BF00203E
S11352600021002C297618BF0028F77109D00120ED
S11352706873642105F1180005F05FFB00F0DFFCA2
S11352800BE06973404602F0EFFB002C14BF3F2093
S1135290002000F0F8FD03E0F771404602F0E4FB63
S11352A0288C0006C00F05D00021802000F00BFEE2
S11352B0FCF716FFFEF750FD00246884D0B1687B2C
S11352C0012806D10021002029766873012409F001
S11352D0CEF9687B08B900F0DDFC698C002009F088
S11352E0FEF9002068842CB1687B18B9BDE8F04150
S11352F009F0F0B9BDE8F08100214FF4807000F0AE
S1135300E2BD80B5FEF736FD7AE080B500F019F80D
S11353100AF065F820B1BDE804404FF4697100E07B
S113532001BDDFF85003FCF7DFBE80B500F009F8DB
S11353300AF046F820B1BDE8044040F2AB31F0E792
S113534001BD10460A46DFF8CC380146186B704799
S1135350C548417B481E8041C00F7047DFF8B40840
S1135360417B012901D1012070470020704780B59D
S1135370BD49487B18B140F2CB3100F03FF900F051
S113538089FC002002BD80B5DFF88838186B0A223A
S113539011FB02F109F043FF00B1212002BD80B5E9
S11353A0DFF87018086B09F05DFF0A2190FBF1F03B
S11353B040B202BDAB480079704738B5AA4D687B4E
S11353C0002818BF01280C4603D04FF47B7100F06D
S11353D015F92146002000F00EF808B9212032BD4D
S11353E0A0490C71687B10B900F054FC01E000F096
S11353F026FC002032BD80B59B48006B09F05DFDA2
S1135400401E8041C00F02BDDFF80818C870704705
S113541080B5DFF80028106B012109F060FC411011
S113542000EB91708005001602BD80B58E49086BB3
S113543009F0F9FC00281FBFDFF8441CB1FBF0F0B1
S113544080B2002808BF012002BD80B58649086BE0
S113545009F0EDFC00281FBFDFF8241CB1FBF0F0BD
S113546080B2002808BF012002BD10B50C460121FE
S113547000F020F8FFF7D9FF4443DFF898070FF254
S11354801D23006B0122214609F0D4FB002010BD2E
S113549010B5DFF88047208CC20603D440F259418E
S11354A000F0ACF800F005F8206BBDE8104009F0FE
S11354B0CEBB0021102000F006BD0AF08BBA10B557
S11354C0DFF85047206B0AF05CF8C00704D5206B66
S11354D0BDE810400AF05AB810BD80B5DFF83407B3
S11354E0006B0122012109F036FB00212C20FFF77B
S11354F0D2FC00F093FBFEF753F8BDE80240002015
S113550000F0CEBC38B5584C48B100F02FF8607BA1
S113551001282AD1206BBDE8324009F020BB00F0FD
S11355207BFB10B30020A0734E4DA879FF2803D055
S113553040F2EB4100F062F800F01CF80020A87182
S1135540617B062906D1012100F07EF80021282084
S1135550FFF7A1FC607B052806D100212B20FFF773
S11355609AFC206B09F0FBFA69E031BD00210420AC
S113557000F0A9BC0021022000F0A5BC38B50C46FF
S113558010B1FFF7F3FF29E000F046FB30B3012C24
S1135590354D14D1A87B90B1401EA873C0B218B980
S11355A00021202000F08FFCFFF7E4FF0420687343
S11355B005F1180005F0B6F900F01BF810E0002022
S11355C0A873FFF7D7FF274DA879FF2803D040F22F
S11355D0225100F013F8AC71FCF781FD012C07D1C6
S11355E0BDE8384000224FF6FF71202000F08CBF48
S11355F031BDDFF8200C007805F093BA1D48FCF7A4
S113560073BD38B5184D1B4C6A7B062A03D040F293
S11356105F6100F094FB082000F067FC18B94FF4B8
S1135620CC6100F08CFB297C2A20FFF734FC00F0CD
S11356300AF80C490220C871286B09F090FABDE8F9
S11356403140FCF74CBD0021082000F03CBC0000B8
S1135650DFF8C0150020487301214FF4807000F07A
S113566032BC0000BCE30020A8E800208025030031
S1135670D0E300204062000098E30020E8F7002017
S11356800A0020FF455F000001A0FCF72DBD0000CB
S11356906C69627261696C2E6100000080B5102033
S11356A000F023FC18B940F28161FFF7A7FFFFF770
S11356B000FF002009F0DEF8BDE80140FCF70FBD53
S11356C02DE9F84F144614F0C00F8EB006469A46E2
S11356D005D000F05EFD01460120FFF7DCFBA002CF
S11356E0DFF8349B049656D530460AF048FA002871
S11356F051D100F09EFA04980AA909F0A3FE0028EB
S113570049D19DF830000026022836D1049805A915
S113571009F0C2FEBDF8160006283CD3BDF81800F7
S11357200621ADF81610062824BFADF81810089607
S113573005A96846FFF79CFB9DF805109DF8040039
S113574000EB012299F8051092B2002009F0AAF9A1
S1135750FF2804BF002009F053F90AF065FCD0B912
S1135760BDF828000AF0F5FAFF2802D00AF058FB29
S113577000B101260AF08EFC05E003280BD10AA82B
S11357800AF02DFD064636B1049809F059FE10B909
S1135790012100F04FFAA00305D500F0FAFC014600
S11357A00320FFF778FBE001DFF8686403D50020ED
S11357B0FFF7A8FE38E0707B1AF0020308D0062831
S11357C00CBF012100212620FFF765FB012112E017
S11357D0E10005D506280CBF01210021262007E0A1
S11357E014F0884F0BD006280CBF0121002127207C
S11357F0FFF751FB02210020FFF7C0FE14E01AF06E
S1135800080103D000212320FFF745FB1AF004010F
S113581003D000212420FFF73EFB1AF0010103D03E
S113582000212520FFF737FB21070FF6142B6BD53A
S1135830306B09AA032109F02BFE07004FF0000882
S113584003D140F2425100F0EDF99DF824000728FD
S113585065D1306B05AA394609F025FE18B140F22E
S11358604C5100F0DFF9BDF82610306B891C05AAF5
S113587089B209F01CFE18B140F2565100F0D2F979
S1135880306BCDF80080042303AA394609F029FEC1
S1135890042803D040F25D5100F0C4F90DF10D006D
S11358A00AF005F900F0070002282ED100F071FC7F
S11358B001460920FFF7EFFA707B062802BF9DF826
S11358C00F00717C88421FD19DF81D0018B940F269
S11358D06E5100F0A7F90DF10D000AF0E8F800F0A0
S11358E010000028CCBF0127002739462920FFF7E4
S11358F0D2FAFFF7A8FE89F8077000F000FB002831
S113590002D1306B09F02BF9ECE0BDF82600083029
S1135910012180B2FEF798F9ADF8060030B900F025
S113592038FC01460420FFF7B6FADBE0FEF7D1F8B5
S1135930074609A9FFF79CFA781C0AF0B8F800F0AA
S1135940200000282EDD00F024FC0546306B0AF010
S113595016F9002814BF062005202946FFF79BFAF4
S1135960781C0AF0A4F800F00700032809D10922E2
S1135970012138460AF026FF385C042808BF0125B7
S113598000D000250121FFF7F2FD0AF023F8B063EF
S1135990A5B1402000F0A9FA80B100F04AF94FF017
S11359A001080BE000F0F5FB01460920FFF773FA4C
S11359B0707B012804BF306B09F0D1F8BDF82600D4
S11359C038440090002009F01BF800218DF80410E1
S11359D04FF6FF720546ADF808200121384609F05C
S11359E075FF30B199F8052001AB4FF6FF71002027
S11359F00AE002AA0121384609F098FF30B999F863
S1135A000520BDF8081001AB09F01FF80AF0DEFF0D
S1135A1010B99DF8040038B99DF80400012101FA79
S1135A2005F505438DF80450009999F805000870B0
S1135A300DF1060900999DF81E00887000999DF8E3
S1135A401F00C870FF200099087105980099000C88
S1135A50487100990598000A8871B8F1000F0099FF
S1135A600598C871787814BF40F0200000F0DF007A
S1135A7078700025BDF80600FEF743F83946009F0C
S1135A8080469DF804200123AB401A421FD0C1B9BF
S1135A9001214046FEF7D8F8ADF80A00D0B1FEF770
S1135AA018F80746002000905FFA88F3BDF8061046
S1135AB000223846FEF722FABDF826000DF10A0945
S1135AC007447D70B9F80000FEF737F900216D1C1A
S1135AD0012DD6DDFFF78DFD6D48007805F021F826
S1135AE0FCF7FDFAE00505D500F053FB0146042060
S1135AF0FFF7D1F914F4863F05D000F04AFB0146C4
S1135B000220FFF7C8F9A00108D500F042FB0146C6
S1135B100820FFF7C0F90120FFF7F4FC14F0084F48
S1135B2005D000F036FB00F080F800F085F8A00006
S1135B3007D500F02EFB01460620FFF7ACF900F074
S1135B407BF8A00705D5082000F0CFF908B1FFF7CE
S1135B5058FD1AF040010DD000F060F8082000F064
S1135B60C4F908B1FFF74DFD042000F0BEF908B1F7
S1135B7000F062F81AF080011CBF012000F06EFBF7
S1135B801AF4807139D0049808F0DFFF022802D09B
S1135B90032814D02DE0042000F0A7F928B100F068
S1135BA0F8FA00F042F800F047F800F035F820B3B6
S1135BB0707B06280CBF01210021272012E004205D
S1135BC000F093F928B100F0E4FA00F02EF800F0A8
S1135BD033F800F021F880B1707B06280CBF012156
S1135BE000212620FFF757F901210020FFF7C6FC0A
S1135BF003E040F2177100F015F81AF4007103D0B5
S1135C000121802000F05FF90FB0BDE8F08F0000A3
S1135C10D8E70020A8E80020022066E100210A203D
S1135C20FFF739B95846FCF75FBA01460720FFF77A
S1135C3032B90021402046E1FF2101209EE47FB5D6
S1135C40684600210022002380E80E00DFF8C845E2
S1135C50DFF8C86525788DF8005001F008FF054687
S1135C6060792179884204D1306B08F072FF0128F1
S1135C700AD1217961716A46306B09F023F818B1B1
S1135C8040F2FA71FFF7BAFC00F02EFA7FBD000073
S1135C90A2FD002070B50020FFF75AFB0FF2A054BC
S1135CA018B940F65B0100F04AF801F0E0FE054641
S1135CB0062000F01AF918B10121FFF71EFB3CE0A1
S1135CC0FFF71AFB002008F086FE0228DFF84C6577
S1135CD002D1306B802208E0002008F07CFE10B175
S1135CE001280DD025E0306B002280210BF03DF817
S1135CF0012000F0D5F8FDF755FCFFF7A0FF1CE0EC
S1135D00306B08F02CFF306B08F023FF01280AD019
S1135D10306B0122012108F01EFF00212C20FFF727
S1135D20BAF8FFF77BFFFDF73BFC002000F0B8F862
