S03000006E63702D756172742D68775F65667233326D67317031333366323536676D34385F62726434313530632E7333377A
S1134000C0610020BD1B030039A800009517030000
S1134010A70A0A010041000004180FAC206A0B0132
S1134020000000000000000000000000000000008C
S11340300000000050220300000000000000000007
S11340400000000000000000FFFFFFFFFFFFFFFF74
S1134050FFFFFFFF007003000000000000000000ED
S1134060FFFFFFFFFFFFFFFF100000000000000044
S1134070000000000000000000000000000000003C
S11340800000000000000000087D0020087D0020E2
S1134090C0610020713C0300421C030060580020F2
S10F40A0C4140020000004000000000014
S1134100C0610020BD1B030039A8000095170300FF
S1134110E5B40000991703009D1703000000000098
S11341200000000000000000000000000F44000038
S1134130A1170300EF42000057570000B3890000A5
S1134140E5B60000454C02007962000051470200C8
S1134150834C02004B4C02004D4C0200474C0200C1
S11341600B5F0100756101004BB100000B8400007E
S1134170A9170300A917030083190300A917030053
S1134180A917030083610100A9170300A9170300FD
S1134190A9170300A9170300A9170300A91703000F
S11341A0A9170300A9170300A9170300854C0200EF
S11341B0494C0200873A0100B94C0200A9170300D8
S11341C0E91A0300A917030000420F48816B89B262
S11341D001B1012141F67132826346F21A32036859
S11341E043F001030360C2644FF480734360426987
S11341F0D307FCD40022C264C9B203685B085B0025
S1134200036001B182630020704708000E40000083
S11342102DE9F84F8046DFF87C90FF2224214846A0
S113422000F048F8DFF870B0FF224FF4957158465B
S113423000F040F819481A4F1A4C00904FF0240A25
S11342400026A25D1849BD5D885D521C02EBD27246
S1134250521000B11932154830F816100098D21CCB
S11342606A4300F06EF8012D1CBF2BF816A0AA4477
S1134270761C242EE5DB24234FF480524FF4B061E6
S11342800B4800F05EF849464046BDE8F44F00F0A4
S1134290CCBA00BFE4680020FC690020441C030081
S11342A0441F0300201F0300FC1E0300B41E030070
S11342B0601C030062F30F2262F31F4200B500BFCB
S11342C0130096469446103928BFA0E80C50FAD83B
S11342D05FEA417C28BF0CC048BF40F8042BC907E3
S11342E028BF20F8022B48BF00F8012B00BD7047FF
S11342F03D49087070472DE9F041160088463A4C54
S11343001CD0A078677865683F1AFFB2F1B2B94251
S1134310B8BF0F463A464146281801F00DFAA37873
S1134320FB18F61BA370B844F0B238B1A11C2846A0
S113433001F07FFA0028E4D0012000E00020BDE86D
S1134340F0810EB430B5284D04462878A0B0B0B141
S113435001F05DFA98B180216846697068600221B5
S113436001F05BFAA87023AB224600211F4801F03C
S113437051FB6868A91C01F05CFA00B9A87020B070
S113438030BC5DF810FB1A4800210022002380E8AD
S11343900E007047164931F81020521C21F81020E5
S11343A070470CB480B502AA01F06AFC01BC5DF848
S11343B00CFB0D4A1178A1B9010018BF012810D0D7
S11343C0042818BF05280CD0312818BF332808D07A
S11343D037281EBF3B284FF6FF71884201D00120C9
S11343E0704700207047000014720020F74200005C
S11343F01C720020302818BF322806D034281CBF75
S11344003628382801D00020704701207047FEE785
S113441030B5DFF8205ADFF8204A2B882468C01A08
S113442004EB4004002004E034F8103021F810308C
S1134430401C9042F8DB002030BDDFF8F839DFF88B
S1134440F8191A880968801A01EB4001022001F06A
S113445035BDF8B504460F461646DFF8DC59F0B210
S113446018B34FF6FF70ADF80000002017F8011BD9
S1134470C3B2401C0DF80310761EC1B2022902DA41
S1134480F1B20029F2D1DFF8ACE92868BEF80030B7
S11344901FFA84FCACEB03030122694600F0F2FD31
S11344A0641C0100DBD000F0C9BC0120F2BDF8B5EA
S11344B004460D461646F0B288B1012200F010F809
S11344C0641C0020C2B2401C1DF80230761EC7B224
S11344D0022F05F8013BEEDAF1B20029F2D1F1BD69
S11344E06946A0B294E70146DFF8780BDFF8782B31
S11344F0405C525CDFF8743B595C09B102F5997277
S113450040EAC21080B2704710B5DFF8583BDFF8BC
S1134510602B1C5C012C1CBF32F81000081802EB45
S1134520400010BD70B590B005460C464FF6FF76BE
S113453004E0A8B2FFF781FF203D2035A9B28C42E8
S11345400DD3202200F0EDFF002082B23DF812309E
S1134550B342EED1401C81B22029F6DBEDE710B066
S113456070BD10B5044661882088FFF7DBFF012188
S1134570DFF8002BDFF86C3CA1712088117841181A
S1134580188801EB4001891DA18010BD2DE9F0437D
S11345900446DFF8E00A0778B946B9F1060F85B09A
S11345A003DD40F2DE2100F0FBFB0021A1717A1C47
S11345B0208892B201A9FFF72BFFBDF804104FF633
S11345C0FF76B14218BF00290CD00DF10408711A0E
S11345D038F81900884205D101251EE0BDF8041001
S11345E0884219D02046FFF7BCFF05B0BDE8F08330
S11345F038F815000028F1D1DFF8901C0A882088CB
S113460012FB052141186A437118101889B280B24F
S1134610FFF788FF0221A1716D1C4D45E8DBA079ED
S11346200228E2D02088381800F073FBBDF802009D
S1134630000B4845D6D120883818401D00F06AFB8D
S1134640BDF80210BDF80200711A000A01F0FF0162
S11346508842C7D10320A071012220883F187F1C03
S11346606946B8B2FFF7D4FEBDF80000FF2802D1B6
S11346700421A171B9E7B042B7D00028B2D1B4E7A0
S11346802DE9FE4F0646DFF8EC09DFF85C8BDFF816
S113469000AC8B460178ADF80810012234880C195F
S11346A0641DFFF71DFFDFF83C1BBDF80000B1F8E7
S11346B00090641C000AADF8000048451CBF0121AD
S11346C08BF80010002519E0401CC1B2494513D2F3
S11346D0C7B23AF81710BDF806209142F4D1C0B21F
S11346E0FFF701FFBDF804304FF68072104013400D
S11346F0984208BF08F807506D1CADB2BDF8000021
S1134700854206DA022201A9FFF7EBFEA41C002071
S1134710DBE7002001E0401C80B2484516DA18F8B7
S113472000108142F7D001208BF800000EE021F840
S113473017A00BE00128DFF83819F8D07F2D31F8E5
S1134740170008BF0025281821F810A0A1B270880E
S1134750C01E88424FF6FF7551DB00F061F8BDF8CA
S11347600200FF27A8424AD0601C00F095FEBDF865
S11347700200BDF806102A1A91424CD104F1030A32
S1134780040A00F07F05BDF80000844243DA0020EB
S113479000E0401C484504DA18F80010A142F8D1A2
S11347A0C7B23088BDF80830181800EB4400801DEB
S11347B0012201A980B2FFF72BFEBDF80400C0F36B
S11347C0C710401C00EBD0700AEB60047088A1B2E3
S11347D0884220D3FF2FB9D0DFF88808C05D7F2D31
S11347E014BF2946002181429DDABDF80210DFF88A
S11347F07C28D35D0906C90F99429BD093E7B48006
S11348007088A1B2884209D300F00AF8BDF802000A
S1134810641CA842F4D001218BF80010BDE8F78F86
S113482001220DF10201A0B2F2E52DE9F84F84B0A6
S1134830DFF80016DFF85C7A0A88DFF8A819DFF8D9
S1134840405C8DF80000ADF806203A80DFF8480A95
S113485002887A8008880C88BDF80610DFF83C2AA4
S1134860ADF80A00DFF80C0890F80080464671188D
S113487001EB4401891DB9800020B871DFF8201ACA
S113488008883881301800EB44001188DFF8142AB6
S11348907981801DB8810020B873DFF80C1A08886C
S11348A03882301800EB4400801D1188B882798268
S11348B00020B87501F077FB002840F00A812870C9
S11348C00021B971B973B87507F1080107F1100037
S11348D0E860A9606F603846FFF758FE07F10800EA
S11348E0FFF754FE07F11000FFF750FEB979B87BCB
S11348F0DFF8449504293DD100220428ADF80220B4
S11349007AD13846FFF72DFE00F000FA00F0FBF9EB
S1134910384607F1080110370122A9606860EF608A
S11349209DF800100A4318BF01228DF800200122CF
S113493000883018801CA91C80B2FFF769FD9DF81F
S11349400000002840F0C8806868DFF824876946C2
S1134950FFF796FEDFF82C0B0788A86881790329F6
S113496040F0AC806946FFF78BFE6A68DFF8F40616
S1134970002199E0B97D04282BD100200429ADF849
S11349800200BED03846FFF7ECFD00F0BCF9B7F8E2
S113499008C000F0C5F9002880463DD10320B87353
S11349A0B879032849D1B87B032802D1B87D0128FE
S11349B062D0B879012849D1B87B032853D1B87D96
S11349C0012818BF03289CD107F1080007F1100142
S11349D056E004292AD10020ADF802003846FFF73A
S11349E0C0FD00F093F9B7F810C000F099F98046C3
S11349F090B90320B87519E0B87D0428C1D000F03F
S1134A0085F900F080F9B7F800C000F089F9804614
S1134A1010B90320B8710CE0404601F0DAFAB8F19D
S1134A20000F03D040F2D23100F0BAF9B87903286C
S1134A30B6D1B87B0128B6D1B8E70228B9D1B87B82
S1134A40032804BFB87D0128BDD1BDE7032804BFF6
S1134A50B87B0128B7D1B87D03280BD107F110002A
S1134A60394608370CE0022812BF0128B87D032814
S1134A70A9D1F3E70228A6D1384607F10801103777
S1134A8000224AE7BDF80A30994202DA435C012B5E
S1134A9009D138F81130B2F800C0634524BFB2F828
S1134AA002E09E450AD2491CB942EBDB0220907118
S1134AB0A9686868EA686960AA60E86000204FF63F
S1134AC0FF7200E0401CB84206DA38F81010914238
S1134AD0F8D101208DF80000687828B10121002068
S1134AE08DF80010687015E09DF8000068B96868DA
S1134AF00088301800F00DF9BDF80200C0F303106F
S1134B00012808BF8DF8000004D09DF8000000289B
S1134B1000F0EF804D2001F05CFA6888401C68804A
S1134B20E868FFF71EFD9DF8000000F04EF900282C
S1134B3052D0DFF8B0060188E868ADF80A100188A1
S1134B40761806EB4404A41DA4B2002600E0761CEB
S1134B50BDF80A00864280F2C380DFF81015885D34
S1134B608DF8010000273FE0BDF80410F8B20143BE
S1134B70ADF804104FF6FF72DFF8BCB2BDF80400C4
S1134B80BDF80680121ADBF80000ADF80820A4EB8B
S1134B90080100EB4100BDF802104FF6FF72641CDF
S1134BA09142A4B240D1012201A901F0B2F901005D
S1134BB047D100F061FA010043D1A41CA4B2DFF88C
S1134BC0A804DFF8201BAAF80040825D51F82610E3
S1134BD02046FFF73EFC002800F08980DFF8080B30
S1134BE0815D6418A4B27F1CDFF8780410F8068095
S1134BF0F9B24145ABD2F0B2FFF786FC8246BAF86F
S1134C000000ADF802009DF80100C00140EA062052
S1134C10B8F1010FADF80400A6D1BDF8040040F0CE
S1134C207F00ADF80400A5E7DFF83C14895D491C5A
S1134C3001EBD1714FEAC159012201A901F069F9CF
S1134C4001004AD100F018FA010046D1A41CA4B214
S1134C50AAF800409DF80100E0B1002128780391F2
S1134C6030B103AA0DF10201B0B201F0A0F905E0E0
S1134C70BDF80210F0B200F058FC0390A4EB080356
S1134C80DBF800004FEA196203A900F0FBF9010008
S1134C9023D1A3E74FF0000A01E00AF1010A5FFA09
S1134CA08AFBBBEB196F99DA28780028BDF802005B
S1134CB004D000F022F801F078F903E000F01DF8C8
S1134CC0FFF7A6FB5C480068A344ABEB0803012292
S1134CD003A900F0D7F90100DFD001F07AF906E06A
S1134CE0E86884809DF8000000F0D0F908B901203C
S1134CF000E0002005B0BDE8F08F411CADF80210C3
S1134D00012203A9704707F110002AE407F1080003
S1134D1027E4C01C01220DF1020180B2FFF778BB29
S1134D20BDF80630D9F80000C4440CF1010CACEB1A
S1134D30030301220DF1020100EB430001F0E9B885
S1134D40F8B50D46DFF89C1417467F2F0A8808BF74
S1134D5000271E4695423EBFC24B595D8F42044612
S1134D6004D2C14A535D9E4200D11CB940F266612F
S1134D7000F016F839462846FFF7C6FBDFF870192D
S1134D800388485D28B11946284600F0CEFB206010
S1134D90F1BD324621461846BDE8F840FFF787BB0F
S1134DA00FF67C1001F06CB938B50446084611467C
S1134DB0FFF7AAFB1F4D0388DFF8381928880A6813
S1134DC01B1A02EB4302226031BDF8B5DFF8B016BE
S1134DD0194CDFF8BC54002814BFC8688868A5497A
S1134DE000880A788618B61DB6B2002701E0B61C02
S1134DF07F1CDFF8F00301888F4217DAF8B2FFF75F
S1134E0072FBADF80000B3B235F81700DFF8E8C85C
S1134E10BCF800E0ADF80200A3EB0E032068022208
S1134E20694600F02FF90100E1D007E00120F2BD4E
S1134E3000000000843903000462002001F0C9F876
S1134E400020F2BD2DE9F24F84B000218DF803104B
S1134E504FF00C09DFF8A458BDF81010DFF8A06873
S1134E60DFF884385B5C298835684C0891FBF9F9D4
S1134E70A1444D45039302D3DB18039309E018269C
S1134E8091FBF6F1641AA54203D303EB530189B2F3
S1134E9003910025DFF85448ADF806008DF804208E
S1134EA000E06D1CCF4801888D4280F2CC80002642
S1134EB082E0012202A91FFA88F0FFF7A9FAA36889
S1134EC0DFF834E8DFF82C08B3F804C0BEF800308B
S1134ED00068DC44ACEB030300F0D2F8010008F1F5
S1134EE001083CD10AF1010A5FFA8AFBBBEB176F98
S1134EF0DFDB35E01A468DF80220BDF806309A183B
S1134F00ADF806200123594A8DF80330505DC301E2
S1134F1043EA0523BAF1010FADF8003040F0858073
S1134F20BDF8002042F07F02ADF800208A88D21C30
S1134F3000288A8000F084804146E8B200F0F5FA47
S1134F40A36802903A0E9F88DFF8ACE7DFF8A40765
S1134F50BEF800300068FB1A00F093F801006BD132
S1134F60BDF80000A3684FF6FF71091AADF80810E8
S1134F70DFF88007DFF880179B880F8800689B1E86
S1134F80DB1B00F07DF8010056D1A368DFF864074D
S1134F909B880068DB1EDB1B0122694600F072F867
S1134FA0010049D1A0688188A9F8001082889DF881
S1134FB0021051188180761CF1B22A4810F805A01D
S1134FC05145BFF46EAFE8B2FFF79EFA814626481A
S1134FD0475DBDF81000B9F800807F1C07EBD77758
S1134FE0FF05854202BF9DF80410F0B28842E2D06A
S1134FF060680188884524BF40884045DBD3BDF8FC
S11350000610039881422ADADFF8DC26A168535D92
S1135010B1F804C048889C440CF103029042BFF6E6
S113502069AF01206070452006E0BDF80030F2B29F
S11350301343ADF8003079E700F0CBFF002059E6C8
S11350404FF0000A50E79DF8030040B96068022160
S113505081716068A168E2686160A260E06001201B
S1135060EDE70000441F0300201F0300FC1E0300A3
S1135070FC690020BA390300DBF80000A4EB080344
S1135080012202A900EB430000F043BF2DE9FE4FCB
S11350905FEA0009DFF8E853DFF8587614BFE868E0
S11350A0A868012201884F4800880291C0F1FF01DD
S11350B001F0FF0141EA0021ADF80210DFF84406D7
S11350C0029990F800A0DFF830060688386801EBF2
S11350D00A04631D9B1B0DF10201FFF7D3FF0100BE
S11350E05BD140F6227040EA0A30ADF80200E31CBE
S11350F038689B1B01220DF10201FFF7C3FF010079
S11351004BD13868A31C9B1B0122A91C00EB430054
S113511000F0FFFE010040D1601CA0EB06085FEA2E
S113512009004FF6FE7B07D0FF21ADF8021000F016
S11351305DF8010031D109E0686800880122694600
S1135140FFF766F9BDF80000012802D1ADF800B000
S113515002E0411EADF800104FF6FF72BDF80000EA
S1135160121AADF80420A41B3868012201A900EB2F
S1135170440000F0CEFE01000FD1029C5046A0F185
S1135180010A80B270B1386814FA8AF39B1B0122B9
S11351906946FFF777FF0100F0D000F01AFF002006
S11351A0BDE8FE8FB9F1000F16D0E96803208871BD
S11351B06868FFF7D6F9A868FFF7D3F9A9686868A3
S11351C0EA68A8606A600020ADF80200E96000F0B7
S11351D00DF80100E1D102E0A968032088710120E3
S11351E0DEE7000090390300E468002001223868FB
S11351F00DF1020100EB480000F08BBEFEB5044641
S1135200DFF8E404455CA088134662882E18F61C77
S1135210B24205DADFF8D42401215170452031E08F
S1135220C01CDFF8E424A08080B2525C1946FFF76A
S113523010F950B3DFF8C004DFF8B8740688A38807
S11352403868DB1E9B1BFFF71BFF01001AD1BDF85A
S113525008004FF6FF71091AADF800100122A38867
S113526038689B1E9E1B694600EB460000F051FE09
S1135270010007D10898A1880180A0884019A08066
S11352800120FEBD00F0A5FE0020FEBD8239030012
S1135290B41E030014650020863903008A39030014
S11352A0883903008E3903008C3903002DE9F84F47
S11352B084B00546884691461C4601F00FF88DF8E7
S11352C0045003950126DFF844249DF80410138844
S11352D0ADF80830B9F17F0FBDF808008DF805402E
S11352E008BF4FF0000981423FBFDFF82414039A3E
S11352F08B5C994507D2DFF810148B5C9C4202D179
S1135300B8F1000F03D140F6DB01FFF749FD9DF82A
S113531004004946FFF7F8F801240546DFF8F403D2
S11353208179B5F800A002291FBF817B0229807D05
S1135330022802D1432000F04CFE039ADFF8B01398
S1135340885C002832D09DF80400514600F0EDF846
S1135350D8F80010814254D0AAF1030000F09CF860
S1135360474FDDF80CC07C68DFF87C33628813F8A3
S11353700C10A088D21E521A824207DB30B1B868E2
S113538001888A45A4BF4088504571DBF86881795B
S1135390BC68022936D1442000F01BFEF8688179EC
S11353A001292FD0452000F014FE51E09DF805702E
S11353B04FF0000B21E00BEBDB700AEB600000F018
S11353C04EF908EB0B0018F80B1040787A1E934541
S11353D001EB002007D1BDF8001001F0FF0100F03F
S11353E0FF00ADF8001080B2BDF8001088420BF148
S11353F0020018BF00245FFA80FBBB45DBDB002CF6
S1135400AAD03CE0B96888799DF80470012814D1C9
S11354100020FFF7DAFC002831D00020FFF736FE29
S113542000282CD0B74803783946BDF8087003EB40
S11354304700C01D4A4680B204E003280CD14A4606
S113544039460020FFF7FEFC10B100F01DF8B0B99A
S113545000F032F911D112E089790FF2C420022947
S11354600CBF40F6CA1140F6CC1100F009FE06E06C
S113547000F00AF818B900F01FF97FF448AF39E4D6
S113548028720020923903000095BDF806309DF87B
S1135490041042462046B1E601220DF1060180B215
S11354A0FEF7B6BFF8B505469048964F43681C888A
S11354B03B78E018FFF72DFCBDF802000026C0F38E
S11354C00310012819D1192400F02AF8BDF80000AE
S11354D06D1C30B14FF47F41401A06D0FF381BD009
S11354E005E0B61C641EEFD116E0761C14E0BDF88E
S11354F00000C0B290B9761C10E0192400F010F836
S1135500BDF800006D1C20B14FF6FF71884203D036
S113551004E0761C641EF1D170B2F2BDF643FBE7E1
S113552001226946A8B2FEF773BF38B50C460021C4
S1135530754B009169461D5C2A4620466D1CFEF79A
S1135540B6FF05EBD57504EB6504A0B2FFF7AAFF1F
S11355500028009948BFC04341FA80F032BDF8B535
S11355606A4A138804466C48254630F815609C4204
S113557002D25F49485D18B940F68521FFF710FC57
S113558061494D5D681C00EBD07006EB6007B8B252
S1135590FFF788FF0346192B14D20020DFF858C107
S11355A0DFF850E1ADF8000013FA87F7BCF80030DB
S11355B0DEF80000FF1A0122694600EB470000F004
S11355C0A8FC60B131462046FFF7AFFF00902B46A0
S11355D0401C00907F2269462046FFF767FEF1BD1C
S11355E07CB5054647480678344621464C1EC9B268
S11355F02888022925DB50FA84F000F030F8BDF841
S113560000000028F1D0454829880288E6B2724398
S1135610521890B2FEF711FF0020ADF800000122ED
S11356202D88344800687519334E3388ED1A69465D
S113563000EB450000F06DFC01000ED000F0C9FC49
S11356400BE0FEF7FAFE0120A871304A2988108881
S1135650891901EB4001891DA980E0B276BD0122C0
S1135660694680B2FEF7D4BE2A488179022908D05F
S1135670817B022908BF083003D0817D022901D132
S11356801030ADE7002070477CB504461D4806780D
S113569000250CE0208850FA86F0FFF7E0FFBDF803
S11356A0000000281EBF4FF6FF7188426D1C00F0F9
S11356B003F8EFD1E8B276BD3046461EC0B20028EA
S11356C0704714488179022908D0817B022908BFD8
S11356D0083003D0817D022901D11030D4E70020A5
S11356E070470000B8210300941C030028720020B6
S11356F0FC1E030004620020843903008039030087
S1135700901C0300BA390300201F030090390300E2
S1135710441F030014650020FC6900208239030043
S113572073696D2D656570726F6D322D696E746568
S1135730726E616C2E63000062B181423ABF5318ED
S1135740984200F0EDBD801813F8011D521E00F8B8
S1135750011DF9D17047FEE780B50121794800F0B9
S11357609FFE794801210160002001F02CFA0123F9
S113577004220221052001F06AFA0120FEF7B8FD97
S113578000F011F8FEF7FFFD70490120087001F0E8
S11357905FFB012340226E496E4801F024FB6E49F1
S11357A00860C00F02BD70B501220121042001F080
S11357B0BFF86A486A4C01686A4D6B4E41F00101BA
S11357C001600021C26842F08072C2600222674810
S11357D0206029603160664866490A6000F090FEE6
S11357E06549664A664B0818B0FBF2F0401E186023
S11357F0002129644FF48072624863492065316056
S1135800624802602B6843F480732B6070BD534878
S1135810006800B10120C0B27047D122027041700B
S1135820090A81705A490A78C2700420521C0A700D
S113583070472DE9F24F84B0074608780024052804
S113584068DB401D8DF80000002601F033FB029058
S11358504FF6FF789DF80000DFF83891DFF804A1D7
S11358603E4D019003971DE003988019414610F8BE
S1135870027C384601F096FB80465E463A48016851
S1135880CA070FD5E86840F08070E860DAF80010C5
S113589041F48071CAF80010D9F800000028F1D052
S11358A089F80070296879B39DF80010F0B2884235
S11358B02AD201F0FFFA0299401A80B240F2F5129E
S11358C0904226DAF0B210B95B270126D6E7012808
S11358D004D19DF80000471F0226CFE7019806F186
S11358E0010BF6B2C01E864208BF4746C5D00198D8
S11358F0801E864208BF4FEA1827BED00198401E7A
S11359008642B1D15D27B8E79DF80000F6B2864221
S113591000D0012404990420087005B02046BDE895
S1135920F08F80B50C4B186890B04022694601F0A6
S113593041FA20B1C2B26946122000F063FA11B0F4
S113594000BD000000250A0010881442CE7C00200F
S113595018710020602303008C630020F0ED00E048
S1135960B00F00E0000E00E0800E00E055CEACC5A4
S113597006000E00F00004E0FCAC0600F8590D002F
S1135980100004E0FF0300400D000100040304E0E4
S1135990CD7C0020200000E070B5134610440BE0DD
S11359A001F00F060909451E0A2EACBF3724302426
S11359B0A41928462C705B1EDCB2002CF0D11044D4
S11359C070BDF0B5002341B1002806D52D23137016
S11359D00123B0F1004F18BF404200210024894D3B
S11359E055F82470002601E0C01B761CB842FBD297
S11359F0F7B20FB90F0004D0D9B2303656545B1C3D
S1135A000121641C092CEBDBD9B2303050545B1CEF
S1135A10D8B2F0BD2DE9F84F804696B014A8894657
S1135A2015469B4604AF4FF0000A002401901EE087
S1135A30012405460DE03429FAD15BF8046B0422F5
S1135A40310C3846FFF7A8FF0422B1B2FFF7A4FFD8
S1135A50074601998F4209D39DF800003F1A00F0D0
S1135A60C5F8002853D15AFA87FA04AF6D1C04A86C
S1135A708DF800009DF800002978381A00290BD011
S1135A80252903D014B907F8011BE2E7002C14BF41
S1135A9000246D1C29780A0000F09B80B1F12502D6
S1135AA016D00B3A092A40F28380283A7AD00A3A6F
S1135AB012D0521E42D0521E5CD0083A5AD0121F45
S1135AC03FD0D21E3DD0921E54D0D21E6AD0C0E721
S1135AD0252007F8010BBCE704A8DBF80010DBF86D
S1135AE004208DF800000BF1080B38460391029254
S1135AF00027029A9742ABD20399C95D0222FFF7AD
S1135B004BFF0199884206D300F074F8002869D14C
S1135B105AFA86FA04A80299491E8F423CBF2022F1
S1135B2000F8012B0199884206D300F063F800289D
S1135B3058D15AFA86FA04A87F1CDAE75BF8040BFA
S1135B40C7E75BF8046B074600F050F8002849D11A
S1135B505AFA87FA04AF0022314600E0521CD6B24A
S1135B60885D0028FAD1D2B24846C047002839D10E
S1135B70B2446EE76C290AD16A785BF8040B752A83
S1135B800EBF00210121642A07D16D1C05E075298F
S1135B905BF8040B0CBF002101213A46FFF711FF0B
S1135BA0074456E75BF8041B0222C9B238464DE7A6
S1135BB068780124782818BF5828F2D16D1C002475
S1135BC0681E32297FF437AF5BF8040B81B20422DC
S1135BD0ECE70546EAB200F00AF818B9AA445FFAFD
S1135BE08AF000E0002017B0BDE8F08FFAB204A9F3
S1135BF0484640479DF80020861AF2B204A9484658
S1135C00404700003C230300FFF78BBE03460A46CF
S1135C109BA10420FFE70CB480B502AA00F030F881
S1135C2001BC5DF80CFB0A00034602D095A11120CB
S1135C30F1E7704780B586B001F0EEFB20220492B4
S1135C400021914A00926A230591039302910191E4
S1135C50024600238FA10120FFF7DDFF8B488179E5
S1135C60028843790391029201930179C37882787F
S1135C70009142208AA1FFF7CEFF07B000BD0000CB
S1135C802DE9F04786B007460C469146FEF791FB96
S1135C90002600287CD1FFF7BAFD002878D0002127
S1135CA0002001F0FBFE0028ADF8040070D00021B4
S1135CB001A802F033F8394602A8FFF7AEFD074603
S1135CC0D4B900F098F8002862D1BDF8040001F0BE
S1135CD042FE8DF80000BDF8040001F024FE694680
S1135CE0FFF7A7FD002853D00420FEF753FB4FE035
S1135CF08DF808100127641C20780028E1D0A0F159
S1135D0030010A2904D20A2101FB0606303EF2E7DB
S1135D1000F071F800283BD121780027422902A81D
S1135D200ED044291AD0462925D057290DD06229EE
S1135D3040D0662932D06C292DD070292ED0D7E7D7
S1135D4059F8040B8DF80800D4E759F8041B8DF8B2
S1135D50081002270904090E4170CCE759F8041B06
S1135D608DF808100B0A0A0C090E437082708DF826
S1135D700B100427BFE759F8048B404602F058F98A
S1135D80C2B20123414601A801F024FF0028B2D089
S1135D9006B0BDE8F08759F8046BACE759F8041B6A
S1135DA00123F2B201A801F015FF002808BF002664
S1135DB0A1D0EDE7BDF8040001F0CDFD59F8045B76
S1135DC08046A8B2002896D001F0C5FD82460AEBB1
S1135DD00801C9B201A801F0A1FF0028D8D15FFAD7
S1135DE08AF000900023BDF80400AAB25FFA88F19B
S1135DF002F020F87FE701233A4602A901A801F046
S1135E00E9BE00002DE9F841122885B004460D468C
S1135E10904606D03A2808D04FF6FE71884220D02A
S1135E2026E0002002F069FB22E002F02DFE064687
S1135E30002003F086F90746002003F08DF903469D
S1135E4004961148DFF84810B1F8E22016A1039037
S1135E50029200200190009700223B20FFF7DBFE16
S1135E6006E000224146284601F07EFE00F0A6F836
S1135E7042462946204606B0BDE8F041FEF7BABACC
S1135E80574600006C70000088770020C825030086
S1135E909877002042423870424242425700000044
S1135EA042424242574200005742425757387042DA
S1135EB000000000DFF800F0C161002038B504469E
S1135EC00D4604F007F8012C02D1FFF7F3FF02E0BE
S1135ED0284604F093F818B104F005F8012032BD07
S1135EE004F001F8002032BD80B58308800705D591
S1135EF04FF6FF7242EA0142009204E041F07F4112
S1135F0041F47F01009104226946980004F0B5F839
S1135F1002BDF8B506460D4605F0010106F0010084
S1135F200143144601D00120F2BD002C39D0324681
S1135F302B46611C4FF6FF7C01E0921C9B1C491E02
S1135F4006D0178867451CBF18880028F5D024E0C0
S1135F5003F0C0FF012C01D0B00707D535F8021BB0
S1135F603046FFF7C1FFB0B9B61C641E022C0CD337
S1135F7067087F007A002946304604F07EF850B95D
S1135F8006EB470605EB4705E41B44B12988304678
S1135F90FFF7AAFF18B103F0A6FF4B20F2BD03F0F0
S1135FA0A2FF0020F2BD0020704701207047704717
S1135FB07047002070470020704770477047019871
S1135FC0704770477047704770477047702004F0FF
S1135FD077B870B5044643381F4D08D0401E0128D9
S1135FE009D9801E01280ED9C01F32D02AE0BDE88D
S1135FF07040FFF739BBFFF764FB20B1FFF734FBB8
S11360000028FBD170BD154E307810BB01213170D2
S1136010FEF7FEF8442C12D00CD3462C05D00ED338
S1136020472C07D140F6010001E040F6020004F0DD
S11360304DFB04E04FF49B71284600F021F800204A
S1136040307070BD2846BDE870404FF4A47100F074
S113605017B870BD00000000F0230300D27C0020BC
S113606070470020704700207047012070470120CE
S1136070704700207047704703F0F3B842DE704762
S113608038B504460D4603F0FAF800F027F904F099
S113609071FB29462046FFF7B9FD2B4622466C4981
S11360A0012004F0B8FB29462046BDE83440E5E76A
S11360B068482DE9F843684E0168B1654FF42068DB
S11360C0026A6649F2650B68336649687166426A1A
S11360D0B266816AF166C26A3267016B7167806B6E
S11360E096F83810B06748074CBF346CF46B04F072
S11360F027FB002232658442594B014624BFA3F199
S11361002007A742A146716506F19002DFF854C149
S1136110DFF854E118D3A0697064E469B464B56D20
S1136120C5F30805062D13D1704511D360450FD270
S113613000884DF64264A0420AD17068B468506089
S1136140946040F2017803E000247464B4648146EE
S11361504648814202D2014600E0091D08469842A1
S113616003D20C68B4F1CD3FF7D04149081AF0646A
S11361700021002006F17C04C5B2401CC7B244F8DB
S11361802510062FF8D3002099452CD253F8041D6E
S11361907145F9D36145F7D2CC07F5D5002406F152
S11361A07C0555F824708F4202D0641C062CF8D369
S11361B0062CE9D1C4B2002C0CBF0520401E06F108
S11361C07C04C5B244F82510DEE7F16F002306F124
S11361D07C0506EB8304D4F8804045F823405B1C1F
S11361E0042BF6D911600146481EC9B20029ECD12E
S11361F0B06DC0F30800032810D0042811D005287E
S113620012D0062813D00C2817D0122818D11948F8
S11362100268910719D540F2025816E040F60128A9
S113622013E040F6022810E040F603280DE0B8F52C
S1136230206F0AD140F6042807E040F6052804E060
S113624018B1322838BF40F607284046BDE8F2832B
S1136250FC1D030004ED00E00000002000E300E06A
S1136260C0610020421C0300104200009C0000207A
S1136270C06100201C20054004F0DEBA7FB5012176
S1136280204800F00DF901220121012000F050FB0B
S11362900421072004F0D2FA1B4A92E83800694628
S11362A0032281E838000D218DF8081001268DF8AD
S11362B009208DF800608DF807606946134C20466C
S11362C004F038FB1249042008600222114962627A
S11362D00860A26A42F00202A2627FBD0B4804F089
S11362E01DBBA52803D10021084804F0FEBA70475D
S11362F00648006800F00100704707490868002854
S1136300FCD1704730053E00901E0300002005407C
S113631080E200E000E100E0082005404AB100000E
S113632011F8013B521E00F8013B1CBF11F8013B60
S1136330F8E77047012101FA00F07047890001EB8A
S1136340401101F184410A607047890001EB40115A
S113635001F184410868704710B50122DFF8B815CF
S1136360884202D20022002407E0DFF8B0158842F8
S113637034BF4FF080744FF000741021DFF8A00593
S1136380FFF7DCFFDFF8C406016821F080710C43DD
S1136390046010BDDFF88C15DFF88C350A6802F054
S11363A04072984238BF002204D3DFF8A4369842E2
S11363B038BF0122086820F0407040EA026008609B
S11363C0704738B500F013F841F67130286004F0D6
S11363D0F6FA002105E038B500F009F841F671320B
S11363E02A60FFF7D7FF0CB10020286031BDDFF829
S11363F064562C6804B101247047C01C0F2801D2D4
S1136400000770474FF070407047000038B50446ED
S1136410002500F053F9DFF82426DFF81015944224
S113642008D0DFF83426944206D0DFF814269442CC
S113643004D006E0086802E0486800E0886800F0DC
S11364400700401E03281AD8DFE800F002050C08F4
S113645004F0FBFA04E004F0FEFA01E004F0F8FAB8
S113646005460CE004F0ADFA0446DFF8E0050168E7
S1136470C1F30060401CFFF75DFFB4FBF0F5284654
S113648032BDDFF864164A68D30702D40A680242B0
S1136490FCD1704780B500F0D1F8401C02BD00006B
S11364A070B50C460246110A01F00F010020491E86
S11364B00929DFF8845613D8DFE801F00513121216
S11364C0071518121B1FDFF85854C2F3043608B11D
S11364D0FFF7D7FF224631462846BDE870402DE736
S11364E070BD1035F1E730350120EEE73835102066
S11364F0EBE740354FF48030E7E7DFF84056E4E758
S1136500F8B50646DFF8E405DFF830250768DFF85C
S11365104815DFF82C05DFF83445012516F4781307
S113652065D0B3F5003F2BD0B3F5802F24D0B3F55D
S1136530202F5CD0B3F5402F28D0B3F5602F4ED078
S1136540B3F5801F77D0B3F5A01F2AD0B3F5B01FE1
S11365502FD0B3F5D01F35D0B3F5F01F1FD0B3F54E
S1136560001F2DD0B3F5101F36D0B3F5481F41D00E
S1136570B3F5781F55D05DE004F023FAE16802E03A
S113658004F01FFAA168C1F3082104E004F019FA29
S11365906169C1F30421491CB0FBF1F74BE01046DB
S11365A01AE0FFF733FF0746206B00F00F00C740E7
S11365B041E01046FFF72AFF216A01F00F0107E0CE
S11365C0084609E00846FFF721FFA16A01F003012C
S11365D08D40B0FBF5F72EE0FFF718FF1FE0DFF862
S11365E0600500F06BF8072825D0092822D104F0B3
S11365F0E8F914E0DFF84C0500F060F804280CD04A
S1136600072818D0082815D104F0DBF907462068BC
S1136610C0F30420401C47430DE004F0EEF90746A4
S113662009E004F0CEF904463046FFF733FFB4FB2B
S1136630F0F700E000273846F2BD000001460B09E0
S113664003F00F0301205B1E092BDFF8002432D86E
S1136650DFE803F005070B11313113171F29106808
S113666000E05069C0F3042070471168090E01F07E
S11366700101491C14E0D06800E09068C0F30820D0
S11366807047DFF8C434994215D1116A01F00F0143
S113669006E0DFF8B83499420DD1916A01F00301A4
S11366A08840401E7047DFF8A804814203D1106B74
S11366B000F00F007047002070470000014601F011
S11366C00F010120491E0729DFF8882449D8DFE893
S11366D001F0040F1348202E4836506A00F00700DA
S11366E002283AD002D3042804D01CD305207047D2
S11366F011690FE002207047516901F00701491E3A
S113670003292FD8DFE801F00F020311F2E7062076
S11367107047916901F00701012904D00229E9D0E9
S1136720042902D07047032070470A20704711687B
S113673011F001010FD0012914D109207047DFF8AD
S113674018140A6802F03002102A04D0202A04D057
S1136750302A04D07047072070470420704708206F
S1136760704700207047000070B500F00F0003254B
S11367700326401E0728DFF8DC430FD8DFE800F0CB
S1136780042D31752F5975640229DFF88C0106D068
S1136790032919D0042919D005291CD070BD04255A
S11367A0002601220121304600F0C2F8FFF709FE5D
S11367B0656004F0F7F8044604F003F9FFF7CCFD34
S11367C02046BDE870405EE00126EAE70225022685
S11367D0FFF7C2FDE5E70125FAE7103402E01834BB
S11367E000E01434012929D0022906D003290BD052
S11367F0062910D00A291AD070BD012201210020D7
S113680000F096F802201AE001220121012000F094
S11368108FF8012013E004F0D4F8FFF79DFD012266
S11368200021DFF81403FFF789FD032007E00420AB
S113683005E0072902D0092903D070BD002020609B
S113684070BD0121216070BD012906D0042914D036
S113685007290BD0082914D070BD0020DFF8F812E6
S11368600A6822F030021043086070BD0122012141
S1136870042000F05DF81020F0E700F006F8202076
S1136880ECE73020EAE70021A5E5012201210220FE
S11368904EE070B5044600F03DF8012200210220CC
S11368A000F046F8217CDFF8B8520020022929685C
S11368B008BF0120490840EA4100286008212278E5
S11368C02846FFF73BFD6968E07AC90840EAC10140
S11368D06960607AA18840EAC120A860EE68207AE5
S11368E0FFF78BFDE288A17A06F07F6646EAC226AE
S11368F0227A0E4346EAC2160643EE60A17B607B11
S1136900227B090141EA0031E07B014341EA024173
S1136910296170BD1120D1E60148E8010190D0033E
S113692000400E4004000E4041787D0180400E403E
S11369302DE9F84F0428834692466DD8DFE800F02D
S1136940504B41034600012702200125002600295F
S1136950DFF8E081824C61D0BBF1020F02BF2068F6
S1136960C0F3011000284FF000090AD12068C107C4
S11369704FF0010905D5206820F0300040F01000E8
S11369802060E763314600F05EF80028FAD0BAF1DF
S1136990000F41D000F056F80028FBD0BBF1020FE5
S11369A03AD1B9F1000F37D02068C1071FD54FF491
S11369B08060C8F8180020212164022000F098F8B3
S11369C019E00427082003250226C0E71027202009
S11369D005250426BBE74027802007250626B6E7C1
S11369E04FF480774FF4007009250826AFE70021A3
S11369F0022000F07DF8D8F80C600122002102206A
S1136A00FFF796FFC6F30A01022000F027F8E763B8
S1136A1000F018F80028FBD0BDE8F18FE063D8F847
S1136A200000F040C107FAD4BAF1000FF4D0D8F84E
S1136A300000E840C107FAD4EEE7000002001E009F
S1136A400500240029464046FFF77FBC00410E4064
S1136A50015A620240000E4003002000F8B5401EB7
S1136A600D46032805F07F063C4C1F4F3BD8DFE85A
S1136A7000F00228101CC5F308051A213846FFF758
S1136A8064FC0028F9D12069400A45EA40252561C3
S1136A90F1BD18213846FFF758FC0028F9D12068C9
S1136AA0C00946EAC0162660F1BD19213846FFF731
S1136AB04CFC0028F9D1A068C00946EAC016A660BB
S1136AC0F1BD1C480168626922F0300242F01002F4
S1136AD06261C5F3C310FFF790FC226A21490A40A2
S1136AE0154305432562F1BD40410E407863002003
S1136AF01B4A1068C0F30110002818BF002911D0E8
S1136B00202902D030290DD00FE04FF40000D16EBF
S1136B1001408142FBD1400209D5D06F800A00F0C8
S1136B20010070474FF44000F1E70F48EFE7012000
S1136B307047000090400E40B0400E4050410E405F
S1136B4006000E00B80032008006160090071A00F6
S1136B50A009140070400E405C410E4010400E40ED
S1136B6024400E4000F8FF0FFF03E107890001EB0A
S1136B70401101F184410A60704770B504460D4626
S1136B80164603F081FF2168A94335400D43256073
S1136B90BDE8704003F07CBF10B500F00DF804F1BF
S1136BA0806404E010B500F007F804F1C064012328
S1136BB003FA01F1216010BD3022404B50431844C8
S1136BC000F10C0470473E490A68920840EA8200CA
S1136BD0086070472DE9F04101F0030516460324CF
S1136BE00F21082E98460CD2B70000FA07F2B940DC
S1136BF03448FFF7C2FF05FA07F204FA07F13248F6
S1136C000DE0A6F10802970000FA07F2B9402F48F8
S1136C10FFF7B3FF05FA07F204FA07F12C482D4FEA
S1136C20FFF7ABFF079C069D2B4842463146FFF712
S1136C309DFF2A4631463846FFF798FF22463146E3
S1136C400120B0403861BDE8F04124488EE7F8B532
S1136C500546174638000E461C4607D0002C284629
S1136C6002D0FFF79FFF01E0FFF796FF2A4630208E
S1136C701249424388180F22082E05D2B3004168F6
S1136C8000F015F8416006E0A6F108039B00816856
S1136C9000F00DF881604FB9002C3146284602D02F
S1136CA0BDE8F4407EE7BDE8F44075E7F1BD9A40E5
S1136CB021EA020207FA03F11143704700A00040E1
S1136CC044A4004000A4004008A4004004A40040E0
S1136CD00CA4004014A4004010A4004028A40040C8
S1136CE010B5DFF87041DFF87011E1610320206115
S1136CF060611022DFF86401A06122620021A162B8
S1136D00E16220660022DFF85801626210216066A9
S1136D10A1662267E26630A16267E31D0868DFF8B6
S1136D204411186007222046FFF7F8FA2023A371C4
S1136D3010BDC11922464046FFF7F0BA2DE9F843C9
S1136D4000F031F808B9FFF7CBFF182044432819A5
S1136D5000F1600600243769F568BD420BD2B468BF
S1136D607068E41B4C4588BF4C46FFF7E2FF00F017
S1136D7013F808BF0027ED1B4D4588BF4D4635B1BC
S1136D807068C1192A46FFF7D6FF2C19EF1904B110
S1136D9037612046BDE8F283B168E7198F42A04409
S1136DA0A9EB04097047DFF8AC50044628788846FC
S1136DB091467047F8B500F00AF800F00FF8FFF7B5
S1136DC0BDFF0446384603F066FE2046F2BD044685
S1136DD00D46164603F062BE52545400074632462E
S1136DE02946204670472DE9F84300F02AF808B9EF
S1136DF0FFF776FF03F052FE72690146002718235D
S1136E0006F1640C03FB07FE5CF80E0010B17F1C56
S1136E109742F7DB97420BDA7B43F01800220466B3
S1136E204566C0F868800267C266C0F8749001E0E5
S1136E304FF0FF37FFE7084603F02DFE3846BDE864
S1136E40F283044E044630780D46904699467047C6
S1136E5046E70000006800205871002070230300FA
S1136E60687100207C2303007FB500F011F818B985
S1136E7000F015F803F049FE04B070BD7FB500F0D2
S1136E8007F818B900F00BF803F057FE04B070BD12
S1136E900446084615461E4602A903F04BBF9DF85A
S1136EA02010BDF8240000910190334602992A462F
S1136EB02046704780B500F00DF880B202BD80B561
S1136EC000F008F8FA21B0FBF1F080B202BD000036
S1136ED000BF0000E0B503F012FF6A4603F061FF53
S1136EE018B14C212BA0FFF7CBF8DDE9000103B06A
S1136EF000BD000080B504F0CFF801211748FFF76A
S1136F00CFFA03F0D1FD20B15FF0570121A0FFF7C4
S1136F10B7F8002002BD1249012008707047FEB581
S1136F2004460025216801B91EE000F00CF808B100
S1136F3000F002F801201BE0019500950023216870
S1136F403A46301D90E7064E064F357000230093F5
S1136F5001953A46301D91E70000000030053E00DF
S1136F6058720020176F000004F018F90020FEBDCD
S1136F7004F0F3F9307840B92146301D03F050FE97
S1136F80206803F0EEFE852501E0002030702060CB
S1136F902846FEBD73797374656D2D74696D6572D1
S1136FA02E6300000A0A42EA01225040C0F3031192
S1136FB0484080EA003041010206C9B2D20E41EADB
S1136FC00221484080B270474901020003D4DFF82F
S1136FD08C0481547047DFF8883402F00F021A449D
S1136FE002F8041C704730B500F007000123C0F11B
S1136FF00704042C2EBF072403FA04F4641EC51CE2
S1137000072D34BF0020001F2140814003FA00F007
S1137010401E1040084330BD890001EB401101F1CE
S113702084410A6070470020704700207047704711
S11370303EB572B603F09EFBDFF82804DFF828445F
S11370404169216000F0C8F901466FF00B00FFF7B9
S1137050BBFF00F0C1F901466FF00A00FFF7B4FF6F
S113706000F0BAF901466FF00900FFF7ADFF00F038
S1137070ABF901466FF00800FFF7A6FF00F0A4F992
S113708001466FF00700FFF79FFF00F09DF90146EE
S11370906FF00600FFF798FF00F096F901466FF0D5
S11370A00500FFF791FF0022022100F08FF901464D
S11370B06FF00400FFF788FF00F092F901466FF0CB
S11370C00300FFF781FF00F07FF901466FF0020033
S11370D0FFF77AFF0022072100F078F901466FF0EC
S11370E00100FFF771FF00F07BF901464FF0FF301C
S11370F0FFF76AFF00F074F901460020FFF764FF10
S11371000022032100F062F901460120FFF75CFF31
S113711000F05EF901460220FFF756FF00F060F927
S113712001460320FFF750FF00F05AF901460420FE
S1137130FFF74AFF00F054F901460520FFF744FF2A
S113714000F04EF901460620FFF73EFF00F048F933
S113715001460720FFF738FF00F042F901460820F6
S1137160FFF732FF00F03CF901460920FFF72CFF3E
S113717000F036F901460A20FFF726FF00F030F947
S113718001460B20FFF720FF00F02AF901460C20EE
S1137190FFF71AFF00F024F901460D20FFF714FF52
S11371A000F01EF901460E20FFF70EFF00F018F95B
S11371B001460F20FFF708FF00F012F901461020E6
S11371C0FFF702FF00F00CF901461120FFF7FCFE67
S11371D000F006F901461220FFF7F6FE00F000F970
S11371E001461320FFF7F0FE00F0FAF801461420E0
S11371F0FFF7EAFE00F0F4F801461520FFF7E4FE7D
S113720000F0EEF801461620FFF7DEFE00F0E8F885
S113721001461720FFF7D8FE00F0E2F801461820D7
S1137220FFF7D2FE00F0DCF801461920FFF7CCFE90
S113723000F0D6F801461A20FFF7C6FE00F0D0F899
S113724001461B20FFF7C0FE00F0CAF801461C20CF
S1137250FFF7BAFE00F0C4F801461D20FFF7B4FEA4
S113726000F0BEF801461E20FFF7AEFE00F0B8F8AD
S113727001461F20FFF7A8FE00F0B2F801462020C7
S1137280FFF7A2FE00F0A4F801462120FFF79CFEC0
S113729000F09AF801462220FFF796FE00F094F8D9
S11372A001462320FFF790FE00F08EF801462420CB
S11372B0FFF78AFE00F088F801462520FFF784FED8
S11372C000F082F801462620FFF77EFE00F07CF8ED
S11372D001462720FFF778FE61684FF6FF00014062
S11372E041F0BF6141F4013161604FF4E021E06895
S11372F040F40070E060E06840F01000E060E1619C
S113730004F05BF804F0F0F8EFF30880001F57492D
S11373104FF0CD3201E040F804298842FBD25449B1
S1137320544889B204F032F962B65349534A0120F1
S113733008606846146804F02DF9240E8F2C10DAC6
S11373404F48504C016841F0040202604FF0501362
S1137350002230255543521C6351052AF9D9016096
S113736000E006DC48480168C909C90141F0200170
S113737001609DF80100012804D14448016841F0EE
S11373800401016000220D214148FFF745FE4149F7
S11373900120086004F018F904F06FFA052168462A
S11373A004F016FB01208DF80300684604F01DFC70
S11373B003F0F8FEFFF79EFD03F010FF05F05CF804
S11373C0354805F09BF837BDFF22FF2104200AE66B
S11373D000220121042006E600220021042002E606
S11373E0002204210420FEE540F2016003F06EB99E
S11373F005F06EB980B500210B2005F061F9BDE8F8
S1137400014005F066B9002818BFFEF7DABDFEF7A3
S1137410D9BD032005F0D7B910B504F0A6F8044689
S113742004F0A7F8C0B220B9012C0BD144F08000BD
S113743010BD072CFAD8DFE804F005040709090B8E
S11374400D0FF3E7002010BD092010BD022010BD70
S1137450032010BD0B2010BD062010BD00E400E089
S113746018ED00E00040000008ED00E06058002046
S113747024140000A000002044000E40FC81E00F12
S1137480B0400E4000A000402C400E4064310E403D
S113749054300E4010300E40DC1D030010B5DFF8F0
S11374A04008DFF838180068DFF83828C860136827
S11374B048615B0800EB43040C6118B100F016F856
S11374C0652806D2BDE81040B0210FF63C00FEF757
S11374D0D7BD10BD10B5DFF804486069E26890427A
S11374E002D2C02100F09BFA60690CE010B5DFF80D
S11374F0EC4720696269904202D2C62100F08FFAFB
S11375002069626900E0E268801A4FF6FE71084063
S113751010BDDFF8C817CA68904203D3496988428E
S113752000F055BB0020704780B510B1FFF7F1FFA4
S113753000B1012002BD30B1DFF8A027D168401AA4
S11375404010401C80B27047010001D100207047F8
S1137550DFF88817CA6802EB4000801E7047408835
S1137560C0F30C00C01C80084000001D80B27047AE
S113757010B50446FFF7F3FFDFF860174A6904EB20
S113758040004FF6FF7400E0801C904202D2038852
S1137590A342F9D010BD2DE9F843DFF840478046F7
S11375A0E08898B3B8F8020001042FD4DFF83877E4
S11375B00FF2487138680FF2507905F04FF920B98D
S11375C040F28D114846FEF75BFD002504E005F00E
S11375D045F988B16D1CADB2E088854204DB40F208
S11375E08F114846FEF74CFDA069396800EBC506CB
S11375F030680028EBD13160B088401CB080404630
S1137600FFF7ADFFF18801EB4000F080BDE8F183A6
S113761070B50446DFF8C406007801281AD1208822
S1137620FFF792FF050027D002262C462046FFF7DD
S1137630B2FF608840F40040608034F81600FFF721
S113764083FF040002D060880104EFD5761C042E69
S113765012D2EAE702280FD103F020FA0546208867
S1137660FFF772FF18B10088C0F30E00208028468F
S1137670BDE8704003F00FBA70BDDFF860160A78F9
S1137680022A08BFFFF7C4BF704738B504460D4649
S1137690FFF765FF6188C1F30D0161804004020CAE
S11376A021462846BDE83840FEF746B810B50C46DA
S11376B001E0FFF75DFFA04202D241880A04F8D539
S11376C010BD2DE9F14FDFF814560020A88092B0C8
S11376D003F0E4F96A88ADF8002001212970002143
S11376E06A696980019203F0D6F9E988A869C9003A
S11376F004F06EF96846FFF78BFF129848B1002436
S113770001E08047641C1298E1B250F8210000287F
S1137710F7D1EF6800244FF001080DF1080906E0E5
S11377200BF1010B5FFA8BF004281CD33446019E45
S1137730B74200D38CB324B1641EE4B259F824A038
S113774003E000F0D5FABA460746BAF8020000F49E
S11377504041B1F5004FEAD140F48040AAF802005C
S11377604FF0020B26465FFA8BF03AF81000FFF751
S1137770EBFE0400D4D060880104D1D440F400406E
S113778060802046FFF707FF102EBDBF49F8264052
S1137790761CF6B24FF00008C2E7B8F1000FB8D07B
S11377A0EF68BB46B84615E03846FFF7D8FE0446F6
S11377B0788801040BD55846FFF7BDFE398801F4DB
S11377C00041084338800BEB440B07EB440800F0FE
S11377D08FFA0746B742E7D3022028706846FFF7BE
S11377E017FF129848B10026044601E08047761C32
S11377F0F0B254F820000028F8D1EC68274613E0D2
S11378004FF0020937F81900FFF79EFE20B10088F7
S1137810C0F30E0027F8190009F10109B9F1040FAA
S1137820F0D300F065FA07464745E9D30AE0044679
S1137830FFF79EFE4146FFF739FFB842F7D3B74240
S11378402ED1544644454AD22046FFF791FE002CDF
S11378508246F6D060880104F3D500F05AF8A042BD
S113786004D16088C0F30D006080EAE704D20146C9
S11378702046FFF70AFFE4E7264607E05046FFF7F5
S113788077FE4146FFF712FF54468246C24507D2AF
S1137890BAF80000C0F30E00FFF756FE8245EDD3A0
S11378A034B100F036F801001CBF2046FFF7EDFEAE
S11378B027463046C1E72046FFF751FE06465846A4
S11378C0FFF739FE0746720021465846FDF734FF9C
S11378D000223946684604F0E9FF0BEB460B03F03F
S11378E0DDF806460021A81C05F036F8FFF72CFE4B
S11378F0040006D1BDF8000068800021C5F814B06A
S11379002970304603F0C7F8002CD4D113B0BDE879
S1137910F08F2088C0F30E0016E680B5FFF714FE42
S1137920BDE8024000E610B5040012D0FFF7F5FFF1
S113793018B940F27A4100F072F82046FFF704FECD
S113794038B101880A0402D5D0F80A0010BD083005
S113795010BD002010BD10B5010013D0FFF7F4FDD9
S11379600446FFF7E1FD18B940F2944100F057F8DE
S113797044B12088010401D5208910BD6088C0F37A
S11379800C0010BD002010BD2DE9F04100F044F8BA
S113799004003FD0FFF7C8FD0FF26C3718B940F26E
S11379A0A74100F078F82846FFF7D5FF8046204627
S11379B0FFF7DEFD464505462CD003DB40F2AF4120
S11379C000F069F82088010448BF268122D466802B
S11379D02046FFF7C4FD04EB400403F05FF8DFF832
S11379E0FC124A692E1BB6B2954204BF4C610026B4
S11379F003F051F8082E06D231462046BDE8F04186
S1137A00FF2205F01BB80821204603F0BFFDA6F1B4
S1137A1008006080BDE8F08105460E4694E50FF24B
S1137A20E820FEF72DBB38B50D46FFF78DFD0400A9
S1137A300AD0FFF779FD18B940F2EC41FFF7EFFFE8
S1137A4004EB4500808832BD002032BDF8B50D46F8
S1137A501646FFF779FD04000FF2AC2714D0FFF7A8
S1137A6063FD18B940F2F74100F015F83046FFF70E
S1137A706BFDFFF759FD18B94FF49F6100F00BF847
S1137A8004EB45008680F1BD3846BDE8F44040F281
S1137A90FB41FEF7F5BA3846FEF7F2BA2DE9F84F86
S1137AA08846C11C8908DFF8345249000027091DA3
S1137AB02E690FF2542AB0F5005F04461FFA81F9CB
S1137AC004D340F227515046FEF7DAFA02F0E6FFFB
S1137AD083466969E86908B9711A03E05FEA080234
S1137AE002D0411A4E1009E0301A4010064680B206
S1137AF020B940F24D515046FEF7C2FAB6B24E4597
S1137B0014DB6F6907EB49006861E86928B1B8F1D3
S1137B10000F04BF00EB4900E86100207C80B880BE
S1137B20F88038800834298964182C81584602F07A
S1137B30B2FF3846BDE8F24FFDE4F8B504460D4601
S1137B40164600210A20FFF7A9FF0746FFF7FCFCB1
S1137B5048B10681C0F80A40018841F4004101801F
S1137B60C0F80E503846F2BD70B504460D461146B5
S1137B702846FFF793FF06463CB1300005D0FFF7D7
S1137B80D2FE2A462146FDF7D7FD304670BD38B5F2
S1137B90044602F083FF054600222146534804F0C0
S1137BA085FE2846BDE8324002F075BF38B502F0C4
S1137BB075FF044600214D4804F0CEFE05462046DC
S1137BC002F069FF284632BD44484188481E80417E
S1137BD0C00F70472DE9FE4F04468846208816469C
S1137BE09B46FFF7B1FC0746FFF79EFC18B940F22D
S1137BF09161FFF714FF38880104354603D53889AD
S1137C002D183D8167E000F077F8019000F070F8DE
S1137C10814602F043FF00968246304E70698145EA
S1137C201DD1FFF763FCA84203D2504602F033FF94
S1137C3021E001982D18BBF1000F7D8008D0208829
S1137C40FFF771FE019B009A41461844FEF766FB5C
S1137C5000F04EF87061504602F01DFF3BE05046C4
S1137C6002F019FF00F048F82D180021A8B2FFF720
S1137C7015FF070001D11A202EE000F03DF805465B
S1137C802088FFF750FE06463846FFF74CFE2A468A
S1137C903146FEF743FBBBF1000F384609D0FFF72E
S1137CA042FE00F028F8009A41462844FEF736FBCD
S1137CB007E0FFF738FE00F01EF80099284403F0AF
S1137CC065FC20880121FFF7AEFE024601213846FB
S1137CD0FFF7BCFE27800020BDE8FE8F387200202D
S1137CE0086300200C6300202C6500203A720020F9
S1137CF03846FFF73DBC054620882CE6756E636C5C
S1137D0061696D65640000006275666665722D6D5B
S1137D10616E6167656D656E742E630038B50446E7
S1137D200D462088FFF717FE29468842208803D392
S1137D30FFF72AFE002032BDFFF70DFE2D1AEAB22E
S1137D40204601B0BDE8304000230021FFF742BFC8
S1137D502DE9F0410546884617461E464046FFF782
S1137D60E2FDC419300018BF002C1CD04046FFF7B8
S1137D70F2FDB919884202DA1D2100F039F806989B
S1137D80010003D132462146284604E00128324648
S1137D902946204603D1BDE8F041FDF7CDBCBDE83E
S1137DA0F041FEF7BBBABDE8F08138B504460D4694
S1137DB0FFF7D1FD854202D32A2100F019F82046AD
S1137DC0FFF7B1FD284432BD70B505460E46FFF7F6
S1137DD0AAFD040009D02846FFF7BDFD864202D360
S1137DE0322100F005F8A05D70BD002070BD0000D8
S1137DF089A0FEF745B970B504460D461646FFF74F
S1137E00AAFD854202D33C21FFF7F2FF2046FFF78B
S1137E108AFD00B1465570BD38B50446FFF79BFD99
S1137E2005462046FFF77FFD2946BDE8384000227D
S1137E30FFF79ABEF8B50546069C0E461F46104647
S1137E40FFF771FD07442846FFF76DFD22463946CA
S1137E503044BDE8F840FDF76FBC70B500F02BF876
S1137E6000F003F8301880B270BD0602294620469F
S1137E70AAE7E0B58DF804200123120A8DF8052045
S1137E8000930A460146022301A8FFF761FF07BDDC
S1137E90F8B500F010F8FFF7E8FF8619E91CC9B23D
S1137EA0FFF7E5FF0702AD1CE9B2FFF7E0FFC019D9
S1137EB006EB0040F2BD0D46691C0446C9B283E7D7
S1137EC00EB430B50446002180B2FFF7E7FD054645
S1137ED0FFF729FD290008BF00200BD003A90022C9
S1137EE004E051F8043B00F8013B521CD3B2A34216
S1137EF0F7D3284630BC5DF810FBF8B505460E46AE
S1137F00174600212020FFF7C9FDADF80000FFF758
S1137F100AFD0446BDF8000060B13B46324620210C
S1137F20601900F020F82D18E9B26846FFF7F6FE54
S1137F30BDF80000F2BD1CB504AC009400F001F8DB
S1137F4016BD10B514461A46029B2044091BBDE811
S1137F501040C9B207E00CB480B502AAFFF7CDFF08
S1137F6002BC5DF80CFB2DE9F047044688469146B7
S1137F709A46254600260AE03A462846ED19FDF7BA
S1137F80DBFB7F1EBE19761CF6B209F101094645DA
S1137F903CDA99F80000002838D0312818BF32287C
S1137FA00ED15AF8041B05F8011B3228EBD1761CBC
S1137FB0F6B2B045A4BF091205F8011BE3DA25E0C7
S1137FC034280ED1311D5AF8040B88451EDB287065
S1137FD0020A6A70010CA970000EE8702D1DF61CCF
S1137FE0D1E7A0F133025AF8041B072A38BFA0F1E5
S1137FF0300707D3A0F14102072A34BFA0F13707A5
S11380005AF8047BFFB2B8194045B5DB2C1BE0B22B
S1138010BDE8F087000000006C65676163792D702E
S113802061636B65742D6275666665722E6300000C
S113803000F1010310F8011B11B110F8011BFBE75B
S1138040C01A7047010008D4012200F01F01DFF8B4
S1138050A4378A40400943F82020704701000CD41B
S1138060012200F01F01DFF890378A40400943F8ED
S11380702020BFF34F8FBFF36F8F7047010008D4E8
S1138080012200F01F01DFF874378A40400943F8E9
S113809020207047C26C1143C1647047012803D982
S11380A0103801D0103801D10120704700207047EA
S11380B010B5DFF84C4730B1012807D0102802D0A2
S11380C0202803D004E00020204410BD1C20FBE73E
S11380D040F28311DFF83C08FDF7D2FF204610BDC3
S11380E0426893884089411A8B4201DA0120704723
S11380F0002070477FB50446FFF7D0FF00283BD02F
S1138100204600F077F890B300F0D2FA054602F06A
S1138110C5FC0646A86901AB6A4602A905F0CEFC77
S113812000992A89286889B200F027F8304602F0BD
S1138130B2FCA86905F039FD012818D12A682989FB
S113814090882A8A091A914211DBA86990F83110A3
S1138150022903D105F0B0FC022804DAA86990F8DA
S11381603110012903D1A869002105F0F7FC200092
S113817014BF102CFDF7D5FB7FBD70B504460E4629
S1138180154602F08BFCE288B2420CD221888B1A8D
S1138190991991FBF5FC05FB1C152580A388F318A0
S11381A09A1AA280E68000F0EABBF8B504460D46B0
S11381B0164600F01FF8B0B100F07AFA0446207BAE
S11381C010B101216173F1BD607B18B12046BDE897
S11381D0F240BAE00FF2D91700F006F818B100F037
S11381E003F80028FBD1F1BDA0693B46324629467D
S11381F005F0A0BD012818BF202801D10120704737
S11382000020704770B506460D46FFF751FF012E5A
S113821018BF202E044643D1A069016890F83200AB
S1138220E0B904228A6400F057F9A06900683DB1FE
S11382300421FFF72FFF0B20FFF704FF052107E0C0
S1138240C16C21F00401C1640B20FFF707FF00217A
S1138250A0690068BDE8704005F028BE04204863AA
S113826000F03AF9002DA0690BD001688A6B42F046
S113827004028A634FF40061DFF878251160052158
S113828009E00068816B21F0040181630B20FFF792
S1138290E5FEA06900210068BDE8704005F0AEBEAF
S11382A070BDF8B50446DFF8700681421D462AD039
S11382B00026F2B21C20DFF8481542438F18BB6930
S11382C0A3421CD13A893868A9B2FFF756FF38682F
S11382D00021C18002E0384600F016F8204605F07F
S11382E0EBFB02280BDC3889F9893A68A0EB4100E2
S11382F091888842EFDA0121204605F02FFC761C94
S1138300F0B20228D5DBF1BD70B50446DFF80C36B7
S1138310E089668A2568024670432E18A06906F132
S1138320080105F0C3FCA06905F0C6FB012803DDC4
S1138330A069002105F012FC608AA18A401C90FB10
S1138340F1F201FB1200608270BDFEB50446207B91
S113835068BB60680FF259064188084400F10807B9
S1138360A0696B4601AA02A905F0C7FB61688A8867
S11383700098019D121A551B4A88088890420ED213
S11383806189A0698A1A3346394605F0D3FC70B96D
S11383906268618950886D1A451902F10807A0695D
S11383A03346EAB2394605F0C5FC00B96073F7BD3F
S11383B02DE9F041054698460027F9B21C22DFF862
S11383C0400451434418A369AB4218D160688188C2
S11383D0414534BF8688464602F060FB61684A889E
S11383E012FA86F1628991FBF2F302FB13116268BF
S11383F0518061688A88961B8E8002F04CFB7F1C3A
S1138400F8B20228D9DBBDE8F08138B52020FFF7A7
S11384104FFE0546DFF80805A96991F83120012AC5
S11384203FD101690A0640D505F0B0FD112809D1F4
S1138430A869002105F09FFB002028732846BDE8A9
S1138440324082E7132806D1A869012105F093FB85
S11384500120287331BD29682A898C88141BA4B291
S11384605CB101F10802098850542868018800F0C1
S113847095F901808188491C8180A86905F095FBE4
S113848020B9E889A04210DB012105E001280CD1C4
S1138490288A844209DB0021A869BDE8344005F03C
S11384A05DBBC16C21F00401C16431BD10B5DFF8BE
S11384B0704428B92046BDE81040002105F0F6BC00
S11384C000F00AF8DFF82C134FF400600860E26C47
S11384D042F00402E26410BD0B20CFE580B530B950
S11384E0BDE804400521DFF8380405F0DFBCFFF7E0
S11384F0F3FFBDE802400B20B0E5F8B50C46154685
S1138500FFF7D6FD0646306881883289E8B2121A30
S1138510914201DB0120F2BD00270EE002F0BEFA19
S1138520316814F8012B01F1080309885A547F1C9F
S113853031680A88338900F051F9AF42EED3002044
S1138540F2BD10B5012818BF20281CD1FFF7B0FDDB
S11385500446A06905F088FA800414D56168888807
S113856088B9A06905F0C5FA002802BFA06990F88F
S11385703210002907D105F077FA00F44030401E8C
S11385808041C00F10BD002010BDF8B5012804467D
S11385900D4603D9103801D0103850D1204600F0D0
S11385A0F5F910B9204600F085F800F081F8064688
S11385B000F07EF821000FD0012C03D0102C0BD03A
S11385C0202C3CD1DFF85C13DFF85C2301608023AE
S11385D042600381438109E0DFF85023DFF8501340
S11385E0026041604023802103814181200018BF43
S11385F0102C03D1BDE8F140FDF7AEB8012C18BF33
S1138600202C53D1012C16BF202CDFF82803002086
S1138610012C18BF202CB06111D1DFF81C13DFF836
S11386201C03E961A861A98CF181EB8C33828B4234
S113863007D21C21304603F0CBF90220F2BD012001
S1138640F2BDB26992F8310001280CD0308990FB58
S1138650F1F701FB1700002802BF93FBF1F001FBC7
S113866010310029E5D12946104604F0C3FDF0B9C4
S1138670B069017F007E01230222FEF7E8FA287C1C
S1138680012808D101212046FFF7BCFDB069002173
S113869005F064FA0AE0002070823189F08991FBC8
S11386A0F0F0B08200F06FF900F06DF90020F2BD37
S11386B02046FDE458B50128044603D9103801D0FA
S11386C0103812D1204600F061F9E8B9204600F0D4
S11386D037F9FFF7EDFF012C18BF202C06460FD108
S11386E0B06905F0C2F810B152BD012052BDB069A5
S11386F090F83110012903D100212046FFF782FDB3
S11387001C21304603F064F9002052BDF8B5074639
S113871001280E463C4603D9103801D010380BD13D
S11387203846FFF7C5FC05463846FFF7E3FC2968E1
S1138730888818B92620F2BD0120F2BD02F0AEF9F6
S11387400746286800F1080140880A5C32702868EE
S1138750418800F023F8418081884A1E012C18BF0B
S1138760202C828015D1A86990F83110012903D1F9
S11387700FE02846FFF7C8FDA86905F09DF9022817
S113878007DA2889E9892A68A0EB410091888842A0
S1138790EFDA384602F07FF90020F2BD2A89491C3D
S11387A091FBF2F302FB1311704780B5FFF780FCD5
S11387B001464A6848899188401A80B202BD02B5D0
S11387C0012804D9B0F1100101D0103904D10122DB
S11387D0694600F017F802BD012002BD521C92FB4D
S11387E0F3FC03FB1C220A808A88521C8A8002F054
S11387F052B9000000E100E080E100E080E200E026
S1138800086D00202DE9F84F0128804604D9B0F105
S1138810100301D0103B10D1002818BF102889463E
S113882092460CD0FFF744FC064600247068018889
S1138830084400F1080B00252FE0012045E05146D3
S11388404846FDF7F0F93FE002F028F971680B881B
S113885019F8012B19440A7271680A887389521C29
S113886092FBF3FC03FB1C220A808A88521C8A8038
S113887009884F1EBF4102F00EF9FF0F67B1EFB236
S11388807F1C3F1BFAB259464046FFF78EFC7068C6
S11388903C19E4B200F1080B6D1CE8B250450AD251
S11388A000213046FFF71CFC0028CDD1307B002886
S11388B0F6D0222009E0544506DAAAEB040082B27D
S11388C059464046FFF771FC0020BDE8F28FF8B529
S11388D00124012807460E46154603D9103801D055
S11388E0103815D1380018BF102F04D1294630464E
S11388F0FDF799F900243846FFF7DAFB012F18BF7A
S1138900202F05D180692A46314605F050F90446E6
S11389102046F2BDE01C0300097000F0A3820000B1
S113892000000140F86B0020806C0020286B0020C0
S1138930706B00202C6900208862002008620020EF
S113894070B50546FFF7B4FB0646012D346818BF21
S1138950202D0DD1B06990F83110012908D00221E1
S113896004F0F2FF0020708200F00DF800F00BF824
S113897002F094F80021A18021806180E180BDE8AB
S1138980704002F088B83046FFF7BEBC80B50128BD
S113899004D9B0F1100101D0103906D1FFF788FBDA
S11389A000281CBF0068002801D1012002BD00205E
S11389B002BDFEE720B5002192A2CBB2D35C834274
S11389C005D0491CCDB2082DF7D3002020BD0120CD
S11389D020BD000020B500218CA2CBB2D35C834221
S11389E005D0491CCDB2082DF7D3002020BD0120AD
S11389F020BD5E48B0F8E20070475D4870475D48AE
S1138A00007870475C48007870475B49087070478D
S1138A1038B55A495A4C087002285A495A4D13D14C
S1138A202878042809D0084605F02EFB2878032866
S1138A301EBF0428204605F027FB54480168CA00DD
S1138A4054BF9024BC240FE000200870207005F06F
S1138A5080FC2878032818BF042802D105F062FDA1
S1138A6001E006F06DF89124204606F0C5F850B9EF
S1138A70234613223CA10320FBF793FC2046BDE8C8
S1138A80324006F084BE31BD3C48007800F00F004F
S1138A9070473A48017801F00F01022901D1012001
S1138AA070470020704710B504463448007800F041
S1138AB00F0102291CBF0328932092B017D100F0A4
S1138AC08FF8BDF8020020819DF80100A0722046B5
S1138AD09DF80010E17208F04BF90020207304F1B6
S1138AE0140104F1100008F027FAE081002012B00C
S1138AF010BD10B50C462149097801F00F02022A75
S1138B001CBF0329932092B00ED16A46002108F0BD
S1138B1053FC9DF801002070002161709DF8000055
S1138B2000F01F00A070002012B010BD10B500238B
S1138B3000E05B1CDCB28C4205D210F8014B94427D
S1138B40F7D0002010BD012010BD082108F062BF3D
S1138B500A48007801281CBF3128332801D101209C
S1138B6070470020704700004242000098770020C0
S1138B707C780020E97C0020877B0020E67C0020B4
S1138B80586D002094740020E57C00206477002058
S1138B9038B5044692B02146002000F0C6FA0546D6
S1138BA0C0B250B96A46002108F006FC8DF80140B5
S1138BB06A460021002008F085FBE8B213B030BDFE
S1138BC080B592B000F00CF89DF9010013B000BD1F
S1138BD080B592B000F004F89DF8000013B000BD19
S1138BE06A460021002008F0E7BB0120704780B5E9
S1138BF092B0FFF7F5FF9DF80000400918BF01206F
S1138C0013B000BD0001020304051D200203040586
S1138C1008090A0B38B5044603F052FD0546DFF88F
S1138C20D80783780178994212D0DFF8D007006B17
S1138C30641E07D0641E08D0A41E06D0A41E032CF4
S1138C4003D905E00022194600E0002208F00DFFD8
S1138C50284632BD2DE9DC4FDFF8A04703EA010BBB
S1138C60D4E90A6727EA010926EA000802EA000AA9
S1138C7049EA0B0948EA0A08B94508BFB0450ED0CD
S1138C80CDE90023C4E90A890246206B0B4609F0AA
S1138C9019FA20B1BDE8DC4F40F2751113E2BDE8CA
S1138CA0D38F000070B58AB00DF108004DA1DFF834
S1138CB04C472022FDF732FB208CC10700F1908045
S1138CC00121012000F03CFF0A204FF42871607359
S1138CD0ADF80E10DFF828070FF20D71DFF82457F6
S1138CE008F0A5FE206318B940F2B91100F08AF823
S1138CF0206B052109F008F818B140F2C11100F009
S1138D0081F8206B02F0B7FCDFF8FC060168206BE9
S1138D1009F04EFA00F05BFA0C2610FB06F0ADF8F1
S1138D201A0000F054FA10FB06F0ADF8160002A980
S1138D30206B09F063FA18B14FF4EB7100F062F89C
S1138D40206BDFF8C816002209F0E2FA18B14FF4DC
S1138D50ED7100F057F80320052120706170A170B7
S1138D60002601F001F8E07000F031FA142110FB44
S1138D7001F0A08000F02BFAC000E080A6604FF064
S1138D80FF30DFF88C2640F242330146FFF762FFE2
S1138D90206BDFF8F41A09F009FB206B01A909F034
S1138DA087FB18B140F2052100F02CF8206B042257
S1138DB0694608F068FE042803D040F2092100F057
S1138DC021F86946012009F094FB09F0F7FC012021
S1138DD000F072FF03F072FC01F041F800F091FD25
S1138DE00AB070BD0000000001000000020202028F
S1138DF064000000640000000000000000000B009C
S1138E00000000002846FDF73BB938B5DFF8EC4513
S1138E10208C820703D54FF4097100F0BCFA0021BD
S1138E20217601F03BFE0546208C410709D509F067
S1138E30EDFCA16B401A40F2C532904201D300F020
S1138E4067FA00F08EFF607B042820D101F026FE33
S1138E500546208C41072BD400F083FF01F01EFE51
S1138E600546606B401C09F03EFD00F0200001281F
S1138E70ACBF062005206073012100F04EFA00F01B
S1138E8095FF00F06EFF606BC178617431BD0628F8
S1138E9030D1DFF86405C179FF2937D109F038FDF5
S1138EA0207C20B301F0FAFD0546208C410706D54D
S1138EB004F1180005F0E8F8284600F04FBE00F071
S1138EC050FF207C411E217401F0E8FD044601217D
S1138ED000F023FA00F06AFF204601F0DCFDBDE853
S1138EE0384000224FF6FF71042009F085BD6073FD
S1138EF0402007E0012809D100206073206B08F0AE
S1138F00BCFD3F20BDE8324000F0FABD31BD70B574
S1138F10DFF8E844607B0E46154618B140F29A210A
S1138F2000F039FA2900666303D0A17811B1012158
S1138F3000E00021202000F003FEDFF8700A017831
S1138F402174002D14BFE07B0020A0730420607303
S1138F5004F1180005F098F8BDE87040DFF8500AF5
S1138F60007805F090B92DE9F04101F097FDDFF8A4
S1138F708C548046288CC10506D5687B10B900F056
S1138F80C0FC01E000F08AF800210020FFF742FE57
S1138F90DFF86464B079FF27FF2818D0B07928B9C6
S1138FA0B7710024687B052811D105E0B079B77149
S1138FB001280CBF4C24332400206873404601F080
S1138FC06AFD204600F09CFD01F068FD8046687B48
S1138FD0062833D1F079FF2830D0F079022804D163
S1138FE005F1180005F050F828E0F07900281CBFBE
S1138FF0F079012826D100F0BFFD0446F07901285C
S113900018BF00200021002C297618BF0028F77112
S113901009D001206873642105F1180005F03FF8B8
S113902000F047FC0BE06973404601F034FD002C6E
S113903014BF3F20002000F063FD03E0F7714046B9
S113904001F029FD288C0006C00F05D000218020E6
S113905000F076FDFDF710F8FEF7A8FD0024688403
S1139060D0B1687B012806D10021002029766873DD
S1139070012408F0DDFA687B08B900F042FC698C31
S1139080002008F00DFB002068842CB1687B18B91F
S1139090BDE8F04108F000BBBDE8F08100214FF4C9
S11390A0807000F04DBD80B5FEF78EFD7AE080B58E
S11390B000F019F809F01DF920B1BDE804404FF49F
S11390C0697100E001BDDFF83C03FCF7D9BF80B54E
S11390D000F009F809F0FEF820B1BDE8044040F2C0
S11390E0AB31F0E701BD10460A46DFF8C838014647
S11390F0186B7047C148417B481E8041C00F7047C0
S1139100DFF8B008417B012901D10120704700201C
S1139110704780B5B949487B18B140F2CB3100F0B3
S11391203AF900F0EEFB002002BD80B5DFF8843888
S1139130186B0A2211FB02F109F000F800B121209A
S113914002BD80B5DFF86C18086B09F01AF80A2123
S113915090FBF1F040B202BDA7480079704738B5E2
S1139160A64D687B002818BF01280C4603D04FF495
S11391707B7100F010F92146002000F00EF808B9C8
S1139180212032BD9C490C71687B10B900F0B9FBF9
S113919001E000F08EFB002032BD80B59748006BE3
S11391A008F01CFE401E8041C00F02BDDFF8041809
S11391B0C870704780B5DFF8FC27106B012108F0F8
S11391C01CFD411000EB91708005001602BD80B5B6
S11391D08A49086B08F0B5FD00281FBFDFF82C1C76
S11391E0B1FBF0F080B2002808BF012002BD80B5B9
S11391F08249086B08F0A9FD00281FBFDFF80C1C8A
S1139200B1FBF0F080B2002808BF012002BD10B508
S11392100C46012100F020F8FFF7D9FF4443DFF8A2
S113922094070FF20523006B0122214608F090FCFD
S1139230002010BD10B5DFF87C47208CC20603D493
S113924040F2594100F0A7F800F005F8206BBDE8A2
S1139250104008F08ABC0021102000F071BC09F015
S1139260D5BA10B5DFF84C47206B09F010F9C007E8
S113927004D5206BBDE8104009F00EB910BD80B5CF
S1139280DFF83007006B0122012108F0F2FB002116
S11392902C20FFF7BFFC00F0FBFAFEF7A9F8BDE8AD
S11392A00240002000F039BC38B5544C48B100F0FD
S11392B02FF8607B01282AD1206BBDE8324008F0EA
S11392C0DCBB00F0E3FA10B30020A0734A4DA87988
S11392D0FF2803D040F2EB4100F05DF800F01CF8E9
S11392E00020A871617B062906D1012100F079F8DC
S11392F000212820FFF78EFC607B052806D1002181
S11393002B20FFF787FC206B08F0B7FB64E031BD2E
S11393100021042000F014BC0021022000F010BC45
S113932038B50C4610B1FFF7F3FF29E000F0AEFAB0
S113933030B3012C314D14D1A87B90B1401EA873D9
S1139340C0B218B90021202000F0FAFBFFF7E4FFB7
S11393500420687305F1180004F096FE00F090FAFA
S113936010E00020A873FFF7D7FF234DA879FF284A
S113937003D040F2225100F00EF8AC71FCF77BFEF2
S1139380012C07D1BDE8384000224FF6FF712020A0
S113939009F032BB31BD1B48FCF772BE38B5174D1E
S11393A0184C6A7B062A03D040F25F6100F004FB8C
S11393B0082000F0D7FB18B94FF4CC6100F0FCFA98
S11393C0297C2A20FFF726FC00F00AF80A4902202B
S11393D0C871286B08F051FBBDE83140FCF74BBE67
S11393E000210820ACE30000DFF8A41A0020487331
S11393F001214FF48070A3E390630020A86800204B
S1139400A4630020B89E00006C63002088770020CD
S11394100A0020FF01A0FCF733BE00006C696272F1
S113942061696C2E6100000080B5102000F09AFB89
S113943018B940F28161FFF7AEFFFFF70CFF00207F
S113944008F0E6F9BDE80140FCF715BE2DE9F84F38
S1139450144614F0C00F8CB00546984605D000F0B1
S1139460D7FC01460120FFF7D5FBA002029525D5C4
S1139470284609F04EFB08BB00F012FA029803A933
S113948008F06AFFD0B99DF81400022809D1BDF88C
S11394900C0009F029FCFF2809D009F089FC30B937
S11394A00CE003280AD103A809F0EDFD30B10298BD
S11394B008F050FF10B9012100F0F3F9A00305D51D
S11394C000F0A6FC01460320FFF7A4FBE001DFF84F
S11394D0E45403D50020FFF7E7FE38E0687B18F07A
S11394E0020308D006280CBF012100212620FFF723
S11394F091FB012112E0E10005D506280CBF0121F2
S11395000021262007E014F0884F0BD006280CBF5A
S1139510012100212720FFF77DFB02210020FFF716
S1139520FFFE14E018F0080103D000212320FFF708
S113953071FB18F0040103D000212420FFF76AFB1B
S113954018F0010103D000212520FFF763FB210758
S11395500FF664196DD5286B07AA032108F022FFC2
S113956006004FF0000A03D140F2425100F09BF98B
S11395709DF81C00072867D1286B03AA314608F020
S113958019FF18B140F24C5100F08DF9BDF81E10CE
S1139590286B891C03AA89B208F010FF18B140F2A5
S11395A0565100F080F9CDF800A00423286B01AADD
S11395B0314608F01DFF042803D040F25D5100F04D
S11395C072F90DF1050009F08EF900F00700022888
S11395D0DFF8C0B82ED100F01BFC01460920FFF7CC
S11395E019FB687B062802BF9DF80700697C884246
S11395F01FD19DF8150018B940F26E5100F053F9CF
S11396000DF1050009F06FF900F010000028C8BF43
S11396104FF0010A51462920FFF7FCFAFFF7E0FE5C
S11396208BF807A000F0A8FA002802D1286B08F0F4
S113963024FA90E0BDF81E000830012180B2FEF744
S11396402DFAADF8000030B900F0E2FB0146042029
S1139650FFF7E0FA7FE0FEF766F9BDF820200999EC
S11396600646FCF75BFE0A9941B1BDF82000BDF83F
S11396701E20121A92B23018FCF750FE701C09F02A
S113968032F900F0200000282EDD00F0C1FB07466F
S1139690286B09F03EFA002814BF0620052039463D
S11396A0FFF7B8FA701C09F01EF900F00700032850
S11396B009D109220121304609F074FF305C0428E5
S11396C008BF012700D000270121FFF722FE09F07F
S11396D09DF8A863A7B1402000F044FA80B100F0DF
S11396E0DFF84FF0010A0BE000F092FB014609207D
S11396F0FFF790FA687B012804BF286B08F0BDF9D6
S1139700BDF81E009BF8051037183970FF219DF82D
S11397101600B8709DF81700F87039710398000CA2
S113972078710398000AB871BAF1000F0398F871C0
S1139730707814BF40F0200000F0DF00707000204B
S113974008F029F97870BDF80000FEF720FA00F05F
S113975097F8FCF790FCE00505D500F059FB0146AD
S11397600420FFF757FA14F4863F05D000F050FBAD
S113977001460220FFF74EFAA00108D500F048FB8D
S113978001460820FFF746FA0120FFF78DFD14F08B
S1139790084F05D000F03CFB00F07EF800F086F89E
S11397A0A00007D500F034FB01460620FFF732FA8B
S11397B000F07CF8A00705D5082000F0D3F908B123
S11397C0FFF7ECFD18F040010DD000F061F808201F
S11397D000F0C8F908B1FFF7E1FD042000F0C2F978
S11397E008B100F063F818F080011CBF012009F0F3
S11397F031FF18F4807139D0029808F034F9022846
S113980002D0032814D02DE0042000F0ABF928B1D5
S113981000F0FEFA00F040F800F048F800F036F8E6
S113982020B3687B06280CBF01210021272012E009
S1139830042000F097F928B100F0EAFA00F02CF8BF
S113984000F034F800F022F880B1687B06280CBFE1
S1139850012100212620FFF7DDF901210020FFF777
S11398605FFD03E040F2177100F01DF818F4007179
S113987003D00121802000F063F90DB0BDE8F08F22
S11398804B48007804F0FFBCBF9B0000022069E154
S113989000210A20FFF7BEB901460720FFF7BAB935
S11398A0002140204CE14846FCF7EABBFF2101209F
S11398B036E57FB5684600210022002380E80E00CB
S11398C0DFF8D045DFF8C86525788DF8005001F041
S11398D0E5F8054660792179884204D1306B08F0B7
S11398E0C6F801280AD1217961716A46306B08F003
S11398F077F918B140F2FA71FFF74DFD00F031FA33
S11399007FBD70B50020FFF7F5FB0FF2AC5418B91A
S113991040F65B0100F050F801F0C0F8054606205F
S113992000F020F918B10121FFF7B9FB3BE0FFF784
S1139930B5FB002008F01AF802281E4E02D1306B45
S1139940802208E0002008F011F810B101280DD0A1
S113995025E0306B0022802109F080FE012000F018
S1139960DCF8FDF747FDFFF7A4FF1CE0306B08F0BF
S113997084F8306B08F07BF801280AD0306B0122A0
S1139980012108F076F800212C20FFF743F9FFF7B6
S11399907FFFFDF72DFD002000F0BFF803E040F647
S11399A08A0100F009F82846A5E10000DC670020E0
S11399B0DE7C0020A86800202046FCF761BB2DE96E
S11399C0F84F012009F0A0FEFFF760FF00260FF218
S11399D0E84818B940F6980100F08FF8DFF8B05461
S11399E0687B062818BF052803D040F69B0100F0C9
S11399F084F8686B18B940F69D0100F07EF82020C9
S1139A0000F0B0F800281ABF4FF47A760121002143
S1139A102220FFF7FFF8FFF7EAFB696B0A780932A7
S1139A20504306EBC006687B06280AD1FFF7CFFB3C
S1139A308346FFF7DCFB60210C24484304FB0B0B3B
S1139A405E446C6B2078A0F1010BE87C4FF00009B8
S1139A5048B9601C08F047FF00F020000028C8BF88
S1139A604FF0010A00DCCA46DFF8287478783872AF
S1139A70B6B2BAF1000F3E6118BF4FF0010908F009
S1139A803FFF38B108F03AFF01280CBF082010202E
S1139A9040EA0909286B80235FFA8BF2214608F01B
S1139AA067FC3E797E7120202C6B00F05BF8B0B12E
S1139AB007F1080000902B464A463146204608F03C
S1139AC06AF838B15146262002F0FAFD40F65401F6
S1139AD000F013F8BDE8F24F002009F015BE07F1BD
S1139AE008034A463146204608F045F80028E8D1E4
S1139AF000212520FFF78EF8ECE74046FCF7C0BABA
S1139B0010B50446FFF7FDFE2146002007F090FD46
S1139B10BDE81040002007F0BFBD10B5044600208A
S1139B2007F024FF01280AD1DFF86C03027894427D
S1139B3005D004702046BDE81040FDF764BC10BD9C
S1139B4038B504460D4600F0A9FFDFF844130A8C2B
S1139B50002D14BF144322EA04040C84BDE83240EF
S1139B6000F099BF0146DFF82803028C11EA0200D5
S1139B7018BF0120C0B2704710B5DFF81443606B02
S1139B8018B940F60211FFF706FC606B401C08F0A0
S1139B90AAFE00F0070003280AD1606B0922012104
S1139BA009F000FD616B085C042801D1012010BD9F
S1139BB0002010BDDFF8E4124008085C704710B5BF
S1139BC00C464FF0FF3009F0A8FDDFF8C412241A48
S1139BD0086B09F0A2FD241A14F1630F01DA0020C6
S1139BE010BD14F1240F01DBFF2010BD64342402E6
S1139BF0601104EB9064A404200E10BD80B5FFF73F
S1139C0072FA08F085FB28B1BDE8044040F64A1119
S1139C10FFF759BA01BD704780B500F004F9012877
S1139C2001D0012002BD002002BD10B5DFF8603272
S1139C304C000146186B224607F025FFA04201D0D4
S1139C40002010BD012010BD042801DB0220704754
S1139C50DFF83C12C87300207047DFF83802DFF8E1
S1139C6030320179186B012207F0ABBF0BE0DFF84B
S1139C702402DFF81C320179186B002207F0A1BF1F
S1139C800000000000BFDFF80802006B07F0A3BF6C
S1139C9010B50446DFF8F801018CCA070BD5611E24
S1139CA08941006BC90F08F042FB2000DFF8F01176
S1139CB018BF0120087010BD70B5DFF8E8510646E2
S1139CC000F0ECFE2E700446DFF8C461308CC1074E
S1139CD010D5307B022804DA28B102F0E5FCC00577
S1139CE001D5012103E02878411E8941C90F306B59
S1139CF008F006FF2046BDE8704000F0CCBE00200E
S1139D00704738B57F28044611D14FF6FF70664D71
S1139D102988ADF8000002237F22684609F065FD1A
S1139D20BDF800006FF04A04C10558BF044600F0B6
