S03C0000786E63702D636F6D6D736875622D756172742D6475616C5F65667233326D67317031333266323536676D34385F62726434313535612E733337A2
S1134000485500206570030079BD0000ED6B030086
S1134010A70A0A010041000004180CAC206A0B0135
S1134020000000000000000000000000000000008C
S1134030000000002C7703000000000000000000D6
S11340400000000000000000FFFFFFFFFFFFFFFF74
S1134050FFFFFFFF00E0030000000000000000007D
S1134060FFFFFFFFFFFFFFFF100000000000000044
S1134070000000000000000000000000000000003C
S11340800000000000000000B47C0020B47C00208C
S1134090485500202F9B0300EA700300E84B0020E2
S10F40A0101200200000040000000000CA
S1134100485500206570030079BD0000ED6B030085
S1134110893D0100F16B0300F56B03000000000012
S1134120000000000000000000000000EB5D000043
S1134130F96B0300AF50000057610000DB7B000007
S1134140993F01005D1B0300314B00006916030019
S11341509B1B0300631B0300651B03005F1B030021
S1134160019C0200819E0200CD950100BFD6000093
S1134170016C0300016C0300DB6D0300016C0300A0
S1134180016C03008F9E0200016C0300016C0300AC
S1134190016C0300016C0300016C0300016C03005B
S11341A0016C0300016C0300016C03009D1B030000
S11341B0611B030045B30200D11B0300016C030023
S11341C0596F0300016C030000420F48816B89B2F0
S11341D001B1012141F67132826346F21A32036859
S11341E043F001030360C2644FF480734360426987
S11341F0D307FCD40022C264C9B203685B085B0025
S1134200036001B182630020704708000E40000083
S11342101521054800F00EF8FEE780B500F01CF902
S11342200249086001BD0000EC7003008C550020B9
S113423042DE704738B504460D4600F048FC00F0F5
S1134240B4FC00F0D5FC2946204600F0D7FC2B46F0
S113425022466C49012000F096FE29462046BDE81E
S11342603440E5E768482DE9F843684E0168B165D4
S11342704FF42068026A6649F2650B683366496840
S11342807166426AB266816AF166C26A3267016B1C
S11342907167806B96F83810B06748074CBF346C70
S11342A0F46B00F0CFFE002232658442594B014684
S11342B024BFA3F12007A742A146716506F190022D
S11342C0DFF854C1DFF854E118D3A0697064E469DD
S11342D0B464B56DC5F30805062D13D1704511D32B
S11342E060450FD200884DF64264A0420AD170683E
S11342F0B4685060946040F2017803E00024746470
S1134300B46481464648814202D2014600E0091D58
S11343100846984203D20C68B4F1CD3FF7D0414926
S1134320081AF0640021002006F17C04C5B2401C88
S1134330C7B244F82510062FF8D3002099452CD293
S113434053F8041D7145F9D36145F7D2CC07F5D56F
S1134350002406F17C0555F824708F4202D0641CB9
S1134360062CF8D3062CE9D1C4B2002C0CBF0520CE
S1134370401E06F17C04C5B244F82510DEE7F16F57
S1134380002306F17C0506EB8304D4F8804045F84D
S113439023405B1C042BF6D911600146481EC9B2A8
S11343A00029ECD1B06DC0F30800032810D0042814
S11343B011D0052812D0062813D00C2817D01228A3
S11343C018D119480268910719D540F2025816E02D
S11343D040F6012813E040F6022810E040F60328D6
S11343E00DE0B8F5206F0AD140F6042807E040F646
S11343F0052804E018B1322838BF40F607284046A3
S1134400BDE8F283B472030004ED00E00000002074
S113441000E300E048550020EA7003001042000069
S11344209C000020485500201C20054001468AB20B
S11344300AB94BF6EF610F4A1180000C0E4908BF10
S11344404FF6CE200880704702461088030448BF08
S1134450484041001180704710B562210548FFF7BC
S1134460F3FF044641F20B010348FFF7EDFF604000
S113447010BD0000905B0020925B002038B500F076
S1134480C1FA002515725572957215825582FF2363
S113449015711360BDE834408DE2F8B504460D464D
S11344A0200008BF402D1E46DFF8307603D1797A0C
S11344B02A2000F0EDFD14204443300018BF0120F1
S11344C0391908713D51DFF81806007800F00EFF25
S11344D0BDE8F14000F087BFDFE770B504468D2CDE
S11344E01CBF872C8E2C0D46164601D100F09FFF71
S11344F000F002FABDE870400020EDE770B5044614
S11345008D2C1CBF872C8E2C0D46164601D101F034
S113451027FC00F0F1F9BDE870400120DCE72DE94B
S1134520F042054601F058FC1422DFF8B01512FBE6
S113453005F28E183468FF2C76D2FF21316001F029
S113454051FCE0B200281CBF40288F280AD1280063
S113455008D0F168012000F015F9F16809780D31EF
S113456001F048FD002C307A16BF8F2C012700275C
S1134570022803D040F22D1100F000F98D2C18BF51
S1134580872C03D08E2C1CBF0020B072C7B1F068FA
S113459000F032F9A0B1307968B1DFF8480500EBDA
S11345A0C50001213172002DBDE8F0420CBF292164
S11345B0AC2100F09ABD284600F045FA3F212FE0D7
S11345C0284600F040FA402C4FF6FF790BD101F059
S11345D0C0FD707A411E7172F8B100224946042070
S11345E001F044FE15E08D2C1CBF872C8E2C14D1B9
S11345F000224946202001F039FEB07A68B1401EFD
S1134600B072C0B228B9DFF8E01401EB8502536838
S113461058702846BDE8F0425EE007B10024214608
S11346202846BDE8F042FCE001F0DCFB307A0328C8
S113463003D10021284600F0F4F8708A58B101F043
S1134640CBFB748A0021718201F0CCFBE2B22946D3
S11346501D2001F047FE284602F030FA040011D074
S113466001F0BAFB318A4A1E328201F0BBFB2146BB
S1134670284602F0C5FD307A20B92846BDE8F0424C
S113468002F0B0BDBDE8F08280B5002002F0AAFFC0
S11346900020FFF744FFBDE8024001203FE7DFF8B8
S11346A04C241178002900D0704780B501231028CC
S11346B0137003D04FF4E07100F060F8DFF83004B9
S11346C0002141700123DFF81404C168BDE80050E3
S11346D04FF47A720020A2E138B50546012003F0B8
S11346E029F8280015D1DFF80414002008702120CF
S11346F0DFF8001400F0CCFC040018BF012C07D034
S1134700022C05D1002300228E210020FFF7C5FED4
S113471064B92C461420DFF8C41344430819012358
S1134720C1684FF47A72284600F079F9BDE8324046
S1134730002002F0FFBFF8B5154604460E461422C9
S1134740DFF8981312FB04F28F18387A18B140F28C
S11347500E2100F013F8FE6002203872DFF888039F
S113476000EB84014A68DFF8901355700078787282
S113477020460A78BA72BDE8F240ADE70FF29830ED
S1134780FFF758BD38B504464D1C284602F0D8FF43
S113479064B1691D00F44060B0F5406F0CD0084668
S11347A002F0CEFFBDE8324003F0B6B8E91D00F4D4
S11347B04040B0F5404FF2D1BDE83440002003F052
S11347C07DB802F0E1BD10B50446080008BF012021
S11347D0210002D104F0ECF901E006F042F80246AF
S11347E0DFF81813204607F0ABF9002010BDDFF8FE
S11347F00C1307F0F3B9704710B5441C204602F0BF
S11348009FFF00F00700032809D109220021204658
S113481007F018FA205C042801D1012010BD002003
S113482010BD70B5044623461420AC4A43430D46DC
S1134830D61800213172204602F0D4FC29462046C5
S1134840BDE8704002F08FBCF8B504460D4616462C
S11348501F4607F08BFAC0B13FB12846FFF7CCFFE3
S113486018B1687840F0200002E0687800F0DF00BA
S11348706870681C02F064FF800606D52946002093
S1134880FFF780FF122101F0B5FB012231462846D3
S113489002F0E6F801001ED0204602F0F7F82246A6
S11348A014208E49964E42438D182B8A5B1C2B8212
S11348B03088298A884209D2688A401C688205E0C7
S11348C0204602F0FBF8288A411E29823088298A72
S11348D08842F5D3F7E5F1BDF8B500F021F803F00F
S11348E036FC217803F034FC00F006F8E05501B002
S11348F0BDE8F0400020A7E733462A46214670472A
S1134900F8B500F00DF807F09BF8217807F099F856
S1134910FFF7F2FFE05501B0BDE8F040012093E756
S11349200D466F1F0446FFB21646E05D704738B56A
S113493001461423694A13FB01F3D418257A012D87
S113494007D1684B002203F8312000F07CF80321E2
S1134950217231BD0020EAE70120E8E770B5054681
S113496060492E46002001F83600002401F034FA94
S113497014215A4A4E4391190B7A012B02D1032276
S113498001240A7201F02EFA3CB1284600F05BF8CB
S11349902846BDE870403F2143E770BD0020DDE7B5
S11349A00120DBE714214D4A48431044037A581E82
S11349B08041C00F704780B510B1012805D009E0CF
S11349C00846BDE8024003F041BE0846BDE8024087
S11349D006F044BC4FF46471FFE7FFF7CFFE70208C
S11349E002BD02F026BE02F018BE10B500F00AF8AF
S11349F0118A29B902F078F8401E8041C00F10BD19
S1134A00012010BD04461422344B54431A19704734
S1134A1080B5012002F052F80028FAD101BD10B58A
S1134A200C4611461A4610B1012805D009E020466B
S1134A30BDE8104000F0DEBC2046BDE8104001F0A7
S1134A40DDB8702010BD10B5044602F050FD0128F9
S1134A5004D12046BDE8104007F082B910BD1F48BC
S1134A60017A01291CBF007F012801D10120704770
S1134A7000207047042801DB022070471E4908709B
S1134A800020704707F036B907F03BB9012808BF8A
S1134A9005F026BF03F0D9BA07F039B9114607F07B
S1134AA058B9002808BF03F0E8BE06F0B7BA80B5CD
S1134AB010B903F0A4FD01E006F064FB401E804140
S1134AC0C00F02BD114607F036B902F084BD02F0F2
S1134AD0B9BD02F0BEBD03F0A0B800008867002095
S1134AE0847C0020B0670020B8580020797C002026
S1134AF0405900209F460000787C0020C3470000F6
S1134B00965B002080B507F00FF9FF2801D0012043
S1134B1002BD002002BD00006C6F7765722D6D61CF
S1134B20632D656D6265722D7068792E63000000D7
S1134B3007F022B9F8B5274C2748226884B0012130
S1134B400392012707F0D0F901220121012007F087
S1134B5013FC0421072007F02DFD204A92E8680089
S1134B606946032281E868000D218DF808108DF84C
S1134B7009208DF800708DF807706946184D284695
S1134B8007F094FD174904200860022216496A625E
S1134B900860AA6A42F00202AA6203982168884265
S1134BA001D0FFF735FB05B0F0BD0D4807F072BD2D
S1134BB0A52803D100210A4807F053BD70470848CF
S1134BC0006800F001007047084908680028FCD11B
S1134BD0704700008C55002030053E0048730300E8
S1134BE00020054080E200E000E100E008200540EC
S1134BF0602080F31188704707F075BE03460A46AB
S1134C00A7A10420FFE70CB41CB5A74C23680093AC
S1134C1004AA00F037F800982168884201D0FFF711
S1134C20F7FA13BC5DF80CFB0A00034602D09DA101
S1134C301120E8E77047000080B586B008F0C4F89A
S1134C40202204920021994A00926A230591039339
S1134C50029101910246002397A10120FFF7D3FF9F
S1134C6093488179028843790391029201930179EF
S1134C70C37882780091422092A1FFF7C4FF07B065
S1134C8000BD00002DE9F04F874C0E4687B0216827
S1134C9006910546904608F04EF9002700282DD1CC
S1134CA007F097FD002825D00021002001F072FEB6
S1134CB00028ADF804001DD0002101A808F06CF90B
S1134CC0294602A807F08BFD002E05463FD100F0CF
S1134CD0A3F8002812D1BDF8040001F0B8FD8DF846
S1134CE00600BDF8040001F09AFD0DF1060107F07D
S1134CF082FD002877D0042008F005F973E08DF8D0
S1134D000810012522E0BDF8040001F0A0FD58F8C8
S1134D1004AB81461FFA8AF0C0B101F098FD8346C6
S1134D200BEB0901C9B201A808F036F900285AD1E1
S1134D305FFA8BFB5FFA89F9BDF80400CDF800B087
S1134D4000231FFA8AF2494608F0B2F9761C30783B
S1134D500028BCD0A0F130010A2904D20A2101FBA9
S1134D600707303FF2E700F057F800283BD13178CD
S1134D700025422902A80ED044291AD0462925D05C
S1134D8057290DD06229BED0662934D06C292FD082
S1134D90702930D0B3E758F8040B8DF80800B0E759
S1134DA058F8041B8DF8081002250904090E4170F7
S1134DB0CCE758F8041B8DF808100B0A0A0C090EEE
S1134DC0437082708DF80B100425BFE758F8049BDC
S1134DD0484608F06FFAC2B20123494601A801F01F
S1134DE08AFE0028B2D00698216888420FD110E0CC
S1134DF058F8047BAAE758F8041B0123FAB201A867
S1134E0001F079FE002808BF00279FD0EBE7FFF7E9
S1134E10FFF907B0BDE8F08F01232A4602A901A8D3
S1134E2001F069BE2DE9F841122885B004460D460B
S1134E30904606D03A2808D04FF6FE71884220D01A
S1134E4026E0002008F0BAFC22E008F091FF0646B4
S1134E500020FFF719FE07460020FFF717FE034660
S1134E6004961248DFF84C10B1F8E22017A1039021
S1134E70029200200190009700223B20FFF7C3FE1E
S1134E8006E000224146284601F0EAFD00F050FA0F
S1134E9042462946204606B0BDE8F04108F06EB807
S1134EA0574600006C7000008C550020947200205E
S1134EB0D47A0300A4720020424238704242424233
S1134EC057000000424242425742000057424257B4
S1134ED057387042000000002DE9F043354D044678
S1134EE08BB0914628680A900126220088461F4606
S1134EF006D0012C1FD0102C02D0202C1BD02BE06C
S1134F000021204608F0A2FC0646012C18BF202CE4
S1134F1008D0022C18BF212C04D0032C1CBF222C37
S1134F20232C19D1012FCDF80480ADF80C9008D1B1
S1134F304FF4805009E068461F49282209F02CF8F4
S1134F40E3E7022F03D14FF44050ADF80A0069465D
S1134F50204608F07BFC06460A982968884208BF68
S1134F60F0B201D0FFF754F90BB0BDE8F08380B57F
S1134F7008F02BFDC0B202BD08F06FBD80B508F08B
S1134F8076FDC0B202BD0CB438B50A4C2568009554
S1134F900A46014604AB094809F049F8009821681B
S1134FA0884208BF002001D0FFF732F932BC5DF817
S1134FB00CFB00008C55002080710300A3DB000073
S1134FC0890001EB401101F184410A60704700003F
S1134FD010B50446FFF70CFE1E484AF6E85101607E
S1134FE0C162016B01F00F01022913D11A4A012198
S1134FF01160806B00F00300012818BF022809D15A
S113500000221C211548FFF7DBFF00220021144871
S1135010FFF7D6FF200A0028124808BF24024FF2E7
S11350200F0104804180BFF35F8FBFF34F8F0E49A0
S11350300E480A6802F4E06202430A60BFF34F8F2D
S113504000BFFDE70A4870470948203870470948FF
S11350507047000008300E404040084060300E4069
S113506074300E40000000200CED00E00400FA054E
S1135070E84B0020A000002000207047012070476A
S113508001207047002070470120704700207047BE
S113509000207047012070470020704701207047AE
S11350A07047704700B10220704700207047704776
S11350B038B54478456800F08FFE0C214C43914983
S11350C0914B0A59521B9A4238BF0D51BDE83240E8
S11350D000F088BE10B5044609F0F6F860600420BC
S11350E020702046BDE81040E2E738B504460D467E
S11350F009F0EAF82D186560012020702046BDE80B
S11351003240D5E710B50446207860B1042806D0B3
S113511009F0DAF861687C4B421A9A4201D2002005
S113512010BD081A10BD4FF0FF3010BD70B5044615
S113513009F0CAF8054600F04FFE064660686FF0B5
S1135140004100F02DF8451925603046BDE8704057
S113515000F048BEF8B505460E46144609F0B4F80A
S1135160024600239CB1FF20207010E0087860B153
S1135170042811D04868644F111AB9420CD3801A1C
S1135180B04202D2064604B123705B1C083529687C
S11351900029EBD13046F2BD04B123700020F2BDEA
S11351A00022D7E770B5054609F08EF80646574C3D
S11351B010E0017869B1042904D04168524A711A97
S11351C0914206D204230370206069688847002056
S11351D02060083528680028EBD170BD10B504465E
S11351E009F072F80C225443464A474B1159401AAD
S11351F0984207D214446068FFF7D4FF2046BDE804
S1135200104093E710BD000070B5414E414A137839
S113521004467078984204D35FF0F6013FA0FFF78C
S113522009F87578374A691C71702B460C20434382
S1135230D11801264C600E7200E0457054F8080B3A
S11352400028FAD10846FFF771FF284670BD000018
S11352502DE9FC41304C2B4E22682D4F01920C2538
S11352604FF0FF3306F108016843009300220A540B
S113527097F8000030B309F09BF820B940F22F11E1
S113528026A0FEF7D7FF09F01FF80246002305E029
S11352900098814288BF014600915B1C7978D8B29E
S11352A0884213D26843DFF860E03158A2EB010C66
S11352B0F44507D306F10808891A18F8000008B95C
S11352C00029E5D109F081F8002007E0684600F0E4
S11352D088F810B9684609F028F801200199226875
S11352E0914201D0FEF794FFBDE8F6810C21054BF5
S11352F0484318440122027270470448006870470A
S113530000000000745D0020010000804075002052
S1135310A17C00201D9803008C5500206576656EE5
S1135320742D636F6E74726F6C2E630070477047D8
S1135330704701987047704770477047702009F0B4
S113534065B870B5044643381F4D08D0401E012887
S113535009D9801E01280ED9C01F32D02AE0BDE829
S1135360704009F0F9BF09F0C7FF20B109F0F4FF5C
S11353700028FBD170BD154E307810BB012131706F
S11353800AF06EF8442C12D00CD3462C05D00ED360
S1135390472C07D140F6010001E040F60200FFF778
S11353A017FE04E04FF49B712846FEF743FF0020EC
S11353B0307070BD2846BDE870404FF4A471FEF70C
S11353C039BF70BD00000000D4780300777C002052
S11353D0704700207047002070470120704701206B
S11353E07047002070477047FFF773BB0020704779
S11353F00020704738B51546104A517804462220DB
S1135400FFF746FE204602F07FFF04466DB1200000
S11354100BD00B49087818B10A480121017004E047
S1135420002200212046FFF758F8204632BD70477D
S113543070477047044908707047000040590020C5
S1135440B75C0020B85C0020907C002080B508F098
S11354503BFFDFF834295178484302BD80B5DFF8BB
S11354602C19096A05280BD8DFE800F003060608A2
S113547008086FF0004002BD086902BDC86802BD9B
S1135480E8210FF64410FEF7D5FE002002BD10B54A
S11354900146DFF8F808026A106993685468D26814
S11354A08842B4BF012000208B42B4BF02230023F2
S11354B08C42B4BF042400248A42B4BF08210021D2
S11354C0181820180818401CC0B210BDF8B5DFF831
S11354D0BC58DFF8B4682C6A002C1ABF3078002856
S11354E0002706D061696A7A88188130FFF7CFFFF8
S11354F00746287AB84214D001226A74002C1ABFD5
S113550094F86400401E05F0EBF92A7A31783B46A2
S1135510C0B200F037FD002169742F720628B8BFAD
S1135520307005F0F4FCA0B1287A002450B1286A48
S11355304169687A0F183078FFF790FFFF1DB84271
S1135540B8BF0124E97A2046884202D006F0A0F9C7
S1135550EC72F1BD2DE9F84FDFF83058AC7A06460D
S113556089460CB10020A872286A10B96FF0004077
S113557083E0FFF76BFFDFF818182A6ADFF81038AA
S1135580B0FBF1F801FB08F89169A8EB0100B0FB4E
S1135590F3F04FF00D0CB8FBF3F3E646B3FBFEFE5D
S11355A00CFB1E3E0D28774607D3002050613421A2
S11355B002F11C0009F0D0FF2AE048B3DFF8D077ED
S11355C0B1FBF7F1E246B1FBFAFA0CFB1A1C02F14B
S11355D01C030CF1010C5FFA8CF10D2908BF4FF08C
S11355E0000C5FFA8CF1576953F821B0A7EB0B0755
S11355F05761002743F82170401EEAD16746F8B28C
S1135600704505D040F257110FF2BC70FEF712FE40
S1135610687A002E02DD801C861902E044BF361A27
S1135620B61E00F0D9FB95F80CA000212973FFB237
S113563000F0D8FB687AC01D10FB0A66286A41692D
S1135640361B7118416100F11C0200F11C0352F871
S11356502710761843F82760C0F81880FFF736FF44
S1135660B9F1060F04BFDFF8200790F80090484610
S1135670FFF7F4FE2A6A5169401ABDE8F28F2DE95A
S1135680F041804605F02CF9DFF80047074604F1A5
S1135690340504F13406002195F86400421EBA4230
S11356A015D0002904BF0028294668697269904210
S11356B0B8BF2E46683504F582708542ECD309B133
S11356C00D4604E06821304609F046FF3546B8F13E
S11356D0000F05F1500602D1307D002869D1314612
S11356E0384605F079F900285DD17F1C377560884C
S11356F008B996216180DFF89036B17B9878DFF89D
S113570094264143B2FBF1F02860E08840B9307838
S113571008B9012131702868327890FBF2F005E075
S1135720296842F2107391FBF3F35843E860A088B0
S113573040B9707808B9012171702868717890FBBC
S1135740F1F005E02A6842F2107392FBF3F3584338
S1135750E9688142C8BF0146208860B969600A22AD
S1135760B07810FB02F082B202B901202A6880B23C
S113577092FBF0F005E02B6842F2107793FBF7F709
S11357807843286142F210732A68608892FBF3F22E
S11357904243E8689042C8BF1046A860F07B60723C
S11357A0256269600BE0002060722062BDE8F04170
S11357B08CE6206AA84206D0F17B61722562002142
S11357C0BDE8F041DAE2BDE8F081DFF8CC251178DC
S11357D0002904BF0022FEF791BEDFF8C0150120A6
S11357E008707047DFF8B805FFF774BC10B50246BF
S11357F0DFF89815DFF8AC350120C873186800F09D
S1135800F5F9017E4069DFF8A0454A43B4FBF0F0A6
S1135810BDE810404243DFF89415012006F090B92A
S113582038B5DFF88C150446087808B1002032BD7D
S1135830DFF8581560788A7B1518A0788542A8BFD0
S11358400546FEF709FE012194F90320237801FAA5
S113585005F5A918B0FBF1F201FB120021794018FB
S113586010FB03F080B232BD80B5DFF820250021A3
S1135870D17300F01FF8BDE802408D20A5E770B594
S1135880DFF808550446686A05F061FF060008D190
S1135890002000F00FF8686A00780021FFF75AFE34
S11358A006E0012000F006F814B13046FFF78DFF42
S11358B0304670BDDFF8D4148A7B00F00F0040EA54
S11358C0021088747047DFF8C404407B7047DFF827
S11358D0BC04007A70472DE9FC4D04460020FFF714
S11358E0CEFEDFF8A804056A45B92CB142F2107067
S11358F020806080A080E08000204AE0407C10B9D5
S11359000021FFF727FE002C42F210782FD02E68DA
S113591006EBD6725210D317CDE900232869C117BC
S1135920A8FB007B18FB01BBB8184BEB0301324604
S1135930F31709F015FE2080AA68D317A8FB02010B
S1135940DDE9007218FB0311C01951413246F31707
S113595009F006FE6080DDE9007B686800F01BF852
S1135960A080DDE9007BE86800F015F8E0802A6893
S11359706C6902EBD270E517A8FB046AC11718FB27
S113598005AA16EB60004AEB0101D31709F0E8FD04
S113599080B2BDE8F68DC117A8FB002318FB0133C4
S11359A0D01943EB0B013246F31709F0D9BDE0B52A
S11359B0010025D06846082208F0EEFABDF802007E
S11359C010B99621ADF8021000210022D3B23DF89F
S11359D0130030B142F21173984211DA88420FDB9E
S11359E00146521CD0B20428F0D3DDE90001DFF8EF
S11359F09C23C2E900010120FFF741FE00200EBDF7
S1135A0002200EBD2DE9F047DFF88053DFF87893CC
S1135A106E7B6F6A0FF2B03882460020FFF72FFECC
S1135A203446062C286A08BF99F80040002818BF9D
S1135A30002C5CD039786A7AB0F85C005718BF1C27
S1135A4008B1B8420ADB31460020FFF783FDB842B3
S1135A5006DA1EB94FF4007100F0CDF802202FE0F1
S1135A60286A062E50F8546F08BF99F80040002E9B
S1135A703DD0052C3BDB8088361A012005F031F837
S1135A8007464FF47A72DFF82C03DFF81C1302FB8D
S1135A900606B6FBF1F1CF19FFF7D8FC7F1C3C1AC0
S1135AA0002C24DD6FF000408442D7D0FFF7CEFCF9
S1135AB0A96ADFF804232018401A90420AD203206E
S1135AC0FFF7F8FEBAF1000F1CBF8C20FFF77DFE34
S1135AD08C2089E0E87B18B140F2733100F08BF838
S1135AE0214605F11400FFF700FB00207CE0687BF1
S1135AF0062808D199F800100A0003D1AF4B587852
S1135B0000B104216973E87B18B140F2853100F0DB
S1135B1072F8687B042863DB296A00291CBF086EBD
S1135B2000285BD091F85300C10759D50122E87BC6
S1135B306A7348B140F27B2100F05DF8286A18B915
S1135B404FF41F7100F057F8286A046E1CB940F234
S1135B507E2100F050F8686A05F02AFC064658B128
S1135B6070280CD00120FFF7A5FEBAF1000F33D046
S1135B703046FFF72AFE2FE005F09FFA01E005F01A
S1135B8053FE8848006800F031F8E288017E4069DD
S1135B904A438549B1FBF0F000F0DDF828630021A9
S1135BA0A97394F9050018B940F2A32100F023F871
S1135BB094F90500010003D549422974002003E04B
S1135BC028742046FFF72CFEA8830026202009F025
S1135BD015FEA88BFFF70AFE304605E00220687325
S1135BE05046BDE8F0474AE6BDE8F08710B974486E
S1135BF08168086870474046FEF71CBB70B50546CF
S1135C000E46144608F060FB5F4B604A59785562B3
S1135C1001FB006669489662417809B9187808B9A9
S1135C20062000E00120507366480168CB0505D0CA
S1135C3002F11400FFF74EFA002070BD2046BDE8C3
S1135C407040DFE670B5514C5D4DE17B554E002050
S1135C500329207574D8DFE801F00206173BBDE87C
S1135C6070400120CEE6306808B9A8680068216A4F
S1135C704D4D0A6E017E128900F069F8E06202203F
S1135C80E0732B2009F0BAFD05F017FA88B9A07B60
S1135C90217C401CA073C0B2884205D20320E0736B
S1135CA0292009F0ABFD21E0272009F0A7FD0420FD
S1135CB03CE005F02BFFE16A05F02AFFB0B10020BB
S1135CC0E073282009F09AFDBDE870400120D6E574
S1135CD005F0F3F980B905F019FF216B05F018FF01
S1135CE020B12A2009F08AFD06201FE004F11400E7
S1135CF0BDE87040FFF7EEB9206A006EFFF790FD33
S1135D000146306808B9A8680068226AA183156E44
S1135D102A89254D5218017E00F019F8216B05F0EF
S1135D20F7FE30B12A2009F069FD0520BDE8704076
S1135D309AE52C2009F062FDA08BBDE8704055E582
S1135D40BDE8704040F20C411FA0FEF773BA4069F1
S1135D504A43B5FBF0F042430021012005F0F0BEB8
S1135D600A494A6A487A1378C3189B1C8B72704795
S1135D700648017B491C0173704700210020FFF78E
S1135D80E9BB0248006A7047F15B002050760020AE
S1135D90E093040000A493D6B75C0020597500205A
S1135DA0647600207C75002040420F00E557000017
S1135DB05675002020A107000100008048590020EA
S1135DC01882030004ED00E0647574792D6379632F
S1135DD06C652E6300000000EFF31180602181F3F5
S1135DE01188704780F311887047FEE710B50400EE
S1135DF001D1022010BD01F0E1FB00F0D9F82070C0
S1135E00002010BD1FB5BD4C2168029120B38388CA
S1135E100188C3B9002904BF418800291CD100228C
S1135E20ADF800200388ADF802304188ADF80410C5
S1135E308188ADF80610684601F0C2FB0299226819
S1135E4091420BD10CE000291CBF4288002A03D0E8
S1135E509A4238BF9142E2D30220EFE7FEF7D8F925
S1135E6004B010BD3EB5A54D0400286802900DD0C5
S1135E70684601F0A1FBBDF802002080BDF80410C3
S1135E806180BDF80600A080002000E00220029995
S1135E902A68914201D0FEF7BBF93EBD2DE9F04ED0
S1135EA004460D46012005F039FF400908BF702063
S1135EB066D0002D58D0222C56DA91480078032859
S1135EC018BF04284ED1012C4ED109F02AFE288097
S1135ED00126002001F070FB688000274FF6FF794F
S1135EE00FF23C2AA6424AD0012005F017FF4009D0
S1135EF032D001F05FFB5FEA000B04D14FF4B271C2
S1135F005046FEF797F9F8B201F099FD012823D124
S1135F100021F8B200F06EF8FBB23C207949DBF8BE
S1135F20002010FB03F302EBD270CB58401042F276
S1135F30107BC117CBFB0301D31709F011FB834678
S1135F40F8B201F074FC484506D025F82600A81CD8
S1135F5020F826B0761CF6B27F1CF8B22028C1DBEC
S1135F60AA1C09E0002CB0D1022009E025F82090F9
S1135F70002122F82010761CF0B2A042F6D30020B3
S1135F80BDE8F08E00BF70B5044640091D460CD034
S1135F90204601F01EFB0646284600F009F802469A
S1135FA004F01F0130460AF033FE062070BD0000E5
S1135FB010B560B1401E01280BD9801E01280AD9F2
S1135FC0801E032809D9001F072808D909E00024E6
S1135FD00DE001240BE0022409E0032407E004247B
S1135FE005E040F2071100BF4DA0FEF723F9E0B22F
S1135FF010BD00002DE9F84F0546884601F01FFD4D
S113600001286DD13E480078032818BF042867D0C2
S1136010012005F083FE400962D02C46202C5FDA73
S1136020FF2D5DD008F050F93C273749354D364AED
S11360307C43B0FBF1FA05EB040901FB0AFAD9F839
S11360400410AAEB0100B0FBF2F00D23BAFBF2F24C
S11360509C46B2FBFCFC03FB1C2C0D28664611D3AA
S11360604FF0000B07FB0BF00021295005F108024B
S1136070342110440AF074FE0BF1010BBBF1200F24
S1136080F0D322E008B3204FB1FBF7F19E46B1FBF9
S1136090FEFE03FB1E1300265B1CD9B20D2908BFAC
S11360A00023D9B209EB81012F598A68BF1A2F51F5
S11360B0401E8E60F0D11E46F0B2604500F00580AF
S11360C040F23B1116A0FEF7B5F828594044285178
S11360D0F6B209EB8600816841448160C9F804A0E6
S11360E0BDE8F18F3C214843064A00231350024483
S11360F0342102F108000AF033BE00008C55002060
S1136100937C0020B4680020E093040010B50024C0
S1136110E0B2FFF7E7FF641CE0B22028F8DB10BD13
S1136120656D6265722D647574792D6379636C6530
S11361302E6300000020704700B102207047012048
S1136140704701207047012801D1002070470220C8
S1136150704701207047FEE710B53748374C0021DF
S1136160C0E90011FEF778F92070FEF775F9607048
S113617033480178A17010BD2DE9F84F92B06A46FA
S11361800021002000F050FEB0B9DFF8B8B02E4C6A
S11361902E4D2F4E2F4FDFF8C080DFF8C090DFF870
S11361A0C0A000F016F800F0BCFD28B96A46002132
S11361B0012000F039FE08B1012007E000F009F8E1
S11361C0012000F0AEFD00B10120C0B213B0BDE863
S11361D0F08FCDF824B00A940B950C960D97CDF85A
S11361E03880CDF83C901096CDF844A06A46002142
S11361F0704780B5002000F014F828B1002000F0AA
S113620005F808B1002002BDFF2002BD1548007842
S113621002281CBF1128432801D101207047002007
S113622070471148007801281CBF0228032801D1B7
S11362300120704700207047887300201D7A0020D9
S1136240CB5B0020956C0100576E010001DE02005B
S1136250C1EB01004BD00200E9ED010053BE010087
S11362608DD40100947C0020937C002033B585B04C
S113627005468DF8042007F007FD0446284607F07C
S113628013FD7CB10028BDF818000FD107F01EFEE5
S11362908DF80000FF2804BF00218DF80010CDF810
S11362A008D016E0A8B106A8029012E007F00EFE8E
S11362B08DF80000FF2804BF00218DF800109DF820
S11362C00000BDF818108DF80C0003AAADF80E10EC
S11362D00292DDE901010A46014628460AF044FD1E
S11362E007B030BD73B582B00446154607F0CCFC48
S11362F00646204607F0D8FC2EB120B903A98DF834
S11363000050019105E04FF4DB7100BF05A0FDF7DB
S113631091FFDDE900010A46014620460AF024FD0A
S11363207FBD0000656D6265722D6D756C74692D9D
S11363306E6574776F726B2D737475622E630000D3
S113634010B5DFF8C008DFF8B8180068DFF8B8281F
S1136350C860136848615B0800EB43040C6118B122
S113636000F016F8652806D2BDE81040B0210FF6FB
S1136370BC00FDF75FBF10BD10B5DFF8844860694D
S1136380E268904202D2C02100F0C5FA60690CE0D4
S113639010B5DFF86C4820696269904202D2C621C8
S11363A000F0B9FA2069626900E0E268801A4FF6E9
S11363B0FE71084010BDDFF84818CA68904203D344
S11363C04969884200F05FBB0020704780B510B176
S11363D0FFF7F1FF00B1012002BD30B1DFF8202842
S11363E0D168401A4010401C80B27047010001D1AE
S11363F000207047DFF80818CA6802EB4000801ECE
S113640070474088C0F30C00C01C80084000001D89
S113641080B2704710B50446FFF7F3FFDFF8E017CA
S11364204A6904EB40004FF6FF7400E0801C904280
S113643002D20388A342F9D010BD2DE9F843DFF856
S1136440C0478046208998B3B8F8020001042FD4CD
S1136450DFF8B8770FF2C87138680FF2D0790AF014
S113646019FD20B940F28D114846FDF7E3FE0025E1
S113647004E00AF00FFD88B16D1CADB2208985429D
S113648004DB40F28F114846FDF7D4FEA069396859
S113649000EBC50630680028EBD13160B088401CA1
S11364A0B0804046FFF7ADFFF18801EB4000F0807B
S11364B0BDE8F18370B50446DFF84407007801288D
S11364C01AD12088FFF792FF050024D002262C461B
S11364D02046FFF7B2FF608840F40040608034F843
S11364E01600FFF783FF040002D060880104EFD593
S11364F0761C042E0FD2EAE702280CD1FFF76CFCBD
S113650005462088FFF772FF18B10088C0F30E001B
S113651020802846CEE270BDDFF8E4160A78022A0D
S113652008BFFFF7C7BF704738B504460D46FFF7ED
S113653068FF6188C1F30D0161804004020C2146AB
S11365402846BDE838400AF0CBBC10B50C4601E043
S1136550FFF760FFA04202D241880A04F8D510BDBB
S11365602DE9F14FDFF8A806DFF89456016894B0DE
S113657000201291E880FFF72FFC6A88ADF806200E
S11365800121AA88ADF80420297000216A69698074
S1136590A9800092FFF726FC2989A869C90008F0A0
S11365A0DBFF0DF10600FFF785FF01A8FFF782FF6F
S11365B0149848B1002401E08047641C1498E1B2A7
S11365C050F821000028F7D1EF6800244FF00108AB
S11365D00DF1080906E00BF1010B5FFA8BF00428BA
S11365E01CD33446009EB74200D38CB324B1641E3E
S11365F0E4B259F824A003E000F00CFBBA460746C5
S1136600BAF8020000F44041B1F5004FEAD140F479
S11366108040AAF802004FF0020B26465FFA8BF086
S11366203AF81000FFF7E2FE0400D4D060880104B9
S1136630D1D440F4004060802046FFF7FEFE102EC7
S1136640BDBF49F82640761CF6B24FF00008C2E7F9
S1136650B8F1000FB8D0EF68BB46B84615E038462D
S1136660FFF7CFFE0446788801040BD55846FFF7A0
S1136670B4FE398801F40041084338800BEB440B25
S113668007EB440800F0C6FA0746B742E7D30220F6
S113669028700DF10600FFF70DFF01A8FFF70AFFB0
S11366A0149848B10026044601E08047761CF0B2F5
S11366B054F820000028F8D1EC68274613E04FF086
S11366C0020937F81900FFF791FE20B10088C0F3E2
S11366D00E0027F8190009F10109B9F1040FF0D3EC
S11366E000F098FA07464745E9D30AE00446FFF765
S11366F091FE4146FFF729FFB842F7D34F452FD10A
S113670054462746474551D22046FFF783FE002CC6
S11367108246F5D060880104F2D500F076F8A042F4
S113672004D16088C0F30D006080E9E704D201461B
S11367302046FFF7F9FEE3E7A14607E05046FFF7DE
S113674069FE4146FFF701FF54468246C24507D21F
S1136750BAF80000C0F30E00FFF748FE8245EDD3FF
S113676034B100F052F801001CBF2046FFF7DCFEF4
S113677027464846C0E70022414601A812E02046C9
S1136780FFF73FFE07465846FFF727FE80467A008C
S1136790214658460AF0A4FB022EECD000224146C2
S11367A00DF106000AF0CAFB0BEB470BFFF714FBD5
S11367B080460021A81C0AF017FCFFF717FE0126EB
S11367C0040007D10021281D0AF00EFCFFF70EFE7D
S11367D0022604464CB9BDF80600BDF804106880D2
S11367E0A9800020C5F814B028704046FFF7FAFAD3
S11367F0002CC4D11298DFF818140A68904201D012
S1136800FDF706FD15B0BDE8F08F2088C0F30E003B
S1136810ECE580B5FFF7EAFDBDE80240D6E510B52A
S1136820040012D0FFF7F5FF18B940F27A4100F0E6
S113683072F82046FFF7DAFD38B101880A0402D560
S1136840D0F80A0010BD083010BD002010BD10B5EE
S1136850010013D0FFF7CAFD0446FFF7B7FD18B9CE
S113686040F2944100F057F844B12088010401D566
S1136870208910BD6088C0F30C0010BD002010BD3D
S11368802DE9F04100F044F804003FD0FFF79EFDED
S11368900FF2983718B940F2A74100F078F828466B
S11368A0FFF7D5FF80462046FFF7B4FD4645054671
S11368B02CD003DB40F2AF4100F069F820880104DA
S11368C048BF268122D466802046FFF79AFD04EB58
S11368D04004FFF781FADFF828134A692E1BB6B289
S11368E0954204BF4C610026FFF77CFA082E06D2BD
S11368F031462046BDE8F041FF220AF0CBBB082117
S113690020460AF02DFAA6F108006080BDE8F08167
S113691005460E466AE50FF21430FDF78BBC38B518
S11369200D46FFF763FD04000AD0FFF74FFD18B9C9
S113693040F2EC41FFF7EFFF04EB4500808832BDE5
S1136940002032BDF8B50D461646FFF74FFD040092
S11369500FF2D82714D0FFF739FD18B940F2F741E8
S113696000F015F83046FFF741FDFFF72FFD18B989
S11369704FF49F6100F00BF804EB45008680F1BDF5
S11369803846BDE8F44040F2FB41FDF753BC3846BD
S1136990FDF750BC2DE9F84F8846C11C8908DFF883
S11369A0605249000027091D2E690FF2802AB0F5B4
S11369B0005F04461FFA81F904D340F22751504680
S11369C0FDF738FCFFF708FA83466969E86908B9F6
S11369D0711A03E05FEA080202D0411A4E1009E07E
S11369E0301A4010064680B220B940F24D5150464C
S11369F0FDF720FCB6B24E4514DB6F6907EB490086
S1136A006861E86928B1B8F1000F04BF00EB4900E0
S1136A10E86100207C80B880F88038800834698977
S1136A2064186C815846FFF7DDF93846BDE8F24F2B
S1136A30D3E4F8B504460D46164600210A20FFF7B4
S1136A40A9FF0746FFF7D2FC48B10681C0F80A4007
S1136A50018841F400410180C0F80E503846F2BD6F
S1136A6070B504460D4611462846FFF793FF0646C7
S1136A703CB1300005D0FFF7D2FE2A4621460AF089
S1136A802FFA304670BD8041C00F704770B50C4678
S1136A905B4D30B1FFF7A0F9064600222146281DC0
S1136AA005E0FFF799F9064600222146A81C0AF0E2
S1136AB045FA3046BDE87040FFF794B938B5504CFC
S1136AC028B1FFF789F905460021201D04E0FFF7EE
S1136AD083F905460021A01C0AF086FA04462846DC
S1136AE0FFF780F9204632BD4549002814BF888845
S1136AF04888401EC7E72DE9FE4F04468846208893
S1136B0016469B46FFF772FC0746FFF75FFC18B971
S1136B1040F29161FFF7FFFE38880104354603D542
S1136B2038892D183D8167E000F078F8019000F075
S1136B3071F88146FFF750F900968246304E70692D
S1136B4081451DD1FFF724FCA84203D25046FFF72C
S1136B5049F921E001982D18BBF1000F7D8008D080
S1136B602088FFF75CFE019B009A4146184407F019
S1136B7013FA00F04FF870615046FFF733F93BE029
S1136B805046FFF72FF900F049F82D180021A8B25C
S1136B90FFF700FF070001D11A202EE000F03EF8B5
S1136BA005462088FFF73BFE06463846FFF737FECA
S1136BB02A46314607F0F0F9BBF1000F384609D0F8
S1136BC0FFF72DFE00F029F8009A4146284407F00B
S1136BD0E3F907E0FFF723FE00F01FF800992844CB
S1136BE00AF0BEF820880121FFF799FE0246012130
S1136BF03846FFF7A7FE27800020BDE8FE8F00007F
S1136C003C6600209456002098560020B45800207A
S1136C108C5500203846FFF7FDBB0546208816E654
S1136C20756E636C61696D6564000000627566660B
S1136C3065722D6D616E6167656D656E742E63009E
S1136C4070B500244FF49472DFF8341962438D1840
S1136C5005F58E70FFF72EFC002605E005EBC0005D
S1136C608030FFF727FC761C95F8C010F0B28842FC
S1136C70F4D3641C012CE5DD70BDF8B5044621464F
S1136C80012901DD2120F2BD00F017F9551800217A
S1136C9085F87F10002605EBC60000F18007082167
S1136CA038460AF05DF8761C0020082E388078609B
S1136CB0F1DB482105F1D40005F1C0060AF050F8D3
S1136CC04FF6FE774FF6FF7037837784F08200210A
S1136CD085F8F11028467F210AF042F80020307030
S1136CE0706030733061002205F58E70B260FF2150
S1136CF002808170C17042600172FDF7ADFBDFF864
S1136D0084180870FF220121DFF87C080AF0C2F918
S1136D1001212046FDF7B2FB204600F065F9002072
S1136D20F2BDF8B50228044615461EDA4FF49472F3
S1136D30DFF84C3850431E1806F1D407787F00283A
S1136D401CBF687F00280BD051B1DFF840080178E0
S1136D50022903DB38782978884201D00220F2BD69
S1136D6029782046FDF7CEFE08B92120F2BD48223D
S1136D702946384607F010F92046FDF713FE28B1DE
S1136D8096F8240110B9204600F007F80020F2BD5F
S1136D9080B500F002F8002002BD38B54FF49472BB
S1136DA0DFF8DC1712FB00F211440128044601F15C
S1136DB0D40502DC91F8240108B1012032BD6A88AF
S1136DC000212046FDF76AFE00F029F8AA1D0021E3
S1136DD02046FDF77AFE2046FDF758FE29788142C9
S1136DE003D02046FDF758FEC0B92046FDF74CFEFF
S1136DF095F90110814203D02046FDF743FE68B99E
S1136E00204600F074FB05462046FDF7CBFD20B17B
S1136E1029462046FDF7CFFD00B9002032BDAA88DF
S1136E2000212046FDF74EBE38B50228134601DB8B
S1136E30212032BD4FF49474DFF844576043284452
S1136E4000F1D4014822184607F0A6F8002032BD0C
S1136E5038B50346022B0EDA4FF49474DFF820574A
S1136E606343EC1854F8C43F002B04BF237A002B6F
S1136E7001D10B0001D1212032BD2160626000F0FC
S1136E80B3F8002032BD10B504462146022901DBC7
S1136E90212010BD00F011F8501800F1C8010023A2
S1136EA088680B600B7118B18B602046FDF79FFC5E
S1136EB02046FFF772FF002010BD4FF49470DFF8F6
S1136EC0C026414370472DE9F0418046DFF8C026D3
S1136ED04546002102F83510FDF764FD00287CD0FA
S1136EE000F07BF945434F19482497F87F00C10708
S1136EF007F58E7520D500F0FE0087F87F000AF0B4
S1136F00DBF8064697F87F00810744BF30460AF055
S1136F10CBF8314640460AF013FA28800020297A3B
S1136F20E87014FB01F43919AE70D1F814016860EB
S1136F304046BDE8F041C0E007F1C006307898B1A2
S1136F4007F180042068286060686860404600F0AB
S1136F50B4F83278D20007F18801204609F0C0FF66
S1136F603078411E317038E0716808000AD0012081
S1136F70002230737260404688474046BDE8F041C5
S1136F8000214DE097F87F00810702D40AF0A6F8AB
S1136F9058B197F87F0000F0FD0040F0010087F839
S1136FA07F004046BDE8F0411EE0287A48B9B06C45
S1136FB038B1287A14FB00F43819D0F8081188473E
S1136FC058B9FFF716F90146307B30B9FF2918BFCD
S1136FD029724046BDE8F041DAE6BDE8F08101E0FF
S1136FE0012070E700206EE7DFF8A41501EBC00074
S1136FF0FEF770B810B5044600200AF055F800F00A
S113700007F890F87F3043F0020380F87F30F3E014
S113701022464FF49470DFF868154243881870478D
S11370204FF49471DFF858254843104490F87F30AA
S113703003F0FC0380F87F307047F8B5022804465B
S1137040154601DB2120F2BD00F031F8161806F1D7
S1137050C007786820B9387B002818BF022B01D0FC
S11370600120F2BD3A78082A1FDA012B08BF4FEA43
S1137070C20C08D0D20006F1800106F1880009F0A4
S11370802FFF4FF0000C0798069906EB0C02002323
S113709022F8805FD070937051603878401C38704B
S11370A02046FFF7A1FF0020F2BD1C20F2BD4FF4E3
S11370B09471DFF8CC24484370472DE9F84FDFF88A
S11370C0D464DFF8BC84054684B030682F464FF49E
S11370D094714F43039008EB070999F8240128B1F0
S11370E0002189F824112846FFF752FE99F9D500AA
S11370F08DF8080009F1F8044A46B4F824B059465A
S1137100002000F05EF9246802464FF0010A9CB1A9
S113711002A80021019000912B4649465846A047F9
S1137120DFF874248246107830B12846012D04BF5C
S11371309DF90810FDF7A6FC18F8070038B90021DE
S1137140284600F010F82846FFF74EFF04E05246A8
S113715049462846FDF7EFFA03983168884201D082
S1137160FDF756F80CE12DE9F04104462646022EBF
S1137170884605DB40F291210FF22C40FDF75AF8C6
S113718000F02BF846430E4406F58E756F683900FF
S113719004D0EB782A8841462046B847002129804C
S11371A048202A7A4243B018D0F814118F4212D0E2
S11371B096F87F00810702D409F090FF58B196F841
S11371C07F0000F0FD0040F0010086F87F002046BB
S11371D0BDE8F04108E7BDE8F0814FF49470DFF8B2
S11371E0A013704710B50228044605DB40F2A7211E
S11371F00FF2B430FDF71EF82046BDE81040F3E668
S11372002DE9F04FDFF88C231368814685B04F4693
S1137210012F049350DCADF800100846FFF7FFFA85
S1137220040049D0BDF80000FFF711FB617826780F
S113723001F00701022908BF012022D002A900227F
S11372400023C1E90023C0B22044A0F108020DF1DB
S1137250080A1068086050689AF803B09AF8028027
S11372604860ADF80430CD49087800281EBFCC49E9
S11372700B68002B06D04FFA88F2594620469847EF
S1137280002076E009220021601C04F0DBFC0546A6
S1137290761BB61E76B2002E0ED4FFF79EFF10FBAF
S11372A007F7C81900F1C8077B6C3BB1BDF80000B3
S11372B000220121984708B921205AE001A8009032
S11372C0F3B2621C002148460AF04CFBC0B200280D
S11372D000904DD1BDF804000AF03AFC00281CBF10
S11372E0BA6C002A07D06019411CBDF8040090470D
S11372F008B902203DE0BDF804000AF010FD814603
S1137300BDF804000AF024FC18B36019411C32468D
S1137310484606F041FEBDF80400FFF780FA80F805
S113732008B080F809809DF8081081729DF80E203D
S11373309DF80D10120242EA01429AF807100A431E
S1137340C2603879BDF80410002814BF3A68FA6A9C
S11373500AE075190123EAB2611C01A8FFF7CBFB0F
S11373600028D8D0192004E010001CBF084690471C
S113737000980499874A1368994201D0FCF748FFA2
S113738005B0BDE8F08F000070B50446B4F1020FFB
S113739085A504DB40F22E312846FCF74BFF4FF461
S11373A09470774A44431619D6F8D04024B940F271
S11373B031312846FCF73EFF0020C6F8D000A04734
S11373C070BD2DE9F8438946484614460AF0ACFCE2
S11373D0074648460AF0B5FB661C04281CD14846FB
S11373E00AF0D0FB4FF6FF716E4D48F64108884213
S11373F018BF48F661082988F01C0AF09BFC48462F
S11374000AF0C0FB0146701D0AF094FC6988F01D67
S11374100AF090FC093603E0601C00F091F9804604
S113742048460AF0B6FD08B148F010084146601C11
S11374300AF080FC48460AF072FC00F01FF80121B3
S11374404846FFF76CFA05003E4408D0FFF7FFF901
S1137450C7B22846FFF7E3F900F010F83E44494864
S11374600178E170361B491C0170761C2670204699
S1137470BDE8F8430922012104F0E4BB01463A4681
S1137480304606F089BD10B54FF494733C4C584314
S11374902318D3F8D00008B1022010BDC3F8D010CF
S11374A01146BDE81040FDF78EB9FEB50546084605
S11374B0002B0CBF882108212F464FF49473304EC3
S11374C05F433E44144696F824210AF006FC01006A
S11374D001D10120FEBD089A0092002101910246CB
S11374E096F8241123462846FFF7A7FDFEBD4FF466
S11374F09471234A48431118482291F82431534384
S1137500CA1892F8F10028B991F8CC00401E8041C5
S1137510C00F7047002070474FF49471184A4843D5
S1137520104490F82401704710B54FF49472144C31
S11375305043204490F8CC10F9B90020FDF732FAFA
S1137540D8B10120FDF72EFAB8B111490878002806
S113755004BF087A002810D194F87F00002804BFE3
S113756094F8C000002808D194F8A70128B994F829
S1137570E801401E8041C00F10BD002010BD000076
S1137580A4720020917C0020AE7C0020D25B0020FD
S1137590F47400208C550020EB5B0020B75C0020C5
S11375A0846700207A73002075707065722D6D6198
S11375B0632E6300FEF7E5BBFEF78DB9FEF787B9CE
S11375C010B50446FDF714FF2046BDE81040FEF751
S11375D0EEB903F091B980B501F093F9BDE801402B
S11375E003F0B8BA10B5044601F002FB2046BDE82A
S11375F0104003F047B910B5044601F04DF9204698
S1137600BDE8104003F0A3BC10B5044601F05CF9DA
S11376102046BDE8104003F0A3BC01F03EBA10B50B
S1137620044601F093F82046BDE8104004F048B940
S1137630000010B5044601F0F1F92046BDE8104001
S113764003F0DEBD80B500F0FBFEBDE8014003F0B1
S113765089BE80B500F08DFBBDE8014004F0F3B9AC
S113766010B5044600F014FB2046BDE8104004F0B9
S1137670F1B938B5044600F065FD0546204604F02E
S1137680DAF9854288BF0546284632BD1CB5244C2C
S1137690244822680092012104F026FC012122489A
S11376A004F022FC00230422042105200AF0EBFE4E
S11376B000230422052105200AF0E5FE0098216834
S11376C0884201D0FCF7A4FD13BD10B500F00DF8FD
S11376D003F1C06304E010B500F007F803F1806320
S11376E04868012484401C6010BD104A104B12F8F5
S11376F0304030214C43191901F10C0302EBC00155
S1137700704710B5094A0A4B12F83040302102EB99
S1137710C0024C4319195068012383408B6110BD8A
S11377208C5500204041050000250A00EC7103003F
S113773000A0004000281CBF0020FFF7C6BFCAE716
S11377404178007800EB012080B27047F8B500283A
S113775018BF0029164601D0412E01DB2120F2BDBD
S1137760DFF83054286069600027DFF82C040670C5
S113777012E018232A687B43D41800200021C4E9AE
S11377800401D054FF222868C418001D61801844E5
S1137790082109F07FFC7F1CB742EADB68687100AE
S11377A009F0DEFA0020F2BDF8B500F059F909B984
S11377B00220F2BD022804DADFF8DC633778BC4229
S11377C001D32120F2BD18256C4321440C78844256
S11377D004D10D7CEC0701D52E20F2BDDDE9064570
S11377E008704A80081D1A6802605A6842600020C6
S11377F044F00102C1E90425F2BD10B500F031F9ED
S113780009B9022010BD00F016F901D3212010BDE2
S11378101822504308440024C0E9044404704480FE
S1137820FF220821001D0AF077FE002010BD024649
S1137830DFF86003016800294FF6FF7000D170473C
S113784030B500F0ADF8AA4206D218235A431144C9
S11378500A7CD30748BF488830BD10B500F001F951
S113786051B100F0E8F807D2182250430844017CD3
S1137870CA0701D5001D10BD002010BDF8B504468F
S1137880DFF810030568002D18BF002C13D0002664
S113789000E0761CDFF800130B78F0B298420AD2AD
S11378A01827784300F032F80028F2D1387CC10759
S11378B0EFD57888F2BD4FF6FF70F2BD2DE9F041A7
S11378C00646DFF8D00205680C46E5B1DFF8C802C9
S11378D090F80080464516D2002CF0B207D118214A
S11378E048432844027CD00709D4F0B20CE01823A2
S11378F0584300F00BF810B9387CC107F5D4761C56
S1137900F0B24045E8D3FF20BDE8F0812F180822EB
S11379102146381D0AF01EBE70B502469D48016816
S113792091B10020182600E0401C00F039F8C3B2E1
S1137930AB4209D273430B445C889442F4D11B7C60
S1137940DC07F1D5C0B270BDFF2070BD0146002038
S1137950B4E710B50C46FFF7DFFFFF2808D0FFF7A8
S11379607CFF28B10168216041686160012010BD7D
S1137970002010BD70B500F08CF87AB14FF6F874A1
S1137980A14203DA844D2E78B04201D3212070BD88
S113799000F009F802D54180002070BD022070BDBE
S11379A07D4C25787047182358431044027CD30734
S11379B0704710B504460AF0D7F8B0F5006F2046BA
S11379C002D10AF0DFF802E00AF0EDF802E0BDE8C7
S11379D01040A1E7BDE81040B8E730B56D4C216810
S11379E0B1B16D4B1D78A84210D2182212FB00F2DF
S11379F01144D1E90423D1070AD5646834F810008E
S1137A0010F4E26F08BF12F00C0002D0012030BD68
S1137A10002030BD10B500F024F851B100F00BF88F
S1137A2007D200F048F804D50006000F00F001006A
S1137A3010BD002010BD584B1C78A042704710B5F3
S1137A4000F00FF851B1FFF7F6FF07D218225043A8
S1137A500A18137CDA0701D5085C10BDFF2010BD9D
S1137A600C464C490968704730B500F012F85AB119
S1137A70FFF796FFA84207D2022905DA18235843D4
S1137A8013181C7CE30701D4002030BD11540120DD
S1137A9030BD404A1268704710B5FFF7E2FF09B9DC
S1137AA0002010BDFFF7C7FF02D200F004F801D494
S1137AB00020002110BD182250430844D0E90401DD
S1137AC0C2077047F0B501463248006808B9022081
S1137AD0F0BD314D2E78B14201D32120F0BD1824E0
S1137AE06143014401260027D1E90445BB4208BF94
S1137AF0B24203D0E00701D42D20F0BD0598002840
S1137B0019BF22432B4324EA020225EA0303C1E9F5
S1137B1004230020F0BDF0B51E4B1B680BB90220F6
S1137B20F0BD002612E018256C431F19D7E904455F
S1137B3004F0030CBCF1010F07D1002A07BF8443F2
S1137B408D4304430D43C7E90445761C124D2F7839
S1137B50F4B2BC42E7D30020F0BD2DE9F042FFF7B8
S1137B6098FFA2B10C4C94F800900023182700E071
S1137B705B1CDCB24C450AD27C431444D4E9045661
S1137B8005400E4008BF002DF2D0012000E0002087
S1137B90BDE8F0829C720020EA5B002010B5FFF77C
S1137BA0BBFEFF2804460DD0FFF776FFC00709D5BA
S1137BB02046FFF771FF0006400E00F0010080F040
S1137BC0010010BD002010BD80B5FFF7A5FEFF2801
S1137BD001D0012002BD002002BDFEE738B50446F5
S1137BE0FDF756FA0546DFF8600A83780178994272
S1137BF011D000F03CF8641E07D0641E08D0A41E07
S1137C0006D0A41E032C03D905E00022194600E087
S1137C1000220AF0D0FC284632BD0AF0F8BD10B5A7
S1137C20DFF8443A4C000146986A22460AF0D1FC37
S1137C30A04201D0002010BD012010BDDFF8280AA9
S1137C40C07D00B101207047DFF81C2A0146107B7B
S1137C50002800D1704780B5906A0AF049FE28B127
S1137C60BDE8044040F29D1100F0D6BC01BDDFF830
S1137C70F809806A704780B5FFF7F9FF0AF09DFCA8
S1137C8000F00300032801D1012002BD002002BD41
S1137C903EB5DFF82C4A21680191B0F5004F08D1B8
S1137CA04FF6FF70DFF85C5A298800F0EFFEBDF84C
S1137CB00000DFF89419488300F0DBFD01D10020B7
S1137CC03EBDFCF7A5FA00BF2DE9F04F91464FEAFF
S1137CD0501B88469A4600F01F004FF0000CDFF856
S1137CE0282A01E00CF1010C93795FFA8CF1994296
S1137CF037D291685FFA8CFE51F82E304FF0000EA7
S1137D0001E00EF1010EDC7E5FFA8EF1A142E9D2B0
S1137D10D9695FFA8EF5142414FB05F549190E7A16
S1137D2006F007065E45ECD14C7AA042E9DB4F78B9
S1137D300D78E619761B8642E3DB5FEA080203D07E
S1137D40001B281888F800005FEA09001CBF0A7AA3
S1137D5089F800205FEA0A0018BFCAF80010184624
S1137D6000E00020BDE8F08F400918BF40F0180083
S1137D70704738B5DFF8F048A06A0AF088FE054677
S1137D80E80744BFA06A0AF087FEE80320D5E16A49
S1137D90DFF8A859086A20B94FF41A712846FCF78D
S1137DA049FAE06A016A486820B940F26A21284623
S1137DB0FCF740FAE26A136AA06A5A680021904705
S1137DC030B12846BDE8344040F26B21FCF732BAAA
S1137DD031BD7FB5DFF8E84820680390694600228A
S1137DE00023002581E82C00DFF85C5828788DF802
S1137DF00000A87A002818BF022810D1DFF86868AC
S1137E0000F014F858B1B06A012200210AF0D7FB3F
S1137E1000F00CF818B14FF4287100F04DFC0398F1
S1137E202168884201D0FCF7F3F97FBD2979B06A53
S1137E306A460AF0BDBC00002DE9F847DFF88098D7
S1137E4007468FB0D9F800000E90FF2F0AD1DFF853
S1137E50B80881680A68D069477A017A07F01F0771
S1137E6047EA4117FDB205F01F001B2847D2002145
S1137E70019101AB6A46F8B2FFF726FF5FEA0008FA
S1137E801CBF019800283AD0DFF8BC67DFF8D84758
S1137E903179F8B2884231D00B3D102D39BFDFF86B
S1137EA0A0080568DFF89C180D68002D1CBF287811
S1137EB0032824D0606C854214D002A829460622E7
S1137EC006F06AF8656402A9A06A0AF075FDB0B903
S1137ED0A06A04A90AF085FDB6F91810A06A0AF090
S1137EE031FD60B9C4F82C80206B0199884208D117
S1137EF09DF8000060733771FFF76BFF7FE08A2005
S1137F0085E0B57ADFF834A800F09AFA206B38B12E
S1137F10A06A0AF022FE18B140F2D52100F092F8CE
S1137F20019820630199C868606318B940F2DA21A6
S1137F3000F088F8D8F82000A16C814219D018B953
S1137F4040F2E12100F07EF8D8F82010086818B952
S1137F5040F2E32100F076F8D8F82010A06A0A680D
S1137F60904718B14FF4397100F06CF8D8F820003C
S1137F70A06420229DF800002AA16073377106A82E
S1137F8006F00AF8606B418A0901C039ADF81E1089
S1137F90417C09011439ADF8261006A9407C000182
S1137FA0ADF82A00F079401E8041C00F8DF83300EF
S1137FB0607C8DF83400A06A0AF098FD18B140F294
S1137FC00F3100F03FF8A06A012201210AF045FEBA
S1137FD018B14FF44D7100F035F800F092FCB08BFD
S1137FE000F0A3FCF08B00F0B6FC307A00F06CFCDF
S1137FF000F053FD00F012FD284600F089FA94F9D0
S11380000E10A06AC90509140BF084F800200E991B
S1138010D9F80020914201D0FCF7FAF810B0BDE87D
S1138020F0870000000000000100000001010101D0
S113803064000000640000000000000000000B0069
S1138040000000005046FCF7F5B8DFF8FC060079A4
S1138050704710B500F012F8044600F00FF800283D
S113806054BF05206FF0040000190A2190FBF1F0C1
S113807040B210BD0A2110FB01F00CE0DFF8E81556
S1138080087B00281CBF886A0AF07FBCDFF8B8169A
S1138090B1F918007047F8B5044604F5D77040F2FA
S11380A07721884201D38B20F2BDDFF8BC25DFF8AD
S11380B09856116B00291EBFA87E00F0C0008028CE
S11380C012D0D07B80B991F902000A26074617FB2B
S11380D006F7BC42A1BF91F90300014611FB06F16A
S11380E0A142B8BF10FB06F4107B40B1906A214650
S11380F00AF028FC18B140F28A3100F0DDFA2C8332
S11381000020F2BD38B504460B38102839BFDFF81B
S113811030060068DFF82C16086888B100230022B6
S113812000212046FFF7D0FD50B104F01F051B2DA0
S113813006D22046FFF718FE10B928460B2800DAAD
S1138140FF2032BDDFF8C4184008085C7047704750
S1138150C0B2704711F1630F01DA0020704711F1CA
S1138160240F01DBFF20704764310902481101EB41
S113817090618904080E70472DE9F0418046DFF8CC
S1138180E86498F8005096F9160008B18C20B8E01D
S113819030650021DFF87848DFF8AC74F16460786A
S11381A000286AD0FDF722F90246012A18BF032AE3
S11381B063D0706BDFF85C3800281FBF316B09692E
S11381C00029022A38D0DFF850C87A6961451AD1EB
S11381D0DFF81019F16402F57A727A61717D19B1D0
S11381E00022328064211EE00179317001218278FD
S11381F0037991400B4490F90310CB185B1E737004
S1138200017809010FE0F36402F5FA727A61717D75
S113821019B100223280642105E0417831708278FE
S1138220727001780901B1804179B170028912013B
S1138230F280C088000116E0F364786900F5FA70F2
S11382407861707D18B100200021642203E0E07899
S113825021794FF4A07230707170B2808021A078BF
S1138260B070F1800020B06000F017FCF070B078BE
S113827041B2002902D5404200E0002030766B0173
S1138280326D7878387303F58073A0790028F07B19
S11382901ABFAD1EEDB242F0020270B9217861B18D
S11382A07B6198F80100810607D56FF0010042F068
S11382B00102B07503F5087302E04FF0FF30B075AA
S11382C07B613265FDF73DFF40B1FDF738FF0128C2
S11382D0316D0CBF0820102008433065032000F0E6
S11382E017F96A1CB06A4FF4807392B241460AF0DF
S11382F01DFF6D1CA84203DA40F2095100F0DCF9BD
S11383000020BDE8F08100002DE9FC41DFF858634E
S113831096F916100025091D04296FF0030419D8D5
S1138320DFE801F00A0A1C1C0300FFF725FF050023
S113833014D000F08CFE7FE096F91600A0420CBF2A
S11383400121002100F084FEB575B06A0AF03BF902
S11383508E2072E000F07BFE8C206EE0FCF796FE2F
S1138360F0B1F06CDFF8AC16884219D1307EB8B1A8
S1138370DFF834180868002812D5DFF83008C1681F
S1138380C1600122006800F00F008240521E1142B9
S113839006D100212320FFF721FC64200AF013FFFB
S11383A0FDF71AFD804696F9160010F1010F1CBF67
S11383B096F9160010F1020F2DD196F91600DFF888
S11383C088724042B07505F072FF38620022B06ACC
S11383D000F00BF9F46CB06A3979326D002C07F1B6
S11383E00C0306D10AF0A7F9010005D100212520CC
S11383F00EE000933346A047D8B10020B0754FF08B
S1138400FF3139628C25B06A0AF0DDF8002126209C
S1138410FFF7E4FB0DE096F91600A0420CBF012122
S1138420002100F015FE0020B0758E25B06A0AF018
S1138430CAF84046FDF7D6FC2846BDE8F6810000A0
S11384402DE9FC419E4C804E20680190FDF7C4FC50
S11384500546B07A012803D12846FDF7C3FC4DE058
S1138460814FDFF8D087B86A012201210AF0A7F80A
S113847000F0B9F825A00188B86AADF80010694683
S11384800AF031FE18B140F2EF5100F0EFF900F0BC
S1138490AFF818B140F2F15100F0E8F9B86A0AF007
S11384A02EF900212C20FFF799FB00210A20FFF769
S11384B095FB0120B07297F91610091D072914D8ED
S11384C0DFE801F01717070B040F0F0FFCF742FA50
S11384D00FE06FF00300B8750BE06FF00201B9759F
S11384E007E0892000F018FB03E04FF4C36100F0BB
S11384F0BDF92846FDF776FC04F056FC00F0B9F906
S113850001D0FBF785FEBDE8F38100000401000003
S11385102DE9FC416A4D4C4E044628680190B17A1D
S1138520A14256D02FA3DFF8148218884E4FADF81D
S11385300000032949D8DFE801F04102362604F09F
S113854036FCB86A69460AF0CEFD18B140F23561CE
S113855000F08CF900F04CF818B140F2376100F0EB
S113856085F97079002814BF00220222B86A02211A
S11385700AF089FE18B140F23C6100F077F903205B
S1138580032CB07225D000F02EF80220B072002225
S11385903179B86A0AF00CF918B140F2496100F077
S11385A065F9022C15D0200018BF032C11D100202E
S11385B0B0720022B86A00F018F80AE0022C08D160
S11385C000F011F80220B07203E040F25F6100F0A5
S11385D04DF901982968884201D0FBF719FEBDE8DE
S11385E0F38100000402B86A802280210AF04BBEA5
S11385F002208DF800006946B86A0AF055BD524859
S1138600807A7047032805D8DFE800F003020303EB
S113861016E77DE740F27D61DFF81806FBF70ABE36
S113862010B5114CA06A09F0CEFF94F91600002889
S1138630454844BF0021A175417A012902D1BDE812
S11386401040FDE610BD00002057002080B503282F
S113865001DB012002BD3C494872897A884218BF77
S1138660FFF7D0FF002002BDA85C00202DE97C4F5D
S1138670DFF8BC6503EA010BD6E9088929EA01059C
S113868028EA000402EA000A45EA0B0544EA0A045F
S11386904D4508BF44450DD0CDE900230246B06ADC
S11386A00B460AF029FD18B140F2A56100F004F868
S11386B0C6E90845BDE8738F2048FBF7BBBD000041
S11386C08C550020DFF86815087B002800D170471E
S11386D010B5087D0022002318B1DFF85C250D23B6
S11386E00AE0C87C00B140221748017880788142B2
S11386F01CBFDFF848452243BDE81040DFF83805C9
S11387000D21B3E7F8970300C47A030038B5DFF806
S113871050590446287B2C7578B1FFF7D3FF002C01
S113872014BF00220822A86A08210AF0ACFD20B177
S1138730BDE8344040F243716EE731BD88900000DB
S1138740F8560020FC560020205700202DE9FC415B
S1138750DFF80849DFF8DC84054620680190022D23
S113876003DB40F24F7100F081F8DFF8F468307BEE
S1138770002871D1DFF8E078B87A012803D040F2FC
S1138780557100F073F8002107F1240009F0F5FE9B
S1138790B06218B94FF4EB6100F068F8012009F0F9
S11387A07DFF18B940F25B7100F060F8B06A0521F2
S11387B00AF0D6FA18B14FF4EC6100F057F84FF014
S11387C0FF30DFF8A02840F242330146FFF74EFFA6
S11387D0B06A4FF001110AF06BF918B140F27A71E6
S11387E000F044F8B06A09224FF0FF310AF04BFD63
S11387F018B14FF4F06100F039F8B06ADFF8681886
S11388000AF0B2FC012030730223DFF8600801880B
S11388107F2268460AF0BAFDBDF80000C10548BFD2
S11388200020B073FCF732FCFFF770FF788BFFF782
S11388302FFA0AF02BFE3879FFF7FEFA18B140F24E
S1138840947100F013F8FFF73DFFB7F91800FFF734
S113885022FCB87900F0CFF82846FFF7D3FE00F0E9
S113886008F801D0FBF7D4FCBDE8F3814046FBF7E0
S1138870E1BC019821688842704780B5FFF7F7F999
S1138880012109F0A2FF10F5007F02D16FF07F00F3
S113889002BD8005001602BD10B5DFF8942304461E
S11388A0107B50B1611E8941906AC90F0AF0C5F965
S11388B018B140F2CB71FFF7FFFE2000DFF89817E4
S11388C018BF0120C87110BD38B50446FDF784FAFD
S11388D00546DFF88407DFF858230472D07D38B9E1
S11388E0107B28B1611E8941906AC90F0AF022FEEB
S11388F02846BDE83240FDF775BADFF85C07007A18
S11389007047DFF82C33187B002800D1704780B5FE
S1138910986ADFF85C1700220AF080F920B1BDE8FC
S1138920044040F2F77177E601BD0146DFF82807FD
S1138930DFF82C378183187B002800D1704780B57D
S1138940986A00220AF05BF920B1BDE8044040F6C1
S1138950130161E601BD0146DFF8FC06DFF80037CC
S1138960C183187B002800D1704780B5986A002223
S11389700AF036F920B1BDE8044040F629014BE67F
S113898001BD10B500F02FF8DFF8CC060179A06A1C
S1138990012209F0FEFE20B1BDE8104040F64B0173
S11389A03AE610BD80B5DFF8B816886A09F0FBFE18
S11389B018B14FF40561FFF77FFEBDE80140FFF7F2
S11389C008BA000010B500F00EF8DFF88C06017943
S11389D0A06A002209F0DDFE20B1BDE8104040F697
S11389E05B0119E610BDDFF87846A06A0122012177
S11389F009F0E5BDD6E710B58D4A0446906A2146D4
S1138A000AF0ABFDDFF850168C7110BDB058002091
S1138A1040590020572701009C900000FEB5DFF864
S1138A203C460546206801907F2D0CD14FF6FF701F
S1138A30DFF84066318800F029F8BDF800007E2593
S1138A40C10558BF0546FDF7C7F9794F0646F87DBD
S1138A5068B9284641B27E2903D1386B38B190F900
S1138A60040041B27E29BCBF40B2FFF7EDF8787B29
S1138A7000B10120DFF800160D543046FDF7B2F9BD
S1138A80FFF7F7FE01D0FBF7C3FBF7BDADF800001D
S1138A9002237F2268460AF079BC6549487B00B10D
S1138AA00120DFF8D42510567E2805D1086B08B9BB
S1138AB07F20704790F90400704700212320FCF7C1
S1138AC0E7BA5B4890F9161003290AD10022DFF8AF
S1138AD0883582754FF0FF311962816B4020FBF7B6
S1138AE0FCBC70476927010038B50446DFF87055AF
S1138AF005F0EAFBE863FFF7BEF801462046FFF7FE
S1138B006DF8062C02D0FCF793FC01E00020A87459
S1138B10BDE83140FBF71EBF38B50446DFF8381511
S1138B20434D4FF0FF30086205F0CEFBE86395F942
S1138B301600012823DBDFF84415487808B1E86BF8
S1138B40286495F9160002280CBF01210021002099
S1138B50A8758D2C16BF872C26202720FFF73EF8FA
S1138B60E87B28B1A86A09F02EFD0120287431BDE4
S1138B702046BDE8384000220021FBF7AEBC31BDE1
S1138B8080B5FFF778F801460120FFF727F8DFF8F2
S1138B90D014C87C18B1BDE8014000F080BA01BD12
S1138BA00FF2EC40FBF746BB044008404C50084031
S1138BB00001704710B5DFF8A004046A002C15D436
S1138BC005F075FB041B40F2E930A4B284420DD3D6
S1138BD0DFF88C1491F91600032803D1BDE8104086
S1138BE000206EE7BDE81040892095E710BD000025
S1138BF010B558B9FCF71DFCFDF7EEF8044600214A
S1138C000020FEF7EBFFFFF7D5FF02E0BDE81040C0
S1138C10D0E72046BDE81040FDF7E4B8DFF8402473
S1138C20D2E90801C80900F0010070470000000003
S1138C30A85C002088900000400D0300488D0100CE
S1138C402DE9F84F8046DFF8140490B09A46016885
S1138C500F915306144648BF002002D4200602D5C3
S1138C600120FFF78DFFA002DFF8ECB3DFF8F0730B
S1138C70CDF8048026D50021B9749BF8080008B308
S1138C8001980AF060FCE8B9019807A909F0FCFF13
S1138C90C0B99DF82400022808D1BDF81C00FEF7D5
S1138CA03BFEFF2808D0FEF798FE04E0032809D114
S1138CB007A809F0C0F828B1B86A09F0E3FF08B9B9
S1138CC00120B874A00305D5FEF7D5FF01460320A3
S1138CD0FEF784FF97F916000FF2AC3801284FF025
S1138CE0FF3904DBE00139D597F9161001297BDB44
S1138CF097F91600022877DCB86A07F138020021D8
S1138D0009F077FE05F0E0FAF863DFF870134878AD
S1138D1008B1F86B386497F91600012806D00228C8
S1138D2017D10321B975282000215BE00020B87514
S1138D30CBF8209000212B20FEF750FFF87B28B1C0
S1138D40B86A09F040FC012038744DE0B96B002288
S1138D5026E04FF41761FFF789FD45E004F08050E9
S1138D601AF0020108BF00281DD097F91600022846
S1138D700CBF012500250020B8750420FCF75AFB20
S1138D80CBF82090294600F063F9F87B0028D7D16E
S1138D90FEF754FF002814BF8E208D2000220021EE
S1138DA0FBF79BFB20E0600148BF892002D46000F0
S1138DB003D58820FFF7B0FE16E01AF0080118BFAB
S1138DC0FFF77BFE1AF0040107D0AD4A1168890B46
S1138DD001F001012420FEF701FF1AF0010103D084
S1138DE000212520FEF7FAFE200768D5B86A0AAAF2
S1138DF003210AF0B5F9029018B940F69431FFF74F
S1138E0035FD9DF82800BDF82A5007281CBF9BF8A3
S1138E100500002840F0B480062DC0F2B18005F1B1
S1138E2008008B2880F0AC8000200090954E0299B9
S1138E30B86A2B4632460AF09FF9A84203D040F69E
S1138E40AE31FFF713FD3078010600F199800299E5
S1138E50B86A03AA0AF08CF918B140F6C431FFF7D6
S1138E6005FD707800F00700022833D1FEF703FFF8
S1138E7001460920FEF7B2FE9BF807008DF80000BA
S1138E8097F91610032920D19DF81500E8B10021A7
S1138E90B975CBF82090B07800F0300020280FDAB4
S1138EA0062D0DD17078000900F0010B59462920D8
S1138EB0FEF794FEB96B5A468F20FBF70EFB65E074
S1138EC0B96B00224020FBF708FB9DF80000002846
S1138ED05CD105E09DF8150010B10020FFF7F1FD0D
S1138EE071789BF80700A0B18A0612D59BF8080098
S1138EF078B1B86A0AF027FB20B1FEF7BCFE014640
S1138F00062003E0FEF7B7FE01460520FEF766FEE5
S1138F100BE001F00701022905D0FEF7ACFE014683
S1138F200920FEF75BFE0020B8743178491CA94281
S1138F3003D040F61F41FFF799FC9BF804007055DD
S1138F400020FEF7E9FA711973194870FF229DF8A1
S1138F50160088709DF81700C8701A71721903986A
S1138F60000C487108350398000A8871E9B2039827
S1138F70D0713046BA7CFBF7AFFC0020B87405E032
S1138F80FEF779FE01460420FEF728FEE00505D52C
S1138F90FEF771FE01460420FEF720FE14F4863F1E
S1138FA005D0FEF768FE01460220FEF717FEA00179
S1138FB044BF0820FFF798FD14F0084F1CBF07209A
S1138FC0FFF792FDA00044BF0620FFF78DFDA00728
S1138FD044BF0198FFF775FD1AF040010CD0002141
S1138FE00A20FCF755F80198FFF76BFDFFF716FE12
S1138FF010B100200AF0B4FA1AF080011CBF01205D
S11390000AF0AEFA1AF4807112D0019809F0D1FA7C
S113901070B1022802D0032802D005E0892000E0C4
S11390208720FFF779FD03E040F6E111FFF71EFC0E
S11390301AF4007118BFFCF7D7F90F9807490A68AA
S1139040904201D0FBF7E4F811B0BDE8F08F0021A5
S11390502620FEF7C3BD0000205700208C550020B9
S1139060A85C00200A0020FF55810000FC97030043
S113907094720020FE970300945B00204059002066
S113908004400840986500207068792E6300000051
S11390906C69627261696C2E6100000000007047A7
S11390A07FB5DFF8384B0FF240052268029201AB1E
S11390B02E681E608DF805008DF807106B4601229E
S11390C001A904200AF002FC18B140F2993101F020
S11390D004FD00F073F808BF9DF8000001D0FBF711
S11390E097F804B070BD0000120001002DE9F043B0
S11390F0DFF8747A85B03E6880460C46154699467A
S1139100049668460FF25801102204F045FF8DF8CA
S113911003408DF801802C008DF80250DFF8708B2D
S113912001D00C2C03D340F2A73100F0EDFA224613
S1139130494601A804F030FF2D1D6946E8B20AF043
S11391405AFB18B140F2AB3100F0DEFA04983968EA
S1139150884201D0FBF75CF805B0BDE8F08300005D
S113916011000000000000000000000000000000EA
S1139170FEB5DFF8684A0FF23C06236802936D4699
S1139180D6E90073C5E900738DF801008DF803106A
S11391908DF80420694605200AF02DFB18B140F231
S11391A0B73101F09AFC00F009F801D0FBF730F870
S11391B0F7BD0000110001000000000002982168C2
S11391C0884270473EB5DFF8144A0FF24402034662
S11391D020680190694615680D600C22D878C04358
S11391E08DF801005879C0438DF80200D879C04346
S11391F08DF8030004200AF069FB18B14FF4717173
S113920001F06BFC00F035FC01D0FBF701F837BD31
S113921082000000FEB5DFF8C449DFF8747B2168E2
S11392200191012206468DF800200921384606F0F6
S113923093F93B46092201F0ABFFDFF8545A18B109
S113924040F2CD3100F027FD86B10B2107F10C006F
S113925006F082F910208DF8000007F10C030B22B0
S113926001F096FFA0B14FF475710FE0DFF8886B41
S11392700A21304606F070F9FE208DF800003346CE
S11392800A2201F085FF18B140F2DB3100F003FD42
S113929000F0EFFB01D0FAF7BBFFF7BDDFF8F00AEF
S11392A0407C7047DFF8E81A487B0A7B897B00041E
S11392B040EA026040EA01207047DFF8D41AD1F88E
S11392C0130000BA7047DFF8C80A818803E0DFF8AA
S11392D0C00AB0F8011048BA80B2704710B5DFF880
S11392E0B04ADFF8141BE0790A7A904203D040F2C6
S11392F00C4101F0F2FBE07910BDDFF8200BC06AED
S11393007047FEB5DFF8D4480FF2380205462068EE
S11393100290D2E90037CDE900370E462F46052FDB
S113932003DB4FF4856101F0D8FB69466D1CCE5513
S1139330E8B20AF060FA02992268914201D0FAF781
S113934067FFFEBD1300000000000000FEB5DFF85B
S1139350186814461D4632680FF25C0301926F468A
S11393601B88ADF80030030014BF022200220B005A
S113937018BF01231A437A70DFF8A02A11B1002123
S11393809184916208B1002050846B46022200F05F
S113939014F818B140F24F4101F09FFB14B19DF84D
S11393A0000020700DB178782870019930688142EE
S11393B001D0FAF72DFFF7BD1500694602200AF027
S11393C085BA10B504466079E178002808BF002901
S11393D007D001B1012100B1012000230022FFF7D1
S11393E0B5FF2046BDE81040ECE670B50446DFF852
S11393F0A05812E0112803D04FF48E6100F04BFC0A
S1139400A678361D2146F0B20AF0F5F918B140F2FB
S1139410734100F040FCF6B2344420780028E9D1CE
S113942070BD2DE9F84FDFF84087DFF8F099044666
S113943086B01F46D8F800000590164699F81930F2
S113944099F81A200D469C4299F81C0099F81B10B3
S113945008BF954203D18E4208BF87423AD00FF22B
S113946088034FF0000ED3E900AB02AB7840CDE99E
S113947000AB7140F246D34683E8004C6A40384062
S113948031402A408DF80F008DF80B108DF80D2017
S11394908DF804408DF805608DF806508DF807703E
S11394A002A8FFF78FFE694608200AF0A4F918B154
S11394B040F2B64101F011FBDFF8680989F8194060
S11394C0847589F81A50C57589F81B60067689F881
S11394D01C7047760598D8F80010884201D0FAF736
S11394E097FE07B0BDE8F08F116304000000000090
S11394F01CB5DFF874460FF2340220680190694607
S113950012788DF8002001200AF075F918B140F2A4
S1139510DD4101F0E2FADFF804190020087300F0DD
S1139520A8FA01D0FAF774FE13BD00008C0070B5E0
S11395300246DFF8E808816B39B10B789A4224BF00
S11395404878904201D3084670BDDFF8DC389C7936
S1139550E0B20028F8D09868641EE5B250F82500FF
S1139560884218BF0028F3D00678B24224BF457859
S11395709542EDD370BD70B5044619B9FFF7D7FF16
S1139580010011D0CB69002200E0521CC87E824247
S11395900ADA142555435819F7D05D5DAC4224BF4F
S11395A04678A642F1D370BD002070BD0021222070
S11395B076E52DE9F8438146B9F5004FDFF8D0860A
S11395C003D140F2435100F09FF800F0FDFFFFF794
S11395D0EDFF4FF6FF7189450746DFF850480DD17E
S11395E0FFF760FEA042C7F383060CD2062E08BF25
S11395F0082608D0082E06D1062604E00FF204102F
S113960009F00301465CFFF762FE44F26541401A2B
S11396100ED0801E04D0401E08D0401E08D00DE09D
S11396204FF6FC7000EA0909062620E0062E01D058
S1139630082E03D1022060F301090126FFF732FE50
S1139640B500A04206D2062E08BF202502D0082E5F
S113965008BF182507F03C00E9B2884207D007F09C
S1139660C3072F43FAB200212220FFF781FD022114
S1139670FFF79DFF012E074618BF022EC7F3811482
S113968004D0062E04D0082E08D003E0002405E000
S1139690032403E040F2BB5100F036F807F03F0228
S11396A042EA8412974203D002212220FFF760FD90
S11396B0DFF87417CB68002000E0401CCA799042A0
S11396C018DA0C2242431A441779B742F5D1DFF86D
S11396D060070168914211D0DFF848470260002119
S11396E094F91C0001F0F2FA94F91D00012101F033
S11396F0EDFA03E040F23E5100F006F84846BDE8BA
S1139700F2830000060801024046FAF793BD38B51B
S11397107F28044604D140F2226101F0DEF907E01B
S11397207E2805D1DFF8F406C06BB0B190F904408F
S1139730DFF8F406DFF8FC56017908194004001438
S113974080F308042878A04207D000F03DFFE2B27D
S113975005216020FFF70CFD2C7031BD2DE9FE4F73
S1139760DFF804848946D8F8001001910546FFF714
S1139770DEFE0027040008BF8A2000F0E980DFF83D
S11397809C66DFF8A0A6B06BDFF86CB684423BD0D1
S1139790B9F1000F18BFFFF7ABFE9BF8090010B139
S11397A0206AFFF722FE4FF6FF70ADF80200022395
S11397B0DFF8840601887F220DF1020009F0E6FD3E
S11397C0BDF80200010605D400F07F02002100204C
S11397D0FFF7CEFCB06B78B141696269914202BF78
S11397E0017E227E914207D1417E627E914202BF78
S11397F0807EA17E884200D00127B463BAF8280095
S1139800FFF7D7FEAAF8280021462846FFF7B3FE43
S11398100400DFF87C9403D140F2796101F01EF872
S1139820F06BE568844226D0F463206908B1FFF741
S1139830DCFD9AF91B007E2804BF94F90400FFF7AD
S113984066FF306C854216D0002D18BF00280FD05B
S113985001782A78914202BF01892A89914207D16D
S1139860418A6A8A914202BF407C697C884201D065
S1139870356402E03564002F69D0B06BDFF8A83599
S113988018B9996809680C4601E00146044605695F
S11398900A7E6169DFF8A4C55543BCFBF1F14D4371
S11398A06246B5FBF2F2120A8DF8002018B99968E5
S11398B009680A4601E0014602460369097E5069C7
S11398C04B43BCFBF0F043436146B3FBF1F18DF82D
S11398D001106B46022205216220FFF707FC306C61
S11398E0FF2500280CBFFF20408A00F03AF802212F
S11398F001F02AFF306C00280CBF3A2000780021C8
S11399008DF800108DF801006B460222062101F04B
S11399101BFF306C00280CBF0820008900F021F8E0
S1139920122101F011FF306C00280CBF3224447C5A
S11399309BF8090000B9A400FF2C03DD4FF4C361B8
S113994000F08CFFE2B202216120FFF711FC00203D
S11399500199D8F80020914201D0FAF759FCBDE8EA
S1139960FE8F010A8DF801008DF800109DF80000AB
S1139970102804DB0F218DF800108DF801506B4680
S113998002227047FEB500F078F819B140F2A261E6
S113999000F081F900F068F818B140F2A56100F018
S11399A07AF90FF254010A68BB7E00928DF80230F6
S11399B06946032009F01FFF18B140F2AC6100F0C2
S11399C06AF909F0F4FE18B140F2AD6100F063F9F0
S11399D0B06B01F0AAFB4069DFF86024B2FBF0F041
S11399E080006E3080B209F0EEFB00F042F801D046
S11399F0FAF70EFCF7BD000087010000FEB500F089
S1139A003CF819B140F2B66100F045F900F02CF8C9
S1139A1018B140F2B96100F03EF90FF248010A684A
S1139A20BB7EB07B00928DF8013008B10021B17388
S1139A306946032009F0DFFE18B14FF4D96100F044
S1139A402AF901207073307309F0B1FE18B140F2A5
S1139A50CE6100F020F900F00CF801D0FAF7D8FB41
S1139A60F7BD000081000300DFF8B873B87E002161
S1139A7074E601982168884270473B4CDFF89C6388
S1139A802068834D0190317B704770B5DFF89453A3
S1139A900446E87BA0430C40297C04438C4211D04B
S1139AA0FCF79AF9064601F0C2FE38B900F08CFDC5
S1139AB0224600216120FFF75BFB2C743046FCF743
S1139AC091F9EC7370BD38B5DFF858530446A87C9F
S1139AD0A0430C40E97C04438C4208D000F074FDA0
S1139AE0224600216220FFF743FBEC74AC7431BDC5
S1139AF01CB53A4C226801927F23ADF80030C007B0
S1139B0044BF7D21ADF80010BDF8000040BAADF8A7
S1139B1000006B46022202216220FFF7E7FAFFF7FA
S1139B20A8FF01D0FAF774FB13BD38B5DFF8F4428F
S1139B300546207DA8430D40617D05438D4212D02A
S1139B4000F042FD2A4601216220FFF711FB617DEE
S1139B5005F0010001F0010188421CBF2846FFF70F
S1139B60C7FF6575257531BD8C55002038B5054690
S1139B7000F08C000828A94C08D004F0A5FB206351
S1139B80DFF8401A487808B1206B606394F90F003D
S1139B90032803D10021E173402509E094F90F0063
S1139BA0012819DB00212806E1734CBF882589258B
S1139BB09C49DFF8942C4FF0FF30C862107810B144
S1139BC00121617531BDFEF728F801462846BDE83C
S1139BD038400022FAF792BC31BD00008C550020B9
S1139BE070B504008D4D02D195F90F0018B9FFF737
S1139BF07FFC012600E000260023002231460120DC
S1139C00FFF7A4FB76B12046FFF7B0FF687B10B1E5
S1139C10BDE87040F2E68348417B022902D1BDE8E9
S1139C207040AFE670BD7CB5FFF727FF19B140F275
S1139C30DE7100F030F8DFF8A02C106800281AD488
S1139C4096F91D00002809DD0321FFF75AFB18B11E
S1139C5040F2F57100F01FF80020707769460FF2AA
S1139C60340000788DF80000012009F0C4FD48B1EB
S1139C704FF4026104E009F09AFD18B140F629019D
S1139C8000F009F8FFF7F5FE01D0FAF7C1FA73BD49
S1139C90C4BA00008D002846FAF7CCBA2DE9FC417D
S1139CA0DFF8384C5D4D5F4E0746206801908846CA
S1139CB0002169730420FFF793FFAA7F002F40D08F
S1139CC0F77F22B900212020FFF7EAF9A87709F0ED
S1139CD017FD3A4606204243B01800210079DFF808
S1139CE0145CFFF73BFD18B140F64301FFF7D3FFC7
S1139CF0B8F1000F14BF1322002200212020FFF727
S1139D0037FA0FF270010A6800928DF8027044A1CC
S1139D10022009F02EFD18B140F64D01FFF7BBFFFC
