S02F00005A335377697463685F65667233326D673231613032306631303234696D33325F62726434313830612E7333376E
S113400080520120A34B030041DC0100D946030088
S1134010A70A0A010042000004180FAC206A0B0131
S1134020000000000000000000000000000000008C
S113403000000000947F0300000000000000000066
S11340400000000000000000FFFFFFFFFFFFFFFF74
S1134050FFFFFFFF00600F000000000000000000F1
S1134060FFFFFFFFFFFFFFFF8000000000000000D4
S1134070000000000000000000000000000000003C
S11340800000000000000000BC7F0120BC7F012074
S1134090805201203ADD0300284C0300204901200E
S10F40A0100E002000E00F0000000000E3
S113420080520120A34B030041DC0100D946030086
S113421055750200DD460300E1460300000000007E
S113422000000000000000000000000057B2000081
S1134230E546030053AE0000EFC5000087CF000041
S1134240ED460300ED460300ED460300ED46030092
S1134250ED46030075760200C58E0200ED460300AC
S1134260ED460300ED460300E3DF0200B90502005A
S1134270ED460300ED460300ED460300ED46030062
S1134280ED460300ED460300ED4603008B270100D5
S1134290ED4603009BE50200ED460300ED460300F6
S11342A0ED4603000FE8020001E80200ED460300BA
S11342B0ED460300ED460300ED46030063000300F2
S11342C02B00030029000300E1FA0200610003004F
S11342D02D000300310003002F000300A51B030081
S11342E099000300ED460300ED46030055AE0000BF
S11342F0ED4603006DD30200ED460300C346010002
S1134300ED460300ED460300ED460300ED460300D1
S1134310ED460300ED460300ED460300ED460300C1
S1134320ED460300ED460300ED460300ED460300B1
S1134330ED460300102B70B54A4A4A4B4B4C246897
S113434065070CD4C60701D41C4209D100EA040550
S11343508D4208D0521EF1D16FF0020070BD2EE0E4
S11343606FF00108301D1C42FAD1002070BD70B5F9
S11343703F4D6860E8680E46410700D51FE056F8D7
S1134380040B141F0208101D241FA86044B1082147
S11343900820FFF7CFFF0100F4D00421296070BD8D
S11343A0042028600021211612C4162304D10C20F5
S11343B00ABDE87040BCE770BD4FF0FF30563013C3
S11343C041F67131284C0122284BE568E1621A60FC
S11343D0606002262636300B2D0CFFF7A8FF05F08F
S11343E001050100033C201CFFF7A0FF01211F4A27
S11343F011600DB10021E16270BD2DE9F843184F41
S11344003D68894614464A200A80462D0C396201CB
S113441022154B00203A10251A6002E0B044B14442
S1134420A41B7CB108F50056760B7603A6EB0806B0
S1134430B4424946404638BF26463246FFF7919E6D
S11344405003EBD00121085A10133962BDE8F283FE
S1134450000080969800020001001C000340100434
S1134460130C1004000120034000000080B500205C
S113447000F061FB012002BD1E482DE9F0410068F7
S1134480144698468189007D00270025091ACE1E0E
S113449006E0B2B2B9B2404600F042FDFF1C6D1C0A
S11344A0E8B2A042F5D3002000F045FB0120BDE8AE
S11344B0F0812DE9F8430F4E306890469946818982
S11344C0007D00240025091ACF1E09E000F014F82D
S11344D0E41C00F011F8A41C00F00EF8E41C6D1CA0
S11344E0E8B24045F2D33068002100F065FB0120BA
S11344F0BDE8F28398600120BAB2A1B2484600F048
S11345000FBD704780B501F0B3F8FF2805D002282D
S113451003D2DFF87818085C02BD002002BD10B594
S11345200268DFF86C1813880B8054884C80527929
S11345300A7103681A794FF48A53CB804A7102686E
S113454093799A06DFF84C2844BF4FF48B53CB8001
S11345508169137839B9C088DFF83C1803F0FD038A
S11345600880137010BD43F002031370DFF82C4869
S113457081691622204601F02BFA0022227010BD18
S113458080B5002001F039FAFF2001F0CCF801F0E9
S113459042FA00F04FFD01460122DFF8F00701F076
S11345A05BFADFF8EC37DFF8F8275221DFF8F4077D
S11345B001F017FB01F0C8FB01F060FC01F074FD91
S11345C001F091FE01F0D0FE01F0D0FEBDE8014003
S11345D000F008BE704780B501F0C9FF20B903F0B0
S11345E059FD08B903F03FFE03F0A1FEBDE8014008
S11345F003F0ACBE70B5034600224FF6FF70DFF83F
S1134600A84701E0521C92B234F8325085420CD0D3
S11346109D42F7D1B3F57C4F06DB04EBC2056E88EF
S11346208E4201D00D00EDD1104670BD10B5044688
S1134630FFF7E0FFDFF874174FF6FF720B88904224
S113464003D12246DFF8681706E0DFF85C1701EBB8
S1134650C0004268DFF85C171846BDE8104003F05C
S1134660C2BEDFF85407006800B1008A7047F8B58D
S113467004462168DFF84457487900F0F9FF2268BE
S1134680FF280BD100F065F8DFF83417022003F09F
S1134690AAFE2068DFF82C17427944E00001DFF815
S11346A028170B181F7B237FDFF820679F4209D050
S11346B000F04FF82068DFF8183700F045F8227F43
S11346C04EA130E0891C085A1188DFF80877884227
S11346D010D04FF6FF73994202D1B0F5004F09D3C1
S11346E000F037F82068DFF8F03600F02DF8206885
S11346F0028817E02079022818BF032818D11189ED
S1134700507903F0C2FD98B92068E37C29464288B9
S1134710022003F068FE2068DFF8C03600F014F8C9
S1134720206802893946022003F057FE0020F2BDBA
S1134730A07B0028204602D003F0A4FE01E003F091
S1134740D1FE00B10120F2BD31464279022003F0CE
S11347504ABEE37C52882946022003F044BE7CB55D
S1134760144622785507DFF878564CBF05220322F9
S1134770934204D200922A46DFF8681632E0089E7B
S1134780069A30603171F280B460B381207800F011
S11347900100B0732178890801F00101F1732078D8
S11347A00121C00800F001007075F07B30B1317553
S11347B01A46204600F0B4FB317D891C4A1C308225
S11347C03275C9B2605CB389B074501C3075D2B212
S11347D0A15CC4B2A342F17409D2C0B200902A46CB
S11347E0DFF80416042003F0F8FD002076BD0798D6
S11347F0B06104F0CCF93077012076BD2564000067
S11348002DE9FE4F81460E469246DFF8E0759B4641
S11348100D9D3846DFF8D815202204F06DFABDF856
S113482030000297019500905B4652463146484657
S11348300024FFF794FFDFF88085002800F0B6809D
S1134840C8F80070B97CDFF8AC25DFF8AC3511701E
S1134850187800283AD004F0EFFA0246DFF89C15E5
S1134860042003F0C0FD3868BA8941880091437977
S1134870DFF88C15042003F0B6FD042003F06EFD70
S113488020B13868398A4088FFF7D0FEF87B28B118
S11348903A8ADFF87015042003F0A5FDF87CBB7C90
S11348A0DFF864150090B8680278042003F09BFDDB
S11348B0397DBA89B8680123521A014492B204209E
S11348C004F0D2FA59A1042003F087FD3846FFF71B
S11348D026FE384604F078FB002834D1ADBB042E04
S11348E018BF052E03D0022E18BF032E01D10122BA
S11348F000E00022F988386801910121438800937F
S11349000388F87C00F05AF910B3386881798A0674
S11349101ED44288DFF8F414022003F05EFDDFF8B1
S1134920F0440120207000220121384600F007F9EC
S113493038B10346DFF8DC24DFF8DC14022003F08E
S11349404CFD00202070012430E0287D81072DD506
S113495038684179FF2925D10026DFF8345400F066
S113496069FBF1B2814221D2F0B200F083FE8146AC
S1134970F0B200F063FB98B138683A8A418848463F
S113498000F0B9FD60B13846FFF7C9FD386880F81A
S1134990059085F804903846FFF769FE00B10124BC
S11349A0761CDCE73846FFF762FE044600F068FA3E
S11349B01621DFF8E80304F01DFB0020C8F800000E
S11349C02046BDE8FE8FDFF854140878401C0870B8
S11349D0FFE700F07F007047DFF844140870704769
S11349E080B1DFF83C140978012904D1018841F031
S11349F0400101807047022904D102884FF6BF713B
S1134A000A400280704778B1DFF818140A78012A46
S1134A1004D1DFF8142413780B7001E0022A03D1C7
S1134A20017841F010010170704700005D00000042
S1134A302DE9FE43DFF85C432278D30706D5DFF87F
S1134A40EC13022003F0C9FC002070E0DFF86813C7
S1134A500968DFF83C5371B109688B799E0603D568
S1134A60EB8843F02003EB8089794B0603D5E98872
S1134A7041F04001E980DFF82C6331784B07DFF81F
S1134A80741347BF0F78F7700B787370DFF81073E7
S1134A9091070CD539883246C04804F08BFC814616
S1134AA020784FF0490800F0FD0020701AE0BA4960
S1134AB00C884FF6FC739C420AD23B880190009606
S1134AC02A46214600204FF0550804F069FE08E00C
S1134AD03A8800903346294620464FF0420804F0B5
S1134AE044FE8146A87981064CBFDFF8444344A4C0
S1134AF004F0A2F902460294CDF80490CDF80080A7
S1134B00DFF83033DFF83013022003F066FCDFF8FF
S1134B102C13022003F067FC3A880123314602205B
S1134B2004F0A2F937A1022003F057FC4846BDE87F
S1134B30FE8300207CE701469F480068002270B590
S1134B40044620790E461546002818BF01280BD1CB
S1134B50A0680178CA0601D5300005D0A07B0028E2
S1134B6004BFE07C0B2801D1002070BD00218C4AD9
S1134B701180607D00B90821E07B18B9084600F077
S1134B8095F906E041F0040000F090F9208A00F065
S1134B909CF9A07C00F08AF90B2000F087F9E07CF6
S1134BA000F084F9304600F081F92046FFF7B7FCA5
S1134BB02846BDE870403BE70022C0E770B51D46BB
S1134BC09F4B1C78924E012C01D0337813B10020F6
S1134BD0307070BD0B0002D10AB1002070BD002CF2
S1134BE01EBF049C4FF657439C4206D003460A4618
S1134BF02146284603F03BFB00B1012070BD0000B4
S1134C00000000005D00000038B5D288522403463D
S1134C10950608464FF6FD7148BF4924550548BF1F
S1134C20083C150548BF083C120448BFA41E032BCA
S1134C300ED8DFE803F00902060BC0B205F000FA53
S1134C4002E0C0B205F026FC014601E0641EE4B2B5
S1134C50084603F02BFB241AE0B232BD70B50C00F9
S1134C601646054608BF00260FD02078FF2808BF47
S1134C70FF260AD0204600F073F9864288BF064614
S1134C803246611C681C00F0A3FE2E7070BDF8B59E
S1134C9005460C00164603D1002068702970F1BD4A
S1134CA02078FF2804BF6078FF2802D1287068703C
S1134CB0F1BD204600F059F90746BE42B8BF374659
S1134CC03A46A11CA81C00F083FE2F703F126F709F
S1134CD0F1BD2DE9F041541E002B3ED0042A37DCEF
S1134CE000230026984614E0651B002814BF10F822
S1134CF005C04FF0000C571E4D5DA7EB0807FF00E1
S1134D000CFA07FC05FA07F74CEA03033E4308F1E3
S1134D1001085FFA88F59542E6D3042A10DAD50033
S1134D200120D2006D1E00FA02F2524243FA05F14C
S1134D30CC0746FA05F048BF1343C00748BF1643E3
S1134D409E4215DBB34203DA4FF0FF30BDE8F08139
S1134D500020FBE7AE42F7DB5B1CDDB29542F7D2E5
S1134D60651B00280CBF0026465D4D5DB542F1DA97
S1134D700120EBE70021334A01E0891CC9B2535CEE
S1134D808342FAD350184078704700000C7F01200A
S1134D90B45F01204C7F0120AA7901209C6001208E
S1134DA0127C0120C05F0120646C03000A7F012093
S1134DB0606A0300786A030098600120D46A0300E3
S1134DC0F46A0300106B0300AC5E0120186B03004F
S1134DD0406B0300506B0300486B0300586B0300E7
S1134DE07C6B0300606B0300846B0300786001201C
S1134DF0A46C0300CA5B0120C65B0120806A030027
S1134E00886A0300A86A0300B46A0300A06B030065
S1134E10487F0120F06B0300C86B0300CB5B0120CB
S1134E20497F01204A7F01204B7F0120F86B03005A
S1134E30446C03003C6C0300206C0300546C0300BE
S1134E40C95B0120C46C0300283808288041C00FC6
S1134E50704740B11C280BD01D280CD01E2818BF49
S1134E601F2805D009E00B39102906D2002070470D
S1134E701B29FBDB01E00929F8DB8A207047704716
S1134E8080B500203E49087005F066FD3D4A10805B
S1134E9052213D4804F0AEF800203C4908803C48CB
S1134EA000210022002380E80E0001BD10B537491F
S1134EB00A88522A07DA344CA054521C0A8092B24F
S1134EC0A018401E10BD002010BD38B50546C0B264
S1134ED0FFF7ECFF0446280AFFF7E8FF002C18BF91
S1134EE0002801D0204632BD002032BD70B5002418
S1134EF05E181D46B2420CDA1A46264900F02DF817
S1134F00002070BD5218024412F8013C6D1E03EBE0
S1134F100424EAB2002AF5D1204670BD0423E5E753
S1134F2080B50223FFF7E2FF80B202BD38B50B461D
S1134F309342194C194928BF194A08D2C55CFF2D60
S1134F4008BF0025ED186D1CAA4204DA154A00F0CA
S1134F5004F8204632BD184432BD022003F03DBAA5
S1134F600078FF2808BF0020704780B50222002186
S1134F70FFF7D6FF4FF6FF72904208BF002002BD34
S1134F804C7F0120AA790120C05F0120127C0120FE
S1134F90B45F0120F4610300087F01200C62030068
S1134FA01C620300306203007FB5DFF8E429DFF8F8
S1134FB0E4091368008803A90B60ADF80600DFF864
S1134FC0D819DFF8D80909880568DFF8D4090088FA
S1134FD0DFF8D02902ACADF802000020ADF80000E3
S1134FE00220ADF80410107025600021DFF8B80924
S1134FF003AEDFF8B8290DF1060402EB0112655C7B
S113500002AC157036F81130538034F8113001AC0D
S11350109380655C0DF1020395715C5C00EBC40543
S113502095601DF801400125491C1473557302292C
S1135030DFDB7FBDDFF86C0900787047DFF86C199F
S113504001EB0010407B00F001007047412818BFBD
S1135050422803D0432818BF442801D101207047B7
S113506000207047412818BF422801D10120704711
S113507000207047432818BF442801D101207047FD
S113508000207047F8B515461E46069A079B04464D
S113509000F04AFA60B1042100F0D3FB070007D006
S11350A0204600F0AFFC324629462046B84795E03A
S11350B0F1BD2DE9FE431400064688461F461CBF79
S11350C00A9D002D20D0FFB128780C9B0107618830
S11350D020794CBF4022802200F026FAA0B108219A
S11350E000F0AFFB814678B1207900F08BFC9DF88D
S11350F02C0000953B460190224641463046C84765
S1135100BDE8F74300F087BCBDE8F783F8B5069C1B
S113511016461A460546234600F006FAD0B1210089
S11351200BD1022100F08DFB040013D0284600F0BF
S113513069FC31462846A0470BE0102100F081FBB2
S1135140070007D0284600F05DFC22463146284679
S1135150B84743E0F1BD2DE9FC41089C17461A46C7
S11351600646234600F0E0F908B9862016E000253B
S11351709CB9202100F065FB804670B10A9C099D12
S1135180304600F03FFC0B9823462A4600903946EF
S11351903046C047054600F03EFC2846BDE8F6818F
S11351A0F8B504462078A568002600F02BFC11E031
S11351B0F1B214222868514347183988207803F043
S11351C055F80121384600F03CFB01001CBF207853
S11351D08847761C2979F0B28842E9D3BDE8F140CA
S11351E000F019BC38B50024DFF8B8570AE0DFF83E
S11351F0BC07210600EB1150427BD10748BFFFF7E3
S1135200CFFF641C2978E0B28842F0D331BD10B5D9
S1135210002301E0001D5B1C9CB28C4204D2048874
S11352209442F7D1408810BD002010BDDFF88017EC
S1135230401A0C2290FBF2F20021DFF8780710E00C
S11352400288B2F57C4F28BF00F002B80846EDE7AB
S1135250DFF86417401A142290FBF2F20021DFF801
S11352605C0792B2D3E710B50C460188628891427C
S11352700DD1037B2279134209D0B1F57C4F04D3BD
S1135280FFF7E6FF2189884201D1012010BD0020EB
S113529010BD10B514460A88E3889A420AD10288E0
S11352A0B2F57C4F04D2FFF7CBFF2189884201D1AC
S11352B0012010BD002010BD2DE9F74F82B0044637
S11352C09A460025002703E0C88845197F1CFFB2D1
S11352D0DFF8D0160A78974280F0D880DFF8CC0641
S11352E000EB07102378027881689A42ECD1009190
S11352F0407BC107EAD54FF0000804E0B9F80A0082
S1135300451908F1010800995FFA88F00A7990427A
S1135310DCD20A685FFA88F114204843214602EB84
S113532000094846FFF79FFF0028E7D04FF0000B25
S113533007E030790BF1010B10F0300F04BFF07867
S11353404519B9F808101FFA8BF08842D9D21FFA10
S11353508BF20C21D9F804004A43861822463146C0
S11353604846FFF796FF0028E3D0039827463446C3
S113537000B104602079810611D5DFF834060021DC
S113538005E00279930644BFC27851180C30A0425C
S1135390F7D3DFF82C0689B200EB010B04E0DFF849
S11353A02416ADB201EB050B0E9E049D3046E6B10A
S11353B021464846FFF744FF024623887988387817
S11353C0A84602F04DFF00B32079C1062BD5002E6C
S11353D0214648461BD0FFF733FF009503467988E2
S11353E03878224602F055FF51E0002D4FD0214677
S11353F04846FFF725FF0246238879883878D8463F
S1135400AB4602F02BFF0028DED17E203FE0FFF701
S113541017FFE17800950346019179883878224690
S113542002F035FF33E05FEA0A01A07808BFE178B3
S1135430412818BF422808D043280DD18A1E92B2B1
S113544041465846FFF723FC1EE04A1ED2B24146AD
S11354505846FFF703FC17E04428EFD03EB95FEA53
S11354600A0004D0E078824538BF89200FD3E17860
S1135470B8F1000F03D1584605F0E8FC04E00A46F1
S11354804146584600F0A4FA002000E0862005B00A
S1135490BDE8F08F2DE9F84305468946174698463E
S11354A0002603E0217B0A0615D4761C2979F0B284
S11354B088421DD2F2B2142328685A4384182088E3
S11354C04845F2D1390006D0802FEBD0402FECD1E3
S11354D0217B4A06E9D5B0F57C4F07D32046FFF778
S11354E0B7FE404518BFB8F1000FDED1204600E0FA
S11354F00020BDE8F283134680B507E0134680B56B
S1135500402204E0134680B5802200E0002200F02F
S11355100BF800B1012002BD80B500234022F6E75C
S113552080B500238022F2E770B50C4615461E466E
S113553000F09EF8FF2801D1002070BD2146DFF85D
S11355406C4404EB001033462A468068BDE8704082
S1135550A0E70023E8E770B50C4615461E46002177
S113556000F02FF8022800DAE8E7002070BD1346A7
S1135570402201E00022FAE72DE9F84F82468B46EB
S1135580904699460026FFF7CFFF08B9FF2016E0A2
S11355900027DFF81844DFF80C5408E04B46424675
S11355A05946FFF7D8FF00B1761C7F1CFFB228785C
S11355B0874203DA3901605C5045EFD1F0B2BDE8AF
S11355C0F28F70B50022DFF8E43300E0521CDFF8FC
S11355D0D4432578AA420BDA14011E5D8642F5D124
S11355E00D0003D01C44647BE507EFD5D0B270BD39
S11355F0FF2070BD80B50021FFF7E3FFFF2801D134
S1135600002002BD00F061F8407B00F0010002BD03
S113561070B50E4604460021FFF7D3FFFF2801D1E1
S1135620002070BDDFF8841301EB00153200687BA5
S113563000F0010114BF40F0010000206873B14282
S113564014D076B12846FFF7ABFD0FE014220068B2
S11356505143761C0844027B01882046D20900F09D
S1135660FFFBA868F1B202799142EFD3012070BD2B
S11356700121A6E7DFF834130001085C7047F8B590
S11356800C46FFF7F5FF01460020FF291FBFDFF896
S11356901C2302EB01118968002915D0002214276C
S11356A00DE01B0608E0D6B20D687E43AB19451C1D
S11356B01B7B2600F5D05B0648BF2846521C0D799B
S11356C0D3B2AB42EFD3C0B2F2BDDFF8E01201EBCC
S11356D000107047F8B50C461546FFF7C9FF0021C6
S11356E0FF281ED0DFF8C432002203EB00134FF072
S11356F0140C01E0491C521C9868D6B20779BE42CA
S11357000FD200680CFB06F62F003044067B02D053
S1135710760602D4EFE73706EDD5CEB2A642E9D13C
S1135720F2BD0020F2BD002109E010B504460121BC
S113573000F005F82046BDE8104003F044BC2DE914
S1135740F84F86B0804603F022FA96490A7805900D
S11357504FF0000A0492DFF8549207E009EB0010BE
S1135760017B059881420FD00AF1010A04995FFA7E
S11357708AF0884261DAB8F1FF0FEFD04046FFF7B4
S113578077FF8246FF2858D04FEA0A6000244FEA88
S1135790105B00E0641C09F1080050F80B00E1B252
S11357A00279914246D20168E3B214204343CE18F1
S11357B0328940F22D118A42A8BF05F071FB0027FF
S11357C00CE00328ACBFAA6805F108020120009090
S11357D00023002101A8FFF76FFD7F1C3189B8B2B7
S11357E08842D7D2BAB20C2170684A4385182B7903
S11357F0D906F2D419F80B208DF804203188ADF8BD
S113580006102879410630464CBF802140218DF88E
S113581008102988ADF80A102946FFF711FDADF8E4
S11358200C002979E8784A07CBD5AA680328CDDB90
S11358301268CBE7B8F1FF0F96D007B0BDE8F08F40
S1135840704730B5047B012200230C4205D10020AF
S113585030BD144218BF5B1C5200D5B28D42F8D340
S11358600069DBB250F8230030BD5749401A800369
S1135870020C00215548CAE42DE9F84F05460024DE
S11358804FF6FF79A246487D35B108B9022507E0F5
S1135890012804D1012503E008B9082500E0042506
S11358A0002693469846484800EB860739885945B0
S11358B016D1FB782B4213D0B878404510D30CB1E5
S11358C082450DDBD9060BD53846FFF7CEFFB978F4
S11358D01CB1514501DB484502D201248A46814668
S11358E0761C2F2EDFDB4846BDE8F28F2DE9FE4FF4
S11358F0002700284FF00108487D06D008B902248B
S113590007E0012804D1012403E008B9082400E0D9
S11359100424B9460D9EDDF83CB08A46ADF800205B
S11359200193294901EB89052888BDF800108842B4
S113593023D1EA78224220D0A9789DF83800814208
S11359401BD39AF80F00D20608D5B0B12846FFF74A
S11359508CFFBAF81010814201D00EE068B9BB4543
S113596013D0BDF8300087420FDAA9780198C155E9
S113597032887F1CBFB2521C328009F10109B9F18F
S11359802F0FCEDB4046BDE8FE8F4FF00008F9E74D
S1135990605B030002D9030004D90300645B0300C5
S11359A006D90300437F01203C5E0300AC5E012066
S11359B0305C0300505E0300385D03004C5E03005E
S11359C0E85E0120CC5E0120705B03002C5C0300C8
S11359D062B181423ABF5318984203F08FB98018DC
S11359E013F8011D521E00F8011DF9D170477047CC
S11359F00C480D4908600020704700B170207047C2
S1135A000020704780B500F013F8FF2801D1A320CF
S1135A1002BD002002BD00207047704700BF03484C
S1135A200078704708D9030014600120AC5E01209F
S1135A3080B5FFF71DFEFF2818BF002002BD00211E
S1135A4001707047007800B10120704705F060BA1A
S1135A5000F0AAB900F0B6B94018491C1CBFB1F156
S1135A60010100F8012DF9D1704770472DE9F34F7A
S1135A7081B0022905DD19000AD0BDF80840052CC3
S1135A8004DA9149022002F0A8FCA5E042F00402E5
S1135A90009001270270190005D000980327437075
S1135AA000981B0A83700C9CFEF78DFF00994FF041
S1135AB0000BC85500987F1CBBB2C4547F1CDDF892
S1135AC0389007E022464146184403F015F9E719D7
S1135AD00BF1010B0D985FFA8BF1405C00287DD02F
S1135AE0002605464FF0000AB046732D38DC4C2DD5
S1135AF059F8048B1CBF532D622D14D159F8044B53
S1135B004C2DA4B206D1A2464FF6FF7082453DD07B
S1135B1002263BE0532D39D15FFA84FABAF1FF0F24
S1135B2034D0012632E06C2D04D14046FFF71DFA33
S1135B30841C13E0732D04D14046FFF711FA441C72
S1135B400CE0A5F130000A2838BFA5F1300405D3D4
S1135B50A5F14100072822D2A5F13704A4B215E02B
S1135B600024752D08BF01260ED0762D08BF02260D
S1135B700AD0782D05D1032606E02B463219534965
S1135B8027E0772D0BD1042659F804ABBDF8081093
S1135B90BAB2A218B2189142EFDB00980BE02A4681
S1135BA04B49022002F019FC16E000F803A07F1C08
S1135BB04FEA1A2A761EF1B2BBB20029F5D1009041
S1135BC0002C85D0B8F1000F7FF47CAF2B46224621
S1135BD04049022002F001FC002000E0B8B2BDE818
S1135BE0FE8F10B53C4C20603C4801803C490A6063
S1135BF03C4A136010BD3A490A683A4B1080196850
S1135C004FF48A524C80CA8070477FB50C4608A96D
S1135C10009202910246314D2F4E2988306801933B
S1135C200023FFF723FFFFF7E6FF04B070BD38B58C
S1135C3003462B4C2848256802682A4829880068AE
S1135C4001B0BDE8304003F0D7BD0020EFE77CB5DC
S1135C500192214A1468224D2E680094214C338805
S1135C60226803F09DFD76BD0022F0E738B500F010
S1135C7003F803F07AFD32BD0091194C16492568EA
S1135C800B6818492A88096870470021EEE7F8B5BF
S1135C90114C2568124E376884B003953C88BDF8D2
S1135CA02850104E0294346801956588009503F0DD
S1135CB0E0FD05B0F0BD0B4800687047094A136861
S1135CC01871106841717047545E0300985E0300B8
S1135CD07C5E0300CC5E0300A85F01208E79012066
S1135CE0AC5F0120B05F012038B504460D46104674
S1135CF0FFF783FE00202070A847BDE83140FFF77E
S1135D008ABE002249494A48EEE7002249494A48E6
S1135D10EAE7002249494A48E6E770B504461646D0
S1135D200D463046FFF76EFE002020703046A8472F
S1135D30BDE87040FFF76FBE012242494248ECE7DC
S1135D40022240494148E8E780B5012005F0E6F920
S1135D503F4805F077F93F49087001BD80B505F06B
S1135D60F5F9012805D03B480078BDE8024005F06C
S1135D7053B901BDF0B5002400E0641C364D2E88F3
S1135D80E3B2B3420ED2E7B20C256F43334B3B442C
S1135D901E78864201BF5D888D421E799642ECD101
S1135DA01846F0BD0020F0BD80B519B905F0B0F873
S1135DB0002002BDB1F1004F02D205F0B4F8F7E7BC
S1135DC0022002BDB1F5000F3CBF0902FFF7ECBF92
S1135DD00220704770B505461E46FFF7CBFF04004E
S1135DE00ED02846FFF706FC50B1A0683146FFF7F5
S1135DF0DBFF28B904990598A0716171002070BD7A
S1135E00022070BD1CB500F004F80022FFF7E2FF89
S1135E1016BD9DF81040009313460194704780B559
S1135E2000230093FFF7EEFF02BD00000B9F01006B
S1135E30445E0120299501004C5E01205FDB0100D6
S1135E40545E012087530200345E01203C5E012031
S1135E5038540120417F01209A5B0120D85301204E
S1135E6080B5FFF787FF20B1806800210170002012
S1135E7002BD022002BD0022F2E7704735E0DFF8E0
S1135E8010010178022901DB0120704700207047CE
S1135E9038B50446DFF8F8502878A04203D02146EC
S1135EA002F014FA2C7031BD10B5DFF8E840207808
S1135EB058B900F01AF805F065F9012120B10288FB
S1135EC0B2F5817F28BF017D2170207810BDDFF8F5
S1135ED0C0100978012803D10129D8BF022002DDAE
S1135EE010B9012900DDD3E7704729480178012959
S1135EF000DD704738B505F031F902462649012026
S1135F0002F06BFA0120FFF7E2FF244C2078FF280F
S1135F101AD105F037F9B0B14588FF2218212D06B2
S1135F206D0E05F0010525701D4805F077F9012D6A
S1135F300AD1FFF7B9FF052806DBD0211948BDE8CF
S1135F40344005F08BB9207031BD80B5FFF7CDFF2B
S1135F50BDE8014005F016B970B504460D46164675
S1135F60FFF7C3FF0420FFF793FF3246294620467C
S1135F7005F03EF904460220FFF78AFF204670BD73
S1135F8080B5FFF7B2FFBDE8014005F03DB9000060
S1135F90817F0120827F012050950300D05B012086
S1135FA0247401204495030080B5A449042002F020
S1135FB014FAFF20FFF7B9FBFF2002F053F9FF208A
S1135FC002F053F904F006FC00F06EF802F09BF9BD
S1135FD000209B49088001BDF8B500F093F80098B3
S1135FE005B000F0010000BD18B587B001A96846EE
S1135FF004F0A4FE9DF80F00924C0822A070BDF896
S11360000C0001A92080201DFFF7E2FC9DF814007C
S11360108D4960730978204600290CBF00228B4A01
S113602005F0B9FA00208649088008B010BD80B593
S1136030684604F08DFE932809D1854801680A78E2
S1136040012A8DF8002004BF02218DF800109DF86C
S1136050000002BD78B58FB004460D4616462C21CB
S113606004A802F0C7FF8DF81240ADF8106005A82F
S113607002F01BF900F046F80098ADF83600FFF77F
S1136080D6FF8DF8380000F040F8294604A805F042
S113609022FB010004D16A490A8842F480720A8012
S11360A010B070BD06F00CB8F8B5012006F00BF87E
S11360B0684806F01EF8684806F01EF800F022F85A
S11360C00098C1071CD56549042002F086F9604890
S11360D001680878012808BF022005F067FC022047
S11360E005F0F5FF00F00EF8009840F080000090F5
S11360F0684605F0DBFF00F008F8032002F066F8BC
S113610005B000BD684605F0C7BF78B58FB005A8D7
S11361105349282202F0F0FD04F022FC08B10020CB
S11361201AE001A802F031F804004E4D4E4E02D0A0
S113613000904E4B0AE005A802F0E4F805A901A876
S113614005F0FBFB040006D00090494B324629467B
S1136150042002F042F9204610B070BD10B5384852
S1136160018841F40071018001F094FF01280CBF03
S11361700124002406F01AF828B102463D490420FF
S113618002F02BF900E024B105F04EFFBDE8104009
S11361900AE710BD38B50446294D288884B0810526
S11361A004D5912C40D1FFF7FFFE3DE010F08F0F96
S11361B026D0902C02D1FFF717FF35E0912C33D075
S11361C002902D48009001942C4B274A2C4904201E
S11361D002F003F92878010626D404F0C1FB032851
S11361E00AD128480178042906DA491C01700021E3
S11361F0012000F0A0FD17E0022006F07CFB13E074
S1136200FFF780FF902C0FD10098C1070CD54208EE
S113621052000092002101910291ADF80C106846E1
S113622005F044FF06F0A3FE05B030BD0448017834
S113623011F08F0018BF012070470000C84F030001
S11362406A790120345D0120977E01201C5E0120C3
S113625014600120008810020070EF05984F0300BD
S1136260E44F03000C5003002050030028500300A7
S11362704050030058500300C0500300A8500300CE
S1136280885003003A7F012080B5FFF70BFF00F030
S1136290FE0004E080B5FFF705FF40F00100BDE813
S11362A0024005F010BF704780B5A0B040887D2241
S11362B0694604F06CFC01001CBF694602F0B9FE9B
S11362C021B000BD0B46014680B50022184607F0F8
S11362D0A2F9010001D1182002BD01220121BDE86B
S11362E0084007F078BB80B502F088FE0120BDE8C5
S11362F0024010B5040014BF0848002007F066FCF3
S113630050B1002C0346064914BF064A064A04202D
S1136310BDE8104002F061B810BD0000947B03009A
S1136320507B03007C7B0300887B030038B507F0B7
S1136330C3FC07F0E1FC78B101F0D3FF60B1094C74
S1136340207804F0A3FE0546207804F0E0FE3DB179
S1136350BDE8314001F0C4BFBDE8314007F014BDD1
S113636031BD0000417F01207047704780B5522144
S1136370504802F03FFEFF2252214F48BDE808403A
S113638004F04CBFFEB5054601F0DEFD0646284686
S113639001F0EAFD9DF800102A464FF6FF741EB383
S11363A0019B284621281B781ED24220434E022BF3
S11363B009D24343F01830F81230A34214D05B1CC6
S11363C020F8123010E00FD1002306EB420700FB47
S11363D003F637F806E0A6451CBF0EF1010E27F8B8
S11363E006E05B1C022BF2D3334F324E37F81230E7
S11363F036F812C09C458041C043C00FA4451CBF61
S11364000CF1010C26F812C0092D18BF0B2D0AD16E
S1136410B6F814C0BF8A01EB0C0EBE45AEBFB782FE
S11364206144B1820CE01D2D0AD1B6F83AC07F8FC9
S113643001EB0C0EBE45BDBF491E614471877787D1
S113644036F81210994203D310B9284601F03DFFE3
S113645000201B49C6B28A5DAA4204D0401CC6B2C1
S1136460112EF7DBF7BD112E15DA02F092FB05466B
S1136470144801788D4203DBDD21134804F0EEFE5D
S1136480222045431149481930F81610A1421CBF77
S1136490491C20F81610F7BD5221064802F0AABD87
S11364A0FF225221044804F0B9BE034A22F8101016
S11364B0704700009C740120F0740120687501206D
S11364C0DC980300D65B0120CC98030044750120BE
S11364D0DFF8081AC873704770B5DFF8045A2978D2
S11364E03824DFF8006A3068614301448A78112A4D
S11364F004D0B621DFF8F00904F0B0FE2878316842
S1136500412214FB00F40819827070BD10B50220FA
S113651002F042FB02F047FBDFF8C439DFF8C4099C
S11365201C78016838204443DFF8B0290819417801
S1136530042903D1107C401D107405E04FF47A71D6
S113654002F1180004F0EFFCBDE8104002F02CBB8F
S113655080B5DFF8980906F0D0FDDFF8940906F05D
S1136560CCFD07F015FCBDE8014007F020BCDFF8C6
S11365707029DFF870091378016838204343C8187C
S1136580807833281CBF4328532801D10120704749
S1136590002070472DE9FF4E08F050F908F09FFBEA
S11365A0002867D0DFF8344900202076DFF844095A
S11365B001790C3001F07AFA207D18B107F0F0FB74
S11365C0002020750021217300F056F80AF0B4FC75
S11365D008F0A7F9DFF8200900274825DFF800694B
S11365E0DFF818B900F1E20900F1E40A3DE0012105
S11365F011E002F0D8FA30784FF6FF72684339F8A8
S113660000109142F3D100220821504401F0AEFD64
S1136610411E8941C90F94F8202002F001020A4268
S113662020D030780822684339F80010ADF80810FB
S11366300AEB00016846FFF7CBF90A230A2201F0AE
S113664087FADFF8A00896F800C00168382010FB2C
S11366500CFC02230B2201EB0C0000F12C010020A6
S11366600AF085FE02F0A0FA7F1C9BF80010F8B235
S11366708842BED3BDE8FF8E10B5DFF86408017808
S1136680DFF860283820136810FB01F018444078C4
S1136690032818BF04280CD148204143DFF85828A8
S11366A05018B0F8E2104FF6FF72914208BF032071
S11366B008D001F069FC044601F06FFC214603F0A8
S11366C07CFE022001F08EFC0AF0E4FE01F012F8D8
S11366D00AF05EFC01F0D7FA20B10020BDE81040BA
S11366E00BF086B910BDF8B5DFF8F477DFF8EC47A6
S11366F0E07339783825DFF8EC6730686943014482
S11367008878032818BF002823D0332818BF4328CB
S113671019D100F01FF83978306815FB01F54219DA
S11367205178032918BF042907D10321801C41553E
S1136730E07BBDE8F24002F0A0BAE07B02F09DFAF3
S1136740BDE8F14098E721208870BDE8F14005F0EC
S11367509ABDF1BDE37B13224DA103200BF091BD43
S113676038B5DFF87C3701F002FB00214FF6FE70EC
S11367701519A9700BF05DFF4FF6FF700BF075FF54
S1136780DFF85847FFF7E6FFE07BBDE8324002F050
S113679074BA00002DE9F8430546DFF8480A0BF007
S11367A0EFFF80462B46182239A10320DFF830671B
S11367B00BF067FD002088F8000031783827DFF8F7
S11367C02497D9F8000079437024084441780329B8
S11367D018BF042924D00024290007D1416B91F863
S11367E02400E8B181F824409D2017E0FF2D06D055
S11367F04FF47A7045434046294604F094FB3278BE
S1136800D9F8001017FB02F701F13400C15991F8CF
S1136810240028B9012281F824209C2002F02DFABA
S113682000F068FF2046BDE8F28310B5DFF8B40934
S11368300BF0A6FFDFF8A836DFF8A8161C780A6864
S113684038214C4311194A6B92F8241009B90020DD
S113685010BD04F075FB4FF47A71B0FBF1F0C0B2D7
S113686010BD38B504F05DFC0446DFF878190BF070
S113687088FF0546FF2818BF02F095F90020207014
S1136880FFF788FFFF2D01D001F02CBB31BD0000C4
S11368904242000038B588B004460D4668691622A5
S11368A00790297C0691E8890590297B0491E87A70
S11368B0039095F90A10032002912B89CDF800501A
S11368C00BA1019323460BF0DCFC012007F0B9FA7D
S11368D0287B00280CBF4FF6FE700BF09EFE2B4663
S11368E02246014609B00120BDE83040ABE000007B
S11368F04242387057424242574244002DE9F04721
S1136900DFF8DC9599F800C08846DFF8D8653824AC
S1136910316814FB0CFC1D4682468B1C13F80C00DA
S113692000284BD1170049D0042F47DC0BF0DCFFC3
S1136930002843D102F039F900283FD102F037F999
S113694008B1042F3ADB287B032817D14FF6FE71D8
S1136950884515D1012F08BF4FF0000810D0022F31
S11369602CD10BF05AFE4FF6FC71884202D20BF088
S113697054FE01E00CF0CCF9804601E0012F1DD05B
S1136980BAF1000F0CD0287B032838460CBF012134
S11369900021012F18BF00200CF086FC010030D12B
S11369A02946404601F01AF801002AD102F0F9F80C
S11369B002F0DCF820B102F0FAF808B1702020E00F
S11369C099F80020306814FB02F4811C085D332818
S11369D018BF532803D00020DFF800158873384609
S11369E000F0C0FF00214FF6FF7001F0C6F9DFF898
S11369F0F017087820B102F0DAF808B90DF030FB8E
S1136A000020BDE8F08738B50446DFF8D0540822EA
S1136A102146281DFEF7DCFF207BDFF8C434022862
S1136A20C8BF0020287028789421E9730028DFF873
S1136A30B4041C780CBF012131210268382044437E
S1136A401019817031BD38B51C46FFF757FF01009E
S1136A5032D1207B0328204602D1BDE8324090E0A9
S1136A60FFF7D1FFDFF874040021818101F0D8FB26
S1136A70014640094FF0010305D1DFF8740C027898
S1136A8003FA01F108E001F01F0140F0180003FAD5
S1136A9001F1052241EAC06106200DF061FD01000B
S1136AA00AD0DFF83C44DFF83C1425780B68382121
S1136AB04D43002259198A7032BDF8B586B0064696
S1136AC00C4617461D46082204F10C016846FEF7E1
S1136AD07FFF21898DF80A700022ADF80810217813
S1136AE08DF80C206B468DF80B1032464FF6FE7174
S1136AF00120FFF703FF01000AD16846FFF783FF77
S1136B00204600F007F8010004BFDFF8D0130D752C
S1136B1007B0F0BD10B50446DFF8C423DFF8C403A2
S1136B201378016838204343C8184078032818BFF5
S1136B30042806D1E079C10744BF94F905000DF09B
S1136B40C6FD207801F0CDF801F008F922896189A9
S1136B50034600200DF0B6FE040004D09420FFF795
S1136B60C2FD204610BD9420FFF7B2FC022002F0C3
S1136B7012F8DFF8684300F0B0FD03202074002011
S1136B8010BD10B504460022082101F0EFFA08B147
S1136B90012010BD0BF041FD00224FF6FF7100F003
S1136BA05BFF217C204600F081FF6269E189207C43
S1136BB00AF0B9FCCA4ACB48137801683820434329
S1136BC0C8184178012908BF0DF098F9FFF754FD62
S1136BD0002010BD2DE9FC4100F0A6F804460A444B
S1136BE0907810B90BF080FE08B1702094E007F0A3
S1136BF031F9DFF8E8822CB10222214608F12000A5
S1136C00FEF7E6FE684601F086F808B1932083E0BB
S1136C109DF800301422B0A103200BF032FB00F0E9
S1136C209BFF010078D19DF8000000F09BFE3278B4
S1136C3038686A43411C885C012818BF022808D0C0
S1136C40032818BF042842D1002001F0DDF80028F1
S1136C503DD000F098FF327838686A43411C885C64
S1136C60032814BF04280DF022FFFFF705FD0120BF
S1136C700DF044FF01004FD13078396868434A1C55
S1136C80125C032A18BF042A0ED198F820309C07FE
S1136C9008D50522DFF82C17012000F061F8010067
S1136CA039D039E0032A01D0042A34D1084400F150
S1136CB02C0102230B2201200AF059FB00F02EF8CC
S1136CC091F82C20500726D507F05BFF23E031789C
S1136CD03868132215FB01F5012441198A7000203C
S1136CE088F80D0001F09CFA400903D101F098FAEC
S1136CF084400BE001F094FA450901F091FA00F0A8
S1136D001F0045F01805844044EAC5640522214665
S1136D1008200DF025FC0020BDE8F68131783868A4
S1136D2015FB01F5411970476D4E327838256D4FCA
S1136D3039686A437047FF2212E0000038B5044600
S1136D40104603280D4618BF042801D0022032BD86
S1136D5000F008FE294620465FF0FF02BDE83840F7
S1136D602DE9FC41164680465D4A0D4600F094FE2E
S1136D703FD08778022F07D0032F3AD15FEA08016A
S1136D8002D10079810734D4332001F02BF907F0C4
S1136D9055FD15F0784F294612BF0522DFF850093A
S1136DA0027806200DF0DCFB0446A0B94B4F387383
S1136DB0012007F046F80BF04CFC78805FEA0800ED
S1136DC014BF022001203870381D00F0BCFF0020E1
S1136DD07873BE7302E0384601F004F95FEA0800F4
S1136DE03146284602D00DF0A9FE03E00DF0A5FEC1
S1136DF000E070240194009543462C2203A1032053
S1136E000BF03FFA2046BDE8F681000042424442BE
S1136E100000000010B506F0F4FA00F1100420465A
S1136E200DF091FE4FF6FF5101402046BDE81040A1
S1136E300DF08FBEF0B587B004000D4617461E4610
S1136E4008D128460DF092FE03A90DF003F993280A
S1136E5018BF03AC0C9807218DF8081002A9C8705C
S1136E604F7001203F0A00908DF80A7001940423AA
S1136E7002AA012128460DF0DBFF040028D0294690
S1136E800EF0FEF9300004BF2046FFF7C3FF0D9853
S1136E9008B920461DE0300008D1114B1F78114875
S1136EA0382102684F43D119C87820B928460DF01B
S1136EB06CFE20B93EB928460EF0ECFB18B1204612
S1136EC00EF0AEFD04E00022002120460EF02FFE5D
S1136ED0002007B0F0BD000042420000FC77012012
S1136EE0A77F01207C5701202C7F00002E7F0120EA
S1136EF0287F012020780120E0790120D65B012041
S1136F002DE9FC4F8DB08A4610460EF073FA064602
S1136F10BDF8340008A900250DF0C6FF01460E98FF
S1136F204FF6FF79A846002814BF01240024002747
S1136F303CB109B10DF1200847787F0807F001073B
S1136F4004E0BDF834000EF0C9F98046DFF8CC1B2C
S1136F500978DFF8982C382012684143531C585C98
S1136F6003281CBF0428B8F1000F00F035811898DD
S1136F70731C1E5C8DF808A0700800F001008DF8E9
S1136F800200300658BF46F0800650188378022B62
S1136F9008D1BAF1000F01BF3432515891F82400DE
S1136FA0002801D10225C2E040460BF0A7FA83462F
S1136FB0BDF834000EF0A8F9824608B94FF0010A72
S1136FC034B10E98001D0DF0BEFDADF8000001E0D7
S1136FD0ADF800B040460EF0F1FA83464146002079
S1136FE00DF0C2FD01469DF8020008BBDFF8FC0B62
S1136FF00068DFF8FC3B1A7800F13403DFF81C0B5F
S113700090F800C0382010FB0CFC53F80C30187EAC
S1137010824208BFFF290AD0002100200DF0A4FD00
S1137020FF2804D0CB4503D10EF0BEFA00287DD052
S1137030BDF800004FF6F871884221DA8B450CDA6E
S11370405946884209D042460AA80EF0DFF900F0FA
S1137050CBF8002105A80EF08AFABDF800B003A908
S113706058460BF06BFA58B90022082103A801F026
S11370707DF828B9082203A940460EF073FE30B902
S11370804FF6F8718B4502DABBF1000F07D10BF014
S11370903FFE834603A90BF051FA0028F7D03800CD
S11370A00AD1DFF8781A09783820DFF8402B4143F9
S11370B012685318D878E8B900F09BF801210091C0
S11370C0CDF804A033465A46414600F001000EF0C4
S11370D0D8FB4FF6FF718146884227D000224946EB
S11370E00AA80EF093F900F07FF8002105A80EF02D
S11370F03EFA1CE01CB1101D415C8A0716D44246BE
S113710059460AA80EF082F900F06EF800F071F802
S113711000F001015346324605A80EF068FA28B97A
S1137120BDF81C904FF6FF71894500D101250E98DA
S1137130A8B19DF8080020B948464FF6FF7188426F
S113714003D10E98001D0DF0FEFC012101910146B2
S113715000953B464A464046FFF76CFE08E000F0C7
S113716048F82B464A46414600F001000DF09BFBCF
S113717038001EBF48464FF6FF71884219D00DF003
S1137180F5FCFF2815D0DFF8944994F800C0DFF827
S11371905C1A0A68382111FB0CFC02F134034BF62B
S11371A0FF7153F80C20526832F810300B4022F86B
S11371B010300E9880B10BF030FA0FB1002405E0C6
S11371C09DF80810002914BF0324012401464346F6
S11371D04A4620460EF0D6FD0FB0BDE8F08F000001
S11371E0EA5B0120FC76012005A80AA90A2201F025
S11371F083BDBDF834000EF011B82DE9FE4F814671
S11372000F46144601A938460DF04EFE8346002170
S1137210009138460EF0EEF88246DFF8E86B5FEA3C
S1137220090009D0BBF1000F504618BF0DF1040B43
S11372300DF02FFE054604E038460EF04FF8834665
S1137240354638460EF0D6F802590DF10100009289
S11372500DF079FC80465FEA09009DF8034018BFF1
S1137260002D06D00822314628460EF07BFD00286A
S113727007D13CB94FF6F871884503DB9420FFF73A
S113728032FA97E0DFF8946831783825DFF85C2922
S113729015FB01F112685318D87818B19AF8010057
S11372A0830714D55FEA090011D0901C415C0229C0
S11372B008BF002C0BD140460BF0BBF909F03CFE93
S11372C09923FFF748FA992001F0D7FC72E000F007
S11372D05FFF0028DFF8147C18BF002C05D0942031
S11372E0FFF701FA0020387664E000F051FF00282F
S11372F060D058460EF0DDFDFF28DFF8A44B18BF20
S11373005FEA090106D13278482059464243A05A1F
S11373100EF0BEFF0FF021F8317848205A46414361
S11373204046615ADFF8C44800F096FBDFF8B00B22
S113733090F90210090279843078216815FB00F075
S11373408A1C125C012A16BF312A11224322891C8D
S11373500A54022001F01FFCDFF8940B016807F1C6
S1137360180003F0E0FD0DF0A2FB00203874317822
S113737015FB01F521684A19D07820B907F11800E6
S113738003F0C6FD14E0B9F1000F06D09AF801002D
S1137390820702D5FFF7FEF80AE0481C415D042984
S11373A006D1052107F1180003F0BDFD092038744A
S11373B0AD21F97300F067FC10B100200AF018FB4E
S11373C0BDE8F78F00F8FF072DE9F04F88468DB030
S11373D040460EF00FF80546092200210FF0AEF9E1
S11373E0064640460DF07AFF824602AB052205A907
S11373F040460FF0FBF98DF8000002282AD09DF8D2
S1137400080000238619F6B2A95D06F11002D2B273
S11374108DF80110414601200DF08BFB002819D096
S11374209DF801003827DFF8F446DFF8C0974FF6DF
S1137430FF7B01280FD0022819D0042800F0CB804C
S1137440062822D0072800F09180082838D07C280C
S113745000F09380E8E040460DF0E0FE0096002343
S11374604246002100F00100FFF74AFDDCE000F095
S1137470E4F8012B02BFDFF8741A0878002803D15E
S113748032464146FFF7B9FECEE050460DF068FBA8
S11374900646584508D040460DF0C0FE32465146D7
S11374A000F001000DF0EAF900F0C7F8022B06D154
S11374B001F076FB50460DF031FB01F075FBB3E0B3
S11374C0A819401C0DF03FFBADF80200A819C01C20
S11374D00DF039FBADF80000A819801D0DF033FB49
S11374E006465845EBD00DF0E2FA00F0A0F88B5CAC
S11374F0132B09D100F047FB40460DF0EFFE014687
S1137500BDF800000EF0C4FE00F091F8885C02287B
S113751018BF132823D130460BF08BF8BDF80200B6
S11375200BF0A3F80021002000F0C0FABDF8000021
S1137530514600F022FCDFF8A809C078DFF8B4193E
S11375400F28B4BF401C0F20087000F0D3F8207837
S113755017FB00F7D9F80000811CCA5D132A63D118
S11375602321801CC1550DF06AF85DE09DF80010E0
S113757005AA404606F07BFC56E0A8194078652829
S113758002BFA91C885D6D284ED14046133605F014
S113759050FFF1B2814247D20822514603A8FEF7B8
S11375A017FA6A46F1B240460DF0FAFA00283BD1C8
S11375B0BDF80000C0B3DFF840490120207001F09D
S11375C0EFFABDF8001003A80DF09CFA01F0ECFAF4
S11375D00020207028E00622002128460FF0AEF893
S11375E028180DF0B0FA04460DF08CFFE0B90FF640
S11375F04C10008800210191ADF80A00009102238B
S11376000DF10A02012120460DF012FC06000BD0F8
S113761021460DF035FE40460DF000FE00223146B5
S113762000F0010006F015FA0DB0BDE8F08F2278E5
S1137630D9F800007A43811C70472278D9F80000F9
S113764017FB02F7811CCB5D7047F8B5022001F0EF
S1137650A3FA01F0A8FADFF8944800202076382530
S1137660DFF8B864DFF8847507F039FB40B132788D
S113767039686A430A44D07810B9FEF78BFF2BE0CF
S113768007F02DFB10B900F083FD68B1207C58B1E0
S113769000F023F8207C411E217401F082FA014697
S11376A000200AF008FB17E0327838686A43811C2E
S11376B08B5C132B0DD000F06BFD50B93278386819
S11376C015FB02F5811C485D11281CBF4328412885
S11376D002D1E07BFFF707F8D1E2C82104F11800DA
S11376E003F021BC0020DFF8041808747047000080
S11376F0EB5B012080B501F07FFAFF2807D000F092
S1137700E8FA416B91F8240010B1012000E0002058
S11377100DF05CF8DFF8D40700214180001DC0E9BA
S1137720001101BD2DE9F84F0C460546DFF8CC6782
S11377300121DFF8ACA784B090467173504606F07F
S11377403AFB04F0EDFA002814D1012D18BF042DE2
S113775000D085B9CDF8008023462622BDA10320A0
S11377600AF08FFD01F01CFA4146204603F04AFB63
S113777001F01AFABBE0DFF8A4733A78DFF86C542E
S1137780382428686243811C885C23280DD100F0CA
S1137790FBFB044600F001FC214602F00EFE022031
S11377A000F020FC07F0BDF8A1E0B8F1000FFBD118
S11377B021281CBF0428532802D104F064FD96E05C
S11377C000F0E6FC002800F0AC8006F036FB28B997
S11377D0307B00280CBFAB2094209FE0504606F07D
S11377E0EAFA28B140F21B710FF2407003F036FD43
S11377F0307818B95046FFF78DF978E00AF00DFF9C
S11378003A78834628686243411C885C032818BF81
S1137810042807D19AF80700C10744BF9AF9050064
S11378200CF055FF9AF80000DFF874864FF0480911
S113783000F057FABAF80A00002100F09EFA00F0AE
S1137840A7FC80B1BBF1000F03D04FF6F8718B4554
S113785009DB0BF05DFA3978834619FB01F138F83E
S113786001209042F5D058460AF0E3FEBAF8080029
S11378700AF0FBFE06208DF8080000F06FFA8DF880
S113788009000020019000903878022302AA19FB15
S113789000F0012138F800000DF0CAFA824608B958
S11378A018203BE0387819FB00F9504638F80910E5
S11378B00DF0E6FC307802281CBF5046FFF7AAFA08
S11378C00022002150460EF032F930B39420F073B8
S11378D0022001F060F93A78286800F079F814D1B0
S11378E0C82106F1180003F01EFB03203074102099
S11378F000210DF048F910B90EF063F910B1002021
S11379000AF0D8F905B0BDE8F08F4FF4167106F10E
S1137910180003F008FB0020E8E79420FEF7E3FEDC
S1137920E5E73A7828686243811C8B5C132BDED12F
S113793000F00AF9BDF800000AF097FE00F023F900
S1137940387814FB00F42868411C095D032918BF2A
S1137950042904D13321801C01559620DEE7FEF76B
S11379608BFEC4E7F8B507466C4D2878DFF89065C0
S11379703824316860434A1C135CBB4204D0491C60
S11379800F54384601F072F904F0B0F860B13FB911
S1137990002004F0A7F801F004F90146012212E0E6
S11379A0012004F09FF800E027B12A78306800F045
S11379B00FF804D101F0F5F80146002203E001F0CC
S11379C0F0F8012201460020BDE8F84006F016B8A0
S11379D014FB02F4411C0B5D042B704770B592B08C
S11379E006460C4601F0D3F8E17A054600200FF074
S11379F0D6F908B98A202AE094F90A0000F0E6FBD7
S1137A0008B18B2023E000F07FF9E17A00F8D41F5D
S1137A10A27A294642706A4600200AF074F84FF6AA
S1137A20FE708642ADF804606A460CBF4FF6FF70E4
S1137A302089ADF802002946002009F089FF08B129
S1137A40022004E02089DFF8B4144880002012B03A
S1137A5070BD00004242420038B50C4615460AF09B
S1137A60E8FD0BF00DF92946204600F086F906F0F2
S1137A70E4F938B1DFF86804C0780F28ACBF0F20F0
S1137A80401C05E0254A00F007F80CBF0020012047
S1137A90DFF86014087031BDDFF8640413780168FE
S1137AA038204343C8184178012970477FB50446FC
S1137AB00E4600F049F8194DC4B1DFF848240021FE
S1137AC0304609F030FD29783820484A414310688F
S1137AD00822435C08448DF80430417802A88DF8EC
S1137AE005102146FDF774FF10F0F4F82A784820B9
S1137AF0DFF814144243881810F8D41F8DF80310CB
S1137B0041788DF802100AF0A4FDADF800000AF0E7
S1137B1084FDADF8060000F019F87FBDA77F0120B1
S1137B201FB5044600F010F81CB100208DF80500C4
S1137B3007E00AF072FDADF806000AF08AFDADF820
S1137B40000000F003F81FBD684653E0102307222D
S1137B506946002009F00BBC80B58AB0FFF7F4FF3A
S1137B60BDF8000004A9ADF818009DF803008DF8D5
S1137B701B009DF802008DF81A00BDF80600FFF7FF
S1137B802DFF0BB000BD70B586B0012000F03CF9AC
S1137B900FF2AC31D1E900234FF6FF7504002E46F5
S1137BA0CDE900230FD0DFF864130A784820DFF80A
S1137BB058634243B018B0F8E26000F1E4010822CF
S1137BC06846FDF705FF10F096F802A800F012F8D9
S1137BD0002CBDF80E000EBF00226A463546294629
S1137BE0FFF73AFF10F087FB06B070BD7C57012009
S1137BF09A7F0120014610230722012009F0B7BB18
S1137C00F8B50446082000F0C7FF00F0CCFFDFF809
S1137C10FC52DFF8FC022B78017848204343DFF85C
S1137C20E822D01880F8D41000F02DF810B100200C
S1137C3009F0DEFE00210020FFF738FF29783826FE
S1137C40AF4F3868714301444878032818BF0428AB
S1137C5002D10CF03DFD01E00CF003FA204609F0DE
S1137C6096FF9B23FEF777FD9B2001F006F8297809
S1137C703868002216FB01F6304402854285BDE8CF
S1137C80F14000F091BF00200FF039B810B5044660
S1137C90214600200FF083F808B98A2010BD00F0B7
S1137CA018F88078022818BF032801D0702010BD6E
S1137CB097480470082000F06EFF0AF015FE08B122
S1137CC03D2010BD934A944909F047FF00B1A1201B
S1137CD010BD8E4A8A481378016838204343C81877
S1137CE0704710B504460AF0FFFD08B13D2010BDF1
S1137CF000F00AF880F8D440FFF7C5FF10B1002067
S1137D0009F076FE002010BD804A137848207E4991
S1137D104343C818704738B584B004466846FFF733
S1137D2069FF9DF8050040B1042806DC00F0B0F8B6
S1137D309DF80410525D8A4201D0932001E0207026
S1137D40002005B030BD1FB504466846FFF752FF5A
S1137D50082202A92046FDF73BFE1FBD6B4B10B560
S1137D6000F005F86D4910194278885C10BD64482C
S1137D701C7802683820444370472DE9F843814653
S1137D80624E307848250C4668435F4F92B03918EC
S1137D9007F1E408A1F8E29040441CB9082103F07B
S1137DA055F803E008222146FDF712FE00F0EFFE2D
S1137DB001466A46002009F0A6FE3078082268438E
S1137DC008EB000104A8FDF703FEADF80E9000F0E7
S1137DD0DEFE01466A46002009F0BAFD30784FF60F
S1137DE0FF7115FB00F57819B0F8E20088421EBF58
S1137DF0002C08EB05010CF0A4FE13B0BDE8F083E1
S1137E0000000000A47801203EB504463B4890F8E9
S1137E1020104FF6FF75C80708D500F01AF8BDF812
S1137E200800A84202D000F00FF828B1002128462B
S1137E30FFF7A3FF00203EBD24B1BDF8080069464A
S1137E40FFF79BFF01203EBD0822FF21684600F09A
S1137E508DB90A230A226946012009F088BA38B587
S1137E6004462F480AF08CFC00F012F851194A6BB2
S1137E70002C82F826401EBF2A490988002906D012
S1137E804FF47A725143BDE8344003F04CB831BD2D
S1137E901E4B1B491D780A6838214D43704700006A
S1137EA0C27A012038B503F03CF905461E490AF0B0
S1137EB068FC0446FF2818BF00F075FE134B002031
S1137EC028701D780E4938200A6845435019416BC3
S1137ED00020FF2C81F8260000D003E031BD000013
S1137EE020780120BDE8314000F05EBEFC7701201F
S1137EF004580120B87F012058780120FC77012024
S1137F007C57012000F8FF07E0790120A77F0120BA
S1137F10A57F0120A5F20000017C0000ECBA03005B
S1137F2014770120AE5B01203C7701206173736FED
S1137F3063696174696F6E2E630000000460000061
S1137F40FFFFFFFFFFFFFFFF20B500210FF2F82224
S1137F50CBB2D35C834205D0491CCDB2082DF7D3F4
S1137F60002020BD012020BD20B500210FF2E02219
S1137F70CBB2D35C834205D0491CCDB2082DF7D3D4
S1137F80002020BD012020BD8B4A137848208B4956
S1137F904343C818B0F8E2007047874A1378482072
S1137FA086494343C818E4307047834A84481378A9
S1137FB0016838204343C818416B087E70477E4AE5
S1137FC07F481378016838204343C818C078704745
S1137FD0794B10B57A491C780A6838214C43111939
S1137FE0C87010BD2DE9F041734D2A783824744EC1
S1137FF031686243074673480A4497700AF0C0FB2D
S113800080467148022F1ED12B78316863434A1C85
S1138010D75C042F18BF02F07BFF2A7830686243D4
S1138020411C885C03281EBF0428404602F070FFF0
S11380302978306814FB01F401194A68D00054BF50
S11380409024BC2415E00021017088F8001005F08C
S113805041FD2A78316814FB02F4481C005D0328B2
S113806018BF042802D10CF033FB01E00BF0F9FF38
S11380709124204603F0D4FA50B9234613224DA18B
S113808003200AF0FEF82046BDE8F04100F0F5BDFB
S1138090BDE8F081484A4A481378016838204343D0
S11380A0C818807800F00F007047434A444813789A
S11380B0016838204343C818817801F00F01022970
S11380C001D1012070470020704710B592B00446DA
S11380D0FFF7EBFF20B900F03FF818BF932019D148
S11380E000F055FD00F097F8BDF8020020819DF8DE
S11380F00100A0729DF800102046E172FFF723FEF4
S11381000020207304F1140104F1100009F0E3F9D4
S1138110E081002012B010BD38B592B004460D467F
S1138120FFF7C3FF20B900F017F818BF932011D14F
S113813000F02DFD01466A46204609F0E4FC9DF856
S113814001000021287069709DF8000000F01F00F4
S1138150A870002013B030BD174A1948137801687D
S113816038204343C81881780329704710B5002389
S113817000E05B1CDCB28C4205D210F8014B944247
S1138180F7D0002010BD012010BD082110F0B7B8B1
S1138190094A0B481378016838204343C81880788B
S11381A001281CBF3128332801D101207047002049
S11381B07047000042420000A77F0120E0790120BF
S11381C07C5701200C770120D879012070B5044632
S11381D092B0214600200EF0ACFD0546C0B268B94D
S11381E000F0D5FC06466A46314600F016F88DF8D4
S11381F001406A463146002009F0AAFBE8B212B0F9
S113820070BD80B592B000F0C2FC00F004F89DF996
S1138210010013B000BD01466A46002009F073BC9A
S113822080B592B000F0B3FCFFF7F5FF9DF80000B5
S113823013B000BD0120704780B5FFF7F1FF40097E
S113824018BF012002BD00000001020304051D2027
S11382500203040508090A0B012070470120704736
S1138260012070477047B520704770477047002061
S1138270704700207047002070470020704700209E
S1138280704700207047002070470020704701208D
S1138290704701207047B5207047002070470020C8
S11382A070470020704700207047704700207047D7
S11382B07047002070477047704700207047842043
S11382C07047704700207047704770477047002020
S11382D0704770470020704701207047704770470F
S11382E07047012070470020704700207047044801
S11382F001680878012808BF0220704700000000C8
S113830014600120704770477047002070470020B8
S113831070470020704700207047002070470020FD
S11383207047002070470020704700207047704756
S1138330B520704700207047002070470020704728
S1138340704770477047B520704770477047704753
S11383500020704770477047704770474FF6FF72B0
S11383600146904208D0000A01D0002070473B48E3
S1138370027811EA020000D001207047020A07D1F6
S1138380364A1378002914BF184323EA00001070FA
S1138390704710B5830800EB5374C1080122E40848
S11383A0A0EBC40002FA00F000EB012080B210BD83
S11383B0F8B504460D4616461F46FFF7CFFF58B1E1
S11383C03A463146202010F0FBF81DB120A12020B0
S11383D010F0EEF822480480F1BD0CB480B50A46D2
S11383E002AB012104E00CB480B50A4602AB0021C3
S11383F0FFF7DEFF01BC5DF80CFB2DE9FC41002416
S1138400184DDFF8648013A713A6A0B2FFF7C1FFCD
S1138410FFF7A4FF00282246294614BF30463846F9
S1138420009058F824302020641C10F0ACF8202070
S113843010F011F9042CE8DBBDE8F381FF220121DF
S11384400648FDF709BB054800210170704700008C
S11384500D0A00006E6F000059455300C85B0120EF
S11384600A7F0120DC660300D054012080B5FFF7A9
S113847090FF012103E080B5FFF78BFF0021BDE8E9
S113848004407BE71CB5044621684879FCF73AF8B8
S113849088B92068418803290DD0E27C00910B49FA
S11384A0019243790A4A0120FFF797FF01212046F0
S11384B0FCF782FB07E0204610F0E6F801001CBF41
S11384C02046FCF779FB012016BD00BFEC660300D3
S11384D0186703000098002100E0491C8AB2824218
S11384E0FBD370472DE9F84F86B004462168E07C41
S11384F00026B1F802800490607DA568B4F80C9061
S11385000028277D07BF40228DF80C2080238DF89A
S11385100C304879FBF7F6FFC8B90498002818BF57
S1138520022814D003281CBF0528B8F1030F0ED06D
S1138530DFF86C140120FFF750FF049BDFF864247C
S1138540DFF864140220FFF748FF01211EE2E07BFC
S113855018B1218A002900F05181DFF850341E80BF
S1138560617D00290CBF0821002108B141F00401FC
S11385700846FCF79BFCE07B18B1208AFCF7A5FCBD
S11385800646A07CA9EB070ADFF824B4FCF78EFCAE
S11385900499781C80B2162900F23081DFE811F0CA
S11385A017003601810034006501810029016A0148
S11385B030016F0174017901E2008D012E012E0159
S11385C02E019E01DB019E01E801E2008D010120E4
S11385D0FCF76CFCDFF8D4639DF80CA0B8B2801CE7
S11385E08145C0F0BC804A46B9B22846FCF798FCE5
S11385F0834600F00AFA00F0EBFC18B900F005FA23
S113860010F0D7FBBF1CE9E70420FCF74FFC002661
S1138610ADF80E8002E04744FF1CBFB2A9F103008D
S1138620874231D200F0E6F98246A81C10F807B060
S1138630A9EB0701CA1EEB1C92B2D919584610F0D7
S1138640F7FC5FEA000808BF4FF0800B12D0E81C6B
S11386503844CDF808B00190218A9DF80C30524678
S113866000912068BDF80E10407910F05BFA834643
S11386700028D0D05846FCF719FC5046761CFCF76D
S113868024FCBBF1800FC6D1F6B2BDF80E80002EDB
S113869065D1E07B277DC549002814BF0420022052
S11386A0088004204FF0000AFCF700FCD34626465D
S11386B0ADF80E80CDF814901EE09DF80DA0FCF7E7
S11386C0F5FB4046FCF701FC13E0E81C3844CDF808
S11386D008900190318A9DF80C3042460091306830
S11386E0BDF80E10407910F0DBF90100E5D10BF173
S11386F0010BE719FF1CBFB20599F81C88421FD271
S11387008AB239462846FCF70BFC80460598A91C1A
S113871011F80790C01BC21EE91C92B239444846A6
S113872010F086FC04000AF101008DF80D00CCD194
S11387309DF80DA08720FCF7B9FB4046FCF7C5FB6C
S11387400499304605290CD0BAF1000F07D15FFA1D
S11387508BF109B980211AE10020FCF7A7FBFCF793
S1138760E8F916E10C290CBF0D201620FCF79EFB3E
S113877000F040F904998146A81CC55D0C2903D179
S11387801A2D06DB192504E0152902D1142DA8BFE2
S11387901325E07B98B1208A4FF6FF7188420ED1F1
S11387A020689DF80C304A464079414610F0D9F9CA
S11387B04FF6FF71884218BF002E00F020F97B4865
S11387C0018800200BEB0107FCF770FB049801956E
S11387D09DF80C3015284A4641460CBF0120002064
S11387E00290208A00902468607910F015FA38709D
S11387F0B5E72046FFF73DFD0028B2D18121C5E051
S11388002046FFF790FD0028ABD1F7E7B8F10A0F37
S113881026D1684E307818B3E07B002804BFA9EB5A
S1138820070008281CD100F0E5F8002802BFA91CA5
S1138830C85D002802BFE819C078E22810D1391DAC
S11388404A4689B22846FCF769FB00F0F3FA00F0C7
S1138850F3FA024658490220FFF7BFFD00203070AA
S113886000F0C3F800F0C1FB8EE000F0BEF8FFF7A3
S11388706FFD89E000F0B9F8FFF7FDFC84E000F03B
S1138880B4F8FFF752FD7FE000F0AFF800F0AFFB63
S11388907AE0EF5D2D5C208A9DF80C102B46019048
S11388A0009124683A4641466079FCF7EBFB2A467E
S11388B039464046FFF7E1FC6BE0E95D01B1012177
S11388C0049A162A0CBF012200220092A9EB00028E
S11388D093B22A184046FFF7D2FC55E015F80790EA
S11388E0681CC55D112904D11220FCF7DFFA0027AA
S11388F003E01420FCF7DAFA0127E07B78B1208A40
S11389004FF6FF7A50450AD14B4642462146384637
S1138910FCF7B2FF504518BF002E00F070F8234E4C
S113892030880395CDF808908246C0F15100019635
S113893080B200900BF1010000EB0A03424621468D
S11389403846FCF7D3FF00B101200BF80A00308849
S1138950401C308003E700F031F81CDB00F03CF8E9
S11389600020FFF7B7FD00F02FF8FFF78CFC0BE0B9
S113897000F024F80FDB00F02FF80120FFF7AAFD28
S113898000F022F8FFF77DFC18B900212046FCF71F
S113899013F9012000E0002007B0BDE8F08F0000CB
S11389A020670300486703002C670300127C012042
S11389B0C05F0120467F012050670300EE5D06B1D1
S11389C001260746B94570471FFA89F00090218AAD
S11389D0EB19324640467047A9EB07091FFA89F0A4
S11389E00090EB193246414670471FFA8AF2E919A2
S11389F0404670474A4639462846FCF791BA03D0A8
S1138A0020823070000A70707047308853465A468E
S1138A10C0F1520080B20190218A0091D4F800C0C4
S1138A2041469CF8050070472DE9F0427D4E002038
S1138A3030707D4C20683821382500F0DBFA33781B
S1138A407A49087822686B43D05430782168002230
S1138A50684308444270307821686843084482704F
S1138A6010F022FB327821686A430A44107210F035
S1138A701BFB327821686A430A44507231782068BB
S1138A806B4A6943014410786A4AC8703378216894
S1138A9017686B43C818476167490A7802763078CB
S1138AA0D4F800C0654A074615FB07F312680CEBBF
S1138AB00301CA61624AD2F800902C22574309EBA1
S1138AC007020CF13407FA5009F016FE30782168D9
S1138AD015FB00F501F1340251594A680968BDE8F3
S1138AE0F0420CF056B880B592B06A4600210020DE
S1138AF009F009F808B1012018E05249524A0A91D4
S1138B000B925249524A0C910D9210915148524A7B
S1138B1052490990524B0F9211910E936A460021CB
S1138B20002008F015FF00B10120C0B213B000BD51
S1138B3080B5002000F01AF828B1002000F005F8F4
S1138B4008B1002002BDFF2002BD364A3648137822
S1138B50016838204343C818807802281CBF1128B4
S1138B60432801D101207047002070472D4A2E4828
S1138B701378016838204343C818407801281CBF83
S1138B800228032801D101207047002070470020EB
S1138B9070470020704770470020704701207047DD
S1138BA0704700207047704770470020704780B5B9
S1138BB000F020F820B10020FFF7D8FF00B1012019
S1138BC002BD80B500F016F808B1002002BDFF20F8
S1138BD002BD10B5044600F00DF848B100F019F8D4
S1138BE04078012818BF022802D10CB9012010BD19
S1138BF0002010BD0020A8E780B5FFF7FBFF30B1CF
S1138C0000F007F84178032901DA002002BDFF20B3
S1138C1002BD044A04481378016838204343C81845
S1138C2070470000A77F01207C570120E05B0120F2
S1138C30E15B012084570120D75B01208857012084
S1138C40805701200FDC00000D4B0100CDD7000040
S1138C50B1220200E7DA0000FD060100714A0100BA
S1138C60C3D900000021002009F025B8002818BF4E
S1138C7010F03DBA704702F0E5B801F07BBF33B5A0
S1138C8085B005468DF80420FFF75EF904462846B2
S1138C90FFF76AF97CB10028BDF818000FD1FFF77F
S1138CA0CBFAFF288DF8000004BF00218DF80010D6
S1138CB0CDF808D016E0A8B106A8029012E0FFF79C
S1138CC0BBFAFF288DF8000003AA04BF00218DF829
S1138CD000109DF80000BDF8181002928DF80C00E9
S1138CE0ADF80E10DDE901010A4601462846FDF7FC
S1138CF049FB07B030BD70474AB1000011F8013B91
S1138D00521E00F8013B1CBF11F8013BF8E7704705
S1138D10454B0A464FF461612DE9F041DFF80881C3
S1138D20B0FBF8F84FF461663C2703FB18000124FC
S1138D30A446B0FBF6F34FF0000EDEB201FB1606BC
S1138D40A0EB03101371B6FBF7F6012307FB160023
S1138D5056714FF4FA679071324E04E0002400E03B
S1138D6001240EF1010EC64538D2200004D0D8B239
S1138D70022808BF1D2007D093701780D8B282F84C
S1138D8003C0304410F8010C5FFA8CF1884206BF2E
S1138D905B1C4FF0010C0CF1010CD8B20D28E0D192
S1138DA07F1CBCB2600804EB90750123AD08B4EBE2
S1138DB08501D3D1642094FBF0F0642101FB1040C1
S1138DC00028CDD14FF4C87094FBF0F04FF4C87173
S1138DD001FB1044641EA441E40FC2E793701780A2
S1138DE082F803C0BDE8F08118B587B0044605A930
S1138DF0FFF78EFF9DF81A009DF819109DF81730A3
S1138E0003909DF818000291BDF8141001900748D2
S1138E109DF816200088009104940549FFF7DDFAB7
S1138E2008B010BDFC690300805101000A7F0120D5
S1138E30D8690300FFF786BAFFF72FBA2DE9F0418E
S1138E4004460D4616469846FFF788FA50B10027A7
S1138E5005E02A5C41462046FFF7C5FA7F1CB8B2FC
S1138E60B042F6D3BDE8F081002B14BF3EA33FA36C
S1138E70E4E738B504460D462846FCF771F8024687
S1138E80691C07E038B504460D462846FCF76DF822
S1138E900246A91C204601B035A3BDE83040CDE709
S1138EA018B587B00178394C0691427805928178DB
S1138EB00491C278039201790291427901928179F5
S1138EC03E220091C37920882F49FFF78CFA08B01D
S1138ED010BD014600220220FFE72DE9F84F80462D
S1138EE089469246002724A424A50FF2880B274E16
S1138EF013E05A460DE030880123082209EBC7012C
S1138F00FFF7B2FF7F1CBAF1000F01D14745F0D142
S1138F102A4630882146FFF766FA4745EBDBBDE871
S1138F20F18F2DE9F0410446184D2888FFF716FA11
S1138F30B0B10120002612A70FF24808E1070AD5B4
S1138F4018B928884146FFF74EFA2888F2B2394604
S1138F50FFF749FA0020761C6408F1B21B29EDDB07
S1138F60BDE8F0810000000025782000257800008D
S1138F702563000000000000202570000D0A000099
S1138F80256400002C2000008C6603000A7F012069
S1138F9080B5FFF78DF9FBF7F3FABDE8014010F057
S1138FA0B1B980B5FFF787F9FBF714FB10F090FA1D
S1138FB0BDE80140FDF7BAB980B5FFF77DF9BDE81A
S1138FC0014010F0D3BA7047FFF7A3B9FFF7A7B970
S1138FD00020704738B504460D46FFF7BBF9294613
S1138FE02046BDE8344010F0DEBAFFF79AB9FFF727
S1138FF0A5B97047002202F015B970470120DFF8C7
S1139000A81408707047DFF8A0140A7882421CBFC5
S11390100870FDF76EB970470170090A4170801C31
S1139020704710B504460822FCF7D2FC04F108008E
S113903010BD2DE9F04F07460D468BB0DFF86C14D8
S11390400220FFF7CAF9162102A8FFF7D3FF6A78B6
S113905029784FF6DF70DFF8588401EB02214CF6D3
S113906001420140914208BF05F10D0004D04CF6C5
S11390700100814260D1E81D41780278841CBDF86A
S11390801C0002EB0122214640F00200ADF814203E
S1139090ADF81C0008220DF10900FCF799FC04F15D
S11390A008014A1BD2B2BA1AD0B2062844DD4B7862
S11390B0087800EB03230B2B3ED18B78C81C921E3F
S11390C023F02C01D2B2032903D04246DFF8E41383
S11390D02FE013F00C018DF8081018BF08291ED0DA
S11390E00C2922D1062A27DD00F05EF9ADF81A20FA
S11390F000F05AF9ADF818204178027802EB012209
S11391009906ADF816200DD5BDF81C00B5234246CE
S113911040F00100ADF81C00DFF89C1309E0052ABB
S1139120E6DA09E0801C441B07E00B464246DFF800
S11391308C130420FFF751F90024E4B2002C00F052
S11391408180DFF87C130420FFF74DF99DF80800B7
S113915008B991A108E0082808BFDFF8681303D014
S11391600C2804D1DFF860130420FFF73CF9DFF882
S11391705C1300F016F9BDF81420DFF8541300F066
S1139180C7F99DF81C0085A681070AD5D14904209A
S1139190FFF729F90DF10900FFF782FE00F000F94D
S11391A004E0BDF81220CC4900F0B2F9BDF8162055
S11391B0CA4900F0ADF9BDF81820C9490420FFF7E9
S11391C012F90420FFF7CAF830B1FBF74AFA014656
S11391D0BDF81800FBF72AFA00F0E2F89DF8080041
S11391E00C2804D1BDF81A20BE4900F091F93F1BA8
S11391F02A19F9B202A8FFF776F8A0B92A19F9B228
S113920002A803F0C5FB70B9BDF816304CF25E003D
S1139210834204BFBDF81800B0F5805F05D1B249A0
S11392200220FFF7DAF80120B3E0F9B24FF0000CA6
S1139230022909DC03200B4600904246AB49042076
S1139240FFF7CBF80020A4E0BDF81C20D007F9D428
S113925015F804E05FEA8E7004D54246A44900F094
S113926057F9EFE71EF0040018BF4FF0080C5FEA4F
S1139270CE7658BF4CF0040C5FEA0E764CBF4FF02C
S1139280020E4FF0010E4EEA0C0C38B1052902DA39
S113929042469849E3E72819067901E028198678B7
S11392A04FF00009BDF818E04FF6FF7103E009F133
S11392B001005FFA80F94FF0060A0AFB09FA8E48AA
S11392C05044B0F800A08A4517D09A4501BFB0F8C1
S11392D002A0F24590F804B0B345E8D1407910EA11
S11392E00C0FE4D092070ED401F036FBBDF8121037
S11392F088420CBF0121002110E00196CDF800E066
S113930042467E499BE7ADF8121008227C490DF1D4
S113931009000CF027FD411E8941C90FBDF8160054
S1139320BDF818200123ADF82000ADF822207548BF
S113933002789DF81C008DF824308DF82520C20792
S1139340BDF81A204CBF20200020ADF826009DF85F
S113935008000023ADF828208DF82A3020B1082811
S113936004D00C2807D06DE7002108E000290CBFC9
S11393700421052103E0002914BF03210221BDF8C3
S1139380122002A801900092FBB22A1908A8FBF748
S113939037FA0BB0BDE8F08F756E6900000000006D
S11393A031460420FFF719B8417810F8022B02EB7C
S11393B001227047F8B5A2B0074638780E463A4BFA
S11393C00028197814460CBF1E22202209B97020E7
S11393D065E0B2187E2A64DA397D8A074CBF4CF600
S11393E001454CF6010508B945F02005684601F031
S11393F0A1FC294602A8FFF70FFEB989401CFFF71C
S11394000BFE397D8A0703D5791CFFF70AFE02E0BB
S11394107989FFF701FE054601F0A0FA01462846C6
S1139420FFF7FAFD6946FFF7FCFD0B21FFF7F4FD9A
S1139430397841F0030100F8011B3A780C2A04BF83
S1139440798AFFF7E9FD398AFFF7E6FDF989FFF725
S1139450E3FD054632462146FCF7BAFA387DC107DA
S113946048BFB7201BD4A81902AA801A02A9C0B207
S1139470FCF728FF010012D1FFF7DEFC0246334659
S113948021490420FEF7AFFF012332462146042080
S1139490FFF7EAFC00221D4900F03AF8002023B04F
S11394A0F0BD7420FBE700005D7F01201C7C0300FD
S11394B0D07B0300B07B0300FC7B0300E07B030054
S11394C0FC7C0300147D03001C7D0300247D030049
S11394D02C7D0300407D0300507D0300687D030064
S11394E07C7D0300947D0300407C0300687C0300C2
S11394F0887C0300A87C0300CC7D0300C07C0300AF
S1139500A4780120AC5E0120A87D0300C47D030083
S11395100420FEF762BF00E000BF00210170704725
S113952010B50020DFF814190022002441F830405F
S113953001EBC003401C9A800A28F7DB10BD2DE91B
S1139540FC4F80468FB00020ADF81200BDF84000FB
S11395508A46022805DD1A9E31784B0707D5042870
S113956003DC012011B0BDE8F08F307900E0B07861
S11395708DF808000021DFF8C498CCB209F1040387
S113958033F8340020B1491CCBB20A2BF5DBFF249D
S11395901E9F1FB1FF2C08BFB420E3D000208DF81C
S11395A01100154628790AAA0DF11101FEF77BFE78
S11395B058B1BDF8340028809DF81100FCF71DFA5D
S11395C08DF8100000283ED114E02879FCF750F8FB
S11395D08346BBF1FF0F08BFA320C3D02879FCF753
S11395E011FA8DF8100070BBDFF85C1801EB0B105A
S11395F042882A805FEA0800DDF86CB00CBF504650
S11396004FF6FF70019068885A46002100902B881D
S11396109DF80800FBF7D2FA18B1E88840F0200062
S1139620E880059706950796BDF84000ADF820A0A0
S11396308DF82480ADF822008DF825B004A905A882
S1139640FEF76BFE10B19DF810008BE73046FBF778
S1139650DAF9A81DFBF7C4F92A4651464046FBF740
S1139660D3FABDF84010884221D39DF87400BDF8A8
S113967070100DF112020390029101920096BDF850
S113968040302A465146DBB2404601F003FB8DF8D8
S1139690100087B178B9BDF81200D0B10A2C18DADD
S11396A009F1040121F8340049F8347011E0742000
S11396B08DF8100010E0BA2808D1A879C1060BD59E
S11396C000208DF81000012001F043FD9DF81000EA
S11396D010B911200FF02BFEFCF79DF9B3E7B8B5D4
S11396E085B0088100F04AF8032043E01CB500244B
S11396F00094FFF7F4FF16BDF8B584B004000E46DD
S1139700154603D0300018BF002D01D102202AE0F5
S113971000276946F8B200F0DDFE010023D19DF870
S11397200010032902BF9DF801102279914202BF63
S1139730BDF802106288914211D19DF805009DF890
S113974006102B46324600EB012020819DF80410C0
S113975080B261712146FFF7C9FF010003D17F1C6C
S1139760F9B20A29D5DB05B0F0BDB8B585B000F073
S113977005F80620FFF7E3FE06B0B0BD00930A9C8F
S113978013460A46002501270146049403950295D1
S1139790019770471CB500240094FFF7E6FF16BD3F
S11397A0F0B585B004460D4616461F4602280BD177
S11397B06946E8B200F08EFE010013D19DF8010065
S11397C030719DF8040070710B980021039104908E
S11397D00A980291019100903B4632462946204660
S11397E0FFF7ADFE05B0F0BD3EB5069D0024019423
S11397F00095FFF7D5FF3EBD2DE9F04389B005463E
S1139800894617461C46002605A9F0B200F062FE00
S11398105FEA000829D19DF81400012821D1FFF73F
S1139820B6F99DF82110814202BF9DF815002979EF
S1139830884202BFBDF816006988884211D19DF89C
S1139840180000214B466871049403910291019120
S113985000972A46F1B20220FFF771FE5FEA000882
S113986003D1761CF0B20A28CEDB404609B0BDE82D
S1139870F083F8B586B005460C4616461F461621F9
S11398806846FFF7B7FBADF80C50ADF80A606CB151
S1139890082221460DF10100FCF79AF8BDF81410D6
S11398A041F00201ADF81410002104E0380005D0A5
S11398B0ADF812700C218DF8001007E04FF6FC7023
S11398C0864234BF002008208DF800000D980C9BC0
S11398D00F9A0E99ADF80E00ADF810306846FFF7F8
S11398E069FD07B0F0BD034680B5DFF86005008868
S11398F00A0007D1DFF85825DFF85815BDE80050F5
S1139900FEF771BD0091DFF85025DFF85015FEF722
S11399106AFD01BD10B50C46FF2804D1DFF84015DF
S113992000F06DF9FE202146BDE810407CB50446E8
S11399300D46FCF72FFF064633462246DFF8241572
S11399400420FEF74AFD85B1DFF81C150A6801A85A
S113995001AB0260032000908DF8054000223621FF
S11399604FF6FC700FF097FF0646304676BDF8B50B
S113997004460D46288817461E4608B10020F2BD4D
S11399806A88DFF8E814B2F5004F2CBF7B78002317
S11399900820FEF722FD6888DFF8D41413381ED09F
S11399A047F6EE72801A1FD0401E27D0801E06D0C4
S11399B0401E1FD0401E05D01A380CD02CE0DFF812
S11399C0B42426E0DFF8B0240820FEF70CFD3A7931
S11399D0DFF8A8141DE07A78DFF8A41419E07A7887
S11399E0B878DFF8A01412E0DFF89C140820FEF722
S11399F0F4FC11E03A79DFF894140AE0DFF89024DB
S1139A000820FEF7F0FC7A78B878DFF8881402EBC7
S1139A1000220820FEF7E1FC33463A462946204658
S1139A20FFF7D4FA002802BF688848F2210188426F
S1139A3003D179782046FEF744FC6888B0F5004FDE
S1139A4084BF08200FF08EFC0120F2BD2DE9F04701
S1139A5088B081460E4692469846109C119D0FF0A0
S1139A60B5FF074670882246DFF82C14009033882F
S1139A700220FEF7B2FC8DF8089003960495ADF829
S1139A801440ADF816708DF818A08DF8198000F008
S1139A9069FF8DF81A0000F067FF8DF81B00FFF7CF
S1139AA076F88DF81C0002A8FEF735FCA8B9234609
S1139AB02A463146384610F0ABF870B923462A4698
S1139AC031463846FFF753FF38B9019000972346D3
S1139AD02A4649463046FAF793FE08B0BDE8F087B7
S1139AE000002DE9FC4784B08246884614461F00D6
S1139AF00E9E0F9D31D0DFF8A423DFF8A4130420B9
S1139B00FEF771FC23880BB996A20AE040F2091013
S1139B10834208BF94A204D0B3F5827F0CBF93A202
S1139B2093A201966088DFF87C1300900420FEF76E
S1139B305AFC208870B1022E0CDD2878AB78C1075E
S1139B40DFF864134CBFDFF86423DFF864230420D8
S1139B50FEF749FC96A100F052F8B849002210988B
S1139B6001F10409D3B239F833C084452BD0521C17
S1139B70D3B20A2BF6DB4FF0000900220B1D33F899
S1139B8032C0844522D0521C0A2AF8DB002F04BFBD
S1139B902088002806D16088B0F5004F3CBF08201B
S1139BA00FF0C5FB01200FF0DDFB8DF80CA0CDB14B
S1139BB02878C10716D540070ED53246012128461C
S1139BC0FBF7AEF909E051F83390D6E7002023F80B
S1139BD0320041F83200D9E70020029000F012F878
S1139BE0FBF767FA5FEA090002D000F00BF8C847F8
S1139BF000F008F8FEF761FB06B0BDE8F08704202A
S1139C00FEF7EBBB01979DF80C0000953346224606
S1139C10414670477CB50446A64DA74E903810D0F7
S1139C20401E26D0C01E24D0801E22D0801E20D0EC
S1139C30001F2DD0401E33D00E38042819D91138F6
S1139C4032D100F089FE009033462A469B49042015
S1139C50FEF7C3FBBC2C07D19949FFF7D0FFFEF7F1
S1139C6066FBFEF765FB01E007F0FEFBFEF760FB19
S1139C701FE0912C03D133462A46924902E0924BCD
S1139C802A4692490420FEF7A8FBFAF7A4FC10E048
S1139C9001F070F802468E490420FEF79EFB15E0A1
S1139CA08C49FFF7ACFF11E022468B490220FEF7F6
S1139CB094FB20469C2818BF9D2807D010F098F9E3
S1139CC02046FCF767FA204610F00CFA204601F013
S1139CD03AFC28B181490420BDE87C40FEF77DBBF5
S1139CE073BD10B50020FBF788FE7D49086878B184
S1139CF04278100005D0501E04280AD9FE3808D036
S1139D000AE00020002408F0C0FC2046FEF760F9B9
S1139D1030E002200524F6E772490120FEF75DFBDE
S1139D20F6E71CB500206E4CFBF767FE216869B1AD
S1139D30684601F00DF848B920689DF800100078D5
S1139D40814203D0012808BF022906D16649088848
S1139D50ADF800006846FCF73DFFFBF75CFE13BD61
S1139D60000000005A444F005345000048410000E1
S1139D703F3F0000BDE81040FBF74DBE584938B5E1
S1139D8009680446702089B10D782089574A012D4D
S1139D900090E37A08BF022555490120FEF71DFB18
S1139DA021462846BDE83440FCF774BD32BD0000AE
S1139DB00000000010B5044600F0C7FD002000229A
S1139DC0215CFF2908BF2254401C1028F8DB2274B0
S1139DD010BD1FB500220024464BCDE901010AE065
S1139DE013F832009DF80A10884204BF181D50F879
S1139DF03240521CD2B2191D51F832000028EFD162
S1139E009DF808009DF807309DF8062000903A4917
S1139E100420FEF7E8FA9DF809201AB108A10420ED
S1139E20FEF7E1FA04B907A4BDF80430224604B0F1
