S02E00005A334C696768745F65667233326D673231613032306631303234696D33325F62726434313830612E733337E9
S1134000804D012071D40300DD3F02004DD1030037
S1134010A70A0A010042000004180FAC206A0B0131
S1134020000000000000000000000000000000008C
S113403000000000300B040000000000000000003D
S11340400000000000000000FFFFFFFFFFFFFFFF74
S1134050FFFFFFFF00600F000000000000000000F1
S1134060FFFFFFFFFFFFFFFF8000000000000000D4
S1134070000000000000000000000000000000003C
S11340800000000000000000087F0120087F0120DC
S1134090804D012030620400F6D403002044012046
S10F40A0B410002000E00F00000000003D
S1134200804D012071D40300DD3F02004DD1030035
S11342100909030051D1030055D103000000000037
S11342200000000000000000000000008B0D0100F1
S113423059D103009FF90000D30F01008339010015
S113424061D1030061D1030061D1030061D1030096
S113425061D10300290A030035BF020061D10300C4
S113426061D1030061D103006F42030075E00200D5
S113427061D1030061D1030061D1030061D1030066
S113428061D1030061D1030061D103007F4D0100BE
S113429061D10300FBA6030061D1030061D10300D7
S11342A061D103005FA4030051A4030061D10300A2
S11342B061D1030061D1030061D1030003860300CF
S11342C0CB850300C98503008180030001860300B8
S11342D0CD850300D1850300CF85030045A10300EC
S11342E03986030061D1030061D10300E9D40000E1
S11342F061D103009167030061D103001B760100C3
S113430061D1030061D1030061D1030061D10300D5
S113431061D1030061D1030061D1030061D10300C5
S113432061D1030061D1030061D1030061D10300B5
S113433061D10300102B70B54A4A4A4B4B4C246898
S113434065070CD4C60701D41C4209D100EA040550
S11343508D4208D0521EF1D16FF0020070BD2EE0E4
S11343606FF00108301D1C42FAD1002070BD70B5F9
S11343703F4D6860E8680E46410700D51FE056F8D7
S1134380040B141F0208101D241FA86044B1082147
S11343900820FFF7CFFF0100F4D00421296070BD8D
S11343A0042028600021211612C4162304D10C20F5
S11343B00ABDE87040BCE770BD4FF0FF30563013C3
S11343C041F67131284C0122284BE568E1621A60FC
S11343D0606002262636300B2D0CFFF7A8FF05F08F
S11343E001050100033C201CFFF7A0FF01211F4A27
S11343F011600DB10021E16270BD2DE9F843184F41
S11344003D68894614464A200A80462D0C396201CB
S113441022154B00203A10251A6002E0B044B14442
S1134420A41B7CB108F50056760B7603A6EB0806B0
S1134430B4424946404638BF26463246FFF7919E6D
S11344405003EBD00121085A10133962BDE8F283FE
S1134450000080969800020001001C000340100434
S1134460130C1004000120034000000080B54549EE
S11344700988454A002000F0C3FB5328A8BF5220F6
S113448002BD2DE9FE4300F071F800F068FD064618
S1134490019400963AA3412200F05DF800F060F820
S11344A0FFF7E4FF814611E06A46E1B2404600F0BE
S11344B054FD50B1BDF8000000F0A3FD9DF80200CA
S11344C000F090FD2878401C2870641CE0B2B042D3
S11344D003DA3888C01C8145E6DA37E02DE9FE436B
S11344E000F044F800F037FD06460194009624A33A
S11344F0422200F030F800F033F8FFF7B7FF8146AE
S11345001DE06A46E1B2404600F023FDB0B1BDF8BB
S1134510000000F076FD9DF8020000F063FDBDF898
S1134520040000F06EFDBDF8060000F06AFD9DF881
S1134530080000F057FD2878401C2870641CE0B285
S1134540B04203DA388808308145DADA00F0F0FA4C
S11345500120BDE8FE834FF48051092000F0A9BE7C
S113456039880A484518002000F03CBD0446084834
S11345700168084F0A6892F80580404670470000B9
S113458075750000327B0120F45D0120005E01207E
S1134590DC5E0120467B012080B501F073FAFF2820
S11345A005D0032803D2DFF8F817085C02BD002009
S11345B002BDE0B50221009101AB0022032101F00C
S11345C0E8FD20B9BDF8040010B1012000E000208E
S11345D0C0B20EBDF8B5069F002400250646092F7B
S11345E002D300200021F4BDA4460DE0A7EB000E89
S11345F0B6441EF8010C2D0245EA1465002110EBA7
S113460004240CF1010C4D415FFA8CF0B842EDD357
S11346109D4206D828BF944203D2101B63EB0501C8
S1134620F4BDA01A65EB0301F4BD10B50268DFF810
S1134630741713880B8054884C8052790A7103686C
S11346401A794FF48A53CB804A71026893799A0697
S1134650DFF8542744BF4FF48B53CB808169137820
S113466039B9C088DFF8441703F0FD0308801370DC
S113467010BD43F002031370DFF83447816916223A
S1134680204601F0EDFF0022227010BD80B500200D
S113469001F0FBFFFF2001F050FA02F004F800F0F3
S11346A0BEFE01460122DFF8F80602F017F8DFF833
S11346B0F436DFF800275221DFF8FC0600F0D3FDC2
S11346C002F072F802F096F902F086FA03F037FA73
S11346D003F049FF03F06AFFBDE8014000F077BF33
S11346E0704780B504F063F820B905F079FE08B985
S11346F003F025FD00F049FCBDE8014000F054BC86
S113470070B5034600224FF6FF70DFF8B04601E0B3
S1134710521C92B234F8325085420CD09D42F7D1EB
S1134720B3F57C4F06DB04EBC2056E888E4201D0E4
S11347300D00EDD1104670BD10B50446FFF7E0FF43
S1134740DFF87C164FF6FF720B88904203D12246A5
S1134750DFF8701606E0DFF8641601EBC00042686B
S1134760DFF864161846BDE8104005F060BFDFF8B6
S11347705C06006800B1008A704710B504462168E1
S1134780487901F07FF9FF281DD0DFF8441601EBCA
S11347900010217F027B8A4215D12268408811884B
S11347A0884206D04FF6FF7399420CD1B0F5004F02
S11347B009D22079022818BF032806D1118950791B
S11347C006F05EF908B9002010BDA07B0028204641
S11347D002D006F0A3F901E006F0D0F900B10120FF
S11347E010BD7CB5144622785507DFF8E8554CBF58
S11347F005220322934204D200922A46DFF8D815F8
S113480032E0089E069A30603171F280B460B38160
S1134810207800F00100B0732178890801F00101CB
S1134820F17320780121C00800F001007075F07B5D
S113483030B131751A46204600F044FC317D891CA4
S11348404A1C30823275C9B2605CB389B074501CA2
S11348503075D2B2A15CC4B2A342F17409D2C0B221
S113486000902A46DFF87415022005F0DAFE0020D5
S113487076BD0798B06106F0C0FC3077012076BDA4
S11348802DE9FE4F81460E469246DFF854759B464D
S11348900D9D3846DFF84C15202206F063FDBDF867
S11348A030000297019500905B46524631464846D7
S11348B00024FFF796FFDFF81485002872D0C8F8AB
S11348C00070B97CDFF82025DFF8203511701878E6
S11348D000283AD006F0E6FD0246DFF8141502205F
S11348E005F0A5FE3868BA89418800914379DFF85C
S11348F00415022005F09BFE022005F053FE20B1B2
S11349003868398A4088FFF717FFF87B28B13A8A5C
S1134910DFF8E414022005F08AFEF87CBB7CDFF8A3
S1134920DC140090B8680278022005F080FE397D1E
S1134930BA89B8680123521A014492B2022006F0DF
S1134940C9FD7CA1022005F06CFE3846FFF76DFE20
S1134950384606F06DFE20BB2DBB042E18BF052E75
S113496003D0022E18BF032E01D1012200E0002241
S1134970F988386801910121438800930388F87C01
S113498000F01DF990B13868817988060ED4DFF8FB
S11349907044012121700022384600F0D1F8002033
S11349A02070012430E0287D81072DD538684179B5
S11349B0FF2925D10026DFF8EC5300F030FDF1B2D9
S11349C0814221D2F0B201F05FF88146F0B200F0EA
S11349D02AFD98B138683A8A4188484600F099FF20
S11349E060B13846FFF721FE386880F8059085F8F5
S11349F004903846FFF7C1FE00B10124761CDCE7C1
S1134A003846FFF7BAFE044600F0D6FA1621DFF85E
S1134A10A00306F02FFE0020C8F800002046BDE8E1
S1134A20FE8FDFF8E0130878401C0870FFE700F001
S1134A307F007047DFF870130A78002814BF42F033
S1134A40010202F0FE020A707047DFF8BC1308701E
S1134A50704780B1DFF8B0130978012904D10188C7
S1134A6041F0400101807047022904D102884FF6C9
S1134A70BF710A400280704778B1DFF890130A785A
S1134A80012A04D1DFF8882313780B7001E0022A8D
S1134A9003D1017841F0100101707047FEB5DFF8D1
S1134AA008532B78D90701D50020FEBDDFF81C136D
S1134AB00968BC4C71B109688A79960603D5E28805
S1134AC042F02002E28089794A0603D5E18841F068
S1134AD04001E180B84A11784E07C34947BF0F78B7
S1134AE0D7700E7856709B0709D5B2480188B04834
S1134AF006F096FF297801F0FD012970FEBDAB4B4D
S1134B001D884FF6FC762946B14208D20190A94887
S1134B10009203882246002007F093F9FEBD00901E
S1134B201346A44802882146284607F057F9FEBDDB
S1134B300020B3E75D0000000146A448006800229D
S1134B4070B5044620790E461546002818BF012882
S1134B500BD1A0680178CA0601D5300005D0A07B2E
S1134B60002804BFE07C0B2801D1002070BD002187
S1134B70904A1180607D00B90821E07B18B908468D
S1134B8000F030FA06E041F0040000F02BFA208A2D
S1134B9000F037FAA07C00F025FA0B2000F022FA8E
S1134BA0E07C00F01FFA304600F01CFA2046FFF7C4
S1134BB03CFD2846BDE8704070E70022C0E770B5B0
S1134BC01D46944B1C788E4E012C01D0337813B1C2
S1134BD00020307070BD0B0002D10AB1002070BDFE
S1134BE0002C1EBF049C4FF657439C4206D003463C
S1134BF00A462146284600F057F900B1012070BD4D
S1134C0038B5D28852240346950608464FF6FD71FE
S1134C1048BF4924550548BF083C150548BF083C12
S1134C20120448BFA41E032B0ED8DFE803F00902C8
S1134C30060BC0B207F046FD02E0C0B207F06CFFFD
S1134C40014601E0641EE4B2084600F048F9241A63
S1134C50E0B232BD4254120A08444270704708441C
S1134C600270110A130C120E41708370C2707047E7
S1134C7070B50C001646054608BF00260FD02078F4
S1134C80FF2808BFFF260AD0204600F03DFA8642DE
S1134C9088BF06463246611C681C01F0E1FC2E7098
S1134CA070BDF8B505460C00164603D100206870A7
S1134CB02970F1BD2078FF2804BF6078FF2802D155
S1134CC028706870F1BD204600F023FA0746BE4202
S1134CD0B8BF37463A46A11CA81C01F0C1FC2F708E
S1134CE03F126F70F1BD2DE9F041541E002B3ED0F0
S1134CF0042A37DC00230026984614E0651B0028AC
S1134D0014BF10F805C04FF0000C571E4D5DA7EB03
S1134D100807FF000CFA07FC05FA07F74CEA03033F
S1134D203E4308F101085FFA88F59542E6D3042A68
S1134D3010DAD5000120D2006D1E00FA02F25242B0
S1134D4043FA05F1CC0746FA05F048BF1343C00700
S1134D5048BF16439E4215DBB34203DA4FF0FF30DF
S1134D60BDE8F0810020FBE7AE42F7DB5B1CDDB25F
S1134D709542F7D2651B00280CBF0026465D4D5DA9
S1134D80B542F1DA0120EBE70021234A01E0891C56
S1134D90C9B2535C8342FAD350184078704700007C
S1134DA0B85E0120F45D0120A47E0120327B012045
S1134DB0E05E0120467B0120005E012030F4030008
S1134DC05A7E01207CF3030094F30300DC5E01208F
S1134DD05C5C01200CF40300F0F3030014F4030002
S1134DE0BC5E012080F40300BA570120B6570120AD
S1134DF09CF30300A4F30300C4F30300D0F3030003
S1134E00A07E0120BB570120A17E0120A27E0120AB
S1134E10A37E0120B9570120A0F4030028380828F4
S1134E208041C00F704710B500F009F8FF2801D188
S1134E30A32010BD002104F83010002010BD04464A
S1134E40084600F01FBE38B500F00BF8FF2801D16A
S1134E50A32032BD294604EBC000BDE8344001F074
S1134E60D3BC04460846154600F00CBE40B11C28CD
S1134E700BD01D280CD01E2818BF1F2805D009E010
S1134E800B39102906D2002070471B29FBDB01E0F7
S1134E900929F8DB8A2070477047012070470120F8
S1134EA0704701207047704700207047002070470A
S1134EB00020704700207047002070470020704792
S1134EC00120704701207047B520704700207047CB
S1134ED00020704700207047002070477047002072
S1134EE07047002070477047704700207047842047
S1134EF070477047704770477047704770477047F6
S1134F000020704770477047704700207047704713
S1134F1007F0C2BF032070470020704703480168B0
S1134F200878012808BF022070470000545E012061
S1134F30002070474FF6FE720121C2818181016118
S1134F4000220270012070470020704770477047AC
S1134F5070470020704700207047002070470020F1
S1134F60704770470020704770470020704700204A
S1134F7070470020704700207047002070470020D1
S1134F80704700207047002070477047B520704775
S1134F90002070470020704770470020704770471A
S1134FA07047B520704770477047704700207047BE
S1134FB0704770477047704780B500204C490870AF
S1134FC008F014F84B4A108052214B4806F052FB6B
S1134FD000204A4908804A4800210022002380E832
S1134FE00E0001BD10B545490A88522A07DA424C21
S1134FF0A054521C0A8092B2A018401E10BD00207A
S113500010BD38B50546C0B2FFF7ECFF0446280AC8
S1135010FFF7E8FF002C18BF002801D0204632BD5E
S1135020002032BDF8B50746C0B2FFF7DBFF0646E5
S11350303804000EFFF7D6FF05463802000EFFF7CE
S1135040D1FF0446380EFFF7CDFF002E18BF002D08
S113505005D0002C18BF002801D03046F2BD002036
S1135060F2BD2DE9F041254D2E880C46A04608EBF3
S1135070060152290CDA204F01462246B81901F0E4
S1135080EFFAA4192C80A4B2A4EB0804381900E0A8
S11350900020BDE8F08130B504461D4600205B18B1
S11350A09A4207DA30BD5218224412F8013C6D1EB0
S11350B003EB0020EAB2002AF5D130BD0423EAE76D
S11350C00323E8E780B50223FFF7E5FF80B202BDC2
S11350D003460C48914200D3704710B55C5CFF2C2A
S11350E008BF00246418641CA242A8BF581810BD4D
S11350F0A47E0120327B0120005E0120467B01203A
S1135100F45D0120587E01200078FF2808BF0020AC
S1135110704780B502220021FFF7D4FF4FF6FF72DB
S1135120904208BF002002BD2DE9F24F022940F34E
S11351309580190005D0BDF800100529F7DB42F071
S11351400402824601268AF80020180005D08AF855
S113515001301B0A8AF8023003260A9CFFF761FC1F
S11351600AF80600761CB0B20AF80040761C4FF02C
S1135170000BDDF8309007E0BAB24146504406F027
S1135180F1F8BE190BF1010B0B985FFA8BF1405C3F
S1135190002865D000250024A046732834DC4C2860
S11351A059F8048B1CBF5328622811D159F8047B89
S11351B04C2806D1BDB24FF6FF70854236D002248A
S11351C034E0532832D1FDB2FF2D2FD001242DE03D
S11351D06C2804D14046FFF79CFF871C26E0732807
S11351E004D14046FFF790FF471C1FE0A0F13001B7
S11351F00A2938BFA0F1300718D3A0F141010729CB
S11352002CD2A0F1370711E00027752808BF01242C
S11352100AD0762808BF022406D0782808BF0324C1
S113522002D077281AD1042459F8045BBDF8001081
S1135230B2B2B8B28218A218914205DA0EE00AF8A6
S11352400050761C2D0A641EE1B2B0B20029F6D1DA
S1135250B9B2002996D0B8F1000F8DD1002000E03A
S1135260B0B2BDE8F28F10B5434C206043480180D2
S113527043490A60434A136010BDFEB50C460093CF
S113528009A913460291089D02463C4E3A4F3188C3
S113529038680195FFF748FF00F001F8FEBD384972
S11352A00A68384B108019684FF48A524C80CA80BF
S11352B070477FB50C4608A90092029102462F4D13
S11352C02D4E2988306801930023FFF72DFFFFF747
S11352D0E6FF04B070BD38B50346294C264825685E
S11352E0026828482988006801B0BDE8304006F00B
S11352F0D4BD0020EFE77FB500F028F806F021FDCB
S113530004B070BD0023F6E710B51B481C4B0268BF
S11353101C681C4800682188BDE8104006F025BDC3
S11353207CB50192144A1468154D2E680094154CEE
S11353303388226806F085FD76BD0022F0E77FB54C
S113534000F004F806F05FFD04B070BD0C4C009151
S113535025680293084901920B680A4E2A8831682D
S113536070470023EBE7074800687047054A136855
S11353701871106841717047E45A01209678012031
S1135380EC5D0120F05D0120DFF80819F8B50A682A
S113539088B0DFF8041903A8DFF800490260D1E9F6
S11353A00027D4E90056DFF8F81804A8DFF8F44819
S11353B006ABC0E900270A68C3E90056256801A8BE
S11353C002AB02601D600321684606F053F9032214
S11353D0DFF8D4180A700021DFF8D00806AEDFF831
S11353E0D02803AC02EB0112655C04AC157036F8EE
S11353F01130538034F8113002AC9380655C01ABFA
S113540095715C5C00EBC40595601DF801400125B5
S1135410491C147355730229E1DD09B0F0BDDFF8AE
S1135420880800787047DFF8881801EB0010407B8B
S113543000F001007047412818BF422803D04328D8
S113544018BF442801D1012070470020704741282B
S113545018BF422801D1012070470020704743281B
S113546018BF442801D10120704700207047F8B5C7
S113547015461E46069A079B044600F05FFA60B183
S1135480042100F064FD070007D0204601F002F972
S1135490324629462046B84795E0F1BD2DE9FE4342
S11354A01400064688461F461CBF0A9D002D20D0C6
S11354B0FFB128780C9B0107618820794CBF4022FA
S11354C0802200F03BFAA0B1082100F040FD8146A3
S11354D078B1207901F0DEF89DF82C0000953B4668
S11354E00190224641463046C847BDE8F74301F0E3
S11354F0DAB8BDE8F783F8B5069C16461A460546A1
S1135500234600F01BFAD0B121000BD1022100F098
S11355101EFD040013D0284601F0BCF8314628468D
S1135520A0470BE0102100F012FD070007D0284629
S113553001F0B0F8224631462846B84743E0F1BDB1
S11355402DE9FC41089C17461A460646234600F0FE
S1135550F5F908B9862016E000259CB9202100F051
S1135560F6FC804670B10A9C099D304601F092F821
S11355700B9823462A46009039463046C0470546D4
S113558001F091F82846BDE8F681F8B50446207884
S1135590A568002601F07EF811E0F1B21422286813
S11355A05143471839882078FFF77DFC012138469C
S11355B000F0CDFC01001CBF20788847761C2979B7
S11355C0F0B28842E9D3BDE8F14001F06CB838B5D7
S11355D00024DFF8D4560AE0DFF8C40A210600EB01
S11355E01150427BD10748BFFFF7CFFF641C2978D5
S11355F0E0B28842F0D331BD5CB585B00A9C002688
S11356008DF80800ADF80A108DF80C30ADF80E20B6
S11356100196ADF8104000960023002201A902A8CB
S113562000F058F8019807B050BD10B5002301E010
S1135630001D5B1C9CB28C4204D204889442F7D1B6
S1135640408810BD002010BDDFF8581A401A0C2203
S113565090FBF2F20021DFF8500A10E00288B2F564
S11356607C4F28BF00F002B80846EDE7DFF83C1A8B
S1135670401A142290FBF2F20021DFF8340A92B2AD
S1135680D3E710B50C460188628891420DD1037BA3
S11356902279134209D0B1F57C4F04D3FFF7E6FF1A
S11356A02189884201D1012010BD002010BD10B510
S11356B014460A88E3889A420AD10288B2F57C4FDC
S11356C004D2FFF7CBFF2189884201D1012010BD0C
S11356D0002010BD2DE9F74F82B004469A460025FC
S11356E0002703E0C88845197F1CFFB2DFF8B8150E
S11356F00A78974280F0D880DFF8B40500EB0710F1
S11357002378027881689A42ECD10091407BC107EA
S1135710EAD54FF0000804E0B9F80A00451908F189
S1135720010800995FFA88F00A799042DCD20A688D
S11357305FFA88F114204843214602EB00094846E9
S1135740FFF79FFF0028E7D04FF0000B07E0307908
S11357500BF1010B10F0300F04BFF0784519B9F8C4
S113576008101FFA8BF08842D9D21FFA8BF20C2151
S1135770D9F804004A438618224631464846FFF7C2
S113578096FF0028E3D003982746344600B104600E
S11357902079810611D5DFF80C09002105E0027992
S11357A0930644BFC27851180C30A042F7D3DFF8F7
S11357B0040989B200EB010B04E0DFF8FC18ADB278
S11357C001EB050B0E9E049D3046E6B1214648468A
S11357D0FFF744FF0246238879883878A846FFF704
S11357E060FB00B32079C1062BD5002E2146484624
S11357F01BD0FFF733FF009503467988387822469B
S1135800FFF760FB51E0002D4FD021464846FFF7DB
S113581025FF0246238879883878D846AB46FFF7B7
S11358203EFB0028DED17E203FE0FFF717FFE17842
S1135830009503460191798838782246FFF740FBAA
S113584033E05FEA0A01A07808BFE178412818BF75
S1135850422808D043280DD18A1E92B241465846A8
S1135860FFF71FFA1EE04A1ED2B241465846FFF720
S1135870FFF917E04428EFD03EB95FEA0A0004D0EC
S1135880E078824538BF89200FD3E178B8F1000F62
S113589003D1584607F024FE04E00A464146584620
S11358A000F0DEFE002000E0862005B0BDE8F08FA9
S11358B02DE9F8430546894617469846002603E035
S11358C0217B0A0615D4761C2979F0B288421DD2B0
S11358D0F2B2142328685A43841820884845F2D128
S11358E0390006D0802FEBD0402FECD1217B4A0623
S11358F0E9D5B0F57C4F07D32046FFF7B7FE404506
S113590018BFB8F1000FDED1204600E00020BDE84A
S1135910F283134680B507E0134680B5402204E0C5
S1135920134680B5802200E0002200F007F800B1A1
S1135930012002BD80B500234022F6E770B50C4675
S113594015461E4600F09EF8FF2801D1002070BDC8
S11359502146DFF84C4704EB001033462A468068A2
S1135960BDE87040A4E70023E8E770B50C4615468F
S11359701E46002100F02FF8032800DAE8E7002093
S113598070BD1346402201E00022FAE72DE9F84FEA
S113599082468B46904699460026FFF7CFFF08B90A
S11359A0FF2016E00027DFF80843DFF8FC5208E088
S11359B04B4642465946FFF7D8FF00B1761C7F1C80
S11359C0FFB22878874203DA3901605C5045EFD191
S11359D0F0B2BDE8F28F70B50022DFF8D43200E0F7
S11359E0521CDFF8C4422578AA420BDA14011E5D6A
S11359F08642F5D10D0003D01C44647BE507EFD546
S1135A00D0B270BDFF2070BD80B50021FFF7E3FF69
S1135A10FF2801D1002002BD00F061F8407B00F0B6
S1135A20010002BD70B50E4604460021FFF7D3FF06
S1135A30FF2801D1002070BDDFF8641601EB0015CA
S1135A403200687B00F0010114BF40F00100002027
S1135A506873B14214D076B12846FFF796FD0FE083
S1135A60142200685143761C0844027B01882046B6
S1135A70D20900F035FFA868F1B202799142EFD360
S1135A80012070BD0121A6E7DFF814160001085CAF
S1135A907047F8B50C46FFF7F5FF01460020FF29D3
S1135AA01FBFDFF8FC2502EB01118968002915D01E
S1135AB0002214270DE01B0608E0D6B20D687E43D1
S1135AC0AB19451C1B7B2600F5D05B0648BF284656
S1135AD0521C0D79D3B2AB42EFD3C0B2F2BDDFF8A2
S1135AE0C01501EB00107047F8B50C461546FFF7DA
S1135AF0C9FF0021FF281ED0DFF8A435002203EBE4
S1135B0000134FF0140C01E0491C521C9868D6B2E3
S1135B100779BE420FD200680CFB06F62F00304412
S1135B20067B02D0760602D4EFE73706EDD5CEB277
S1135B30A642E9D1F2BD0020F2BD002109E010B572
S1135B400446012100F005F82046BDE8104005F0A8
S1135B506EBD2DE9F14F86B0884605F04EFB5249E3
S1135B600A78059000260492DFF8340506E000EB7D
S1135B7001110A7B05998A420ED0761C049AF1B26F
S1135B8091427CDA9DF81830FF2BF0D01846FFF7CD
S1135B9079FF0646FF2879D04FF0000A01E00AF1A8
S1135BA0010ADFF8FC04320600F10801120D8958DD
S1135BB05FFA8AF30A7993425CD21420096843435A
S1135BC0CD182A8940F22D118A42A8BF07F0B2FCF1
S1135BD034064FF00009240D1BE00328ACBFD7F8AE
S1135BE008B007F1080B0120009000235A46002159
S1135BF001A8FFF76FFD5FEA080008D0BDF8062092
S1135C00DFF89C04015D3B46584600F0EEF809F1CC
S1135C10010929891FFA89F08842C0D21FFA89F242
S1135C200C2168684A4387183B79D806EFD4DFF81B
S1135C3070140A5D8DF804202B88ADF8063038798D
S1135C40410628464CBF802140218DF80810398830
S1135C50ADF80A103946FFF701FDADF80C003979AB
S1135C60F8784A07B9D5D7F808B00328BBDBDBF8C6
S1135C7000B0B8E79DF81810FF293FF47EAFB8F1E3
S1135C80000F04BF9DF8180000F014F807B0BDE839
S1135C90F08F0000F4E1030000E20300F8E10300E8
S1135CA00CE2030008E203009B7E01207CE8030071
S1135CB05C5C01207CB5044605F09FFA0546012092
S1135CC000F0FEFC44F20306012C03D0FF2C08BFB5
S1135CD0A84227D101237F22242100F083F800F079
S1135CE07CF800F06FF801237F22252100F07AF878
S1135CF03020009001AB324600F064F801237F228B
S1135D00262100F06FF8202000F068F8082100F048
S1135D105AF801237F22272100F064F800F056F896
S1135D2000F051F8022000F0CBFC022C03D0FF2C31
S1135D3008BFA84240D101237F22282100F052F855
S1135D4000F04BF8062100F03AF801237F222921C4
S1135D5000F048F83020009001AB3246062100F0F4
S1135D602EF801237F222A2100F03CF8202000F0A5
S1135D7035F8082100F023F801237F222B2100F0BD
S1135D8031F800F023F800F01AF802237F222C21C6
S1135D9000F028F82120009001AB072200F00DF854
S1135DA002237F222D2100F01DF82120009001AB59
S1135DB044F2100200F001F873BD4FF44071022068
S1135DC000F0B8B90621012000F0B4B920200090F9
S1135DD001AB4FF48042082170471020009001ABC2
S1135DE00022704701A807F0ADBC7CB504461D46EF
S1135DF02879830740F1A3800023ADF8003004B96B
S1135E006C4644F2030601293AD1062A1AD128889D
S1135E1050B900F099F838B92879410604D400F053
S1135E208FF8242007F0BFFC2888B0420BD100F083
S1135E308BF8002807D1287941061CD400F080F89B
S1135E4025207AE0082A7AD1288850B900F07CF815
S1135E5038B92879410604D400F072F8262007F0F6
S1135E60A2FC2888B0F5804F69D100F06DF80028B5
S1135E7065D12879410662D400F062F827205CE0FD
S1135E8002295CD1062A1AD1288850B900F05CF89E
S1135E9038B92879410604D400F052F8282007F0D4
S1135EA082FC2888B0424AD100F04EF8002846D13E
S1135EB02879410643D400F043F829203DE0082A1C
S1135EC01AD1288850B900F03FF838B9287941062A
S1135ED004D400F035F82A2007F065FC2888B0F5D2
S1135EE0804F2CD100F030F848BB2879410626D4E5
S1135EF000F026F82B2020E0B2F5407F1FD128883F
S1135F0007280BD100F020F840B92879410605D4C0
S1135F10022322467F212C2007F045FC288844F2E6
S1135F20100188420BD100F00FF840B928794106DE
S1135F3005D4022322467F212D2007F034FC73BDB3
S1135F40012322467F2170472846FFF77DBB30B5E9
S1135F50047B012200230C4205D1002030BD1442F1
S1135F6018BF5B1C5200D5B28D42F8D30069DBB276
S1135F7050F8230030BD5149401A8003020C00211F
S1135F804F48FFF752BB2DE9F84F054600244FF662
S1135F90FF79A246487D35B108B9022507E00128FA
S1135FA004D1012503E008B9082500E004250026F2
S1135FB093469846414800EB86073988594516D1DF
S1135FC0FB782B4213D0B878404510D30CB18245EE
S1135FD00DDBD9060BD53846FFF7CDFFB9781CB1D8
S1135FE0514501DB484502D201248A468146761C8C
S1135FF04B2EDFDB4846BDE8F28F2DE9FE4F00272C
S113600000284FF00108487D06D008B9022407E0B3
S1136010012804D1012403E008B9082400E0042481
S1136020B9460D9EDDF83CB08A46ADF800200193D8
S1136030224901EB89052888BDF80010884223D144
S1136040EA78224220D0A9789DF8380081421BD3F7
S11360509AF80F00D20608D5B0B12846FFF78BFF97
S1136060BAF81010814201D00EE068B9BB4513D0D4
S1136070BDF8300087420FDAA9780198C1553288FB
S11360807F1CBFB2521C328009F10109B9F14B0FD8
S1136090CEDB4046BDE8FE8F4FF00008F9E7000074
S11360A05C5C012078E3030098E8030050E70300F8
S11360B094E803002C5D01208C5C012048E203007D
S11360C074E303002DE9F84785B0109D0F9F0E9CE3
S11360D00295019706468A46904699460094FEF733
S11360E0DCFE010003D0022803D002D30EE001201D
S11360F00CE00CBF012000200021049103900295C4
S11361000197009400F07BFA00F0C8F906B0BDE8EE
S1136110F08778B585B00024049401259DF82C609F
S11361200A9C0395002520E078B585B000F008F8B6
S113613080231DE078B585B000F002F8402317E015
S11361409DF8286000240125019304940395029688
S11361500094704778B585B0012400250494039514
S11361609DF830600B9CBDF8285002960194009570
S113617000F094F906B070BD7FB5099C0A9D002615
S11361800294089C03950096019400F047FA04B029
S113619070BD38B584B000F002F8402307E0089CD5
S11361A0002501930395029400957047019400F033
S11361B035FA05B030BD2DE9F24F002482B04FF618
S11361C0FF79A046B1F57C4F04D301260196AE4970
S11361D00E8801E00194012600258DF80100934604
S11361E08DF8003021E0AAB20C20DAF80410424302
S11361F08F183888584511D30CB180450EDB3946C9
S11362005046FFF72BFA010008D039881CB14145EC
S113621001DB484502D20124884681466D1CBAF848
S11362200810A8B28842DED36D1CA9B2B14213DAB9
S1136230019840B1954A02EB8100438800F00FF8C1
S1136240FFF77CFB03E000F00AF8FFF78CFB002863
S1136250EAD000258246E2E74846BDE8FE8F9DF875
S11362600020BDF808109DF8010070472DE9F84F93
S113627084B0DDF8389090461C4605468A464B4665
S113628022460026ADF80060FFF758FBB34607002E
S11362908DF80450ADF806A08DF80840ADF80A80DA
S11362A0ADF80C904BD001A9FFF7EBF9002846D0CC
S11362B0ADF802800024DDF83C90DDF840A0BDF884
S11362C0008015E0B1B249450FD2FEF79AFEA878D6
S11362D0FEF788FE5FEA0A0006D02879C10754BF9A
S11362E005200720FEF77EFE761C08F10108641CD9
S11362F03989A0B288421AD2A2B20C2178684A43E2
S11363003B888518B3F57C4F09D2288801AA294611
S1136310ADF80A003846FFF7CAF90028E7D0288804
S1136320BDF802108842CDD20BF1010BDDE7B6B205
S11363301FFA8BF006441FFA88F0864201D101202F
S113634000E0002005B0BDE8F08F2DE9F84795B0D6
S11363504FF00009DFF8388101E009F10109FFF786
S11363605EF85FFA89F181424AD24FEA096000255A
S11363704FEA105A00E06D1C08F1080050F80A00BA
S1136380E9B202799142E8D20168EBB214204343A6
S11363900027CE181FE0A078FFF761F8D0B104A859
S11363A0FEF7B7FE16E0002103914122029204A9F0
S11363B0019100902288318818F80A0000F02EF923
S11363C0862807D0A078FFF742F80028E3D004A875
S11363D0FEF79AFE7F1C3189B8B28842CBD2BAB29A
S11363E00C2170684A43841807F0A4F8214630460B
S11363F0FFF734F921794A064CBF80234023D2E7C2
S113640016B0BDE8F087F8B596B01D9D1646052D6B
S113641030D304AA0392BDF87020412405AF009242
S113642002940197324600F0F9F8040024D19DF853
S11364301000412205A907F02FFA04001AD02D1FDD
S1136440A54217D33046FEF7DCFD0020FEF7CAFD57
S11364509DF810000F4DFEF7C5FD2E88C6F15201C0
S11364608C4207DA0C4B224605A9981900F0F8F87B
S1136470A4192C8017B0F0BD3046FEF7C2FD2046AB
S1136480FEF7B0FDF6E700001C5D040094E803008D
S11364905C5C0120467B0120005E01202DE9F84F61
S11364A088B00646129D00208A469046994604907C
S11364B000908DF81460ADF816A08DF81890ADF822
S11364C01A80ADF81C500023002204A905A8FFF788
S11364D001F9049808B986208DE0159860B90499EB
S11364E09DF850008A78904218BF8D20F4D1097924
S11364F0C80758BF8820EFD50498139F017948072F
S113650026D504998868416804980291816888684E
S1136510049901908878FEF781FC834604985B46D1
S1136520C1788DF8001003290A4639461ED202A804
S1136530FEF7D9FB9DF8002004465B46394601A8C6
S1136540FEF7D1FB012C1CBF4FF0FF3188421CD059
S1136550169800284ED104984FF6FF723946807879
S113656007F09AF9040012D1012044E00298FEF7E2
S1136570BAFB012809D09DF8002001985B463946F2
S1136580FEF7B1FB10F1010FE2D1872033E003974E
S1136590C0B200F039F8FEF7E8FC01002BD10397F4
S11365A0E0B200F031F8FEF7CBFF010023D1012067
S11365B0009000233A46002105A8FFF78BF801005C
S11365C019D1049B524631463846FFF70EFC029718
S11365D000F01BF801F0CEFD03979DF85000E4B2E3
S11365E00294019000F00AF8FEF7BEFC00F006F8F1
S11365F0FEF781FF002009B0BDE8F08F00954B46FF
S1136600424651463046704702909DF8500000952E
S11366104B4601904246514630467047F0B585B02E
S11366201C460A9E0B9D0C9B002701978DF80800C1
S1136630ADF80A108DF80C40ADF80E20ADF81060DE
S113664000972A4601A902A8FFF744F8010004D1E3
S11366500D9911B1019A93780B7005B0F0BD704794
S113666062B181423ABF5318984204F07DBE80184B
S113667013F8011D521E00F8011DF9D1704770472F
S11366800C480D4908600020704700B17020704725
S11366900020704780B500F013F8FF2801D1A32033
S11366A002BD002002BD00207047704700BF0348B0
S11366B0007870471A5D0400545E01205C5C012080
S11366C080B5FFF7DFF9FF2818BF002002BD0021C5
S11366D00170704707F018B900F0A4B862F30F22F4
S11366E062F31F4200B500BF13009646944610396A
S11366F028BFA0E80C50FAD85FEA417C28BF0CC040
S113670048BF40F8042BC90728BF20F8022B48BF14
S113671000F8012B00BD704738B504460D461046FD
S1136720FFF7B3FF00202070A847BDE83140FFF712
S1136730BABF002255495648EEE70022554956484B
S1136740EAE770B5044616460D463046FFF7A2FF49
S1136750002020703046A847BDE87040FFF7A3BF73
S113676001224E494E48ECE701224E494E48E8E7E3
S113677001224E494E48E4E7022248494D48E0E7E9
S1136780022248494C48DCE7022248494B48D8E7F2
S113679001224B494B48D4E7022249494A48D0E7F1
S11367A0F22247494948CCE780B5012007F0B2F905
S11367B0474807F043F94749087001BD80B507F021
S11367C0C1F9012805D043480078BDE8024007F02C
S11367D01FB901BDF0B5002400E0641C3E4D2E88B5
S11367E0E3B2B3420ED2E7B20C256F433B4B3B44BA
S11367F01E78864201BF5D888D421E799642ECD197
S11368001846F0BD0020F0BD80B519B907F07CF83A
S1136810002002BDB1F1004F02D207F080F8F7E783
S1136820022002BDB1F5000F3CBF0902FFF7ECBF27
S11368300220704770B505461E46FFF7CBFF0400E3
S11368400ED02846FFF7E0F850B1A0683146FFF7B4
S1136850DBFF28B904990598A0716171002070BD0F
S1136860022070BD1CB500F004F80022FFF7E2FF1F
S113687016BD9DF81040009313460194704780B5EF
S113688000230093FFF7EEFF02BD000031FE01007C
S1136890E45B0120FB3E0200EC5B0120E7E5020023
S11368A0B45B01203BEA0200BC5B012051EE020014
S11368B0C45B0120CC5B0120D45B0120DC5B0120A4
S11368C029E70200F45B0120FC5B0120045C012049
S11368D08C4F0120E77D012088570120D84E0120EC
S11368E080B5FFF777FF20B1806800210170002098
S11368F002BD022002BD0022F2E7704780B597492D
S1136900022003F08EFEFF20FFF719F9FF2004F0A8
S1136910B8F8FF2007F078FD06F084FA00F06AF872
S1136920FEF715FB00208E49088001BDF8B500F084
S113693097F8009805B000F0010000BD18B587B0C5
S113694001A9684606F046FD9DF80F00854C082213
S1136950A070BDF80C0001A92080201DFFF780FE67
S11369609DF814000022002160732046FEF7F0FA1F
S113697000207B49088008B010BD80B5684606F049
S113698033FD932809D1784801680A78012A8DF8E3
S1136990002004BF02218DF800109DF8000002BD04
S11369A078B58FB004460D4616462C2104A804F091
S11369B061FE8DF81240ADF8106005A8FEF78EFA5E
S11369C000F04EF80098ADF83600FFF7D6FF8DF8CA
S11369D0380000F048F8294604A808F07AF80100C5
S11369E004D15F490A8842F480720A8010B070BDF5
S11369F008F024BC1FB5032408F05EFC00B1072492
S1136A0008F05CFC08B144F00804204608F019FCC6
S1136A10564808F020FC564808F020FC00F020F806
S1136A200098C1071BD55349022003F0FAFD4E48D4
S1136A3001680878012808BF022008F0DDF808F092
S1136A403FFC00F00DF8009840F08000009068468C
S1136A5008F0EAFB00F007F8032003F05DFD1FBD1A
S1136A60684608F0D7BB78B58FB005A842492822FC
S1136A7004F078FC06F0BEFA08B100201AE001A880
S1136A8003F029FD04003D4D3D4E02D000903D4BE6
S1136A900AE005A8FEF75AFA05A901A808F073F858
S1136AA0040006D00090384B32462946022003F0F9
S1136AB0B8FD204610B070BD10B52948018841F4D6
S1136AC00071018003F08CFC01280CBF0124002418
S1136AD008F0B0FC28B102462C49022003F0A1FDC5
S1136AE000E024B108F05EFBBDE8104006E710BDED
S1136AF01FB504461A480088810504D5912C2BD172
S1136B00FFF7FCFE1FBD10F08F0F11D0902C02D1A7
S1136B10FFF714FF1FBD912C1ED002901C4800905B
S1136B2001941C4B164A1C49022003F07AFD1FBD38
S1136B30FFF796FF902C0FD10098C1070CD542089F
S1136B4052000092002101910291ADF80C106846A8
S1136B5008F06AFB08F017FF1FBD000038D80300D7
S1136B6052780120845A0120545E012000881002CA
S1136B700070EF0508D8030054D803007CD8030044
S1136B8090D8030098D80300B0D80300C8D80300F5
S1136B9030D9030018D90300F8D8030080B5FFF7F3
S1136BA027FF00F0FE00BDE8024008F04ABB10B524
S1136BB0FFF71EFF40F0010408F07EFB08B144F02B
S1136BC0040408F07BFB08B144F008042046BDE847
S1136BD0104008F036BB70471CB5DFF8A84A0A21FC
S1136BE0204604F047FD6021DFF8D80C04F042FD94
S1136BF0A0206080052120208DF80410009001ABB6
S1136C0010222121F220FFF78FFA13BD0020DFF8B4
S1136C10741A00B508704FF0FF3187B00491002159
S1136C2000238DF81800039002900191009304AAA8
S1136C3009F0F2FA07B000BD18B5DFF8484A207A27
S1136C4087B0C10712D54FF0FF32002104928DF8AE
S1136C5018100AF058F80020002100232072039134
S1136C6002900190009304AA09F0D6FA0020DFF8FC
S1136C70581C087008B010BD80B5FFF7C7FF00208E
S1136C80DFF8481C087001BD2DE9F04700F0010849
S1136C90C0F342048946924606094509DFF8300CE0
S1136CA0016806F0010605F001050A685079F2282A
S1136CB026D1DFF8D079387820B10AF0C1F8F98804
S1136CC088421DD1B8F1000F18D00AF0B9F8F88045
S1136CD00120A021E207387079807C7046BF4FF410
S1136CE07A7101FB09F1DFF8EC1B7D71DFF8DC0B35
S1136CF006F015FE26B187F804A001E0FFF786FF31
S1136D000120BDE8F087002070472DE9F34F8FB0D4
S1136D10074615469946DDF8848011210AA804F037
S1136D20A9FC780A00F0030AC7F341108DF8180093
S1136D30F80A00F0070BDFF8A00B002438400828FD
S1136D40DFF88C0B016808BFA0460A79042A08BF43
S1136D5001242B001A9D08BF0AAB05B90AAD1F9E7A
S1136D6006B90AAE109ACDF8009007F0070107A8FB
S1136D700AF01CF9002856D0DFF8601B012003F04C
S1136D8056FC00F0F3F84ED1BAF1010F4BD09DF848
S1136D902400C0B1022846D10022082107A803F02C
S1136DA08BFB00283FD107F0180018283BD0ABF12B
S1136DB00500022837D39DF8180068B9F8060BD4EB
S1136DC08CBB85202DE0079868B310F1070FEAD338
S1136DD010F1010F27D1E6E71E98BDF880101B9B28
S1136DE00490BDF870009DF8182001910090CDF832
S1136DF014800396029507A938460AF056FC38B168
S1136E00DFF88008417888070DD5FFF7FFFE0AE018
S1136E10380708D50AF075F9FF2808BF002C02D1FD
S1136E208920FDF789FE012011B0BDE8F08F2DE91E
S1136E30F8418FB00646884617461D46169C112118
S1136E400AA804F017FC04B90AAC00F08FF84ED17C
S1136E50189B2946179A199DF02B49D0F32B67D11B
S1136E6000228DF82420079200293CD10AF091FEDB
S1136E7080453AD1DFF8505A2878DFF8084810B135
S1136E80207A81076ED506F0B7F80B3840F0100071
S1136E9004AA01238DF810000021019200930391AC
S1136EA00291F32307AA012009F0B6F90120207208
S1136EB006F0A2F807F10B0188420BD001200B3732
S1136EC000FA07F10022032009F0AEFE207A00F058
S1136ED0FD0002E0207A40F00200207241F2883185
S1136EE0284606F01CFD01203DE0FFF7A5FE39E031
S1136EF016F007008DF8180008BF049101D000F0C7
S1136F003CF80AF046FE804509D1002000216A1CA5
S1136F100390029101922B780093F0231EE000204D
S1136F2000210023039002910190009304AA17E02A
S1136F30F72B03DAA3F1B000102813D216F00300E4
S1136F408DF8180008BF049101D000F016F8002154
S1136F50681C0391029101902C78009404AA0120EA
S1136F6009F05AF9002010B0BDE8F081DFF860099B
S1136F7001680A685079F228704702218DF81810C8
S1136F808DF81920216804A8016061684160704788
S1136F90002070472DE9F0470446626888460021C6
S1136FA092B24046FDF756FE207C08F1020530B946
S1136FB0A26800212846FDF752FE2D1D07E0022895
S1136FC005D1082204F1080100F09EF80835207C60
S1136FD0022804BF607C05F8010B6168880403D5AE
S1136FE0A28A00F096F8AD1C606841040FD5A07D1C
S1136FF0002105F8010BA26928462D1DFDF72FFE7F
S1137000102204F11C0100F07FF8103507E080061F
S113701005D5A26900212846FDF721FE2D1D207902
S11370204FF00C0A41060ED500F05EF800F061F84E
S113703005D100F067F800F06AF800F04EF87F1C04
S1137040F9B20229F2DB6068C10517D500F04CF8EB
S1137050FAB20AFB02F204F12C018E183378022BE7
S113706008D1728800F055F8B288AD1C00F051F8D0
S113707000F033F87F1CF9B20229E9DB04F1440083
S1137080017805F8011B227902F01802182A1CBFA6
S1137090407805F8010B6268100403D5120C00F067
S11370A038F8AD1C6068C10312D500F01DF800F07B
S11370B020F809D100F026F800F029F899F800002A
S11370C0AD1C0A3089F800007F1CF9B20229EEDBFE
S11370D0A5EB080188B2BDE8F08799F80000AD1C63
S11370E0401C89F8000070470027A94605F8017B79
S11370F07047FAB20AFB02F204F12C018E183378BD
S1137100032B70470822B11C2846FFF7A9BA7289DD
S1137110083500212846FDF79DBD2DE9F84F0E46A0
S1137120B6B000F00701C0F3C1008DF80410009060
S113713090469B46112107A80025002404F09AFAE2
S1137140DFF88C170968B8F1000F087908BF0DF152
S11371501C0800284DD109684879F2283CD10FA9B0
S1137160E0B209F053FF002836D19DF83C00FF2817
S113717018BF6D1C641CE0B20428F0DD9DF800010A
S1137180EFB2DFF8284906900098DFF82499DFF879
S113719024A960BB9DF804103246CDF800B04346E4
S11371A00CA809F003FF002800F085800CA809F062
S11371B084FF0546FF2822D000200122FF230590EA
S11371C00490039202930197009000F07AF80FA9BB
S11371D0284609F01BFF002871D1208809EB000123
S11371E00FA8FFF7D7FE21884018208061E000989F
S11371F0012860D19DF80001EDB2A84209D3002115
S113720005910491039106998B22029101970092B2
S11372104DE00020059006980021FF22049103927E
S113722002900197009153460B2221210120002650
S1137230FEF73FF80027B3460FA95FFA8BF009F079
S1137240E5FE00283BD19DF83C00FF2819D09DF8AD
S11372500001761CF1B2884213D221A90FA8FFF7CE
S113726099FE2588804608EB050152290FD2424633
S113727021A909EB0500FFF7F3F9A844A4F800805D
S11372807F1C0BF1010B5FFA8BF00428D4DD89F825
S11372900670FDF74DFC74280DD100200590039075
S11372A006980021F6B2049102900196009100F034
S11372B008F8FDF73DFC012037B0BDE8F08F002051
S11372C0FAE753460B2221210120FDF7F2BF2DE9F5
S11372D0F04F0024F228A7B04FF0000B08BF21297B
S11372E04DD1112A02BF802B3098002847D1DDF8F8
S11372F0C4A0BAF1050F42DD1120FDF782FEDFF8CC
S1137300AC773D880026DFF8A8972D1DADB2A846BE
S11373106946F0B209F07AFEC0B99DF80000FF2872
S11373200FD012A96846FFF735FE04462819824596
S11373300EDB224612A909EB05006519FFF790F947
S1137340ADB2761CF0B20528E2DB03E0002017E0C2
S11373504FF0890BA5EB08055FEA0B0009D100206B
S1137360FDF740FE4320FDF73DFEA8B2FDF749FEC0
S113737001E0FDF737FE388801242D183D802046B2
S113738027B0BDE8F08F2DE9F04FBE4D287889B0C5
S113739070B11C46207A002804BF2368002B07D054
S11373A0179EE02E18BFE22E02D0159BDB0703D5F3
S11373B0012009B0BDE8F08FDDF84C80129F9146A2
S11373C08A4683460AF0E5FB069018991B980891B3
S11373D09DF8681005901698CDF81CA004910396AA
S11373E002904BEA07100197CDF8009040EA881606
S11373F0637A2168224646F4006009F079FDFDF7BE
S1137400B2FF0646F2203071707105200AF0B3FC19
S1137410687918B1E98800F041F90BE0F088A9F126
S11374200C05B57240F00200F08020460CF092FA90
S113743000F086F800F035F9BAE72DE9F84F8AB084
S113744005461C46207A002804BF2368002B76D00A
S113745030B9236813F1070F02D313F1010F6ED172
S113746002280AD10023D8B2205C18B95B1CDEB212
S1137470082EF8DBDBB2082B61D0169800285ED109
S1137480179E237AF007159848BF43F008037E2D12
S113749018BF7F2D05D143F4007320B143F48073EA
S11374A001E043EA8013149DDFF8D89199F80500B0
S11374B02F0147F400673B43ADF826300F468DF8A3
S11374C02420DDF868A0DDF87080DDF874B090B198
S11374D00AF05FFB00F03AF8F0074CBF20200520CB
S11374E00AF049FCFDF73FFF00F0D4F8B9F80610A4
S11374F000F0D4F821E00AF04CFB00F027F8FDF787
S113750032FF00F0C7F89DF82410A1F10C05C188E2
S1137510857241F00201C180F00706D57F0900F0B1
S1137520B3F83F0E2037B8B200E005200AF023FC80
S113753020460CF00FFA00F003F800F0B2F89DE0DA
S11375400146EAB24FF6FD70FDF70BBF06909DF8B9
S113755064001899CDF820A003909DF824000797A3
S1137560CDF814B0CDF81080029101950090637AA3
S11375702168BDF82600224609F0BABC38B500E0FF
S113758038B58AB0179C9DF8585009949DF854401A
S11375900895149D07949DF84C400695129D0594FA
S11375A09DF8444004959DF8405003949DF83C4058
S11375B002959DF8385001940095FFF73EFF0BB0FB
S11375C030BD2DE9F84F8AB02E4E3478002C1EBF02
S11375D0347A04F00304012C50D008257E28159831
S11375E0149C08BF4FF40275800140EA04108DF822
S11375F024200F4640F400602843ADF8260070793B
S1137600DDF860B0DDF86480DDF868A01C9DDDF86D
S1137610749070B10AF0BDFA00F046F8FDF7A3FECD
S113762000F038F820200AF0A6FBF18800F036F8C4
S113763022E01E460AF0ADFA00F036F8FDF793FE9C
S113764000F028F87F099DF8241000F01DF8A1F13E
S11376500C04C1883F0E847241F00201C1802037BE
S1137660B8B20AF088FB30460CF074F90146E2B275
S11376704FF6FD70FDF775FE00F013F801200BB016
S1137680BDE8F08FC46F012007F00607C7F10307B8
S11376907F077047F2210171417170470020FDF7A7
S11376A04CBE00200AF067BB06909DF82400CDF87C
S11376B020A007970090BDF82600CDF814900495FB
S11376C0CDF80C80CDF808B00194002300220021ED
S11376D009F00EBC2DE9F84F98B0299891460C4654
S11376E002469A46FF2A00F0E88048214A43DFF820
S11376F0C83319680E1DB3580D1D06A943F4007351
S1137700AB5043F48063B35009F080FC002840F090
S1137710D4809AF8086000214FF00C0808FB01F2AD
S113772006A8104490F82C00002814BF032846F043
S1137730080603D0022808BF46F02006491C012988
S1137740ECDD9DF81C00279D259F010622992398B6
S113775048BF46F0100646EA8116E02D46EA0026A8
S113776046F4A046B6B218BFE12D03D1DFF84C238E
S1137770107818B1F80748BF46F40066DDF898B0F1
S113778001B9CB460AF005FA059404902B989DF8AC
S1137790A8106409039002910195CDF800B004F09B
S11377A006049AF80930DAF80010C4F103046407F7
S11377B052463046240E09F065FB2034ADF80040F3
S11377C04FF6FC75002408FB04F106A800EB010B3E
S11377D00BF12C063078002818BF032817D1FDF7C9
S11377E0C2FDFFF757FFF8074CBF202005200AF021
S11377F0C2FA7089A84206D30BF12E000AF03AF9B6
S1137800A84238BF70817189FFF748FF25E002283C
S113781025D1FDF7A8FDC288FFF73CFFA9F10901B6
S113782042F002028172C2809DF85C10C172F807B6
S11378304CBFBDF8000005200AF09DFAB0884FF651
S1137840FF71884204BF50460CF084F801467088EA
S1137850A9F10902D2B2FDF755FDFFF722FF641C1E
S1137860012CB0DD9DF81C00010626D5FDF77BFD3B
S1137870FFF710FFC18880F80A9041F00201C1802F
S11378809DF85C10C172F8074CBFBDF800000520DC
S11378900AF071FA0798810448BFBDF82C8003D41C
S11378A050460CF057F8804650460CF053F84A46C0
S11378B04146FDF727FDFFF7F4FE012019B0BDE8AE
S11378C0F08F0000D06F012038700120307001204B
S11378D0DC5E01200071020008000200E40A0400DA
S11378E0012070472DE9F84F06460C467348017A8B
S11378F09EB01546C80703D59DF8B410E32920D1DE
S11379009DF8A0000B93002802BF6C49087800285A
S113791010D1184609F0D1FBFF280BD00CA909F0AF
S113792075FB00280DD10D9841044CD49DF84600F8
S1137930002806D1002E8DF8286018BF7C2E05D0B3
S11379407F2E7CD15D490878002878D05B4908787F
S11379508DF82A408DF82950299C2A9D2B9EDDF80C
S1137960B090DDF8B8A02F9FDDF8C080DDF8C4B07A
S113797000285CD0280003D000F075F8FFF703FD61
S11379809DF828007F2804BF9DF8A000032805D196
S113799000F05EF800F07BF8032141E09DF8B400AC
S11379A0E02826D01AD3E2280ED002D3E32810D040
S11379B014E09DF8A010E120059000910B9B00F0CD
S11379C059F8FFF7DBFD3AE000F04FF8FFF7D8FD78
S11379D035E000F04AF8FFF7F4FD30E09DF8281098
S11379E07C2915D1A0F1E4020C2A24BFB038102858
S11379F021D29DF8B4009DF8A0100590CDF824B0D4
S1137A00009100F03FF800F01DF89DF828000BE00D
S1137A107F2910D100F01CF800F039F89DF8A0106F
S1137A20009100F00FF87E20FFF707FD07E09DF8B6
S1137A30B400E22803D000F016F8FFF74BFE1FB0A5
S1137A40BDE8F08F0B9B9DF829209DF82A10704704
S1137A509DF8B400CDF824B0CDF820800797CDF878
S1137A6018A0059070479DF8B4009DF8A0100590EB
S1137A700B9B00919DF829209DF82A109DF8280061
S1137A80CDF824B0CDF820800797CDF818A0CDF814
S1137A901090039602950194704728B90748017A1B
S1137AA0C80748BFFFF7C8B870470000467B0120ED
S1137AB0005E0120F00A040044530120C46F012039
S1137AC0912800D0704780B500F071FE18B9BDE868
S1137AD001400CF069B801BD1CB5059C1CB1049CA7
S1137AE0009404F0D2F913BD30B50246DFF81C0A45
S1137AF00023DFF81C5A03E0D45C5B1C604068433D
S1137B008B42F9DB30BD024608460E2A04DA142300
S1137B10D2B2302105F016BE70470A460E2804DAA8
S1137B20C1B21423302005F03EBE7047902800D027
S1137B30704780B50CF05EF8BDE80140BAE330B59B
S1137B4085B00025DFF8CC4900228DF80120694674
S1137B50A8B2FFF7D8FF9DF8010060B19DF80000BE
S1137B6028B9AAB2182042430121A01801746D1C3F
S1137B70A9B20E29E8DBDFF8A009058000F09AFB22
S1137B8005B030BDDFF89009008870472DE9F04F4B
S1137B9000249FB0A046A246A146A34668E0D0B206
S1137BA0092861D257E07FA10091BDF81C20BDF8DF
S1137BB016100A234FF0FF09FDF75FFB9DF815002F
S1137BC04FF48A51E1802071BDF81C8000260AA977
S1137BD0F0B204F0A7FF002802BF9DF829009DF829
S1137BE01510884202BFBDF82A00BDF8161088425D
S1137BF009D19DF835109DF828002246FDF700F8BC
S1137C00484598BF8146761CF0B20228DFDDBDF8F6
S1137C101800FDF7F6F99DF81000FDF7E3F9294681
S1137C200EA8FDF71EFA002038740CF097F838609F
S1137C30002000909DF810000EAB2A46412818BF82
S1137C404228ACD1691EC9B20DF13900FFF74CFFCF
S1137C5000906B4604220020C7E90200D2B2194604
S1137C6007F10800FEF7FCFC0BF101001FFA80FB92
S1137C70DFF8A40801888B4576DA05A95846FFF792
S1137C8042FF0CF06BF8182202FB0BF2DFF88418A9
S1137C908F183D68451B9DF814000028E4D19DF819
S1137CA015000028E0D0FDF7AFFE0028DCD0BDF8B9
S1137CB020004FF47A7148438542D5D3387C30B9DB
S1137CC0BDF822000028CFD048438542CCD304A875
S1137CD00390BDF81C0041220EA90292019100906C
S1137CE09DF81A30BDF81820BDF816109DF815003F
S1137CF0FEF794FC0028B7D19DF81000FDF7AFFB08
S1137D000028B1D19DF8100041220EA905F0C4FD50
S1137D100500A9D0EA1CE4B120799DF815306188EA
S1137D20834204BFBDF816308B4210D19DF81A303F
S1137D30DB09534504BFBDF81C30434507D1DFF8C8
S1137D40DC371E88D2B292199145BFF660AF00F0BD
S1137D5015F8FDF708FB04469DF81A005FEAD01AEF
S1137D6014BF002008201EE71CB16188207900F0B0
S1137D7005F800F09FFA1FB0BDE8F08F10B50C466F
S1137D80FCF70AFC08B9032C0BD1DFF89407FDF7C4
S1137D90A2FAB42808BFFDF7ACFABDE81040FDF71D
S1137DA0B3BA10BD000000002DE9F04F87B00646BD
S1137DB0377D00218DF80610707D87A4009400287B
S1137DC007BF08204021002080218DF8041034686A
S1137DD0328A07236188FDF750FAB289B9B2C81C08
S1137DE0904280F2F280B0687F1C415C8DF80510EF
S1137DF000F0A2F982469DF80500BF1C10B10128CD
S1137E0057D0D0E0B068B9B2B289445C7F1C00F0AE
S1137E1093F98146B289B068BF1C00F08DF98046A1
S1137E2020460025BF1CFCF7AFFF58B9204605F0DB
S1137E3021FDB2898346B0685B46B9B2FDF72BF9E0
S1137E4005465F44318A30689DF8043000914188CA
S1137E5040795246FDF7D0FB00281EBF8078A0422F
S1137E608D2408D1482C18BF4C2C03D0502C18BF9B
S1137E70512C01D18C2497E0306841798DF8091098
S1137E80306841889DF80400ADF80CA0ADF80A10E4
S1137E908DF80E00318AADF81490ADF81680ADF867
S1137EA01010069502A800F08AFA0446200094D027
S1137EB07AE0B289B068B9B2DFF85C56FDF702F92E
S1137EC08046BF1CB5F800904FF0000B9DF80440AD
S1137ED001E00BF1010B29881FFA8BF088422CD2A8
S1137EE002A9FFF710FE9DF80800012801BF3068C1
S1137EF09DF8091042799142EBD1BDF80A104288ED
S1137F00914204BFBDF80C105145E2D19DF80E100A
S1137F10A14202BFBDF81010328A9142D9D1BDF8F6
S1137F201410F288914202BF9DF816100279914212
S1137F30CFD1D9468DF8044021E0B9F10E0F8DF868
S1137F400440A8BF89242FDA01208DF80800316885
S1137F5048798DF8090031689DF804004A88ADF825
S1137F600CA08DF80E00ADF80A20308AADF8100090
S1137F70F088ADF8140031680A798DF81620ADF850
S1137F80188002A8FCF7D4FF04008FD128881FFAB8
S1137F9089F202A9824204BF401C28801FFA89F09A
S1137FA0FFF7BBFD82E785242046FDF71BF89DF80B
S1137FB00500FDF717F85046FDF723F801208DF86A
S1137FC00600852C7FF409AF04E09DF8060008B98B
S1137FD0FDF708F8AAE00000000000002DE9F84FC2
S1137FE086B00446607D277DB1A1002800912668F3
S1137FF0228A07BF08204FF0400900204FF0800973
S113800009237188DFF810A5FDF737F908E085200A
S1138010FCF7E8FF2846FCF7E5FF4046FCF7F1FFD4
S1138020A289B9B2CB1C9A42C0F28080A0687F1C9E
S1138030455C00F081F8BF1C8046012DE7D8218AF9
S113804020684B460091418840794246FDF7D4FAB6
S1138050060008BF8620DBD04FF0000B01E00BF1D7
S1138060010BBAF800205FFA8BF0904259D201A9B3
S1138070FFF749FD9DF80400A84201BF21689DF85F
S113808005004A799042EAD1BDF806004A88904238
S113809004BFBDF808004045E1D19DF80A004845F9
S11380A002BFBDF80C00228A9042D8D19DF804008A
S11380B048B1BDF81000E288904202BF9DF812005A
S11380C009798842CBD10020FCF78CFF2846FCF7C5
S11380D089FF4046FCF795FF15B1012D23D09FE79A
S11380E0B078FCF77FFFBDF81000FCF78AFFBDF8FD
S11380F01200FCF786FFB078FCF746FE00288FD10B
S1138100B07805F0B7FB0646DDF81480F0B200281D
S113811086D05FFA88F0FCF765FF4FEA1828761ED0
S1138120F4E78B2074E7BDF8140077E7FCF700FD53
S1138130012007B0BDE8F08FB9B2FCF7C3BF80B52A
S113814003E0401E80B200F0FCF8DFF8CC1308888E
S11381500028F6D1DFF8CC13087002BD10B5DFF8A3
S1138160B8331C88B121A04202D200F022F90021C8
S1138170084610BD2DE9F84787B007468846914662
S11381809A46109D0024DFF8906300E0641C328856
S1138190A0B2904252D202A9FFF7B5FC9DF80800A4
S11381A0002804BF9DF80900B842EFD1BDF80A00C9
S11381B0404504BFBDF80C004845E7D19DF80E00CA
S11381C0504504BFBDF81000A842DFD1119E002025
S11381D00190129D304605F04DFB412E0146284684
S11381E018BF422E08D1FCF78FFF0146681CFFF729
S11381F07BFC019001A80421A4B218256C43DFF88C
S1138200147300912744D7E90223FCF7E3F90446E9
S11382100D463046FCF7B8FD012804D1002D08BFF7
S1138220002C07D10AE048B9002106988D4201D8F4
S1138230844203D301223A7400F03CF808B0BDE84C
S1138240F08710B542784B789A4202BF42884B8837
S11382509A421AD182888B889A4202BF82798B799A
S11382609A4212D102890B899A4202BF02780C7891
S1138270A2420AD13AB182898B899A4202BF807B99
S1138280897B884201D1012010BD002010BD014628
S113829038B5A14D28884FF6FF740E2805DA044638
S11382A0FFF73BFC2888401C2880204632BD000094
S11382B0000000002DE9F04F4FF0FF3985B0CA46A9
S11382C00026DFF850B24FF47A77DFF84C8209E0E9
S11382D0A11A03E014B19442FAD20021514598BF87
S11382E08A46761CB8F80020B0B290421CD200F046
S11382F05DF89DF800000028F3D1BDF80C50BDF8DE
S11383000E400BF02BFDB3B218214B437D437C434D
S11383105BF803205B444946821A187C0028D9D0B4
S11383209542DAD3A91AD9E77E481AF1010F03D08E
S11383305146FEF769FA01E00021017005B0BDE87D
S1138340F08FF8B5744D2B88044690B09C422BD224
S113835000F02CF8288800228DF80120401E81B2FC
S11383602880A14202D16946204618E0182605A9B2
S113837080B2FFF7C8FB2988664F0AA87143182208
S1138380394402F0EFFF05A920467443FFF7C5FB0B
S11383900AA93819182202F0E5FF69462888FFF770
S11383A0BCFB6846FCF7C4FD11B0F0BD6946FFF79D
S11383B0AABB80B5FFF7C5FFBDE801407AE72DE908
S11383C0F84386B007463889534EB6F800800090CB
S11383D0BB79BA88798878780125FDF70DF908B951
S11383E0862090E0F88920B1B989884238BF872077
S11383F0F7D3002400E0641C3188A0B2884221D263
S113840001A9FFF780FB9DF80400002802BF9DF836
S1138410050079788842EED1BDF806007988884253
S113842002BFBDF80800B9888842E4D19DF80A006B
S1138430B979884202BFBDF80C0039898842DAD183
S11384400025A046F8894FF6FF71884206D11DB970
S11384501FFA88F0FFF7ADFF002054E00024002845
S11384601FFA88F904BFB88988420AD11422394610
S113847001A8FEF7F5F801A80BF00CFC08B10124E3
S113848000E0BDB1B9F10E0FA8BF89203BDA00208E
S11384908DF8040079788DF805107888ADF8060019
S11384A0B888ADF80800B8798DF80A003889ADF8B5
S11384B00C003CB9B889ADF81000F889ADF8120089
S11384C03869059001A8FCF733FD05001AD13088FE
S11384D01FFA88F1814204BF401C3080182000FB41
S11384E009F40C4E0BF03AFC305106F1080200205E
S11384F02244C2E9000001A91FFA88F0FFF70DFB2E
S1138500FFF7D8FE284607B0BDE8F083C59D1C815F
S113851093010001A8580120607E0120467B0120C0
S1138520D97A0000A061012080B5A0B040887D22E6
S1138530694604F078FE01001CBF694603F0B9F8EF
S113854021B000BD0B46014680B5002218460BF051
S1138550B0FF010001D1182002BD01220121BDE8B4
S113856008400CF086B980B503F088F80120BDE816
S1138570024010B5040014BF084800200CF074FA3F
S113858050B1002C0346064914BF064A064A02208D
S1138590BDE8104002F045B810BD000060070400BB
S11385A01C070400480704005407040080B5522146
S11385B0504803F05FF8FF2252214F48BDE80840BD
S11385C0FEF78CB8FEB5054601F064FE0646284663
S11385D001F070FE9DF800102A464FF6FF741EB39A
S11385E0019B284621281B781ED24220434E022B91
S11385F009D24343F01830F81230A34214D05B1C64
S113860020F8123010E00FD1002306EB420700FBE4
S113861003F637F806E0A6451CBF0EF1010E27F855
S113862006E05B1C022BF2D3334F324E37F8123084
S113863036F812C09C458041C043C00FA4451CBFFE
S11386400CF1010C26F812C0092D18BF0B2D0AD10C
S1138650B6F814C0BF8A01EB0C0EBE45AEBFB7829C
S11386606144B1820CE01D2D0AD1B6F83AC07F8F67
S113867001EB0C0EBE45BDBF491E6144718777876F
S113868036F81210994203D310B92846FCF736FC89
S113869000201B49C6B28A5DAA4204D0401CC6B25F
S11386A0112EF7DBF7BD112E15DA02F0A8FD0546F1
S11386B0144801788D4203DBDD2113480CF04CFA99
S11386C0222045431149481930F81610A1421CBF15
S11386D0491C20F81610F7BD5221064802F0CABF03
S11386E0FF2252210448FDF7F9BF034A22F8101073
S11386F07047000040730120947301200C74012022
S1138700501E0400C8570120401E0400E8730120D5
S1138710DFF8F81AC873704770B5DFF8F45A29788F
S11387203824DFF8F06A3068614301448A78112AFA
S113873004D0B621DFF8E00A0CF00EFA287831688C
S1138740412214FB00F40819827070BD10B5022098
S113875002F058FD02F05DFDDFF8B43ADFF8B40A28
S11387601C78016838204443DFF8A02A08194178AE
S1138770042903D1107C401D107405E04FF47A7174
S113878002F1180005F0CBF8BDE8104002F042BD3C
S113879080B5DFF8880A0BF0FEFBDFF8840A0BF0E3
S11387A0FAFB0CF0D3FABDE801400CF0F0BADFF8A4
S11387B0602ADFF8600A1378016838204343C81838
S11387C0807833281CBF4328532801D101207047E7
S11387D0002070472DE9FF4E0DF020F809F0A5FAAE
S11387E0002867D0DFF8244A00202076DFF8340A16
S11387F001790C3001F0F6FA207D18B10CF0C0FAC2
S1138800002020750021217300F056F80DF004FDBE
S11388100DF077F8DFF8100A00274825DFF8F06933
S1138820DFF808BA00F1E20900F1E40A3DE00121B1
S113883011E002F0EEFC30784FF6FF72684339F82D
S113884000109142F3D100220821504401F034FE7B
S1138850411E8941C90F94F8202002F001020A4206
S113886020D030780822684339F80010ADF8081099
S11388700AEB00016846FDF7F3FE0A230A2201F021
S113888003FBDFF8900996F800C00168382010FB5C
S11388900CFC02230B2201EB0C0000F12C01002044
S11388A00DF0D5FE02F0B6FC7F1C9BF80010F8B268
S11388B08842BED3BDE8FF8E10B5DFF854090178B5
S11388C0DFF850293820136810FB01F01844407871
S11388D0032818BF04280CD148204143DFF8482955
S11388E05018B0F8E2104FF6FF72914208BF03200F
S11388F008D001F0EFFC044601F0F5FC214604F039
S11389009EF8022001F014FD0DF034FF01F08EF802
S11389100DF0AEFC01F053FB20B10020BDE8104087
S11389200EF0D6B910BDF8B5DFF8E478DFF8DC480E
S1138930E07339783825DFF8DC683068694301442E
S11389408878032818BF002823D0332818BF432869
S113895019D100F01FF83978306815FB01F5421978
S11389605178032918BF042907D10321801C4155DC
S1138970E07BBDE8F24002F0B7BCE07B02F0B4FC5F
S1138980BDE8F14098E721208870BDE8F14006F089
S1138990BEBDF1BDE37B132289A103200EF0E1BD2E
S11389A038B5DFF86C3801F07EFB00214FF6FE701D
S11389B01519A97009F0F9F84FF6FF7009F011F9CB
S11389C0DFF84848FFF7E6FFE07BBDE8324002F0FD
S11389D08BBC0000FEB50446E07A1522029094F99F
S11389E00A1003200191238934A1009323460EF039
S11389F0B8FD20890EF00FFE08B10220FEBD00F084
S1138A002BFB0A44907890B920894FF6FF71884275
S1138A100DD00EF0B1FE50B902F0FDFB38B902F0F2
S1138A20FCFB30B1DFF8E80A0178022901DA702092
S1138A30FEBD31783868694301440A79900708D546
S1138A4009F0A7F84FF6FE72904203D10FF0A8F890
S1138A5000E00020214601F05DF90100CED100F0D4
S1138A60F5FA0A7990074CBF0220012001F016F9AB
S1138A70002101200FF060FB0100BFD1DFF8941A40
S1138A80087808B110F0B3FD00220821204601F057
S1138A9013FD30B10421204610F032FE08B1A520A8
S1138AA0FEBDDFF8740A01780020DFF8502CE08165
S1138AB0217462612046BDE8FE40FAE142387057F5
S1138AC0424200002DE9F8430546DFF8500A0EF053
S1138AD09DFD80462B46182239A10320DFF830671C
S1138AE00EF03FFD002088F8000031783827DFF8C9
S1138AF02497D9F800007943702408444178032965
S1138B0018BF042924D00024290007D1416B91F80F
S1138B102400E8B181F824409D2017E0FF2D06D001
S1138B204FF47A7045434046294604F0F8FE327803
S1138B30D9F8001017FB02F701F13400C15991F87C
S1138B40240028B9012281F824209C2002F0CCFBC7
S1138B5000F06CFF2046BDE8F28310B5DFF8BC09D5
S1138B600EF054FDDFF8A836DFF8A8161C780A6862
S1138B7038214C4311194A6B92F8241009B900208A
S1138B8010BD04F0D9FE4FF47A71B0FBF1F0C0B21D
S1138B9010BD38B504F0C1FF0446DFF880190EF0AB
S1138BA036FD0546FF2818BF02F033FB0020207075
S1138BB0FFF788FFFF2D01D001F03ABB31BD000063
S1138BC04242000038B588B004460D466869162252
S1138BD00790297C0691E8890590297B0491E87A1D
S1138BE0039095F90A10032002912B89CDF80050C7
S1138BF00BA1019323460EF0B4FC01200CF011F9F3
S1138C00287B00280CBF4FF6FE7008F0C2FF2B46ED
S1138C102246014609B00120BDE83040ABE0000027
S1138C204242387057424242574244002DE9F047CD
S1138C30DFF8DC9599F800C08846DFF8D865382459
S1138C40316814FB0CFC1D4682468B1C13F80C0087
S1138C5000284BD1170049D0042F47DC0EF08CFDBF
S1138C60002843D102F0D7FA00283FD102F0D5FA08
S1138C7008B1042F3ADB287B032817D14FF6FE7185
S1138C80884515D1012F08BF4FF0000810D0022FDE
S1138C902CD108F07EFF4FF6FC71884202D208F016
S1138CA078FF01E00EF07CFF804601E0012F1DD02B
S1138CB0BAF1000F0CD0287B032838460CBF0121E1
S1138CC00021012F18BF00200FF036FA010030D127
S1138CD02946404601F01EF801002AD102F097FA15
S1138CE002F07AFA20B102F098FA08B1702020E07C
S1138CF099F80020306814FB02F4811C085D3328C5
S1138D0018BF532803D00020DFF8001588733846B5
S1138D1000F0C4FF00214FF6FF7001F0CAF9DFF83C
S1138D20F417087820B102F078FA08B910F05FFC63
S1138D300020BDE8F08738B50446DFF8D054082297
S1138D402146281DFDF78CFC207BDFF8C434022863
S1138D50C8BF0020287028789421E9730028DFF820
S1138D60B4041C780CBF012131210268382044432B
S1138D701019817031BD38B51C46FFF757FF01004B
S1138D8032D1207B0328204602D1BDE8324090E056
S1138D90FFF7D1FFDFF874040021818101F0E6FBC5
S1138DA0014640094FF0010305D1DFF87C0C02783D
S1138DB003FA01F108E001F01F0140F0180003FA82
S1138DC001F1052241EAC061062007F02DFF0100F0
S1138DD00AD0DFF83C44DFF83C1425780B683821CE
S1138DE04D43002259198A7032BDF8B586B0064643
S1138DF00C4617461D46082204F10C016846FDF78F
S1138E002FFC21898DF80A700022ADF80810217812
S1138E108DF80C206B468DF80B1032464FF6FE7120
S1138E200120FFF703FF01000AD16846FFF783FF23
S1138E30204600F007F8010004BFDFF8D0130D75D9
S1138E4007B0F0BD10B50446DFF8C423DFF8C4034F
S1138E501378016838204343C8184078032818BFA2
S1138E60042806D1E079C10744BF94F9050010F045
S1138E7056FC207801F0D1F801F00CF922896189BF
S1138E800346002010F046FD040004D09420FFF7B0
S1138E904AFD204610BD9420FFF73AFC022002F060
S1138EA0B0F9DFF8684300F0B4FD0320207400201B
S1138EB010BD10B504460022082101F0FDFA08B1E6
S1138EC0012010BD08F065FE00224FF6FF7100F08E
S1138ED05FFF217C204600F085FF6269E189207CE8
S1138EE00DF091FCCA4ACB481378016838204343FB
S1138EF0C8184178012908BF0FF048FFFFF7DCFCD0
S1138F00002010BD2DE9FC4100F0A6F804460A44F7
S1138F10907810B90EF030FC08B1702094E00BF09A
S1138F2089FFDFF8E8822CB10222214608F12000F3
S1138F30FDF796FB684601F08AF808B1932083E0B8
S1138F409DF800301422B0A103200EF00AFB00F0BB
S1138F509FFF010078D19DF8000000F09FFE327859
S1138F6038686A43411C885C012818BF022808D06D
S1138F70032818BF042842D1002001F0E1F800289A
S1138F803DD000F09CFF327838686A43411C885C0D
S1138F90032814BF042810F0B2FDFFF78DFC012054
S1138FA010F0D4FD01004FD13078396868434A1C71
S1138FB0125C032A18BF042A0ED198F820309C07AB
S1138FC008D50522DFF83417012000F061F801000C
S1138FD039D039E0032A01D0042A34D1084400F1FD
S1138FE02C0102230B2201200DF031FB00F02EF89E
S1138FF091F82C20500726D50CF0B3FD23E03178EE
S11390003868132215FB01F5012441198A700020E8
S113901088F80D0001F0AAFA400903D101F0A6FA7C
S113902084400BE001F0A2FA450901F09FFA00F038
S11390301F0045F01805844044EAC5640522214612
S1139040082007F0F1FD0020BDE8F681317838688A
S113905015FB01F5411970476D4E327838256D4F77
S113906039686A437047FF2212E0000038B50446AD
S1139070104603280D4618BF042801D0022032BD33
S113908000F00CFE294620465FF0FF02BDE83840A0
S11390902DE9FC41164680465D4A0D4600F098FED7
S11390A03FD08778022F07D0032F3AD15FEA080117
S11390B002D10079810734D4332001F039F90CF05E
S11390C0ADFB15F0784F294612BF0522DFF8580989
S11390D00278062007F0A8FD0446A0B94B4F387368
S11390E001200BF09EFE08F070FD78805FEA080016
S11390F014BF022001203870381D00F0C0FF00208A
S11391007873BE7302E0384601F012F95FEA080092
S11391103146284602D010F03CFD03E010F038FD43
S113912000E070240194009543462C2203A10320FF
S11391300EF017FA2046BDE8F68100004242444290
S11391400000000010B50BF0AAF800F1100420464E
S113915010F025FD4FF6FF5101402046BDE81040B8
S113916010F023BDF0B587B004000D4617461E4627
S113917008D1284610F001FE03A910F050F99328F5
S113918018BF03AC0C9807218DF8081002A9C87009
S11391904F7001203F0A00908DF80A700194042357
S11391A002AA0121284611F0F9F8040028D0294622
S11391B011F02EFB300004BF2046FFF7C3FF0D98CB
S11391C008B920461DE0300008D1114B1F78114822
S11391D0382102684F43D119C87820B9284610F0C5
S11391E0FBFE20B93EB9284611F02AFD18B12046ED
S11391F011F003FF04E000220021204612F0CBFA14
S1139200002007B0F0BD000042420000907601202B
S1139210F47E01202C53012078A20000807E0120DE
S11392207A7E0120B476012050790120C8570120AC
S11392302DE9FC4F8DB08A46104611F0B1FB06466D
S1139240BDF8340008A9002511F0E4F801460E9891
S11392504FF6FF79A846002814BF012400240027F4
S11392603CB109B10DF1200847787F0807F00107E8
S113927004E0BDF8340011F007FB8046DFF8D41B8E
S11392800978DFF8A02C382012684143531C585C3D
S113929003281CBF0428B8F1000F00F0358118988A
S11392A0731C1E5C8DF808A0700800F001008DF896
S11392B00200300658BF46F0800650188378022B0F
S11392C008D1BAF1000F01BF3432515891F824008B
S11392D0002801D10225C2E0404608F0CBFB8346BA
S11392E0BDF8340011F0E6FA824608B94FF0010ADD
S11392F034B10E98001D10F052FCADF8000001E0EE
S1139300ADF800B0404611F02FFC834641460020E2
S113931010F005FD01469DF8020008BBDFF8040CBF
S11393200068DFF8043C1A7800F13403DFF8240BFA
S113933090F800C0382010FB0CFC53F80C30187E59
S1139340824208BFFF290AD00021002010F0E7FC68
S1139350FF2804D0CB4503D111F0FCFB00287DD0BD
S1139360BDF800004FF6F871884221DA8B450CDA1B
S11393705946884209D042460AA811F01DFB00F064
S1139380CFF8002105A811F0C8FBBDF800B003A96F
S1139390584608F08FFB58B90022082103A801F0B1
S11393A08BF828B9082203A9404612F00FFB30B904
S11393B04FF6F8718B4502DABBF1000F07D10EF0BE
S11393C0EFFB834603A908F075FB0028F7D03800AB
S11393D00AD1DFF8801A09783820DFF8482B414396
S11393E012685318D878E8B900F09FF80121009169
S11393F0CDF804A033465A46414600F0010011F06E
S113940016FD4FF6FF718146884227D00022494657
S11394100AA811F0D1FA00F083F8002105A811F090
S11394207CFB1CE01CB1101D415C8A0716D442462B
S113943059460AA811F0C0FA00F072F800F075F865
S113944000F001015346324605A811F0A6FB28B9E5
S1139450BDF81C904FF6FF71894500D101250E9887
S1139460A8B19DF8080020B948464FF6FF7188421C
S113947003D10E98001D10F092FB012101910146C9
S113948000953B464A464046FFF76CFE08E000F074
S11394904CF82B464A46414600F0010010F02BFAE6
S11394A038001EBF48464FF6FF71884219D010F0AD
S11394B064FCFF2815D0DFF89C4994F800C0DFF85D
S11394C0641A0A68382111FB0CFC02F134034BF6D0
S11394D0FF7153F80C20526832F810300B4022F818
S11394E010300E9880B108F054FB0FB1002405E051
S11394F09DF80810002914BF0324012401464346A3
S11395004A46204612F076FA0FB0BDE8F08F00000C
S1139510DC570120E1570120F27E0120FC75012077
S113952005A80AA90A2201F01DBFBDF8340011F0F4
S11395303DB92DE9FE4F81460F46144601A9384630
S113954010F068FF834600210091384611F028FA94
S11395508246DFF8E86B5FEA090009D0BBF1000F2F
S1139560504618BF0DF1040B10F049FF054604E006
S1139570384611F089F983463546384611F010FA19
S113958002590DF10100009210F009FB80465FEAD8
S113959009009DF8034018BF002D06D0082231466B
S11395A0284612F013FA002807D13CB94FF6F87197
S11395B0884503DB9420FFF7B6F997E0DFF8946859
S11395C031783825DFF85C2915FB01F1126853184E
S11395D0D87818B19AF80100830714D55FEA090016
S11395E011D0901C415C022908BF002C0BD14046CD
S11395F008F0DBFA0CF010FE9923FFF7CCF9992060
S113960001F072FE72E000F069FF0028DFF8287CA8
S113961018BF002C05D09420FFF785F90020387678
S113962064E000F05BFF002860D0584612F0A7FD0C
S1139630FF28DFF8B84B18BF5FEA090106D132787A
S1139640482059464243A05A12F088FF12F0EBFF1B
S1139650317848205A4641434046615ADFF8C448AD
S113966000F096FBDFF8C40B90F90210090279842C
S11396703078216815FB00F08A1C125C012A16BFA1
S1139680312A11224322891C0A54022001F0B9FD17
S1139690DFF8A80B016807F1180004F040F910F096
S11396A02EFA00203874317815FB01F521684A1927
S11396B0D07820B907F1180004F026F914E0B9F1C4
S11396C0000F06D09AF80100820702D5FFF782F84E
S11396D00AE0481C415D042906D1052107F1180060
S11396E004F01DF909203874AD21F97300F067FC0A
S11396F010B100200DF0ECFABDE8F78F00F8FF0779
S11397002DE9F04F88468DB0404611F049F90546E1
S11397100922002113F094F90646404611F0B4F8EA
S1139720824602AB052205A9404613F0E1F98DF803
S1139730000002282AD09DF8080000238619F6B2FA
S1139740A95D06F11002D2B28DF801104146012044
S113975010F01AFA002819D09DF801003827DFF814
S1139760F446DFF8C0974FF6FF7B01280FD002289C
S113977019D0042800F0CB80062822D0072800F056
S11397809180082838D07C2800F09380E8E0404697
S113979011F00CF8009600234246002100F001006D
S11397A0FFF746FDDCE000F0E4F8012B02BFDFF830
S11397B0881A0878002803D132464146FFF7B9FEDB
S11397C0CEE0504610F08BFA0646584508D0404685
S11397D010F0ECFF3246514600F0010010F076F82C
S11397E000F0C7F8022B06D101F010FD504610F02E
S11397F0BFF901F00FFDB3E0A819401C10F0CFF938
S1139800ADF80200A819C01C10F0C9F9ADF80000A9
S1139810A819801D10F0C3F906465845EBD010F086
S11398206EF900F0A0F88B5C132B09D100F047FB14
S1139830404611F029F80146BDF8000012F08EFEF2
S113984000F091F8885C022818BF132823D1304611
S113985008F0ABF9BDF8020008F0C3F900210020BC
S113986000F0C0FABDF80000514600F022FCDFF819
S1139870BC09C078DFF8C8190F28B4BF401C0F20FA
S1139880087000F0D3F8207817FB00F7D9F800002F
S1139890811CCA5D132A63D12321801CC15507F0A2
S11398A032FA5DE09DF8001005AA40460BF0CFFAAD
S11398B056E0A8194078652802BFA91C885D6D2868
S11398C04ED1404613360AF002FDF1B2814247D22E
S11398D00822514603A8FCF7C3FE6A46F1B240468B
S11398E010F014FC00283BD1BDF80000C0B3DFF831
S11398F054490120207001F089FCBDF8001003A830
S113990010F02AF901F086FC0020207028E00622DD
S11399100021284613F094F8281810F040F9044662
S113992011F0C6F8E0B90FF660100088002101912B
S1139930ADF80A00009102230DF10A02012120462C
S113994010F02CFD06000BD0214610F061FF4046BC
S113995010F02CFF0022314600F001000AF0C7FF8E
S11399600DB0BDE8F08F2278D9F800007A43811C4D
S113997070472278D9F8000017FB02F7811CCB5DF1
S11399807047F8B5022001F03DFC01F042FCDFF81D
S1139990A848002020763825DFF8B864DFF88475FD
S11399A008F0C3F940B1327839686A430A44D07880
S11399B010B9FEF70FFF2BE008F0B7F910B900F06B
S11399C08DFD68B1207C58B100F023F8207C411E45
S11399D0217401F01CFC014600200DF0DCFA17E0B4
S11399E0327838686A43811C8B5C132B0DD000F0ED
S11399F075FD50B93278386815FB02F5811C485D55
S1139A0011281CBF4328412802D1E07BFEF78BFFBD
S1139A10D1E2C82104F1180003F081BF0020DFF86F
S1139A201818087470470000E257012080B501F04F
S1139A3019FCFF2807D000F0E8FA416B91F82400E4
S1139A4010B1012000E000200FF0E8FEDFF8E80785
S1139A5000214180001DC0E9001101BD2DE9F84F2E
S1139A600C460546DFF8E0670121DFF8C0A784B0A3
S1139A709046717350460BF08EF905F00FFA0028EA
S1139A8014D1012D18BF042D00D085B9CDF8008064
S1139A9023462622BDA103200DF063FD01F0B6FB91
S1139AA04146204603F0F8FC01F0B4FBBBE0DFF8CC
S1139AB0A4733A78DFF86C54382428686243811C14
S1139AC0885C23280DD100F005FC044600F00BFC53
S1139AD0214602F0B4FF022000F02AFC0BF011FF33
S1139AE0A1E0B8F1000FFBD121281CBF04285328A2
S1139AF002D105F00CFD96E000F0F0FC002800F027
S1139B00AC800BF08AF928B9307B00280CBFAB205D
S1139B1094209FE050460BF03EF928B140F21B71AF
S1139B200FF254700BF018F8307818B95046FFF75C
S1139B3089F978E008F02DF83A788346286862437A
S1139B40411C885C032818BF042807D19AF8070031
S1139B50C10744BF9AF905000FF0E1FD9AF800002F
S1139B60DFF888864FF0480900F057FABAF80A007F
S1139B70002100F09EFA00F0B1FC80B1BBF1000FAF
S1139B8003D04FF6F8718B4509DB0EF009F83978EC
S1139B90834619FB01F138F801209042F5D058466C
S1139BA008F003F8BAF8080008F01BF806208DF84E
S1139BB0080000F06FFA8DF8090000200190009071
S1139BC03878022302AA19FB00F0012138F80000BA
S1139BD010F0E4FB824608B918203BE0387819FB02
S1139BE000F9504638F8091010F012FE30780228B7
S1139BF01CBF5046FFF7A6FA00220021504611F080
S1139C00CAFD30B39420F073022001F0FAFA3A78D6
S1139C10286800F079F814D1C82106F1180003F07F
S1139C207EFE032030741020002110F0B8F910B922
S1139C3011F0FBFD10B100200DF0ACF905B0BDE84A
S1139C40F08F4FF4167106F1180003F068FE00203F
S1139C50E8E79420FEF767FEE5E73A782868624370
S1139C60811C8B5C132BDED100F00AF9BDF80000D7
S1139C7007F0B7FF00F023F9387814FB00F42868E4
S1139C80411C095D032918BF042904D13321801C18
S1139C9001559620DEE7FEF70FFEC4E7F8B5074648
S1139CA06C4D2878DFF8A4653824316860434A1C79
S1139CB0135CBB4204D0491C0F54384601F00DFB21
S1139CC004F0D5FF60B13FB9002004F0CCFF01F0EF
S1139CD09EFA0146012212E0012004F0C4FF00E0D4
S1139CE027B12A78306800F00FF804D101F08FFA18
S1139CF00146002203E001F08AFA01220146002015
S1139D00BDE8F8400AF0C8BD14FB02F4411C0B5D29
S1139D10042B704770B592B006460C4601F06DFAFC
S1139D20E17A0546002013F0BCF908B98A202AE03C
S1139D3094F90A0000F0F0FB08B18B2023E000F056
S1139D407FF9E17A00F8D41FA27A294642706A4664
S1139D5000200DF048F84FF6FE708642ADF804601E
S1139D606A460CBF4FF6FF702089ADF80200294601
S1139D7000200CF05DFF08B1022004E02089DFF828
S1139D80C8144880002012B070BD00004242420056
S1139D9038B50C46154607F008FF0DF0B9FE294604
S1139DA0204600F086F90BF038F838B1DFF87C046F
S1139DB0C0780F28ACBF0F20401C05E0254A00F0F6
S1139DC007F80CBF00200120DFF87414087031BDBF
S1139DD0DFF878041378016838204343C8184178C1
S1139DE0012970477FB504460E4600F049F8194D25
S1139DF0C4B1DFF85C24002130460CF004FD29785E
S1139E003820484A414310680822435C08448DF8CE
S1139E100430417802A88DF805102146FCF720FC97
S1139E2014F0DAF82A784820DFF828144243881816
